{
	"contracts/DisasterRecoveryTraining.sol": {
		"DisasterRecoveryTraining": {
			"abi": [
				{
					"inputs": [],
					"stateMutability": "nonpayable",
					"type": "constructor"
				},
				{
					"inputs": [
						{
							"internalType": "uint256",
							"name": "trainerId",
							"type": "uint256"
						},
						{
							"internalType": "uint256",
							"name": "participantId",
							"type": "uint256"
						},
						{
							"internalType": "uint256",
							"name": "slotId",
							"type": "uint256"
						}
					],
					"name": "bookTrainingSlot",
					"outputs": [
						{
							"internalType": "bool",
							"name": "",
							"type": "bool"
						}
					],
					"stateMutability": "nonpayable",
					"type": "function"
				},
				{
					"inputs": [
						{
							"internalType": "uint256",
							"name": "id",
							"type": "uint256"
						},
						{
							"internalType": "string",
							"name": "name",
							"type": "string"
						},
						{
							"internalType": "uint256",
							"name": "age",
							"type": "uint256"
						}
					],
					"name": "registerAdmin",
					"outputs": [
						{
							"internalType": "uint256",
							"name": "",
							"type": "uint256"
						}
					],
					"stateMutability": "nonpayable",
					"type": "function"
				},
				{
					"inputs": [
						{
							"internalType": "uint256",
							"name": "id",
							"type": "uint256"
						},
						{
							"internalType": "string",
							"name": "name",
							"type": "string"
						},
						{
							"internalType": "uint256",
							"name": "age",
							"type": "uint256"
						},
						{
							"internalType": "string",
							"name": "gender",
							"type": "string"
						},
						{
							"internalType": "string",
							"name": "district",
							"type": "string"
						},
						{
							"internalType": "uint256",
							"name": "training_interest",
							"type": "uint256"
						},
						{
							"internalType": "bool",
							"name": "has_completed_training",
							"type": "bool"
						}
					],
					"name": "registerParticipant",
					"outputs": [
						{
							"internalType": "uint256",
							"name": "",
							"type": "uint256"
						}
					],
					"stateMutability": "nonpayable",
					"type": "function"
				},
				{
					"inputs": [
						{
							"internalType": "uint256",
							"name": "id",
							"type": "uint256"
						},
						{
							"internalType": "string",
							"name": "name",
							"type": "string"
						},
						{
							"internalType": "uint256",
							"name": "age",
							"type": "uint256"
						},
						{
							"internalType": "string",
							"name": "gender",
							"type": "string"
						}
					],
					"name": "registerTrainer",
					"outputs": [
						{
							"internalType": "uint256",
							"name": "",
							"type": "uint256"
						}
					],
					"stateMutability": "nonpayable",
					"type": "function"
				},
				{
					"inputs": [
						{
							"internalType": "uint256",
							"name": "participantId",
							"type": "uint256"
						},
						{
							"internalType": "uint256",
							"name": "newTrainingInterest",
							"type": "uint256"
						},
						{
							"internalType": "bool",
							"name": "has_completed_training",
							"type": "bool"
						}
					],
					"name": "updateParticipantData",
					"outputs": [],
					"stateMutability": "nonpayable",
					"type": "function"
				},
				{
					"inputs": [],
					"name": "viewAdminBalance",
					"outputs": [
						{
							"internalType": "uint256[]",
							"name": "adminIdList",
							"type": "uint256[]"
						},
						{
							"internalType": "uint256[]",
							"name": "balanceList",
							"type": "uint256[]"
						}
					],
					"stateMutability": "view",
					"type": "function"
				},
				{
					"inputs": [
						{
							"internalType": "uint256",
							"name": "participantId",
							"type": "uint256"
						}
					],
					"name": "viewParticipantData",
					"outputs": [
						{
							"internalType": "uint256",
							"name": "id",
							"type": "uint256"
						},
						{
							"internalType": "string",
							"name": "name",
							"type": "string"
						},
						{
							"internalType": "uint256",
							"name": "age",
							"type": "uint256"
						},
						{
							"internalType": "string",
							"name": "gender",
							"type": "string"
						},
						{
							"internalType": "string",
							"name": "district",
							"type": "string"
						},
						{
							"internalType": "uint256",
							"name": "training_interest",
							"type": "uint256"
						},
						{
							"internalType": "bool",
							"name": "has_completed_training",
							"type": "bool"
						},
						{
							"internalType": "uint256",
							"name": "balance",
							"type": "uint256"
						}
					],
					"stateMutability": "view",
					"type": "function"
				},
				{
					"inputs": [
						{
							"internalType": "uint256",
							"name": "trainerId",
							"type": "uint256"
						}
					],
					"name": "viewTrainerSchedule",
					"outputs": [
						{
							"internalType": "uint256[]",
							"name": "availableSlots",
							"type": "uint256[]"
						},
						{
							"internalType": "string[]",
							"name": "timeRanges",
							"type": "string[]"
						}
					],
					"stateMutability": "view",
					"type": "function"
				}
			],
			"devdoc": {
				"kind": "dev",
				"methods": {},
				"version": 1
			},
			"evm": {
				"assembly": "    /* \"contracts/DisasterRecoveryTraining.sol\":65:8233  contract DisasterRecoveryTraining {... */\n  mstore(0x40, 0x80)\n    /* \"contracts/DisasterRecoveryTraining.sol\":1627:1648  constructor() {... */\n  callvalue\n  dup1\n  iszero\n  tag_1\n  jumpi\n  revert(0x00, 0x00)\ntag_1:\n  pop\n    /* \"contracts/DisasterRecoveryTraining.sol\":65:8233  contract DisasterRecoveryTraining {... */\n  dataSize(sub_0)\n  dup1\n  dataOffset(sub_0)\n  0x00\n  codecopy\n  0x00\n  return\nstop\n\nsub_0: assembly {\n        /* \"contracts/DisasterRecoveryTraining.sol\":65:8233  contract DisasterRecoveryTraining {... */\n      mstore(0x40, 0x80)\n      callvalue\n      dup1\n      iszero\n      tag_1\n      jumpi\n      revert(0x00, 0x00)\n    tag_1:\n      pop\n      jumpi(tag_2, lt(calldatasize, 0x04))\n      shr(0xe0, calldataload(0x00))\n      dup1\n      0x6620f95f\n      gt\n      tag_11\n      jumpi\n      dup1\n      0x6620f95f\n      eq\n      tag_7\n      jumpi\n      dup1\n      0x6c80cd33\n      eq\n      tag_8\n      jumpi\n      dup1\n      0x710e2aba\n      eq\n      tag_9\n      jumpi\n      dup1\n      0xa30b027b\n      eq\n      tag_10\n      jumpi\n      jump(tag_2)\n    tag_11:\n      dup1\n      0x3a7002e1\n      eq\n      tag_3\n      jumpi\n      dup1\n      0x51eca4dd\n      eq\n      tag_4\n      jumpi\n      dup1\n      0x5a29dc29\n      eq\n      tag_5\n      jumpi\n      dup1\n      0x5ffc80f2\n      eq\n      tag_6\n      jumpi\n    tag_2:\n      revert(0x00, 0x00)\n        /* \"contracts/DisasterRecoveryTraining.sol\":3219:3827  function updateParticipantData(uint256 participantId, uint256 newTrainingInterest, bool has_completed_training) external onlyAdmin {... */\n    tag_3:\n      tag_12\n      0x04\n      dup1\n      calldatasize\n      sub\n      dup2\n      add\n      swap1\n      tag_13\n      swap2\n      swap1\n      tag_14\n      jump\t// in\n    tag_13:\n      tag_15\n      jump\t// in\n    tag_12:\n      stop\n        /* \"contracts/DisasterRecoveryTraining.sol\":6736:8231  function viewTrainerSchedule(uint256 trainerId) external view returns (... */\n    tag_4:\n      tag_16\n      0x04\n      dup1\n      calldatasize\n      sub\n      dup2\n      add\n      swap1\n      tag_17\n      swap2\n      swap1\n      tag_18\n      jump\t// in\n    tag_17:\n      tag_19\n      jump\t// in\n    tag_16:\n      mload(0x40)\n      tag_20\n      swap3\n      swap2\n      swap1\n      tag_21\n      jump\t// in\n    tag_20:\n      mload(0x40)\n      dup1\n      swap2\n      sub\n      swap1\n      return\n        /* \"contracts/DisasterRecoveryTraining.sol\":4861:5427  function viewAdminBalance() external view returns (uint256[] memory adminIdList, uint256[] memory balanceList) {... */\n    tag_5:\n      tag_22\n      tag_23\n      jump\t// in\n    tag_22:\n      mload(0x40)\n      tag_24\n      swap3\n      swap2\n      swap1\n      tag_25\n      jump\t// in\n    tag_24:\n      mload(0x40)\n      dup1\n      swap2\n      sub\n      swap1\n      return\n        /* \"contracts/DisasterRecoveryTraining.sol\":5437:6134  function viewParticipantData(uint256 participantId) external view returns (... */\n    tag_6:\n      tag_26\n      0x04\n      dup1\n      calldatasize\n      sub\n      dup2\n      add\n      swap1\n      tag_27\n      swap2\n      swap1\n      tag_18\n      jump\t// in\n    tag_27:\n      tag_28\n      jump\t// in\n    tag_26:\n      mload(0x40)\n      tag_29\n      swap9\n      swap8\n      swap7\n      swap6\n      swap5\n      swap4\n      swap3\n      swap2\n      swap1\n      tag_30\n      jump\t// in\n    tag_29:\n      mload(0x40)\n      dup1\n      swap2\n      sub\n      swap1\n      return\n        /* \"contracts/DisasterRecoveryTraining.sol\":3837:4851  function bookTrainingSlot(uint256 trainerId, uint256 participantId, uint256 slotId) external returns (bool) {... */\n    tag_7:\n      tag_31\n      0x04\n      dup1\n      calldatasize\n      sub\n      dup2\n      add\n      swap1\n      tag_32\n      swap2\n      swap1\n      tag_33\n      jump\t// in\n    tag_32:\n      tag_34\n      jump\t// in\n    tag_31:\n      mload(0x40)\n      tag_35\n      swap2\n      swap1\n      tag_36\n      jump\t// in\n    tag_35:\n      mload(0x40)\n      dup1\n      swap2\n      sub\n      swap1\n      return\n        /* \"contracts/DisasterRecoveryTraining.sol\":2051:2408  function registerTrainer(uint256 id, string memory name, uint256 age, string memory gender) external returns (uint256) {... */\n    tag_8:\n      tag_37\n      0x04\n      dup1\n      calldatasize\n      sub\n      dup2\n      add\n      swap1\n      tag_38\n      swap2\n      swap1\n      tag_39\n      jump\t// in\n    tag_38:\n      tag_40\n      jump\t// in\n    tag_37:\n      mload(0x40)\n      tag_41\n      swap2\n      swap1\n      tag_42\n      jump\t// in\n    tag_41:\n      mload(0x40)\n      dup1\n      swap2\n      sub\n      swap1\n      return\n        /* \"contracts/DisasterRecoveryTraining.sol\":1658:2041  function registerAdmin(uint256 id, string memory name, uint256 age) external returns (uint256) {... */\n    tag_9:\n      tag_43\n      0x04\n      dup1\n      calldatasize\n      sub\n      dup2\n      add\n      swap1\n      tag_44\n      swap2\n      swap1\n      tag_45\n      jump\t// in\n    tag_44:\n      tag_46\n      jump\t// in\n    tag_43:\n      mload(0x40)\n      tag_47\n      swap2\n      swap1\n      tag_42\n      jump\t// in\n    tag_47:\n      mload(0x40)\n      dup1\n      swap2\n      sub\n      swap1\n      return\n        /* \"contracts/DisasterRecoveryTraining.sol\":2418:3209  function registerParticipant(... */\n    tag_10:\n      tag_48\n      0x04\n      dup1\n      calldatasize\n      sub\n      dup2\n      add\n      swap1\n      tag_49\n      swap2\n      swap1\n      tag_50\n      jump\t// in\n    tag_49:\n      tag_51\n      jump\t// in\n    tag_48:\n      mload(0x40)\n      tag_52\n      swap2\n      swap1\n      tag_42\n      jump\t// in\n    tag_52:\n      mload(0x40)\n      dup1\n      swap2\n      sub\n      swap1\n      return\n        /* \"contracts/DisasterRecoveryTraining.sol\":3219:3827  function updateParticipantData(uint256 participantId, uint256 newTrainingInterest, bool has_completed_training) external onlyAdmin {... */\n    tag_15:\n        /* \"contracts/DisasterRecoveryTraining.sol\":1545:1552  isAdmin */\n      0x01\n        /* \"contracts/DisasterRecoveryTraining.sol\":1545:1564  isAdmin[msg.sender] */\n      0x00\n        /* \"contracts/DisasterRecoveryTraining.sol\":1553:1563  msg.sender */\n      caller\n        /* \"contracts/DisasterRecoveryTraining.sol\":1545:1564  isAdmin[msg.sender] */\n      0xffffffffffffffffffffffffffffffffffffffff\n      and\n      0xffffffffffffffffffffffffffffffffffffffff\n      and\n      dup2\n      mstore\n      0x20\n      add\n      swap1\n      dup2\n      mstore\n      0x20\n      add\n      0x00\n      keccak256\n      0x00\n      swap1\n      sload\n      swap1\n      0x0100\n      exp\n      swap1\n      div\n      0xff\n      and\n        /* \"contracts/DisasterRecoveryTraining.sol\":1537:1603  require(isAdmin[msg.sender], \"Only admin can perform this action\") */\n      tag_54\n      jumpi\n      mload(0x40)\n      0x08c379a000000000000000000000000000000000000000000000000000000000\n      dup2\n      mstore\n      0x04\n      add\n      tag_55\n      swap1\n      tag_56\n      jump\t// in\n    tag_55:\n      mload(0x40)\n      dup1\n      swap2\n      sub\n      swap1\n      revert\n    tag_54:\n        /* \"contracts/DisasterRecoveryTraining.sol\":3402:3403  0 */\n      0x00\n        /* \"contracts/DisasterRecoveryTraining.sol\":3368:3380  participants */\n      0x03\n        /* \"contracts/DisasterRecoveryTraining.sol\":3368:3395  participants[participantId] */\n      0x00\n        /* \"contracts/DisasterRecoveryTraining.sol\":3381:3394  participantId */\n      dup6\n        /* \"contracts/DisasterRecoveryTraining.sol\":3368:3395  participants[participantId] */\n      dup2\n      mstore\n      0x20\n      add\n      swap1\n      dup2\n      mstore\n      0x20\n      add\n      0x00\n      keccak256\n        /* \"contracts/DisasterRecoveryTraining.sol\":3368:3398  participants[participantId].id */\n      0x00\n      add\n      sload\n        /* \"contracts/DisasterRecoveryTraining.sol\":3368:3403  participants[participantId].id != 0 */\n      sub\n        /* \"contracts/DisasterRecoveryTraining.sol\":3360:3429  require(participants[participantId].id != 0, \"Participant not found\") */\n      tag_58\n      jumpi\n      mload(0x40)\n      0x08c379a000000000000000000000000000000000000000000000000000000000\n      dup2\n      mstore\n      0x04\n      add\n      tag_59\n      swap1\n      tag_60\n      jump\t// in\n    tag_59:\n      mload(0x40)\n      dup1\n      swap2\n      sub\n      swap1\n      revert\n    tag_58:\n        /* \"contracts/DisasterRecoveryTraining.sol\":3470:3471  2 */\n      0x02\n        /* \"contracts/DisasterRecoveryTraining.sol\":3447:3466  newTrainingInterest */\n      dup3\n        /* \"contracts/DisasterRecoveryTraining.sol\":3447:3471  newTrainingInterest <= 2 */\n      gt\n      iszero\n        /* \"contracts/DisasterRecoveryTraining.sol\":3439:3501  require(newTrainingInterest <= 2, \"Invalid training interest\") */\n      tag_61\n      jumpi\n      mload(0x40)\n      0x08c379a000000000000000000000000000000000000000000000000000000000\n      dup2\n      mstore\n      0x04\n      add\n      tag_62\n      swap1\n      tag_63\n      jump\t// in\n    tag_62:\n      mload(0x40)\n      dup1\n      swap2\n      sub\n      swap1\n      revert\n    tag_61:\n        /* \"contracts/DisasterRecoveryTraining.sol\":3520:3541  Participant storage p */\n      0x00\n        /* \"contracts/DisasterRecoveryTraining.sol\":3544:3556  participants */\n      0x03\n        /* \"contracts/DisasterRecoveryTraining.sol\":3544:3571  participants[participantId] */\n      0x00\n        /* \"contracts/DisasterRecoveryTraining.sol\":3557:3570  participantId */\n      dup6\n        /* \"contracts/DisasterRecoveryTraining.sol\":3544:3571  participants[participantId] */\n      dup2\n      mstore\n      0x20\n      add\n      swap1\n      dup2\n      mstore\n      0x20\n      add\n      0x00\n      keccak256\n        /* \"contracts/DisasterRecoveryTraining.sol\":3520:3571  Participant storage p = participants[participantId] */\n      swap1\n      pop\n        /* \"contracts/DisasterRecoveryTraining.sol\":3590:3591  p */\n      dup1\n        /* \"contracts/DisasterRecoveryTraining.sol\":3590:3614  p.has_completed_training */\n      0x05\n      add\n      0x01\n      swap1\n      sload\n      swap1\n      0x0100\n      exp\n      swap1\n      div\n      0xff\n      and\n        /* \"contracts/DisasterRecoveryTraining.sol\":3589:3614  !p.has_completed_training */\n      iszero\n        /* \"contracts/DisasterRecoveryTraining.sol\":3589:3640  !p.has_completed_training || has_completed_training */\n      dup1\n      tag_64\n      jumpi\n      pop\n        /* \"contracts/DisasterRecoveryTraining.sol\":3618:3640  has_completed_training */\n      dup2\n        /* \"contracts/DisasterRecoveryTraining.sol\":3589:3640  !p.has_completed_training || has_completed_training */\n    tag_64:\n        /* \"contracts/DisasterRecoveryTraining.sol\":3581:3687  require(!p.has_completed_training || has_completed_training, \"Cannot change completed from true to false\") */\n      tag_65\n      jumpi\n      mload(0x40)\n      0x08c379a000000000000000000000000000000000000000000000000000000000\n      dup2\n      mstore\n      0x04\n      add\n      tag_66\n      swap1\n      tag_67\n      jump\t// in\n    tag_66:\n      mload(0x40)\n      dup1\n      swap2\n      sub\n      swap1\n      revert\n    tag_65:\n        /* \"contracts/DisasterRecoveryTraining.sol\":3741:3760  newTrainingInterest */\n      dup3\n        /* \"contracts/DisasterRecoveryTraining.sol\":3728:3761  TrainingType(newTrainingInterest) */\n      0x02\n      dup2\n      gt\n      iszero\n      tag_68\n      jumpi\n      tag_69\n      tag_70\n      jump\t// in\n    tag_69:\n    tag_68:\n        /* \"contracts/DisasterRecoveryTraining.sol\":3706:3707  p */\n      dup2\n        /* \"contracts/DisasterRecoveryTraining.sol\":3706:3725  p.training_interest */\n      0x05\n      add\n      0x00\n        /* \"contracts/DisasterRecoveryTraining.sol\":3706:3761  p.training_interest = TrainingType(newTrainingInterest) */\n      0x0100\n      exp\n      dup2\n      sload\n      dup2\n      0xff\n      mul\n      not\n      and\n      swap1\n      dup4\n      0x02\n      dup2\n      gt\n      iszero\n      tag_71\n      jumpi\n      tag_72\n      tag_70\n      jump\t// in\n    tag_72:\n    tag_71:\n      mul\n      or\n      swap1\n      sstore\n      pop\n        /* \"contracts/DisasterRecoveryTraining.sol\":3798:3820  has_completed_training */\n      dup2\n        /* \"contracts/DisasterRecoveryTraining.sol\":3771:3772  p */\n      dup2\n        /* \"contracts/DisasterRecoveryTraining.sol\":3771:3795  p.has_completed_training */\n      0x05\n      add\n      0x01\n        /* \"contracts/DisasterRecoveryTraining.sol\":3771:3820  p.has_completed_training = has_completed_training */\n      0x0100\n      exp\n      dup2\n      sload\n      dup2\n      0xff\n      mul\n      not\n      and\n      swap1\n      dup4\n      iszero\n      iszero\n      mul\n      or\n      swap1\n      sstore\n      pop\n        /* \"contracts/DisasterRecoveryTraining.sol\":3350:3827  {... */\n      pop\n        /* \"contracts/DisasterRecoveryTraining.sol\":3219:3827  function updateParticipantData(uint256 participantId, uint256 newTrainingInterest, bool has_completed_training) external onlyAdmin {... */\n      pop\n      pop\n      pop\n      jump\t// out\n        /* \"contracts/DisasterRecoveryTraining.sol\":6736:8231  function viewTrainerSchedule(uint256 trainerId) external view returns (... */\n    tag_19:\n        /* \"contracts/DisasterRecoveryTraining.sol\":6816:6847  uint256[] memory availableSlots */\n      0x60\n        /* \"contracts/DisasterRecoveryTraining.sol\":6857:6883  string[] memory timeRanges */\n      dup1\n        /* \"contracts/DisasterRecoveryTraining.sol\":6934:6935  0 */\n      0x00\n        /* \"contracts/DisasterRecoveryTraining.sol\":6908:6916  trainers */\n      0x02\n        /* \"contracts/DisasterRecoveryTraining.sol\":6908:6927  trainers[trainerId] */\n      0x00\n        /* \"contracts/DisasterRecoveryTraining.sol\":6917:6926  trainerId */\n      dup6\n        /* \"contracts/DisasterRecoveryTraining.sol\":6908:6927  trainers[trainerId] */\n      dup2\n      mstore\n      0x20\n      add\n      swap1\n      dup2\n      mstore\n      0x20\n      add\n      0x00\n      keccak256\n        /* \"contracts/DisasterRecoveryTraining.sol\":6908:6930  trainers[trainerId].id */\n      0x00\n      add\n      sload\n        /* \"contracts/DisasterRecoveryTraining.sol\":6908:6935  trainers[trainerId].id != 0 */\n      sub\n        /* \"contracts/DisasterRecoveryTraining.sol\":6900:6957  require(trainers[trainerId].id != 0, \"Trainer not found\") */\n      tag_74\n      jumpi\n      mload(0x40)\n      0x08c379a000000000000000000000000000000000000000000000000000000000\n      dup2\n      mstore\n      0x04\n      add\n      tag_75\n      swap1\n      tag_76\n      jump\t// in\n    tag_75:\n      mload(0x40)\n      dup1\n      swap2\n      sub\n      swap1\n      revert\n    tag_74:\n        /* \"contracts/DisasterRecoveryTraining.sol\":6967:6989  uint256 availableCount */\n      0x00\n        /* \"contracts/DisasterRecoveryTraining.sol\":6992:6993  0 */\n      0x00\n        /* \"contracts/DisasterRecoveryTraining.sol\":6967:6993  uint256 availableCount = 0 */\n      swap1\n      pop\n        /* \"contracts/DisasterRecoveryTraining.sol\":7008:7017  uint256 i */\n      0x00\n        /* \"contracts/DisasterRecoveryTraining.sol\":7020:7021  0 */\n      0x00\n        /* \"contracts/DisasterRecoveryTraining.sol\":7008:7021  uint256 i = 0 */\n      swap1\n      pop\n        /* \"contracts/DisasterRecoveryTraining.sol\":7003:7168  for (uint256 i = 0; i < TOTAL_SLOTS_PER_DAY; i++) {... */\n    tag_77:\n        /* \"contracts/DisasterRecoveryTraining.sol\":881:883  48 */\n      0x30\n        /* \"contracts/DisasterRecoveryTraining.sol\":7023:7024  i */\n      dup2\n        /* \"contracts/DisasterRecoveryTraining.sol\":7023:7046  i < TOTAL_SLOTS_PER_DAY */\n      lt\n        /* \"contracts/DisasterRecoveryTraining.sol\":7003:7168  for (uint256 i = 0; i < TOTAL_SLOTS_PER_DAY; i++) {... */\n      iszero\n      tag_78\n      jumpi\n        /* \"contracts/DisasterRecoveryTraining.sol\":7072:7084  trainerSlots */\n      0x04\n        /* \"contracts/DisasterRecoveryTraining.sol\":7072:7095  trainerSlots[trainerId] */\n      0x00\n        /* \"contracts/DisasterRecoveryTraining.sol\":7085:7094  trainerId */\n      dup7\n        /* \"contracts/DisasterRecoveryTraining.sol\":7072:7095  trainerSlots[trainerId] */\n      dup2\n      mstore\n      0x20\n      add\n      swap1\n      dup2\n      mstore\n      0x20\n      add\n      0x00\n      keccak256\n        /* \"contracts/DisasterRecoveryTraining.sol\":7072:7098  trainerSlots[trainerId][i] */\n      0x00\n        /* \"contracts/DisasterRecoveryTraining.sol\":7096:7097  i */\n      dup3\n        /* \"contracts/DisasterRecoveryTraining.sol\":7072:7098  trainerSlots[trainerId][i] */\n      dup2\n      mstore\n      0x20\n      add\n      swap1\n      dup2\n      mstore\n      0x20\n      add\n      0x00\n      keccak256\n        /* \"contracts/DisasterRecoveryTraining.sol\":7072:7107  trainerSlots[trainerId][i].isBooked */\n      0x03\n      add\n      0x00\n      swap1\n      sload\n      swap1\n      0x0100\n      exp\n      swap1\n      div\n      0xff\n      and\n        /* \"contracts/DisasterRecoveryTraining.sol\":7067:7158  if (!trainerSlots[trainerId][i].isBooked) {... */\n      tag_80\n      jumpi\n        /* \"contracts/DisasterRecoveryTraining.sol\":7127:7143  availableCount++ */\n      dup2\n      dup1\n      tag_81\n      swap1\n      tag_82\n      jump\t// in\n    tag_81:\n      swap3\n      pop\n      pop\n        /* \"contracts/DisasterRecoveryTraining.sol\":7067:7158  if (!trainerSlots[trainerId][i].isBooked) {... */\n    tag_80:\n        /* \"contracts/DisasterRecoveryTraining.sol\":7048:7051  i++ */\n      dup1\n      dup1\n      0x01\n      add\n      swap2\n      pop\n      pop\n        /* \"contracts/DisasterRecoveryTraining.sol\":7003:7168  for (uint256 i = 0; i < TOTAL_SLOTS_PER_DAY; i++) {... */\n      jump(tag_77)\n    tag_78:\n      pop\n        /* \"contracts/DisasterRecoveryTraining.sol\":7208:7222  availableCount */\n      dup1\n        /* \"contracts/DisasterRecoveryTraining.sol\":7194:7223  new uint256[](availableCount) */\n      0xffffffffffffffff\n      dup2\n      gt\n      iszero\n      tag_83\n      jumpi\n      tag_84\n      tag_85\n      jump\t// in\n    tag_84:\n    tag_83:\n      mload(0x40)\n      swap1\n      dup1\n      dup3\n      mstore\n      dup1\n      0x20\n      mul\n      0x20\n      add\n      dup3\n      add\n      0x40\n      mstore\n      dup1\n      iszero\n      tag_86\n      jumpi\n      dup2\n      0x20\n      add\n      0x20\n      dup3\n      mul\n      dup1\n      calldatasize\n      dup4\n      calldatacopy\n      dup1\n      dup3\n      add\n      swap2\n      pop\n      pop\n      swap1\n      pop\n    tag_86:\n      pop\n        /* \"contracts/DisasterRecoveryTraining.sol\":7177:7223  availableSlots = new uint256[](availableCount) */\n      swap3\n      pop\n        /* \"contracts/DisasterRecoveryTraining.sol\":7259:7273  availableCount */\n      dup1\n        /* \"contracts/DisasterRecoveryTraining.sol\":7246:7274  new string[](availableCount) */\n      0xffffffffffffffff\n      dup2\n      gt\n      iszero\n      tag_87\n      jumpi\n      tag_88\n      tag_85\n      jump\t// in\n    tag_88:\n    tag_87:\n      mload(0x40)\n      swap1\n      dup1\n      dup3\n      mstore\n      dup1\n      0x20\n      mul\n      0x20\n      add\n      dup3\n      add\n      0x40\n      mstore\n      dup1\n      iszero\n      tag_89\n      jumpi\n      dup2\n      0x20\n      add\n    tag_90:\n      0x60\n      dup2\n      mstore\n      0x20\n      add\n      swap1\n      0x01\n      swap1\n      sub\n      swap1\n      dup2\n      tag_90\n      jumpi\n      swap1\n      pop\n    tag_89:\n      pop\n        /* \"contracts/DisasterRecoveryTraining.sol\":7233:7274  timeRanges = new string[](availableCount) */\n      swap2\n      pop\n        /* \"contracts/DisasterRecoveryTraining.sol\":7284:7297  uint256 index */\n      0x00\n        /* \"contracts/DisasterRecoveryTraining.sol\":7300:7301  0 */\n      0x00\n        /* \"contracts/DisasterRecoveryTraining.sol\":7284:7301  uint256 index = 0 */\n      swap1\n      pop\n        /* \"contracts/DisasterRecoveryTraining.sol\":7325:7334  uint256 i */\n      0x00\n        /* \"contracts/DisasterRecoveryTraining.sol\":7337:7338  0 */\n      0x00\n        /* \"contracts/DisasterRecoveryTraining.sol\":7325:7338  uint256 i = 0 */\n      swap1\n      pop\n        /* \"contracts/DisasterRecoveryTraining.sol\":7320:8171  for (uint256 i = 0; i < TOTAL_SLOTS_PER_DAY; i++) {... */\n    tag_91:\n        /* \"contracts/DisasterRecoveryTraining.sol\":881:883  48 */\n      0x30\n        /* \"contracts/DisasterRecoveryTraining.sol\":7340:7341  i */\n      dup2\n        /* \"contracts/DisasterRecoveryTraining.sol\":7340:7363  i < TOTAL_SLOTS_PER_DAY */\n      lt\n        /* \"contracts/DisasterRecoveryTraining.sol\":7320:8171  for (uint256 i = 0; i < TOTAL_SLOTS_PER_DAY; i++) {... */\n      iszero\n      tag_92\n      jumpi\n        /* \"contracts/DisasterRecoveryTraining.sol\":7389:7401  trainerSlots */\n      0x04\n        /* \"contracts/DisasterRecoveryTraining.sol\":7389:7412  trainerSlots[trainerId] */\n      0x00\n        /* \"contracts/DisasterRecoveryTraining.sol\":7402:7411  trainerId */\n      dup8\n        /* \"contracts/DisasterRecoveryTraining.sol\":7389:7412  trainerSlots[trainerId] */\n      dup2\n      mstore\n      0x20\n      add\n      swap1\n      dup2\n      mstore\n      0x20\n      add\n      0x00\n      keccak256\n        /* \"contracts/DisasterRecoveryTraining.sol\":7389:7415  trainerSlots[trainerId][i] */\n      0x00\n        /* \"contracts/DisasterRecoveryTraining.sol\":7413:7414  i */\n      dup3\n        /* \"contracts/DisasterRecoveryTraining.sol\":7389:7415  trainerSlots[trainerId][i] */\n      dup2\n      mstore\n      0x20\n      add\n      swap1\n      dup2\n      mstore\n      0x20\n      add\n      0x00\n      keccak256\n        /* \"contracts/DisasterRecoveryTraining.sol\":7389:7424  trainerSlots[trainerId][i].isBooked */\n      0x03\n      add\n      0x00\n      swap1\n      sload\n      swap1\n      0x0100\n      exp\n      swap1\n      div\n      0xff\n      and\n        /* \"contracts/DisasterRecoveryTraining.sol\":7384:8161  if (!trainerSlots[trainerId][i].isBooked) {... */\n      tag_94\n      jumpi\n        /* \"contracts/DisasterRecoveryTraining.sol\":7468:7469  i */\n      dup1\n        /* \"contracts/DisasterRecoveryTraining.sol\":7444:7458  availableSlots */\n      dup6\n        /* \"contracts/DisasterRecoveryTraining.sol\":7459:7464  index */\n      dup4\n        /* \"contracts/DisasterRecoveryTraining.sol\":7444:7465  availableSlots[index] */\n      dup2\n      mload\n      dup2\n      lt\n      tag_95\n      jumpi\n      tag_96\n      tag_97\n      jump\t// in\n    tag_96:\n    tag_95:\n      0x20\n      mul\n      0x20\n      add\n      add\n        /* \"contracts/DisasterRecoveryTraining.sol\":7444:7469  availableSlots[index] = i */\n      dup2\n      dup2\n      mstore\n      pop\n      pop\n        /* \"contracts/DisasterRecoveryTraining.sol\":7487:7504  uint256 startHour */\n      0x00\n        /* \"contracts/DisasterRecoveryTraining.sol\":7511:7512  2 */\n      0x02\n        /* \"contracts/DisasterRecoveryTraining.sol\":7507:7508  i */\n      dup3\n        /* \"contracts/DisasterRecoveryTraining.sol\":7507:7512  i / 2 */\n      tag_98\n      swap2\n      swap1\n      tag_99\n      jump\t// in\n    tag_98:\n        /* \"contracts/DisasterRecoveryTraining.sol\":7487:7512  uint256 startHour = i / 2 */\n      swap1\n      pop\n        /* \"contracts/DisasterRecoveryTraining.sol\":7530:7549  uint256 startMinute */\n      0x00\n        /* \"contracts/DisasterRecoveryTraining.sol\":7562:7564  30 */\n      0x1e\n        /* \"contracts/DisasterRecoveryTraining.sol\":7557:7558  2 */\n      0x02\n        /* \"contracts/DisasterRecoveryTraining.sol\":7553:7554  i */\n      dup5\n        /* \"contracts/DisasterRecoveryTraining.sol\":7553:7558  i % 2 */\n      tag_100\n      swap2\n      swap1\n      tag_101\n      jump\t// in\n    tag_100:\n        /* \"contracts/DisasterRecoveryTraining.sol\":7552:7564  (i % 2) * 30 */\n      tag_102\n      swap2\n      swap1\n      tag_103\n      jump\t// in\n    tag_102:\n        /* \"contracts/DisasterRecoveryTraining.sol\":7530:7564  uint256 startMinute = (i % 2) * 30 */\n      swap1\n      pop\n        /* \"contracts/DisasterRecoveryTraining.sol\":7582:7597  uint256 endHour */\n      0x00\n        /* \"contracts/DisasterRecoveryTraining.sol\":7600:7609  startHour */\n      dup3\n        /* \"contracts/DisasterRecoveryTraining.sol\":7582:7609  uint256 endHour = startHour */\n      swap1\n      pop\n        /* \"contracts/DisasterRecoveryTraining.sol\":7627:7644  uint256 endMinute */\n      0x00\n        /* \"contracts/DisasterRecoveryTraining.sol\":7661:7663  30 */\n      0x1e\n        /* \"contracts/DisasterRecoveryTraining.sol\":7647:7658  startMinute */\n      dup4\n        /* \"contracts/DisasterRecoveryTraining.sol\":7647:7663  startMinute + 30 */\n      tag_104\n      swap2\n      swap1\n      tag_105\n      jump\t// in\n    tag_104:\n        /* \"contracts/DisasterRecoveryTraining.sol\":7627:7663  uint256 endMinute = startMinute + 30 */\n      swap1\n      pop\n        /* \"contracts/DisasterRecoveryTraining.sol\":7715:7717  60 */\n      0x3c\n        /* \"contracts/DisasterRecoveryTraining.sol\":7702:7711  endMinute */\n      dup2\n        /* \"contracts/DisasterRecoveryTraining.sol\":7702:7717  endMinute == 60 */\n      sub\n        /* \"contracts/DisasterRecoveryTraining.sol\":7698:7804  if (endMinute == 60) {... */\n      tag_106\n      jumpi\n        /* \"contracts/DisasterRecoveryTraining.sol\":7741:7750  endHour++ */\n      dup2\n      dup1\n      tag_107\n      swap1\n      tag_82\n      jump\t// in\n    tag_107:\n      swap3\n      pop\n      pop\n        /* \"contracts/DisasterRecoveryTraining.sol\":7784:7785  0 */\n      0x00\n        /* \"contracts/DisasterRecoveryTraining.sol\":7772:7785  endMinute = 0 */\n      swap1\n      pop\n        /* \"contracts/DisasterRecoveryTraining.sol\":7698:7804  if (endMinute == 60) {... */\n    tag_106:\n        /* \"contracts/DisasterRecoveryTraining.sol\":7886:7906  _toString(startHour) */\n      tag_108\n        /* \"contracts/DisasterRecoveryTraining.sol\":7896:7905  startHour */\n      dup5\n        /* \"contracts/DisasterRecoveryTraining.sol\":7886:7895  _toString */\n      tag_109\n        /* \"contracts/DisasterRecoveryTraining.sol\":7886:7906  _toString(startHour) */\n      jump\t// in\n    tag_108:\n        /* \"contracts/DisasterRecoveryTraining.sol\":7949:7950  0 */\n      0x00\n        /* \"contracts/DisasterRecoveryTraining.sol\":7934:7945  startMinute */\n      dup5\n        /* \"contracts/DisasterRecoveryTraining.sol\":7934:7950  startMinute == 0 */\n      eq\n        /* \"contracts/DisasterRecoveryTraining.sol\":7934:7964  startMinute == 0 ? \"00\" : \"30\" */\n      tag_110\n      jumpi\n      mload(0x40)\n      dup1\n      0x40\n      add\n      0x40\n      mstore\n      dup1\n      0x02\n      dup2\n      mstore\n      0x20\n      add\n      0x3330000000000000000000000000000000000000000000000000000000000000\n      dup2\n      mstore\n      pop\n      jump(tag_111)\n    tag_110:\n      mload(0x40)\n      dup1\n      0x40\n      add\n      0x40\n      mstore\n      dup1\n      0x02\n      dup2\n      mstore\n      0x20\n      add\n      0x3030000000000000000000000000000000000000000000000000000000000000\n      dup2\n      mstore\n      pop\n    tag_111:\n        /* \"contracts/DisasterRecoveryTraining.sol\":8012:8030  _toString(endHour) */\n      tag_112\n        /* \"contracts/DisasterRecoveryTraining.sol\":8022:8029  endHour */\n      dup5\n        /* \"contracts/DisasterRecoveryTraining.sol\":8012:8021  _toString */\n      tag_109\n        /* \"contracts/DisasterRecoveryTraining.sol\":8012:8030  _toString(endHour) */\n      jump\t// in\n    tag_112:\n        /* \"contracts/DisasterRecoveryTraining.sol\":8070:8071  0 */\n      0x00\n        /* \"contracts/DisasterRecoveryTraining.sol\":8057:8066  endMinute */\n      dup5\n        /* \"contracts/DisasterRecoveryTraining.sol\":8057:8071  endMinute == 0 */\n      eq\n        /* \"contracts/DisasterRecoveryTraining.sol\":8057:8085  endMinute == 0 ? \"00\" : \"30\" */\n      tag_113\n      jumpi\n      mload(0x40)\n      dup1\n      0x40\n      add\n      0x40\n      mstore\n      dup1\n      0x02\n      dup2\n      mstore\n      0x20\n      add\n      0x3330000000000000000000000000000000000000000000000000000000000000\n      dup2\n      mstore\n      pop\n      jump(tag_114)\n    tag_113:\n      mload(0x40)\n      dup1\n      0x40\n      add\n      0x40\n      mstore\n      dup1\n      0x02\n      dup2\n      mstore\n      0x20\n      add\n      0x3030000000000000000000000000000000000000000000000000000000000000\n      dup2\n      mstore\n      pop\n    tag_114:\n        /* \"contracts/DisasterRecoveryTraining.sol\":7848:8103  abi.encodePacked(... */\n      add(0x20, mload(0x40))\n      tag_115\n      swap5\n      swap4\n      swap3\n      swap2\n      swap1\n      tag_116\n      jump\t// in\n    tag_115:\n      mload(0x40)\n      0x20\n      dup2\n      dup4\n      sub\n      sub\n      dup2\n      mstore\n      swap1\n      0x40\n      mstore\n        /* \"contracts/DisasterRecoveryTraining.sol\":7821:7831  timeRanges */\n      dup9\n        /* \"contracts/DisasterRecoveryTraining.sol\":7832:7837  index */\n      dup8\n        /* \"contracts/DisasterRecoveryTraining.sol\":7821:7838  timeRanges[index] */\n      dup2\n      mload\n      dup2\n      lt\n      tag_117\n      jumpi\n      tag_118\n      tag_97\n      jump\t// in\n    tag_118:\n    tag_117:\n      0x20\n      mul\n      0x20\n      add\n      add\n        /* \"contracts/DisasterRecoveryTraining.sol\":7821:8104  timeRanges[index] = string(abi.encodePacked(... */\n      dup2\n      swap1\n      mstore\n      pop\n        /* \"contracts/DisasterRecoveryTraining.sol\":8139:8146  index++ */\n      dup6\n      dup1\n      tag_119\n      swap1\n      tag_82\n      jump\t// in\n    tag_119:\n      swap7\n      pop\n      pop\n        /* \"contracts/DisasterRecoveryTraining.sol\":7426:8161  {... */\n      pop\n      pop\n      pop\n      pop\n        /* \"contracts/DisasterRecoveryTraining.sol\":7384:8161  if (!trainerSlots[trainerId][i].isBooked) {... */\n    tag_94:\n        /* \"contracts/DisasterRecoveryTraining.sol\":7365:7368  i++ */\n      dup1\n      dup1\n      0x01\n      add\n      swap2\n      pop\n      pop\n        /* \"contracts/DisasterRecoveryTraining.sol\":7320:8171  for (uint256 i = 0; i < TOTAL_SLOTS_PER_DAY; i++) {... */\n      jump(tag_91)\n    tag_92:\n      pop\n        /* \"contracts/DisasterRecoveryTraining.sol\":8189:8224  return (availableSlots, timeRanges) */\n      pop\n      pop\n        /* \"contracts/DisasterRecoveryTraining.sol\":6736:8231  function viewTrainerSchedule(uint256 trainerId) external view returns (... */\n      swap2\n      pop\n      swap2\n      jump\t// out\n        /* \"contracts/DisasterRecoveryTraining.sol\":4861:5427  function viewAdminBalance() external view returns (uint256[] memory adminIdList, uint256[] memory balanceList) {... */\n    tag_23:\n        /* \"contracts/DisasterRecoveryTraining.sol\":4912:4940  uint256[] memory adminIdList */\n      0x60\n        /* \"contracts/DisasterRecoveryTraining.sol\":4942:4970  uint256[] memory balanceList */\n      dup1\n        /* \"contracts/DisasterRecoveryTraining.sol\":4982:5001  uint256 totalAdmins */\n      0x00\n        /* \"contracts/DisasterRecoveryTraining.sol\":5004:5012  adminIds */\n      0x05\n        /* \"contracts/DisasterRecoveryTraining.sol\":5004:5019  adminIds.length */\n      dup1\n      sload\n      swap1\n      pop\n        /* \"contracts/DisasterRecoveryTraining.sol\":4982:5019  uint256 totalAdmins = adminIds.length */\n      swap1\n      pop\n        /* \"contracts/DisasterRecoveryTraining.sol\":5066:5077  totalAdmins */\n      dup1\n        /* \"contracts/DisasterRecoveryTraining.sol\":5052:5078  new uint256[](totalAdmins) */\n      0xffffffffffffffff\n      dup2\n      gt\n      iszero\n      tag_121\n      jumpi\n      tag_122\n      tag_85\n      jump\t// in\n    tag_122:\n    tag_121:\n      mload(0x40)\n      swap1\n      dup1\n      dup3\n      mstore\n      dup1\n      0x20\n      mul\n      0x20\n      add\n      dup3\n      add\n      0x40\n      mstore\n      dup1\n      iszero\n      tag_123\n      jumpi\n      dup2\n      0x20\n      add\n      0x20\n      dup3\n      mul\n      dup1\n      calldatasize\n      dup4\n      calldatacopy\n      dup1\n      dup3\n      add\n      swap2\n      pop\n      pop\n      swap1\n      pop\n    tag_123:\n      pop\n        /* \"contracts/DisasterRecoveryTraining.sol\":5038:5078  adminIdList = new uint256[](totalAdmins) */\n      swap3\n      pop\n        /* \"contracts/DisasterRecoveryTraining.sol\":5116:5127  totalAdmins */\n      dup1\n        /* \"contracts/DisasterRecoveryTraining.sol\":5102:5128  new uint256[](totalAdmins) */\n      0xffffffffffffffff\n      dup2\n      gt\n      iszero\n      tag_124\n      jumpi\n      tag_125\n      tag_85\n      jump\t// in\n    tag_125:\n    tag_124:\n      mload(0x40)\n      swap1\n      dup1\n      dup3\n      mstore\n      dup1\n      0x20\n      mul\n      0x20\n      add\n      dup3\n      add\n      0x40\n      mstore\n      dup1\n      iszero\n      tag_126\n      jumpi\n      dup2\n      0x20\n      add\n      0x20\n      dup3\n      mul\n      dup1\n      calldatasize\n      dup4\n      calldatacopy\n      dup1\n      dup3\n      add\n      swap2\n      pop\n      pop\n      swap1\n      pop\n    tag_126:\n      pop\n        /* \"contracts/DisasterRecoveryTraining.sol\":5088:5128  balanceList = new uint256[](totalAdmins) */\n      swap2\n      pop\n        /* \"contracts/DisasterRecoveryTraining.sol\":5152:5161  uint256 i */\n      0x00\n        /* \"contracts/DisasterRecoveryTraining.sol\":5164:5165  0 */\n      0x00\n        /* \"contracts/DisasterRecoveryTraining.sol\":5152:5165  uint256 i = 0 */\n      swap1\n      pop\n        /* \"contracts/DisasterRecoveryTraining.sol\":5147:5369  for (uint256 i = 0; i < totalAdmins; i++) {... */\n    tag_127:\n        /* \"contracts/DisasterRecoveryTraining.sol\":5171:5182  totalAdmins */\n      dup2\n        /* \"contracts/DisasterRecoveryTraining.sol\":5167:5168  i */\n      dup2\n        /* \"contracts/DisasterRecoveryTraining.sol\":5167:5182  i < totalAdmins */\n      lt\n        /* \"contracts/DisasterRecoveryTraining.sol\":5147:5369  for (uint256 i = 0; i < totalAdmins; i++) {... */\n      iszero\n      tag_128\n      jumpi\n        /* \"contracts/DisasterRecoveryTraining.sol\":5203:5218  uint256 adminId */\n      0x00\n        /* \"contracts/DisasterRecoveryTraining.sol\":5221:5229  adminIds */\n      0x05\n        /* \"contracts/DisasterRecoveryTraining.sol\":5230:5231  i */\n      dup3\n        /* \"contracts/DisasterRecoveryTraining.sol\":5221:5232  adminIds[i] */\n      dup2\n      sload\n      dup2\n      lt\n      tag_130\n      jumpi\n      tag_131\n      tag_97\n      jump\t// in\n    tag_131:\n    tag_130:\n      swap1\n      0x00\n      mstore\n      keccak256(0x00, 0x20)\n      add\n      sload\n        /* \"contracts/DisasterRecoveryTraining.sol\":5203:5232  uint256 adminId = adminIds[i] */\n      swap1\n      pop\n        /* \"contracts/DisasterRecoveryTraining.sol\":5263:5270  adminId */\n      dup1\n        /* \"contracts/DisasterRecoveryTraining.sol\":5246:5257  adminIdList */\n      dup6\n        /* \"contracts/DisasterRecoveryTraining.sol\":5258:5259  i */\n      dup4\n        /* \"contracts/DisasterRecoveryTraining.sol\":5246:5260  adminIdList[i] */\n      dup2\n      mload\n      dup2\n      lt\n      tag_133\n      jumpi\n      tag_134\n      tag_97\n      jump\t// in\n    tag_134:\n    tag_133:\n      0x20\n      mul\n      0x20\n      add\n      add\n        /* \"contracts/DisasterRecoveryTraining.sol\":5246:5270  adminIdList[i] = adminId */\n      dup2\n      dup2\n      mstore\n      pop\n      pop\n        /* \"contracts/DisasterRecoveryTraining.sol\":5327:5334  1 ether */\n      0x0de0b6b3a7640000\n        /* \"contracts/DisasterRecoveryTraining.sol\":5301:5307  admins */\n      0x00\n        /* \"contracts/DisasterRecoveryTraining.sol\":5301:5316  admins[adminId] */\n      0x00\n        /* \"contracts/DisasterRecoveryTraining.sol\":5308:5315  adminId */\n      dup4\n        /* \"contracts/DisasterRecoveryTraining.sol\":5301:5316  admins[adminId] */\n      dup2\n      mstore\n      0x20\n      add\n      swap1\n      dup2\n      mstore\n      0x20\n      add\n      0x00\n      keccak256\n        /* \"contracts/DisasterRecoveryTraining.sol\":5301:5324  admins[adminId].balance */\n      0x03\n      add\n      sload\n        /* \"contracts/DisasterRecoveryTraining.sol\":5301:5334  admins[adminId].balance / 1 ether */\n      tag_135\n      swap2\n      swap1\n      tag_99\n      jump\t// in\n    tag_135:\n        /* \"contracts/DisasterRecoveryTraining.sol\":5284:5295  balanceList */\n      dup5\n        /* \"contracts/DisasterRecoveryTraining.sol\":5296:5297  i */\n      dup4\n        /* \"contracts/DisasterRecoveryTraining.sol\":5284:5298  balanceList[i] */\n      dup2\n      mload\n      dup2\n      lt\n      tag_136\n      jumpi\n      tag_137\n      tag_97\n      jump\t// in\n    tag_137:\n    tag_136:\n      0x20\n      mul\n      0x20\n      add\n      add\n        /* \"contracts/DisasterRecoveryTraining.sol\":5284:5334  balanceList[i] = admins[adminId].balance / 1 ether */\n      dup2\n      dup2\n      mstore\n      pop\n      pop\n        /* \"contracts/DisasterRecoveryTraining.sol\":5189:5369  {... */\n      pop\n        /* \"contracts/DisasterRecoveryTraining.sol\":5184:5187  i++ */\n      dup1\n      dup1\n      0x01\n      add\n      swap2\n      pop\n      pop\n        /* \"contracts/DisasterRecoveryTraining.sol\":5147:5369  for (uint256 i = 0; i < totalAdmins; i++) {... */\n      jump(tag_127)\n    tag_128:\n      pop\n        /* \"contracts/DisasterRecoveryTraining.sol\":5387:5420  return (adminIdList, balanceList) */\n      pop\n        /* \"contracts/DisasterRecoveryTraining.sol\":4861:5427  function viewAdminBalance() external view returns (uint256[] memory adminIdList, uint256[] memory balanceList) {... */\n      swap1\n      swap2\n      jump\t// out\n        /* \"contracts/DisasterRecoveryTraining.sol\":5437:6134  function viewParticipantData(uint256 participantId) external view returns (... */\n    tag_28:\n        /* \"contracts/DisasterRecoveryTraining.sol\":5521:5531  uint256 id */\n      0x00\n        /* \"contracts/DisasterRecoveryTraining.sol\":5541:5559  string memory name */\n      0x60\n        /* \"contracts/DisasterRecoveryTraining.sol\":5569:5580  uint256 age */\n      0x00\n        /* \"contracts/DisasterRecoveryTraining.sol\":5590:5610  string memory gender */\n      0x60\n        /* \"contracts/DisasterRecoveryTraining.sol\":5620:5642  string memory district */\n      dup1\n        /* \"contracts/DisasterRecoveryTraining.sol\":5652:5677  uint256 training_interest */\n      0x00\n        /* \"contracts/DisasterRecoveryTraining.sol\":5687:5714  bool has_completed_training */\n      0x00\n        /* \"contracts/DisasterRecoveryTraining.sol\":5724:5739  uint256 balance */\n      0x00\n        /* \"contracts/DisasterRecoveryTraining.sol\":5798:5799  0 */\n      0x00\n        /* \"contracts/DisasterRecoveryTraining.sol\":5764:5776  participants */\n      0x03\n        /* \"contracts/DisasterRecoveryTraining.sol\":5764:5791  participants[participantId] */\n      0x00\n        /* \"contracts/DisasterRecoveryTraining.sol\":5777:5790  participantId */\n      dup12\n        /* \"contracts/DisasterRecoveryTraining.sol\":5764:5791  participants[participantId] */\n      dup2\n      mstore\n      0x20\n      add\n      swap1\n      dup2\n      mstore\n      0x20\n      add\n      0x00\n      keccak256\n        /* \"contracts/DisasterRecoveryTraining.sol\":5764:5794  participants[participantId].id */\n      0x00\n      add\n      sload\n        /* \"contracts/DisasterRecoveryTraining.sol\":5764:5799  participants[participantId].id != 0 */\n      sub\n        /* \"contracts/DisasterRecoveryTraining.sol\":5756:5825  require(participants[participantId].id != 0, \"Participant not found\") */\n      tag_139\n      jumpi\n      mload(0x40)\n      0x08c379a000000000000000000000000000000000000000000000000000000000\n      dup2\n      mstore\n      0x04\n      add\n      tag_140\n      swap1\n      tag_60\n      jump\t// in\n    tag_140:\n      mload(0x40)\n      dup1\n      swap2\n      sub\n      swap1\n      revert\n    tag_139:\n        /* \"contracts/DisasterRecoveryTraining.sol\":5844:5864  Participant memory p */\n      0x00\n        /* \"contracts/DisasterRecoveryTraining.sol\":5867:5879  participants */\n      0x03\n        /* \"contracts/DisasterRecoveryTraining.sol\":5867:5894  participants[participantId] */\n      0x00\n        /* \"contracts/DisasterRecoveryTraining.sol\":5880:5893  participantId */\n      dup12\n        /* \"contracts/DisasterRecoveryTraining.sol\":5867:5894  participants[participantId] */\n      dup2\n      mstore\n      0x20\n      add\n      swap1\n      dup2\n      mstore\n      0x20\n      add\n      0x00\n      keccak256\n        /* \"contracts/DisasterRecoveryTraining.sol\":5844:5894  Participant memory p = participants[participantId] */\n      mload(0x40)\n      dup1\n      0x0100\n      add\n      0x40\n      mstore\n      swap1\n      dup2\n      0x00\n      dup3\n      add\n      sload\n      dup2\n      mstore\n      0x20\n      add\n      0x01\n      dup3\n      add\n      dup1\n      sload\n      tag_141\n      swap1\n      tag_142\n      jump\t// in\n    tag_141:\n      dup1\n      0x1f\n      add\n      0x20\n      dup1\n      swap2\n      div\n      mul\n      0x20\n      add\n      mload(0x40)\n      swap1\n      dup2\n      add\n      0x40\n      mstore\n      dup1\n      swap3\n      swap2\n      swap1\n      dup2\n      dup2\n      mstore\n      0x20\n      add\n      dup3\n      dup1\n      sload\n      tag_143\n      swap1\n      tag_142\n      jump\t// in\n    tag_143:\n      dup1\n      iszero\n      tag_144\n      jumpi\n      dup1\n      0x1f\n      lt\n      tag_145\n      jumpi\n      0x0100\n      dup1\n      dup4\n      sload\n      div\n      mul\n      dup4\n      mstore\n      swap2\n      0x20\n      add\n      swap2\n      jump(tag_144)\n    tag_145:\n      dup3\n      add\n      swap2\n      swap1\n      0x00\n      mstore\n      keccak256(0x00, 0x20)\n      swap1\n    tag_146:\n      dup2\n      sload\n      dup2\n      mstore\n      swap1\n      0x01\n      add\n      swap1\n      0x20\n      add\n      dup1\n      dup4\n      gt\n      tag_146\n      jumpi\n      dup3\n      swap1\n      sub\n      0x1f\n      and\n      dup3\n      add\n      swap2\n    tag_144:\n      pop\n      pop\n      pop\n      pop\n      pop\n      dup2\n      mstore\n      0x20\n      add\n      0x02\n      dup3\n      add\n      sload\n      dup2\n      mstore\n      0x20\n      add\n      0x03\n      dup3\n      add\n      dup1\n      sload\n      tag_147\n      swap1\n      tag_142\n      jump\t// in\n    tag_147:\n      dup1\n      0x1f\n      add\n      0x20\n      dup1\n      swap2\n      div\n      mul\n      0x20\n      add\n      mload(0x40)\n      swap1\n      dup2\n      add\n      0x40\n      mstore\n      dup1\n      swap3\n      swap2\n      swap1\n      dup2\n      dup2\n      mstore\n      0x20\n      add\n      dup3\n      dup1\n      sload\n      tag_148\n      swap1\n      tag_142\n      jump\t// in\n    tag_148:\n      dup1\n      iszero\n      tag_149\n      jumpi\n      dup1\n      0x1f\n      lt\n      tag_150\n      jumpi\n      0x0100\n      dup1\n      dup4\n      sload\n      div\n      mul\n      dup4\n      mstore\n      swap2\n      0x20\n      add\n      swap2\n      jump(tag_149)\n    tag_150:\n      dup3\n      add\n      swap2\n      swap1\n      0x00\n      mstore\n      keccak256(0x00, 0x20)\n      swap1\n    tag_151:\n      dup2\n      sload\n      dup2\n      mstore\n      swap1\n      0x01\n      add\n      swap1\n      0x20\n      add\n      dup1\n      dup4\n      gt\n      tag_151\n      jumpi\n      dup3\n      swap1\n      sub\n      0x1f\n      and\n      dup3\n      add\n      swap2\n    tag_149:\n      pop\n      pop\n      pop\n      pop\n      pop\n      dup2\n      mstore\n      0x20\n      add\n      0x04\n      dup3\n      add\n      dup1\n      sload\n      tag_152\n      swap1\n      tag_142\n      jump\t// in\n    tag_152:\n      dup1\n      0x1f\n      add\n      0x20\n      dup1\n      swap2\n      div\n      mul\n      0x20\n      add\n      mload(0x40)\n      swap1\n      dup2\n      add\n      0x40\n      mstore\n      dup1\n      swap3\n      swap2\n      swap1\n      dup2\n      dup2\n      mstore\n      0x20\n      add\n      dup3\n      dup1\n      sload\n      tag_153\n      swap1\n      tag_142\n      jump\t// in\n    tag_153:\n      dup1\n      iszero\n      tag_154\n      jumpi\n      dup1\n      0x1f\n      lt\n      tag_155\n      jumpi\n      0x0100\n      dup1\n      dup4\n      sload\n      div\n      mul\n      dup4\n      mstore\n      swap2\n      0x20\n      add\n      swap2\n      jump(tag_154)\n    tag_155:\n      dup3\n      add\n      swap2\n      swap1\n      0x00\n      mstore\n      keccak256(0x00, 0x20)\n      swap1\n    tag_156:\n      dup2\n      sload\n      dup2\n      mstore\n      swap1\n      0x01\n      add\n      swap1\n      0x20\n      add\n      dup1\n      dup4\n      gt\n      tag_156\n      jumpi\n      dup3\n      swap1\n      sub\n      0x1f\n      and\n      dup3\n      add\n      swap2\n    tag_154:\n      pop\n      pop\n      pop\n      pop\n      pop\n      dup2\n      mstore\n      0x20\n      add\n      0x05\n      dup3\n      add\n      0x00\n      swap1\n      sload\n      swap1\n      0x0100\n      exp\n      swap1\n      div\n      0xff\n      and\n      0x02\n      dup2\n      gt\n      iszero\n      tag_157\n      jumpi\n      tag_158\n      tag_70\n      jump\t// in\n    tag_158:\n    tag_157:\n      0x02\n      dup2\n      gt\n      iszero\n      tag_159\n      jumpi\n      tag_160\n      tag_70\n      jump\t// in\n    tag_160:\n    tag_159:\n      dup2\n      mstore\n      0x20\n      add\n      0x05\n      dup3\n      add\n      0x01\n      swap1\n      sload\n      swap1\n      0x0100\n      exp\n      swap1\n      div\n      0xff\n      and\n      iszero\n      iszero\n      iszero\n      iszero\n      dup2\n      mstore\n      0x20\n      add\n      0x06\n      dup3\n      add\n      sload\n      dup2\n      mstore\n      pop\n      pop\n      swap1\n      pop\n        /* \"contracts/DisasterRecoveryTraining.sol\":5925:5926  p */\n      dup1\n        /* \"contracts/DisasterRecoveryTraining.sol\":5925:5929  p.id */\n      0x00\n      add\n      mload\n        /* \"contracts/DisasterRecoveryTraining.sol\":5943:5944  p */\n      dup2\n        /* \"contracts/DisasterRecoveryTraining.sol\":5943:5949  p.name */\n      0x20\n      add\n      mload\n        /* \"contracts/DisasterRecoveryTraining.sol\":5963:5964  p */\n      dup3\n        /* \"contracts/DisasterRecoveryTraining.sol\":5963:5968  p.age */\n      0x40\n      add\n      mload\n        /* \"contracts/DisasterRecoveryTraining.sol\":5982:5983  p */\n      dup4\n        /* \"contracts/DisasterRecoveryTraining.sol\":5982:5990  p.gender */\n      0x60\n      add\n      mload\n        /* \"contracts/DisasterRecoveryTraining.sol\":6004:6005  p */\n      dup5\n        /* \"contracts/DisasterRecoveryTraining.sol\":6004:6014  p.district */\n      0x80\n      add\n      mload\n        /* \"contracts/DisasterRecoveryTraining.sol\":6036:6037  p */\n      dup6\n        /* \"contracts/DisasterRecoveryTraining.sol\":6036:6055  p.training_interest */\n      0xa0\n      add\n      mload\n        /* \"contracts/DisasterRecoveryTraining.sol\":6028:6056  uint256(p.training_interest) */\n      0x02\n      dup2\n      gt\n      iszero\n      tag_161\n      jumpi\n      tag_162\n      tag_70\n      jump\t// in\n    tag_162:\n    tag_161:\n        /* \"contracts/DisasterRecoveryTraining.sol\":6070:6071  p */\n      dup7\n        /* \"contracts/DisasterRecoveryTraining.sol\":6070:6094  p.has_completed_training */\n      0xc0\n      add\n      mload\n        /* \"contracts/DisasterRecoveryTraining.sol\":6108:6109  p */\n      dup8\n        /* \"contracts/DisasterRecoveryTraining.sol\":6108:6117  p.balance */\n      0xe0\n      add\n      mload\n        /* \"contracts/DisasterRecoveryTraining.sol\":5904:6127  return (... */\n      swap9\n      pop\n      swap9\n      pop\n      swap9\n      pop\n      swap9\n      pop\n      swap9\n      pop\n      swap9\n      pop\n      swap9\n      pop\n      swap9\n      pop\n      pop\n        /* \"contracts/DisasterRecoveryTraining.sol\":5437:6134  function viewParticipantData(uint256 participantId) external view returns (... */\n      swap2\n      swap4\n      swap6\n      swap8\n      pop\n      swap2\n      swap4\n      swap6\n      swap8\n      jump\t// out\n        /* \"contracts/DisasterRecoveryTraining.sol\":3837:4851  function bookTrainingSlot(uint256 trainerId, uint256 participantId, uint256 slotId) external returns (bool) {... */\n    tag_34:\n        /* \"contracts/DisasterRecoveryTraining.sol\":3939:3943  bool */\n      0x00\n        /* \"contracts/DisasterRecoveryTraining.sol\":3989:3990  0 */\n      0x00\n        /* \"contracts/DisasterRecoveryTraining.sol\":3963:3971  trainers */\n      0x02\n        /* \"contracts/DisasterRecoveryTraining.sol\":3963:3982  trainers[trainerId] */\n      0x00\n        /* \"contracts/DisasterRecoveryTraining.sol\":3972:3981  trainerId */\n      dup7\n        /* \"contracts/DisasterRecoveryTraining.sol\":3963:3982  trainers[trainerId] */\n      dup2\n      mstore\n      0x20\n      add\n      swap1\n      dup2\n      mstore\n      0x20\n      add\n      0x00\n      keccak256\n        /* \"contracts/DisasterRecoveryTraining.sol\":3963:3985  trainers[trainerId].id */\n      0x00\n      add\n      sload\n        /* \"contracts/DisasterRecoveryTraining.sol\":3963:3990  trainers[trainerId].id != 0 */\n      sub\n        /* \"contracts/DisasterRecoveryTraining.sol\":3955:4012  require(trainers[trainerId].id != 0, \"Trainer not found\") */\n      tag_164\n      jumpi\n      mload(0x40)\n      0x08c379a000000000000000000000000000000000000000000000000000000000\n      dup2\n      mstore\n      0x04\n      add\n      tag_165\n      swap1\n      tag_76\n      jump\t// in\n    tag_165:\n      mload(0x40)\n      dup1\n      swap2\n      sub\n      swap1\n      revert\n    tag_164:\n        /* \"contracts/DisasterRecoveryTraining.sol\":4064:4065  0 */\n      0x00\n        /* \"contracts/DisasterRecoveryTraining.sol\":4030:4042  participants */\n      0x03\n        /* \"contracts/DisasterRecoveryTraining.sol\":4030:4057  participants[participantId] */\n      0x00\n        /* \"contracts/DisasterRecoveryTraining.sol\":4043:4056  participantId */\n      dup6\n        /* \"contracts/DisasterRecoveryTraining.sol\":4030:4057  participants[participantId] */\n      dup2\n      mstore\n      0x20\n      add\n      swap1\n      dup2\n      mstore\n      0x20\n      add\n      0x00\n      keccak256\n        /* \"contracts/DisasterRecoveryTraining.sol\":4030:4060  participants[participantId].id */\n      0x00\n      add\n      sload\n        /* \"contracts/DisasterRecoveryTraining.sol\":4030:4065  participants[participantId].id != 0 */\n      sub\n        /* \"contracts/DisasterRecoveryTraining.sol\":4022:4091  require(participants[participantId].id != 0, \"Participant not found\") */\n      tag_166\n      jumpi\n      mload(0x40)\n      0x08c379a000000000000000000000000000000000000000000000000000000000\n      dup2\n      mstore\n      0x04\n      add\n      tag_167\n      swap1\n      tag_60\n      jump\t// in\n    tag_167:\n      mload(0x40)\n      dup1\n      swap2\n      sub\n      swap1\n      revert\n    tag_166:\n        /* \"contracts/DisasterRecoveryTraining.sol\":959:966  1 ether */\n      0x0de0b6b3a7640000\n        /* \"contracts/DisasterRecoveryTraining.sol\":4109:4121  participants */\n      0x03\n        /* \"contracts/DisasterRecoveryTraining.sol\":4109:4136  participants[participantId] */\n      0x00\n        /* \"contracts/DisasterRecoveryTraining.sol\":4122:4135  participantId */\n      dup6\n        /* \"contracts/DisasterRecoveryTraining.sol\":4109:4136  participants[participantId] */\n      dup2\n      mstore\n      0x20\n      add\n      swap1\n      dup2\n      mstore\n      0x20\n      add\n      0x00\n      keccak256\n        /* \"contracts/DisasterRecoveryTraining.sol\":4109:4144  participants[participantId].balance */\n      0x06\n      add\n      sload\n        /* \"contracts/DisasterRecoveryTraining.sol\":4109:4159  participants[participantId].balance >= BOOKING_FEE */\n      lt\n      iszero\n        /* \"contracts/DisasterRecoveryTraining.sol\":4101:4196  require(participants[participantId].balance >= BOOKING_FEE, \"Insufficient participant balance\") */\n      tag_168\n      jumpi\n      mload(0x40)\n      0x08c379a000000000000000000000000000000000000000000000000000000000\n      dup2\n      mstore\n      0x04\n      add\n      tag_169\n      swap1\n      tag_170\n      jump\t// in\n    tag_169:\n      mload(0x40)\n      dup1\n      swap2\n      sub\n      swap1\n      revert\n    tag_168:\n        /* \"contracts/DisasterRecoveryTraining.sol\":4232:4233  0 */\n      0x00\n        /* \"contracts/DisasterRecoveryTraining.sol\":4214:4222  adminIds */\n      0x05\n        /* \"contracts/DisasterRecoveryTraining.sol\":4214:4229  adminIds.length */\n      dup1\n      sload\n      swap1\n      pop\n        /* \"contracts/DisasterRecoveryTraining.sol\":4214:4233  adminIds.length > 0 */\n      gt\n        /* \"contracts/DisasterRecoveryTraining.sol\":4206:4257  require(adminIds.length > 0, \"No admins available\") */\n      tag_171\n      jumpi\n      mload(0x40)\n      0x08c379a000000000000000000000000000000000000000000000000000000000\n      dup2\n      mstore\n      0x04\n      add\n      tag_172\n      swap1\n      tag_173\n      jump\t// in\n    tag_172:\n      mload(0x40)\n      dup1\n      swap2\n      sub\n      swap1\n      revert\n    tag_171:\n        /* \"contracts/DisasterRecoveryTraining.sol\":881:883  48 */\n      0x30\n        /* \"contracts/DisasterRecoveryTraining.sol\":4275:4281  slotId */\n      dup3\n        /* \"contracts/DisasterRecoveryTraining.sol\":4275:4303  slotId < TOTAL_SLOTS_PER_DAY */\n      lt\n        /* \"contracts/DisasterRecoveryTraining.sol\":4267:4323  require(slotId < TOTAL_SLOTS_PER_DAY, \"Invalid slot ID\") */\n      tag_174\n      jumpi\n      mload(0x40)\n      0x08c379a000000000000000000000000000000000000000000000000000000000\n      dup2\n      mstore\n      0x04\n      add\n      tag_175\n      swap1\n      tag_176\n      jump\t// in\n    tag_175:\n      mload(0x40)\n      dup1\n      swap2\n      sub\n      swap1\n      revert\n    tag_174:\n        /* \"contracts/DisasterRecoveryTraining.sol\":4342:4354  trainerSlots */\n      0x04\n        /* \"contracts/DisasterRecoveryTraining.sol\":4342:4365  trainerSlots[trainerId] */\n      0x00\n        /* \"contracts/DisasterRecoveryTraining.sol\":4355:4364  trainerId */\n      dup6\n        /* \"contracts/DisasterRecoveryTraining.sol\":4342:4365  trainerSlots[trainerId] */\n      dup2\n      mstore\n      0x20\n      add\n      swap1\n      dup2\n      mstore\n      0x20\n      add\n      0x00\n      keccak256\n        /* \"contracts/DisasterRecoveryTraining.sol\":4342:4373  trainerSlots[trainerId][slotId] */\n      0x00\n        /* \"contracts/DisasterRecoveryTraining.sol\":4366:4372  slotId */\n      dup4\n        /* \"contracts/DisasterRecoveryTraining.sol\":4342:4373  trainerSlots[trainerId][slotId] */\n      dup2\n      mstore\n      0x20\n      add\n      swap1\n      dup2\n      mstore\n      0x20\n      add\n      0x00\n      keccak256\n        /* \"contracts/DisasterRecoveryTraining.sol\":4342:4382  trainerSlots[trainerId][slotId].isBooked */\n      0x03\n      add\n      0x00\n      swap1\n      sload\n      swap1\n      0x0100\n      exp\n      swap1\n      div\n      0xff\n      and\n        /* \"contracts/DisasterRecoveryTraining.sol\":4341:4382  !trainerSlots[trainerId][slotId].isBooked */\n      iszero\n        /* \"contracts/DisasterRecoveryTraining.sol\":4333:4409  require(!trainerSlots[trainerId][slotId].isBooked, \"Slot is already booked\") */\n      tag_177\n      jumpi\n      mload(0x40)\n      0x08c379a000000000000000000000000000000000000000000000000000000000\n      dup2\n      mstore\n      0x04\n      add\n      tag_178\n      swap1\n      tag_179\n      jump\t// in\n    tag_178:\n      mload(0x40)\n      dup1\n      swap2\n      sub\n      swap1\n      revert\n    tag_177:\n        /* \"contracts/DisasterRecoveryTraining.sol\":4453:4505  TrainingSlot(slotId, trainerId, participantId, true) */\n      mload(0x40)\n      dup1\n      0x80\n      add\n      0x40\n      mstore\n      dup1\n        /* \"contracts/DisasterRecoveryTraining.sol\":4466:4472  slotId */\n      dup4\n        /* \"contracts/DisasterRecoveryTraining.sol\":4453:4505  TrainingSlot(slotId, trainerId, participantId, true) */\n      dup2\n      mstore\n      0x20\n      add\n        /* \"contracts/DisasterRecoveryTraining.sol\":4474:4483  trainerId */\n      dup6\n        /* \"contracts/DisasterRecoveryTraining.sol\":4453:4505  TrainingSlot(slotId, trainerId, participantId, true) */\n      dup2\n      mstore\n      0x20\n      add\n        /* \"contracts/DisasterRecoveryTraining.sol\":4485:4498  participantId */\n      dup5\n        /* \"contracts/DisasterRecoveryTraining.sol\":4453:4505  TrainingSlot(slotId, trainerId, participantId, true) */\n      dup2\n      mstore\n      0x20\n      add\n        /* \"contracts/DisasterRecoveryTraining.sol\":4500:4504  true */\n      0x01\n        /* \"contracts/DisasterRecoveryTraining.sol\":4453:4505  TrainingSlot(slotId, trainerId, participantId, true) */\n      iszero\n      iszero\n      dup2\n      mstore\n      pop\n        /* \"contracts/DisasterRecoveryTraining.sol\":4419:4431  trainerSlots */\n      0x04\n        /* \"contracts/DisasterRecoveryTraining.sol\":4419:4442  trainerSlots[trainerId] */\n      0x00\n        /* \"contracts/DisasterRecoveryTraining.sol\":4432:4441  trainerId */\n      dup7\n        /* \"contracts/DisasterRecoveryTraining.sol\":4419:4442  trainerSlots[trainerId] */\n      dup2\n      mstore\n      0x20\n      add\n      swap1\n      dup2\n      mstore\n      0x20\n      add\n      0x00\n      keccak256\n        /* \"contracts/DisasterRecoveryTraining.sol\":4419:4450  trainerSlots[trainerId][slotId] */\n      0x00\n        /* \"contracts/DisasterRecoveryTraining.sol\":4443:4449  slotId */\n      dup5\n        /* \"contracts/DisasterRecoveryTraining.sol\":4419:4450  trainerSlots[trainerId][slotId] */\n      dup2\n      mstore\n      0x20\n      add\n      swap1\n      dup2\n      mstore\n      0x20\n      add\n      0x00\n      keccak256\n        /* \"contracts/DisasterRecoveryTraining.sol\":4419:4505  trainerSlots[trainerId][slotId] = TrainingSlot(slotId, trainerId, participantId, true) */\n      0x00\n      dup3\n      add\n      mload\n      dup2\n      0x00\n      add\n      sstore\n      0x20\n      dup3\n      add\n      mload\n      dup2\n      0x01\n      add\n      sstore\n      0x40\n      dup3\n      add\n      mload\n      dup2\n      0x02\n      add\n      sstore\n      0x60\n      dup3\n      add\n      mload\n      dup2\n      0x03\n      add\n      exp(0x0100, 0x00)\n      dup2\n      sload\n      dup2\n      0xff\n      mul\n      not\n      and\n      swap1\n      dup4\n      iszero\n      iszero\n      mul\n      or\n      swap1\n      sstore\n      pop\n      swap1\n      pop\n      pop\n        /* \"contracts/DisasterRecoveryTraining.sol\":4515:4534  uint256 randomIndex */\n      0x00\n        /* \"contracts/DisasterRecoveryTraining.sol\":4626:4634  adminIds */\n      0x05\n        /* \"contracts/DisasterRecoveryTraining.sol\":4626:4641  adminIds.length */\n      dup1\n      sload\n      swap1\n      pop\n        /* \"contracts/DisasterRecoveryTraining.sol\":4572:4587  block.timestamp */\n      timestamp\n        /* \"contracts/DisasterRecoveryTraining.sol\":4589:4605  block.prevrandao */\n      prevrandao\n        /* \"contracts/DisasterRecoveryTraining.sol\":4607:4620  participantId */\n      dup7\n        /* \"contracts/DisasterRecoveryTraining.sol\":4555:4621  abi.encodePacked(block.timestamp, block.prevrandao, participantId) */\n      add(0x20, mload(0x40))\n      tag_180\n      swap4\n      swap3\n      swap2\n      swap1\n      tag_181\n      jump\t// in\n    tag_180:\n      mload(0x40)\n      0x20\n      dup2\n      dup4\n      sub\n      sub\n      dup2\n      mstore\n      swap1\n      0x40\n      mstore\n        /* \"contracts/DisasterRecoveryTraining.sol\":4545:4622  keccak256(abi.encodePacked(block.timestamp, block.prevrandao, participantId)) */\n      dup1\n      mload\n      swap1\n      0x20\n      add\n      keccak256\n        /* \"contracts/DisasterRecoveryTraining.sol\":4537:4623  uint256(keccak256(abi.encodePacked(block.timestamp, block.prevrandao, participantId))) */\n      0x00\n      shr\n        /* \"contracts/DisasterRecoveryTraining.sol\":4537:4641  uint256(keccak256(abi.encodePacked(block.timestamp, block.prevrandao, participantId))) % adminIds.length */\n      tag_182\n      swap2\n      swap1\n      tag_101\n      jump\t// in\n    tag_182:\n        /* \"contracts/DisasterRecoveryTraining.sol\":4515:4641  uint256 randomIndex = uint256(keccak256(abi.encodePacked(block.timestamp, block.prevrandao, participantId))) % adminIds.length */\n      swap1\n      pop\n        /* \"contracts/DisasterRecoveryTraining.sol\":4651:4674  uint256 selectedAdminId */\n      0x00\n        /* \"contracts/DisasterRecoveryTraining.sol\":4677:4685  adminIds */\n      0x05\n        /* \"contracts/DisasterRecoveryTraining.sol\":4686:4697  randomIndex */\n      dup3\n        /* \"contracts/DisasterRecoveryTraining.sol\":4677:4698  adminIds[randomIndex] */\n      dup2\n      sload\n      dup2\n      lt\n      tag_183\n      jumpi\n      tag_184\n      tag_97\n      jump\t// in\n    tag_184:\n    tag_183:\n      swap1\n      0x00\n      mstore\n      keccak256(0x00, 0x20)\n      add\n      sload\n        /* \"contracts/DisasterRecoveryTraining.sol\":4651:4698  uint256 selectedAdminId = adminIds[randomIndex] */\n      swap1\n      pop\n        /* \"contracts/DisasterRecoveryTraining.sol\":959:966  1 ether */\n      0x0de0b6b3a7640000\n        /* \"contracts/DisasterRecoveryTraining.sol\":4708:4720  participants */\n      0x03\n        /* \"contracts/DisasterRecoveryTraining.sol\":4708:4735  participants[participantId] */\n      0x00\n        /* \"contracts/DisasterRecoveryTraining.sol\":4721:4734  participantId */\n      dup8\n        /* \"contracts/DisasterRecoveryTraining.sol\":4708:4735  participants[participantId] */\n      dup2\n      mstore\n      0x20\n      add\n      swap1\n      dup2\n      mstore\n      0x20\n      add\n      0x00\n      keccak256\n        /* \"contracts/DisasterRecoveryTraining.sol\":4708:4743  participants[participantId].balance */\n      0x06\n      add\n      0x00\n        /* \"contracts/DisasterRecoveryTraining.sol\":4708:4758  participants[participantId].balance -= BOOKING_FEE */\n      dup3\n      dup3\n      sload\n      tag_186\n      swap2\n      swap1\n      tag_187\n      jump\t// in\n    tag_186:\n      swap3\n      pop\n      pop\n      dup2\n      swap1\n      sstore\n      pop\n        /* \"contracts/DisasterRecoveryTraining.sol\":959:966  1 ether */\n      0x0de0b6b3a7640000\n        /* \"contracts/DisasterRecoveryTraining.sol\":4768:4774  admins */\n      0x00\n        /* \"contracts/DisasterRecoveryTraining.sol\":4768:4791  admins[selectedAdminId] */\n      0x00\n        /* \"contracts/DisasterRecoveryTraining.sol\":4775:4790  selectedAdminId */\n      dup4\n        /* \"contracts/DisasterRecoveryTraining.sol\":4768:4791  admins[selectedAdminId] */\n      dup2\n      mstore\n      0x20\n      add\n      swap1\n      dup2\n      mstore\n      0x20\n      add\n      0x00\n      keccak256\n        /* \"contracts/DisasterRecoveryTraining.sol\":4768:4799  admins[selectedAdminId].balance */\n      0x03\n      add\n      0x00\n        /* \"contracts/DisasterRecoveryTraining.sol\":4768:4814  admins[selectedAdminId].balance += BOOKING_FEE */\n      dup3\n      dup3\n      sload\n      tag_188\n      swap2\n      swap1\n      tag_105\n      jump\t// in\n    tag_188:\n      swap3\n      pop\n      pop\n      dup2\n      swap1\n      sstore\n      pop\n        /* \"contracts/DisasterRecoveryTraining.sol\":4840:4844  true */\n      0x01\n        /* \"contracts/DisasterRecoveryTraining.sol\":4833:4844  return true */\n      swap3\n      pop\n      pop\n      pop\n        /* \"contracts/DisasterRecoveryTraining.sol\":3837:4851  function bookTrainingSlot(uint256 trainerId, uint256 participantId, uint256 slotId) external returns (bool) {... */\n      swap4\n      swap3\n      pop\n      pop\n      pop\n      jump\t// out\n        /* \"contracts/DisasterRecoveryTraining.sol\":2051:2408  function registerTrainer(uint256 id, string memory name, uint256 age, string memory gender) external returns (uint256) {... */\n    tag_40:\n        /* \"contracts/DisasterRecoveryTraining.sol\":2161:2168  uint256 */\n      0x00\n        /* \"contracts/DisasterRecoveryTraining.sol\":2194:2195  0 */\n      0x00\n        /* \"contracts/DisasterRecoveryTraining.sol\":2188:2191  age */\n      dup4\n        /* \"contracts/DisasterRecoveryTraining.sol\":2188:2195  age > 0 */\n      gt\n        /* \"contracts/DisasterRecoveryTraining.sol\":2180:2211  require(age > 0, \"Invalid age\") */\n      tag_190\n      jumpi\n      mload(0x40)\n      0x08c379a000000000000000000000000000000000000000000000000000000000\n      dup2\n      mstore\n      0x04\n      add\n      tag_191\n      swap1\n      tag_192\n      jump\t// in\n    tag_191:\n      mload(0x40)\n      dup1\n      swap2\n      sub\n      swap1\n      revert\n    tag_190:\n        /* \"contracts/DisasterRecoveryTraining.sol\":2234:2235  0 */\n      0x00\n        /* \"contracts/DisasterRecoveryTraining.sol\":2229:2231  id */\n      dup6\n        /* \"contracts/DisasterRecoveryTraining.sol\":2229:2235  id > 0 */\n      gt\n        /* \"contracts/DisasterRecoveryTraining.sol\":2221:2250  require(id > 0, \"Invalid ID\") */\n      tag_193\n      jumpi\n      mload(0x40)\n      0x08c379a000000000000000000000000000000000000000000000000000000000\n      dup2\n      mstore\n      0x04\n      add\n      tag_194\n      swap1\n      tag_195\n      jump\t// in\n    tag_194:\n      mload(0x40)\n      dup1\n      swap2\n      sub\n      swap1\n      revert\n    tag_193:\n        /* \"contracts/DisasterRecoveryTraining.sol\":2287:2288  0 */\n      0x00\n        /* \"contracts/DisasterRecoveryTraining.sol\":2268:2276  trainers */\n      0x02\n        /* \"contracts/DisasterRecoveryTraining.sol\":2268:2280  trainers[id] */\n      0x00\n        /* \"contracts/DisasterRecoveryTraining.sol\":2277:2279  id */\n      dup8\n        /* \"contracts/DisasterRecoveryTraining.sol\":2268:2280  trainers[id] */\n      dup2\n      mstore\n      0x20\n      add\n      swap1\n      dup2\n      mstore\n      0x20\n      add\n      0x00\n      keccak256\n        /* \"contracts/DisasterRecoveryTraining.sol\":2268:2283  trainers[id].id */\n      0x00\n      add\n      sload\n        /* \"contracts/DisasterRecoveryTraining.sol\":2268:2288  trainers[id].id == 0 */\n      eq\n        /* \"contracts/DisasterRecoveryTraining.sol\":2260:2318  require(trainers[id].id == 0, \"Trainer ID already exists\") */\n      tag_196\n      jumpi\n      mload(0x40)\n      0x08c379a000000000000000000000000000000000000000000000000000000000\n      dup2\n      mstore\n      0x04\n      add\n      tag_197\n      swap1\n      tag_198\n      jump\t// in\n    tag_197:\n      mload(0x40)\n      dup1\n      swap2\n      sub\n      swap1\n      revert\n    tag_196:\n        /* \"contracts/DisasterRecoveryTraining.sol\":2352:2382  Trainer(id, name, age, gender) */\n      mload(0x40)\n      dup1\n      0x80\n      add\n      0x40\n      mstore\n      dup1\n        /* \"contracts/DisasterRecoveryTraining.sol\":2360:2362  id */\n      dup7\n        /* \"contracts/DisasterRecoveryTraining.sol\":2352:2382  Trainer(id, name, age, gender) */\n      dup2\n      mstore\n      0x20\n      add\n        /* \"contracts/DisasterRecoveryTraining.sol\":2364:2368  name */\n      dup6\n        /* \"contracts/DisasterRecoveryTraining.sol\":2352:2382  Trainer(id, name, age, gender) */\n      dup2\n      mstore\n      0x20\n      add\n        /* \"contracts/DisasterRecoveryTraining.sol\":2370:2373  age */\n      dup5\n        /* \"contracts/DisasterRecoveryTraining.sol\":2352:2382  Trainer(id, name, age, gender) */\n      dup2\n      mstore\n      0x20\n      add\n        /* \"contracts/DisasterRecoveryTraining.sol\":2375:2381  gender */\n      dup4\n        /* \"contracts/DisasterRecoveryTraining.sol\":2352:2382  Trainer(id, name, age, gender) */\n      dup2\n      mstore\n      pop\n        /* \"contracts/DisasterRecoveryTraining.sol\":2337:2345  trainers */\n      0x02\n        /* \"contracts/DisasterRecoveryTraining.sol\":2337:2349  trainers[id] */\n      0x00\n        /* \"contracts/DisasterRecoveryTraining.sol\":2346:2348  id */\n      dup8\n        /* \"contracts/DisasterRecoveryTraining.sol\":2337:2349  trainers[id] */\n      dup2\n      mstore\n      0x20\n      add\n      swap1\n      dup2\n      mstore\n      0x20\n      add\n      0x00\n      keccak256\n        /* \"contracts/DisasterRecoveryTraining.sol\":2337:2382  trainers[id] = Trainer(id, name, age, gender) */\n      0x00\n      dup3\n      add\n      mload\n      dup2\n      0x00\n      add\n      sstore\n      0x20\n      dup3\n      add\n      mload\n      dup2\n      0x01\n      add\n      swap1\n      dup2\n      tag_199\n      swap2\n      swap1\n      tag_200\n      jump\t// in\n    tag_199:\n      pop\n      0x40\n      dup3\n      add\n      mload\n      dup2\n      0x02\n      add\n      sstore\n      0x60\n      dup3\n      add\n      mload\n      dup2\n      0x03\n      add\n      swap1\n      dup2\n      tag_201\n      swap2\n      swap1\n      tag_200\n      jump\t// in\n    tag_201:\n      pop\n      swap1\n      pop\n      pop\n        /* \"contracts/DisasterRecoveryTraining.sol\":2399:2401  id */\n      dup5\n        /* \"contracts/DisasterRecoveryTraining.sol\":2392:2401  return id */\n      swap1\n      pop\n        /* \"contracts/DisasterRecoveryTraining.sol\":2051:2408  function registerTrainer(uint256 id, string memory name, uint256 age, string memory gender) external returns (uint256) {... */\n      swap5\n      swap4\n      pop\n      pop\n      pop\n      pop\n      jump\t// out\n        /* \"contracts/DisasterRecoveryTraining.sol\":1658:2041  function registerAdmin(uint256 id, string memory name, uint256 age) external returns (uint256) {... */\n    tag_46:\n        /* \"contracts/DisasterRecoveryTraining.sol\":1744:1751  uint256 */\n      0x00\n        /* \"contracts/DisasterRecoveryTraining.sol\":1777:1778  0 */\n      0x00\n        /* \"contracts/DisasterRecoveryTraining.sol\":1771:1774  age */\n      dup3\n        /* \"contracts/DisasterRecoveryTraining.sol\":1771:1778  age > 0 */\n      gt\n        /* \"contracts/DisasterRecoveryTraining.sol\":1763:1794  require(age > 0, \"Invalid age\") */\n      tag_203\n      jumpi\n      mload(0x40)\n      0x08c379a000000000000000000000000000000000000000000000000000000000\n      dup2\n      mstore\n      0x04\n      add\n      tag_204\n      swap1\n      tag_192\n      jump\t// in\n    tag_204:\n      mload(0x40)\n      dup1\n      swap2\n      sub\n      swap1\n      revert\n    tag_203:\n        /* \"contracts/DisasterRecoveryTraining.sol\":1817:1818  0 */\n      0x00\n        /* \"contracts/DisasterRecoveryTraining.sol\":1812:1814  id */\n      dup5\n        /* \"contracts/DisasterRecoveryTraining.sol\":1812:1818  id > 0 */\n      gt\n        /* \"contracts/DisasterRecoveryTraining.sol\":1804:1833  require(id > 0, \"Invalid ID\") */\n      tag_205\n      jumpi\n      mload(0x40)\n      0x08c379a000000000000000000000000000000000000000000000000000000000\n      dup2\n      mstore\n      0x04\n      add\n      tag_206\n      swap1\n      tag_195\n      jump\t// in\n    tag_206:\n      mload(0x40)\n      dup1\n      swap2\n      sub\n      swap1\n      revert\n    tag_205:\n        /* \"contracts/DisasterRecoveryTraining.sol\":1868:1869  0 */\n      0x00\n        /* \"contracts/DisasterRecoveryTraining.sol\":1851:1857  admins */\n      0x00\n        /* \"contracts/DisasterRecoveryTraining.sol\":1851:1861  admins[id] */\n      0x00\n        /* \"contracts/DisasterRecoveryTraining.sol\":1858:1860  id */\n      dup7\n        /* \"contracts/DisasterRecoveryTraining.sol\":1851:1861  admins[id] */\n      dup2\n      mstore\n      0x20\n      add\n      swap1\n      dup2\n      mstore\n      0x20\n      add\n      0x00\n      keccak256\n        /* \"contracts/DisasterRecoveryTraining.sol\":1851:1864  admins[id].id */\n      0x00\n      add\n      sload\n        /* \"contracts/DisasterRecoveryTraining.sol\":1851:1869  admins[id].id == 0 */\n      eq\n        /* \"contracts/DisasterRecoveryTraining.sol\":1843:1897  require(admins[id].id == 0, \"Admin ID already exists\") */\n      tag_207\n      jumpi\n      mload(0x40)\n      0x08c379a000000000000000000000000000000000000000000000000000000000\n      dup2\n      mstore\n      0x04\n      add\n      tag_208\n      swap1\n      tag_209\n      jump\t// in\n    tag_208:\n      mload(0x40)\n      dup1\n      swap2\n      sub\n      swap1\n      revert\n    tag_207:\n        /* \"contracts/DisasterRecoveryTraining.sol\":1929:1952  Admin(id, name, age, 0) */\n      mload(0x40)\n      dup1\n      0x80\n      add\n      0x40\n      mstore\n      dup1\n        /* \"contracts/DisasterRecoveryTraining.sol\":1935:1937  id */\n      dup6\n        /* \"contracts/DisasterRecoveryTraining.sol\":1929:1952  Admin(id, name, age, 0) */\n      dup2\n      mstore\n      0x20\n      add\n        /* \"contracts/DisasterRecoveryTraining.sol\":1939:1943  name */\n      dup5\n        /* \"contracts/DisasterRecoveryTraining.sol\":1929:1952  Admin(id, name, age, 0) */\n      dup2\n      mstore\n      0x20\n      add\n        /* \"contracts/DisasterRecoveryTraining.sol\":1945:1948  age */\n      dup4\n        /* \"contracts/DisasterRecoveryTraining.sol\":1929:1952  Admin(id, name, age, 0) */\n      dup2\n      mstore\n      0x20\n      add\n        /* \"contracts/DisasterRecoveryTraining.sol\":1950:1951  0 */\n      0x00\n        /* \"contracts/DisasterRecoveryTraining.sol\":1929:1952  Admin(id, name, age, 0) */\n      dup2\n      mstore\n      pop\n        /* \"contracts/DisasterRecoveryTraining.sol\":1916:1922  admins */\n      0x00\n        /* \"contracts/DisasterRecoveryTraining.sol\":1916:1926  admins[id] */\n      0x00\n        /* \"contracts/DisasterRecoveryTraining.sol\":1923:1925  id */\n      dup7\n        /* \"contracts/DisasterRecoveryTraining.sol\":1916:1926  admins[id] */\n      dup2\n      mstore\n      0x20\n      add\n      swap1\n      dup2\n      mstore\n      0x20\n      add\n      0x00\n      keccak256\n        /* \"contracts/DisasterRecoveryTraining.sol\":1916:1952  admins[id] = Admin(id, name, age, 0) */\n      0x00\n      dup3\n      add\n      mload\n      dup2\n      0x00\n      add\n      sstore\n      0x20\n      dup3\n      add\n      mload\n      dup2\n      0x01\n      add\n      swap1\n      dup2\n      tag_210\n      swap2\n      swap1\n      tag_200\n      jump\t// in\n    tag_210:\n      pop\n      0x40\n      dup3\n      add\n      mload\n      dup2\n      0x02\n      add\n      sstore\n      0x60\n      dup3\n      add\n      mload\n      dup2\n      0x03\n      add\n      sstore\n      swap1\n      pop\n      pop\n        /* \"contracts/DisasterRecoveryTraining.sol\":1962:1970  adminIds */\n      0x05\n        /* \"contracts/DisasterRecoveryTraining.sol\":1976:1978  id */\n      dup5\n        /* \"contracts/DisasterRecoveryTraining.sol\":1962:1979  adminIds.push(id) */\n      swap1\n      dup1\n      0x01\n      dup2\n      sload\n      add\n      dup1\n      dup3\n      sstore\n      dup1\n      swap2\n      pop\n      pop\n      0x01\n      swap1\n      sub\n      swap1\n      0x00\n      mstore\n      keccak256(0x00, 0x20)\n      add\n      0x00\n      swap1\n      swap2\n      swap1\n      swap2\n      swap1\n      swap2\n      pop\n      sstore\n        /* \"contracts/DisasterRecoveryTraining.sol\":2011:2015  true */\n      0x01\n        /* \"contracts/DisasterRecoveryTraining.sol\":1989:1996  isAdmin */\n      dup1\n        /* \"contracts/DisasterRecoveryTraining.sol\":1989:2008  isAdmin[msg.sender] */\n      0x00\n        /* \"contracts/DisasterRecoveryTraining.sol\":1997:2007  msg.sender */\n      caller\n        /* \"contracts/DisasterRecoveryTraining.sol\":1989:2008  isAdmin[msg.sender] */\n      0xffffffffffffffffffffffffffffffffffffffff\n      and\n      0xffffffffffffffffffffffffffffffffffffffff\n      and\n      dup2\n      mstore\n      0x20\n      add\n      swap1\n      dup2\n      mstore\n      0x20\n      add\n      0x00\n      keccak256\n      0x00\n        /* \"contracts/DisasterRecoveryTraining.sol\":1989:2015  isAdmin[msg.sender] = true */\n      0x0100\n      exp\n      dup2\n      sload\n      dup2\n      0xff\n      mul\n      not\n      and\n      swap1\n      dup4\n      iszero\n      iszero\n      mul\n      or\n      swap1\n      sstore\n      pop\n        /* \"contracts/DisasterRecoveryTraining.sol\":2032:2034  id */\n      dup4\n        /* \"contracts/DisasterRecoveryTraining.sol\":2025:2034  return id */\n      swap1\n      pop\n        /* \"contracts/DisasterRecoveryTraining.sol\":1658:2041  function registerAdmin(uint256 id, string memory name, uint256 age) external returns (uint256) {... */\n      swap4\n      swap3\n      pop\n      pop\n      pop\n      jump\t// out\n        /* \"contracts/DisasterRecoveryTraining.sol\":2418:3209  function registerParticipant(... */\n    tag_51:\n        /* \"contracts/DisasterRecoveryTraining.sol\":2674:2681  uint256 */\n      0x00\n        /* \"contracts/DisasterRecoveryTraining.sol\":2707:2708  0 */\n      0x00\n        /* \"contracts/DisasterRecoveryTraining.sol\":2701:2704  age */\n      dup7\n        /* \"contracts/DisasterRecoveryTraining.sol\":2701:2708  age > 0 */\n      gt\n        /* \"contracts/DisasterRecoveryTraining.sol\":2693:2724  require(age > 0, \"Invalid age\") */\n      tag_213\n      jumpi\n      mload(0x40)\n      0x08c379a000000000000000000000000000000000000000000000000000000000\n      dup2\n      mstore\n      0x04\n      add\n      tag_214\n      swap1\n      tag_192\n      jump\t// in\n    tag_214:\n      mload(0x40)\n      dup1\n      swap2\n      sub\n      swap1\n      revert\n    tag_213:\n        /* \"contracts/DisasterRecoveryTraining.sol\":2747:2748  0 */\n      0x00\n        /* \"contracts/DisasterRecoveryTraining.sol\":2742:2744  id */\n      dup9\n        /* \"contracts/DisasterRecoveryTraining.sol\":2742:2748  id > 0 */\n      gt\n        /* \"contracts/DisasterRecoveryTraining.sol\":2734:2763  require(id > 0, \"Invalid ID\") */\n      tag_215\n      jumpi\n      mload(0x40)\n      0x08c379a000000000000000000000000000000000000000000000000000000000\n      dup2\n      mstore\n      0x04\n      add\n      tag_216\n      swap1\n      tag_195\n      jump\t// in\n    tag_216:\n      mload(0x40)\n      dup1\n      swap2\n      sub\n      swap1\n      revert\n    tag_215:\n        /* \"contracts/DisasterRecoveryTraining.sol\":2804:2805  0 */\n      0x00\n        /* \"contracts/DisasterRecoveryTraining.sol\":2781:2793  participants */\n      0x03\n        /* \"contracts/DisasterRecoveryTraining.sol\":2781:2797  participants[id] */\n      0x00\n        /* \"contracts/DisasterRecoveryTraining.sol\":2794:2796  id */\n      dup11\n        /* \"contracts/DisasterRecoveryTraining.sol\":2781:2797  participants[id] */\n      dup2\n      mstore\n      0x20\n      add\n      swap1\n      dup2\n      mstore\n      0x20\n      add\n      0x00\n      keccak256\n        /* \"contracts/DisasterRecoveryTraining.sol\":2781:2800  participants[id].id */\n      0x00\n      add\n      sload\n        /* \"contracts/DisasterRecoveryTraining.sol\":2781:2805  participants[id].id == 0 */\n      eq\n        /* \"contracts/DisasterRecoveryTraining.sol\":2773:2839  require(participants[id].id == 0, \"Participant ID already exists\") */\n      tag_217\n      jumpi\n      mload(0x40)\n      0x08c379a000000000000000000000000000000000000000000000000000000000\n      dup2\n      mstore\n      0x04\n      add\n      tag_218\n      swap1\n      tag_219\n      jump\t// in\n    tag_218:\n      mload(0x40)\n      dup1\n      swap2\n      sub\n      swap1\n      revert\n    tag_217:\n        /* \"contracts/DisasterRecoveryTraining.sol\":2878:2879  2 */\n      0x02\n        /* \"contracts/DisasterRecoveryTraining.sol\":2857:2874  training_interest */\n      dup4\n        /* \"contracts/DisasterRecoveryTraining.sol\":2857:2879  training_interest <= 2 */\n      gt\n      iszero\n        /* \"contracts/DisasterRecoveryTraining.sol\":2849:2909  require(training_interest <= 2, \"Invalid training interest\") */\n      tag_220\n      jumpi\n      mload(0x40)\n      0x08c379a000000000000000000000000000000000000000000000000000000000\n      dup2\n      mstore\n      0x04\n      add\n      tag_221\n      swap1\n      tag_63\n      jump\t// in\n    tag_221:\n      mload(0x40)\n      dup1\n      swap2\n      sub\n      swap1\n      revert\n    tag_220:\n        /* \"contracts/DisasterRecoveryTraining.sol\":2947:3183  Participant(... */\n      mload(0x40)\n      dup1\n      0x0100\n      add\n      0x40\n      mstore\n      dup1\n        /* \"contracts/DisasterRecoveryTraining.sol\":2972:2974  id */\n      dup10\n        /* \"contracts/DisasterRecoveryTraining.sol\":2947:3183  Participant(... */\n      dup2\n      mstore\n      0x20\n      add\n        /* \"contracts/DisasterRecoveryTraining.sol\":2988:2992  name */\n      dup9\n        /* \"contracts/DisasterRecoveryTraining.sol\":2947:3183  Participant(... */\n      dup2\n      mstore\n      0x20\n      add\n        /* \"contracts/DisasterRecoveryTraining.sol\":3006:3009  age */\n      dup8\n        /* \"contracts/DisasterRecoveryTraining.sol\":2947:3183  Participant(... */\n      dup2\n      mstore\n      0x20\n      add\n        /* \"contracts/DisasterRecoveryTraining.sol\":3023:3029  gender */\n      dup7\n        /* \"contracts/DisasterRecoveryTraining.sol\":2947:3183  Participant(... */\n      dup2\n      mstore\n      0x20\n      add\n        /* \"contracts/DisasterRecoveryTraining.sol\":3043:3051  district */\n      dup6\n        /* \"contracts/DisasterRecoveryTraining.sol\":2947:3183  Participant(... */\n      dup2\n      mstore\n      0x20\n      add\n        /* \"contracts/DisasterRecoveryTraining.sol\":3078:3095  training_interest */\n      dup5\n        /* \"contracts/DisasterRecoveryTraining.sol\":3065:3096  TrainingType(training_interest) */\n      0x02\n      dup2\n      gt\n      iszero\n      tag_222\n      jumpi\n      tag_223\n      tag_70\n      jump\t// in\n    tag_223:\n    tag_222:\n        /* \"contracts/DisasterRecoveryTraining.sol\":2947:3183  Participant(... */\n      0x02\n      dup2\n      gt\n      iszero\n      tag_224\n      jumpi\n      tag_225\n      tag_70\n      jump\t// in\n    tag_225:\n    tag_224:\n      dup2\n      mstore\n      0x20\n      add\n        /* \"contracts/DisasterRecoveryTraining.sol\":3110:3132  has_completed_training */\n      dup4\n        /* \"contracts/DisasterRecoveryTraining.sol\":2947:3183  Participant(... */\n      iszero\n      iszero\n      dup2\n      mstore\n      0x20\n      add\n        /* \"contracts/DisasterRecoveryTraining.sol\":1048:1056  10 ether */\n      0x8ac7230489e80000\n        /* \"contracts/DisasterRecoveryTraining.sol\":2947:3183  Participant(... */\n      dup2\n      mstore\n      pop\n        /* \"contracts/DisasterRecoveryTraining.sol\":2928:2940  participants */\n      0x03\n        /* \"contracts/DisasterRecoveryTraining.sol\":2928:2944  participants[id] */\n      0x00\n        /* \"contracts/DisasterRecoveryTraining.sol\":2941:2943  id */\n      dup11\n        /* \"contracts/DisasterRecoveryTraining.sol\":2928:2944  participants[id] */\n      dup2\n      mstore\n      0x20\n      add\n      swap1\n      dup2\n      mstore\n      0x20\n      add\n      0x00\n      keccak256\n        /* \"contracts/DisasterRecoveryTraining.sol\":2928:3183  participants[id] = Participant(... */\n      0x00\n      dup3\n      add\n      mload\n      dup2\n      0x00\n      add\n      sstore\n      0x20\n      dup3\n      add\n      mload\n      dup2\n      0x01\n      add\n      swap1\n      dup2\n      tag_226\n      swap2\n      swap1\n      tag_200\n      jump\t// in\n    tag_226:\n      pop\n      0x40\n      dup3\n      add\n      mload\n      dup2\n      0x02\n      add\n      sstore\n      0x60\n      dup3\n      add\n      mload\n      dup2\n      0x03\n      add\n      swap1\n      dup2\n      tag_227\n      swap2\n      swap1\n      tag_200\n      jump\t// in\n    tag_227:\n      pop\n      0x80\n      dup3\n      add\n      mload\n      dup2\n      0x04\n      add\n      swap1\n      dup2\n      tag_228\n      swap2\n      swap1\n      tag_200\n      jump\t// in\n    tag_228:\n      pop\n      0xa0\n      dup3\n      add\n      mload\n      dup2\n      0x05\n      add\n      exp(0x0100, 0x00)\n      dup2\n      sload\n      dup2\n      0xff\n      mul\n      not\n      and\n      swap1\n      dup4\n      0x02\n      dup2\n      gt\n      iszero\n      tag_229\n      jumpi\n      tag_230\n      tag_70\n      jump\t// in\n    tag_230:\n    tag_229:\n      mul\n      or\n      swap1\n      sstore\n      pop\n      0xc0\n      dup3\n      add\n      mload\n      dup2\n      0x05\n      add\n      exp(0x0100, 0x01)\n      dup2\n      sload\n      dup2\n      0xff\n      mul\n      not\n      and\n      swap1\n      dup4\n      iszero\n      iszero\n      mul\n      or\n      swap1\n      sstore\n      pop\n      0xe0\n      dup3\n      add\n      mload\n      dup2\n      0x06\n      add\n      sstore\n      swap1\n      pop\n      pop\n        /* \"contracts/DisasterRecoveryTraining.sol\":3200:3202  id */\n      dup8\n        /* \"contracts/DisasterRecoveryTraining.sol\":3193:3202  return id */\n      swap1\n      pop\n        /* \"contracts/DisasterRecoveryTraining.sol\":2418:3209  function registerParticipant(... */\n      swap8\n      swap7\n      pop\n      pop\n      pop\n      pop\n      pop\n      pop\n      pop\n      jump\t// out\n        /* \"contracts/DisasterRecoveryTraining.sol\":6139:6729  function _toString(uint256 value) internal pure returns (string memory) {... */\n    tag_109:\n        /* \"contracts/DisasterRecoveryTraining.sol\":6196:6209  string memory */\n      0x60\n        /* \"contracts/DisasterRecoveryTraining.sol\":6234:6235  0 */\n      0x00\n        /* \"contracts/DisasterRecoveryTraining.sol\":6225:6230  value */\n      dup3\n        /* \"contracts/DisasterRecoveryTraining.sol\":6225:6235  value == 0 */\n      sub\n        /* \"contracts/DisasterRecoveryTraining.sol\":6221:6247  if (value == 0) return \"0\" */\n      tag_232\n      jumpi\n        /* \"contracts/DisasterRecoveryTraining.sol\":6237:6247  return \"0\" */\n      mload(0x40)\n      dup1\n      0x40\n      add\n      0x40\n      mstore\n      dup1\n      0x01\n      dup2\n      mstore\n      0x20\n      add\n      0x3000000000000000000000000000000000000000000000000000000000000000\n      dup2\n      mstore\n      pop\n      swap1\n      pop\n      jump(tag_231)\n        /* \"contracts/DisasterRecoveryTraining.sol\":6221:6247  if (value == 0) return \"0\" */\n    tag_232:\n        /* \"contracts/DisasterRecoveryTraining.sol\":6269:6271  10 */\n      0x0a\n        /* \"contracts/DisasterRecoveryTraining.sol\":6261:6266  value */\n      dup3\n        /* \"contracts/DisasterRecoveryTraining.sol\":6261:6271  value < 10 */\n      lt\n        /* \"contracts/DisasterRecoveryTraining.sol\":6257:6336  if (value < 10) return string(abi.encodePacked(\"0\", bytes1(uint8(48 + value)))) */\n      iszero\n      tag_233\n      jumpi\n        /* \"contracts/DisasterRecoveryTraining.sol\":6327:6332  value */\n      dup2\n        /* \"contracts/DisasterRecoveryTraining.sol\":6322:6324  48 */\n      0x30\n        /* \"contracts/DisasterRecoveryTraining.sol\":6322:6332  48 + value */\n      tag_234\n      swap2\n      swap1\n      tag_105\n      jump\t// in\n    tag_234:\n        /* \"contracts/DisasterRecoveryTraining.sol\":6309:6334  bytes1(uint8(48 + value)) */\n      0xf8\n      shl\n        /* \"contracts/DisasterRecoveryTraining.sol\":6287:6335  abi.encodePacked(\"0\", bytes1(uint8(48 + value))) */\n      add(0x20, mload(0x40))\n      tag_235\n      swap2\n      swap1\n      tag_236\n      jump\t// in\n    tag_235:\n      mload(0x40)\n      0x20\n      dup2\n      dup4\n      sub\n      sub\n      dup2\n      mstore\n      swap1\n      0x40\n      mstore\n        /* \"contracts/DisasterRecoveryTraining.sol\":6273:6336  return string(abi.encodePacked(\"0\", bytes1(uint8(48 + value)))) */\n      swap1\n      pop\n      jump(tag_231)\n        /* \"contracts/DisasterRecoveryTraining.sol\":6257:6336  if (value < 10) return string(abi.encodePacked(\"0\", bytes1(uint8(48 + value)))) */\n    tag_233:\n        /* \"contracts/DisasterRecoveryTraining.sol\":6355:6367  uint256 temp */\n      0x00\n        /* \"contracts/DisasterRecoveryTraining.sol\":6370:6375  value */\n      dup3\n        /* \"contracts/DisasterRecoveryTraining.sol\":6355:6375  uint256 temp = value */\n      swap1\n      pop\n        /* \"contracts/DisasterRecoveryTraining.sol\":6385:6399  uint256 digits */\n      0x00\n        /* \"contracts/DisasterRecoveryTraining.sol\":6409:6484  while (temp != 0) {... */\n    tag_237:\n        /* \"contracts/DisasterRecoveryTraining.sol\":6424:6425  0 */\n      0x00\n        /* \"contracts/DisasterRecoveryTraining.sol\":6416:6420  temp */\n      dup3\n        /* \"contracts/DisasterRecoveryTraining.sol\":6416:6425  temp != 0 */\n      eq\n        /* \"contracts/DisasterRecoveryTraining.sol\":6409:6484  while (temp != 0) {... */\n      tag_238\n      jumpi\n        /* \"contracts/DisasterRecoveryTraining.sol\":6441:6449  digits++ */\n      dup1\n      dup1\n      tag_239\n      swap1\n      tag_82\n      jump\t// in\n    tag_239:\n      swap2\n      pop\n      pop\n        /* \"contracts/DisasterRecoveryTraining.sol\":6471:6473  10 */\n      0x0a\n        /* \"contracts/DisasterRecoveryTraining.sol\":6463:6473  temp /= 10 */\n      dup3\n      tag_240\n      swap2\n      swap1\n      tag_99\n      jump\t// in\n    tag_240:\n      swap2\n      pop\n        /* \"contracts/DisasterRecoveryTraining.sol\":6409:6484  while (temp != 0) {... */\n      jump(tag_237)\n    tag_238:\n        /* \"contracts/DisasterRecoveryTraining.sol\":6493:6512  bytes memory buffer */\n      0x00\n        /* \"contracts/DisasterRecoveryTraining.sol\":6525:6531  digits */\n      dup2\n        /* \"contracts/DisasterRecoveryTraining.sol\":6515:6532  new bytes(digits) */\n      0xffffffffffffffff\n      dup2\n      gt\n      iszero\n      tag_241\n      jumpi\n      tag_242\n      tag_85\n      jump\t// in\n    tag_242:\n    tag_241:\n      mload(0x40)\n      swap1\n      dup1\n      dup3\n      mstore\n      dup1\n      0x1f\n      add\n      not(0x1f)\n      and\n      0x20\n      add\n      dup3\n      add\n      0x40\n      mstore\n      dup1\n      iszero\n      tag_243\n      jumpi\n      dup2\n      0x20\n      add\n      0x01\n      dup3\n      mul\n      dup1\n      calldatasize\n      dup4\n      calldatacopy\n      dup1\n      dup3\n      add\n      swap2\n      pop\n      pop\n      swap1\n      pop\n    tag_243:\n      pop\n        /* \"contracts/DisasterRecoveryTraining.sol\":6493:6532  bytes memory buffer = new bytes(digits) */\n      swap1\n      pop\n        /* \"contracts/DisasterRecoveryTraining.sol\":6542:6692  while (value != 0) {... */\n    tag_244:\n        /* \"contracts/DisasterRecoveryTraining.sol\":6558:6559  0 */\n      0x00\n        /* \"contracts/DisasterRecoveryTraining.sol\":6549:6554  value */\n      dup6\n        /* \"contracts/DisasterRecoveryTraining.sol\":6549:6559  value != 0 */\n      eq\n        /* \"contracts/DisasterRecoveryTraining.sol\":6542:6692  while (value != 0) {... */\n      tag_245\n      jumpi\n        /* \"contracts/DisasterRecoveryTraining.sol\":6585:6586  1 */\n      0x01\n        /* \"contracts/DisasterRecoveryTraining.sol\":6575:6586  digits -= 1 */\n      dup3\n      tag_246\n      swap2\n      swap1\n      tag_187\n      jump\t// in\n    tag_246:\n      swap2\n      pop\n        /* \"contracts/DisasterRecoveryTraining.sol\":6651:6653  10 */\n      0x0a\n        /* \"contracts/DisasterRecoveryTraining.sol\":6643:6648  value */\n      dup6\n        /* \"contracts/DisasterRecoveryTraining.sol\":6643:6653  value % 10 */\n      tag_247\n      swap2\n      swap1\n      tag_101\n      jump\t// in\n    tag_247:\n        /* \"contracts/DisasterRecoveryTraining.sol\":6630:6632  48 */\n      0x30\n        /* \"contracts/DisasterRecoveryTraining.sol\":6630:6654  48 + uint256(value % 10) */\n      tag_248\n      swap2\n      swap1\n      tag_105\n      jump\t// in\n    tag_248:\n        /* \"contracts/DisasterRecoveryTraining.sol\":6617:6656  bytes1(uint8(48 + uint256(value % 10))) */\n      0xf8\n      shl\n        /* \"contracts/DisasterRecoveryTraining.sol\":6600:6606  buffer */\n      dup2\n        /* \"contracts/DisasterRecoveryTraining.sol\":6607:6613  digits */\n      dup4\n        /* \"contracts/DisasterRecoveryTraining.sol\":6600:6614  buffer[digits] */\n      dup2\n      mload\n      dup2\n      lt\n      tag_249\n      jumpi\n      tag_250\n      tag_97\n      jump\t// in\n    tag_250:\n    tag_249:\n      0x20\n      add\n      add\n        /* \"contracts/DisasterRecoveryTraining.sol\":6600:6656  buffer[digits] = bytes1(uint8(48 + uint256(value % 10))) */\n      swap1\n      not(0xffffffffffffffffffffffffffffffffffffffffffffffffffffffffffffff)\n      and\n      swap1\n      dup2\n      0x00\n      byte\n      swap1\n      mstore8\n      pop\n        /* \"contracts/DisasterRecoveryTraining.sol\":6679:6681  10 */\n      0x0a\n        /* \"contracts/DisasterRecoveryTraining.sol\":6670:6681  value /= 10 */\n      dup6\n      tag_251\n      swap2\n      swap1\n      tag_99\n      jump\t// in\n    tag_251:\n      swap5\n      pop\n        /* \"contracts/DisasterRecoveryTraining.sol\":6542:6692  while (value != 0) {... */\n      jump(tag_244)\n    tag_245:\n        /* \"contracts/DisasterRecoveryTraining.sol\":6715:6721  buffer */\n      dup1\n        /* \"contracts/DisasterRecoveryTraining.sol\":6701:6722  return string(buffer) */\n      swap4\n      pop\n      pop\n      pop\n      pop\n        /* \"contracts/DisasterRecoveryTraining.sol\":6139:6729  function _toString(uint256 value) internal pure returns (string memory) {... */\n    tag_231:\n      swap2\n      swap1\n      pop\n      jump\t// out\n        /* \"#utility.yul\":7:82   */\n    tag_252:\n        /* \"#utility.yul\":40:46   */\n      0x00\n        /* \"#utility.yul\":73:75   */\n      0x40\n        /* \"#utility.yul\":67:76   */\n      mload\n        /* \"#utility.yul\":57:76   */\n      swap1\n      pop\n        /* \"#utility.yul\":7:82   */\n      swap1\n      jump\t// out\n        /* \"#utility.yul\":88:205   */\n    tag_253:\n        /* \"#utility.yul\":197:198   */\n      0x00\n        /* \"#utility.yul\":194:195   */\n      0x00\n        /* \"#utility.yul\":187:199   */\n      revert\n        /* \"#utility.yul\":211:328   */\n    tag_254:\n        /* \"#utility.yul\":320:321   */\n      0x00\n        /* \"#utility.yul\":317:318   */\n      0x00\n        /* \"#utility.yul\":310:322   */\n      revert\n        /* \"#utility.yul\":334:411   */\n    tag_255:\n        /* \"#utility.yul\":371:378   */\n      0x00\n        /* \"#utility.yul\":400:405   */\n      dup2\n        /* \"#utility.yul\":389:405   */\n      swap1\n      pop\n        /* \"#utility.yul\":334:411   */\n      swap2\n      swap1\n      pop\n      jump\t// out\n        /* \"#utility.yul\":417:539   */\n    tag_256:\n        /* \"#utility.yul\":490:514   */\n      tag_356\n        /* \"#utility.yul\":508:513   */\n      dup2\n        /* \"#utility.yul\":490:514   */\n      tag_255\n      jump\t// in\n    tag_356:\n        /* \"#utility.yul\":483:488   */\n      dup2\n        /* \"#utility.yul\":480:515   */\n      eq\n        /* \"#utility.yul\":470:533   */\n      tag_357\n      jumpi\n        /* \"#utility.yul\":529:530   */\n      0x00\n        /* \"#utility.yul\":526:527   */\n      0x00\n        /* \"#utility.yul\":519:531   */\n      revert\n        /* \"#utility.yul\":470:533   */\n    tag_357:\n        /* \"#utility.yul\":417:539   */\n      pop\n      jump\t// out\n        /* \"#utility.yul\":545:684   */\n    tag_257:\n        /* \"#utility.yul\":591:596   */\n      0x00\n        /* \"#utility.yul\":629:635   */\n      dup2\n        /* \"#utility.yul\":616:636   */\n      calldataload\n        /* \"#utility.yul\":607:636   */\n      swap1\n      pop\n        /* \"#utility.yul\":645:678   */\n      tag_359\n        /* \"#utility.yul\":672:677   */\n      dup2\n        /* \"#utility.yul\":645:678   */\n      tag_256\n      jump\t// in\n    tag_359:\n        /* \"#utility.yul\":545:684   */\n      swap3\n      swap2\n      pop\n      pop\n      jump\t// out\n        /* \"#utility.yul\":690:780   */\n    tag_258:\n        /* \"#utility.yul\":724:731   */\n      0x00\n        /* \"#utility.yul\":767:772   */\n      dup2\n        /* \"#utility.yul\":760:773   */\n      iszero\n        /* \"#utility.yul\":753:774   */\n      iszero\n        /* \"#utility.yul\":742:774   */\n      swap1\n      pop\n        /* \"#utility.yul\":690:780   */\n      swap2\n      swap1\n      pop\n      jump\t// out\n        /* \"#utility.yul\":786:902   */\n    tag_259:\n        /* \"#utility.yul\":856:877   */\n      tag_362\n        /* \"#utility.yul\":871:876   */\n      dup2\n        /* \"#utility.yul\":856:877   */\n      tag_258\n      jump\t// in\n    tag_362:\n        /* \"#utility.yul\":849:854   */\n      dup2\n        /* \"#utility.yul\":846:878   */\n      eq\n        /* \"#utility.yul\":836:896   */\n      tag_363\n      jumpi\n        /* \"#utility.yul\":892:893   */\n      0x00\n        /* \"#utility.yul\":889:890   */\n      0x00\n        /* \"#utility.yul\":882:894   */\n      revert\n        /* \"#utility.yul\":836:896   */\n    tag_363:\n        /* \"#utility.yul\":786:902   */\n      pop\n      jump\t// out\n        /* \"#utility.yul\":908:1041   */\n    tag_260:\n        /* \"#utility.yul\":951:956   */\n      0x00\n        /* \"#utility.yul\":989:995   */\n      dup2\n        /* \"#utility.yul\":976:996   */\n      calldataload\n        /* \"#utility.yul\":967:996   */\n      swap1\n      pop\n        /* \"#utility.yul\":1005:1035   */\n      tag_365\n        /* \"#utility.yul\":1029:1034   */\n      dup2\n        /* \"#utility.yul\":1005:1035   */\n      tag_259\n      jump\t// in\n    tag_365:\n        /* \"#utility.yul\":908:1041   */\n      swap3\n      swap2\n      pop\n      pop\n      jump\t// out\n        /* \"#utility.yul\":1047:1660   */\n    tag_14:\n        /* \"#utility.yul\":1121:1127   */\n      0x00\n        /* \"#utility.yul\":1129:1135   */\n      0x00\n        /* \"#utility.yul\":1137:1143   */\n      0x00\n        /* \"#utility.yul\":1186:1188   */\n      0x60\n        /* \"#utility.yul\":1174:1183   */\n      dup5\n        /* \"#utility.yul\":1165:1172   */\n      dup7\n        /* \"#utility.yul\":1161:1184   */\n      sub\n        /* \"#utility.yul\":1157:1189   */\n      slt\n        /* \"#utility.yul\":1154:1273   */\n      iszero\n      tag_367\n      jumpi\n        /* \"#utility.yul\":1192:1271   */\n      tag_368\n      tag_253\n      jump\t// in\n    tag_368:\n        /* \"#utility.yul\":1154:1273   */\n    tag_367:\n        /* \"#utility.yul\":1312:1313   */\n      0x00\n        /* \"#utility.yul\":1337:1390   */\n      tag_369\n        /* \"#utility.yul\":1382:1389   */\n      dup7\n        /* \"#utility.yul\":1373:1379   */\n      dup3\n        /* \"#utility.yul\":1362:1371   */\n      dup8\n        /* \"#utility.yul\":1358:1380   */\n      add\n        /* \"#utility.yul\":1337:1390   */\n      tag_257\n      jump\t// in\n    tag_369:\n        /* \"#utility.yul\":1327:1390   */\n      swap4\n      pop\n        /* \"#utility.yul\":1283:1400   */\n      pop\n        /* \"#utility.yul\":1439:1441   */\n      0x20\n        /* \"#utility.yul\":1465:1518   */\n      tag_370\n        /* \"#utility.yul\":1510:1517   */\n      dup7\n        /* \"#utility.yul\":1501:1507   */\n      dup3\n        /* \"#utility.yul\":1490:1499   */\n      dup8\n        /* \"#utility.yul\":1486:1508   */\n      add\n        /* \"#utility.yul\":1465:1518   */\n      tag_257\n      jump\t// in\n    tag_370:\n        /* \"#utility.yul\":1455:1518   */\n      swap3\n      pop\n        /* \"#utility.yul\":1410:1528   */\n      pop\n        /* \"#utility.yul\":1567:1569   */\n      0x40\n        /* \"#utility.yul\":1593:1643   */\n      tag_371\n        /* \"#utility.yul\":1635:1642   */\n      dup7\n        /* \"#utility.yul\":1626:1632   */\n      dup3\n        /* \"#utility.yul\":1615:1624   */\n      dup8\n        /* \"#utility.yul\":1611:1633   */\n      add\n        /* \"#utility.yul\":1593:1643   */\n      tag_260\n      jump\t// in\n    tag_371:\n        /* \"#utility.yul\":1583:1643   */\n      swap2\n      pop\n        /* \"#utility.yul\":1538:1653   */\n      pop\n        /* \"#utility.yul\":1047:1660   */\n      swap3\n      pop\n      swap3\n      pop\n      swap3\n      jump\t// out\n        /* \"#utility.yul\":1666:1995   */\n    tag_18:\n        /* \"#utility.yul\":1725:1731   */\n      0x00\n        /* \"#utility.yul\":1774:1776   */\n      0x20\n        /* \"#utility.yul\":1762:1771   */\n      dup3\n        /* \"#utility.yul\":1753:1760   */\n      dup5\n        /* \"#utility.yul\":1749:1772   */\n      sub\n        /* \"#utility.yul\":1745:1777   */\n      slt\n        /* \"#utility.yul\":1742:1861   */\n      iszero\n      tag_373\n      jumpi\n        /* \"#utility.yul\":1780:1859   */\n      tag_374\n      tag_253\n      jump\t// in\n    tag_374:\n        /* \"#utility.yul\":1742:1861   */\n    tag_373:\n        /* \"#utility.yul\":1900:1901   */\n      0x00\n        /* \"#utility.yul\":1925:1978   */\n      tag_375\n        /* \"#utility.yul\":1970:1977   */\n      dup5\n        /* \"#utility.yul\":1961:1967   */\n      dup3\n        /* \"#utility.yul\":1950:1959   */\n      dup6\n        /* \"#utility.yul\":1946:1968   */\n      add\n        /* \"#utility.yul\":1925:1978   */\n      tag_257\n      jump\t// in\n    tag_375:\n        /* \"#utility.yul\":1915:1978   */\n      swap2\n      pop\n        /* \"#utility.yul\":1871:1988   */\n      pop\n        /* \"#utility.yul\":1666:1995   */\n      swap3\n      swap2\n      pop\n      pop\n      jump\t// out\n        /* \"#utility.yul\":2001:2115   */\n    tag_261:\n        /* \"#utility.yul\":2068:2074   */\n      0x00\n        /* \"#utility.yul\":2102:2107   */\n      dup2\n        /* \"#utility.yul\":2096:2108   */\n      mload\n        /* \"#utility.yul\":2086:2108   */\n      swap1\n      pop\n        /* \"#utility.yul\":2001:2115   */\n      swap2\n      swap1\n      pop\n      jump\t// out\n        /* \"#utility.yul\":2121:2305   */\n    tag_262:\n        /* \"#utility.yul\":2220:2231   */\n      0x00\n        /* \"#utility.yul\":2254:2260   */\n      dup3\n        /* \"#utility.yul\":2249:2252   */\n      dup3\n        /* \"#utility.yul\":2242:2261   */\n      mstore\n        /* \"#utility.yul\":2294:2298   */\n      0x20\n        /* \"#utility.yul\":2289:2292   */\n      dup3\n        /* \"#utility.yul\":2285:2299   */\n      add\n        /* \"#utility.yul\":2270:2299   */\n      swap1\n      pop\n        /* \"#utility.yul\":2121:2305   */\n      swap3\n      swap2\n      pop\n      pop\n      jump\t// out\n        /* \"#utility.yul\":2311:2443   */\n    tag_263:\n        /* \"#utility.yul\":2378:2382   */\n      0x00\n        /* \"#utility.yul\":2401:2404   */\n      dup2\n        /* \"#utility.yul\":2393:2404   */\n      swap1\n      pop\n        /* \"#utility.yul\":2431:2435   */\n      0x20\n        /* \"#utility.yul\":2426:2429   */\n      dup3\n        /* \"#utility.yul\":2422:2436   */\n      add\n        /* \"#utility.yul\":2414:2436   */\n      swap1\n      pop\n        /* \"#utility.yul\":2311:2443   */\n      swap2\n      swap1\n      pop\n      jump\t// out\n        /* \"#utility.yul\":2449:2557   */\n    tag_264:\n        /* \"#utility.yul\":2526:2550   */\n      tag_380\n        /* \"#utility.yul\":2544:2549   */\n      dup2\n        /* \"#utility.yul\":2526:2550   */\n      tag_255\n      jump\t// in\n    tag_380:\n        /* \"#utility.yul\":2521:2524   */\n      dup3\n        /* \"#utility.yul\":2514:2551   */\n      mstore\n        /* \"#utility.yul\":2449:2557   */\n      pop\n      pop\n      jump\t// out\n        /* \"#utility.yul\":2563:2742   */\n    tag_265:\n        /* \"#utility.yul\":2632:2642   */\n      0x00\n        /* \"#utility.yul\":2653:2699   */\n      tag_382\n        /* \"#utility.yul\":2695:2698   */\n      dup4\n        /* \"#utility.yul\":2687:2693   */\n      dup4\n        /* \"#utility.yul\":2653:2699   */\n      tag_264\n      jump\t// in\n    tag_382:\n        /* \"#utility.yul\":2731:2735   */\n      0x20\n        /* \"#utility.yul\":2726:2729   */\n      dup4\n        /* \"#utility.yul\":2722:2736   */\n      add\n        /* \"#utility.yul\":2708:2736   */\n      swap1\n      pop\n        /* \"#utility.yul\":2563:2742   */\n      swap3\n      swap2\n      pop\n      pop\n      jump\t// out\n        /* \"#utility.yul\":2748:2861   */\n    tag_266:\n        /* \"#utility.yul\":2818:2822   */\n      0x00\n        /* \"#utility.yul\":2850:2854   */\n      0x20\n        /* \"#utility.yul\":2845:2848   */\n      dup3\n        /* \"#utility.yul\":2841:2855   */\n      add\n        /* \"#utility.yul\":2833:2855   */\n      swap1\n      pop\n        /* \"#utility.yul\":2748:2861   */\n      swap2\n      swap1\n      pop\n      jump\t// out\n        /* \"#utility.yul\":2897:3629   */\n    tag_267:\n        /* \"#utility.yul\":3016:3019   */\n      0x00\n        /* \"#utility.yul\":3045:3099   */\n      tag_385\n        /* \"#utility.yul\":3093:3098   */\n      dup3\n        /* \"#utility.yul\":3045:3099   */\n      tag_261\n      jump\t// in\n    tag_385:\n        /* \"#utility.yul\":3115:3201   */\n      tag_386\n        /* \"#utility.yul\":3194:3200   */\n      dup2\n        /* \"#utility.yul\":3189:3192   */\n      dup6\n        /* \"#utility.yul\":3115:3201   */\n      tag_262\n      jump\t// in\n    tag_386:\n        /* \"#utility.yul\":3108:3201   */\n      swap4\n      pop\n        /* \"#utility.yul\":3225:3281   */\n      tag_387\n        /* \"#utility.yul\":3275:3280   */\n      dup4\n        /* \"#utility.yul\":3225:3281   */\n      tag_263\n      jump\t// in\n    tag_387:\n        /* \"#utility.yul\":3304:3311   */\n      dup1\n        /* \"#utility.yul\":3335:3336   */\n      0x00\n        /* \"#utility.yul\":3320:3604   */\n    tag_388:\n        /* \"#utility.yul\":3345:3351   */\n      dup4\n        /* \"#utility.yul\":3342:3343   */\n      dup2\n        /* \"#utility.yul\":3339:3352   */\n      lt\n        /* \"#utility.yul\":3320:3604   */\n      iszero\n      tag_390\n      jumpi\n        /* \"#utility.yul\":3421:3427   */\n      dup2\n        /* \"#utility.yul\":3415:3428   */\n      mload\n        /* \"#utility.yul\":3448:3511   */\n      tag_391\n        /* \"#utility.yul\":3507:3510   */\n      dup9\n        /* \"#utility.yul\":3492:3505   */\n      dup3\n        /* \"#utility.yul\":3448:3511   */\n      tag_265\n      jump\t// in\n    tag_391:\n        /* \"#utility.yul\":3441:3511   */\n      swap8\n      pop\n        /* \"#utility.yul\":3534:3594   */\n      tag_392\n        /* \"#utility.yul\":3587:3593   */\n      dup4\n        /* \"#utility.yul\":3534:3594   */\n      tag_266\n      jump\t// in\n    tag_392:\n        /* \"#utility.yul\":3524:3594   */\n      swap3\n      pop\n        /* \"#utility.yul\":3380:3604   */\n      pop\n        /* \"#utility.yul\":3367:3368   */\n      0x01\n        /* \"#utility.yul\":3364:3365   */\n      dup2\n        /* \"#utility.yul\":3360:3369   */\n      add\n        /* \"#utility.yul\":3355:3369   */\n      swap1\n      pop\n        /* \"#utility.yul\":3320:3604   */\n      jump(tag_388)\n    tag_390:\n        /* \"#utility.yul\":3324:3338   */\n      pop\n        /* \"#utility.yul\":3620:3623   */\n      dup6\n        /* \"#utility.yul\":3613:3623   */\n      swap4\n      pop\n        /* \"#utility.yul\":3021:3629   */\n      pop\n      pop\n      pop\n        /* \"#utility.yul\":2897:3629   */\n      swap3\n      swap2\n      pop\n      pop\n      jump\t// out\n        /* \"#utility.yul\":3635:3759   */\n    tag_268:\n        /* \"#utility.yul\":3712:3718   */\n      0x00\n        /* \"#utility.yul\":3746:3751   */\n      dup2\n        /* \"#utility.yul\":3740:3752   */\n      mload\n        /* \"#utility.yul\":3730:3752   */\n      swap1\n      pop\n        /* \"#utility.yul\":3635:3759   */\n      swap2\n      swap1\n      pop\n      jump\t// out\n        /* \"#utility.yul\":3765:3959   */\n    tag_269:\n        /* \"#utility.yul\":3874:3885   */\n      0x00\n        /* \"#utility.yul\":3908:3914   */\n      dup3\n        /* \"#utility.yul\":3903:3906   */\n      dup3\n        /* \"#utility.yul\":3896:3915   */\n      mstore\n        /* \"#utility.yul\":3948:3952   */\n      0x20\n        /* \"#utility.yul\":3943:3946   */\n      dup3\n        /* \"#utility.yul\":3939:3953   */\n      add\n        /* \"#utility.yul\":3924:3953   */\n      swap1\n      pop\n        /* \"#utility.yul\":3765:3959   */\n      swap3\n      swap2\n      pop\n      pop\n      jump\t// out\n        /* \"#utility.yul\":3965:4107   */\n    tag_270:\n        /* \"#utility.yul\":4042:4046   */\n      0x00\n        /* \"#utility.yul\":4065:4068   */\n      dup2\n        /* \"#utility.yul\":4057:4068   */\n      swap1\n      pop\n        /* \"#utility.yul\":4095:4099   */\n      0x20\n        /* \"#utility.yul\":4090:4093   */\n      dup3\n        /* \"#utility.yul\":4086:4100   */\n      add\n        /* \"#utility.yul\":4078:4100   */\n      swap1\n      pop\n        /* \"#utility.yul\":3965:4107   */\n      swap2\n      swap1\n      pop\n      jump\t// out\n        /* \"#utility.yul\":4113:4212   */\n    tag_271:\n        /* \"#utility.yul\":4165:4171   */\n      0x00\n        /* \"#utility.yul\":4199:4204   */\n      dup2\n        /* \"#utility.yul\":4193:4205   */\n      mload\n        /* \"#utility.yul\":4183:4205   */\n      swap1\n      pop\n        /* \"#utility.yul\":4113:4212   */\n      swap2\n      swap1\n      pop\n      jump\t// out\n        /* \"#utility.yul\":4218:4377   */\n    tag_272:\n        /* \"#utility.yul\":4292:4303   */\n      0x00\n        /* \"#utility.yul\":4326:4332   */\n      dup3\n        /* \"#utility.yul\":4321:4324   */\n      dup3\n        /* \"#utility.yul\":4314:4333   */\n      mstore\n        /* \"#utility.yul\":4366:4370   */\n      0x20\n        /* \"#utility.yul\":4361:4364   */\n      dup3\n        /* \"#utility.yul\":4357:4371   */\n      add\n        /* \"#utility.yul\":4342:4371   */\n      swap1\n      pop\n        /* \"#utility.yul\":4218:4377   */\n      swap3\n      swap2\n      pop\n      pop\n      jump\t// out\n        /* \"#utility.yul\":4383:4522   */\n    tag_273:\n        /* \"#utility.yul\":4472:4478   */\n      dup3\n        /* \"#utility.yul\":4467:4470   */\n      dup2\n        /* \"#utility.yul\":4462:4465   */\n      dup4\n        /* \"#utility.yul\":4456:4479   */\n      mcopy\n        /* \"#utility.yul\":4513:4514   */\n      0x00\n        /* \"#utility.yul\":4504:4510   */\n      dup4\n        /* \"#utility.yul\":4499:4502   */\n      dup4\n        /* \"#utility.yul\":4495:4511   */\n      add\n        /* \"#utility.yul\":4488:4515   */\n      mstore\n        /* \"#utility.yul\":4383:4522   */\n      pop\n      pop\n      pop\n      jump\t// out\n        /* \"#utility.yul\":4528:4630   */\n    tag_274:\n        /* \"#utility.yul\":4569:4575   */\n      0x00\n        /* \"#utility.yul\":4620:4622   */\n      0x1f\n        /* \"#utility.yul\":4616:4623   */\n      not\n        /* \"#utility.yul\":4611:4613   */\n      0x1f\n        /* \"#utility.yul\":4604:4609   */\n      dup4\n        /* \"#utility.yul\":4600:4614   */\n      add\n        /* \"#utility.yul\":4596:4624   */\n      and\n        /* \"#utility.yul\":4586:4624   */\n      swap1\n      pop\n        /* \"#utility.yul\":4528:4630   */\n      swap2\n      swap1\n      pop\n      jump\t// out\n        /* \"#utility.yul\":4636:4993   */\n    tag_275:\n        /* \"#utility.yul\":4714:4717   */\n      0x00\n        /* \"#utility.yul\":4742:4781   */\n      tag_401\n        /* \"#utility.yul\":4775:4780   */\n      dup3\n        /* \"#utility.yul\":4742:4781   */\n      tag_271\n      jump\t// in\n    tag_401:\n        /* \"#utility.yul\":4797:4858   */\n      tag_402\n        /* \"#utility.yul\":4851:4857   */\n      dup2\n        /* \"#utility.yul\":4846:4849   */\n      dup6\n        /* \"#utility.yul\":4797:4858   */\n      tag_272\n      jump\t// in\n    tag_402:\n        /* \"#utility.yul\":4790:4858   */\n      swap4\n      pop\n        /* \"#utility.yul\":4867:4932   */\n      tag_403\n        /* \"#utility.yul\":4925:4931   */\n      dup2\n        /* \"#utility.yul\":4920:4923   */\n      dup6\n        /* \"#utility.yul\":4913:4917   */\n      0x20\n        /* \"#utility.yul\":4906:4911   */\n      dup7\n        /* \"#utility.yul\":4902:4918   */\n      add\n        /* \"#utility.yul\":4867:4932   */\n      tag_273\n      jump\t// in\n    tag_403:\n        /* \"#utility.yul\":4957:4986   */\n      tag_404\n        /* \"#utility.yul\":4979:4985   */\n      dup2\n        /* \"#utility.yul\":4957:4986   */\n      tag_274\n      jump\t// in\n    tag_404:\n        /* \"#utility.yul\":4952:4955   */\n      dup5\n        /* \"#utility.yul\":4948:4987   */\n      add\n        /* \"#utility.yul\":4941:4987   */\n      swap2\n      pop\n        /* \"#utility.yul\":4718:4993   */\n      pop\n        /* \"#utility.yul\":4636:4993   */\n      swap3\n      swap2\n      pop\n      pop\n      jump\t// out\n        /* \"#utility.yul\":4999:5195   */\n    tag_276:\n        /* \"#utility.yul\":5088:5098   */\n      0x00\n        /* \"#utility.yul\":5123:5189   */\n      tag_406\n        /* \"#utility.yul\":5185:5188   */\n      dup4\n        /* \"#utility.yul\":5177:5183   */\n      dup4\n        /* \"#utility.yul\":5123:5189   */\n      tag_275\n      jump\t// in\n    tag_406:\n        /* \"#utility.yul\":5109:5189   */\n      swap1\n      pop\n        /* \"#utility.yul\":4999:5195   */\n      swap3\n      swap2\n      pop\n      pop\n      jump\t// out\n        /* \"#utility.yul\":5201:5324   */\n    tag_277:\n        /* \"#utility.yul\":5281:5285   */\n      0x00\n        /* \"#utility.yul\":5313:5317   */\n      0x20\n        /* \"#utility.yul\":5308:5311   */\n      dup3\n        /* \"#utility.yul\":5304:5318   */\n      add\n        /* \"#utility.yul\":5296:5318   */\n      swap1\n      pop\n        /* \"#utility.yul\":5201:5324   */\n      swap2\n      swap1\n      pop\n      jump\t// out\n        /* \"#utility.yul\":5358:6349   */\n    tag_278:\n        /* \"#utility.yul\":5497:5500   */\n      0x00\n        /* \"#utility.yul\":5526:5590   */\n      tag_409\n        /* \"#utility.yul\":5584:5589   */\n      dup3\n        /* \"#utility.yul\":5526:5590   */\n      tag_268\n      jump\t// in\n    tag_409:\n        /* \"#utility.yul\":5606:5702   */\n      tag_410\n        /* \"#utility.yul\":5695:5701   */\n      dup2\n        /* \"#utility.yul\":5690:5693   */\n      dup6\n        /* \"#utility.yul\":5606:5702   */\n      tag_269\n      jump\t// in\n    tag_410:\n        /* \"#utility.yul\":5599:5702   */\n      swap4\n      pop\n        /* \"#utility.yul\":5728:5731   */\n      dup4\n        /* \"#utility.yul\":5773:5777   */\n      0x20\n        /* \"#utility.yul\":5765:5771   */\n      dup3\n        /* \"#utility.yul\":5761:5778   */\n      mul\n        /* \"#utility.yul\":5756:5759   */\n      dup6\n        /* \"#utility.yul\":5752:5779   */\n      add\n        /* \"#utility.yul\":5803:5869   */\n      tag_411\n        /* \"#utility.yul\":5863:5868   */\n      dup6\n        /* \"#utility.yul\":5803:5869   */\n      tag_270\n      jump\t// in\n    tag_411:\n        /* \"#utility.yul\":5892:5899   */\n      dup1\n        /* \"#utility.yul\":5923:5924   */\n      0x00\n        /* \"#utility.yul\":5908:6304   */\n    tag_412:\n        /* \"#utility.yul\":5933:5939   */\n      dup6\n        /* \"#utility.yul\":5930:5931   */\n      dup2\n        /* \"#utility.yul\":5927:5940   */\n      lt\n        /* \"#utility.yul\":5908:6304   */\n      iszero\n      tag_414\n      jumpi\n        /* \"#utility.yul\":6004:6013   */\n      dup5\n        /* \"#utility.yul\":5998:6002   */\n      dup5\n        /* \"#utility.yul\":5994:6014   */\n      sub\n        /* \"#utility.yul\":5989:5992   */\n      dup10\n        /* \"#utility.yul\":5982:6015   */\n      mstore\n        /* \"#utility.yul\":6055:6061   */\n      dup2\n        /* \"#utility.yul\":6049:6062   */\n      mload\n        /* \"#utility.yul\":6083:6167   */\n      tag_415\n        /* \"#utility.yul\":6162:6166   */\n      dup6\n        /* \"#utility.yul\":6147:6160   */\n      dup3\n        /* \"#utility.yul\":6083:6167   */\n      tag_276\n      jump\t// in\n    tag_415:\n        /* \"#utility.yul\":6075:6167   */\n      swap5\n      pop\n        /* \"#utility.yul\":6190:6260   */\n      tag_416\n        /* \"#utility.yul\":6253:6259   */\n      dup4\n        /* \"#utility.yul\":6190:6260   */\n      tag_277\n      jump\t// in\n    tag_416:\n        /* \"#utility.yul\":6180:6260   */\n      swap3\n      pop\n        /* \"#utility.yul\":6289:6293   */\n      0x20\n        /* \"#utility.yul\":6284:6287   */\n      dup11\n        /* \"#utility.yul\":6280:6294   */\n      add\n        /* \"#utility.yul\":6273:6294   */\n      swap10\n      pop\n        /* \"#utility.yul\":5968:6304   */\n      pop\n        /* \"#utility.yul\":5955:5956   */\n      0x01\n        /* \"#utility.yul\":5952:5953   */\n      dup2\n        /* \"#utility.yul\":5948:5957   */\n      add\n        /* \"#utility.yul\":5943:5957   */\n      swap1\n      pop\n        /* \"#utility.yul\":5908:6304   */\n      jump(tag_412)\n    tag_414:\n        /* \"#utility.yul\":5912:5926   */\n      pop\n        /* \"#utility.yul\":6320:6324   */\n      dup3\n        /* \"#utility.yul\":6313:6324   */\n      swap8\n      pop\n        /* \"#utility.yul\":6340:6343   */\n      dup8\n        /* \"#utility.yul\":6333:6343   */\n      swap6\n      pop\n        /* \"#utility.yul\":5502:6349   */\n      pop\n      pop\n      pop\n      pop\n      pop\n        /* \"#utility.yul\":5358:6349   */\n      swap3\n      swap2\n      pop\n      pop\n      jump\t// out\n        /* \"#utility.yul\":6355:7029   */\n    tag_21:\n        /* \"#utility.yul\":6596:6600   */\n      0x00\n        /* \"#utility.yul\":6634:6636   */\n      0x40\n        /* \"#utility.yul\":6623:6632   */\n      dup3\n        /* \"#utility.yul\":6619:6637   */\n      add\n        /* \"#utility.yul\":6611:6637   */\n      swap1\n      pop\n        /* \"#utility.yul\":6683:6692   */\n      dup2\n        /* \"#utility.yul\":6677:6681   */\n      dup2\n        /* \"#utility.yul\":6673:6693   */\n      sub\n        /* \"#utility.yul\":6669:6670   */\n      0x00\n        /* \"#utility.yul\":6658:6667   */\n      dup4\n        /* \"#utility.yul\":6654:6671   */\n      add\n        /* \"#utility.yul\":6647:6694   */\n      mstore\n        /* \"#utility.yul\":6711:6819   */\n      tag_418\n        /* \"#utility.yul\":6814:6818   */\n      dup2\n        /* \"#utility.yul\":6805:6811   */\n      dup6\n        /* \"#utility.yul\":6711:6819   */\n      tag_267\n      jump\t// in\n    tag_418:\n        /* \"#utility.yul\":6703:6819   */\n      swap1\n      pop\n        /* \"#utility.yul\":6866:6875   */\n      dup2\n        /* \"#utility.yul\":6860:6864   */\n      dup2\n        /* \"#utility.yul\":6856:6876   */\n      sub\n        /* \"#utility.yul\":6851:6853   */\n      0x20\n        /* \"#utility.yul\":6840:6849   */\n      dup4\n        /* \"#utility.yul\":6836:6854   */\n      add\n        /* \"#utility.yul\":6829:6877   */\n      mstore\n        /* \"#utility.yul\":6894:7022   */\n      tag_419\n        /* \"#utility.yul\":7017:7021   */\n      dup2\n        /* \"#utility.yul\":7008:7014   */\n      dup5\n        /* \"#utility.yul\":6894:7022   */\n      tag_278\n      jump\t// in\n    tag_419:\n        /* \"#utility.yul\":6886:7022   */\n      swap1\n      pop\n        /* \"#utility.yul\":6355:7029   */\n      swap4\n      swap3\n      pop\n      pop\n      pop\n      jump\t// out\n        /* \"#utility.yul\":7035:7669   */\n    tag_25:\n        /* \"#utility.yul\":7256:7260   */\n      0x00\n        /* \"#utility.yul\":7294:7296   */\n      0x40\n        /* \"#utility.yul\":7283:7292   */\n      dup3\n        /* \"#utility.yul\":7279:7297   */\n      add\n        /* \"#utility.yul\":7271:7297   */\n      swap1\n      pop\n        /* \"#utility.yul\":7343:7352   */\n      dup2\n        /* \"#utility.yul\":7337:7341   */\n      dup2\n        /* \"#utility.yul\":7333:7353   */\n      sub\n        /* \"#utility.yul\":7329:7330   */\n      0x00\n        /* \"#utility.yul\":7318:7327   */\n      dup4\n        /* \"#utility.yul\":7314:7331   */\n      add\n        /* \"#utility.yul\":7307:7354   */\n      mstore\n        /* \"#utility.yul\":7371:7479   */\n      tag_421\n        /* \"#utility.yul\":7474:7478   */\n      dup2\n        /* \"#utility.yul\":7465:7471   */\n      dup6\n        /* \"#utility.yul\":7371:7479   */\n      tag_267\n      jump\t// in\n    tag_421:\n        /* \"#utility.yul\":7363:7479   */\n      swap1\n      pop\n        /* \"#utility.yul\":7526:7535   */\n      dup2\n        /* \"#utility.yul\":7520:7524   */\n      dup2\n        /* \"#utility.yul\":7516:7536   */\n      sub\n        /* \"#utility.yul\":7511:7513   */\n      0x20\n        /* \"#utility.yul\":7500:7509   */\n      dup4\n        /* \"#utility.yul\":7496:7514   */\n      add\n        /* \"#utility.yul\":7489:7537   */\n      mstore\n        /* \"#utility.yul\":7554:7662   */\n      tag_422\n        /* \"#utility.yul\":7657:7661   */\n      dup2\n        /* \"#utility.yul\":7648:7654   */\n      dup5\n        /* \"#utility.yul\":7554:7662   */\n      tag_267\n      jump\t// in\n    tag_422:\n        /* \"#utility.yul\":7546:7662   */\n      swap1\n      pop\n        /* \"#utility.yul\":7035:7669   */\n      swap4\n      swap3\n      pop\n      pop\n      pop\n      jump\t// out\n        /* \"#utility.yul\":7675:7793   */\n    tag_279:\n        /* \"#utility.yul\":7762:7786   */\n      tag_424\n        /* \"#utility.yul\":7780:7785   */\n      dup2\n        /* \"#utility.yul\":7762:7786   */\n      tag_255\n      jump\t// in\n    tag_424:\n        /* \"#utility.yul\":7757:7760   */\n      dup3\n        /* \"#utility.yul\":7750:7787   */\n      mstore\n        /* \"#utility.yul\":7675:7793   */\n      pop\n      pop\n      jump\t// out\n        /* \"#utility.yul\":7799:7968   */\n    tag_280:\n        /* \"#utility.yul\":7883:7894   */\n      0x00\n        /* \"#utility.yul\":7917:7923   */\n      dup3\n        /* \"#utility.yul\":7912:7915   */\n      dup3\n        /* \"#utility.yul\":7905:7924   */\n      mstore\n        /* \"#utility.yul\":7957:7961   */\n      0x20\n        /* \"#utility.yul\":7952:7955   */\n      dup3\n        /* \"#utility.yul\":7948:7962   */\n      add\n        /* \"#utility.yul\":7933:7962   */\n      swap1\n      pop\n        /* \"#utility.yul\":7799:7968   */\n      swap3\n      swap2\n      pop\n      pop\n      jump\t// out\n        /* \"#utility.yul\":7974:8351   */\n    tag_281:\n        /* \"#utility.yul\":8062:8065   */\n      0x00\n        /* \"#utility.yul\":8090:8129   */\n      tag_427\n        /* \"#utility.yul\":8123:8128   */\n      dup3\n        /* \"#utility.yul\":8090:8129   */\n      tag_271\n      jump\t// in\n    tag_427:\n        /* \"#utility.yul\":8145:8216   */\n      tag_428\n        /* \"#utility.yul\":8209:8215   */\n      dup2\n        /* \"#utility.yul\":8204:8207   */\n      dup6\n        /* \"#utility.yul\":8145:8216   */\n      tag_280\n      jump\t// in\n    tag_428:\n        /* \"#utility.yul\":8138:8216   */\n      swap4\n      pop\n        /* \"#utility.yul\":8225:8290   */\n      tag_429\n        /* \"#utility.yul\":8283:8289   */\n      dup2\n        /* \"#utility.yul\":8278:8281   */\n      dup6\n        /* \"#utility.yul\":8271:8275   */\n      0x20\n        /* \"#utility.yul\":8264:8269   */\n      dup7\n        /* \"#utility.yul\":8260:8276   */\n      add\n        /* \"#utility.yul\":8225:8290   */\n      tag_273\n      jump\t// in\n    tag_429:\n        /* \"#utility.yul\":8315:8344   */\n      tag_430\n        /* \"#utility.yul\":8337:8343   */\n      dup2\n        /* \"#utility.yul\":8315:8344   */\n      tag_274\n      jump\t// in\n    tag_430:\n        /* \"#utility.yul\":8310:8313   */\n      dup5\n        /* \"#utility.yul\":8306:8345   */\n      add\n        /* \"#utility.yul\":8299:8345   */\n      swap2\n      pop\n        /* \"#utility.yul\":8066:8351   */\n      pop\n        /* \"#utility.yul\":7974:8351   */\n      swap3\n      swap2\n      pop\n      pop\n      jump\t// out\n        /* \"#utility.yul\":8357:8466   */\n    tag_282:\n        /* \"#utility.yul\":8438:8459   */\n      tag_432\n        /* \"#utility.yul\":8453:8458   */\n      dup2\n        /* \"#utility.yul\":8438:8459   */\n      tag_258\n      jump\t// in\n    tag_432:\n        /* \"#utility.yul\":8433:8436   */\n      dup3\n        /* \"#utility.yul\":8426:8460   */\n      mstore\n        /* \"#utility.yul\":8357:8466   */\n      pop\n      pop\n      jump\t// out\n        /* \"#utility.yul\":8472:9730   */\n    tag_30:\n        /* \"#utility.yul\":8815:8819   */\n      0x00\n        /* \"#utility.yul\":8853:8856   */\n      0x0100\n        /* \"#utility.yul\":8842:8851   */\n      dup3\n        /* \"#utility.yul\":8838:8857   */\n      add\n        /* \"#utility.yul\":8830:8857   */\n      swap1\n      pop\n        /* \"#utility.yul\":8867:8938   */\n      tag_434\n        /* \"#utility.yul\":8935:8936   */\n      0x00\n        /* \"#utility.yul\":8924:8933   */\n      dup4\n        /* \"#utility.yul\":8920:8937   */\n      add\n        /* \"#utility.yul\":8911:8917   */\n      dup12\n        /* \"#utility.yul\":8867:8938   */\n      tag_279\n      jump\t// in\n    tag_434:\n        /* \"#utility.yul\":8985:8994   */\n      dup2\n        /* \"#utility.yul\":8979:8983   */\n      dup2\n        /* \"#utility.yul\":8975:8995   */\n      sub\n        /* \"#utility.yul\":8970:8972   */\n      0x20\n        /* \"#utility.yul\":8959:8968   */\n      dup4\n        /* \"#utility.yul\":8955:8973   */\n      add\n        /* \"#utility.yul\":8948:8996   */\n      mstore\n        /* \"#utility.yul\":9013:9091   */\n      tag_435\n        /* \"#utility.yul\":9086:9090   */\n      dup2\n        /* \"#utility.yul\":9077:9083   */\n      dup11\n        /* \"#utility.yul\":9013:9091   */\n      tag_281\n      jump\t// in\n    tag_435:\n        /* \"#utility.yul\":9005:9091   */\n      swap1\n      pop\n        /* \"#utility.yul\":9101:9173   */\n      tag_436\n        /* \"#utility.yul\":9169:9171   */\n      0x40\n        /* \"#utility.yul\":9158:9167   */\n      dup4\n        /* \"#utility.yul\":9154:9172   */\n      add\n        /* \"#utility.yul\":9145:9151   */\n      dup10\n        /* \"#utility.yul\":9101:9173   */\n      tag_279\n      jump\t// in\n    tag_436:\n        /* \"#utility.yul\":9220:9229   */\n      dup2\n        /* \"#utility.yul\":9214:9218   */\n      dup2\n        /* \"#utility.yul\":9210:9230   */\n      sub\n        /* \"#utility.yul\":9205:9207   */\n      0x60\n        /* \"#utility.yul\":9194:9203   */\n      dup4\n        /* \"#utility.yul\":9190:9208   */\n      add\n        /* \"#utility.yul\":9183:9231   */\n      mstore\n        /* \"#utility.yul\":9248:9326   */\n      tag_437\n        /* \"#utility.yul\":9321:9325   */\n      dup2\n        /* \"#utility.yul\":9312:9318   */\n      dup9\n        /* \"#utility.yul\":9248:9326   */\n      tag_281\n      jump\t// in\n    tag_437:\n        /* \"#utility.yul\":9240:9326   */\n      swap1\n      pop\n        /* \"#utility.yul\":9374:9383   */\n      dup2\n        /* \"#utility.yul\":9368:9372   */\n      dup2\n        /* \"#utility.yul\":9364:9384   */\n      sub\n        /* \"#utility.yul\":9358:9361   */\n      0x80\n        /* \"#utility.yul\":9347:9356   */\n      dup4\n        /* \"#utility.yul\":9343:9362   */\n      add\n        /* \"#utility.yul\":9336:9385   */\n      mstore\n        /* \"#utility.yul\":9402:9480   */\n      tag_438\n        /* \"#utility.yul\":9475:9479   */\n      dup2\n        /* \"#utility.yul\":9466:9472   */\n      dup8\n        /* \"#utility.yul\":9402:9480   */\n      tag_281\n      jump\t// in\n    tag_438:\n        /* \"#utility.yul\":9394:9480   */\n      swap1\n      pop\n        /* \"#utility.yul\":9490:9563   */\n      tag_439\n        /* \"#utility.yul\":9558:9561   */\n      0xa0\n        /* \"#utility.yul\":9547:9556   */\n      dup4\n        /* \"#utility.yul\":9543:9562   */\n      add\n        /* \"#utility.yul\":9534:9540   */\n      dup7\n        /* \"#utility.yul\":9490:9563   */\n      tag_279\n      jump\t// in\n    tag_439:\n        /* \"#utility.yul\":9573:9640   */\n      tag_440\n        /* \"#utility.yul\":9635:9638   */\n      0xc0\n        /* \"#utility.yul\":9624:9633   */\n      dup4\n        /* \"#utility.yul\":9620:9639   */\n      add\n        /* \"#utility.yul\":9611:9617   */\n      dup6\n        /* \"#utility.yul\":9573:9640   */\n      tag_282\n      jump\t// in\n    tag_440:\n        /* \"#utility.yul\":9650:9723   */\n      tag_441\n        /* \"#utility.yul\":9718:9721   */\n      0xe0\n        /* \"#utility.yul\":9707:9716   */\n      dup4\n        /* \"#utility.yul\":9703:9722   */\n      add\n        /* \"#utility.yul\":9694:9700   */\n      dup5\n        /* \"#utility.yul\":9650:9723   */\n      tag_279\n      jump\t// in\n    tag_441:\n        /* \"#utility.yul\":8472:9730   */\n      swap10\n      swap9\n      pop\n      pop\n      pop\n      pop\n      pop\n      pop\n      pop\n      pop\n      pop\n      jump\t// out\n        /* \"#utility.yul\":9736:10355   */\n    tag_33:\n        /* \"#utility.yul\":9813:9819   */\n      0x00\n        /* \"#utility.yul\":9821:9827   */\n      0x00\n        /* \"#utility.yul\":9829:9835   */\n      0x00\n        /* \"#utility.yul\":9878:9880   */\n      0x60\n        /* \"#utility.yul\":9866:9875   */\n      dup5\n        /* \"#utility.yul\":9857:9864   */\n      dup7\n        /* \"#utility.yul\":9853:9876   */\n      sub\n        /* \"#utility.yul\":9849:9881   */\n      slt\n        /* \"#utility.yul\":9846:9965   */\n      iszero\n      tag_443\n      jumpi\n        /* \"#utility.yul\":9884:9963   */\n      tag_444\n      tag_253\n      jump\t// in\n    tag_444:\n        /* \"#utility.yul\":9846:9965   */\n    tag_443:\n        /* \"#utility.yul\":10004:10005   */\n      0x00\n        /* \"#utility.yul\":10029:10082   */\n      tag_445\n        /* \"#utility.yul\":10074:10081   */\n      dup7\n        /* \"#utility.yul\":10065:10071   */\n      dup3\n        /* \"#utility.yul\":10054:10063   */\n      dup8\n        /* \"#utility.yul\":10050:10072   */\n      add\n        /* \"#utility.yul\":10029:10082   */\n      tag_257\n      jump\t// in\n    tag_445:\n        /* \"#utility.yul\":10019:10082   */\n      swap4\n      pop\n        /* \"#utility.yul\":9975:10092   */\n      pop\n        /* \"#utility.yul\":10131:10133   */\n      0x20\n        /* \"#utility.yul\":10157:10210   */\n      tag_446\n        /* \"#utility.yul\":10202:10209   */\n      dup7\n        /* \"#utility.yul\":10193:10199   */\n      dup3\n        /* \"#utility.yul\":10182:10191   */\n      dup8\n        /* \"#utility.yul\":10178:10200   */\n      add\n        /* \"#utility.yul\":10157:10210   */\n      tag_257\n      jump\t// in\n    tag_446:\n        /* \"#utility.yul\":10147:10210   */\n      swap3\n      pop\n        /* \"#utility.yul\":10102:10220   */\n      pop\n        /* \"#utility.yul\":10259:10261   */\n      0x40\n        /* \"#utility.yul\":10285:10338   */\n      tag_447\n        /* \"#utility.yul\":10330:10337   */\n      dup7\n        /* \"#utility.yul\":10321:10327   */\n      dup3\n        /* \"#utility.yul\":10310:10319   */\n      dup8\n        /* \"#utility.yul\":10306:10328   */\n      add\n        /* \"#utility.yul\":10285:10338   */\n      tag_257\n      jump\t// in\n    tag_447:\n        /* \"#utility.yul\":10275:10338   */\n      swap2\n      pop\n        /* \"#utility.yul\":10230:10348   */\n      pop\n        /* \"#utility.yul\":9736:10355   */\n      swap3\n      pop\n      swap3\n      pop\n      swap3\n      jump\t// out\n        /* \"#utility.yul\":10361:10571   */\n    tag_36:\n        /* \"#utility.yul\":10448:10452   */\n      0x00\n        /* \"#utility.yul\":10486:10488   */\n      0x20\n        /* \"#utility.yul\":10475:10484   */\n      dup3\n        /* \"#utility.yul\":10471:10489   */\n      add\n        /* \"#utility.yul\":10463:10489   */\n      swap1\n      pop\n        /* \"#utility.yul\":10499:10564   */\n      tag_449\n        /* \"#utility.yul\":10561:10562   */\n      0x00\n        /* \"#utility.yul\":10550:10559   */\n      dup4\n        /* \"#utility.yul\":10546:10563   */\n      add\n        /* \"#utility.yul\":10537:10543   */\n      dup5\n        /* \"#utility.yul\":10499:10564   */\n      tag_282\n      jump\t// in\n    tag_449:\n        /* \"#utility.yul\":10361:10571   */\n      swap3\n      swap2\n      pop\n      pop\n      jump\t// out\n        /* \"#utility.yul\":10577:10694   */\n    tag_283:\n        /* \"#utility.yul\":10686:10687   */\n      0x00\n        /* \"#utility.yul\":10683:10684   */\n      0x00\n        /* \"#utility.yul\":10676:10688   */\n      revert\n        /* \"#utility.yul\":10700:10817   */\n    tag_284:\n        /* \"#utility.yul\":10809:10810   */\n      0x00\n        /* \"#utility.yul\":10806:10807   */\n      0x00\n        /* \"#utility.yul\":10799:10811   */\n      revert\n        /* \"#utility.yul\":10823:11003   */\n    tag_85:\n        /* \"#utility.yul\":10871:10948   */\n      0x4e487b7100000000000000000000000000000000000000000000000000000000\n        /* \"#utility.yul\":10868:10869   */\n      0x00\n        /* \"#utility.yul\":10861:10949   */\n      mstore\n        /* \"#utility.yul\":10968:10972   */\n      0x41\n        /* \"#utility.yul\":10965:10966   */\n      0x04\n        /* \"#utility.yul\":10958:10973   */\n      mstore\n        /* \"#utility.yul\":10992:10996   */\n      0x24\n        /* \"#utility.yul\":10989:10990   */\n      0x00\n        /* \"#utility.yul\":10982:10997   */\n      revert\n        /* \"#utility.yul\":11009:11290   */\n    tag_285:\n        /* \"#utility.yul\":11092:11119   */\n      tag_454\n        /* \"#utility.yul\":11114:11118   */\n      dup3\n        /* \"#utility.yul\":11092:11119   */\n      tag_274\n      jump\t// in\n    tag_454:\n        /* \"#utility.yul\":11084:11090   */\n      dup2\n        /* \"#utility.yul\":11080:11120   */\n      add\n        /* \"#utility.yul\":11222:11228   */\n      dup2\n        /* \"#utility.yul\":11210:11220   */\n      dup2\n        /* \"#utility.yul\":11207:11229   */\n      lt\n        /* \"#utility.yul\":11186:11204   */\n      0xffffffffffffffff\n        /* \"#utility.yul\":11174:11184   */\n      dup3\n        /* \"#utility.yul\":11171:11205   */\n      gt\n        /* \"#utility.yul\":11168:11230   */\n      or\n        /* \"#utility.yul\":11165:11253   */\n      iszero\n      tag_455\n      jumpi\n        /* \"#utility.yul\":11233:11251   */\n      tag_456\n      tag_85\n      jump\t// in\n    tag_456:\n        /* \"#utility.yul\":11165:11253   */\n    tag_455:\n        /* \"#utility.yul\":11273:11283   */\n      dup1\n        /* \"#utility.yul\":11269:11271   */\n      0x40\n        /* \"#utility.yul\":11262:11284   */\n      mstore\n        /* \"#utility.yul\":11052:11290   */\n      pop\n        /* \"#utility.yul\":11009:11290   */\n      pop\n      pop\n      jump\t// out\n        /* \"#utility.yul\":11296:11425   */\n    tag_286:\n        /* \"#utility.yul\":11330:11336   */\n      0x00\n        /* \"#utility.yul\":11357:11377   */\n      tag_458\n      tag_252\n      jump\t// in\n    tag_458:\n        /* \"#utility.yul\":11347:11377   */\n      swap1\n      pop\n        /* \"#utility.yul\":11386:11419   */\n      tag_459\n        /* \"#utility.yul\":11414:11418   */\n      dup3\n        /* \"#utility.yul\":11406:11412   */\n      dup3\n        /* \"#utility.yul\":11386:11419   */\n      tag_285\n      jump\t// in\n    tag_459:\n        /* \"#utility.yul\":11296:11425   */\n      swap2\n      swap1\n      pop\n      jump\t// out\n        /* \"#utility.yul\":11431:11739   */\n    tag_287:\n        /* \"#utility.yul\":11493:11497   */\n      0x00\n        /* \"#utility.yul\":11583:11601   */\n      0xffffffffffffffff\n        /* \"#utility.yul\":11575:11581   */\n      dup3\n        /* \"#utility.yul\":11572:11602   */\n      gt\n        /* \"#utility.yul\":11569:11625   */\n      iszero\n      tag_461\n      jumpi\n        /* \"#utility.yul\":11605:11623   */\n      tag_462\n      tag_85\n      jump\t// in\n    tag_462:\n        /* \"#utility.yul\":11569:11625   */\n    tag_461:\n        /* \"#utility.yul\":11643:11672   */\n      tag_463\n        /* \"#utility.yul\":11665:11671   */\n      dup3\n        /* \"#utility.yul\":11643:11672   */\n      tag_274\n      jump\t// in\n    tag_463:\n        /* \"#utility.yul\":11635:11672   */\n      swap1\n      pop\n        /* \"#utility.yul\":11727:11731   */\n      0x20\n        /* \"#utility.yul\":11721:11725   */\n      dup2\n        /* \"#utility.yul\":11717:11732   */\n      add\n        /* \"#utility.yul\":11709:11732   */\n      swap1\n      pop\n        /* \"#utility.yul\":11431:11739   */\n      swap2\n      swap1\n      pop\n      jump\t// out\n        /* \"#utility.yul\":11745:11893   */\n    tag_288:\n        /* \"#utility.yul\":11843:11849   */\n      dup3\n        /* \"#utility.yul\":11838:11841   */\n      dup2\n        /* \"#utility.yul\":11833:11836   */\n      dup4\n        /* \"#utility.yul\":11820:11850   */\n      calldatacopy\n        /* \"#utility.yul\":11884:11885   */\n      0x00\n        /* \"#utility.yul\":11875:11881   */\n      dup4\n        /* \"#utility.yul\":11870:11873   */\n      dup4\n        /* \"#utility.yul\":11866:11882   */\n      add\n        /* \"#utility.yul\":11859:11886   */\n      mstore\n        /* \"#utility.yul\":11745:11893   */\n      pop\n      pop\n      pop\n      jump\t// out\n        /* \"#utility.yul\":11899:12324   */\n    tag_289:\n        /* \"#utility.yul\":11977:11982   */\n      0x00\n        /* \"#utility.yul\":12002:12068   */\n      tag_466\n        /* \"#utility.yul\":12018:12067   */\n      tag_467\n        /* \"#utility.yul\":12060:12066   */\n      dup5\n        /* \"#utility.yul\":12018:12067   */\n      tag_287\n      jump\t// in\n    tag_467:\n        /* \"#utility.yul\":12002:12068   */\n      tag_286\n      jump\t// in\n    tag_466:\n        /* \"#utility.yul\":11993:12068   */\n      swap1\n      pop\n        /* \"#utility.yul\":12091:12097   */\n      dup3\n        /* \"#utility.yul\":12084:12089   */\n      dup2\n        /* \"#utility.yul\":12077:12098   */\n      mstore\n        /* \"#utility.yul\":12129:12133   */\n      0x20\n        /* \"#utility.yul\":12122:12127   */\n      dup2\n        /* \"#utility.yul\":12118:12134   */\n      add\n        /* \"#utility.yul\":12167:12170   */\n      dup5\n        /* \"#utility.yul\":12158:12164   */\n      dup5\n        /* \"#utility.yul\":12153:12156   */\n      dup5\n        /* \"#utility.yul\":12149:12165   */\n      add\n        /* \"#utility.yul\":12146:12171   */\n      gt\n        /* \"#utility.yul\":12143:12255   */\n      iszero\n      tag_468\n      jumpi\n        /* \"#utility.yul\":12174:12253   */\n      tag_469\n      tag_284\n      jump\t// in\n    tag_469:\n        /* \"#utility.yul\":12143:12255   */\n    tag_468:\n        /* \"#utility.yul\":12264:12318   */\n      tag_470\n        /* \"#utility.yul\":12311:12317   */\n      dup5\n        /* \"#utility.yul\":12306:12309   */\n      dup3\n        /* \"#utility.yul\":12301:12304   */\n      dup6\n        /* \"#utility.yul\":12264:12318   */\n      tag_288\n      jump\t// in\n    tag_470:\n        /* \"#utility.yul\":11983:12324   */\n      pop\n        /* \"#utility.yul\":11899:12324   */\n      swap4\n      swap3\n      pop\n      pop\n      pop\n      jump\t// out\n        /* \"#utility.yul\":12344:12684   */\n    tag_290:\n        /* \"#utility.yul\":12400:12405   */\n      0x00\n        /* \"#utility.yul\":12449:12452   */\n      dup3\n        /* \"#utility.yul\":12442:12446   */\n      0x1f\n        /* \"#utility.yul\":12434:12440   */\n      dup4\n        /* \"#utility.yul\":12430:12447   */\n      add\n        /* \"#utility.yul\":12426:12453   */\n      slt\n        /* \"#utility.yul\":12416:12538   */\n      tag_472\n      jumpi\n        /* \"#utility.yul\":12457:12536   */\n      tag_473\n      tag_283\n      jump\t// in\n    tag_473:\n        /* \"#utility.yul\":12416:12538   */\n    tag_472:\n        /* \"#utility.yul\":12574:12580   */\n      dup2\n        /* \"#utility.yul\":12561:12581   */\n      calldataload\n        /* \"#utility.yul\":12599:12678   */\n      tag_474\n        /* \"#utility.yul\":12674:12677   */\n      dup5\n        /* \"#utility.yul\":12666:12672   */\n      dup3\n        /* \"#utility.yul\":12659:12663   */\n      0x20\n        /* \"#utility.yul\":12651:12657   */\n      dup7\n        /* \"#utility.yul\":12647:12664   */\n      add\n        /* \"#utility.yul\":12599:12678   */\n      tag_289\n      jump\t// in\n    tag_474:\n        /* \"#utility.yul\":12590:12678   */\n      swap2\n      pop\n        /* \"#utility.yul\":12406:12684   */\n      pop\n        /* \"#utility.yul\":12344:12684   */\n      swap3\n      swap2\n      pop\n      pop\n      jump\t// out\n        /* \"#utility.yul\":12690:13815   */\n    tag_39:\n        /* \"#utility.yul\":12796:12802   */\n      0x00\n        /* \"#utility.yul\":12804:12810   */\n      0x00\n        /* \"#utility.yul\":12812:12818   */\n      0x00\n        /* \"#utility.yul\":12820:12826   */\n      0x00\n        /* \"#utility.yul\":12869:12872   */\n      0x80\n        /* \"#utility.yul\":12857:12866   */\n      dup6\n        /* \"#utility.yul\":12848:12855   */\n      dup8\n        /* \"#utility.yul\":12844:12867   */\n      sub\n        /* \"#utility.yul\":12840:12873   */\n      slt\n        /* \"#utility.yul\":12837:12957   */\n      iszero\n      tag_476\n      jumpi\n        /* \"#utility.yul\":12876:12955   */\n      tag_477\n      tag_253\n      jump\t// in\n    tag_477:\n        /* \"#utility.yul\":12837:12957   */\n    tag_476:\n        /* \"#utility.yul\":12996:12997   */\n      0x00\n        /* \"#utility.yul\":13021:13074   */\n      tag_478\n        /* \"#utility.yul\":13066:13073   */\n      dup8\n        /* \"#utility.yul\":13057:13063   */\n      dup3\n        /* \"#utility.yul\":13046:13055   */\n      dup9\n        /* \"#utility.yul\":13042:13064   */\n      add\n        /* \"#utility.yul\":13021:13074   */\n      tag_257\n      jump\t// in\n    tag_478:\n        /* \"#utility.yul\":13011:13074   */\n      swap5\n      pop\n        /* \"#utility.yul\":12967:13084   */\n      pop\n        /* \"#utility.yul\":13151:13153   */\n      0x20\n        /* \"#utility.yul\":13140:13149   */\n      dup6\n        /* \"#utility.yul\":13136:13154   */\n      add\n        /* \"#utility.yul\":13123:13155   */\n      calldataload\n        /* \"#utility.yul\":13182:13200   */\n      0xffffffffffffffff\n        /* \"#utility.yul\":13174:13180   */\n      dup2\n        /* \"#utility.yul\":13171:13201   */\n      gt\n        /* \"#utility.yul\":13168:13285   */\n      iszero\n      tag_479\n      jumpi\n        /* \"#utility.yul\":13204:13283   */\n      tag_480\n      tag_254\n      jump\t// in\n    tag_480:\n        /* \"#utility.yul\":13168:13285   */\n    tag_479:\n        /* \"#utility.yul\":13309:13372   */\n      tag_481\n        /* \"#utility.yul\":13364:13371   */\n      dup8\n        /* \"#utility.yul\":13355:13361   */\n      dup3\n        /* \"#utility.yul\":13344:13353   */\n      dup9\n        /* \"#utility.yul\":13340:13362   */\n      add\n        /* \"#utility.yul\":13309:13372   */\n      tag_290\n      jump\t// in\n    tag_481:\n        /* \"#utility.yul\":13299:13372   */\n      swap4\n      pop\n        /* \"#utility.yul\":13094:13382   */\n      pop\n        /* \"#utility.yul\":13421:13423   */\n      0x40\n        /* \"#utility.yul\":13447:13500   */\n      tag_482\n        /* \"#utility.yul\":13492:13499   */\n      dup8\n        /* \"#utility.yul\":13483:13489   */\n      dup3\n        /* \"#utility.yul\":13472:13481   */\n      dup9\n        /* \"#utility.yul\":13468:13490   */\n      add\n        /* \"#utility.yul\":13447:13500   */\n      tag_257\n      jump\t// in\n    tag_482:\n        /* \"#utility.yul\":13437:13500   */\n      swap3\n      pop\n        /* \"#utility.yul\":13392:13510   */\n      pop\n        /* \"#utility.yul\":13577:13579   */\n      0x60\n        /* \"#utility.yul\":13566:13575   */\n      dup6\n        /* \"#utility.yul\":13562:13580   */\n      add\n        /* \"#utility.yul\":13549:13581   */\n      calldataload\n        /* \"#utility.yul\":13608:13626   */\n      0xffffffffffffffff\n        /* \"#utility.yul\":13600:13606   */\n      dup2\n        /* \"#utility.yul\":13597:13627   */\n      gt\n        /* \"#utility.yul\":13594:13711   */\n      iszero\n      tag_483\n      jumpi\n        /* \"#utility.yul\":13630:13709   */\n      tag_484\n      tag_254\n      jump\t// in\n    tag_484:\n        /* \"#utility.yul\":13594:13711   */\n    tag_483:\n        /* \"#utility.yul\":13735:13798   */\n      tag_485\n        /* \"#utility.yul\":13790:13797   */\n      dup8\n        /* \"#utility.yul\":13781:13787   */\n      dup3\n        /* \"#utility.yul\":13770:13779   */\n      dup9\n        /* \"#utility.yul\":13766:13788   */\n      add\n        /* \"#utility.yul\":13735:13798   */\n      tag_290\n      jump\t// in\n    tag_485:\n        /* \"#utility.yul\":13725:13798   */\n      swap2\n      pop\n        /* \"#utility.yul\":13520:13808   */\n      pop\n        /* \"#utility.yul\":12690:13815   */\n      swap3\n      swap6\n      swap2\n      swap5\n      pop\n      swap3\n      pop\n      jump\t// out\n        /* \"#utility.yul\":13821:14043   */\n    tag_42:\n        /* \"#utility.yul\":13914:13918   */\n      0x00\n        /* \"#utility.yul\":13952:13954   */\n      0x20\n        /* \"#utility.yul\":13941:13950   */\n      dup3\n        /* \"#utility.yul\":13937:13955   */\n      add\n        /* \"#utility.yul\":13929:13955   */\n      swap1\n      pop\n        /* \"#utility.yul\":13965:14036   */\n      tag_487\n        /* \"#utility.yul\":14033:14034   */\n      0x00\n        /* \"#utility.yul\":14022:14031   */\n      dup4\n        /* \"#utility.yul\":14018:14035   */\n      add\n        /* \"#utility.yul\":14009:14015   */\n      dup5\n        /* \"#utility.yul\":13965:14036   */\n      tag_279\n      jump\t// in\n    tag_487:\n        /* \"#utility.yul\":13821:14043   */\n      swap3\n      swap2\n      pop\n      pop\n      jump\t// out\n        /* \"#utility.yul\":14049:14848   */\n    tag_45:\n        /* \"#utility.yul\":14136:14142   */\n      0x00\n        /* \"#utility.yul\":14144:14150   */\n      0x00\n        /* \"#utility.yul\":14152:14158   */\n      0x00\n        /* \"#utility.yul\":14201:14203   */\n      0x60\n        /* \"#utility.yul\":14189:14198   */\n      dup5\n        /* \"#utility.yul\":14180:14187   */\n      dup7\n        /* \"#utility.yul\":14176:14199   */\n      sub\n        /* \"#utility.yul\":14172:14204   */\n      slt\n        /* \"#utility.yul\":14169:14288   */\n      iszero\n      tag_489\n      jumpi\n        /* \"#utility.yul\":14207:14286   */\n      tag_490\n      tag_253\n      jump\t// in\n    tag_490:\n        /* \"#utility.yul\":14169:14288   */\n    tag_489:\n        /* \"#utility.yul\":14327:14328   */\n      0x00\n        /* \"#utility.yul\":14352:14405   */\n      tag_491\n        /* \"#utility.yul\":14397:14404   */\n      dup7\n        /* \"#utility.yul\":14388:14394   */\n      dup3\n        /* \"#utility.yul\":14377:14386   */\n      dup8\n        /* \"#utility.yul\":14373:14395   */\n      add\n        /* \"#utility.yul\":14352:14405   */\n      tag_257\n      jump\t// in\n    tag_491:\n        /* \"#utility.yul\":14342:14405   */\n      swap4\n      pop\n        /* \"#utility.yul\":14298:14415   */\n      pop\n        /* \"#utility.yul\":14482:14484   */\n      0x20\n        /* \"#utility.yul\":14471:14480   */\n      dup5\n        /* \"#utility.yul\":14467:14485   */\n      add\n        /* \"#utility.yul\":14454:14486   */\n      calldataload\n        /* \"#utility.yul\":14513:14531   */\n      0xffffffffffffffff\n        /* \"#utility.yul\":14505:14511   */\n      dup2\n        /* \"#utility.yul\":14502:14532   */\n      gt\n        /* \"#utility.yul\":14499:14616   */\n      iszero\n      tag_492\n      jumpi\n        /* \"#utility.yul\":14535:14614   */\n      tag_493\n      tag_254\n      jump\t// in\n    tag_493:\n        /* \"#utility.yul\":14499:14616   */\n    tag_492:\n        /* \"#utility.yul\":14640:14703   */\n      tag_494\n        /* \"#utility.yul\":14695:14702   */\n      dup7\n        /* \"#utility.yul\":14686:14692   */\n      dup3\n        /* \"#utility.yul\":14675:14684   */\n      dup8\n        /* \"#utility.yul\":14671:14693   */\n      add\n        /* \"#utility.yul\":14640:14703   */\n      tag_290\n      jump\t// in\n    tag_494:\n        /* \"#utility.yul\":14630:14703   */\n      swap3\n      pop\n        /* \"#utility.yul\":14425:14713   */\n      pop\n        /* \"#utility.yul\":14752:14754   */\n      0x40\n        /* \"#utility.yul\":14778:14831   */\n      tag_495\n        /* \"#utility.yul\":14823:14830   */\n      dup7\n        /* \"#utility.yul\":14814:14820   */\n      dup3\n        /* \"#utility.yul\":14803:14812   */\n      dup8\n        /* \"#utility.yul\":14799:14821   */\n      add\n        /* \"#utility.yul\":14778:14831   */\n      tag_257\n      jump\t// in\n    tag_495:\n        /* \"#utility.yul\":14768:14831   */\n      swap2\n      pop\n        /* \"#utility.yul\":14723:14841   */\n      pop\n        /* \"#utility.yul\":14049:14848   */\n      swap3\n      pop\n      swap3\n      pop\n      swap3\n      jump\t// out\n        /* \"#utility.yul\":14854:16591   */\n    tag_50:\n        /* \"#utility.yul\":14994:15000   */\n      0x00\n        /* \"#utility.yul\":15002:15008   */\n      0x00\n        /* \"#utility.yul\":15010:15016   */\n      0x00\n        /* \"#utility.yul\":15018:15024   */\n      0x00\n        /* \"#utility.yul\":15026:15032   */\n      0x00\n        /* \"#utility.yul\":15034:15040   */\n      0x00\n        /* \"#utility.yul\":15042:15048   */\n      0x00\n        /* \"#utility.yul\":15091:15094   */\n      0xe0\n        /* \"#utility.yul\":15079:15088   */\n      dup9\n        /* \"#utility.yul\":15070:15077   */\n      dup11\n        /* \"#utility.yul\":15066:15089   */\n      sub\n        /* \"#utility.yul\":15062:15095   */\n      slt\n        /* \"#utility.yul\":15059:15179   */\n      iszero\n      tag_497\n      jumpi\n        /* \"#utility.yul\":15098:15177   */\n      tag_498\n      tag_253\n      jump\t// in\n    tag_498:\n        /* \"#utility.yul\":15059:15179   */\n    tag_497:\n        /* \"#utility.yul\":15218:15219   */\n      0x00\n        /* \"#utility.yul\":15243:15296   */\n      tag_499\n        /* \"#utility.yul\":15288:15295   */\n      dup11\n        /* \"#utility.yul\":15279:15285   */\n      dup3\n        /* \"#utility.yul\":15268:15277   */\n      dup12\n        /* \"#utility.yul\":15264:15286   */\n      add\n        /* \"#utility.yul\":15243:15296   */\n      tag_257\n      jump\t// in\n    tag_499:\n        /* \"#utility.yul\":15233:15296   */\n      swap8\n      pop\n        /* \"#utility.yul\":15189:15306   */\n      pop\n        /* \"#utility.yul\":15373:15375   */\n      0x20\n        /* \"#utility.yul\":15362:15371   */\n      dup9\n        /* \"#utility.yul\":15358:15376   */\n      add\n        /* \"#utility.yul\":15345:15377   */\n      calldataload\n        /* \"#utility.yul\":15404:15422   */\n      0xffffffffffffffff\n        /* \"#utility.yul\":15396:15402   */\n      dup2\n        /* \"#utility.yul\":15393:15423   */\n      gt\n        /* \"#utility.yul\":15390:15507   */\n      iszero\n      tag_500\n      jumpi\n        /* \"#utility.yul\":15426:15505   */\n      tag_501\n      tag_254\n      jump\t// in\n    tag_501:\n        /* \"#utility.yul\":15390:15507   */\n    tag_500:\n        /* \"#utility.yul\":15531:15594   */\n      tag_502\n        /* \"#utility.yul\":15586:15593   */\n      dup11\n        /* \"#utility.yul\":15577:15583   */\n      dup3\n        /* \"#utility.yul\":15566:15575   */\n      dup12\n        /* \"#utility.yul\":15562:15584   */\n      add\n        /* \"#utility.yul\":15531:15594   */\n      tag_290\n      jump\t// in\n    tag_502:\n        /* \"#utility.yul\":15521:15594   */\n      swap7\n      pop\n        /* \"#utility.yul\":15316:15604   */\n      pop\n        /* \"#utility.yul\":15643:15645   */\n      0x40\n        /* \"#utility.yul\":15669:15722   */\n      tag_503\n        /* \"#utility.yul\":15714:15721   */\n      dup11\n        /* \"#utility.yul\":15705:15711   */\n      dup3\n        /* \"#utility.yul\":15694:15703   */\n      dup12\n        /* \"#utility.yul\":15690:15712   */\n      add\n        /* \"#utility.yul\":15669:15722   */\n      tag_257\n      jump\t// in\n    tag_503:\n        /* \"#utility.yul\":15659:15722   */\n      swap6\n      pop\n        /* \"#utility.yul\":15614:15732   */\n      pop\n        /* \"#utility.yul\":15799:15801   */\n      0x60\n        /* \"#utility.yul\":15788:15797   */\n      dup9\n        /* \"#utility.yul\":15784:15802   */\n      add\n        /* \"#utility.yul\":15771:15803   */\n      calldataload\n        /* \"#utility.yul\":15830:15848   */\n      0xffffffffffffffff\n        /* \"#utility.yul\":15822:15828   */\n      dup2\n        /* \"#utility.yul\":15819:15849   */\n      gt\n        /* \"#utility.yul\":15816:15933   */\n      iszero\n      tag_504\n      jumpi\n        /* \"#utility.yul\":15852:15931   */\n      tag_505\n      tag_254\n      jump\t// in\n    tag_505:\n        /* \"#utility.yul\":15816:15933   */\n    tag_504:\n        /* \"#utility.yul\":15957:16020   */\n      tag_506\n        /* \"#utility.yul\":16012:16019   */\n      dup11\n        /* \"#utility.yul\":16003:16009   */\n      dup3\n        /* \"#utility.yul\":15992:16001   */\n      dup12\n        /* \"#utility.yul\":15988:16010   */\n      add\n        /* \"#utility.yul\":15957:16020   */\n      tag_290\n      jump\t// in\n    tag_506:\n        /* \"#utility.yul\":15947:16020   */\n      swap5\n      pop\n        /* \"#utility.yul\":15742:16030   */\n      pop\n        /* \"#utility.yul\":16097:16100   */\n      0x80\n        /* \"#utility.yul\":16086:16095   */\n      dup9\n        /* \"#utility.yul\":16082:16101   */\n      add\n        /* \"#utility.yul\":16069:16102   */\n      calldataload\n        /* \"#utility.yul\":16129:16147   */\n      0xffffffffffffffff\n        /* \"#utility.yul\":16121:16127   */\n      dup2\n        /* \"#utility.yul\":16118:16148   */\n      gt\n        /* \"#utility.yul\":16115:16232   */\n      iszero\n      tag_507\n      jumpi\n        /* \"#utility.yul\":16151:16230   */\n      tag_508\n      tag_254\n      jump\t// in\n    tag_508:\n        /* \"#utility.yul\":16115:16232   */\n    tag_507:\n        /* \"#utility.yul\":16256:16319   */\n      tag_509\n        /* \"#utility.yul\":16311:16318   */\n      dup11\n        /* \"#utility.yul\":16302:16308   */\n      dup3\n        /* \"#utility.yul\":16291:16300   */\n      dup12\n        /* \"#utility.yul\":16287:16309   */\n      add\n        /* \"#utility.yul\":16256:16319   */\n      tag_290\n      jump\t// in\n    tag_509:\n        /* \"#utility.yul\":16246:16319   */\n      swap4\n      pop\n        /* \"#utility.yul\":16040:16329   */\n      pop\n        /* \"#utility.yul\":16368:16371   */\n      0xa0\n        /* \"#utility.yul\":16395:16448   */\n      tag_510\n        /* \"#utility.yul\":16440:16447   */\n      dup11\n        /* \"#utility.yul\":16431:16437   */\n      dup3\n        /* \"#utility.yul\":16420:16429   */\n      dup12\n        /* \"#utility.yul\":16416:16438   */\n      add\n        /* \"#utility.yul\":16395:16448   */\n      tag_257\n      jump\t// in\n    tag_510:\n        /* \"#utility.yul\":16385:16448   */\n      swap3\n      pop\n        /* \"#utility.yul\":16339:16458   */\n      pop\n        /* \"#utility.yul\":16497:16500   */\n      0xc0\n        /* \"#utility.yul\":16524:16574   */\n      tag_511\n        /* \"#utility.yul\":16566:16573   */\n      dup11\n        /* \"#utility.yul\":16557:16563   */\n      dup3\n        /* \"#utility.yul\":16546:16555   */\n      dup12\n        /* \"#utility.yul\":16542:16564   */\n      add\n        /* \"#utility.yul\":16524:16574   */\n      tag_260\n      jump\t// in\n    tag_511:\n        /* \"#utility.yul\":16514:16574   */\n      swap2\n      pop\n        /* \"#utility.yul\":16468:16584   */\n      pop\n        /* \"#utility.yul\":14854:16591   */\n      swap3\n      swap6\n      swap9\n      swap2\n      swap5\n      swap8\n      pop\n      swap3\n      swap6\n      pop\n      jump\t// out\n        /* \"#utility.yul\":16597:16818   */\n    tag_291:\n        /* \"#utility.yul\":16737:16771   */\n      0x4f6e6c792061646d696e2063616e20706572666f726d20746869732061637469\n        /* \"#utility.yul\":16733:16734   */\n      0x00\n        /* \"#utility.yul\":16725:16731   */\n      dup3\n        /* \"#utility.yul\":16721:16735   */\n      add\n        /* \"#utility.yul\":16714:16772   */\n      mstore\n        /* \"#utility.yul\":16806:16810   */\n      0x6f6e000000000000000000000000000000000000000000000000000000000000\n        /* \"#utility.yul\":16801:16803   */\n      0x20\n        /* \"#utility.yul\":16793:16799   */\n      dup3\n        /* \"#utility.yul\":16789:16804   */\n      add\n        /* \"#utility.yul\":16782:16811   */\n      mstore\n        /* \"#utility.yul\":16597:16818   */\n      pop\n      jump\t// out\n        /* \"#utility.yul\":16824:17190   */\n    tag_292:\n        /* \"#utility.yul\":16966:16969   */\n      0x00\n        /* \"#utility.yul\":16987:17054   */\n      tag_514\n        /* \"#utility.yul\":17051:17053   */\n      0x22\n        /* \"#utility.yul\":17046:17049   */\n      dup4\n        /* \"#utility.yul\":16987:17054   */\n      tag_280\n      jump\t// in\n    tag_514:\n        /* \"#utility.yul\":16980:17054   */\n      swap2\n      pop\n        /* \"#utility.yul\":17063:17156   */\n      tag_515\n        /* \"#utility.yul\":17152:17155   */\n      dup3\n        /* \"#utility.yul\":17063:17156   */\n      tag_291\n      jump\t// in\n    tag_515:\n        /* \"#utility.yul\":17181:17183   */\n      0x40\n        /* \"#utility.yul\":17176:17179   */\n      dup3\n        /* \"#utility.yul\":17172:17184   */\n      add\n        /* \"#utility.yul\":17165:17184   */\n      swap1\n      pop\n        /* \"#utility.yul\":16824:17190   */\n      swap2\n      swap1\n      pop\n      jump\t// out\n        /* \"#utility.yul\":17196:17615   */\n    tag_56:\n        /* \"#utility.yul\":17362:17366   */\n      0x00\n        /* \"#utility.yul\":17400:17402   */\n      0x20\n        /* \"#utility.yul\":17389:17398   */\n      dup3\n        /* \"#utility.yul\":17385:17403   */\n      add\n        /* \"#utility.yul\":17377:17403   */\n      swap1\n      pop\n        /* \"#utility.yul\":17449:17458   */\n      dup2\n        /* \"#utility.yul\":17443:17447   */\n      dup2\n        /* \"#utility.yul\":17439:17459   */\n      sub\n        /* \"#utility.yul\":17435:17436   */\n      0x00\n        /* \"#utility.yul\":17424:17433   */\n      dup4\n        /* \"#utility.yul\":17420:17437   */\n      add\n        /* \"#utility.yul\":17413:17460   */\n      mstore\n        /* \"#utility.yul\":17477:17608   */\n      tag_517\n        /* \"#utility.yul\":17603:17607   */\n      dup2\n        /* \"#utility.yul\":17477:17608   */\n      tag_292\n      jump\t// in\n    tag_517:\n        /* \"#utility.yul\":17469:17608   */\n      swap1\n      pop\n        /* \"#utility.yul\":17196:17615   */\n      swap2\n      swap1\n      pop\n      jump\t// out\n        /* \"#utility.yul\":17621:17792   */\n    tag_293:\n        /* \"#utility.yul\":17761:17784   */\n      0x5061727469636970616e74206e6f7420666f756e640000000000000000000000\n        /* \"#utility.yul\":17757:17758   */\n      0x00\n        /* \"#utility.yul\":17749:17755   */\n      dup3\n        /* \"#utility.yul\":17745:17759   */\n      add\n        /* \"#utility.yul\":17738:17785   */\n      mstore\n        /* \"#utility.yul\":17621:17792   */\n      pop\n      jump\t// out\n        /* \"#utility.yul\":17798:18164   */\n    tag_294:\n        /* \"#utility.yul\":17940:17943   */\n      0x00\n        /* \"#utility.yul\":17961:18028   */\n      tag_520\n        /* \"#utility.yul\":18025:18027   */\n      0x15\n        /* \"#utility.yul\":18020:18023   */\n      dup4\n        /* \"#utility.yul\":17961:18028   */\n      tag_280\n      jump\t// in\n    tag_520:\n        /* \"#utility.yul\":17954:18028   */\n      swap2\n      pop\n        /* \"#utility.yul\":18037:18130   */\n      tag_521\n        /* \"#utility.yul\":18126:18129   */\n      dup3\n        /* \"#utility.yul\":18037:18130   */\n      tag_293\n      jump\t// in\n    tag_521:\n        /* \"#utility.yul\":18155:18157   */\n      0x20\n        /* \"#utility.yul\":18150:18153   */\n      dup3\n        /* \"#utility.yul\":18146:18158   */\n      add\n        /* \"#utility.yul\":18139:18158   */\n      swap1\n      pop\n        /* \"#utility.yul\":17798:18164   */\n      swap2\n      swap1\n      pop\n      jump\t// out\n        /* \"#utility.yul\":18170:18589   */\n    tag_60:\n        /* \"#utility.yul\":18336:18340   */\n      0x00\n        /* \"#utility.yul\":18374:18376   */\n      0x20\n        /* \"#utility.yul\":18363:18372   */\n      dup3\n        /* \"#utility.yul\":18359:18377   */\n      add\n        /* \"#utility.yul\":18351:18377   */\n      swap1\n      pop\n        /* \"#utility.yul\":18423:18432   */\n      dup2\n        /* \"#utility.yul\":18417:18421   */\n      dup2\n        /* \"#utility.yul\":18413:18433   */\n      sub\n        /* \"#utility.yul\":18409:18410   */\n      0x00\n        /* \"#utility.yul\":18398:18407   */\n      dup4\n        /* \"#utility.yul\":18394:18411   */\n      add\n        /* \"#utility.yul\":18387:18434   */\n      mstore\n        /* \"#utility.yul\":18451:18582   */\n      tag_523\n        /* \"#utility.yul\":18577:18581   */\n      dup2\n        /* \"#utility.yul\":18451:18582   */\n      tag_294\n      jump\t// in\n    tag_523:\n        /* \"#utility.yul\":18443:18582   */\n      swap1\n      pop\n        /* \"#utility.yul\":18170:18589   */\n      swap2\n      swap1\n      pop\n      jump\t// out\n        /* \"#utility.yul\":18595:18770   */\n    tag_295:\n        /* \"#utility.yul\":18735:18762   */\n      0x496e76616c696420747261696e696e6720696e74657265737400000000000000\n        /* \"#utility.yul\":18731:18732   */\n      0x00\n        /* \"#utility.yul\":18723:18729   */\n      dup3\n        /* \"#utility.yul\":18719:18733   */\n      add\n        /* \"#utility.yul\":18712:18763   */\n      mstore\n        /* \"#utility.yul\":18595:18770   */\n      pop\n      jump\t// out\n        /* \"#utility.yul\":18776:19142   */\n    tag_296:\n        /* \"#utility.yul\":18918:18921   */\n      0x00\n        /* \"#utility.yul\":18939:19006   */\n      tag_526\n        /* \"#utility.yul\":19003:19005   */\n      0x19\n        /* \"#utility.yul\":18998:19001   */\n      dup4\n        /* \"#utility.yul\":18939:19006   */\n      tag_280\n      jump\t// in\n    tag_526:\n        /* \"#utility.yul\":18932:19006   */\n      swap2\n      pop\n        /* \"#utility.yul\":19015:19108   */\n      tag_527\n        /* \"#utility.yul\":19104:19107   */\n      dup3\n        /* \"#utility.yul\":19015:19108   */\n      tag_295\n      jump\t// in\n    tag_527:\n        /* \"#utility.yul\":19133:19135   */\n      0x20\n        /* \"#utility.yul\":19128:19131   */\n      dup3\n        /* \"#utility.yul\":19124:19136   */\n      add\n        /* \"#utility.yul\":19117:19136   */\n      swap1\n      pop\n        /* \"#utility.yul\":18776:19142   */\n      swap2\n      swap1\n      pop\n      jump\t// out\n        /* \"#utility.yul\":19148:19567   */\n    tag_63:\n        /* \"#utility.yul\":19314:19318   */\n      0x00\n        /* \"#utility.yul\":19352:19354   */\n      0x20\n        /* \"#utility.yul\":19341:19350   */\n      dup3\n        /* \"#utility.yul\":19337:19355   */\n      add\n        /* \"#utility.yul\":19329:19355   */\n      swap1\n      pop\n        /* \"#utility.yul\":19401:19410   */\n      dup2\n        /* \"#utility.yul\":19395:19399   */\n      dup2\n        /* \"#utility.yul\":19391:19411   */\n      sub\n        /* \"#utility.yul\":19387:19388   */\n      0x00\n        /* \"#utility.yul\":19376:19385   */\n      dup4\n        /* \"#utility.yul\":19372:19389   */\n      add\n        /* \"#utility.yul\":19365:19412   */\n      mstore\n        /* \"#utility.yul\":19429:19560   */\n      tag_529\n        /* \"#utility.yul\":19555:19559   */\n      dup2\n        /* \"#utility.yul\":19429:19560   */\n      tag_296\n      jump\t// in\n    tag_529:\n        /* \"#utility.yul\":19421:19560   */\n      swap1\n      pop\n        /* \"#utility.yul\":19148:19567   */\n      swap2\n      swap1\n      pop\n      jump\t// out\n        /* \"#utility.yul\":19573:19802   */\n    tag_297:\n        /* \"#utility.yul\":19713:19747   */\n      0x43616e6e6f74206368616e676520636f6d706c657465642066726f6d20747275\n        /* \"#utility.yul\":19709:19710   */\n      0x00\n        /* \"#utility.yul\":19701:19707   */\n      dup3\n        /* \"#utility.yul\":19697:19711   */\n      add\n        /* \"#utility.yul\":19690:19748   */\n      mstore\n        /* \"#utility.yul\":19782:19794   */\n      0x6520746f2066616c736500000000000000000000000000000000000000000000\n        /* \"#utility.yul\":19777:19779   */\n      0x20\n        /* \"#utility.yul\":19769:19775   */\n      dup3\n        /* \"#utility.yul\":19765:19780   */\n      add\n        /* \"#utility.yul\":19758:19795   */\n      mstore\n        /* \"#utility.yul\":19573:19802   */\n      pop\n      jump\t// out\n        /* \"#utility.yul\":19808:20174   */\n    tag_298:\n        /* \"#utility.yul\":19950:19953   */\n      0x00\n        /* \"#utility.yul\":19971:20038   */\n      tag_532\n        /* \"#utility.yul\":20035:20037   */\n      0x2a\n        /* \"#utility.yul\":20030:20033   */\n      dup4\n        /* \"#utility.yul\":19971:20038   */\n      tag_280\n      jump\t// in\n    tag_532:\n        /* \"#utility.yul\":19964:20038   */\n      swap2\n      pop\n        /* \"#utility.yul\":20047:20140   */\n      tag_533\n        /* \"#utility.yul\":20136:20139   */\n      dup3\n        /* \"#utility.yul\":20047:20140   */\n      tag_297\n      jump\t// in\n    tag_533:\n        /* \"#utility.yul\":20165:20167   */\n      0x40\n        /* \"#utility.yul\":20160:20163   */\n      dup3\n        /* \"#utility.yul\":20156:20168   */\n      add\n        /* \"#utility.yul\":20149:20168   */\n      swap1\n      pop\n        /* \"#utility.yul\":19808:20174   */\n      swap2\n      swap1\n      pop\n      jump\t// out\n        /* \"#utility.yul\":20180:20599   */\n    tag_67:\n        /* \"#utility.yul\":20346:20350   */\n      0x00\n        /* \"#utility.yul\":20384:20386   */\n      0x20\n        /* \"#utility.yul\":20373:20382   */\n      dup3\n        /* \"#utility.yul\":20369:20387   */\n      add\n        /* \"#utility.yul\":20361:20387   */\n      swap1\n      pop\n        /* \"#utility.yul\":20433:20442   */\n      dup2\n        /* \"#utility.yul\":20427:20431   */\n      dup2\n        /* \"#utility.yul\":20423:20443   */\n      sub\n        /* \"#utility.yul\":20419:20420   */\n      0x00\n        /* \"#utility.yul\":20408:20417   */\n      dup4\n        /* \"#utility.yul\":20404:20421   */\n      add\n        /* \"#utility.yul\":20397:20444   */\n      mstore\n        /* \"#utility.yul\":20461:20592   */\n      tag_535\n        /* \"#utility.yul\":20587:20591   */\n      dup2\n        /* \"#utility.yul\":20461:20592   */\n      tag_298\n      jump\t// in\n    tag_535:\n        /* \"#utility.yul\":20453:20592   */\n      swap1\n      pop\n        /* \"#utility.yul\":20180:20599   */\n      swap2\n      swap1\n      pop\n      jump\t// out\n        /* \"#utility.yul\":20605:20785   */\n    tag_70:\n        /* \"#utility.yul\":20653:20730   */\n      0x4e487b7100000000000000000000000000000000000000000000000000000000\n        /* \"#utility.yul\":20650:20651   */\n      0x00\n        /* \"#utility.yul\":20643:20731   */\n      mstore\n        /* \"#utility.yul\":20750:20754   */\n      0x21\n        /* \"#utility.yul\":20747:20748   */\n      0x04\n        /* \"#utility.yul\":20740:20755   */\n      mstore\n        /* \"#utility.yul\":20774:20778   */\n      0x24\n        /* \"#utility.yul\":20771:20772   */\n      0x00\n        /* \"#utility.yul\":20764:20779   */\n      revert\n        /* \"#utility.yul\":20791:20958   */\n    tag_299:\n        /* \"#utility.yul\":20931:20950   */\n      0x547261696e6572206e6f7420666f756e64000000000000000000000000000000\n        /* \"#utility.yul\":20927:20928   */\n      0x00\n        /* \"#utility.yul\":20919:20925   */\n      dup3\n        /* \"#utility.yul\":20915:20929   */\n      add\n        /* \"#utility.yul\":20908:20951   */\n      mstore\n        /* \"#utility.yul\":20791:20958   */\n      pop\n      jump\t// out\n        /* \"#utility.yul\":20964:21330   */\n    tag_300:\n        /* \"#utility.yul\":21106:21109   */\n      0x00\n        /* \"#utility.yul\":21127:21194   */\n      tag_539\n        /* \"#utility.yul\":21191:21193   */\n      0x11\n        /* \"#utility.yul\":21186:21189   */\n      dup4\n        /* \"#utility.yul\":21127:21194   */\n      tag_280\n      jump\t// in\n    tag_539:\n        /* \"#utility.yul\":21120:21194   */\n      swap2\n      pop\n        /* \"#utility.yul\":21203:21296   */\n      tag_540\n        /* \"#utility.yul\":21292:21295   */\n      dup3\n        /* \"#utility.yul\":21203:21296   */\n      tag_299\n      jump\t// in\n    tag_540:\n        /* \"#utility.yul\":21321:21323   */\n      0x20\n        /* \"#utility.yul\":21316:21319   */\n      dup3\n        /* \"#utility.yul\":21312:21324   */\n      add\n        /* \"#utility.yul\":21305:21324   */\n      swap1\n      pop\n        /* \"#utility.yul\":20964:21330   */\n      swap2\n      swap1\n      pop\n      jump\t// out\n        /* \"#utility.yul\":21336:21755   */\n    tag_76:\n        /* \"#utility.yul\":21502:21506   */\n      0x00\n        /* \"#utility.yul\":21540:21542   */\n      0x20\n        /* \"#utility.yul\":21529:21538   */\n      dup3\n        /* \"#utility.yul\":21525:21543   */\n      add\n        /* \"#utility.yul\":21517:21543   */\n      swap1\n      pop\n        /* \"#utility.yul\":21589:21598   */\n      dup2\n        /* \"#utility.yul\":21583:21587   */\n      dup2\n        /* \"#utility.yul\":21579:21599   */\n      sub\n        /* \"#utility.yul\":21575:21576   */\n      0x00\n        /* \"#utility.yul\":21564:21573   */\n      dup4\n        /* \"#utility.yul\":21560:21577   */\n      add\n        /* \"#utility.yul\":21553:21600   */\n      mstore\n        /* \"#utility.yul\":21617:21748   */\n      tag_542\n        /* \"#utility.yul\":21743:21747   */\n      dup2\n        /* \"#utility.yul\":21617:21748   */\n      tag_300\n      jump\t// in\n    tag_542:\n        /* \"#utility.yul\":21609:21748   */\n      swap1\n      pop\n        /* \"#utility.yul\":21336:21755   */\n      swap2\n      swap1\n      pop\n      jump\t// out\n        /* \"#utility.yul\":21761:21941   */\n    tag_301:\n        /* \"#utility.yul\":21809:21886   */\n      0x4e487b7100000000000000000000000000000000000000000000000000000000\n        /* \"#utility.yul\":21806:21807   */\n      0x00\n        /* \"#utility.yul\":21799:21887   */\n      mstore\n        /* \"#utility.yul\":21906:21910   */\n      0x11\n        /* \"#utility.yul\":21903:21904   */\n      0x04\n        /* \"#utility.yul\":21896:21911   */\n      mstore\n        /* \"#utility.yul\":21930:21934   */\n      0x24\n        /* \"#utility.yul\":21927:21928   */\n      0x00\n        /* \"#utility.yul\":21920:21935   */\n      revert\n        /* \"#utility.yul\":21947:22180   */\n    tag_82:\n        /* \"#utility.yul\":21986:21989   */\n      0x00\n        /* \"#utility.yul\":22009:22033   */\n      tag_545\n        /* \"#utility.yul\":22027:22032   */\n      dup3\n        /* \"#utility.yul\":22009:22033   */\n      tag_255\n      jump\t// in\n    tag_545:\n        /* \"#utility.yul\":22000:22033   */\n      swap2\n      pop\n        /* \"#utility.yul\":22055:22121   */\n      0xffffffffffffffffffffffffffffffffffffffffffffffffffffffffffffffff\n        /* \"#utility.yul\":22048:22053   */\n      dup3\n        /* \"#utility.yul\":22045:22122   */\n      sub\n        /* \"#utility.yul\":22042:22145   */\n      tag_546\n      jumpi\n        /* \"#utility.yul\":22125:22143   */\n      tag_547\n      tag_301\n      jump\t// in\n    tag_547:\n        /* \"#utility.yul\":22042:22145   */\n    tag_546:\n        /* \"#utility.yul\":22172:22173   */\n      0x01\n        /* \"#utility.yul\":22165:22170   */\n      dup3\n        /* \"#utility.yul\":22161:22174   */\n      add\n        /* \"#utility.yul\":22154:22174   */\n      swap1\n      pop\n        /* \"#utility.yul\":21947:22180   */\n      swap2\n      swap1\n      pop\n      jump\t// out\n        /* \"#utility.yul\":22186:22366   */\n    tag_97:\n        /* \"#utility.yul\":22234:22311   */\n      0x4e487b7100000000000000000000000000000000000000000000000000000000\n        /* \"#utility.yul\":22231:22232   */\n      0x00\n        /* \"#utility.yul\":22224:22312   */\n      mstore\n        /* \"#utility.yul\":22331:22335   */\n      0x32\n        /* \"#utility.yul\":22328:22329   */\n      0x04\n        /* \"#utility.yul\":22321:22336   */\n      mstore\n        /* \"#utility.yul\":22355:22359   */\n      0x24\n        /* \"#utility.yul\":22352:22353   */\n      0x00\n        /* \"#utility.yul\":22345:22360   */\n      revert\n        /* \"#utility.yul\":22372:22552   */\n    tag_302:\n        /* \"#utility.yul\":22420:22497   */\n      0x4e487b7100000000000000000000000000000000000000000000000000000000\n        /* \"#utility.yul\":22417:22418   */\n      0x00\n        /* \"#utility.yul\":22410:22498   */\n      mstore\n        /* \"#utility.yul\":22517:22521   */\n      0x12\n        /* \"#utility.yul\":22514:22515   */\n      0x04\n        /* \"#utility.yul\":22507:22522   */\n      mstore\n        /* \"#utility.yul\":22541:22545   */\n      0x24\n        /* \"#utility.yul\":22538:22539   */\n      0x00\n        /* \"#utility.yul\":22531:22546   */\n      revert\n        /* \"#utility.yul\":22558:22743   */\n    tag_99:\n        /* \"#utility.yul\":22598:22599   */\n      0x00\n        /* \"#utility.yul\":22615:22635   */\n      tag_551\n        /* \"#utility.yul\":22633:22634   */\n      dup3\n        /* \"#utility.yul\":22615:22635   */\n      tag_255\n      jump\t// in\n    tag_551:\n        /* \"#utility.yul\":22610:22635   */\n      swap2\n      pop\n        /* \"#utility.yul\":22649:22669   */\n      tag_552\n        /* \"#utility.yul\":22667:22668   */\n      dup4\n        /* \"#utility.yul\":22649:22669   */\n      tag_255\n      jump\t// in\n    tag_552:\n        /* \"#utility.yul\":22644:22669   */\n      swap3\n      pop\n        /* \"#utility.yul\":22688:22689   */\n      dup3\n        /* \"#utility.yul\":22678:22713   */\n      tag_553\n      jumpi\n        /* \"#utility.yul\":22693:22711   */\n      tag_554\n      tag_302\n      jump\t// in\n    tag_554:\n        /* \"#utility.yul\":22678:22713   */\n    tag_553:\n        /* \"#utility.yul\":22735:22736   */\n      dup3\n        /* \"#utility.yul\":22732:22733   */\n      dup3\n        /* \"#utility.yul\":22728:22737   */\n      div\n        /* \"#utility.yul\":22723:22737   */\n      swap1\n      pop\n        /* \"#utility.yul\":22558:22743   */\n      swap3\n      swap2\n      pop\n      pop\n      jump\t// out\n        /* \"#utility.yul\":22749:22925   */\n    tag_101:\n        /* \"#utility.yul\":22781:22782   */\n      0x00\n        /* \"#utility.yul\":22798:22818   */\n      tag_556\n        /* \"#utility.yul\":22816:22817   */\n      dup3\n        /* \"#utility.yul\":22798:22818   */\n      tag_255\n      jump\t// in\n    tag_556:\n        /* \"#utility.yul\":22793:22818   */\n      swap2\n      pop\n        /* \"#utility.yul\":22832:22852   */\n      tag_557\n        /* \"#utility.yul\":22850:22851   */\n      dup4\n        /* \"#utility.yul\":22832:22852   */\n      tag_255\n      jump\t// in\n    tag_557:\n        /* \"#utility.yul\":22827:22852   */\n      swap3\n      pop\n        /* \"#utility.yul\":22871:22872   */\n      dup3\n        /* \"#utility.yul\":22861:22896   */\n      tag_558\n      jumpi\n        /* \"#utility.yul\":22876:22894   */\n      tag_559\n      tag_302\n      jump\t// in\n    tag_559:\n        /* \"#utility.yul\":22861:22896   */\n    tag_558:\n        /* \"#utility.yul\":22917:22918   */\n      dup3\n        /* \"#utility.yul\":22914:22915   */\n      dup3\n        /* \"#utility.yul\":22910:22919   */\n      mod\n        /* \"#utility.yul\":22905:22919   */\n      swap1\n      pop\n        /* \"#utility.yul\":22749:22925   */\n      swap3\n      swap2\n      pop\n      pop\n      jump\t// out\n        /* \"#utility.yul\":22931:23341   */\n    tag_103:\n        /* \"#utility.yul\":22971:22978   */\n      0x00\n        /* \"#utility.yul\":22994:23014   */\n      tag_561\n        /* \"#utility.yul\":23012:23013   */\n      dup3\n        /* \"#utility.yul\":22994:23014   */\n      tag_255\n      jump\t// in\n    tag_561:\n        /* \"#utility.yul\":22989:23014   */\n      swap2\n      pop\n        /* \"#utility.yul\":23028:23048   */\n      tag_562\n        /* \"#utility.yul\":23046:23047   */\n      dup4\n        /* \"#utility.yul\":23028:23048   */\n      tag_255\n      jump\t// in\n    tag_562:\n        /* \"#utility.yul\":23023:23048   */\n      swap3\n      pop\n        /* \"#utility.yul\":23083:23084   */\n      dup3\n        /* \"#utility.yul\":23080:23081   */\n      dup3\n        /* \"#utility.yul\":23076:23085   */\n      mul\n        /* \"#utility.yul\":23105:23135   */\n      tag_563\n        /* \"#utility.yul\":23123:23134   */\n      dup2\n        /* \"#utility.yul\":23105:23135   */\n      tag_255\n      jump\t// in\n    tag_563:\n        /* \"#utility.yul\":23094:23135   */\n      swap2\n      pop\n        /* \"#utility.yul\":23284:23285   */\n      dup3\n        /* \"#utility.yul\":23275:23282   */\n      dup3\n        /* \"#utility.yul\":23271:23286   */\n      div\n        /* \"#utility.yul\":23268:23269   */\n      dup5\n        /* \"#utility.yul\":23265:23287   */\n      eq\n        /* \"#utility.yul\":23245:23246   */\n      dup4\n        /* \"#utility.yul\":23238:23247   */\n      iszero\n        /* \"#utility.yul\":23218:23301   */\n      or\n        /* \"#utility.yul\":23195:23334   */\n      tag_564\n      jumpi\n        /* \"#utility.yul\":23314:23332   */\n      tag_565\n      tag_301\n      jump\t// in\n    tag_565:\n        /* \"#utility.yul\":23195:23334   */\n    tag_564:\n        /* \"#utility.yul\":22979:23341   */\n      pop\n        /* \"#utility.yul\":22931:23341   */\n      swap3\n      swap2\n      pop\n      pop\n      jump\t// out\n        /* \"#utility.yul\":23347:23538   */\n    tag_105:\n        /* \"#utility.yul\":23387:23390   */\n      0x00\n        /* \"#utility.yul\":23406:23426   */\n      tag_567\n        /* \"#utility.yul\":23424:23425   */\n      dup3\n        /* \"#utility.yul\":23406:23426   */\n      tag_255\n      jump\t// in\n    tag_567:\n        /* \"#utility.yul\":23401:23426   */\n      swap2\n      pop\n        /* \"#utility.yul\":23440:23460   */\n      tag_568\n        /* \"#utility.yul\":23458:23459   */\n      dup4\n        /* \"#utility.yul\":23440:23460   */\n      tag_255\n      jump\t// in\n    tag_568:\n        /* \"#utility.yul\":23435:23460   */\n      swap3\n      pop\n        /* \"#utility.yul\":23483:23484   */\n      dup3\n        /* \"#utility.yul\":23480:23481   */\n      dup3\n        /* \"#utility.yul\":23476:23485   */\n      add\n        /* \"#utility.yul\":23469:23485   */\n      swap1\n      pop\n        /* \"#utility.yul\":23504:23507   */\n      dup1\n        /* \"#utility.yul\":23501:23502   */\n      dup3\n        /* \"#utility.yul\":23498:23508   */\n      gt\n        /* \"#utility.yul\":23495:23531   */\n      iszero\n      tag_569\n      jumpi\n        /* \"#utility.yul\":23511:23529   */\n      tag_570\n      tag_301\n      jump\t// in\n    tag_570:\n        /* \"#utility.yul\":23495:23531   */\n    tag_569:\n        /* \"#utility.yul\":23347:23538   */\n      swap3\n      swap2\n      pop\n      pop\n      jump\t// out\n        /* \"#utility.yul\":23544:23692   */\n    tag_303:\n        /* \"#utility.yul\":23646:23657   */\n      0x00\n        /* \"#utility.yul\":23683:23686   */\n      dup2\n        /* \"#utility.yul\":23668:23686   */\n      swap1\n      pop\n        /* \"#utility.yul\":23544:23692   */\n      swap3\n      swap2\n      pop\n      pop\n      jump\t// out\n        /* \"#utility.yul\":23698:24088   */\n    tag_304:\n        /* \"#utility.yul\":23804:23807   */\n      0x00\n        /* \"#utility.yul\":23832:23871   */\n      tag_573\n        /* \"#utility.yul\":23865:23870   */\n      dup3\n        /* \"#utility.yul\":23832:23871   */\n      tag_271\n      jump\t// in\n    tag_573:\n        /* \"#utility.yul\":23887:23976   */\n      tag_574\n        /* \"#utility.yul\":23969:23975   */\n      dup2\n        /* \"#utility.yul\":23964:23967   */\n      dup6\n        /* \"#utility.yul\":23887:23976   */\n      tag_303\n      jump\t// in\n    tag_574:\n        /* \"#utility.yul\":23880:23976   */\n      swap4\n      pop\n        /* \"#utility.yul\":23985:24050   */\n      tag_575\n        /* \"#utility.yul\":24043:24049   */\n      dup2\n        /* \"#utility.yul\":24038:24041   */\n      dup6\n        /* \"#utility.yul\":24031:24035   */\n      0x20\n        /* \"#utility.yul\":24024:24029   */\n      dup7\n        /* \"#utility.yul\":24020:24036   */\n      add\n        /* \"#utility.yul\":23985:24050   */\n      tag_273\n      jump\t// in\n    tag_575:\n        /* \"#utility.yul\":24075:24081   */\n      dup1\n        /* \"#utility.yul\":24070:24073   */\n      dup5\n        /* \"#utility.yul\":24066:24082   */\n      add\n        /* \"#utility.yul\":24059:24082   */\n      swap2\n      pop\n        /* \"#utility.yul\":23808:24088   */\n      pop\n        /* \"#utility.yul\":23698:24088   */\n      swap3\n      swap2\n      pop\n      pop\n      jump\t// out\n        /* \"#utility.yul\":24094:24245   */\n    tag_305:\n        /* \"#utility.yul\":24234:24237   */\n      0x3a00000000000000000000000000000000000000000000000000000000000000\n        /* \"#utility.yul\":24230:24231   */\n      0x00\n        /* \"#utility.yul\":24222:24228   */\n      dup3\n        /* \"#utility.yul\":24218:24232   */\n      add\n        /* \"#utility.yul\":24211:24238   */\n      mstore\n        /* \"#utility.yul\":24094:24245   */\n      pop\n      jump\t// out\n        /* \"#utility.yul\":24251:24651   */\n    tag_306:\n        /* \"#utility.yul\":24411:24414   */\n      0x00\n        /* \"#utility.yul\":24432:24516   */\n      tag_578\n        /* \"#utility.yul\":24514:24515   */\n      0x01\n        /* \"#utility.yul\":24509:24512   */\n      dup4\n        /* \"#utility.yul\":24432:24516   */\n      tag_303\n      jump\t// in\n    tag_578:\n        /* \"#utility.yul\":24425:24516   */\n      swap2\n      pop\n        /* \"#utility.yul\":24525:24618   */\n      tag_579\n        /* \"#utility.yul\":24614:24617   */\n      dup3\n        /* \"#utility.yul\":24525:24618   */\n      tag_305\n      jump\t// in\n    tag_579:\n        /* \"#utility.yul\":24643:24644   */\n      0x01\n        /* \"#utility.yul\":24638:24641   */\n      dup3\n        /* \"#utility.yul\":24634:24645   */\n      add\n        /* \"#utility.yul\":24627:24645   */\n      swap1\n      pop\n        /* \"#utility.yul\":24251:24651   */\n      swap2\n      swap1\n      pop\n      jump\t// out\n        /* \"#utility.yul\":24657:24808   */\n    tag_307:\n        /* \"#utility.yul\":24797:24800   */\n      0x2d00000000000000000000000000000000000000000000000000000000000000\n        /* \"#utility.yul\":24793:24794   */\n      0x00\n        /* \"#utility.yul\":24785:24791   */\n      dup3\n        /* \"#utility.yul\":24781:24795   */\n      add\n        /* \"#utility.yul\":24774:24801   */\n      mstore\n        /* \"#utility.yul\":24657:24808   */\n      pop\n      jump\t// out\n        /* \"#utility.yul\":24814:25214   */\n    tag_308:\n        /* \"#utility.yul\":24974:24977   */\n      0x00\n        /* \"#utility.yul\":24995:25079   */\n      tag_582\n        /* \"#utility.yul\":25077:25078   */\n      0x01\n        /* \"#utility.yul\":25072:25075   */\n      dup4\n        /* \"#utility.yul\":24995:25079   */\n      tag_303\n      jump\t// in\n    tag_582:\n        /* \"#utility.yul\":24988:25079   */\n      swap2\n      pop\n        /* \"#utility.yul\":25088:25181   */\n      tag_583\n        /* \"#utility.yul\":25177:25180   */\n      dup3\n        /* \"#utility.yul\":25088:25181   */\n      tag_307\n      jump\t// in\n    tag_583:\n        /* \"#utility.yul\":25206:25207   */\n      0x01\n        /* \"#utility.yul\":25201:25204   */\n      dup3\n        /* \"#utility.yul\":25197:25208   */\n      add\n        /* \"#utility.yul\":25190:25208   */\n      swap1\n      pop\n        /* \"#utility.yul\":24814:25214   */\n      swap2\n      swap1\n      pop\n      jump\t// out\n        /* \"#utility.yul\":25220:26773   */\n    tag_116:\n        /* \"#utility.yul\":25799:25802   */\n      0x00\n        /* \"#utility.yul\":25821:25916   */\n      tag_585\n        /* \"#utility.yul\":25912:25915   */\n      dup3\n        /* \"#utility.yul\":25903:25909   */\n      dup8\n        /* \"#utility.yul\":25821:25916   */\n      tag_304\n      jump\t// in\n    tag_585:\n        /* \"#utility.yul\":25814:25916   */\n      swap2\n      pop\n        /* \"#utility.yul\":25933:26081   */\n      tag_586\n        /* \"#utility.yul\":26077:26080   */\n      dup3\n        /* \"#utility.yul\":25933:26081   */\n      tag_306\n      jump\t// in\n    tag_586:\n        /* \"#utility.yul\":25926:26081   */\n      swap2\n      pop\n        /* \"#utility.yul\":26098:26193   */\n      tag_587\n        /* \"#utility.yul\":26189:26192   */\n      dup3\n        /* \"#utility.yul\":26180:26186   */\n      dup7\n        /* \"#utility.yul\":26098:26193   */\n      tag_304\n      jump\t// in\n    tag_587:\n        /* \"#utility.yul\":26091:26193   */\n      swap2\n      pop\n        /* \"#utility.yul\":26210:26358   */\n      tag_588\n        /* \"#utility.yul\":26354:26357   */\n      dup3\n        /* \"#utility.yul\":26210:26358   */\n      tag_308\n      jump\t// in\n    tag_588:\n        /* \"#utility.yul\":26203:26358   */\n      swap2\n      pop\n        /* \"#utility.yul\":26375:26470   */\n      tag_589\n        /* \"#utility.yul\":26466:26469   */\n      dup3\n        /* \"#utility.yul\":26457:26463   */\n      dup6\n        /* \"#utility.yul\":26375:26470   */\n      tag_304\n      jump\t// in\n    tag_589:\n        /* \"#utility.yul\":26368:26470   */\n      swap2\n      pop\n        /* \"#utility.yul\":26487:26635   */\n      tag_590\n        /* \"#utility.yul\":26631:26634   */\n      dup3\n        /* \"#utility.yul\":26487:26635   */\n      tag_306\n      jump\t// in\n    tag_590:\n        /* \"#utility.yul\":26480:26635   */\n      swap2\n      pop\n        /* \"#utility.yul\":26652:26747   */\n      tag_591\n        /* \"#utility.yul\":26743:26746   */\n      dup3\n        /* \"#utility.yul\":26734:26740   */\n      dup5\n        /* \"#utility.yul\":26652:26747   */\n      tag_304\n      jump\t// in\n    tag_591:\n        /* \"#utility.yul\":26645:26747   */\n      swap2\n      pop\n        /* \"#utility.yul\":26764:26767   */\n      dup2\n        /* \"#utility.yul\":26757:26767   */\n      swap1\n      pop\n        /* \"#utility.yul\":25220:26773   */\n      swap6\n      swap5\n      pop\n      pop\n      pop\n      pop\n      pop\n      jump\t// out\n        /* \"#utility.yul\":26779:26959   */\n    tag_309:\n        /* \"#utility.yul\":26827:26904   */\n      0x4e487b7100000000000000000000000000000000000000000000000000000000\n        /* \"#utility.yul\":26824:26825   */\n      0x00\n        /* \"#utility.yul\":26817:26905   */\n      mstore\n        /* \"#utility.yul\":26924:26928   */\n      0x22\n        /* \"#utility.yul\":26921:26922   */\n      0x04\n        /* \"#utility.yul\":26914:26929   */\n      mstore\n        /* \"#utility.yul\":26948:26952   */\n      0x24\n        /* \"#utility.yul\":26945:26946   */\n      0x00\n        /* \"#utility.yul\":26938:26953   */\n      revert\n        /* \"#utility.yul\":26965:27285   */\n    tag_142:\n        /* \"#utility.yul\":27009:27015   */\n      0x00\n        /* \"#utility.yul\":27046:27047   */\n      0x02\n        /* \"#utility.yul\":27040:27044   */\n      dup3\n        /* \"#utility.yul\":27036:27048   */\n      div\n        /* \"#utility.yul\":27026:27048   */\n      swap1\n      pop\n        /* \"#utility.yul\":27093:27094   */\n      0x01\n        /* \"#utility.yul\":27087:27091   */\n      dup3\n        /* \"#utility.yul\":27083:27095   */\n      and\n        /* \"#utility.yul\":27114:27132   */\n      dup1\n        /* \"#utility.yul\":27104:27185   */\n      tag_594\n      jumpi\n        /* \"#utility.yul\":27170:27174   */\n      0x7f\n        /* \"#utility.yul\":27162:27168   */\n      dup3\n        /* \"#utility.yul\":27158:27175   */\n      and\n        /* \"#utility.yul\":27148:27175   */\n      swap2\n      pop\n        /* \"#utility.yul\":27104:27185   */\n    tag_594:\n        /* \"#utility.yul\":27232:27234   */\n      0x20\n        /* \"#utility.yul\":27224:27230   */\n      dup3\n        /* \"#utility.yul\":27221:27235   */\n      lt\n        /* \"#utility.yul\":27201:27219   */\n      dup2\n        /* \"#utility.yul\":27198:27236   */\n      sub\n        /* \"#utility.yul\":27195:27279   */\n      tag_595\n      jumpi\n        /* \"#utility.yul\":27251:27269   */\n      tag_596\n      tag_309\n      jump\t// in\n    tag_596:\n        /* \"#utility.yul\":27195:27279   */\n    tag_595:\n        /* \"#utility.yul\":27016:27285   */\n      pop\n        /* \"#utility.yul\":26965:27285   */\n      swap2\n      swap1\n      pop\n      jump\t// out\n        /* \"#utility.yul\":27291:27473   */\n    tag_310:\n        /* \"#utility.yul\":27431:27465   */\n      0x496e73756666696369656e74207061727469636970616e742062616c616e6365\n        /* \"#utility.yul\":27427:27428   */\n      0x00\n        /* \"#utility.yul\":27419:27425   */\n      dup3\n        /* \"#utility.yul\":27415:27429   */\n      add\n        /* \"#utility.yul\":27408:27466   */\n      mstore\n        /* \"#utility.yul\":27291:27473   */\n      pop\n      jump\t// out\n        /* \"#utility.yul\":27479:27845   */\n    tag_311:\n        /* \"#utility.yul\":27621:27624   */\n      0x00\n        /* \"#utility.yul\":27642:27709   */\n      tag_599\n        /* \"#utility.yul\":27706:27708   */\n      0x20\n        /* \"#utility.yul\":27701:27704   */\n      dup4\n        /* \"#utility.yul\":27642:27709   */\n      tag_280\n      jump\t// in\n    tag_599:\n        /* \"#utility.yul\":27635:27709   */\n      swap2\n      pop\n        /* \"#utility.yul\":27718:27811   */\n      tag_600\n        /* \"#utility.yul\":27807:27810   */\n      dup3\n        /* \"#utility.yul\":27718:27811   */\n      tag_310\n      jump\t// in\n    tag_600:\n        /* \"#utility.yul\":27836:27838   */\n      0x20\n        /* \"#utility.yul\":27831:27834   */\n      dup3\n        /* \"#utility.yul\":27827:27839   */\n      add\n        /* \"#utility.yul\":27820:27839   */\n      swap1\n      pop\n        /* \"#utility.yul\":27479:27845   */\n      swap2\n      swap1\n      pop\n      jump\t// out\n        /* \"#utility.yul\":27851:28270   */\n    tag_170:\n        /* \"#utility.yul\":28017:28021   */\n      0x00\n        /* \"#utility.yul\":28055:28057   */\n      0x20\n        /* \"#utility.yul\":28044:28053   */\n      dup3\n        /* \"#utility.yul\":28040:28058   */\n      add\n        /* \"#utility.yul\":28032:28058   */\n      swap1\n      pop\n        /* \"#utility.yul\":28104:28113   */\n      dup2\n        /* \"#utility.yul\":28098:28102   */\n      dup2\n        /* \"#utility.yul\":28094:28114   */\n      sub\n        /* \"#utility.yul\":28090:28091   */\n      0x00\n        /* \"#utility.yul\":28079:28088   */\n      dup4\n        /* \"#utility.yul\":28075:28092   */\n      add\n        /* \"#utility.yul\":28068:28115   */\n      mstore\n        /* \"#utility.yul\":28132:28263   */\n      tag_602\n        /* \"#utility.yul\":28258:28262   */\n      dup2\n        /* \"#utility.yul\":28132:28263   */\n      tag_311\n      jump\t// in\n    tag_602:\n        /* \"#utility.yul\":28124:28263   */\n      swap1\n      pop\n        /* \"#utility.yul\":27851:28270   */\n      swap2\n      swap1\n      pop\n      jump\t// out\n        /* \"#utility.yul\":28276:28445   */\n    tag_312:\n        /* \"#utility.yul\":28416:28437   */\n      0x4e6f2061646d696e7320617661696c61626c6500000000000000000000000000\n        /* \"#utility.yul\":28412:28413   */\n      0x00\n        /* \"#utility.yul\":28404:28410   */\n      dup3\n        /* \"#utility.yul\":28400:28414   */\n      add\n        /* \"#utility.yul\":28393:28438   */\n      mstore\n        /* \"#utility.yul\":28276:28445   */\n      pop\n      jump\t// out\n        /* \"#utility.yul\":28451:28817   */\n    tag_313:\n        /* \"#utility.yul\":28593:28596   */\n      0x00\n        /* \"#utility.yul\":28614:28681   */\n      tag_605\n        /* \"#utility.yul\":28678:28680   */\n      0x13\n        /* \"#utility.yul\":28673:28676   */\n      dup4\n        /* \"#utility.yul\":28614:28681   */\n      tag_280\n      jump\t// in\n    tag_605:\n        /* \"#utility.yul\":28607:28681   */\n      swap2\n      pop\n        /* \"#utility.yul\":28690:28783   */\n      tag_606\n        /* \"#utility.yul\":28779:28782   */\n      dup3\n        /* \"#utility.yul\":28690:28783   */\n      tag_312\n      jump\t// in\n    tag_606:\n        /* \"#utility.yul\":28808:28810   */\n      0x20\n        /* \"#utility.yul\":28803:28806   */\n      dup3\n        /* \"#utility.yul\":28799:28811   */\n      add\n        /* \"#utility.yul\":28792:28811   */\n      swap1\n      pop\n        /* \"#utility.yul\":28451:28817   */\n      swap2\n      swap1\n      pop\n      jump\t// out\n        /* \"#utility.yul\":28823:29242   */\n    tag_173:\n        /* \"#utility.yul\":28989:28993   */\n      0x00\n        /* \"#utility.yul\":29027:29029   */\n      0x20\n        /* \"#utility.yul\":29016:29025   */\n      dup3\n        /* \"#utility.yul\":29012:29030   */\n      add\n        /* \"#utility.yul\":29004:29030   */\n      swap1\n      pop\n        /* \"#utility.yul\":29076:29085   */\n      dup2\n        /* \"#utility.yul\":29070:29074   */\n      dup2\n        /* \"#utility.yul\":29066:29086   */\n      sub\n        /* \"#utility.yul\":29062:29063   */\n      0x00\n        /* \"#utility.yul\":29051:29060   */\n      dup4\n        /* \"#utility.yul\":29047:29064   */\n      add\n        /* \"#utility.yul\":29040:29087   */\n      mstore\n        /* \"#utility.yul\":29104:29235   */\n      tag_608\n        /* \"#utility.yul\":29230:29234   */\n      dup2\n        /* \"#utility.yul\":29104:29235   */\n      tag_313\n      jump\t// in\n    tag_608:\n        /* \"#utility.yul\":29096:29235   */\n      swap1\n      pop\n        /* \"#utility.yul\":28823:29242   */\n      swap2\n      swap1\n      pop\n      jump\t// out\n        /* \"#utility.yul\":29248:29413   */\n    tag_314:\n        /* \"#utility.yul\":29388:29405   */\n      0x496e76616c696420736c6f742049440000000000000000000000000000000000\n        /* \"#utility.yul\":29384:29385   */\n      0x00\n        /* \"#utility.yul\":29376:29382   */\n      dup3\n        /* \"#utility.yul\":29372:29386   */\n      add\n        /* \"#utility.yul\":29365:29406   */\n      mstore\n        /* \"#utility.yul\":29248:29413   */\n      pop\n      jump\t// out\n        /* \"#utility.yul\":29419:29785   */\n    tag_315:\n        /* \"#utility.yul\":29561:29564   */\n      0x00\n        /* \"#utility.yul\":29582:29649   */\n      tag_611\n        /* \"#utility.yul\":29646:29648   */\n      0x0f\n        /* \"#utility.yul\":29641:29644   */\n      dup4\n        /* \"#utility.yul\":29582:29649   */\n      tag_280\n      jump\t// in\n    tag_611:\n        /* \"#utility.yul\":29575:29649   */\n      swap2\n      pop\n        /* \"#utility.yul\":29658:29751   */\n      tag_612\n        /* \"#utility.yul\":29747:29750   */\n      dup3\n        /* \"#utility.yul\":29658:29751   */\n      tag_314\n      jump\t// in\n    tag_612:\n        /* \"#utility.yul\":29776:29778   */\n      0x20\n        /* \"#utility.yul\":29771:29774   */\n      dup3\n        /* \"#utility.yul\":29767:29779   */\n      add\n        /* \"#utility.yul\":29760:29779   */\n      swap1\n      pop\n        /* \"#utility.yul\":29419:29785   */\n      swap2\n      swap1\n      pop\n      jump\t// out\n        /* \"#utility.yul\":29791:30210   */\n    tag_176:\n        /* \"#utility.yul\":29957:29961   */\n      0x00\n        /* \"#utility.yul\":29995:29997   */\n      0x20\n        /* \"#utility.yul\":29984:29993   */\n      dup3\n        /* \"#utility.yul\":29980:29998   */\n      add\n        /* \"#utility.yul\":29972:29998   */\n      swap1\n      pop\n        /* \"#utility.yul\":30044:30053   */\n      dup2\n        /* \"#utility.yul\":30038:30042   */\n      dup2\n        /* \"#utility.yul\":30034:30054   */\n      sub\n        /* \"#utility.yul\":30030:30031   */\n      0x00\n        /* \"#utility.yul\":30019:30028   */\n      dup4\n        /* \"#utility.yul\":30015:30032   */\n      add\n        /* \"#utility.yul\":30008:30055   */\n      mstore\n        /* \"#utility.yul\":30072:30203   */\n      tag_614\n        /* \"#utility.yul\":30198:30202   */\n      dup2\n        /* \"#utility.yul\":30072:30203   */\n      tag_315\n      jump\t// in\n    tag_614:\n        /* \"#utility.yul\":30064:30203   */\n      swap1\n      pop\n        /* \"#utility.yul\":29791:30210   */\n      swap2\n      swap1\n      pop\n      jump\t// out\n        /* \"#utility.yul\":30216:30388   */\n    tag_316:\n        /* \"#utility.yul\":30356:30380   */\n      0x536c6f7420697320616c726561647920626f6f6b656400000000000000000000\n        /* \"#utility.yul\":30352:30353   */\n      0x00\n        /* \"#utility.yul\":30344:30350   */\n      dup3\n        /* \"#utility.yul\":30340:30354   */\n      add\n        /* \"#utility.yul\":30333:30381   */\n      mstore\n        /* \"#utility.yul\":30216:30388   */\n      pop\n      jump\t// out\n        /* \"#utility.yul\":30394:30760   */\n    tag_317:\n        /* \"#utility.yul\":30536:30539   */\n      0x00\n        /* \"#utility.yul\":30557:30624   */\n      tag_617\n        /* \"#utility.yul\":30621:30623   */\n      0x16\n        /* \"#utility.yul\":30616:30619   */\n      dup4\n        /* \"#utility.yul\":30557:30624   */\n      tag_280\n      jump\t// in\n    tag_617:\n        /* \"#utility.yul\":30550:30624   */\n      swap2\n      pop\n        /* \"#utility.yul\":30633:30726   */\n      tag_618\n        /* \"#utility.yul\":30722:30725   */\n      dup3\n        /* \"#utility.yul\":30633:30726   */\n      tag_316\n      jump\t// in\n    tag_618:\n        /* \"#utility.yul\":30751:30753   */\n      0x20\n        /* \"#utility.yul\":30746:30749   */\n      dup3\n        /* \"#utility.yul\":30742:30754   */\n      add\n        /* \"#utility.yul\":30735:30754   */\n      swap1\n      pop\n        /* \"#utility.yul\":30394:30760   */\n      swap2\n      swap1\n      pop\n      jump\t// out\n        /* \"#utility.yul\":30766:31185   */\n    tag_179:\n        /* \"#utility.yul\":30932:30936   */\n      0x00\n        /* \"#utility.yul\":30970:30972   */\n      0x20\n        /* \"#utility.yul\":30959:30968   */\n      dup3\n        /* \"#utility.yul\":30955:30973   */\n      add\n        /* \"#utility.yul\":30947:30973   */\n      swap1\n      pop\n        /* \"#utility.yul\":31019:31028   */\n      dup2\n        /* \"#utility.yul\":31013:31017   */\n      dup2\n        /* \"#utility.yul\":31009:31029   */\n      sub\n        /* \"#utility.yul\":31005:31006   */\n      0x00\n        /* \"#utility.yul\":30994:31003   */\n      dup4\n        /* \"#utility.yul\":30990:31007   */\n      add\n        /* \"#utility.yul\":30983:31030   */\n      mstore\n        /* \"#utility.yul\":31047:31178   */\n      tag_620\n        /* \"#utility.yul\":31173:31177   */\n      dup2\n        /* \"#utility.yul\":31047:31178   */\n      tag_317\n      jump\t// in\n    tag_620:\n        /* \"#utility.yul\":31039:31178   */\n      swap1\n      pop\n        /* \"#utility.yul\":30766:31185   */\n      swap2\n      swap1\n      pop\n      jump\t// out\n        /* \"#utility.yul\":31191:31270   */\n    tag_318:\n        /* \"#utility.yul\":31230:31237   */\n      0x00\n        /* \"#utility.yul\":31259:31264   */\n      dup2\n        /* \"#utility.yul\":31248:31264   */\n      swap1\n      pop\n        /* \"#utility.yul\":31191:31270   */\n      swap2\n      swap1\n      pop\n      jump\t// out\n        /* \"#utility.yul\":31276:31433   */\n    tag_319:\n        /* \"#utility.yul\":31381:31426   */\n      tag_623\n        /* \"#utility.yul\":31401:31425   */\n      tag_624\n        /* \"#utility.yul\":31419:31424   */\n      dup3\n        /* \"#utility.yul\":31401:31425   */\n      tag_255\n      jump\t// in\n    tag_624:\n        /* \"#utility.yul\":31381:31426   */\n      tag_318\n      jump\t// in\n    tag_623:\n        /* \"#utility.yul\":31376:31379   */\n      dup3\n        /* \"#utility.yul\":31369:31427   */\n      mstore\n        /* \"#utility.yul\":31276:31433   */\n      pop\n      pop\n      jump\t// out\n        /* \"#utility.yul\":31439:31977   */\n    tag_181:\n        /* \"#utility.yul\":31607:31610   */\n      0x00\n        /* \"#utility.yul\":31622:31697   */\n      tag_626\n        /* \"#utility.yul\":31693:31696   */\n      dup3\n        /* \"#utility.yul\":31684:31690   */\n      dup7\n        /* \"#utility.yul\":31622:31697   */\n      tag_319\n      jump\t// in\n    tag_626:\n        /* \"#utility.yul\":31722:31724   */\n      0x20\n        /* \"#utility.yul\":31717:31720   */\n      dup3\n        /* \"#utility.yul\":31713:31725   */\n      add\n        /* \"#utility.yul\":31706:31725   */\n      swap2\n      pop\n        /* \"#utility.yul\":31735:31810   */\n      tag_627\n        /* \"#utility.yul\":31806:31809   */\n      dup3\n        /* \"#utility.yul\":31797:31803   */\n      dup6\n        /* \"#utility.yul\":31735:31810   */\n      tag_319\n      jump\t// in\n    tag_627:\n        /* \"#utility.yul\":31835:31837   */\n      0x20\n        /* \"#utility.yul\":31830:31833   */\n      dup3\n        /* \"#utility.yul\":31826:31838   */\n      add\n        /* \"#utility.yul\":31819:31838   */\n      swap2\n      pop\n        /* \"#utility.yul\":31848:31923   */\n      tag_628\n        /* \"#utility.yul\":31919:31922   */\n      dup3\n        /* \"#utility.yul\":31910:31916   */\n      dup5\n        /* \"#utility.yul\":31848:31923   */\n      tag_319\n      jump\t// in\n    tag_628:\n        /* \"#utility.yul\":31948:31950   */\n      0x20\n        /* \"#utility.yul\":31943:31946   */\n      dup3\n        /* \"#utility.yul\":31939:31951   */\n      add\n        /* \"#utility.yul\":31932:31951   */\n      swap2\n      pop\n        /* \"#utility.yul\":31968:31971   */\n      dup2\n        /* \"#utility.yul\":31961:31971   */\n      swap1\n      pop\n        /* \"#utility.yul\":31439:31977   */\n      swap5\n      swap4\n      pop\n      pop\n      pop\n      pop\n      jump\t// out\n        /* \"#utility.yul\":31983:32177   */\n    tag_187:\n        /* \"#utility.yul\":32023:32027   */\n      0x00\n        /* \"#utility.yul\":32043:32063   */\n      tag_630\n        /* \"#utility.yul\":32061:32062   */\n      dup3\n        /* \"#utility.yul\":32043:32063   */\n      tag_255\n      jump\t// in\n    tag_630:\n        /* \"#utility.yul\":32038:32063   */\n      swap2\n      pop\n        /* \"#utility.yul\":32077:32097   */\n      tag_631\n        /* \"#utility.yul\":32095:32096   */\n      dup4\n        /* \"#utility.yul\":32077:32097   */\n      tag_255\n      jump\t// in\n    tag_631:\n        /* \"#utility.yul\":32072:32097   */\n      swap3\n      pop\n        /* \"#utility.yul\":32121:32122   */\n      dup3\n        /* \"#utility.yul\":32118:32119   */\n      dup3\n        /* \"#utility.yul\":32114:32123   */\n      sub\n        /* \"#utility.yul\":32106:32123   */\n      swap1\n      pop\n        /* \"#utility.yul\":32145:32146   */\n      dup2\n        /* \"#utility.yul\":32139:32143   */\n      dup2\n        /* \"#utility.yul\":32136:32147   */\n      gt\n        /* \"#utility.yul\":32133:32170   */\n      iszero\n      tag_632\n      jumpi\n        /* \"#utility.yul\":32150:32168   */\n      tag_633\n      tag_301\n      jump\t// in\n    tag_633:\n        /* \"#utility.yul\":32133:32170   */\n    tag_632:\n        /* \"#utility.yul\":31983:32177   */\n      swap3\n      swap2\n      pop\n      pop\n      jump\t// out\n        /* \"#utility.yul\":32183:32344   */\n    tag_320:\n        /* \"#utility.yul\":32323:32336   */\n      0x496e76616c696420616765000000000000000000000000000000000000000000\n        /* \"#utility.yul\":32319:32320   */\n      0x00\n        /* \"#utility.yul\":32311:32317   */\n      dup3\n        /* \"#utility.yul\":32307:32321   */\n      add\n        /* \"#utility.yul\":32300:32337   */\n      mstore\n        /* \"#utility.yul\":32183:32344   */\n      pop\n      jump\t// out\n        /* \"#utility.yul\":32350:32716   */\n    tag_321:\n        /* \"#utility.yul\":32492:32495   */\n      0x00\n        /* \"#utility.yul\":32513:32580   */\n      tag_636\n        /* \"#utility.yul\":32577:32579   */\n      0x0b\n        /* \"#utility.yul\":32572:32575   */\n      dup4\n        /* \"#utility.yul\":32513:32580   */\n      tag_280\n      jump\t// in\n    tag_636:\n        /* \"#utility.yul\":32506:32580   */\n      swap2\n      pop\n        /* \"#utility.yul\":32589:32682   */\n      tag_637\n        /* \"#utility.yul\":32678:32681   */\n      dup3\n        /* \"#utility.yul\":32589:32682   */\n      tag_320\n      jump\t// in\n    tag_637:\n        /* \"#utility.yul\":32707:32709   */\n      0x20\n        /* \"#utility.yul\":32702:32705   */\n      dup3\n        /* \"#utility.yul\":32698:32710   */\n      add\n        /* \"#utility.yul\":32691:32710   */\n      swap1\n      pop\n        /* \"#utility.yul\":32350:32716   */\n      swap2\n      swap1\n      pop\n      jump\t// out\n        /* \"#utility.yul\":32722:33141   */\n    tag_192:\n        /* \"#utility.yul\":32888:32892   */\n      0x00\n        /* \"#utility.yul\":32926:32928   */\n      0x20\n        /* \"#utility.yul\":32915:32924   */\n      dup3\n        /* \"#utility.yul\":32911:32929   */\n      add\n        /* \"#utility.yul\":32903:32929   */\n      swap1\n      pop\n        /* \"#utility.yul\":32975:32984   */\n      dup2\n        /* \"#utility.yul\":32969:32973   */\n      dup2\n        /* \"#utility.yul\":32965:32985   */\n      sub\n        /* \"#utility.yul\":32961:32962   */\n      0x00\n        /* \"#utility.yul\":32950:32959   */\n      dup4\n        /* \"#utility.yul\":32946:32963   */\n      add\n        /* \"#utility.yul\":32939:32986   */\n      mstore\n        /* \"#utility.yul\":33003:33134   */\n      tag_639\n        /* \"#utility.yul\":33129:33133   */\n      dup2\n        /* \"#utility.yul\":33003:33134   */\n      tag_321\n      jump\t// in\n    tag_639:\n        /* \"#utility.yul\":32995:33134   */\n      swap1\n      pop\n        /* \"#utility.yul\":32722:33141   */\n      swap2\n      swap1\n      pop\n      jump\t// out\n        /* \"#utility.yul\":33147:33307   */\n    tag_322:\n        /* \"#utility.yul\":33287:33299   */\n      0x496e76616c696420494400000000000000000000000000000000000000000000\n        /* \"#utility.yul\":33283:33284   */\n      0x00\n        /* \"#utility.yul\":33275:33281   */\n      dup3\n        /* \"#utility.yul\":33271:33285   */\n      add\n        /* \"#utility.yul\":33264:33300   */\n      mstore\n        /* \"#utility.yul\":33147:33307   */\n      pop\n      jump\t// out\n        /* \"#utility.yul\":33313:33679   */\n    tag_323:\n        /* \"#utility.yul\":33455:33458   */\n      0x00\n        /* \"#utility.yul\":33476:33543   */\n      tag_642\n        /* \"#utility.yul\":33540:33542   */\n      0x0a\n        /* \"#utility.yul\":33535:33538   */\n      dup4\n        /* \"#utility.yul\":33476:33543   */\n      tag_280\n      jump\t// in\n    tag_642:\n        /* \"#utility.yul\":33469:33543   */\n      swap2\n      pop\n        /* \"#utility.yul\":33552:33645   */\n      tag_643\n        /* \"#utility.yul\":33641:33644   */\n      dup3\n        /* \"#utility.yul\":33552:33645   */\n      tag_322\n      jump\t// in\n    tag_643:\n        /* \"#utility.yul\":33670:33672   */\n      0x20\n        /* \"#utility.yul\":33665:33668   */\n      dup3\n        /* \"#utility.yul\":33661:33673   */\n      add\n        /* \"#utility.yul\":33654:33673   */\n      swap1\n      pop\n        /* \"#utility.yul\":33313:33679   */\n      swap2\n      swap1\n      pop\n      jump\t// out\n        /* \"#utility.yul\":33685:34104   */\n    tag_195:\n        /* \"#utility.yul\":33851:33855   */\n      0x00\n        /* \"#utility.yul\":33889:33891   */\n      0x20\n        /* \"#utility.yul\":33878:33887   */\n      dup3\n        /* \"#utility.yul\":33874:33892   */\n      add\n        /* \"#utility.yul\":33866:33892   */\n      swap1\n      pop\n        /* \"#utility.yul\":33938:33947   */\n      dup2\n        /* \"#utility.yul\":33932:33936   */\n      dup2\n        /* \"#utility.yul\":33928:33948   */\n      sub\n        /* \"#utility.yul\":33924:33925   */\n      0x00\n        /* \"#utility.yul\":33913:33922   */\n      dup4\n        /* \"#utility.yul\":33909:33926   */\n      add\n        /* \"#utility.yul\":33902:33949   */\n      mstore\n        /* \"#utility.yul\":33966:34097   */\n      tag_645\n        /* \"#utility.yul\":34092:34096   */\n      dup2\n        /* \"#utility.yul\":33966:34097   */\n      tag_323\n      jump\t// in\n    tag_645:\n        /* \"#utility.yul\":33958:34097   */\n      swap1\n      pop\n        /* \"#utility.yul\":33685:34104   */\n      swap2\n      swap1\n      pop\n      jump\t// out\n        /* \"#utility.yul\":34110:34285   */\n    tag_324:\n        /* \"#utility.yul\":34250:34277   */\n      0x547261696e657220494420616c72656164792065786973747300000000000000\n        /* \"#utility.yul\":34246:34247   */\n      0x00\n        /* \"#utility.yul\":34238:34244   */\n      dup3\n        /* \"#utility.yul\":34234:34248   */\n      add\n        /* \"#utility.yul\":34227:34278   */\n      mstore\n        /* \"#utility.yul\":34110:34285   */\n      pop\n      jump\t// out\n        /* \"#utility.yul\":34291:34657   */\n    tag_325:\n        /* \"#utility.yul\":34433:34436   */\n      0x00\n        /* \"#utility.yul\":34454:34521   */\n      tag_648\n        /* \"#utility.yul\":34518:34520   */\n      0x19\n        /* \"#utility.yul\":34513:34516   */\n      dup4\n        /* \"#utility.yul\":34454:34521   */\n      tag_280\n      jump\t// in\n    tag_648:\n        /* \"#utility.yul\":34447:34521   */\n      swap2\n      pop\n        /* \"#utility.yul\":34530:34623   */\n      tag_649\n        /* \"#utility.yul\":34619:34622   */\n      dup3\n        /* \"#utility.yul\":34530:34623   */\n      tag_324\n      jump\t// in\n    tag_649:\n        /* \"#utility.yul\":34648:34650   */\n      0x20\n        /* \"#utility.yul\":34643:34646   */\n      dup3\n        /* \"#utility.yul\":34639:34651   */\n      add\n        /* \"#utility.yul\":34632:34651   */\n      swap1\n      pop\n        /* \"#utility.yul\":34291:34657   */\n      swap2\n      swap1\n      pop\n      jump\t// out\n        /* \"#utility.yul\":34663:35082   */\n    tag_198:\n        /* \"#utility.yul\":34829:34833   */\n      0x00\n        /* \"#utility.yul\":34867:34869   */\n      0x20\n        /* \"#utility.yul\":34856:34865   */\n      dup3\n        /* \"#utility.yul\":34852:34870   */\n      add\n        /* \"#utility.yul\":34844:34870   */\n      swap1\n      pop\n        /* \"#utility.yul\":34916:34925   */\n      dup2\n        /* \"#utility.yul\":34910:34914   */\n      dup2\n        /* \"#utility.yul\":34906:34926   */\n      sub\n        /* \"#utility.yul\":34902:34903   */\n      0x00\n        /* \"#utility.yul\":34891:34900   */\n      dup4\n        /* \"#utility.yul\":34887:34904   */\n      add\n        /* \"#utility.yul\":34880:34927   */\n      mstore\n        /* \"#utility.yul\":34944:35075   */\n      tag_651\n        /* \"#utility.yul\":35070:35074   */\n      dup2\n        /* \"#utility.yul\":34944:35075   */\n      tag_325\n      jump\t// in\n    tag_651:\n        /* \"#utility.yul\":34936:35075   */\n      swap1\n      pop\n        /* \"#utility.yul\":34663:35082   */\n      swap2\n      swap1\n      pop\n      jump\t// out\n        /* \"#utility.yul\":35088:35229   */\n    tag_326:\n        /* \"#utility.yul\":35137:35141   */\n      0x00\n        /* \"#utility.yul\":35160:35163   */\n      dup2\n        /* \"#utility.yul\":35152:35163   */\n      swap1\n      pop\n        /* \"#utility.yul\":35183:35186   */\n      dup2\n        /* \"#utility.yul\":35180:35181   */\n      0x00\n        /* \"#utility.yul\":35173:35187   */\n      mstore\n        /* \"#utility.yul\":35217:35221   */\n      0x20\n        /* \"#utility.yul\":35214:35215   */\n      0x00\n        /* \"#utility.yul\":35204:35222   */\n      keccak256\n        /* \"#utility.yul\":35196:35222   */\n      swap1\n      pop\n        /* \"#utility.yul\":35088:35229   */\n      swap2\n      swap1\n      pop\n      jump\t// out\n        /* \"#utility.yul\":35235:35328   */\n    tag_327:\n        /* \"#utility.yul\":35272:35278   */\n      0x00\n        /* \"#utility.yul\":35319:35321   */\n      0x20\n        /* \"#utility.yul\":35314:35316   */\n      0x1f\n        /* \"#utility.yul\":35307:35312   */\n      dup4\n        /* \"#utility.yul\":35303:35317   */\n      add\n        /* \"#utility.yul\":35299:35322   */\n      div\n        /* \"#utility.yul\":35289:35322   */\n      swap1\n      pop\n        /* \"#utility.yul\":35235:35328   */\n      swap2\n      swap1\n      pop\n      jump\t// out\n        /* \"#utility.yul\":35334:35441   */\n    tag_328:\n        /* \"#utility.yul\":35378:35386   */\n      0x00\n        /* \"#utility.yul\":35428:35433   */\n      dup3\n        /* \"#utility.yul\":35422:35426   */\n      dup3\n        /* \"#utility.yul\":35418:35434   */\n      shl\n        /* \"#utility.yul\":35397:35434   */\n      swap1\n      pop\n        /* \"#utility.yul\":35334:35441   */\n      swap3\n      swap2\n      pop\n      pop\n      jump\t// out\n        /* \"#utility.yul\":35447:35840   */\n    tag_329:\n        /* \"#utility.yul\":35516:35522   */\n      0x00\n        /* \"#utility.yul\":35566:35567   */\n      0x08\n        /* \"#utility.yul\":35554:35564   */\n      dup4\n        /* \"#utility.yul\":35550:35568   */\n      mul\n        /* \"#utility.yul\":35589:35686   */\n      tag_656\n        /* \"#utility.yul\":35619:35685   */\n      0xffffffffffffffffffffffffffffffffffffffffffffffffffffffffffffffff\n        /* \"#utility.yul\":35608:35617   */\n      dup3\n        /* \"#utility.yul\":35589:35686   */\n      tag_328\n      jump\t// in\n    tag_656:\n        /* \"#utility.yul\":35707:35746   */\n      tag_657\n        /* \"#utility.yul\":35737:35745   */\n      dup7\n        /* \"#utility.yul\":35726:35735   */\n      dup4\n        /* \"#utility.yul\":35707:35746   */\n      tag_328\n      jump\t// in\n    tag_657:\n        /* \"#utility.yul\":35695:35746   */\n      swap6\n      pop\n        /* \"#utility.yul\":35779:35783   */\n      dup1\n        /* \"#utility.yul\":35775:35784   */\n      not\n        /* \"#utility.yul\":35768:35773   */\n      dup5\n        /* \"#utility.yul\":35764:35785   */\n      and\n        /* \"#utility.yul\":35755:35785   */\n      swap4\n      pop\n        /* \"#utility.yul\":35828:35832   */\n      dup1\n        /* \"#utility.yul\":35818:35826   */\n      dup7\n        /* \"#utility.yul\":35814:35833   */\n      and\n        /* \"#utility.yul\":35807:35812   */\n      dup5\n        /* \"#utility.yul\":35804:35834   */\n      or\n        /* \"#utility.yul\":35794:35834   */\n      swap3\n      pop\n        /* \"#utility.yul\":35523:35840   */\n      pop\n      pop\n        /* \"#utility.yul\":35447:35840   */\n      swap4\n      swap3\n      pop\n      pop\n      pop\n      jump\t// out\n        /* \"#utility.yul\":35846:35906   */\n    tag_330:\n        /* \"#utility.yul\":35874:35877   */\n      0x00\n        /* \"#utility.yul\":35895:35900   */\n      dup2\n        /* \"#utility.yul\":35888:35900   */\n      swap1\n      pop\n        /* \"#utility.yul\":35846:35906   */\n      swap2\n      swap1\n      pop\n      jump\t// out\n        /* \"#utility.yul\":35912:36054   */\n    tag_331:\n        /* \"#utility.yul\":35962:35971   */\n      0x00\n        /* \"#utility.yul\":35995:36048   */\n      tag_660\n        /* \"#utility.yul\":36013:36047   */\n      tag_661\n        /* \"#utility.yul\":36022:36046   */\n      tag_662\n        /* \"#utility.yul\":36040:36045   */\n      dup5\n        /* \"#utility.yul\":36022:36046   */\n      tag_255\n      jump\t// in\n    tag_662:\n        /* \"#utility.yul\":36013:36047   */\n      tag_330\n      jump\t// in\n    tag_661:\n        /* \"#utility.yul\":35995:36048   */\n      tag_255\n      jump\t// in\n    tag_660:\n        /* \"#utility.yul\":35982:36048   */\n      swap1\n      pop\n        /* \"#utility.yul\":35912:36054   */\n      swap2\n      swap1\n      pop\n      jump\t// out\n        /* \"#utility.yul\":36060:36135   */\n    tag_332:\n        /* \"#utility.yul\":36103:36106   */\n      0x00\n        /* \"#utility.yul\":36124:36129   */\n      dup2\n        /* \"#utility.yul\":36117:36129   */\n      swap1\n      pop\n        /* \"#utility.yul\":36060:36135   */\n      swap2\n      swap1\n      pop\n      jump\t// out\n        /* \"#utility.yul\":36141:36410   */\n    tag_333:\n        /* \"#utility.yul\":36251:36290   */\n      tag_665\n        /* \"#utility.yul\":36282:36289   */\n      dup4\n        /* \"#utility.yul\":36251:36290   */\n      tag_331\n      jump\t// in\n    tag_665:\n        /* \"#utility.yul\":36312:36403   */\n      tag_666\n        /* \"#utility.yul\":36361:36402   */\n      tag_667\n        /* \"#utility.yul\":36385:36401   */\n      dup3\n        /* \"#utility.yul\":36361:36402   */\n      tag_332\n      jump\t// in\n    tag_667:\n        /* \"#utility.yul\":36353:36359   */\n      dup5\n        /* \"#utility.yul\":36346:36350   */\n      dup5\n        /* \"#utility.yul\":36340:36351   */\n      sload\n        /* \"#utility.yul\":36312:36403   */\n      tag_329\n      jump\t// in\n    tag_666:\n        /* \"#utility.yul\":36306:36310   */\n      dup3\n        /* \"#utility.yul\":36299:36404   */\n      sstore\n        /* \"#utility.yul\":36217:36410   */\n      pop\n        /* \"#utility.yul\":36141:36410   */\n      pop\n      pop\n      pop\n      jump\t// out\n        /* \"#utility.yul\":36416:36489   */\n    tag_334:\n        /* \"#utility.yul\":36461:36464   */\n      0x00\n        /* \"#utility.yul\":36482:36483   */\n      0x00\n        /* \"#utility.yul\":36475:36483   */\n      swap1\n      pop\n        /* \"#utility.yul\":36416:36489   */\n      swap1\n      jump\t// out\n        /* \"#utility.yul\":36495:36684   */\n    tag_335:\n        /* \"#utility.yul\":36572:36604   */\n      tag_670\n      tag_334\n      jump\t// in\n    tag_670:\n        /* \"#utility.yul\":36613:36678   */\n      tag_671\n        /* \"#utility.yul\":36671:36677   */\n      dup2\n        /* \"#utility.yul\":36663:36669   */\n      dup5\n        /* \"#utility.yul\":36657:36661   */\n      dup5\n        /* \"#utility.yul\":36613:36678   */\n      tag_333\n      jump\t// in\n    tag_671:\n        /* \"#utility.yul\":36548:36684   */\n      pop\n        /* \"#utility.yul\":36495:36684   */\n      pop\n      pop\n      jump\t// out\n        /* \"#utility.yul\":36690:36876   */\n    tag_336:\n        /* \"#utility.yul\":36750:36870   */\n    tag_673:\n        /* \"#utility.yul\":36767:36770   */\n      dup2\n        /* \"#utility.yul\":36760:36765   */\n      dup2\n        /* \"#utility.yul\":36757:36771   */\n      lt\n        /* \"#utility.yul\":36750:36870   */\n      iszero\n      tag_675\n      jumpi\n        /* \"#utility.yul\":36821:36860   */\n      tag_676\n        /* \"#utility.yul\":36858:36859   */\n      0x00\n        /* \"#utility.yul\":36851:36856   */\n      dup3\n        /* \"#utility.yul\":36821:36860   */\n      tag_335\n      jump\t// in\n    tag_676:\n        /* \"#utility.yul\":36794:36795   */\n      0x01\n        /* \"#utility.yul\":36787:36792   */\n      dup2\n        /* \"#utility.yul\":36783:36796   */\n      add\n        /* \"#utility.yul\":36774:36796   */\n      swap1\n      pop\n        /* \"#utility.yul\":36750:36870   */\n      jump(tag_673)\n    tag_675:\n        /* \"#utility.yul\":36690:36876   */\n      pop\n      pop\n      jump\t// out\n        /* \"#utility.yul\":36882:37425   */\n    tag_337:\n        /* \"#utility.yul\":36983:36985   */\n      0x1f\n        /* \"#utility.yul\":36978:36981   */\n      dup3\n        /* \"#utility.yul\":36975:36986   */\n      gt\n        /* \"#utility.yul\":36972:37418   */\n      iszero\n      tag_678\n      jumpi\n        /* \"#utility.yul\":37017:37055   */\n      tag_679\n        /* \"#utility.yul\":37049:37054   */\n      dup2\n        /* \"#utility.yul\":37017:37055   */\n      tag_326\n      jump\t// in\n    tag_679:\n        /* \"#utility.yul\":37101:37130   */\n      tag_680\n        /* \"#utility.yul\":37119:37129   */\n      dup5\n        /* \"#utility.yul\":37101:37130   */\n      tag_327\n      jump\t// in\n    tag_680:\n        /* \"#utility.yul\":37091:37099   */\n      dup2\n        /* \"#utility.yul\":37087:37131   */\n      add\n        /* \"#utility.yul\":37284:37286   */\n      0x20\n        /* \"#utility.yul\":37272:37282   */\n      dup6\n        /* \"#utility.yul\":37269:37287   */\n      lt\n        /* \"#utility.yul\":37266:37315   */\n      iszero\n      tag_681\n      jumpi\n        /* \"#utility.yul\":37305:37313   */\n      dup2\n        /* \"#utility.yul\":37290:37313   */\n      swap1\n      pop\n        /* \"#utility.yul\":37266:37315   */\n    tag_681:\n        /* \"#utility.yul\":37328:37408   */\n      tag_682\n        /* \"#utility.yul\":37384:37406   */\n      tag_683\n        /* \"#utility.yul\":37402:37405   */\n      dup6\n        /* \"#utility.yul\":37384:37406   */\n      tag_327\n      jump\t// in\n    tag_683:\n        /* \"#utility.yul\":37374:37382   */\n      dup4\n        /* \"#utility.yul\":37370:37407   */\n      add\n        /* \"#utility.yul\":37357:37368   */\n      dup3\n        /* \"#utility.yul\":37328:37408   */\n      tag_336\n      jump\t// in\n    tag_682:\n        /* \"#utility.yul\":36987:37418   */\n      pop\n      pop\n        /* \"#utility.yul\":36972:37418   */\n    tag_678:\n        /* \"#utility.yul\":36882:37425   */\n      pop\n      pop\n      pop\n      jump\t// out\n        /* \"#utility.yul\":37431:37548   */\n    tag_338:\n        /* \"#utility.yul\":37485:37493   */\n      0x00\n        /* \"#utility.yul\":37535:37540   */\n      dup3\n        /* \"#utility.yul\":37529:37533   */\n      dup3\n        /* \"#utility.yul\":37525:37541   */\n      shr\n        /* \"#utility.yul\":37504:37541   */\n      swap1\n      pop\n        /* \"#utility.yul\":37431:37548   */\n      swap3\n      swap2\n      pop\n      pop\n      jump\t// out\n        /* \"#utility.yul\":37554:37723   */\n    tag_339:\n        /* \"#utility.yul\":37598:37604   */\n      0x00\n        /* \"#utility.yul\":37631:37682   */\n      tag_686\n        /* \"#utility.yul\":37679:37680   */\n      0x00\n        /* \"#utility.yul\":37675:37681   */\n      not\n        /* \"#utility.yul\":37667:37672   */\n      dup5\n        /* \"#utility.yul\":37664:37665   */\n      0x08\n        /* \"#utility.yul\":37660:37673   */\n      mul\n        /* \"#utility.yul\":37631:37682   */\n      tag_338\n      jump\t// in\n    tag_686:\n        /* \"#utility.yul\":37627:37683   */\n      not\n        /* \"#utility.yul\":37712:37716   */\n      dup1\n        /* \"#utility.yul\":37706:37710   */\n      dup4\n        /* \"#utility.yul\":37702:37717   */\n      and\n        /* \"#utility.yul\":37692:37717   */\n      swap2\n      pop\n        /* \"#utility.yul\":37605:37723   */\n      pop\n        /* \"#utility.yul\":37554:37723   */\n      swap3\n      swap2\n      pop\n      pop\n      jump\t// out\n        /* \"#utility.yul\":37728:38023   */\n    tag_340:\n        /* \"#utility.yul\":37804:37808   */\n      0x00\n        /* \"#utility.yul\":37950:37979   */\n      tag_688\n        /* \"#utility.yul\":37975:37978   */\n      dup4\n        /* \"#utility.yul\":37969:37973   */\n      dup4\n        /* \"#utility.yul\":37950:37979   */\n      tag_339\n      jump\t// in\n    tag_688:\n        /* \"#utility.yul\":37942:37979   */\n      swap2\n      pop\n        /* \"#utility.yul\":38012:38015   */\n      dup3\n        /* \"#utility.yul\":38009:38010   */\n      0x02\n        /* \"#utility.yul\":38005:38016   */\n      mul\n        /* \"#utility.yul\":37999:38003   */\n      dup3\n        /* \"#utility.yul\":37996:38017   */\n      or\n        /* \"#utility.yul\":37988:38017   */\n      swap1\n      pop\n        /* \"#utility.yul\":37728:38023   */\n      swap3\n      swap2\n      pop\n      pop\n      jump\t// out\n        /* \"#utility.yul\":38028:39423   */\n    tag_200:\n        /* \"#utility.yul\":38145:38182   */\n      tag_690\n        /* \"#utility.yul\":38178:38181   */\n      dup3\n        /* \"#utility.yul\":38145:38182   */\n      tag_271\n      jump\t// in\n    tag_690:\n        /* \"#utility.yul\":38247:38265   */\n      0xffffffffffffffff\n        /* \"#utility.yul\":38239:38245   */\n      dup2\n        /* \"#utility.yul\":38236:38266   */\n      gt\n        /* \"#utility.yul\":38233:38289   */\n      iszero\n      tag_691\n      jumpi\n        /* \"#utility.yul\":38269:38287   */\n      tag_692\n      tag_85\n      jump\t// in\n    tag_692:\n        /* \"#utility.yul\":38233:38289   */\n    tag_691:\n        /* \"#utility.yul\":38313:38351   */\n      tag_693\n        /* \"#utility.yul\":38345:38349   */\n      dup3\n        /* \"#utility.yul\":38339:38350   */\n      sload\n        /* \"#utility.yul\":38313:38351   */\n      tag_142\n      jump\t// in\n    tag_693:\n        /* \"#utility.yul\":38398:38465   */\n      tag_694\n        /* \"#utility.yul\":38458:38464   */\n      dup3\n        /* \"#utility.yul\":38450:38456   */\n      dup3\n        /* \"#utility.yul\":38444:38448   */\n      dup6\n        /* \"#utility.yul\":38398:38465   */\n      tag_337\n      jump\t// in\n    tag_694:\n        /* \"#utility.yul\":38492:38493   */\n      0x00\n        /* \"#utility.yul\":38516:38520   */\n      0x20\n        /* \"#utility.yul\":38503:38520   */\n      swap1\n      pop\n        /* \"#utility.yul\":38548:38550   */\n      0x1f\n        /* \"#utility.yul\":38540:38546   */\n      dup4\n        /* \"#utility.yul\":38537:38551   */\n      gt\n        /* \"#utility.yul\":38565:38566   */\n      0x01\n        /* \"#utility.yul\":38560:39178   */\n      dup2\n      eq\n      tag_696\n      jumpi\n        /* \"#utility.yul\":39222:39223   */\n      0x00\n        /* \"#utility.yul\":39239:39245   */\n      dup5\n        /* \"#utility.yul\":39236:39313   */\n      iszero\n      tag_697\n      jumpi\n        /* \"#utility.yul\":39288:39297   */\n      dup3\n        /* \"#utility.yul\":39283:39286   */\n      dup8\n        /* \"#utility.yul\":39279:39298   */\n      add\n        /* \"#utility.yul\":39273:39299   */\n      mload\n        /* \"#utility.yul\":39264:39299   */\n      swap1\n      pop\n        /* \"#utility.yul\":39236:39313   */\n    tag_697:\n        /* \"#utility.yul\":39339:39406   */\n      tag_698\n        /* \"#utility.yul\":39399:39405   */\n      dup6\n        /* \"#utility.yul\":39392:39397   */\n      dup3\n        /* \"#utility.yul\":39339:39406   */\n      tag_340\n      jump\t// in\n    tag_698:\n        /* \"#utility.yul\":39333:39337   */\n      dup7\n        /* \"#utility.yul\":39326:39407   */\n      sstore\n        /* \"#utility.yul\":39195:39417   */\n      pop\n        /* \"#utility.yul\":38530:39417   */\n      jump(tag_695)\n        /* \"#utility.yul\":38560:39178   */\n    tag_696:\n        /* \"#utility.yul\":38612:38616   */\n      0x1f\n        /* \"#utility.yul\":38608:38617   */\n      not\n        /* \"#utility.yul\":38600:38606   */\n      dup5\n        /* \"#utility.yul\":38596:38618   */\n      and\n        /* \"#utility.yul\":38646:38683   */\n      tag_699\n        /* \"#utility.yul\":38678:38682   */\n      dup7\n        /* \"#utility.yul\":38646:38683   */\n      tag_326\n      jump\t// in\n    tag_699:\n        /* \"#utility.yul\":38705:38706   */\n      0x00\n        /* \"#utility.yul\":38719:38927   */\n    tag_700:\n        /* \"#utility.yul\":38733:38740   */\n      dup3\n        /* \"#utility.yul\":38730:38731   */\n      dup2\n        /* \"#utility.yul\":38727:38741   */\n      lt\n        /* \"#utility.yul\":38719:38927   */\n      iszero\n      tag_702\n      jumpi\n        /* \"#utility.yul\":38812:38821   */\n      dup5\n        /* \"#utility.yul\":38807:38810   */\n      dup10\n        /* \"#utility.yul\":38803:38822   */\n      add\n        /* \"#utility.yul\":38797:38823   */\n      mload\n        /* \"#utility.yul\":38789:38795   */\n      dup3\n        /* \"#utility.yul\":38782:38824   */\n      sstore\n        /* \"#utility.yul\":38863:38864   */\n      0x01\n        /* \"#utility.yul\":38855:38861   */\n      dup3\n        /* \"#utility.yul\":38851:38865   */\n      add\n        /* \"#utility.yul\":38841:38865   */\n      swap2\n      pop\n        /* \"#utility.yul\":38910:38912   */\n      0x20\n        /* \"#utility.yul\":38899:38908   */\n      dup6\n        /* \"#utility.yul\":38895:38913   */\n      add\n        /* \"#utility.yul\":38882:38913   */\n      swap5\n      pop\n        /* \"#utility.yul\":38756:38760   */\n      0x20\n        /* \"#utility.yul\":38753:38754   */\n      dup2\n        /* \"#utility.yul\":38749:38761   */\n      add\n        /* \"#utility.yul\":38744:38761   */\n      swap1\n      pop\n        /* \"#utility.yul\":38719:38927   */\n      jump(tag_700)\n    tag_702:\n        /* \"#utility.yul\":38955:38961   */\n      dup7\n        /* \"#utility.yul\":38946:38953   */\n      dup4\n        /* \"#utility.yul\":38943:38962   */\n      lt\n        /* \"#utility.yul\":38940:39119   */\n      iszero\n      tag_703\n      jumpi\n        /* \"#utility.yul\":39013:39022   */\n      dup5\n        /* \"#utility.yul\":39008:39011   */\n      dup10\n        /* \"#utility.yul\":39004:39023   */\n      add\n        /* \"#utility.yul\":38998:39024   */\n      mload\n        /* \"#utility.yul\":39056:39104   */\n      tag_704\n        /* \"#utility.yul\":39098:39102   */\n      0x1f\n        /* \"#utility.yul\":39090:39096   */\n      dup10\n        /* \"#utility.yul\":39086:39103   */\n      and\n        /* \"#utility.yul\":39075:39084   */\n      dup3\n        /* \"#utility.yul\":39056:39104   */\n      tag_339\n      jump\t// in\n    tag_704:\n        /* \"#utility.yul\":39048:39054   */\n      dup4\n        /* \"#utility.yul\":39041:39105   */\n      sstore\n        /* \"#utility.yul\":38963:39119   */\n      pop\n        /* \"#utility.yul\":38940:39119   */\n    tag_703:\n        /* \"#utility.yul\":39165:39166   */\n      0x01\n        /* \"#utility.yul\":39161:39162   */\n      0x02\n        /* \"#utility.yul\":39153:39159   */\n      dup9\n        /* \"#utility.yul\":39149:39163   */\n      mul\n        /* \"#utility.yul\":39145:39167   */\n      add\n        /* \"#utility.yul\":39139:39143   */\n      dup9\n        /* \"#utility.yul\":39132:39168   */\n      sstore\n        /* \"#utility.yul\":38567:39178   */\n      pop\n      pop\n      pop\n        /* \"#utility.yul\":38530:39417   */\n    tag_695:\n      pop\n        /* \"#utility.yul\":38120:39423   */\n      pop\n      pop\n      pop\n        /* \"#utility.yul\":38028:39423   */\n      pop\n      pop\n      jump\t// out\n        /* \"#utility.yul\":39429:39602   */\n    tag_341:\n        /* \"#utility.yul\":39569:39594   */\n      0x41646d696e20494420616c726561647920657869737473000000000000000000\n        /* \"#utility.yul\":39565:39566   */\n      0x00\n        /* \"#utility.yul\":39557:39563   */\n      dup3\n        /* \"#utility.yul\":39553:39567   */\n      add\n        /* \"#utility.yul\":39546:39595   */\n      mstore\n        /* \"#utility.yul\":39429:39602   */\n      pop\n      jump\t// out\n        /* \"#utility.yul\":39608:39974   */\n    tag_342:\n        /* \"#utility.yul\":39750:39753   */\n      0x00\n        /* \"#utility.yul\":39771:39838   */\n      tag_707\n        /* \"#utility.yul\":39835:39837   */\n      0x17\n        /* \"#utility.yul\":39830:39833   */\n      dup4\n        /* \"#utility.yul\":39771:39838   */\n      tag_280\n      jump\t// in\n    tag_707:\n        /* \"#utility.yul\":39764:39838   */\n      swap2\n      pop\n        /* \"#utility.yul\":39847:39940   */\n      tag_708\n        /* \"#utility.yul\":39936:39939   */\n      dup3\n        /* \"#utility.yul\":39847:39940   */\n      tag_341\n      jump\t// in\n    tag_708:\n        /* \"#utility.yul\":39965:39967   */\n      0x20\n        /* \"#utility.yul\":39960:39963   */\n      dup3\n        /* \"#utility.yul\":39956:39968   */\n      add\n        /* \"#utility.yul\":39949:39968   */\n      swap1\n      pop\n        /* \"#utility.yul\":39608:39974   */\n      swap2\n      swap1\n      pop\n      jump\t// out\n        /* \"#utility.yul\":39980:40399   */\n    tag_209:\n        /* \"#utility.yul\":40146:40150   */\n      0x00\n        /* \"#utility.yul\":40184:40186   */\n      0x20\n        /* \"#utility.yul\":40173:40182   */\n      dup3\n        /* \"#utility.yul\":40169:40187   */\n      add\n        /* \"#utility.yul\":40161:40187   */\n      swap1\n      pop\n        /* \"#utility.yul\":40233:40242   */\n      dup2\n        /* \"#utility.yul\":40227:40231   */\n      dup2\n        /* \"#utility.yul\":40223:40243   */\n      sub\n        /* \"#utility.yul\":40219:40220   */\n      0x00\n        /* \"#utility.yul\":40208:40217   */\n      dup4\n        /* \"#utility.yul\":40204:40221   */\n      add\n        /* \"#utility.yul\":40197:40244   */\n      mstore\n        /* \"#utility.yul\":40261:40392   */\n      tag_710\n        /* \"#utility.yul\":40387:40391   */\n      dup2\n        /* \"#utility.yul\":40261:40392   */\n      tag_342\n      jump\t// in\n    tag_710:\n        /* \"#utility.yul\":40253:40392   */\n      swap1\n      pop\n        /* \"#utility.yul\":39980:40399   */\n      swap2\n      swap1\n      pop\n      jump\t// out\n        /* \"#utility.yul\":40405:40584   */\n    tag_343:\n        /* \"#utility.yul\":40545:40576   */\n      0x5061727469636970616e7420494420616c726561647920657869737473000000\n        /* \"#utility.yul\":40541:40542   */\n      0x00\n        /* \"#utility.yul\":40533:40539   */\n      dup3\n        /* \"#utility.yul\":40529:40543   */\n      add\n        /* \"#utility.yul\":40522:40577   */\n      mstore\n        /* \"#utility.yul\":40405:40584   */\n      pop\n      jump\t// out\n        /* \"#utility.yul\":40590:40956   */\n    tag_344:\n        /* \"#utility.yul\":40732:40735   */\n      0x00\n        /* \"#utility.yul\":40753:40820   */\n      tag_713\n        /* \"#utility.yul\":40817:40819   */\n      0x1d\n        /* \"#utility.yul\":40812:40815   */\n      dup4\n        /* \"#utility.yul\":40753:40820   */\n      tag_280\n      jump\t// in\n    tag_713:\n        /* \"#utility.yul\":40746:40820   */\n      swap2\n      pop\n        /* \"#utility.yul\":40829:40922   */\n      tag_714\n        /* \"#utility.yul\":40918:40921   */\n      dup3\n        /* \"#utility.yul\":40829:40922   */\n      tag_343\n      jump\t// in\n    tag_714:\n        /* \"#utility.yul\":40947:40949   */\n      0x20\n        /* \"#utility.yul\":40942:40945   */\n      dup3\n        /* \"#utility.yul\":40938:40950   */\n      add\n        /* \"#utility.yul\":40931:40950   */\n      swap1\n      pop\n        /* \"#utility.yul\":40590:40956   */\n      swap2\n      swap1\n      pop\n      jump\t// out\n        /* \"#utility.yul\":40962:41381   */\n    tag_219:\n        /* \"#utility.yul\":41128:41132   */\n      0x00\n        /* \"#utility.yul\":41166:41168   */\n      0x20\n        /* \"#utility.yul\":41155:41164   */\n      dup3\n        /* \"#utility.yul\":41151:41169   */\n      add\n        /* \"#utility.yul\":41143:41169   */\n      swap1\n      pop\n        /* \"#utility.yul\":41215:41224   */\n      dup2\n        /* \"#utility.yul\":41209:41213   */\n      dup2\n        /* \"#utility.yul\":41205:41225   */\n      sub\n        /* \"#utility.yul\":41201:41202   */\n      0x00\n        /* \"#utility.yul\":41190:41199   */\n      dup4\n        /* \"#utility.yul\":41186:41203   */\n      add\n        /* \"#utility.yul\":41179:41226   */\n      mstore\n        /* \"#utility.yul\":41243:41374   */\n      tag_716\n        /* \"#utility.yul\":41369:41373   */\n      dup2\n        /* \"#utility.yul\":41243:41374   */\n      tag_344\n      jump\t// in\n    tag_716:\n        /* \"#utility.yul\":41235:41374   */\n      swap1\n      pop\n        /* \"#utility.yul\":40962:41381   */\n      swap2\n      swap1\n      pop\n      jump\t// out\n        /* \"#utility.yul\":41387:41538   */\n    tag_345:\n        /* \"#utility.yul\":41527:41530   */\n      0x3000000000000000000000000000000000000000000000000000000000000000\n        /* \"#utility.yul\":41523:41524   */\n      0x00\n        /* \"#utility.yul\":41515:41521   */\n      dup3\n        /* \"#utility.yul\":41511:41525   */\n      add\n        /* \"#utility.yul\":41504:41531   */\n      mstore\n        /* \"#utility.yul\":41387:41538   */\n      pop\n      jump\t// out\n        /* \"#utility.yul\":41544:41944   */\n    tag_346:\n        /* \"#utility.yul\":41704:41707   */\n      0x00\n        /* \"#utility.yul\":41725:41809   */\n      tag_719\n        /* \"#utility.yul\":41807:41808   */\n      0x01\n        /* \"#utility.yul\":41802:41805   */\n      dup4\n        /* \"#utility.yul\":41725:41809   */\n      tag_303\n      jump\t// in\n    tag_719:\n        /* \"#utility.yul\":41718:41809   */\n      swap2\n      pop\n        /* \"#utility.yul\":41818:41911   */\n      tag_720\n        /* \"#utility.yul\":41907:41910   */\n      dup3\n        /* \"#utility.yul\":41818:41911   */\n      tag_345\n      jump\t// in\n    tag_720:\n        /* \"#utility.yul\":41936:41937   */\n      0x01\n        /* \"#utility.yul\":41931:41934   */\n      dup3\n        /* \"#utility.yul\":41927:41938   */\n      add\n        /* \"#utility.yul\":41920:41938   */\n      swap1\n      pop\n        /* \"#utility.yul\":41544:41944   */\n      swap2\n      swap1\n      pop\n      jump\t// out\n        /* \"#utility.yul\":41950:42099   */\n    tag_347:\n        /* \"#utility.yul\":41986:41993   */\n      0x00\n        /* \"#utility.yul\":42026:42092   */\n      0xff00000000000000000000000000000000000000000000000000000000000000\n        /* \"#utility.yul\":42019:42024   */\n      dup3\n        /* \"#utility.yul\":42015:42093   */\n      and\n        /* \"#utility.yul\":42004:42093   */\n      swap1\n      pop\n        /* \"#utility.yul\":41950:42099   */\n      swap2\n      swap1\n      pop\n      jump\t// out\n        /* \"#utility.yul\":42105:42183   */\n    tag_348:\n        /* \"#utility.yul\":42143:42150   */\n      0x00\n        /* \"#utility.yul\":42172:42177   */\n      dup2\n        /* \"#utility.yul\":42161:42177   */\n      swap1\n      pop\n        /* \"#utility.yul\":42105:42183   */\n      swap2\n      swap1\n      pop\n      jump\t// out\n        /* \"#utility.yul\":42189:42342   */\n    tag_349:\n        /* \"#utility.yul\":42292:42335   */\n      tag_724\n        /* \"#utility.yul\":42311:42334   */\n      tag_725\n        /* \"#utility.yul\":42328:42333   */\n      dup3\n        /* \"#utility.yul\":42311:42334   */\n      tag_347\n      jump\t// in\n    tag_725:\n        /* \"#utility.yul\":42292:42335   */\n      tag_348\n      jump\t// in\n    tag_724:\n        /* \"#utility.yul\":42287:42290   */\n      dup3\n        /* \"#utility.yul\":42280:42336   */\n      mstore\n        /* \"#utility.yul\":42189:42342   */\n      pop\n      pop\n      jump\t// out\n        /* \"#utility.yul\":42348:42865   */\n    tag_236:\n        /* \"#utility.yul\":42559:42562   */\n      0x00\n        /* \"#utility.yul\":42581:42729   */\n      tag_727\n        /* \"#utility.yul\":42725:42728   */\n      dup3\n        /* \"#utility.yul\":42581:42729   */\n      tag_346\n      jump\t// in\n    tag_727:\n        /* \"#utility.yul\":42574:42729   */\n      swap2\n      pop\n        /* \"#utility.yul\":42739:42812   */\n      tag_728\n        /* \"#utility.yul\":42808:42811   */\n      dup3\n        /* \"#utility.yul\":42799:42805   */\n      dup5\n        /* \"#utility.yul\":42739:42812   */\n      tag_349\n      jump\t// in\n    tag_728:\n        /* \"#utility.yul\":42837:42838   */\n      0x01\n        /* \"#utility.yul\":42832:42835   */\n      dup3\n        /* \"#utility.yul\":42828:42839   */\n      add\n        /* \"#utility.yul\":42821:42839   */\n      swap2\n      pop\n        /* \"#utility.yul\":42856:42859   */\n      dup2\n        /* \"#utility.yul\":42849:42859   */\n      swap1\n      pop\n        /* \"#utility.yul\":42348:42865   */\n      swap3\n      swap2\n      pop\n      pop\n      jump\t// out\n\n    auxdata: 0xa2646970667358221220fa8158059199163cec0f71f018259f84e12b38f1e53f4223967d0eaa7066f78164736f6c634300081e0033\n}\n",
				"bytecode": {
					"linkReferences": {},
					"object": "6080604052348015600e575f5ffd5b50612b1b8061001c5f395ff3fe608060405234801561000f575f5ffd5b5060043610610086575f3560e01c80636620f95f116100595780636620f95f1461012d5780636c80cd331461015d578063710e2aba1461018d578063a30b027b146101bd57610086565b80633a7002e11461008a57806351eca4dd146100a65780635a29dc29146100d75780635ffc80f2146100f6575b5f5ffd5b6100a4600480360381019061009f9190611674565b6101ed565b005b6100c060048036038101906100bb91906116c4565b6103dc565b6040516100ce9291906118d1565b60405180910390f35b6100df61075e565b6040516100ed929190611906565b60405180910390f35b610110600480360381019061010b91906116c4565b6108a7565b6040516101249897969594939291906119a1565b60405180910390f35b61014760048036038101906101429190611a32565b610b9d565b6040516101549190611a82565b60405180910390f35b61017760048036038101906101729190611bc7565b610ef3565b6040516101849190611c63565b60405180910390f35b6101a760048036038101906101a29190611c7c565b61104b565b6040516101b49190611c63565b60405180910390f35b6101d760048036038101906101d29190611ce8565b61120e565b6040516101e49190611c63565b60405180910390f35b60015f3373ffffffffffffffffffffffffffffffffffffffff1673ffffffffffffffffffffffffffffffffffffffff1681526020019081526020015f205f9054906101000a900460ff16610276576040517f08c379a000000000000000000000000000000000000000000000000000000000815260040161026d90611e49565b60405180910390fd5b5f60035f8581526020019081526020015f205f0154036102cb576040517f08c379a00000000000000000000000000000000000000000000000000000000081526004016102c290611eb1565b60405180910390fd5b600282111561030f576040517f08c379a000000000000000000000000000000000000000000000000000000000815260040161030690611f19565b60405180910390fd5b5f60035f8581526020019081526020015f2090508060050160019054906101000a900460ff16158061033e5750815b61037d576040517f08c379a000000000000000000000000000000000000000000000000000000000815260040161037490611fa7565b60405180910390fd5b8260028111156103905761038f611fc5565b5b816005015f6101000a81548160ff021916908360028111156103b5576103b4611fc5565b5b0217905550818160050160016101000a81548160ff02191690831515021790555050505050565b6060805f60025f8581526020019081526020015f205f015403610434576040517f08c379a000000000000000000000000000000000000000000000000000000000815260040161042b9061203c565b60405180910390fd5b5f5f90505f5f90505b60308110156104965760045f8681526020019081526020015f205f8281526020019081526020015f206003015f9054906101000a900460ff1661048957818061048590612087565b9250505b808060010191505061043d565b508067ffffffffffffffff8111156104b1576104b0611aa3565b5b6040519080825280602002602001820160405280156104df5781602001602082028036833780820191505090505b5092508067ffffffffffffffff8111156104fc576104fb611aa3565b5b60405190808252806020026020018201604052801561052f57816020015b606081526020019060019003908161051a5790505b5091505f5f90505f5f90505b60308110156107565760045f8781526020019081526020015f205f8281526020019081526020015f206003015f9054906101000a900460ff16610749578085838151811061058c5761058b6120ce565b5b6020026020010181815250505f6002826105a69190612128565b90505f601e6002846105b89190612158565b6105c29190612188565b90505f8290505f601e836105d691906121c9565b9050603c81036105f25781806105eb90612087565b9250505f90505b6105fb84611463565b5f841461063d576040518060400160405280600281526020017f3330000000000000000000000000000000000000000000000000000000000000815250610674565b6040518060400160405280600281526020017f30300000000000000000000000000000000000000000000000000000000000008152505b61067d84611463565b5f84146106bf576040518060400160405280600281526020017f33300000000000000000000000000000000000000000000000000000000000008152506106f6565b6040518060400160405280600281526020017f30300000000000000000000000000000000000000000000000000000000000008152505b60405160200161070994939291906122ca565b60405160208183030381529060405288878151811061072b5761072a6120ce565b5b6020026020010181905250858061074190612087565b965050505050505b808060010191505061053b565b505050915091565b6060805f60058054905090508067ffffffffffffffff81111561078457610783611aa3565b5b6040519080825280602002602001820160405280156107b25781602001602082028036833780820191505090505b5092508067ffffffffffffffff8111156107cf576107ce611aa3565b5b6040519080825280602002602001820160405280156107fd5781602001602082028036833780820191505090505b5091505f5f90505b818110156108a1575f60058281548110610822576108216120ce565b5b905f5260205f200154905080858381518110610841576108406120ce565b5b602002602001018181525050670de0b6b3a76400005f5f8381526020019081526020015f20600301546108749190612128565b848381518110610887576108866120ce565b5b602002602001018181525050508080600101915050610805565b50509091565b5f60605f6060805f5f5f5f60035f8b81526020019081526020015f205f015403610906576040517f08c379a00000000000000000000000000000000000000000000000000000000081526004016108fd90611eb1565b60405180910390fd5b5f60035f8b81526020019081526020015f20604051806101000160405290815f820154815260200160018201805461093d90612355565b80601f016020809104026020016040519081016040528092919081815260200182805461096990612355565b80156109b45780601f1061098b576101008083540402835291602001916109b4565b820191905f5260205f20905b81548152906001019060200180831161099757829003601f168201915b50505050508152602001600282015481526020016003820180546109d790612355565b80601f0160208091040260200160405190810160405280929190818152602001828054610a0390612355565b8015610a4e5780601f10610a2557610100808354040283529160200191610a4e565b820191905f5260205f20905b815481529060010190602001808311610a3157829003601f168201915b50505050508152602001600482018054610a6790612355565b80601f0160208091040260200160405190810160405280929190818152602001828054610a9390612355565b8015610ade5780601f10610ab557610100808354040283529160200191610ade565b820191905f5260205f20905b815481529060010190602001808311610ac157829003601f168201915b50505050508152602001600582015f9054906101000a900460ff166002811115610b0b57610b0a611fc5565b5b6002811115610b1d57610b1c611fc5565b5b81526020016005820160019054906101000a900460ff161515151581526020016006820154815250509050805f015181602001518260400151836060015184608001518560a001516002811115610b7757610b76611fc5565b5b8660c001518760e001519850985098509850985098509850985050919395975091939597565b5f5f60025f8681526020019081526020015f205f015403610bf3576040517f08c379a0000000000000000000000000000000000000000000000000000000008152600401610bea9061203c565b60405180910390fd5b5f60035f8581526020019081526020015f205f015403610c48576040517f08c379a0000000000000000000000000000000000000000000000000000000008152600401610c3f90611eb1565b60405180910390fd5b670de0b6b3a764000060035f8581526020019081526020015f20600601541015610ca7576040517f08c379a0000000000000000000000000000000000000000000000000000000008152600401610c9e906123cf565b60405180910390fd5b5f60058054905011610cee576040517f08c379a0000000000000000000000000000000000000000000000000000000008152600401610ce590612437565b60405180910390fd5b60308210610d31576040517f08c379a0000000000000000000000000000000000000000000000000000000008152600401610d289061249f565b60405180910390fd5b60045f8581526020019081526020015f205f8381526020019081526020015f206003015f9054906101000a900460ff1615610da1576040517f08c379a0000000000000000000000000000000000000000000000000000000008152600401610d9890612507565b60405180910390fd5b60405180608001604052808381526020018581526020018481526020016001151581525060045f8681526020019081526020015f205f8481526020019081526020015f205f820151815f015560208201518160010155604082015181600201556060820151816003015f6101000a81548160ff0219169083151502179055509050505f600580549050424486604051602001610e3f93929190612545565b604051602081830303815290604052805190602001205f1c610e619190612158565b90505f60058281548110610e7857610e776120ce565b5b905f5260205f2001549050670de0b6b3a764000060035f8781526020019081526020015f206006015f828254610eae9190612581565b92505081905550670de0b6b3a76400005f5f8381526020019081526020015f206003015f828254610edf91906121c9565b925050819055506001925050509392505050565b5f5f8311610f36576040517f08c379a0000000000000000000000000000000000000000000000000000000008152600401610f2d906125fe565b60405180910390fd5b5f8511610f78576040517f08c379a0000000000000000000000000000000000000000000000000000000008152600401610f6f90612666565b60405180910390fd5b5f60025f8781526020019081526020015f205f015414610fcd576040517f08c379a0000000000000000000000000000000000000000000000000000000008152600401610fc4906126ce565b60405180910390fd5b60405180608001604052808681526020018581526020018481526020018381525060025f8781526020019081526020015f205f820151815f0155602082015181600101908161101c919061288c565b5060408201518160020155606082015181600301908161103c919061288c565b50905050849050949350505050565b5f5f821161108e576040517f08c379a0000000000000000000000000000000000000000000000000000000008152600401611085906125fe565b60405180910390fd5b5f84116110d0576040517f08c379a00000000000000000000000000000000000000000000000000000000081526004016110c790612666565b60405180910390fd5b5f5f5f8681526020019081526020015f205f015414611124576040517f08c379a000000000000000000000000000000000000000000000000000000000815260040161111b906129a5565b60405180910390fd5b60405180608001604052808581526020018481526020018381526020015f8152505f5f8681526020019081526020015f205f820151815f01556020820151816001019081611172919061288c565b506040820151816002015560608201518160030155905050600584908060018154018082558091505060019003905f5260205f20015f90919091909150556001805f3373ffffffffffffffffffffffffffffffffffffffff1673ffffffffffffffffffffffffffffffffffffffff1681526020019081526020015f205f6101000a81548160ff0219169083151502179055508390509392505050565b5f5f8611611251576040517f08c379a0000000000000000000000000000000000000000000000000000000008152600401611248906125fe565b60405180910390fd5b5f8811611293576040517f08c379a000000000000000000000000000000000000000000000000000000000815260040161128a90612666565b60405180910390fd5b5f60035f8a81526020019081526020015f205f0154146112e8576040517f08c379a00000000000000000000000000000000000000000000000000000000081526004016112df90612a0d565b60405180910390fd5b600283111561132c576040517f08c379a000000000000000000000000000000000000000000000000000000000815260040161132390611f19565b60405180910390fd5b60405180610100016040528089815260200188815260200187815260200186815260200185815260200184600281111561136957611368611fc5565b5b600281111561137b5761137a611fc5565b5b81526020018315158152602001678ac7230489e8000081525060035f8a81526020019081526020015f205f820151815f015560208201518160010190816113c2919061288c565b506040820151816002015560608201518160030190816113e2919061288c565b5060808201518160040190816113f8919061288c565b5060a0820151816005015f6101000a81548160ff0219169083600281111561142357611422611fc5565b5b021790555060c08201518160050160016101000a81548160ff02191690831515021790555060e08201518160060155905050879050979650505050505050565b60605f82036114a9576040518060400160405280600181526020017f300000000000000000000000000000000000000000000000000000000000000081525090506115f6565b600a8210156114e8578160306114bf91906121c9565b60f81b6040516020016114d29190612ac0565b60405160208183030381529060405290506115f6565b5f8290505f5b5f821461151757808061150090612087565b915050600a826115109190612128565b91506114ee565b5f8167ffffffffffffffff81111561153257611531611aa3565b5b6040519080825280601f01601f1916602001820160405280156115645781602001600182028036833780820191505090505b5090505b5f85146115ef5760018261157c9190612581565b9150600a8561158b9190612158565b603061159791906121c9565b60f81b8183815181106115ad576115ac6120ce565b5b60200101907effffffffffffffffffffffffffffffffffffffffffffffffffffffffffffff191690815f1a905350600a856115e89190612128565b9450611568565b8093505050505b919050565b5f604051905090565b5f5ffd5b5f5ffd5b5f819050919050565b61161e8161160c565b8114611628575f5ffd5b50565b5f8135905061163981611615565b92915050565b5f8115159050919050565b6116538161163f565b811461165d575f5ffd5b50565b5f8135905061166e8161164a565b92915050565b5f5f5f6060848603121561168b5761168a611604565b5b5f6116988682870161162b565b93505060206116a98682870161162b565b92505060406116ba86828701611660565b9150509250925092565b5f602082840312156116d9576116d8611604565b5b5f6116e68482850161162b565b91505092915050565b5f81519050919050565b5f82825260208201905092915050565b5f819050602082019050919050565b6117218161160c565b82525050565b5f6117328383611718565b60208301905092915050565b5f602082019050919050565b5f611754826116ef565b61175e81856116f9565b935061176983611709565b805f5b838110156117995781516117808882611727565b975061178b8361173e565b92505060018101905061176c565b5085935050505092915050565b5f81519050919050565b5f82825260208201905092915050565b5f819050602082019050919050565b5f81519050919050565b5f82825260208201905092915050565b8281835e5f83830152505050565b5f601f19601f8301169050919050565b5f611811826117cf565b61181b81856117d9565b935061182b8185602086016117e9565b611834816117f7565b840191505092915050565b5f61184a8383611807565b905092915050565b5f602082019050919050565b5f611868826117a6565b61187281856117b0565b935083602082028501611884856117c0565b805f5b858110156118bf57848403895281516118a0858261183f565b94506118ab83611852565b925060208a01995050600181019050611887565b50829750879550505050505092915050565b5f6040820190508181035f8301526118e9818561174a565b905081810360208301526118fd818461185e565b90509392505050565b5f6040820190508181035f83015261191e818561174a565b90508181036020830152611932818461174a565b90509392505050565b6119448161160c565b82525050565b5f82825260208201905092915050565b5f611964826117cf565b61196e818561194a565b935061197e8185602086016117e9565b611987816117f7565b840191505092915050565b61199b8161163f565b82525050565b5f610100820190506119b55f83018b61193b565b81810360208301526119c7818a61195a565b90506119d6604083018961193b565b81810360608301526119e8818861195a565b905081810360808301526119fc818761195a565b9050611a0b60a083018661193b565b611a1860c0830185611992565b611a2560e083018461193b565b9998505050505050505050565b5f5f5f60608486031215611a4957611a48611604565b5b5f611a568682870161162b565b9350506020611a678682870161162b565b9250506040611a788682870161162b565b9150509250925092565b5f602082019050611a955f830184611992565b92915050565b5f5ffd5b5f5ffd5b7f4e487b71000000000000000000000000000000000000000000000000000000005f52604160045260245ffd5b611ad9826117f7565b810181811067ffffffffffffffff82111715611af857611af7611aa3565b5b80604052505050565b5f611b0a6115fb565b9050611b168282611ad0565b919050565b5f67ffffffffffffffff821115611b3557611b34611aa3565b5b611b3e826117f7565b9050602081019050919050565b828183375f83830152505050565b5f611b6b611b6684611b1b565b611b01565b905082815260208101848484011115611b8757611b86611a9f565b5b611b92848285611b4b565b509392505050565b5f82601f830112611bae57611bad611a9b565b5b8135611bbe848260208601611b59565b91505092915050565b5f5f5f5f60808587031215611bdf57611bde611604565b5b5f611bec8782880161162b565b945050602085013567ffffffffffffffff811115611c0d57611c0c611608565b5b611c1987828801611b9a565b9350506040611c2a8782880161162b565b925050606085013567ffffffffffffffff811115611c4b57611c4a611608565b5b611c5787828801611b9a565b91505092959194509250565b5f602082019050611c765f83018461193b565b92915050565b5f5f5f60608486031215611c9357611c92611604565b5b5f611ca08682870161162b565b935050602084013567ffffffffffffffff811115611cc157611cc0611608565b5b611ccd86828701611b9a565b9250506040611cde8682870161162b565b9150509250925092565b5f5f5f5f5f5f5f60e0888a031215611d0357611d02611604565b5b5f611d108a828b0161162b565b975050602088013567ffffffffffffffff811115611d3157611d30611608565b5b611d3d8a828b01611b9a565b9650506040611d4e8a828b0161162b565b955050606088013567ffffffffffffffff811115611d6f57611d6e611608565b5b611d7b8a828b01611b9a565b945050608088013567ffffffffffffffff811115611d9c57611d9b611608565b5b611da88a828b01611b9a565b93505060a0611db98a828b0161162b565b92505060c0611dca8a828b01611660565b91505092959891949750929550565b7f4f6e6c792061646d696e2063616e20706572666f726d207468697320616374695f8201527f6f6e000000000000000000000000000000000000000000000000000000000000602082015250565b5f611e3360228361194a565b9150611e3e82611dd9565b604082019050919050565b5f6020820190508181035f830152611e6081611e27565b9050919050565b7f5061727469636970616e74206e6f7420666f756e6400000000000000000000005f82015250565b5f611e9b60158361194a565b9150611ea682611e67565b602082019050919050565b5f6020820190508181035f830152611ec881611e8f565b9050919050565b7f496e76616c696420747261696e696e6720696e746572657374000000000000005f82015250565b5f611f0360198361194a565b9150611f0e82611ecf565b602082019050919050565b5f6020820190508181035f830152611f3081611ef7565b9050919050565b7f43616e6e6f74206368616e676520636f6d706c657465642066726f6d207472755f8201527f6520746f2066616c736500000000000000000000000000000000000000000000602082015250565b5f611f91602a8361194a565b9150611f9c82611f37565b604082019050919050565b5f6020820190508181035f830152611fbe81611f85565b9050919050565b7f4e487b71000000000000000000000000000000000000000000000000000000005f52602160045260245ffd5b7f547261696e6572206e6f7420666f756e640000000000000000000000000000005f82015250565b5f61202660118361194a565b915061203182611ff2565b602082019050919050565b5f6020820190508181035f8301526120538161201a565b9050919050565b7f4e487b71000000000000000000000000000000000000000000000000000000005f52601160045260245ffd5b5f6120918261160c565b91507fffffffffffffffffffffffffffffffffffffffffffffffffffffffffffffffff82036120c3576120c261205a565b5b600182019050919050565b7f4e487b71000000000000000000000000000000000000000000000000000000005f52603260045260245ffd5b7f4e487b71000000000000000000000000000000000000000000000000000000005f52601260045260245ffd5b5f6121328261160c565b915061213d8361160c565b92508261214d5761214c6120fb565b5b828204905092915050565b5f6121628261160c565b915061216d8361160c565b92508261217d5761217c6120fb565b5b828206905092915050565b5f6121928261160c565b915061219d8361160c565b92508282026121ab8161160c565b915082820484148315176121c2576121c161205a565b5b5092915050565b5f6121d38261160c565b91506121de8361160c565b92508282019050808211156121f6576121f561205a565b5b92915050565b5f81905092915050565b5f612210826117cf565b61221a81856121fc565b935061222a8185602086016117e9565b80840191505092915050565b7f3a000000000000000000000000000000000000000000000000000000000000005f82015250565b5f61226a6001836121fc565b915061227582612236565b600182019050919050565b7f2d000000000000000000000000000000000000000000000000000000000000005f82015250565b5f6122b46001836121fc565b91506122bf82612280565b600182019050919050565b5f6122d58287612206565b91506122e08261225e565b91506122ec8286612206565b91506122f7826122a8565b91506123038285612206565b915061230e8261225e565b915061231a8284612206565b915081905095945050505050565b7f4e487b71000000000000000000000000000000000000000000000000000000005f52602260045260245ffd5b5f600282049050600182168061236c57607f821691505b60208210810361237f5761237e612328565b5b50919050565b7f496e73756666696369656e74207061727469636970616e742062616c616e63655f82015250565b5f6123b960208361194a565b91506123c482612385565b602082019050919050565b5f6020820190508181035f8301526123e6816123ad565b9050919050565b7f4e6f2061646d696e7320617661696c61626c65000000000000000000000000005f82015250565b5f61242160138361194a565b915061242c826123ed565b602082019050919050565b5f6020820190508181035f83015261244e81612415565b9050919050565b7f496e76616c696420736c6f7420494400000000000000000000000000000000005f82015250565b5f612489600f8361194a565b915061249482612455565b602082019050919050565b5f6020820190508181035f8301526124b68161247d565b9050919050565b7f536c6f7420697320616c726561647920626f6f6b6564000000000000000000005f82015250565b5f6124f160168361194a565b91506124fc826124bd565b602082019050919050565b5f6020820190508181035f83015261251e816124e5565b9050919050565b5f819050919050565b61253f61253a8261160c565b612525565b82525050565b5f612550828661252e565b602082019150612560828561252e565b602082019150612570828461252e565b602082019150819050949350505050565b5f61258b8261160c565b91506125968361160c565b92508282039050818111156125ae576125ad61205a565b5b92915050565b7f496e76616c6964206167650000000000000000000000000000000000000000005f82015250565b5f6125e8600b8361194a565b91506125f3826125b4565b602082019050919050565b5f6020820190508181035f830152612615816125dc565b9050919050565b7f496e76616c6964204944000000000000000000000000000000000000000000005f82015250565b5f612650600a8361194a565b915061265b8261261c565b602082019050919050565b5f6020820190508181035f83015261267d81612644565b9050919050565b7f547261696e657220494420616c726561647920657869737473000000000000005f82015250565b5f6126b860198361194a565b91506126c382612684565b602082019050919050565b5f6020820190508181035f8301526126e5816126ac565b9050919050565b5f819050815f5260205f209050919050565b5f6020601f8301049050919050565b5f82821b905092915050565b5f600883026127487fffffffffffffffffffffffffffffffffffffffffffffffffffffffffffffffff8261270d565b612752868361270d565b95508019841693508086168417925050509392505050565b5f819050919050565b5f61278d6127886127838461160c565b61276a565b61160c565b9050919050565b5f819050919050565b6127a683612773565b6127ba6127b282612794565b848454612719565b825550505050565b5f5f905090565b6127d16127c2565b6127dc81848461279d565b505050565b5b818110156127ff576127f45f826127c9565b6001810190506127e2565b5050565b601f82111561284457612815816126ec565b61281e846126fe565b8101602085101561282d578190505b612841612839856126fe565b8301826127e1565b50505b505050565b5f82821c905092915050565b5f6128645f1984600802612849565b1980831691505092915050565b5f61287c8383612855565b9150826002028217905092915050565b612895826117cf565b67ffffffffffffffff8111156128ae576128ad611aa3565b5b6128b88254612355565b6128c3828285612803565b5f60209050601f8311600181146128f4575f84156128e2578287015190505b6128ec8582612871565b865550612953565b601f198416612902866126ec565b5f5b8281101561292957848901518255600182019150602085019450602081019050612904565b868310156129465784890151612942601f891682612855565b8355505b6001600288020188555050505b505050505050565b7f41646d696e20494420616c7265616479206578697374730000000000000000005f82015250565b5f61298f60178361194a565b915061299a8261295b565b602082019050919050565b5f6020820190508181035f8301526129bc81612983565b9050919050565b7f5061727469636970616e7420494420616c7265616479206578697374730000005f82015250565b5f6129f7601d8361194a565b9150612a02826129c3565b602082019050919050565b5f6020820190508181035f830152612a24816129eb565b9050919050565b7f30000000000000000000000000000000000000000000000000000000000000005f82015250565b5f612a5f6001836121fc565b9150612a6a82612a2b565b600182019050919050565b5f7fff0000000000000000000000000000000000000000000000000000000000000082169050919050565b5f819050919050565b612aba612ab582612a75565b612aa0565b82525050565b5f612aca82612a53565b9150612ad68284612aa9565b6001820191508190509291505056fea2646970667358221220fa8158059199163cec0f71f018259f84e12b38f1e53f4223967d0eaa7066f78164736f6c634300081e0033",
					"opcodes": "PUSH1 0x80 PUSH1 0x40 MSTORE CALLVALUE DUP1 ISZERO PUSH1 0xE JUMPI PUSH0 PUSH0 REVERT JUMPDEST POP PUSH2 0x2B1B DUP1 PUSH2 0x1C PUSH0 CODECOPY PUSH0 RETURN INVALID PUSH1 0x80 PUSH1 0x40 MSTORE CALLVALUE DUP1 ISZERO PUSH2 0xF JUMPI PUSH0 PUSH0 REVERT JUMPDEST POP PUSH1 0x4 CALLDATASIZE LT PUSH2 0x86 JUMPI PUSH0 CALLDATALOAD PUSH1 0xE0 SHR DUP1 PUSH4 0x6620F95F GT PUSH2 0x59 JUMPI DUP1 PUSH4 0x6620F95F EQ PUSH2 0x12D JUMPI DUP1 PUSH4 0x6C80CD33 EQ PUSH2 0x15D JUMPI DUP1 PUSH4 0x710E2ABA EQ PUSH2 0x18D JUMPI DUP1 PUSH4 0xA30B027B EQ PUSH2 0x1BD JUMPI PUSH2 0x86 JUMP JUMPDEST DUP1 PUSH4 0x3A7002E1 EQ PUSH2 0x8A JUMPI DUP1 PUSH4 0x51ECA4DD EQ PUSH2 0xA6 JUMPI DUP1 PUSH4 0x5A29DC29 EQ PUSH2 0xD7 JUMPI DUP1 PUSH4 0x5FFC80F2 EQ PUSH2 0xF6 JUMPI JUMPDEST PUSH0 PUSH0 REVERT JUMPDEST PUSH2 0xA4 PUSH1 0x4 DUP1 CALLDATASIZE SUB DUP2 ADD SWAP1 PUSH2 0x9F SWAP2 SWAP1 PUSH2 0x1674 JUMP JUMPDEST PUSH2 0x1ED JUMP JUMPDEST STOP JUMPDEST PUSH2 0xC0 PUSH1 0x4 DUP1 CALLDATASIZE SUB DUP2 ADD SWAP1 PUSH2 0xBB SWAP2 SWAP1 PUSH2 0x16C4 JUMP JUMPDEST PUSH2 0x3DC JUMP JUMPDEST PUSH1 0x40 MLOAD PUSH2 0xCE SWAP3 SWAP2 SWAP1 PUSH2 0x18D1 JUMP JUMPDEST PUSH1 0x40 MLOAD DUP1 SWAP2 SUB SWAP1 RETURN JUMPDEST PUSH2 0xDF PUSH2 0x75E JUMP JUMPDEST PUSH1 0x40 MLOAD PUSH2 0xED SWAP3 SWAP2 SWAP1 PUSH2 0x1906 JUMP JUMPDEST PUSH1 0x40 MLOAD DUP1 SWAP2 SUB SWAP1 RETURN JUMPDEST PUSH2 0x110 PUSH1 0x4 DUP1 CALLDATASIZE SUB DUP2 ADD SWAP1 PUSH2 0x10B SWAP2 SWAP1 PUSH2 0x16C4 JUMP JUMPDEST PUSH2 0x8A7 JUMP JUMPDEST PUSH1 0x40 MLOAD PUSH2 0x124 SWAP9 SWAP8 SWAP7 SWAP6 SWAP5 SWAP4 SWAP3 SWAP2 SWAP1 PUSH2 0x19A1 JUMP JUMPDEST PUSH1 0x40 MLOAD DUP1 SWAP2 SUB SWAP1 RETURN JUMPDEST PUSH2 0x147 PUSH1 0x4 DUP1 CALLDATASIZE SUB DUP2 ADD SWAP1 PUSH2 0x142 SWAP2 SWAP1 PUSH2 0x1A32 JUMP JUMPDEST PUSH2 0xB9D JUMP JUMPDEST PUSH1 0x40 MLOAD PUSH2 0x154 SWAP2 SWAP1 PUSH2 0x1A82 JUMP JUMPDEST PUSH1 0x40 MLOAD DUP1 SWAP2 SUB SWAP1 RETURN JUMPDEST PUSH2 0x177 PUSH1 0x4 DUP1 CALLDATASIZE SUB DUP2 ADD SWAP1 PUSH2 0x172 SWAP2 SWAP1 PUSH2 0x1BC7 JUMP JUMPDEST PUSH2 0xEF3 JUMP JUMPDEST PUSH1 0x40 MLOAD PUSH2 0x184 SWAP2 SWAP1 PUSH2 0x1C63 JUMP JUMPDEST PUSH1 0x40 MLOAD DUP1 SWAP2 SUB SWAP1 RETURN JUMPDEST PUSH2 0x1A7 PUSH1 0x4 DUP1 CALLDATASIZE SUB DUP2 ADD SWAP1 PUSH2 0x1A2 SWAP2 SWAP1 PUSH2 0x1C7C JUMP JUMPDEST PUSH2 0x104B JUMP JUMPDEST PUSH1 0x40 MLOAD PUSH2 0x1B4 SWAP2 SWAP1 PUSH2 0x1C63 JUMP JUMPDEST PUSH1 0x40 MLOAD DUP1 SWAP2 SUB SWAP1 RETURN JUMPDEST PUSH2 0x1D7 PUSH1 0x4 DUP1 CALLDATASIZE SUB DUP2 ADD SWAP1 PUSH2 0x1D2 SWAP2 SWAP1 PUSH2 0x1CE8 JUMP JUMPDEST PUSH2 0x120E JUMP JUMPDEST PUSH1 0x40 MLOAD PUSH2 0x1E4 SWAP2 SWAP1 PUSH2 0x1C63 JUMP JUMPDEST PUSH1 0x40 MLOAD DUP1 SWAP2 SUB SWAP1 RETURN JUMPDEST PUSH1 0x1 PUSH0 CALLER PUSH20 0xFFFFFFFFFFFFFFFFFFFFFFFFFFFFFFFFFFFFFFFF AND PUSH20 0xFFFFFFFFFFFFFFFFFFFFFFFFFFFFFFFFFFFFFFFF AND DUP2 MSTORE PUSH1 0x20 ADD SWAP1 DUP2 MSTORE PUSH1 0x20 ADD PUSH0 KECCAK256 PUSH0 SWAP1 SLOAD SWAP1 PUSH2 0x100 EXP SWAP1 DIV PUSH1 0xFF AND PUSH2 0x276 JUMPI PUSH1 0x40 MLOAD PUSH32 0x8C379A000000000000000000000000000000000000000000000000000000000 DUP2 MSTORE PUSH1 0x4 ADD PUSH2 0x26D SWAP1 PUSH2 0x1E49 JUMP JUMPDEST PUSH1 0x40 MLOAD DUP1 SWAP2 SUB SWAP1 REVERT JUMPDEST PUSH0 PUSH1 0x3 PUSH0 DUP6 DUP2 MSTORE PUSH1 0x20 ADD SWAP1 DUP2 MSTORE PUSH1 0x20 ADD PUSH0 KECCAK256 PUSH0 ADD SLOAD SUB PUSH2 0x2CB JUMPI PUSH1 0x40 MLOAD PUSH32 0x8C379A000000000000000000000000000000000000000000000000000000000 DUP2 MSTORE PUSH1 0x4 ADD PUSH2 0x2C2 SWAP1 PUSH2 0x1EB1 JUMP JUMPDEST PUSH1 0x40 MLOAD DUP1 SWAP2 SUB SWAP1 REVERT JUMPDEST PUSH1 0x2 DUP3 GT ISZERO PUSH2 0x30F JUMPI PUSH1 0x40 MLOAD PUSH32 0x8C379A000000000000000000000000000000000000000000000000000000000 DUP2 MSTORE PUSH1 0x4 ADD PUSH2 0x306 SWAP1 PUSH2 0x1F19 JUMP JUMPDEST PUSH1 0x40 MLOAD DUP1 SWAP2 SUB SWAP1 REVERT JUMPDEST PUSH0 PUSH1 0x3 PUSH0 DUP6 DUP2 MSTORE PUSH1 0x20 ADD SWAP1 DUP2 MSTORE PUSH1 0x20 ADD PUSH0 KECCAK256 SWAP1 POP DUP1 PUSH1 0x5 ADD PUSH1 0x1 SWAP1 SLOAD SWAP1 PUSH2 0x100 EXP SWAP1 DIV PUSH1 0xFF AND ISZERO DUP1 PUSH2 0x33E JUMPI POP DUP2 JUMPDEST PUSH2 0x37D JUMPI PUSH1 0x40 MLOAD PUSH32 0x8C379A000000000000000000000000000000000000000000000000000000000 DUP2 MSTORE PUSH1 0x4 ADD PUSH2 0x374 SWAP1 PUSH2 0x1FA7 JUMP JUMPDEST PUSH1 0x40 MLOAD DUP1 SWAP2 SUB SWAP1 REVERT JUMPDEST DUP3 PUSH1 0x2 DUP2 GT ISZERO PUSH2 0x390 JUMPI PUSH2 0x38F PUSH2 0x1FC5 JUMP JUMPDEST JUMPDEST DUP2 PUSH1 0x5 ADD PUSH0 PUSH2 0x100 EXP DUP2 SLOAD DUP2 PUSH1 0xFF MUL NOT AND SWAP1 DUP4 PUSH1 0x2 DUP2 GT ISZERO PUSH2 0x3B5 JUMPI PUSH2 0x3B4 PUSH2 0x1FC5 JUMP JUMPDEST JUMPDEST MUL OR SWAP1 SSTORE POP DUP2 DUP2 PUSH1 0x5 ADD PUSH1 0x1 PUSH2 0x100 EXP DUP2 SLOAD DUP2 PUSH1 0xFF MUL NOT AND SWAP1 DUP4 ISZERO ISZERO MUL OR SWAP1 SSTORE POP POP POP POP POP JUMP JUMPDEST PUSH1 0x60 DUP1 PUSH0 PUSH1 0x2 PUSH0 DUP6 DUP2 MSTORE PUSH1 0x20 ADD SWAP1 DUP2 MSTORE PUSH1 0x20 ADD PUSH0 KECCAK256 PUSH0 ADD SLOAD SUB PUSH2 0x434 JUMPI PUSH1 0x40 MLOAD PUSH32 0x8C379A000000000000000000000000000000000000000000000000000000000 DUP2 MSTORE PUSH1 0x4 ADD PUSH2 0x42B SWAP1 PUSH2 0x203C JUMP JUMPDEST PUSH1 0x40 MLOAD DUP1 SWAP2 SUB SWAP1 REVERT JUMPDEST PUSH0 PUSH0 SWAP1 POP PUSH0 PUSH0 SWAP1 POP JUMPDEST PUSH1 0x30 DUP2 LT ISZERO PUSH2 0x496 JUMPI PUSH1 0x4 PUSH0 DUP7 DUP2 MSTORE PUSH1 0x20 ADD SWAP1 DUP2 MSTORE PUSH1 0x20 ADD PUSH0 KECCAK256 PUSH0 DUP3 DUP2 MSTORE PUSH1 0x20 ADD SWAP1 DUP2 MSTORE PUSH1 0x20 ADD PUSH0 KECCAK256 PUSH1 0x3 ADD PUSH0 SWAP1 SLOAD SWAP1 PUSH2 0x100 EXP SWAP1 DIV PUSH1 0xFF AND PUSH2 0x489 JUMPI DUP2 DUP1 PUSH2 0x485 SWAP1 PUSH2 0x2087 JUMP JUMPDEST SWAP3 POP POP JUMPDEST DUP1 DUP1 PUSH1 0x1 ADD SWAP2 POP POP PUSH2 0x43D JUMP JUMPDEST POP DUP1 PUSH8 0xFFFFFFFFFFFFFFFF DUP2 GT ISZERO PUSH2 0x4B1 JUMPI PUSH2 0x4B0 PUSH2 0x1AA3 JUMP JUMPDEST JUMPDEST PUSH1 0x40 MLOAD SWAP1 DUP1 DUP3 MSTORE DUP1 PUSH1 0x20 MUL PUSH1 0x20 ADD DUP3 ADD PUSH1 0x40 MSTORE DUP1 ISZERO PUSH2 0x4DF JUMPI DUP2 PUSH1 0x20 ADD PUSH1 0x20 DUP3 MUL DUP1 CALLDATASIZE DUP4 CALLDATACOPY DUP1 DUP3 ADD SWAP2 POP POP SWAP1 POP JUMPDEST POP SWAP3 POP DUP1 PUSH8 0xFFFFFFFFFFFFFFFF DUP2 GT ISZERO PUSH2 0x4FC JUMPI PUSH2 0x4FB PUSH2 0x1AA3 JUMP JUMPDEST JUMPDEST PUSH1 0x40 MLOAD SWAP1 DUP1 DUP3 MSTORE DUP1 PUSH1 0x20 MUL PUSH1 0x20 ADD DUP3 ADD PUSH1 0x40 MSTORE DUP1 ISZERO PUSH2 0x52F JUMPI DUP2 PUSH1 0x20 ADD JUMPDEST PUSH1 0x60 DUP2 MSTORE PUSH1 0x20 ADD SWAP1 PUSH1 0x1 SWAP1 SUB SWAP1 DUP2 PUSH2 0x51A JUMPI SWAP1 POP JUMPDEST POP SWAP2 POP PUSH0 PUSH0 SWAP1 POP PUSH0 PUSH0 SWAP1 POP JUMPDEST PUSH1 0x30 DUP2 LT ISZERO PUSH2 0x756 JUMPI PUSH1 0x4 PUSH0 DUP8 DUP2 MSTORE PUSH1 0x20 ADD SWAP1 DUP2 MSTORE PUSH1 0x20 ADD PUSH0 KECCAK256 PUSH0 DUP3 DUP2 MSTORE PUSH1 0x20 ADD SWAP1 DUP2 MSTORE PUSH1 0x20 ADD PUSH0 KECCAK256 PUSH1 0x3 ADD PUSH0 SWAP1 SLOAD SWAP1 PUSH2 0x100 EXP SWAP1 DIV PUSH1 0xFF AND PUSH2 0x749 JUMPI DUP1 DUP6 DUP4 DUP2 MLOAD DUP2 LT PUSH2 0x58C JUMPI PUSH2 0x58B PUSH2 0x20CE JUMP JUMPDEST JUMPDEST PUSH1 0x20 MUL PUSH1 0x20 ADD ADD DUP2 DUP2 MSTORE POP POP PUSH0 PUSH1 0x2 DUP3 PUSH2 0x5A6 SWAP2 SWAP1 PUSH2 0x2128 JUMP JUMPDEST SWAP1 POP PUSH0 PUSH1 0x1E PUSH1 0x2 DUP5 PUSH2 0x5B8 SWAP2 SWAP1 PUSH2 0x2158 JUMP JUMPDEST PUSH2 0x5C2 SWAP2 SWAP1 PUSH2 0x2188 JUMP JUMPDEST SWAP1 POP PUSH0 DUP3 SWAP1 POP PUSH0 PUSH1 0x1E DUP4 PUSH2 0x5D6 SWAP2 SWAP1 PUSH2 0x21C9 JUMP JUMPDEST SWAP1 POP PUSH1 0x3C DUP2 SUB PUSH2 0x5F2 JUMPI DUP2 DUP1 PUSH2 0x5EB SWAP1 PUSH2 0x2087 JUMP JUMPDEST SWAP3 POP POP PUSH0 SWAP1 POP JUMPDEST PUSH2 0x5FB DUP5 PUSH2 0x1463 JUMP JUMPDEST PUSH0 DUP5 EQ PUSH2 0x63D JUMPI PUSH1 0x40 MLOAD DUP1 PUSH1 0x40 ADD PUSH1 0x40 MSTORE DUP1 PUSH1 0x2 DUP2 MSTORE PUSH1 0x20 ADD PUSH32 0x3330000000000000000000000000000000000000000000000000000000000000 DUP2 MSTORE POP PUSH2 0x674 JUMP JUMPDEST PUSH1 0x40 MLOAD DUP1 PUSH1 0x40 ADD PUSH1 0x40 MSTORE DUP1 PUSH1 0x2 DUP2 MSTORE PUSH1 0x20 ADD PUSH32 0x3030000000000000000000000000000000000000000000000000000000000000 DUP2 MSTORE POP JUMPDEST PUSH2 0x67D DUP5 PUSH2 0x1463 JUMP JUMPDEST PUSH0 DUP5 EQ PUSH2 0x6BF JUMPI PUSH1 0x40 MLOAD DUP1 PUSH1 0x40 ADD PUSH1 0x40 MSTORE DUP1 PUSH1 0x2 DUP2 MSTORE PUSH1 0x20 ADD PUSH32 0x3330000000000000000000000000000000000000000000000000000000000000 DUP2 MSTORE POP PUSH2 0x6F6 JUMP JUMPDEST PUSH1 0x40 MLOAD DUP1 PUSH1 0x40 ADD PUSH1 0x40 MSTORE DUP1 PUSH1 0x2 DUP2 MSTORE PUSH1 0x20 ADD PUSH32 0x3030000000000000000000000000000000000000000000000000000000000000 DUP2 MSTORE POP JUMPDEST PUSH1 0x40 MLOAD PUSH1 0x20 ADD PUSH2 0x709 SWAP5 SWAP4 SWAP3 SWAP2 SWAP1 PUSH2 0x22CA JUMP JUMPDEST PUSH1 0x40 MLOAD PUSH1 0x20 DUP2 DUP4 SUB SUB DUP2 MSTORE SWAP1 PUSH1 0x40 MSTORE DUP9 DUP8 DUP2 MLOAD DUP2 LT PUSH2 0x72B JUMPI PUSH2 0x72A PUSH2 0x20CE JUMP JUMPDEST JUMPDEST PUSH1 0x20 MUL PUSH1 0x20 ADD ADD DUP2 SWAP1 MSTORE POP DUP6 DUP1 PUSH2 0x741 SWAP1 PUSH2 0x2087 JUMP JUMPDEST SWAP7 POP POP POP POP POP POP JUMPDEST DUP1 DUP1 PUSH1 0x1 ADD SWAP2 POP POP PUSH2 0x53B JUMP JUMPDEST POP POP POP SWAP2 POP SWAP2 JUMP JUMPDEST PUSH1 0x60 DUP1 PUSH0 PUSH1 0x5 DUP1 SLOAD SWAP1 POP SWAP1 POP DUP1 PUSH8 0xFFFFFFFFFFFFFFFF DUP2 GT ISZERO PUSH2 0x784 JUMPI PUSH2 0x783 PUSH2 0x1AA3 JUMP JUMPDEST JUMPDEST PUSH1 0x40 MLOAD SWAP1 DUP1 DUP3 MSTORE DUP1 PUSH1 0x20 MUL PUSH1 0x20 ADD DUP3 ADD PUSH1 0x40 MSTORE DUP1 ISZERO PUSH2 0x7B2 JUMPI DUP2 PUSH1 0x20 ADD PUSH1 0x20 DUP3 MUL DUP1 CALLDATASIZE DUP4 CALLDATACOPY DUP1 DUP3 ADD SWAP2 POP POP SWAP1 POP JUMPDEST POP SWAP3 POP DUP1 PUSH8 0xFFFFFFFFFFFFFFFF DUP2 GT ISZERO PUSH2 0x7CF JUMPI PUSH2 0x7CE PUSH2 0x1AA3 JUMP JUMPDEST JUMPDEST PUSH1 0x40 MLOAD SWAP1 DUP1 DUP3 MSTORE DUP1 PUSH1 0x20 MUL PUSH1 0x20 ADD DUP3 ADD PUSH1 0x40 MSTORE DUP1 ISZERO PUSH2 0x7FD JUMPI DUP2 PUSH1 0x20 ADD PUSH1 0x20 DUP3 MUL DUP1 CALLDATASIZE DUP4 CALLDATACOPY DUP1 DUP3 ADD SWAP2 POP POP SWAP1 POP JUMPDEST POP SWAP2 POP PUSH0 PUSH0 SWAP1 POP JUMPDEST DUP2 DUP2 LT ISZERO PUSH2 0x8A1 JUMPI PUSH0 PUSH1 0x5 DUP3 DUP2 SLOAD DUP2 LT PUSH2 0x822 JUMPI PUSH2 0x821 PUSH2 0x20CE JUMP JUMPDEST JUMPDEST SWAP1 PUSH0 MSTORE PUSH1 0x20 PUSH0 KECCAK256 ADD SLOAD SWAP1 POP DUP1 DUP6 DUP4 DUP2 MLOAD DUP2 LT PUSH2 0x841 JUMPI PUSH2 0x840 PUSH2 0x20CE JUMP JUMPDEST JUMPDEST PUSH1 0x20 MUL PUSH1 0x20 ADD ADD DUP2 DUP2 MSTORE POP POP PUSH8 0xDE0B6B3A7640000 PUSH0 PUSH0 DUP4 DUP2 MSTORE PUSH1 0x20 ADD SWAP1 DUP2 MSTORE PUSH1 0x20 ADD PUSH0 KECCAK256 PUSH1 0x3 ADD SLOAD PUSH2 0x874 SWAP2 SWAP1 PUSH2 0x2128 JUMP JUMPDEST DUP5 DUP4 DUP2 MLOAD DUP2 LT PUSH2 0x887 JUMPI PUSH2 0x886 PUSH2 0x20CE JUMP JUMPDEST JUMPDEST PUSH1 0x20 MUL PUSH1 0x20 ADD ADD DUP2 DUP2 MSTORE POP POP POP DUP1 DUP1 PUSH1 0x1 ADD SWAP2 POP POP PUSH2 0x805 JUMP JUMPDEST POP POP SWAP1 SWAP2 JUMP JUMPDEST PUSH0 PUSH1 0x60 PUSH0 PUSH1 0x60 DUP1 PUSH0 PUSH0 PUSH0 PUSH0 PUSH1 0x3 PUSH0 DUP12 DUP2 MSTORE PUSH1 0x20 ADD SWAP1 DUP2 MSTORE PUSH1 0x20 ADD PUSH0 KECCAK256 PUSH0 ADD SLOAD SUB PUSH2 0x906 JUMPI PUSH1 0x40 MLOAD PUSH32 0x8C379A000000000000000000000000000000000000000000000000000000000 DUP2 MSTORE PUSH1 0x4 ADD PUSH2 0x8FD SWAP1 PUSH2 0x1EB1 JUMP JUMPDEST PUSH1 0x40 MLOAD DUP1 SWAP2 SUB SWAP1 REVERT JUMPDEST PUSH0 PUSH1 0x3 PUSH0 DUP12 DUP2 MSTORE PUSH1 0x20 ADD SWAP1 DUP2 MSTORE PUSH1 0x20 ADD PUSH0 KECCAK256 PUSH1 0x40 MLOAD DUP1 PUSH2 0x100 ADD PUSH1 0x40 MSTORE SWAP1 DUP2 PUSH0 DUP3 ADD SLOAD DUP2 MSTORE PUSH1 0x20 ADD PUSH1 0x1 DUP3 ADD DUP1 SLOAD PUSH2 0x93D SWAP1 PUSH2 0x2355 JUMP JUMPDEST DUP1 PUSH1 0x1F ADD PUSH1 0x20 DUP1 SWAP2 DIV MUL PUSH1 0x20 ADD PUSH1 0x40 MLOAD SWAP1 DUP2 ADD PUSH1 0x40 MSTORE DUP1 SWAP3 SWAP2 SWAP1 DUP2 DUP2 MSTORE PUSH1 0x20 ADD DUP3 DUP1 SLOAD PUSH2 0x969 SWAP1 PUSH2 0x2355 JUMP JUMPDEST DUP1 ISZERO PUSH2 0x9B4 JUMPI DUP1 PUSH1 0x1F LT PUSH2 0x98B JUMPI PUSH2 0x100 DUP1 DUP4 SLOAD DIV MUL DUP4 MSTORE SWAP2 PUSH1 0x20 ADD SWAP2 PUSH2 0x9B4 JUMP JUMPDEST DUP3 ADD SWAP2 SWAP1 PUSH0 MSTORE PUSH1 0x20 PUSH0 KECCAK256 SWAP1 JUMPDEST DUP2 SLOAD DUP2 MSTORE SWAP1 PUSH1 0x1 ADD SWAP1 PUSH1 0x20 ADD DUP1 DUP4 GT PUSH2 0x997 JUMPI DUP3 SWAP1 SUB PUSH1 0x1F AND DUP3 ADD SWAP2 JUMPDEST POP POP POP POP POP DUP2 MSTORE PUSH1 0x20 ADD PUSH1 0x2 DUP3 ADD SLOAD DUP2 MSTORE PUSH1 0x20 ADD PUSH1 0x3 DUP3 ADD DUP1 SLOAD PUSH2 0x9D7 SWAP1 PUSH2 0x2355 JUMP JUMPDEST DUP1 PUSH1 0x1F ADD PUSH1 0x20 DUP1 SWAP2 DIV MUL PUSH1 0x20 ADD PUSH1 0x40 MLOAD SWAP1 DUP2 ADD PUSH1 0x40 MSTORE DUP1 SWAP3 SWAP2 SWAP1 DUP2 DUP2 MSTORE PUSH1 0x20 ADD DUP3 DUP1 SLOAD PUSH2 0xA03 SWAP1 PUSH2 0x2355 JUMP JUMPDEST DUP1 ISZERO PUSH2 0xA4E JUMPI DUP1 PUSH1 0x1F LT PUSH2 0xA25 JUMPI PUSH2 0x100 DUP1 DUP4 SLOAD DIV MUL DUP4 MSTORE SWAP2 PUSH1 0x20 ADD SWAP2 PUSH2 0xA4E JUMP JUMPDEST DUP3 ADD SWAP2 SWAP1 PUSH0 MSTORE PUSH1 0x20 PUSH0 KECCAK256 SWAP1 JUMPDEST DUP2 SLOAD DUP2 MSTORE SWAP1 PUSH1 0x1 ADD SWAP1 PUSH1 0x20 ADD DUP1 DUP4 GT PUSH2 0xA31 JUMPI DUP3 SWAP1 SUB PUSH1 0x1F AND DUP3 ADD SWAP2 JUMPDEST POP POP POP POP POP DUP2 MSTORE PUSH1 0x20 ADD PUSH1 0x4 DUP3 ADD DUP1 SLOAD PUSH2 0xA67 SWAP1 PUSH2 0x2355 JUMP JUMPDEST DUP1 PUSH1 0x1F ADD PUSH1 0x20 DUP1 SWAP2 DIV MUL PUSH1 0x20 ADD PUSH1 0x40 MLOAD SWAP1 DUP2 ADD PUSH1 0x40 MSTORE DUP1 SWAP3 SWAP2 SWAP1 DUP2 DUP2 MSTORE PUSH1 0x20 ADD DUP3 DUP1 SLOAD PUSH2 0xA93 SWAP1 PUSH2 0x2355 JUMP JUMPDEST DUP1 ISZERO PUSH2 0xADE JUMPI DUP1 PUSH1 0x1F LT PUSH2 0xAB5 JUMPI PUSH2 0x100 DUP1 DUP4 SLOAD DIV MUL DUP4 MSTORE SWAP2 PUSH1 0x20 ADD SWAP2 PUSH2 0xADE JUMP JUMPDEST DUP3 ADD SWAP2 SWAP1 PUSH0 MSTORE PUSH1 0x20 PUSH0 KECCAK256 SWAP1 JUMPDEST DUP2 SLOAD DUP2 MSTORE SWAP1 PUSH1 0x1 ADD SWAP1 PUSH1 0x20 ADD DUP1 DUP4 GT PUSH2 0xAC1 JUMPI DUP3 SWAP1 SUB PUSH1 0x1F AND DUP3 ADD SWAP2 JUMPDEST POP POP POP POP POP DUP2 MSTORE PUSH1 0x20 ADD PUSH1 0x5 DUP3 ADD PUSH0 SWAP1 SLOAD SWAP1 PUSH2 0x100 EXP SWAP1 DIV PUSH1 0xFF AND PUSH1 0x2 DUP2 GT ISZERO PUSH2 0xB0B JUMPI PUSH2 0xB0A PUSH2 0x1FC5 JUMP JUMPDEST JUMPDEST PUSH1 0x2 DUP2 GT ISZERO PUSH2 0xB1D JUMPI PUSH2 0xB1C PUSH2 0x1FC5 JUMP JUMPDEST JUMPDEST DUP2 MSTORE PUSH1 0x20 ADD PUSH1 0x5 DUP3 ADD PUSH1 0x1 SWAP1 SLOAD SWAP1 PUSH2 0x100 EXP SWAP1 DIV PUSH1 0xFF AND ISZERO ISZERO ISZERO ISZERO DUP2 MSTORE PUSH1 0x20 ADD PUSH1 0x6 DUP3 ADD SLOAD DUP2 MSTORE POP POP SWAP1 POP DUP1 PUSH0 ADD MLOAD DUP2 PUSH1 0x20 ADD MLOAD DUP3 PUSH1 0x40 ADD MLOAD DUP4 PUSH1 0x60 ADD MLOAD DUP5 PUSH1 0x80 ADD MLOAD DUP6 PUSH1 0xA0 ADD MLOAD PUSH1 0x2 DUP2 GT ISZERO PUSH2 0xB77 JUMPI PUSH2 0xB76 PUSH2 0x1FC5 JUMP JUMPDEST JUMPDEST DUP7 PUSH1 0xC0 ADD MLOAD DUP8 PUSH1 0xE0 ADD MLOAD SWAP9 POP SWAP9 POP SWAP9 POP SWAP9 POP SWAP9 POP SWAP9 POP SWAP9 POP SWAP9 POP POP SWAP2 SWAP4 SWAP6 SWAP8 POP SWAP2 SWAP4 SWAP6 SWAP8 JUMP JUMPDEST PUSH0 PUSH0 PUSH1 0x2 PUSH0 DUP7 DUP2 MSTORE PUSH1 0x20 ADD SWAP1 DUP2 MSTORE PUSH1 0x20 ADD PUSH0 KECCAK256 PUSH0 ADD SLOAD SUB PUSH2 0xBF3 JUMPI PUSH1 0x40 MLOAD PUSH32 0x8C379A000000000000000000000000000000000000000000000000000000000 DUP2 MSTORE PUSH1 0x4 ADD PUSH2 0xBEA SWAP1 PUSH2 0x203C JUMP JUMPDEST PUSH1 0x40 MLOAD DUP1 SWAP2 SUB SWAP1 REVERT JUMPDEST PUSH0 PUSH1 0x3 PUSH0 DUP6 DUP2 MSTORE PUSH1 0x20 ADD SWAP1 DUP2 MSTORE PUSH1 0x20 ADD PUSH0 KECCAK256 PUSH0 ADD SLOAD SUB PUSH2 0xC48 JUMPI PUSH1 0x40 MLOAD PUSH32 0x8C379A000000000000000000000000000000000000000000000000000000000 DUP2 MSTORE PUSH1 0x4 ADD PUSH2 0xC3F SWAP1 PUSH2 0x1EB1 JUMP JUMPDEST PUSH1 0x40 MLOAD DUP1 SWAP2 SUB SWAP1 REVERT JUMPDEST PUSH8 0xDE0B6B3A7640000 PUSH1 0x3 PUSH0 DUP6 DUP2 MSTORE PUSH1 0x20 ADD SWAP1 DUP2 MSTORE PUSH1 0x20 ADD PUSH0 KECCAK256 PUSH1 0x6 ADD SLOAD LT ISZERO PUSH2 0xCA7 JUMPI PUSH1 0x40 MLOAD PUSH32 0x8C379A000000000000000000000000000000000000000000000000000000000 DUP2 MSTORE PUSH1 0x4 ADD PUSH2 0xC9E SWAP1 PUSH2 0x23CF JUMP JUMPDEST PUSH1 0x40 MLOAD DUP1 SWAP2 SUB SWAP1 REVERT JUMPDEST PUSH0 PUSH1 0x5 DUP1 SLOAD SWAP1 POP GT PUSH2 0xCEE JUMPI PUSH1 0x40 MLOAD PUSH32 0x8C379A000000000000000000000000000000000000000000000000000000000 DUP2 MSTORE PUSH1 0x4 ADD PUSH2 0xCE5 SWAP1 PUSH2 0x2437 JUMP JUMPDEST PUSH1 0x40 MLOAD DUP1 SWAP2 SUB SWAP1 REVERT JUMPDEST PUSH1 0x30 DUP3 LT PUSH2 0xD31 JUMPI PUSH1 0x40 MLOAD PUSH32 0x8C379A000000000000000000000000000000000000000000000000000000000 DUP2 MSTORE PUSH1 0x4 ADD PUSH2 0xD28 SWAP1 PUSH2 0x249F JUMP JUMPDEST PUSH1 0x40 MLOAD DUP1 SWAP2 SUB SWAP1 REVERT JUMPDEST PUSH1 0x4 PUSH0 DUP6 DUP2 MSTORE PUSH1 0x20 ADD SWAP1 DUP2 MSTORE PUSH1 0x20 ADD PUSH0 KECCAK256 PUSH0 DUP4 DUP2 MSTORE PUSH1 0x20 ADD SWAP1 DUP2 MSTORE PUSH1 0x20 ADD PUSH0 KECCAK256 PUSH1 0x3 ADD PUSH0 SWAP1 SLOAD SWAP1 PUSH2 0x100 EXP SWAP1 DIV PUSH1 0xFF AND ISZERO PUSH2 0xDA1 JUMPI PUSH1 0x40 MLOAD PUSH32 0x8C379A000000000000000000000000000000000000000000000000000000000 DUP2 MSTORE PUSH1 0x4 ADD PUSH2 0xD98 SWAP1 PUSH2 0x2507 JUMP JUMPDEST PUSH1 0x40 MLOAD DUP1 SWAP2 SUB SWAP1 REVERT JUMPDEST PUSH1 0x40 MLOAD DUP1 PUSH1 0x80 ADD PUSH1 0x40 MSTORE DUP1 DUP4 DUP2 MSTORE PUSH1 0x20 ADD DUP6 DUP2 MSTORE PUSH1 0x20 ADD DUP5 DUP2 MSTORE PUSH1 0x20 ADD PUSH1 0x1 ISZERO ISZERO DUP2 MSTORE POP PUSH1 0x4 PUSH0 DUP7 DUP2 MSTORE PUSH1 0x20 ADD SWAP1 DUP2 MSTORE PUSH1 0x20 ADD PUSH0 KECCAK256 PUSH0 DUP5 DUP2 MSTORE PUSH1 0x20 ADD SWAP1 DUP2 MSTORE PUSH1 0x20 ADD PUSH0 KECCAK256 PUSH0 DUP3 ADD MLOAD DUP2 PUSH0 ADD SSTORE PUSH1 0x20 DUP3 ADD MLOAD DUP2 PUSH1 0x1 ADD SSTORE PUSH1 0x40 DUP3 ADD MLOAD DUP2 PUSH1 0x2 ADD SSTORE PUSH1 0x60 DUP3 ADD MLOAD DUP2 PUSH1 0x3 ADD PUSH0 PUSH2 0x100 EXP DUP2 SLOAD DUP2 PUSH1 0xFF MUL NOT AND SWAP1 DUP4 ISZERO ISZERO MUL OR SWAP1 SSTORE POP SWAP1 POP POP PUSH0 PUSH1 0x5 DUP1 SLOAD SWAP1 POP TIMESTAMP PREVRANDAO DUP7 PUSH1 0x40 MLOAD PUSH1 0x20 ADD PUSH2 0xE3F SWAP4 SWAP3 SWAP2 SWAP1 PUSH2 0x2545 JUMP JUMPDEST PUSH1 0x40 MLOAD PUSH1 0x20 DUP2 DUP4 SUB SUB DUP2 MSTORE SWAP1 PUSH1 0x40 MSTORE DUP1 MLOAD SWAP1 PUSH1 0x20 ADD KECCAK256 PUSH0 SHR PUSH2 0xE61 SWAP2 SWAP1 PUSH2 0x2158 JUMP JUMPDEST SWAP1 POP PUSH0 PUSH1 0x5 DUP3 DUP2 SLOAD DUP2 LT PUSH2 0xE78 JUMPI PUSH2 0xE77 PUSH2 0x20CE JUMP JUMPDEST JUMPDEST SWAP1 PUSH0 MSTORE PUSH1 0x20 PUSH0 KECCAK256 ADD SLOAD SWAP1 POP PUSH8 0xDE0B6B3A7640000 PUSH1 0x3 PUSH0 DUP8 DUP2 MSTORE PUSH1 0x20 ADD SWAP1 DUP2 MSTORE PUSH1 0x20 ADD PUSH0 KECCAK256 PUSH1 0x6 ADD PUSH0 DUP3 DUP3 SLOAD PUSH2 0xEAE SWAP2 SWAP1 PUSH2 0x2581 JUMP JUMPDEST SWAP3 POP POP DUP2 SWAP1 SSTORE POP PUSH8 0xDE0B6B3A7640000 PUSH0 PUSH0 DUP4 DUP2 MSTORE PUSH1 0x20 ADD SWAP1 DUP2 MSTORE PUSH1 0x20 ADD PUSH0 KECCAK256 PUSH1 0x3 ADD PUSH0 DUP3 DUP3 SLOAD PUSH2 0xEDF SWAP2 SWAP1 PUSH2 0x21C9 JUMP JUMPDEST SWAP3 POP POP DUP2 SWAP1 SSTORE POP PUSH1 0x1 SWAP3 POP POP POP SWAP4 SWAP3 POP POP POP JUMP JUMPDEST PUSH0 PUSH0 DUP4 GT PUSH2 0xF36 JUMPI PUSH1 0x40 MLOAD PUSH32 0x8C379A000000000000000000000000000000000000000000000000000000000 DUP2 MSTORE PUSH1 0x4 ADD PUSH2 0xF2D SWAP1 PUSH2 0x25FE JUMP JUMPDEST PUSH1 0x40 MLOAD DUP1 SWAP2 SUB SWAP1 REVERT JUMPDEST PUSH0 DUP6 GT PUSH2 0xF78 JUMPI PUSH1 0x40 MLOAD PUSH32 0x8C379A000000000000000000000000000000000000000000000000000000000 DUP2 MSTORE PUSH1 0x4 ADD PUSH2 0xF6F SWAP1 PUSH2 0x2666 JUMP JUMPDEST PUSH1 0x40 MLOAD DUP1 SWAP2 SUB SWAP1 REVERT JUMPDEST PUSH0 PUSH1 0x2 PUSH0 DUP8 DUP2 MSTORE PUSH1 0x20 ADD SWAP1 DUP2 MSTORE PUSH1 0x20 ADD PUSH0 KECCAK256 PUSH0 ADD SLOAD EQ PUSH2 0xFCD JUMPI PUSH1 0x40 MLOAD PUSH32 0x8C379A000000000000000000000000000000000000000000000000000000000 DUP2 MSTORE PUSH1 0x4 ADD PUSH2 0xFC4 SWAP1 PUSH2 0x26CE JUMP JUMPDEST PUSH1 0x40 MLOAD DUP1 SWAP2 SUB SWAP1 REVERT JUMPDEST PUSH1 0x40 MLOAD DUP1 PUSH1 0x80 ADD PUSH1 0x40 MSTORE DUP1 DUP7 DUP2 MSTORE PUSH1 0x20 ADD DUP6 DUP2 MSTORE PUSH1 0x20 ADD DUP5 DUP2 MSTORE PUSH1 0x20 ADD DUP4 DUP2 MSTORE POP PUSH1 0x2 PUSH0 DUP8 DUP2 MSTORE PUSH1 0x20 ADD SWAP1 DUP2 MSTORE PUSH1 0x20 ADD PUSH0 KECCAK256 PUSH0 DUP3 ADD MLOAD DUP2 PUSH0 ADD SSTORE PUSH1 0x20 DUP3 ADD MLOAD DUP2 PUSH1 0x1 ADD SWAP1 DUP2 PUSH2 0x101C SWAP2 SWAP1 PUSH2 0x288C JUMP JUMPDEST POP PUSH1 0x40 DUP3 ADD MLOAD DUP2 PUSH1 0x2 ADD SSTORE PUSH1 0x60 DUP3 ADD MLOAD DUP2 PUSH1 0x3 ADD SWAP1 DUP2 PUSH2 0x103C SWAP2 SWAP1 PUSH2 0x288C JUMP JUMPDEST POP SWAP1 POP POP DUP5 SWAP1 POP SWAP5 SWAP4 POP POP POP POP JUMP JUMPDEST PUSH0 PUSH0 DUP3 GT PUSH2 0x108E JUMPI PUSH1 0x40 MLOAD PUSH32 0x8C379A000000000000000000000000000000000000000000000000000000000 DUP2 MSTORE PUSH1 0x4 ADD PUSH2 0x1085 SWAP1 PUSH2 0x25FE JUMP JUMPDEST PUSH1 0x40 MLOAD DUP1 SWAP2 SUB SWAP1 REVERT JUMPDEST PUSH0 DUP5 GT PUSH2 0x10D0 JUMPI PUSH1 0x40 MLOAD PUSH32 0x8C379A000000000000000000000000000000000000000000000000000000000 DUP2 MSTORE PUSH1 0x4 ADD PUSH2 0x10C7 SWAP1 PUSH2 0x2666 JUMP JUMPDEST PUSH1 0x40 MLOAD DUP1 SWAP2 SUB SWAP1 REVERT JUMPDEST PUSH0 PUSH0 PUSH0 DUP7 DUP2 MSTORE PUSH1 0x20 ADD SWAP1 DUP2 MSTORE PUSH1 0x20 ADD PUSH0 KECCAK256 PUSH0 ADD SLOAD EQ PUSH2 0x1124 JUMPI PUSH1 0x40 MLOAD PUSH32 0x8C379A000000000000000000000000000000000000000000000000000000000 DUP2 MSTORE PUSH1 0x4 ADD PUSH2 0x111B SWAP1 PUSH2 0x29A5 JUMP JUMPDEST PUSH1 0x40 MLOAD DUP1 SWAP2 SUB SWAP1 REVERT JUMPDEST PUSH1 0x40 MLOAD DUP1 PUSH1 0x80 ADD PUSH1 0x40 MSTORE DUP1 DUP6 DUP2 MSTORE PUSH1 0x20 ADD DUP5 DUP2 MSTORE PUSH1 0x20 ADD DUP4 DUP2 MSTORE PUSH1 0x20 ADD PUSH0 DUP2 MSTORE POP PUSH0 PUSH0 DUP7 DUP2 MSTORE PUSH1 0x20 ADD SWAP1 DUP2 MSTORE PUSH1 0x20 ADD PUSH0 KECCAK256 PUSH0 DUP3 ADD MLOAD DUP2 PUSH0 ADD SSTORE PUSH1 0x20 DUP3 ADD MLOAD DUP2 PUSH1 0x1 ADD SWAP1 DUP2 PUSH2 0x1172 SWAP2 SWAP1 PUSH2 0x288C JUMP JUMPDEST POP PUSH1 0x40 DUP3 ADD MLOAD DUP2 PUSH1 0x2 ADD SSTORE PUSH1 0x60 DUP3 ADD MLOAD DUP2 PUSH1 0x3 ADD SSTORE SWAP1 POP POP PUSH1 0x5 DUP5 SWAP1 DUP1 PUSH1 0x1 DUP2 SLOAD ADD DUP1 DUP3 SSTORE DUP1 SWAP2 POP POP PUSH1 0x1 SWAP1 SUB SWAP1 PUSH0 MSTORE PUSH1 0x20 PUSH0 KECCAK256 ADD PUSH0 SWAP1 SWAP2 SWAP1 SWAP2 SWAP1 SWAP2 POP SSTORE PUSH1 0x1 DUP1 PUSH0 CALLER PUSH20 0xFFFFFFFFFFFFFFFFFFFFFFFFFFFFFFFFFFFFFFFF AND PUSH20 0xFFFFFFFFFFFFFFFFFFFFFFFFFFFFFFFFFFFFFFFF AND DUP2 MSTORE PUSH1 0x20 ADD SWAP1 DUP2 MSTORE PUSH1 0x20 ADD PUSH0 KECCAK256 PUSH0 PUSH2 0x100 EXP DUP2 SLOAD DUP2 PUSH1 0xFF MUL NOT AND SWAP1 DUP4 ISZERO ISZERO MUL OR SWAP1 SSTORE POP DUP4 SWAP1 POP SWAP4 SWAP3 POP POP POP JUMP JUMPDEST PUSH0 PUSH0 DUP7 GT PUSH2 0x1251 JUMPI PUSH1 0x40 MLOAD PUSH32 0x8C379A000000000000000000000000000000000000000000000000000000000 DUP2 MSTORE PUSH1 0x4 ADD PUSH2 0x1248 SWAP1 PUSH2 0x25FE JUMP JUMPDEST PUSH1 0x40 MLOAD DUP1 SWAP2 SUB SWAP1 REVERT JUMPDEST PUSH0 DUP9 GT PUSH2 0x1293 JUMPI PUSH1 0x40 MLOAD PUSH32 0x8C379A000000000000000000000000000000000000000000000000000000000 DUP2 MSTORE PUSH1 0x4 ADD PUSH2 0x128A SWAP1 PUSH2 0x2666 JUMP JUMPDEST PUSH1 0x40 MLOAD DUP1 SWAP2 SUB SWAP1 REVERT JUMPDEST PUSH0 PUSH1 0x3 PUSH0 DUP11 DUP2 MSTORE PUSH1 0x20 ADD SWAP1 DUP2 MSTORE PUSH1 0x20 ADD PUSH0 KECCAK256 PUSH0 ADD SLOAD EQ PUSH2 0x12E8 JUMPI PUSH1 0x40 MLOAD PUSH32 0x8C379A000000000000000000000000000000000000000000000000000000000 DUP2 MSTORE PUSH1 0x4 ADD PUSH2 0x12DF SWAP1 PUSH2 0x2A0D JUMP JUMPDEST PUSH1 0x40 MLOAD DUP1 SWAP2 SUB SWAP1 REVERT JUMPDEST PUSH1 0x2 DUP4 GT ISZERO PUSH2 0x132C JUMPI PUSH1 0x40 MLOAD PUSH32 0x8C379A000000000000000000000000000000000000000000000000000000000 DUP2 MSTORE PUSH1 0x4 ADD PUSH2 0x1323 SWAP1 PUSH2 0x1F19 JUMP JUMPDEST PUSH1 0x40 MLOAD DUP1 SWAP2 SUB SWAP1 REVERT JUMPDEST PUSH1 0x40 MLOAD DUP1 PUSH2 0x100 ADD PUSH1 0x40 MSTORE DUP1 DUP10 DUP2 MSTORE PUSH1 0x20 ADD DUP9 DUP2 MSTORE PUSH1 0x20 ADD DUP8 DUP2 MSTORE PUSH1 0x20 ADD DUP7 DUP2 MSTORE PUSH1 0x20 ADD DUP6 DUP2 MSTORE PUSH1 0x20 ADD DUP5 PUSH1 0x2 DUP2 GT ISZERO PUSH2 0x1369 JUMPI PUSH2 0x1368 PUSH2 0x1FC5 JUMP JUMPDEST JUMPDEST PUSH1 0x2 DUP2 GT ISZERO PUSH2 0x137B JUMPI PUSH2 0x137A PUSH2 0x1FC5 JUMP JUMPDEST JUMPDEST DUP2 MSTORE PUSH1 0x20 ADD DUP4 ISZERO ISZERO DUP2 MSTORE PUSH1 0x20 ADD PUSH8 0x8AC7230489E80000 DUP2 MSTORE POP PUSH1 0x3 PUSH0 DUP11 DUP2 MSTORE PUSH1 0x20 ADD SWAP1 DUP2 MSTORE PUSH1 0x20 ADD PUSH0 KECCAK256 PUSH0 DUP3 ADD MLOAD DUP2 PUSH0 ADD SSTORE PUSH1 0x20 DUP3 ADD MLOAD DUP2 PUSH1 0x1 ADD SWAP1 DUP2 PUSH2 0x13C2 SWAP2 SWAP1 PUSH2 0x288C JUMP JUMPDEST POP PUSH1 0x40 DUP3 ADD MLOAD DUP2 PUSH1 0x2 ADD SSTORE PUSH1 0x60 DUP3 ADD MLOAD DUP2 PUSH1 0x3 ADD SWAP1 DUP2 PUSH2 0x13E2 SWAP2 SWAP1 PUSH2 0x288C JUMP JUMPDEST POP PUSH1 0x80 DUP3 ADD MLOAD DUP2 PUSH1 0x4 ADD SWAP1 DUP2 PUSH2 0x13F8 SWAP2 SWAP1 PUSH2 0x288C JUMP JUMPDEST POP PUSH1 0xA0 DUP3 ADD MLOAD DUP2 PUSH1 0x5 ADD PUSH0 PUSH2 0x100 EXP DUP2 SLOAD DUP2 PUSH1 0xFF MUL NOT AND SWAP1 DUP4 PUSH1 0x2 DUP2 GT ISZERO PUSH2 0x1423 JUMPI PUSH2 0x1422 PUSH2 0x1FC5 JUMP JUMPDEST JUMPDEST MUL OR SWAP1 SSTORE POP PUSH1 0xC0 DUP3 ADD MLOAD DUP2 PUSH1 0x5 ADD PUSH1 0x1 PUSH2 0x100 EXP DUP2 SLOAD DUP2 PUSH1 0xFF MUL NOT AND SWAP1 DUP4 ISZERO ISZERO MUL OR SWAP1 SSTORE POP PUSH1 0xE0 DUP3 ADD MLOAD DUP2 PUSH1 0x6 ADD SSTORE SWAP1 POP POP DUP8 SWAP1 POP SWAP8 SWAP7 POP POP POP POP POP POP POP JUMP JUMPDEST PUSH1 0x60 PUSH0 DUP3 SUB PUSH2 0x14A9 JUMPI PUSH1 0x40 MLOAD DUP1 PUSH1 0x40 ADD PUSH1 0x40 MSTORE DUP1 PUSH1 0x1 DUP2 MSTORE PUSH1 0x20 ADD PUSH32 0x3000000000000000000000000000000000000000000000000000000000000000 DUP2 MSTORE POP SWAP1 POP PUSH2 0x15F6 JUMP JUMPDEST PUSH1 0xA DUP3 LT ISZERO PUSH2 0x14E8 JUMPI DUP2 PUSH1 0x30 PUSH2 0x14BF SWAP2 SWAP1 PUSH2 0x21C9 JUMP JUMPDEST PUSH1 0xF8 SHL PUSH1 0x40 MLOAD PUSH1 0x20 ADD PUSH2 0x14D2 SWAP2 SWAP1 PUSH2 0x2AC0 JUMP JUMPDEST PUSH1 0x40 MLOAD PUSH1 0x20 DUP2 DUP4 SUB SUB DUP2 MSTORE SWAP1 PUSH1 0x40 MSTORE SWAP1 POP PUSH2 0x15F6 JUMP JUMPDEST PUSH0 DUP3 SWAP1 POP PUSH0 JUMPDEST PUSH0 DUP3 EQ PUSH2 0x1517 JUMPI DUP1 DUP1 PUSH2 0x1500 SWAP1 PUSH2 0x2087 JUMP JUMPDEST SWAP2 POP POP PUSH1 0xA DUP3 PUSH2 0x1510 SWAP2 SWAP1 PUSH2 0x2128 JUMP JUMPDEST SWAP2 POP PUSH2 0x14EE JUMP JUMPDEST PUSH0 DUP2 PUSH8 0xFFFFFFFFFFFFFFFF DUP2 GT ISZERO PUSH2 0x1532 JUMPI PUSH2 0x1531 PUSH2 0x1AA3 JUMP JUMPDEST JUMPDEST PUSH1 0x40 MLOAD SWAP1 DUP1 DUP3 MSTORE DUP1 PUSH1 0x1F ADD PUSH1 0x1F NOT AND PUSH1 0x20 ADD DUP3 ADD PUSH1 0x40 MSTORE DUP1 ISZERO PUSH2 0x1564 JUMPI DUP2 PUSH1 0x20 ADD PUSH1 0x1 DUP3 MUL DUP1 CALLDATASIZE DUP4 CALLDATACOPY DUP1 DUP3 ADD SWAP2 POP POP SWAP1 POP JUMPDEST POP SWAP1 POP JUMPDEST PUSH0 DUP6 EQ PUSH2 0x15EF JUMPI PUSH1 0x1 DUP3 PUSH2 0x157C SWAP2 SWAP1 PUSH2 0x2581 JUMP JUMPDEST SWAP2 POP PUSH1 0xA DUP6 PUSH2 0x158B SWAP2 SWAP1 PUSH2 0x2158 JUMP JUMPDEST PUSH1 0x30 PUSH2 0x1597 SWAP2 SWAP1 PUSH2 0x21C9 JUMP JUMPDEST PUSH1 0xF8 SHL DUP2 DUP4 DUP2 MLOAD DUP2 LT PUSH2 0x15AD JUMPI PUSH2 0x15AC PUSH2 0x20CE JUMP JUMPDEST JUMPDEST PUSH1 0x20 ADD ADD SWAP1 PUSH31 0xFFFFFFFFFFFFFFFFFFFFFFFFFFFFFFFFFFFFFFFFFFFFFFFFFFFFFFFFFFFFFF NOT AND SWAP1 DUP2 PUSH0 BYTE SWAP1 MSTORE8 POP PUSH1 0xA DUP6 PUSH2 0x15E8 SWAP2 SWAP1 PUSH2 0x2128 JUMP JUMPDEST SWAP5 POP PUSH2 0x1568 JUMP JUMPDEST DUP1 SWAP4 POP POP POP POP JUMPDEST SWAP2 SWAP1 POP JUMP JUMPDEST PUSH0 PUSH1 0x40 MLOAD SWAP1 POP SWAP1 JUMP JUMPDEST PUSH0 PUSH0 REVERT JUMPDEST PUSH0 PUSH0 REVERT JUMPDEST PUSH0 DUP2 SWAP1 POP SWAP2 SWAP1 POP JUMP JUMPDEST PUSH2 0x161E DUP2 PUSH2 0x160C JUMP JUMPDEST DUP2 EQ PUSH2 0x1628 JUMPI PUSH0 PUSH0 REVERT JUMPDEST POP JUMP JUMPDEST PUSH0 DUP2 CALLDATALOAD SWAP1 POP PUSH2 0x1639 DUP2 PUSH2 0x1615 JUMP JUMPDEST SWAP3 SWAP2 POP POP JUMP JUMPDEST PUSH0 DUP2 ISZERO ISZERO SWAP1 POP SWAP2 SWAP1 POP JUMP JUMPDEST PUSH2 0x1653 DUP2 PUSH2 0x163F JUMP JUMPDEST DUP2 EQ PUSH2 0x165D JUMPI PUSH0 PUSH0 REVERT JUMPDEST POP JUMP JUMPDEST PUSH0 DUP2 CALLDATALOAD SWAP1 POP PUSH2 0x166E DUP2 PUSH2 0x164A JUMP JUMPDEST SWAP3 SWAP2 POP POP JUMP JUMPDEST PUSH0 PUSH0 PUSH0 PUSH1 0x60 DUP5 DUP7 SUB SLT ISZERO PUSH2 0x168B JUMPI PUSH2 0x168A PUSH2 0x1604 JUMP JUMPDEST JUMPDEST PUSH0 PUSH2 0x1698 DUP7 DUP3 DUP8 ADD PUSH2 0x162B JUMP JUMPDEST SWAP4 POP POP PUSH1 0x20 PUSH2 0x16A9 DUP7 DUP3 DUP8 ADD PUSH2 0x162B JUMP JUMPDEST SWAP3 POP POP PUSH1 0x40 PUSH2 0x16BA DUP7 DUP3 DUP8 ADD PUSH2 0x1660 JUMP JUMPDEST SWAP2 POP POP SWAP3 POP SWAP3 POP SWAP3 JUMP JUMPDEST PUSH0 PUSH1 0x20 DUP3 DUP5 SUB SLT ISZERO PUSH2 0x16D9 JUMPI PUSH2 0x16D8 PUSH2 0x1604 JUMP JUMPDEST JUMPDEST PUSH0 PUSH2 0x16E6 DUP5 DUP3 DUP6 ADD PUSH2 0x162B JUMP JUMPDEST SWAP2 POP POP SWAP3 SWAP2 POP POP JUMP JUMPDEST PUSH0 DUP2 MLOAD SWAP1 POP SWAP2 SWAP1 POP JUMP JUMPDEST PUSH0 DUP3 DUP3 MSTORE PUSH1 0x20 DUP3 ADD SWAP1 POP SWAP3 SWAP2 POP POP JUMP JUMPDEST PUSH0 DUP2 SWAP1 POP PUSH1 0x20 DUP3 ADD SWAP1 POP SWAP2 SWAP1 POP JUMP JUMPDEST PUSH2 0x1721 DUP2 PUSH2 0x160C JUMP JUMPDEST DUP3 MSTORE POP POP JUMP JUMPDEST PUSH0 PUSH2 0x1732 DUP4 DUP4 PUSH2 0x1718 JUMP JUMPDEST PUSH1 0x20 DUP4 ADD SWAP1 POP SWAP3 SWAP2 POP POP JUMP JUMPDEST PUSH0 PUSH1 0x20 DUP3 ADD SWAP1 POP SWAP2 SWAP1 POP JUMP JUMPDEST PUSH0 PUSH2 0x1754 DUP3 PUSH2 0x16EF JUMP JUMPDEST PUSH2 0x175E DUP2 DUP6 PUSH2 0x16F9 JUMP JUMPDEST SWAP4 POP PUSH2 0x1769 DUP4 PUSH2 0x1709 JUMP JUMPDEST DUP1 PUSH0 JUMPDEST DUP4 DUP2 LT ISZERO PUSH2 0x1799 JUMPI DUP2 MLOAD PUSH2 0x1780 DUP9 DUP3 PUSH2 0x1727 JUMP JUMPDEST SWAP8 POP PUSH2 0x178B DUP4 PUSH2 0x173E JUMP JUMPDEST SWAP3 POP POP PUSH1 0x1 DUP2 ADD SWAP1 POP PUSH2 0x176C JUMP JUMPDEST POP DUP6 SWAP4 POP POP POP POP SWAP3 SWAP2 POP POP JUMP JUMPDEST PUSH0 DUP2 MLOAD SWAP1 POP SWAP2 SWAP1 POP JUMP JUMPDEST PUSH0 DUP3 DUP3 MSTORE PUSH1 0x20 DUP3 ADD SWAP1 POP SWAP3 SWAP2 POP POP JUMP JUMPDEST PUSH0 DUP2 SWAP1 POP PUSH1 0x20 DUP3 ADD SWAP1 POP SWAP2 SWAP1 POP JUMP JUMPDEST PUSH0 DUP2 MLOAD SWAP1 POP SWAP2 SWAP1 POP JUMP JUMPDEST PUSH0 DUP3 DUP3 MSTORE PUSH1 0x20 DUP3 ADD SWAP1 POP SWAP3 SWAP2 POP POP JUMP JUMPDEST DUP3 DUP2 DUP4 MCOPY PUSH0 DUP4 DUP4 ADD MSTORE POP POP POP JUMP JUMPDEST PUSH0 PUSH1 0x1F NOT PUSH1 0x1F DUP4 ADD AND SWAP1 POP SWAP2 SWAP1 POP JUMP JUMPDEST PUSH0 PUSH2 0x1811 DUP3 PUSH2 0x17CF JUMP JUMPDEST PUSH2 0x181B DUP2 DUP6 PUSH2 0x17D9 JUMP JUMPDEST SWAP4 POP PUSH2 0x182B DUP2 DUP6 PUSH1 0x20 DUP7 ADD PUSH2 0x17E9 JUMP JUMPDEST PUSH2 0x1834 DUP2 PUSH2 0x17F7 JUMP JUMPDEST DUP5 ADD SWAP2 POP POP SWAP3 SWAP2 POP POP JUMP JUMPDEST PUSH0 PUSH2 0x184A DUP4 DUP4 PUSH2 0x1807 JUMP JUMPDEST SWAP1 POP SWAP3 SWAP2 POP POP JUMP JUMPDEST PUSH0 PUSH1 0x20 DUP3 ADD SWAP1 POP SWAP2 SWAP1 POP JUMP JUMPDEST PUSH0 PUSH2 0x1868 DUP3 PUSH2 0x17A6 JUMP JUMPDEST PUSH2 0x1872 DUP2 DUP6 PUSH2 0x17B0 JUMP JUMPDEST SWAP4 POP DUP4 PUSH1 0x20 DUP3 MUL DUP6 ADD PUSH2 0x1884 DUP6 PUSH2 0x17C0 JUMP JUMPDEST DUP1 PUSH0 JUMPDEST DUP6 DUP2 LT ISZERO PUSH2 0x18BF JUMPI DUP5 DUP5 SUB DUP10 MSTORE DUP2 MLOAD PUSH2 0x18A0 DUP6 DUP3 PUSH2 0x183F JUMP JUMPDEST SWAP5 POP PUSH2 0x18AB DUP4 PUSH2 0x1852 JUMP JUMPDEST SWAP3 POP PUSH1 0x20 DUP11 ADD SWAP10 POP POP PUSH1 0x1 DUP2 ADD SWAP1 POP PUSH2 0x1887 JUMP JUMPDEST POP DUP3 SWAP8 POP DUP8 SWAP6 POP POP POP POP POP POP SWAP3 SWAP2 POP POP JUMP JUMPDEST PUSH0 PUSH1 0x40 DUP3 ADD SWAP1 POP DUP2 DUP2 SUB PUSH0 DUP4 ADD MSTORE PUSH2 0x18E9 DUP2 DUP6 PUSH2 0x174A JUMP JUMPDEST SWAP1 POP DUP2 DUP2 SUB PUSH1 0x20 DUP4 ADD MSTORE PUSH2 0x18FD DUP2 DUP5 PUSH2 0x185E JUMP JUMPDEST SWAP1 POP SWAP4 SWAP3 POP POP POP JUMP JUMPDEST PUSH0 PUSH1 0x40 DUP3 ADD SWAP1 POP DUP2 DUP2 SUB PUSH0 DUP4 ADD MSTORE PUSH2 0x191E DUP2 DUP6 PUSH2 0x174A JUMP JUMPDEST SWAP1 POP DUP2 DUP2 SUB PUSH1 0x20 DUP4 ADD MSTORE PUSH2 0x1932 DUP2 DUP5 PUSH2 0x174A JUMP JUMPDEST SWAP1 POP SWAP4 SWAP3 POP POP POP JUMP JUMPDEST PUSH2 0x1944 DUP2 PUSH2 0x160C JUMP JUMPDEST DUP3 MSTORE POP POP JUMP JUMPDEST PUSH0 DUP3 DUP3 MSTORE PUSH1 0x20 DUP3 ADD SWAP1 POP SWAP3 SWAP2 POP POP JUMP JUMPDEST PUSH0 PUSH2 0x1964 DUP3 PUSH2 0x17CF JUMP JUMPDEST PUSH2 0x196E DUP2 DUP6 PUSH2 0x194A JUMP JUMPDEST SWAP4 POP PUSH2 0x197E DUP2 DUP6 PUSH1 0x20 DUP7 ADD PUSH2 0x17E9 JUMP JUMPDEST PUSH2 0x1987 DUP2 PUSH2 0x17F7 JUMP JUMPDEST DUP5 ADD SWAP2 POP POP SWAP3 SWAP2 POP POP JUMP JUMPDEST PUSH2 0x199B DUP2 PUSH2 0x163F JUMP JUMPDEST DUP3 MSTORE POP POP JUMP JUMPDEST PUSH0 PUSH2 0x100 DUP3 ADD SWAP1 POP PUSH2 0x19B5 PUSH0 DUP4 ADD DUP12 PUSH2 0x193B JUMP JUMPDEST DUP2 DUP2 SUB PUSH1 0x20 DUP4 ADD MSTORE PUSH2 0x19C7 DUP2 DUP11 PUSH2 0x195A JUMP JUMPDEST SWAP1 POP PUSH2 0x19D6 PUSH1 0x40 DUP4 ADD DUP10 PUSH2 0x193B JUMP JUMPDEST DUP2 DUP2 SUB PUSH1 0x60 DUP4 ADD MSTORE PUSH2 0x19E8 DUP2 DUP9 PUSH2 0x195A JUMP JUMPDEST SWAP1 POP DUP2 DUP2 SUB PUSH1 0x80 DUP4 ADD MSTORE PUSH2 0x19FC DUP2 DUP8 PUSH2 0x195A JUMP JUMPDEST SWAP1 POP PUSH2 0x1A0B PUSH1 0xA0 DUP4 ADD DUP7 PUSH2 0x193B JUMP JUMPDEST PUSH2 0x1A18 PUSH1 0xC0 DUP4 ADD DUP6 PUSH2 0x1992 JUMP JUMPDEST PUSH2 0x1A25 PUSH1 0xE0 DUP4 ADD DUP5 PUSH2 0x193B JUMP JUMPDEST SWAP10 SWAP9 POP POP POP POP POP POP POP POP POP JUMP JUMPDEST PUSH0 PUSH0 PUSH0 PUSH1 0x60 DUP5 DUP7 SUB SLT ISZERO PUSH2 0x1A49 JUMPI PUSH2 0x1A48 PUSH2 0x1604 JUMP JUMPDEST JUMPDEST PUSH0 PUSH2 0x1A56 DUP7 DUP3 DUP8 ADD PUSH2 0x162B JUMP JUMPDEST SWAP4 POP POP PUSH1 0x20 PUSH2 0x1A67 DUP7 DUP3 DUP8 ADD PUSH2 0x162B JUMP JUMPDEST SWAP3 POP POP PUSH1 0x40 PUSH2 0x1A78 DUP7 DUP3 DUP8 ADD PUSH2 0x162B JUMP JUMPDEST SWAP2 POP POP SWAP3 POP SWAP3 POP SWAP3 JUMP JUMPDEST PUSH0 PUSH1 0x20 DUP3 ADD SWAP1 POP PUSH2 0x1A95 PUSH0 DUP4 ADD DUP5 PUSH2 0x1992 JUMP JUMPDEST SWAP3 SWAP2 POP POP JUMP JUMPDEST PUSH0 PUSH0 REVERT JUMPDEST PUSH0 PUSH0 REVERT JUMPDEST PUSH32 0x4E487B7100000000000000000000000000000000000000000000000000000000 PUSH0 MSTORE PUSH1 0x41 PUSH1 0x4 MSTORE PUSH1 0x24 PUSH0 REVERT JUMPDEST PUSH2 0x1AD9 DUP3 PUSH2 0x17F7 JUMP JUMPDEST DUP2 ADD DUP2 DUP2 LT PUSH8 0xFFFFFFFFFFFFFFFF DUP3 GT OR ISZERO PUSH2 0x1AF8 JUMPI PUSH2 0x1AF7 PUSH2 0x1AA3 JUMP JUMPDEST JUMPDEST DUP1 PUSH1 0x40 MSTORE POP POP POP JUMP JUMPDEST PUSH0 PUSH2 0x1B0A PUSH2 0x15FB JUMP JUMPDEST SWAP1 POP PUSH2 0x1B16 DUP3 DUP3 PUSH2 0x1AD0 JUMP JUMPDEST SWAP2 SWAP1 POP JUMP JUMPDEST PUSH0 PUSH8 0xFFFFFFFFFFFFFFFF DUP3 GT ISZERO PUSH2 0x1B35 JUMPI PUSH2 0x1B34 PUSH2 0x1AA3 JUMP JUMPDEST JUMPDEST PUSH2 0x1B3E DUP3 PUSH2 0x17F7 JUMP JUMPDEST SWAP1 POP PUSH1 0x20 DUP2 ADD SWAP1 POP SWAP2 SWAP1 POP JUMP JUMPDEST DUP3 DUP2 DUP4 CALLDATACOPY PUSH0 DUP4 DUP4 ADD MSTORE POP POP POP JUMP JUMPDEST PUSH0 PUSH2 0x1B6B PUSH2 0x1B66 DUP5 PUSH2 0x1B1B JUMP JUMPDEST PUSH2 0x1B01 JUMP JUMPDEST SWAP1 POP DUP3 DUP2 MSTORE PUSH1 0x20 DUP2 ADD DUP5 DUP5 DUP5 ADD GT ISZERO PUSH2 0x1B87 JUMPI PUSH2 0x1B86 PUSH2 0x1A9F JUMP JUMPDEST JUMPDEST PUSH2 0x1B92 DUP5 DUP3 DUP6 PUSH2 0x1B4B JUMP JUMPDEST POP SWAP4 SWAP3 POP POP POP JUMP JUMPDEST PUSH0 DUP3 PUSH1 0x1F DUP4 ADD SLT PUSH2 0x1BAE JUMPI PUSH2 0x1BAD PUSH2 0x1A9B JUMP JUMPDEST JUMPDEST DUP2 CALLDATALOAD PUSH2 0x1BBE DUP5 DUP3 PUSH1 0x20 DUP7 ADD PUSH2 0x1B59 JUMP JUMPDEST SWAP2 POP POP SWAP3 SWAP2 POP POP JUMP JUMPDEST PUSH0 PUSH0 PUSH0 PUSH0 PUSH1 0x80 DUP6 DUP8 SUB SLT ISZERO PUSH2 0x1BDF JUMPI PUSH2 0x1BDE PUSH2 0x1604 JUMP JUMPDEST JUMPDEST PUSH0 PUSH2 0x1BEC DUP8 DUP3 DUP9 ADD PUSH2 0x162B JUMP JUMPDEST SWAP5 POP POP PUSH1 0x20 DUP6 ADD CALLDATALOAD PUSH8 0xFFFFFFFFFFFFFFFF DUP2 GT ISZERO PUSH2 0x1C0D JUMPI PUSH2 0x1C0C PUSH2 0x1608 JUMP JUMPDEST JUMPDEST PUSH2 0x1C19 DUP8 DUP3 DUP9 ADD PUSH2 0x1B9A JUMP JUMPDEST SWAP4 POP POP PUSH1 0x40 PUSH2 0x1C2A DUP8 DUP3 DUP9 ADD PUSH2 0x162B JUMP JUMPDEST SWAP3 POP POP PUSH1 0x60 DUP6 ADD CALLDATALOAD PUSH8 0xFFFFFFFFFFFFFFFF DUP2 GT ISZERO PUSH2 0x1C4B JUMPI PUSH2 0x1C4A PUSH2 0x1608 JUMP JUMPDEST JUMPDEST PUSH2 0x1C57 DUP8 DUP3 DUP9 ADD PUSH2 0x1B9A JUMP JUMPDEST SWAP2 POP POP SWAP3 SWAP6 SWAP2 SWAP5 POP SWAP3 POP JUMP JUMPDEST PUSH0 PUSH1 0x20 DUP3 ADD SWAP1 POP PUSH2 0x1C76 PUSH0 DUP4 ADD DUP5 PUSH2 0x193B JUMP JUMPDEST SWAP3 SWAP2 POP POP JUMP JUMPDEST PUSH0 PUSH0 PUSH0 PUSH1 0x60 DUP5 DUP7 SUB SLT ISZERO PUSH2 0x1C93 JUMPI PUSH2 0x1C92 PUSH2 0x1604 JUMP JUMPDEST JUMPDEST PUSH0 PUSH2 0x1CA0 DUP7 DUP3 DUP8 ADD PUSH2 0x162B JUMP JUMPDEST SWAP4 POP POP PUSH1 0x20 DUP5 ADD CALLDATALOAD PUSH8 0xFFFFFFFFFFFFFFFF DUP2 GT ISZERO PUSH2 0x1CC1 JUMPI PUSH2 0x1CC0 PUSH2 0x1608 JUMP JUMPDEST JUMPDEST PUSH2 0x1CCD DUP7 DUP3 DUP8 ADD PUSH2 0x1B9A JUMP JUMPDEST SWAP3 POP POP PUSH1 0x40 PUSH2 0x1CDE DUP7 DUP3 DUP8 ADD PUSH2 0x162B JUMP JUMPDEST SWAP2 POP POP SWAP3 POP SWAP3 POP SWAP3 JUMP JUMPDEST PUSH0 PUSH0 PUSH0 PUSH0 PUSH0 PUSH0 PUSH0 PUSH1 0xE0 DUP9 DUP11 SUB SLT ISZERO PUSH2 0x1D03 JUMPI PUSH2 0x1D02 PUSH2 0x1604 JUMP JUMPDEST JUMPDEST PUSH0 PUSH2 0x1D10 DUP11 DUP3 DUP12 ADD PUSH2 0x162B JUMP JUMPDEST SWAP8 POP POP PUSH1 0x20 DUP9 ADD CALLDATALOAD PUSH8 0xFFFFFFFFFFFFFFFF DUP2 GT ISZERO PUSH2 0x1D31 JUMPI PUSH2 0x1D30 PUSH2 0x1608 JUMP JUMPDEST JUMPDEST PUSH2 0x1D3D DUP11 DUP3 DUP12 ADD PUSH2 0x1B9A JUMP JUMPDEST SWAP7 POP POP PUSH1 0x40 PUSH2 0x1D4E DUP11 DUP3 DUP12 ADD PUSH2 0x162B JUMP JUMPDEST SWAP6 POP POP PUSH1 0x60 DUP9 ADD CALLDATALOAD PUSH8 0xFFFFFFFFFFFFFFFF DUP2 GT ISZERO PUSH2 0x1D6F JUMPI PUSH2 0x1D6E PUSH2 0x1608 JUMP JUMPDEST JUMPDEST PUSH2 0x1D7B DUP11 DUP3 DUP12 ADD PUSH2 0x1B9A JUMP JUMPDEST SWAP5 POP POP PUSH1 0x80 DUP9 ADD CALLDATALOAD PUSH8 0xFFFFFFFFFFFFFFFF DUP2 GT ISZERO PUSH2 0x1D9C JUMPI PUSH2 0x1D9B PUSH2 0x1608 JUMP JUMPDEST JUMPDEST PUSH2 0x1DA8 DUP11 DUP3 DUP12 ADD PUSH2 0x1B9A JUMP JUMPDEST SWAP4 POP POP PUSH1 0xA0 PUSH2 0x1DB9 DUP11 DUP3 DUP12 ADD PUSH2 0x162B JUMP JUMPDEST SWAP3 POP POP PUSH1 0xC0 PUSH2 0x1DCA DUP11 DUP3 DUP12 ADD PUSH2 0x1660 JUMP JUMPDEST SWAP2 POP POP SWAP3 SWAP6 SWAP9 SWAP2 SWAP5 SWAP8 POP SWAP3 SWAP6 POP JUMP JUMPDEST PUSH32 0x4F6E6C792061646D696E2063616E20706572666F726D20746869732061637469 PUSH0 DUP3 ADD MSTORE PUSH32 0x6F6E000000000000000000000000000000000000000000000000000000000000 PUSH1 0x20 DUP3 ADD MSTORE POP JUMP JUMPDEST PUSH0 PUSH2 0x1E33 PUSH1 0x22 DUP4 PUSH2 0x194A JUMP JUMPDEST SWAP2 POP PUSH2 0x1E3E DUP3 PUSH2 0x1DD9 JUMP JUMPDEST PUSH1 0x40 DUP3 ADD SWAP1 POP SWAP2 SWAP1 POP JUMP JUMPDEST PUSH0 PUSH1 0x20 DUP3 ADD SWAP1 POP DUP2 DUP2 SUB PUSH0 DUP4 ADD MSTORE PUSH2 0x1E60 DUP2 PUSH2 0x1E27 JUMP JUMPDEST SWAP1 POP SWAP2 SWAP1 POP JUMP JUMPDEST PUSH32 0x5061727469636970616E74206E6F7420666F756E640000000000000000000000 PUSH0 DUP3 ADD MSTORE POP JUMP JUMPDEST PUSH0 PUSH2 0x1E9B PUSH1 0x15 DUP4 PUSH2 0x194A JUMP JUMPDEST SWAP2 POP PUSH2 0x1EA6 DUP3 PUSH2 0x1E67 JUMP JUMPDEST PUSH1 0x20 DUP3 ADD SWAP1 POP SWAP2 SWAP1 POP JUMP JUMPDEST PUSH0 PUSH1 0x20 DUP3 ADD SWAP1 POP DUP2 DUP2 SUB PUSH0 DUP4 ADD MSTORE PUSH2 0x1EC8 DUP2 PUSH2 0x1E8F JUMP JUMPDEST SWAP1 POP SWAP2 SWAP1 POP JUMP JUMPDEST PUSH32 0x496E76616C696420747261696E696E6720696E74657265737400000000000000 PUSH0 DUP3 ADD MSTORE POP JUMP JUMPDEST PUSH0 PUSH2 0x1F03 PUSH1 0x19 DUP4 PUSH2 0x194A JUMP JUMPDEST SWAP2 POP PUSH2 0x1F0E DUP3 PUSH2 0x1ECF JUMP JUMPDEST PUSH1 0x20 DUP3 ADD SWAP1 POP SWAP2 SWAP1 POP JUMP JUMPDEST PUSH0 PUSH1 0x20 DUP3 ADD SWAP1 POP DUP2 DUP2 SUB PUSH0 DUP4 ADD MSTORE PUSH2 0x1F30 DUP2 PUSH2 0x1EF7 JUMP JUMPDEST SWAP1 POP SWAP2 SWAP1 POP JUMP JUMPDEST PUSH32 0x43616E6E6F74206368616E676520636F6D706C657465642066726F6D20747275 PUSH0 DUP3 ADD MSTORE PUSH32 0x6520746F2066616C736500000000000000000000000000000000000000000000 PUSH1 0x20 DUP3 ADD MSTORE POP JUMP JUMPDEST PUSH0 PUSH2 0x1F91 PUSH1 0x2A DUP4 PUSH2 0x194A JUMP JUMPDEST SWAP2 POP PUSH2 0x1F9C DUP3 PUSH2 0x1F37 JUMP JUMPDEST PUSH1 0x40 DUP3 ADD SWAP1 POP SWAP2 SWAP1 POP JUMP JUMPDEST PUSH0 PUSH1 0x20 DUP3 ADD SWAP1 POP DUP2 DUP2 SUB PUSH0 DUP4 ADD MSTORE PUSH2 0x1FBE DUP2 PUSH2 0x1F85 JUMP JUMPDEST SWAP1 POP SWAP2 SWAP1 POP JUMP JUMPDEST PUSH32 0x4E487B7100000000000000000000000000000000000000000000000000000000 PUSH0 MSTORE PUSH1 0x21 PUSH1 0x4 MSTORE PUSH1 0x24 PUSH0 REVERT JUMPDEST PUSH32 0x547261696E6572206E6F7420666F756E64000000000000000000000000000000 PUSH0 DUP3 ADD MSTORE POP JUMP JUMPDEST PUSH0 PUSH2 0x2026 PUSH1 0x11 DUP4 PUSH2 0x194A JUMP JUMPDEST SWAP2 POP PUSH2 0x2031 DUP3 PUSH2 0x1FF2 JUMP JUMPDEST PUSH1 0x20 DUP3 ADD SWAP1 POP SWAP2 SWAP1 POP JUMP JUMPDEST PUSH0 PUSH1 0x20 DUP3 ADD SWAP1 POP DUP2 DUP2 SUB PUSH0 DUP4 ADD MSTORE PUSH2 0x2053 DUP2 PUSH2 0x201A JUMP JUMPDEST SWAP1 POP SWAP2 SWAP1 POP JUMP JUMPDEST PUSH32 0x4E487B7100000000000000000000000000000000000000000000000000000000 PUSH0 MSTORE PUSH1 0x11 PUSH1 0x4 MSTORE PUSH1 0x24 PUSH0 REVERT JUMPDEST PUSH0 PUSH2 0x2091 DUP3 PUSH2 0x160C JUMP JUMPDEST SWAP2 POP PUSH32 0xFFFFFFFFFFFFFFFFFFFFFFFFFFFFFFFFFFFFFFFFFFFFFFFFFFFFFFFFFFFFFFFF DUP3 SUB PUSH2 0x20C3 JUMPI PUSH2 0x20C2 PUSH2 0x205A JUMP JUMPDEST JUMPDEST PUSH1 0x1 DUP3 ADD SWAP1 POP SWAP2 SWAP1 POP JUMP JUMPDEST PUSH32 0x4E487B7100000000000000000000000000000000000000000000000000000000 PUSH0 MSTORE PUSH1 0x32 PUSH1 0x4 MSTORE PUSH1 0x24 PUSH0 REVERT JUMPDEST PUSH32 0x4E487B7100000000000000000000000000000000000000000000000000000000 PUSH0 MSTORE PUSH1 0x12 PUSH1 0x4 MSTORE PUSH1 0x24 PUSH0 REVERT JUMPDEST PUSH0 PUSH2 0x2132 DUP3 PUSH2 0x160C JUMP JUMPDEST SWAP2 POP PUSH2 0x213D DUP4 PUSH2 0x160C JUMP JUMPDEST SWAP3 POP DUP3 PUSH2 0x214D JUMPI PUSH2 0x214C PUSH2 0x20FB JUMP JUMPDEST JUMPDEST DUP3 DUP3 DIV SWAP1 POP SWAP3 SWAP2 POP POP JUMP JUMPDEST PUSH0 PUSH2 0x2162 DUP3 PUSH2 0x160C JUMP JUMPDEST SWAP2 POP PUSH2 0x216D DUP4 PUSH2 0x160C JUMP JUMPDEST SWAP3 POP DUP3 PUSH2 0x217D JUMPI PUSH2 0x217C PUSH2 0x20FB JUMP JUMPDEST JUMPDEST DUP3 DUP3 MOD SWAP1 POP SWAP3 SWAP2 POP POP JUMP JUMPDEST PUSH0 PUSH2 0x2192 DUP3 PUSH2 0x160C JUMP JUMPDEST SWAP2 POP PUSH2 0x219D DUP4 PUSH2 0x160C JUMP JUMPDEST SWAP3 POP DUP3 DUP3 MUL PUSH2 0x21AB DUP2 PUSH2 0x160C JUMP JUMPDEST SWAP2 POP DUP3 DUP3 DIV DUP5 EQ DUP4 ISZERO OR PUSH2 0x21C2 JUMPI PUSH2 0x21C1 PUSH2 0x205A JUMP JUMPDEST JUMPDEST POP SWAP3 SWAP2 POP POP JUMP JUMPDEST PUSH0 PUSH2 0x21D3 DUP3 PUSH2 0x160C JUMP JUMPDEST SWAP2 POP PUSH2 0x21DE DUP4 PUSH2 0x160C JUMP JUMPDEST SWAP3 POP DUP3 DUP3 ADD SWAP1 POP DUP1 DUP3 GT ISZERO PUSH2 0x21F6 JUMPI PUSH2 0x21F5 PUSH2 0x205A JUMP JUMPDEST JUMPDEST SWAP3 SWAP2 POP POP JUMP JUMPDEST PUSH0 DUP2 SWAP1 POP SWAP3 SWAP2 POP POP JUMP JUMPDEST PUSH0 PUSH2 0x2210 DUP3 PUSH2 0x17CF JUMP JUMPDEST PUSH2 0x221A DUP2 DUP6 PUSH2 0x21FC JUMP JUMPDEST SWAP4 POP PUSH2 0x222A DUP2 DUP6 PUSH1 0x20 DUP7 ADD PUSH2 0x17E9 JUMP JUMPDEST DUP1 DUP5 ADD SWAP2 POP POP SWAP3 SWAP2 POP POP JUMP JUMPDEST PUSH32 0x3A00000000000000000000000000000000000000000000000000000000000000 PUSH0 DUP3 ADD MSTORE POP JUMP JUMPDEST PUSH0 PUSH2 0x226A PUSH1 0x1 DUP4 PUSH2 0x21FC JUMP JUMPDEST SWAP2 POP PUSH2 0x2275 DUP3 PUSH2 0x2236 JUMP JUMPDEST PUSH1 0x1 DUP3 ADD SWAP1 POP SWAP2 SWAP1 POP JUMP JUMPDEST PUSH32 0x2D00000000000000000000000000000000000000000000000000000000000000 PUSH0 DUP3 ADD MSTORE POP JUMP JUMPDEST PUSH0 PUSH2 0x22B4 PUSH1 0x1 DUP4 PUSH2 0x21FC JUMP JUMPDEST SWAP2 POP PUSH2 0x22BF DUP3 PUSH2 0x2280 JUMP JUMPDEST PUSH1 0x1 DUP3 ADD SWAP1 POP SWAP2 SWAP1 POP JUMP JUMPDEST PUSH0 PUSH2 0x22D5 DUP3 DUP8 PUSH2 0x2206 JUMP JUMPDEST SWAP2 POP PUSH2 0x22E0 DUP3 PUSH2 0x225E JUMP JUMPDEST SWAP2 POP PUSH2 0x22EC DUP3 DUP7 PUSH2 0x2206 JUMP JUMPDEST SWAP2 POP PUSH2 0x22F7 DUP3 PUSH2 0x22A8 JUMP JUMPDEST SWAP2 POP PUSH2 0x2303 DUP3 DUP6 PUSH2 0x2206 JUMP JUMPDEST SWAP2 POP PUSH2 0x230E DUP3 PUSH2 0x225E JUMP JUMPDEST SWAP2 POP PUSH2 0x231A DUP3 DUP5 PUSH2 0x2206 JUMP JUMPDEST SWAP2 POP DUP2 SWAP1 POP SWAP6 SWAP5 POP POP POP POP POP JUMP JUMPDEST PUSH32 0x4E487B7100000000000000000000000000000000000000000000000000000000 PUSH0 MSTORE PUSH1 0x22 PUSH1 0x4 MSTORE PUSH1 0x24 PUSH0 REVERT JUMPDEST PUSH0 PUSH1 0x2 DUP3 DIV SWAP1 POP PUSH1 0x1 DUP3 AND DUP1 PUSH2 0x236C JUMPI PUSH1 0x7F DUP3 AND SWAP2 POP JUMPDEST PUSH1 0x20 DUP3 LT DUP2 SUB PUSH2 0x237F JUMPI PUSH2 0x237E PUSH2 0x2328 JUMP JUMPDEST JUMPDEST POP SWAP2 SWAP1 POP JUMP JUMPDEST PUSH32 0x496E73756666696369656E74207061727469636970616E742062616C616E6365 PUSH0 DUP3 ADD MSTORE POP JUMP JUMPDEST PUSH0 PUSH2 0x23B9 PUSH1 0x20 DUP4 PUSH2 0x194A JUMP JUMPDEST SWAP2 POP PUSH2 0x23C4 DUP3 PUSH2 0x2385 JUMP JUMPDEST PUSH1 0x20 DUP3 ADD SWAP1 POP SWAP2 SWAP1 POP JUMP JUMPDEST PUSH0 PUSH1 0x20 DUP3 ADD SWAP1 POP DUP2 DUP2 SUB PUSH0 DUP4 ADD MSTORE PUSH2 0x23E6 DUP2 PUSH2 0x23AD JUMP JUMPDEST SWAP1 POP SWAP2 SWAP1 POP JUMP JUMPDEST PUSH32 0x4E6F2061646D696E7320617661696C61626C6500000000000000000000000000 PUSH0 DUP3 ADD MSTORE POP JUMP JUMPDEST PUSH0 PUSH2 0x2421 PUSH1 0x13 DUP4 PUSH2 0x194A JUMP JUMPDEST SWAP2 POP PUSH2 0x242C DUP3 PUSH2 0x23ED JUMP JUMPDEST PUSH1 0x20 DUP3 ADD SWAP1 POP SWAP2 SWAP1 POP JUMP JUMPDEST PUSH0 PUSH1 0x20 DUP3 ADD SWAP1 POP DUP2 DUP2 SUB PUSH0 DUP4 ADD MSTORE PUSH2 0x244E DUP2 PUSH2 0x2415 JUMP JUMPDEST SWAP1 POP SWAP2 SWAP1 POP JUMP JUMPDEST PUSH32 0x496E76616C696420736C6F742049440000000000000000000000000000000000 PUSH0 DUP3 ADD MSTORE POP JUMP JUMPDEST PUSH0 PUSH2 0x2489 PUSH1 0xF DUP4 PUSH2 0x194A JUMP JUMPDEST SWAP2 POP PUSH2 0x2494 DUP3 PUSH2 0x2455 JUMP JUMPDEST PUSH1 0x20 DUP3 ADD SWAP1 POP SWAP2 SWAP1 POP JUMP JUMPDEST PUSH0 PUSH1 0x20 DUP3 ADD SWAP1 POP DUP2 DUP2 SUB PUSH0 DUP4 ADD MSTORE PUSH2 0x24B6 DUP2 PUSH2 0x247D JUMP JUMPDEST SWAP1 POP SWAP2 SWAP1 POP JUMP JUMPDEST PUSH32 0x536C6F7420697320616C726561647920626F6F6B656400000000000000000000 PUSH0 DUP3 ADD MSTORE POP JUMP JUMPDEST PUSH0 PUSH2 0x24F1 PUSH1 0x16 DUP4 PUSH2 0x194A JUMP JUMPDEST SWAP2 POP PUSH2 0x24FC DUP3 PUSH2 0x24BD JUMP JUMPDEST PUSH1 0x20 DUP3 ADD SWAP1 POP SWAP2 SWAP1 POP JUMP JUMPDEST PUSH0 PUSH1 0x20 DUP3 ADD SWAP1 POP DUP2 DUP2 SUB PUSH0 DUP4 ADD MSTORE PUSH2 0x251E DUP2 PUSH2 0x24E5 JUMP JUMPDEST SWAP1 POP SWAP2 SWAP1 POP JUMP JUMPDEST PUSH0 DUP2 SWAP1 POP SWAP2 SWAP1 POP JUMP JUMPDEST PUSH2 0x253F PUSH2 0x253A DUP3 PUSH2 0x160C JUMP JUMPDEST PUSH2 0x2525 JUMP JUMPDEST DUP3 MSTORE POP POP JUMP JUMPDEST PUSH0 PUSH2 0x2550 DUP3 DUP7 PUSH2 0x252E JUMP JUMPDEST PUSH1 0x20 DUP3 ADD SWAP2 POP PUSH2 0x2560 DUP3 DUP6 PUSH2 0x252E JUMP JUMPDEST PUSH1 0x20 DUP3 ADD SWAP2 POP PUSH2 0x2570 DUP3 DUP5 PUSH2 0x252E JUMP JUMPDEST PUSH1 0x20 DUP3 ADD SWAP2 POP DUP2 SWAP1 POP SWAP5 SWAP4 POP POP POP POP JUMP JUMPDEST PUSH0 PUSH2 0x258B DUP3 PUSH2 0x160C JUMP JUMPDEST SWAP2 POP PUSH2 0x2596 DUP4 PUSH2 0x160C JUMP JUMPDEST SWAP3 POP DUP3 DUP3 SUB SWAP1 POP DUP2 DUP2 GT ISZERO PUSH2 0x25AE JUMPI PUSH2 0x25AD PUSH2 0x205A JUMP JUMPDEST JUMPDEST SWAP3 SWAP2 POP POP JUMP JUMPDEST PUSH32 0x496E76616C696420616765000000000000000000000000000000000000000000 PUSH0 DUP3 ADD MSTORE POP JUMP JUMPDEST PUSH0 PUSH2 0x25E8 PUSH1 0xB DUP4 PUSH2 0x194A JUMP JUMPDEST SWAP2 POP PUSH2 0x25F3 DUP3 PUSH2 0x25B4 JUMP JUMPDEST PUSH1 0x20 DUP3 ADD SWAP1 POP SWAP2 SWAP1 POP JUMP JUMPDEST PUSH0 PUSH1 0x20 DUP3 ADD SWAP1 POP DUP2 DUP2 SUB PUSH0 DUP4 ADD MSTORE PUSH2 0x2615 DUP2 PUSH2 0x25DC JUMP JUMPDEST SWAP1 POP SWAP2 SWAP1 POP JUMP JUMPDEST PUSH32 0x496E76616C696420494400000000000000000000000000000000000000000000 PUSH0 DUP3 ADD MSTORE POP JUMP JUMPDEST PUSH0 PUSH2 0x2650 PUSH1 0xA DUP4 PUSH2 0x194A JUMP JUMPDEST SWAP2 POP PUSH2 0x265B DUP3 PUSH2 0x261C JUMP JUMPDEST PUSH1 0x20 DUP3 ADD SWAP1 POP SWAP2 SWAP1 POP JUMP JUMPDEST PUSH0 PUSH1 0x20 DUP3 ADD SWAP1 POP DUP2 DUP2 SUB PUSH0 DUP4 ADD MSTORE PUSH2 0x267D DUP2 PUSH2 0x2644 JUMP JUMPDEST SWAP1 POP SWAP2 SWAP1 POP JUMP JUMPDEST PUSH32 0x547261696E657220494420616C72656164792065786973747300000000000000 PUSH0 DUP3 ADD MSTORE POP JUMP JUMPDEST PUSH0 PUSH2 0x26B8 PUSH1 0x19 DUP4 PUSH2 0x194A JUMP JUMPDEST SWAP2 POP PUSH2 0x26C3 DUP3 PUSH2 0x2684 JUMP JUMPDEST PUSH1 0x20 DUP3 ADD SWAP1 POP SWAP2 SWAP1 POP JUMP JUMPDEST PUSH0 PUSH1 0x20 DUP3 ADD SWAP1 POP DUP2 DUP2 SUB PUSH0 DUP4 ADD MSTORE PUSH2 0x26E5 DUP2 PUSH2 0x26AC JUMP JUMPDEST SWAP1 POP SWAP2 SWAP1 POP JUMP JUMPDEST PUSH0 DUP2 SWAP1 POP DUP2 PUSH0 MSTORE PUSH1 0x20 PUSH0 KECCAK256 SWAP1 POP SWAP2 SWAP1 POP JUMP JUMPDEST PUSH0 PUSH1 0x20 PUSH1 0x1F DUP4 ADD DIV SWAP1 POP SWAP2 SWAP1 POP JUMP JUMPDEST PUSH0 DUP3 DUP3 SHL SWAP1 POP SWAP3 SWAP2 POP POP JUMP JUMPDEST PUSH0 PUSH1 0x8 DUP4 MUL PUSH2 0x2748 PUSH32 0xFFFFFFFFFFFFFFFFFFFFFFFFFFFFFFFFFFFFFFFFFFFFFFFFFFFFFFFFFFFFFFFF DUP3 PUSH2 0x270D JUMP JUMPDEST PUSH2 0x2752 DUP7 DUP4 PUSH2 0x270D JUMP JUMPDEST SWAP6 POP DUP1 NOT DUP5 AND SWAP4 POP DUP1 DUP7 AND DUP5 OR SWAP3 POP POP POP SWAP4 SWAP3 POP POP POP JUMP JUMPDEST PUSH0 DUP2 SWAP1 POP SWAP2 SWAP1 POP JUMP JUMPDEST PUSH0 PUSH2 0x278D PUSH2 0x2788 PUSH2 0x2783 DUP5 PUSH2 0x160C JUMP JUMPDEST PUSH2 0x276A JUMP JUMPDEST PUSH2 0x160C JUMP JUMPDEST SWAP1 POP SWAP2 SWAP1 POP JUMP JUMPDEST PUSH0 DUP2 SWAP1 POP SWAP2 SWAP1 POP JUMP JUMPDEST PUSH2 0x27A6 DUP4 PUSH2 0x2773 JUMP JUMPDEST PUSH2 0x27BA PUSH2 0x27B2 DUP3 PUSH2 0x2794 JUMP JUMPDEST DUP5 DUP5 SLOAD PUSH2 0x2719 JUMP JUMPDEST DUP3 SSTORE POP POP POP POP JUMP JUMPDEST PUSH0 PUSH0 SWAP1 POP SWAP1 JUMP JUMPDEST PUSH2 0x27D1 PUSH2 0x27C2 JUMP JUMPDEST PUSH2 0x27DC DUP2 DUP5 DUP5 PUSH2 0x279D JUMP JUMPDEST POP POP POP JUMP JUMPDEST JUMPDEST DUP2 DUP2 LT ISZERO PUSH2 0x27FF JUMPI PUSH2 0x27F4 PUSH0 DUP3 PUSH2 0x27C9 JUMP JUMPDEST PUSH1 0x1 DUP2 ADD SWAP1 POP PUSH2 0x27E2 JUMP JUMPDEST POP POP JUMP JUMPDEST PUSH1 0x1F DUP3 GT ISZERO PUSH2 0x2844 JUMPI PUSH2 0x2815 DUP2 PUSH2 0x26EC JUMP JUMPDEST PUSH2 0x281E DUP5 PUSH2 0x26FE JUMP JUMPDEST DUP2 ADD PUSH1 0x20 DUP6 LT ISZERO PUSH2 0x282D JUMPI DUP2 SWAP1 POP JUMPDEST PUSH2 0x2841 PUSH2 0x2839 DUP6 PUSH2 0x26FE JUMP JUMPDEST DUP4 ADD DUP3 PUSH2 0x27E1 JUMP JUMPDEST POP POP JUMPDEST POP POP POP JUMP JUMPDEST PUSH0 DUP3 DUP3 SHR SWAP1 POP SWAP3 SWAP2 POP POP JUMP JUMPDEST PUSH0 PUSH2 0x2864 PUSH0 NOT DUP5 PUSH1 0x8 MUL PUSH2 0x2849 JUMP JUMPDEST NOT DUP1 DUP4 AND SWAP2 POP POP SWAP3 SWAP2 POP POP JUMP JUMPDEST PUSH0 PUSH2 0x287C DUP4 DUP4 PUSH2 0x2855 JUMP JUMPDEST SWAP2 POP DUP3 PUSH1 0x2 MUL DUP3 OR SWAP1 POP SWAP3 SWAP2 POP POP JUMP JUMPDEST PUSH2 0x2895 DUP3 PUSH2 0x17CF JUMP JUMPDEST PUSH8 0xFFFFFFFFFFFFFFFF DUP2 GT ISZERO PUSH2 0x28AE JUMPI PUSH2 0x28AD PUSH2 0x1AA3 JUMP JUMPDEST JUMPDEST PUSH2 0x28B8 DUP3 SLOAD PUSH2 0x2355 JUMP JUMPDEST PUSH2 0x28C3 DUP3 DUP3 DUP6 PUSH2 0x2803 JUMP JUMPDEST PUSH0 PUSH1 0x20 SWAP1 POP PUSH1 0x1F DUP4 GT PUSH1 0x1 DUP2 EQ PUSH2 0x28F4 JUMPI PUSH0 DUP5 ISZERO PUSH2 0x28E2 JUMPI DUP3 DUP8 ADD MLOAD SWAP1 POP JUMPDEST PUSH2 0x28EC DUP6 DUP3 PUSH2 0x2871 JUMP JUMPDEST DUP7 SSTORE POP PUSH2 0x2953 JUMP JUMPDEST PUSH1 0x1F NOT DUP5 AND PUSH2 0x2902 DUP7 PUSH2 0x26EC JUMP JUMPDEST PUSH0 JUMPDEST DUP3 DUP2 LT ISZERO PUSH2 0x2929 JUMPI DUP5 DUP10 ADD MLOAD DUP3 SSTORE PUSH1 0x1 DUP3 ADD SWAP2 POP PUSH1 0x20 DUP6 ADD SWAP5 POP PUSH1 0x20 DUP2 ADD SWAP1 POP PUSH2 0x2904 JUMP JUMPDEST DUP7 DUP4 LT ISZERO PUSH2 0x2946 JUMPI DUP5 DUP10 ADD MLOAD PUSH2 0x2942 PUSH1 0x1F DUP10 AND DUP3 PUSH2 0x2855 JUMP JUMPDEST DUP4 SSTORE POP JUMPDEST PUSH1 0x1 PUSH1 0x2 DUP9 MUL ADD DUP9 SSTORE POP POP POP JUMPDEST POP POP POP POP POP POP JUMP JUMPDEST PUSH32 0x41646D696E20494420616C726561647920657869737473000000000000000000 PUSH0 DUP3 ADD MSTORE POP JUMP JUMPDEST PUSH0 PUSH2 0x298F PUSH1 0x17 DUP4 PUSH2 0x194A JUMP JUMPDEST SWAP2 POP PUSH2 0x299A DUP3 PUSH2 0x295B JUMP JUMPDEST PUSH1 0x20 DUP3 ADD SWAP1 POP SWAP2 SWAP1 POP JUMP JUMPDEST PUSH0 PUSH1 0x20 DUP3 ADD SWAP1 POP DUP2 DUP2 SUB PUSH0 DUP4 ADD MSTORE PUSH2 0x29BC DUP2 PUSH2 0x2983 JUMP JUMPDEST SWAP1 POP SWAP2 SWAP1 POP JUMP JUMPDEST PUSH32 0x5061727469636970616E7420494420616C726561647920657869737473000000 PUSH0 DUP3 ADD MSTORE POP JUMP JUMPDEST PUSH0 PUSH2 0x29F7 PUSH1 0x1D DUP4 PUSH2 0x194A JUMP JUMPDEST SWAP2 POP PUSH2 0x2A02 DUP3 PUSH2 0x29C3 JUMP JUMPDEST PUSH1 0x20 DUP3 ADD SWAP1 POP SWAP2 SWAP1 POP JUMP JUMPDEST PUSH0 PUSH1 0x20 DUP3 ADD SWAP1 POP DUP2 DUP2 SUB PUSH0 DUP4 ADD MSTORE PUSH2 0x2A24 DUP2 PUSH2 0x29EB JUMP JUMPDEST SWAP1 POP SWAP2 SWAP1 POP JUMP JUMPDEST PUSH32 0x3000000000000000000000000000000000000000000000000000000000000000 PUSH0 DUP3 ADD MSTORE POP JUMP JUMPDEST PUSH0 PUSH2 0x2A5F PUSH1 0x1 DUP4 PUSH2 0x21FC JUMP JUMPDEST SWAP2 POP PUSH2 0x2A6A DUP3 PUSH2 0x2A2B JUMP JUMPDEST PUSH1 0x1 DUP3 ADD SWAP1 POP SWAP2 SWAP1 POP JUMP JUMPDEST PUSH0 PUSH32 0xFF00000000000000000000000000000000000000000000000000000000000000 DUP3 AND SWAP1 POP SWAP2 SWAP1 POP JUMP JUMPDEST PUSH0 DUP2 SWAP1 POP SWAP2 SWAP1 POP JUMP JUMPDEST PUSH2 0x2ABA PUSH2 0x2AB5 DUP3 PUSH2 0x2A75 JUMP JUMPDEST PUSH2 0x2AA0 JUMP JUMPDEST DUP3 MSTORE POP POP JUMP JUMPDEST PUSH0 PUSH2 0x2ACA DUP3 PUSH2 0x2A53 JUMP JUMPDEST SWAP2 POP PUSH2 0x2AD6 DUP3 DUP5 PUSH2 0x2AA9 JUMP JUMPDEST PUSH1 0x1 DUP3 ADD SWAP2 POP DUP2 SWAP1 POP SWAP3 SWAP2 POP POP JUMP INVALID LOG2 PUSH5 0x6970667358 0x22 SLT KECCAK256 STATICCALL DUP2 PC SDIV SWAP2 SWAP10 AND EXTCODECOPY EOFCREATE 0xF PUSH18 0xF018259F84E12B38F1E53F4223967D0EAA70 PUSH7 0xF78164736F6C63 NUMBER STOP ADDMOD 0x1E STOP CALLER "
				},
				"gasEstimates": {
					"creation": {
						"codeDepositCost": "2207000",
						"executionCost": "2351",
						"totalCost": "2209351"
					},
					"external": {
						"bookTrainingSlot(uint256,uint256,uint256)": "infinite",
						"registerAdmin(uint256,string,uint256)": "infinite",
						"registerParticipant(uint256,string,uint256,string,string,uint256,bool)": "infinite",
						"registerTrainer(uint256,string,uint256,string)": "infinite",
						"updateParticipantData(uint256,uint256,bool)": "infinite",
						"viewAdminBalance()": "infinite",
						"viewParticipantData(uint256)": "infinite",
						"viewTrainerSchedule(uint256)": "infinite"
					},
					"internal": {
						"_toString(uint256)": "infinite"
					}
				},
				"methodIdentifiers": {
					"bookTrainingSlot(uint256,uint256,uint256)": "6620f95f",
					"registerAdmin(uint256,string,uint256)": "710e2aba",
					"registerParticipant(uint256,string,uint256,string,string,uint256,bool)": "a30b027b",
					"registerTrainer(uint256,string,uint256,string)": "6c80cd33",
					"updateParticipantData(uint256,uint256,bool)": "3a7002e1",
					"viewAdminBalance()": "5a29dc29",
					"viewParticipantData(uint256)": "5ffc80f2",
					"viewTrainerSchedule(uint256)": "51eca4dd"
				}
			},
			"storageLayout": {
				"storage": [
					{
						"astId": 64,
						"contract": "contracts/DisasterRecoveryTraining.sol:DisasterRecoveryTraining",
						"label": "admins",
						"offset": 0,
						"slot": "0",
						"type": "t_mapping(t_uint256,t_struct(Admin)14_storage)"
					},
					{
						"astId": 68,
						"contract": "contracts/DisasterRecoveryTraining.sol:DisasterRecoveryTraining",
						"label": "isAdmin",
						"offset": 0,
						"slot": "1",
						"type": "t_mapping(t_address,t_bool)"
					},
					{
						"astId": 73,
						"contract": "contracts/DisasterRecoveryTraining.sol:DisasterRecoveryTraining",
						"label": "trainers",
						"offset": 0,
						"slot": "2",
						"type": "t_mapping(t_uint256,t_struct(Trainer)23_storage)"
					},
					{
						"astId": 78,
						"contract": "contracts/DisasterRecoveryTraining.sol:DisasterRecoveryTraining",
						"label": "participants",
						"offset": 0,
						"slot": "3",
						"type": "t_mapping(t_uint256,t_struct(Participant)41_storage)"
					},
					{
						"astId": 85,
						"contract": "contracts/DisasterRecoveryTraining.sol:DisasterRecoveryTraining",
						"label": "trainerSlots",
						"offset": 0,
						"slot": "4",
						"type": "t_mapping(t_uint256,t_mapping(t_uint256,t_struct(TrainingSlot)50_storage))"
					},
					{
						"astId": 88,
						"contract": "contracts/DisasterRecoveryTraining.sol:DisasterRecoveryTraining",
						"label": "adminIds",
						"offset": 0,
						"slot": "5",
						"type": "t_array(t_uint256)dyn_storage"
					}
				],
				"types": {
					"t_address": {
						"encoding": "inplace",
						"label": "address",
						"numberOfBytes": "20"
					},
					"t_array(t_uint256)dyn_storage": {
						"base": "t_uint256",
						"encoding": "dynamic_array",
						"label": "uint256[]",
						"numberOfBytes": "32"
					},
					"t_bool": {
						"encoding": "inplace",
						"label": "bool",
						"numberOfBytes": "1"
					},
					"t_enum(TrainingType)5": {
						"encoding": "inplace",
						"label": "enum DisasterRecoveryTraining.TrainingType",
						"numberOfBytes": "1"
					},
					"t_mapping(t_address,t_bool)": {
						"encoding": "mapping",
						"key": "t_address",
						"label": "mapping(address => bool)",
						"numberOfBytes": "32",
						"value": "t_bool"
					},
					"t_mapping(t_uint256,t_mapping(t_uint256,t_struct(TrainingSlot)50_storage))": {
						"encoding": "mapping",
						"key": "t_uint256",
						"label": "mapping(uint256 => mapping(uint256 => struct DisasterRecoveryTraining.TrainingSlot))",
						"numberOfBytes": "32",
						"value": "t_mapping(t_uint256,t_struct(TrainingSlot)50_storage)"
					},
					"t_mapping(t_uint256,t_struct(Admin)14_storage)": {
						"encoding": "mapping",
						"key": "t_uint256",
						"label": "mapping(uint256 => struct DisasterRecoveryTraining.Admin)",
						"numberOfBytes": "32",
						"value": "t_struct(Admin)14_storage"
					},
					"t_mapping(t_uint256,t_struct(Participant)41_storage)": {
						"encoding": "mapping",
						"key": "t_uint256",
						"label": "mapping(uint256 => struct DisasterRecoveryTraining.Participant)",
						"numberOfBytes": "32",
						"value": "t_struct(Participant)41_storage"
					},
					"t_mapping(t_uint256,t_struct(Trainer)23_storage)": {
						"encoding": "mapping",
						"key": "t_uint256",
						"label": "mapping(uint256 => struct DisasterRecoveryTraining.Trainer)",
						"numberOfBytes": "32",
						"value": "t_struct(Trainer)23_storage"
					},
					"t_mapping(t_uint256,t_struct(TrainingSlot)50_storage)": {
						"encoding": "mapping",
						"key": "t_uint256",
						"label": "mapping(uint256 => struct DisasterRecoveryTraining.TrainingSlot)",
						"numberOfBytes": "32",
						"value": "t_struct(TrainingSlot)50_storage"
					},
					"t_string_storage": {
						"encoding": "bytes",
						"label": "string",
						"numberOfBytes": "32"
					},
					"t_struct(Admin)14_storage": {
						"encoding": "inplace",
						"label": "struct DisasterRecoveryTraining.Admin",
						"members": [
							{
								"astId": 7,
								"contract": "contracts/DisasterRecoveryTraining.sol:DisasterRecoveryTraining",
								"label": "id",
								"offset": 0,
								"slot": "0",
								"type": "t_uint256"
							},
							{
								"astId": 9,
								"contract": "contracts/DisasterRecoveryTraining.sol:DisasterRecoveryTraining",
								"label": "name",
								"offset": 0,
								"slot": "1",
								"type": "t_string_storage"
							},
							{
								"astId": 11,
								"contract": "contracts/DisasterRecoveryTraining.sol:DisasterRecoveryTraining",
								"label": "age",
								"offset": 0,
								"slot": "2",
								"type": "t_uint256"
							},
							{
								"astId": 13,
								"contract": "contracts/DisasterRecoveryTraining.sol:DisasterRecoveryTraining",
								"label": "balance",
								"offset": 0,
								"slot": "3",
								"type": "t_uint256"
							}
						],
						"numberOfBytes": "128"
					},
					"t_struct(Participant)41_storage": {
						"encoding": "inplace",
						"label": "struct DisasterRecoveryTraining.Participant",
						"members": [
							{
								"astId": 25,
								"contract": "contracts/DisasterRecoveryTraining.sol:DisasterRecoveryTraining",
								"label": "id",
								"offset": 0,
								"slot": "0",
								"type": "t_uint256"
							},
							{
								"astId": 27,
								"contract": "contracts/DisasterRecoveryTraining.sol:DisasterRecoveryTraining",
								"label": "name",
								"offset": 0,
								"slot": "1",
								"type": "t_string_storage"
							},
							{
								"astId": 29,
								"contract": "contracts/DisasterRecoveryTraining.sol:DisasterRecoveryTraining",
								"label": "age",
								"offset": 0,
								"slot": "2",
								"type": "t_uint256"
							},
							{
								"astId": 31,
								"contract": "contracts/DisasterRecoveryTraining.sol:DisasterRecoveryTraining",
								"label": "gender",
								"offset": 0,
								"slot": "3",
								"type": "t_string_storage"
							},
							{
								"astId": 33,
								"contract": "contracts/DisasterRecoveryTraining.sol:DisasterRecoveryTraining",
								"label": "district",
								"offset": 0,
								"slot": "4",
								"type": "t_string_storage"
							},
							{
								"astId": 36,
								"contract": "contracts/DisasterRecoveryTraining.sol:DisasterRecoveryTraining",
								"label": "training_interest",
								"offset": 0,
								"slot": "5",
								"type": "t_enum(TrainingType)5"
							},
							{
								"astId": 38,
								"contract": "contracts/DisasterRecoveryTraining.sol:DisasterRecoveryTraining",
								"label": "has_completed_training",
								"offset": 1,
								"slot": "5",
								"type": "t_bool"
							},
							{
								"astId": 40,
								"contract": "contracts/DisasterRecoveryTraining.sol:DisasterRecoveryTraining",
								"label": "balance",
								"offset": 0,
								"slot": "6",
								"type": "t_uint256"
							}
						],
						"numberOfBytes": "224"
					},
					"t_struct(Trainer)23_storage": {
						"encoding": "inplace",
						"label": "struct DisasterRecoveryTraining.Trainer",
						"members": [
							{
								"astId": 16,
								"contract": "contracts/DisasterRecoveryTraining.sol:DisasterRecoveryTraining",
								"label": "id",
								"offset": 0,
								"slot": "0",
								"type": "t_uint256"
							},
							{
								"astId": 18,
								"contract": "contracts/DisasterRecoveryTraining.sol:DisasterRecoveryTraining",
								"label": "name",
								"offset": 0,
								"slot": "1",
								"type": "t_string_storage"
							},
							{
								"astId": 20,
								"contract": "contracts/DisasterRecoveryTraining.sol:DisasterRecoveryTraining",
								"label": "age",
								"offset": 0,
								"slot": "2",
								"type": "t_uint256"
							},
							{
								"astId": 22,
								"contract": "contracts/DisasterRecoveryTraining.sol:DisasterRecoveryTraining",
								"label": "gender",
								"offset": 0,
								"slot": "3",
								"type": "t_string_storage"
							}
						],
						"numberOfBytes": "128"
					},
					"t_struct(TrainingSlot)50_storage": {
						"encoding": "inplace",
						"label": "struct DisasterRecoveryTraining.TrainingSlot",
						"members": [
							{
								"astId": 43,
								"contract": "contracts/DisasterRecoveryTraining.sol:DisasterRecoveryTraining",
								"label": "slotId",
								"offset": 0,
								"slot": "0",
								"type": "t_uint256"
							},
							{
								"astId": 45,
								"contract": "contracts/DisasterRecoveryTraining.sol:DisasterRecoveryTraining",
								"label": "trainerId",
								"offset": 0,
								"slot": "1",
								"type": "t_uint256"
							},
							{
								"astId": 47,
								"contract": "contracts/DisasterRecoveryTraining.sol:DisasterRecoveryTraining",
								"label": "participantId",
								"offset": 0,
								"slot": "2",
								"type": "t_uint256"
							},
							{
								"astId": 49,
								"contract": "contracts/DisasterRecoveryTraining.sol:DisasterRecoveryTraining",
								"label": "isBooked",
								"offset": 0,
								"slot": "3",
								"type": "t_bool"
							}
						],
						"numberOfBytes": "128"
					},
					"t_uint256": {
						"encoding": "inplace",
						"label": "uint256",
						"numberOfBytes": "32"
					}
				}
			},
			"userdoc": {
				"kind": "user",
				"methods": {},
				"version": 1
			}
		}
	}
}