{
	"contracts/DisasterRecoveryTraining.sol": {
		"DisasterRecoveryTraining": {
			"abi": [
				{
					"inputs": [],
					"stateMutability": "nonpayable",
					"type": "constructor"
				},
				{
					"inputs": [
						{
							"internalType": "uint256",
							"name": "trainerId",
							"type": "uint256"
						},
						{
							"internalType": "uint256",
							"name": "participantId",
							"type": "uint256"
						},
						{
							"internalType": "uint256",
							"name": "slotId",
							"type": "uint256"
						}
					],
					"name": "bookTrainingSlot",
					"outputs": [
						{
							"internalType": "bool",
							"name": "",
							"type": "bool"
						}
					],
					"stateMutability": "nonpayable",
					"type": "function"
				},
				{
					"inputs": [
						{
							"internalType": "uint256",
							"name": "id",
							"type": "uint256"
						},
						{
							"internalType": "string",
							"name": "name",
							"type": "string"
						},
						{
							"internalType": "uint256",
							"name": "age",
							"type": "uint256"
						}
					],
					"name": "registerAdmin",
					"outputs": [
						{
							"internalType": "uint256",
							"name": "",
							"type": "uint256"
						}
					],
					"stateMutability": "nonpayable",
					"type": "function"
				},
				{
					"inputs": [
						{
							"internalType": "uint256",
							"name": "id",
							"type": "uint256"
						},
						{
							"internalType": "string",
							"name": "name",
							"type": "string"
						},
						{
							"internalType": "uint256",
							"name": "age",
							"type": "uint256"
						},
						{
							"internalType": "string",
							"name": "gender",
							"type": "string"
						},
						{
							"internalType": "string",
							"name": "district",
							"type": "string"
						},
						{
							"internalType": "uint256",
							"name": "training_interest",
							"type": "uint256"
						},
						{
							"internalType": "bool",
							"name": "has_completed_training",
							"type": "bool"
						}
					],
					"name": "registerParticipant",
					"outputs": [
						{
							"internalType": "uint256",
							"name": "",
							"type": "uint256"
						}
					],
					"stateMutability": "nonpayable",
					"type": "function"
				},
				{
					"inputs": [
						{
							"internalType": "uint256",
							"name": "id",
							"type": "uint256"
						},
						{
							"internalType": "string",
							"name": "name",
							"type": "string"
						},
						{
							"internalType": "uint256",
							"name": "age",
							"type": "uint256"
						},
						{
							"internalType": "string",
							"name": "gender",
							"type": "string"
						}
					],
					"name": "registerTrainer",
					"outputs": [
						{
							"internalType": "uint256",
							"name": "",
							"type": "uint256"
						}
					],
					"stateMutability": "nonpayable",
					"type": "function"
				},
				{
					"inputs": [
						{
							"internalType": "uint256",
							"name": "participantId",
							"type": "uint256"
						},
						{
							"internalType": "uint256",
							"name": "newTrainingInterest",
							"type": "uint256"
						},
						{
							"internalType": "bool",
							"name": "has_completed_training",
							"type": "bool"
						}
					],
					"name": "updateParticipantData",
					"outputs": [],
					"stateMutability": "nonpayable",
					"type": "function"
				},
				{
					"inputs": [],
					"name": "viewAdminBalance",
					"outputs": [
						{
							"internalType": "uint256[]",
							"name": "adminIdList",
							"type": "uint256[]"
						},
						{
							"internalType": "uint256[]",
							"name": "balanceList",
							"type": "uint256[]"
						}
					],
					"stateMutability": "view",
					"type": "function"
				},
				{
					"inputs": [
						{
							"internalType": "uint256",
							"name": "participantId",
							"type": "uint256"
						}
					],
					"name": "viewParticipantData",
					"outputs": [
						{
							"internalType": "uint256",
							"name": "id",
							"type": "uint256"
						},
						{
							"internalType": "string",
							"name": "name",
							"type": "string"
						},
						{
							"internalType": "uint256",
							"name": "age",
							"type": "uint256"
						},
						{
							"internalType": "string",
							"name": "gender",
							"type": "string"
						},
						{
							"internalType": "string",
							"name": "district",
							"type": "string"
						},
						{
							"internalType": "uint256",
							"name": "training_interest",
							"type": "uint256"
						},
						{
							"internalType": "bool",
							"name": "has_completed_training",
							"type": "bool"
						},
						{
							"internalType": "uint256",
							"name": "balance",
							"type": "uint256"
						}
					],
					"stateMutability": "view",
					"type": "function"
				},
				{
					"inputs": [
						{
							"internalType": "uint256",
							"name": "trainerId",
							"type": "uint256"
						}
					],
					"name": "viewTrainerSchedule",
					"outputs": [
						{
							"internalType": "uint256[]",
							"name": "availableSlots",
							"type": "uint256[]"
						},
						{
							"internalType": "string[]",
							"name": "timeRanges",
							"type": "string[]"
						}
					],
					"stateMutability": "view",
					"type": "function"
				}
			],
			"devdoc": {
				"kind": "dev",
				"methods": {},
				"version": 1
			},
			"evm": {
				"assembly": "    /* \"contracts/DisasterRecoveryTraining.sol\":65:8020  contract DisasterRecoveryTraining {... */\n  mstore(0x40, 0x80)\n    /* \"contracts/DisasterRecoveryTraining.sol\":1460:1481  constructor() {... */\n  callvalue\n  dup1\n  iszero\n  tag_1\n  jumpi\n  revert(0x00, 0x00)\ntag_1:\n  pop\n    /* \"contracts/DisasterRecoveryTraining.sol\":65:8020  contract DisasterRecoveryTraining {... */\n  dataSize(sub_0)\n  dup1\n  dataOffset(sub_0)\n  0x00\n  codecopy\n  0x00\n  return\nstop\n\nsub_0: assembly {\n        /* \"contracts/DisasterRecoveryTraining.sol\":65:8020  contract DisasterRecoveryTraining {... */\n      mstore(0x40, 0x80)\n      callvalue\n      dup1\n      iszero\n      tag_1\n      jumpi\n      revert(0x00, 0x00)\n    tag_1:\n      pop\n      jumpi(tag_2, lt(calldatasize, 0x04))\n      shr(0xe0, calldataload(0x00))\n      dup1\n      0x6620f95f\n      gt\n      tag_11\n      jumpi\n      dup1\n      0x6620f95f\n      eq\n      tag_7\n      jumpi\n      dup1\n      0x6c80cd33\n      eq\n      tag_8\n      jumpi\n      dup1\n      0x710e2aba\n      eq\n      tag_9\n      jumpi\n      dup1\n      0xa30b027b\n      eq\n      tag_10\n      jumpi\n      jump(tag_2)\n    tag_11:\n      dup1\n      0x3a7002e1\n      eq\n      tag_3\n      jumpi\n      dup1\n      0x51eca4dd\n      eq\n      tag_4\n      jumpi\n      dup1\n      0x5a29dc29\n      eq\n      tag_5\n      jumpi\n      dup1\n      0x5ffc80f2\n      eq\n      tag_6\n      jumpi\n    tag_2:\n      revert(0x00, 0x00)\n        /* \"contracts/DisasterRecoveryTraining.sol\":3016:3614  function updateParticipantData(uint256 participantId, uint256 newTrainingInterest, bool has_completed_training) external {... */\n    tag_3:\n      tag_12\n      0x04\n      dup1\n      calldatasize\n      sub\n      dup2\n      add\n      swap1\n      tag_13\n      swap2\n      swap1\n      tag_14\n      jump\t// in\n    tag_13:\n      tag_15\n      jump\t// in\n    tag_12:\n      stop\n        /* \"contracts/DisasterRecoveryTraining.sol\":6523:8018  function viewTrainerSchedule(uint256 trainerId) external view returns (... */\n    tag_4:\n      tag_16\n      0x04\n      dup1\n      calldatasize\n      sub\n      dup2\n      add\n      swap1\n      tag_17\n      swap2\n      swap1\n      tag_18\n      jump\t// in\n    tag_17:\n      tag_19\n      jump\t// in\n    tag_16:\n      mload(0x40)\n      tag_20\n      swap3\n      swap2\n      swap1\n      tag_21\n      jump\t// in\n    tag_20:\n      mload(0x40)\n      dup1\n      swap2\n      sub\n      swap1\n      return\n        /* \"contracts/DisasterRecoveryTraining.sol\":4648:5214  function viewAdminBalance() external view returns (uint256[] memory adminIdList, uint256[] memory balanceList) {... */\n    tag_5:\n      tag_22\n      tag_23\n      jump\t// in\n    tag_22:\n      mload(0x40)\n      tag_24\n      swap3\n      swap2\n      swap1\n      tag_25\n      jump\t// in\n    tag_24:\n      mload(0x40)\n      dup1\n      swap2\n      sub\n      swap1\n      return\n        /* \"contracts/DisasterRecoveryTraining.sol\":5224:5921  function viewParticipantData(uint256 participantId) external view returns (... */\n    tag_6:\n      tag_26\n      0x04\n      dup1\n      calldatasize\n      sub\n      dup2\n      add\n      swap1\n      tag_27\n      swap2\n      swap1\n      tag_18\n      jump\t// in\n    tag_27:\n      tag_28\n      jump\t// in\n    tag_26:\n      mload(0x40)\n      tag_29\n      swap9\n      swap8\n      swap7\n      swap6\n      swap5\n      swap4\n      swap3\n      swap2\n      swap1\n      tag_30\n      jump\t// in\n    tag_29:\n      mload(0x40)\n      dup1\n      swap2\n      sub\n      swap1\n      return\n        /* \"contracts/DisasterRecoveryTraining.sol\":3624:4638  function bookTrainingSlot(uint256 trainerId, uint256 participantId, uint256 slotId) external returns (bool) {... */\n    tag_7:\n      tag_31\n      0x04\n      dup1\n      calldatasize\n      sub\n      dup2\n      add\n      swap1\n      tag_32\n      swap2\n      swap1\n      tag_33\n      jump\t// in\n    tag_32:\n      tag_34\n      jump\t// in\n    tag_31:\n      mload(0x40)\n      tag_35\n      swap2\n      swap1\n      tag_36\n      jump\t// in\n    tag_35:\n      mload(0x40)\n      dup1\n      swap2\n      sub\n      swap1\n      return\n        /* \"contracts/DisasterRecoveryTraining.sol\":1848:2205  function registerTrainer(uint256 id, string memory name, uint256 age, string memory gender) external returns (uint256) {... */\n    tag_8:\n      tag_37\n      0x04\n      dup1\n      calldatasize\n      sub\n      dup2\n      add\n      swap1\n      tag_38\n      swap2\n      swap1\n      tag_39\n      jump\t// in\n    tag_38:\n      tag_40\n      jump\t// in\n    tag_37:\n      mload(0x40)\n      tag_41\n      swap2\n      swap1\n      tag_42\n      jump\t// in\n    tag_41:\n      mload(0x40)\n      dup1\n      swap2\n      sub\n      swap1\n      return\n        /* \"contracts/DisasterRecoveryTraining.sol\":1491:1838  function registerAdmin(uint256 id, string memory name, uint256 age) external returns (uint256) {... */\n    tag_9:\n      tag_43\n      0x04\n      dup1\n      calldatasize\n      sub\n      dup2\n      add\n      swap1\n      tag_44\n      swap2\n      swap1\n      tag_45\n      jump\t// in\n    tag_44:\n      tag_46\n      jump\t// in\n    tag_43:\n      mload(0x40)\n      tag_47\n      swap2\n      swap1\n      tag_42\n      jump\t// in\n    tag_47:\n      mload(0x40)\n      dup1\n      swap2\n      sub\n      swap1\n      return\n        /* \"contracts/DisasterRecoveryTraining.sol\":2215:3006  function registerParticipant(... */\n    tag_10:\n      tag_48\n      0x04\n      dup1\n      calldatasize\n      sub\n      dup2\n      add\n      swap1\n      tag_49\n      swap2\n      swap1\n      tag_50\n      jump\t// in\n    tag_49:\n      tag_51\n      jump\t// in\n    tag_48:\n      mload(0x40)\n      tag_52\n      swap2\n      swap1\n      tag_42\n      jump\t// in\n    tag_52:\n      mload(0x40)\n      dup1\n      swap2\n      sub\n      swap1\n      return\n        /* \"contracts/DisasterRecoveryTraining.sol\":3016:3614  function updateParticipantData(uint256 participantId, uint256 newTrainingInterest, bool has_completed_training) external {... */\n    tag_15:\n        /* \"contracts/DisasterRecoveryTraining.sol\":3189:3190  0 */\n      0x00\n        /* \"contracts/DisasterRecoveryTraining.sol\":3155:3167  participants */\n      0x02\n        /* \"contracts/DisasterRecoveryTraining.sol\":3155:3182  participants[participantId] */\n      0x00\n        /* \"contracts/DisasterRecoveryTraining.sol\":3168:3181  participantId */\n      dup6\n        /* \"contracts/DisasterRecoveryTraining.sol\":3155:3182  participants[participantId] */\n      dup2\n      mstore\n      0x20\n      add\n      swap1\n      dup2\n      mstore\n      0x20\n      add\n      0x00\n      keccak256\n        /* \"contracts/DisasterRecoveryTraining.sol\":3155:3185  participants[participantId].id */\n      0x00\n      add\n      sload\n        /* \"contracts/DisasterRecoveryTraining.sol\":3155:3190  participants[participantId].id != 0 */\n      sub\n        /* \"contracts/DisasterRecoveryTraining.sol\":3147:3216  require(participants[participantId].id != 0, \"Participant not found\") */\n      tag_54\n      jumpi\n      mload(0x40)\n      0x08c379a000000000000000000000000000000000000000000000000000000000\n      dup2\n      mstore\n      0x04\n      add\n      tag_55\n      swap1\n      tag_56\n      jump\t// in\n    tag_55:\n      mload(0x40)\n      dup1\n      swap2\n      sub\n      swap1\n      revert\n    tag_54:\n        /* \"contracts/DisasterRecoveryTraining.sol\":3257:3258  2 */\n      0x02\n        /* \"contracts/DisasterRecoveryTraining.sol\":3234:3253  newTrainingInterest */\n      dup3\n        /* \"contracts/DisasterRecoveryTraining.sol\":3234:3258  newTrainingInterest <= 2 */\n      gt\n      iszero\n        /* \"contracts/DisasterRecoveryTraining.sol\":3226:3288  require(newTrainingInterest <= 2, \"Invalid training interest\") */\n      tag_57\n      jumpi\n      mload(0x40)\n      0x08c379a000000000000000000000000000000000000000000000000000000000\n      dup2\n      mstore\n      0x04\n      add\n      tag_58\n      swap1\n      tag_59\n      jump\t// in\n    tag_58:\n      mload(0x40)\n      dup1\n      swap2\n      sub\n      swap1\n      revert\n    tag_57:\n        /* \"contracts/DisasterRecoveryTraining.sol\":3307:3328  Participant storage p */\n      0x00\n        /* \"contracts/DisasterRecoveryTraining.sol\":3331:3343  participants */\n      0x02\n        /* \"contracts/DisasterRecoveryTraining.sol\":3331:3358  participants[participantId] */\n      0x00\n        /* \"contracts/DisasterRecoveryTraining.sol\":3344:3357  participantId */\n      dup6\n        /* \"contracts/DisasterRecoveryTraining.sol\":3331:3358  participants[participantId] */\n      dup2\n      mstore\n      0x20\n      add\n      swap1\n      dup2\n      mstore\n      0x20\n      add\n      0x00\n      keccak256\n        /* \"contracts/DisasterRecoveryTraining.sol\":3307:3358  Participant storage p = participants[participantId] */\n      swap1\n      pop\n        /* \"contracts/DisasterRecoveryTraining.sol\":3377:3378  p */\n      dup1\n        /* \"contracts/DisasterRecoveryTraining.sol\":3377:3401  p.has_completed_training */\n      0x05\n      add\n      0x01\n      swap1\n      sload\n      swap1\n      0x0100\n      exp\n      swap1\n      div\n      0xff\n      and\n        /* \"contracts/DisasterRecoveryTraining.sol\":3376:3401  !p.has_completed_training */\n      iszero\n        /* \"contracts/DisasterRecoveryTraining.sol\":3376:3427  !p.has_completed_training || has_completed_training */\n      dup1\n      tag_60\n      jumpi\n      pop\n        /* \"contracts/DisasterRecoveryTraining.sol\":3405:3427  has_completed_training */\n      dup2\n        /* \"contracts/DisasterRecoveryTraining.sol\":3376:3427  !p.has_completed_training || has_completed_training */\n    tag_60:\n        /* \"contracts/DisasterRecoveryTraining.sol\":3368:3474  require(!p.has_completed_training || has_completed_training, \"Cannot change completed from true to false\") */\n      tag_61\n      jumpi\n      mload(0x40)\n      0x08c379a000000000000000000000000000000000000000000000000000000000\n      dup2\n      mstore\n      0x04\n      add\n      tag_62\n      swap1\n      tag_63\n      jump\t// in\n    tag_62:\n      mload(0x40)\n      dup1\n      swap2\n      sub\n      swap1\n      revert\n    tag_61:\n        /* \"contracts/DisasterRecoveryTraining.sol\":3528:3547  newTrainingInterest */\n      dup3\n        /* \"contracts/DisasterRecoveryTraining.sol\":3515:3548  TrainingType(newTrainingInterest) */\n      0x02\n      dup2\n      gt\n      iszero\n      tag_64\n      jumpi\n      tag_65\n      tag_66\n      jump\t// in\n    tag_65:\n    tag_64:\n        /* \"contracts/DisasterRecoveryTraining.sol\":3493:3494  p */\n      dup2\n        /* \"contracts/DisasterRecoveryTraining.sol\":3493:3512  p.training_interest */\n      0x05\n      add\n      0x00\n        /* \"contracts/DisasterRecoveryTraining.sol\":3493:3548  p.training_interest = TrainingType(newTrainingInterest) */\n      0x0100\n      exp\n      dup2\n      sload\n      dup2\n      0xff\n      mul\n      not\n      and\n      swap1\n      dup4\n      0x02\n      dup2\n      gt\n      iszero\n      tag_67\n      jumpi\n      tag_68\n      tag_66\n      jump\t// in\n    tag_68:\n    tag_67:\n      mul\n      or\n      swap1\n      sstore\n      pop\n        /* \"contracts/DisasterRecoveryTraining.sol\":3585:3607  has_completed_training */\n      dup2\n        /* \"contracts/DisasterRecoveryTraining.sol\":3558:3559  p */\n      dup2\n        /* \"contracts/DisasterRecoveryTraining.sol\":3558:3582  p.has_completed_training */\n      0x05\n      add\n      0x01\n        /* \"contracts/DisasterRecoveryTraining.sol\":3558:3607  p.has_completed_training = has_completed_training */\n      0x0100\n      exp\n      dup2\n      sload\n      dup2\n      0xff\n      mul\n      not\n      and\n      swap1\n      dup4\n      iszero\n      iszero\n      mul\n      or\n      swap1\n      sstore\n      pop\n        /* \"contracts/DisasterRecoveryTraining.sol\":3137:3614  {... */\n      pop\n        /* \"contracts/DisasterRecoveryTraining.sol\":3016:3614  function updateParticipantData(uint256 participantId, uint256 newTrainingInterest, bool has_completed_training) external {... */\n      pop\n      pop\n      pop\n      jump\t// out\n        /* \"contracts/DisasterRecoveryTraining.sol\":6523:8018  function viewTrainerSchedule(uint256 trainerId) external view returns (... */\n    tag_19:\n        /* \"contracts/DisasterRecoveryTraining.sol\":6603:6634  uint256[] memory availableSlots */\n      0x60\n        /* \"contracts/DisasterRecoveryTraining.sol\":6644:6670  string[] memory timeRanges */\n      dup1\n        /* \"contracts/DisasterRecoveryTraining.sol\":6721:6722  0 */\n      0x00\n        /* \"contracts/DisasterRecoveryTraining.sol\":6695:6703  trainers */\n      0x01\n        /* \"contracts/DisasterRecoveryTraining.sol\":6695:6714  trainers[trainerId] */\n      0x00\n        /* \"contracts/DisasterRecoveryTraining.sol\":6704:6713  trainerId */\n      dup6\n        /* \"contracts/DisasterRecoveryTraining.sol\":6695:6714  trainers[trainerId] */\n      dup2\n      mstore\n      0x20\n      add\n      swap1\n      dup2\n      mstore\n      0x20\n      add\n      0x00\n      keccak256\n        /* \"contracts/DisasterRecoveryTraining.sol\":6695:6717  trainers[trainerId].id */\n      0x00\n      add\n      sload\n        /* \"contracts/DisasterRecoveryTraining.sol\":6695:6722  trainers[trainerId].id != 0 */\n      sub\n        /* \"contracts/DisasterRecoveryTraining.sol\":6687:6744  require(trainers[trainerId].id != 0, \"Trainer not found\") */\n      tag_70\n      jumpi\n      mload(0x40)\n      0x08c379a000000000000000000000000000000000000000000000000000000000\n      dup2\n      mstore\n      0x04\n      add\n      tag_71\n      swap1\n      tag_72\n      jump\t// in\n    tag_71:\n      mload(0x40)\n      dup1\n      swap2\n      sub\n      swap1\n      revert\n    tag_70:\n        /* \"contracts/DisasterRecoveryTraining.sol\":6754:6776  uint256 availableCount */\n      0x00\n        /* \"contracts/DisasterRecoveryTraining.sol\":6779:6780  0 */\n      0x00\n        /* \"contracts/DisasterRecoveryTraining.sol\":6754:6780  uint256 availableCount = 0 */\n      swap1\n      pop\n        /* \"contracts/DisasterRecoveryTraining.sol\":6795:6804  uint256 i */\n      0x00\n        /* \"contracts/DisasterRecoveryTraining.sol\":6807:6808  0 */\n      0x00\n        /* \"contracts/DisasterRecoveryTraining.sol\":6795:6808  uint256 i = 0 */\n      swap1\n      pop\n        /* \"contracts/DisasterRecoveryTraining.sol\":6790:6955  for (uint256 i = 0; i < TOTAL_SLOTS_PER_DAY; i++) {... */\n    tag_73:\n        /* \"contracts/DisasterRecoveryTraining.sol\":881:883  48 */\n      0x30\n        /* \"contracts/DisasterRecoveryTraining.sol\":6810:6811  i */\n      dup2\n        /* \"contracts/DisasterRecoveryTraining.sol\":6810:6833  i < TOTAL_SLOTS_PER_DAY */\n      lt\n        /* \"contracts/DisasterRecoveryTraining.sol\":6790:6955  for (uint256 i = 0; i < TOTAL_SLOTS_PER_DAY; i++) {... */\n      iszero\n      tag_74\n      jumpi\n        /* \"contracts/DisasterRecoveryTraining.sol\":6859:6871  trainerSlots */\n      0x03\n        /* \"contracts/DisasterRecoveryTraining.sol\":6859:6882  trainerSlots[trainerId] */\n      0x00\n        /* \"contracts/DisasterRecoveryTraining.sol\":6872:6881  trainerId */\n      dup7\n        /* \"contracts/DisasterRecoveryTraining.sol\":6859:6882  trainerSlots[trainerId] */\n      dup2\n      mstore\n      0x20\n      add\n      swap1\n      dup2\n      mstore\n      0x20\n      add\n      0x00\n      keccak256\n        /* \"contracts/DisasterRecoveryTraining.sol\":6859:6885  trainerSlots[trainerId][i] */\n      0x00\n        /* \"contracts/DisasterRecoveryTraining.sol\":6883:6884  i */\n      dup3\n        /* \"contracts/DisasterRecoveryTraining.sol\":6859:6885  trainerSlots[trainerId][i] */\n      dup2\n      mstore\n      0x20\n      add\n      swap1\n      dup2\n      mstore\n      0x20\n      add\n      0x00\n      keccak256\n        /* \"contracts/DisasterRecoveryTraining.sol\":6859:6894  trainerSlots[trainerId][i].isBooked */\n      0x03\n      add\n      0x00\n      swap1\n      sload\n      swap1\n      0x0100\n      exp\n      swap1\n      div\n      0xff\n      and\n        /* \"contracts/DisasterRecoveryTraining.sol\":6854:6945  if (!trainerSlots[trainerId][i].isBooked) {... */\n      tag_76\n      jumpi\n        /* \"contracts/DisasterRecoveryTraining.sol\":6914:6930  availableCount++ */\n      dup2\n      dup1\n      tag_77\n      swap1\n      tag_78\n      jump\t// in\n    tag_77:\n      swap3\n      pop\n      pop\n        /* \"contracts/DisasterRecoveryTraining.sol\":6854:6945  if (!trainerSlots[trainerId][i].isBooked) {... */\n    tag_76:\n        /* \"contracts/DisasterRecoveryTraining.sol\":6835:6838  i++ */\n      dup1\n      dup1\n      0x01\n      add\n      swap2\n      pop\n      pop\n        /* \"contracts/DisasterRecoveryTraining.sol\":6790:6955  for (uint256 i = 0; i < TOTAL_SLOTS_PER_DAY; i++) {... */\n      jump(tag_73)\n    tag_74:\n      pop\n        /* \"contracts/DisasterRecoveryTraining.sol\":6995:7009  availableCount */\n      dup1\n        /* \"contracts/DisasterRecoveryTraining.sol\":6981:7010  new uint256[](availableCount) */\n      0xffffffffffffffff\n      dup2\n      gt\n      iszero\n      tag_79\n      jumpi\n      tag_80\n      tag_81\n      jump\t// in\n    tag_80:\n    tag_79:\n      mload(0x40)\n      swap1\n      dup1\n      dup3\n      mstore\n      dup1\n      0x20\n      mul\n      0x20\n      add\n      dup3\n      add\n      0x40\n      mstore\n      dup1\n      iszero\n      tag_82\n      jumpi\n      dup2\n      0x20\n      add\n      0x20\n      dup3\n      mul\n      dup1\n      calldatasize\n      dup4\n      calldatacopy\n      dup1\n      dup3\n      add\n      swap2\n      pop\n      pop\n      swap1\n      pop\n    tag_82:\n      pop\n        /* \"contracts/DisasterRecoveryTraining.sol\":6964:7010  availableSlots = new uint256[](availableCount) */\n      swap3\n      pop\n        /* \"contracts/DisasterRecoveryTraining.sol\":7046:7060  availableCount */\n      dup1\n        /* \"contracts/DisasterRecoveryTraining.sol\":7033:7061  new string[](availableCount) */\n      0xffffffffffffffff\n      dup2\n      gt\n      iszero\n      tag_83\n      jumpi\n      tag_84\n      tag_81\n      jump\t// in\n    tag_84:\n    tag_83:\n      mload(0x40)\n      swap1\n      dup1\n      dup3\n      mstore\n      dup1\n      0x20\n      mul\n      0x20\n      add\n      dup3\n      add\n      0x40\n      mstore\n      dup1\n      iszero\n      tag_85\n      jumpi\n      dup2\n      0x20\n      add\n    tag_86:\n      0x60\n      dup2\n      mstore\n      0x20\n      add\n      swap1\n      0x01\n      swap1\n      sub\n      swap1\n      dup2\n      tag_86\n      jumpi\n      swap1\n      pop\n    tag_85:\n      pop\n        /* \"contracts/DisasterRecoveryTraining.sol\":7020:7061  timeRanges = new string[](availableCount) */\n      swap2\n      pop\n        /* \"contracts/DisasterRecoveryTraining.sol\":7071:7084  uint256 index */\n      0x00\n        /* \"contracts/DisasterRecoveryTraining.sol\":7087:7088  0 */\n      0x00\n        /* \"contracts/DisasterRecoveryTraining.sol\":7071:7088  uint256 index = 0 */\n      swap1\n      pop\n        /* \"contracts/DisasterRecoveryTraining.sol\":7112:7121  uint256 i */\n      0x00\n        /* \"contracts/DisasterRecoveryTraining.sol\":7124:7125  0 */\n      0x00\n        /* \"contracts/DisasterRecoveryTraining.sol\":7112:7125  uint256 i = 0 */\n      swap1\n      pop\n        /* \"contracts/DisasterRecoveryTraining.sol\":7107:7958  for (uint256 i = 0; i < TOTAL_SLOTS_PER_DAY; i++) {... */\n    tag_87:\n        /* \"contracts/DisasterRecoveryTraining.sol\":881:883  48 */\n      0x30\n        /* \"contracts/DisasterRecoveryTraining.sol\":7127:7128  i */\n      dup2\n        /* \"contracts/DisasterRecoveryTraining.sol\":7127:7150  i < TOTAL_SLOTS_PER_DAY */\n      lt\n        /* \"contracts/DisasterRecoveryTraining.sol\":7107:7958  for (uint256 i = 0; i < TOTAL_SLOTS_PER_DAY; i++) {... */\n      iszero\n      tag_88\n      jumpi\n        /* \"contracts/DisasterRecoveryTraining.sol\":7176:7188  trainerSlots */\n      0x03\n        /* \"contracts/DisasterRecoveryTraining.sol\":7176:7199  trainerSlots[trainerId] */\n      0x00\n        /* \"contracts/DisasterRecoveryTraining.sol\":7189:7198  trainerId */\n      dup8\n        /* \"contracts/DisasterRecoveryTraining.sol\":7176:7199  trainerSlots[trainerId] */\n      dup2\n      mstore\n      0x20\n      add\n      swap1\n      dup2\n      mstore\n      0x20\n      add\n      0x00\n      keccak256\n        /* \"contracts/DisasterRecoveryTraining.sol\":7176:7202  trainerSlots[trainerId][i] */\n      0x00\n        /* \"contracts/DisasterRecoveryTraining.sol\":7200:7201  i */\n      dup3\n        /* \"contracts/DisasterRecoveryTraining.sol\":7176:7202  trainerSlots[trainerId][i] */\n      dup2\n      mstore\n      0x20\n      add\n      swap1\n      dup2\n      mstore\n      0x20\n      add\n      0x00\n      keccak256\n        /* \"contracts/DisasterRecoveryTraining.sol\":7176:7211  trainerSlots[trainerId][i].isBooked */\n      0x03\n      add\n      0x00\n      swap1\n      sload\n      swap1\n      0x0100\n      exp\n      swap1\n      div\n      0xff\n      and\n        /* \"contracts/DisasterRecoveryTraining.sol\":7171:7948  if (!trainerSlots[trainerId][i].isBooked) {... */\n      tag_90\n      jumpi\n        /* \"contracts/DisasterRecoveryTraining.sol\":7255:7256  i */\n      dup1\n        /* \"contracts/DisasterRecoveryTraining.sol\":7231:7245  availableSlots */\n      dup6\n        /* \"contracts/DisasterRecoveryTraining.sol\":7246:7251  index */\n      dup4\n        /* \"contracts/DisasterRecoveryTraining.sol\":7231:7252  availableSlots[index] */\n      dup2\n      mload\n      dup2\n      lt\n      tag_91\n      jumpi\n      tag_92\n      tag_93\n      jump\t// in\n    tag_92:\n    tag_91:\n      0x20\n      mul\n      0x20\n      add\n      add\n        /* \"contracts/DisasterRecoveryTraining.sol\":7231:7256  availableSlots[index] = i */\n      dup2\n      dup2\n      mstore\n      pop\n      pop\n        /* \"contracts/DisasterRecoveryTraining.sol\":7274:7291  uint256 startHour */\n      0x00\n        /* \"contracts/DisasterRecoveryTraining.sol\":7298:7299  2 */\n      0x02\n        /* \"contracts/DisasterRecoveryTraining.sol\":7294:7295  i */\n      dup3\n        /* \"contracts/DisasterRecoveryTraining.sol\":7294:7299  i / 2 */\n      tag_94\n      swap2\n      swap1\n      tag_95\n      jump\t// in\n    tag_94:\n        /* \"contracts/DisasterRecoveryTraining.sol\":7274:7299  uint256 startHour = i / 2 */\n      swap1\n      pop\n        /* \"contracts/DisasterRecoveryTraining.sol\":7317:7336  uint256 startMinute */\n      0x00\n        /* \"contracts/DisasterRecoveryTraining.sol\":7349:7351  30 */\n      0x1e\n        /* \"contracts/DisasterRecoveryTraining.sol\":7344:7345  2 */\n      0x02\n        /* \"contracts/DisasterRecoveryTraining.sol\":7340:7341  i */\n      dup5\n        /* \"contracts/DisasterRecoveryTraining.sol\":7340:7345  i % 2 */\n      tag_96\n      swap2\n      swap1\n      tag_97\n      jump\t// in\n    tag_96:\n        /* \"contracts/DisasterRecoveryTraining.sol\":7339:7351  (i % 2) * 30 */\n      tag_98\n      swap2\n      swap1\n      tag_99\n      jump\t// in\n    tag_98:\n        /* \"contracts/DisasterRecoveryTraining.sol\":7317:7351  uint256 startMinute = (i % 2) * 30 */\n      swap1\n      pop\n        /* \"contracts/DisasterRecoveryTraining.sol\":7369:7384  uint256 endHour */\n      0x00\n        /* \"contracts/DisasterRecoveryTraining.sol\":7387:7396  startHour */\n      dup3\n        /* \"contracts/DisasterRecoveryTraining.sol\":7369:7396  uint256 endHour = startHour */\n      swap1\n      pop\n        /* \"contracts/DisasterRecoveryTraining.sol\":7414:7431  uint256 endMinute */\n      0x00\n        /* \"contracts/DisasterRecoveryTraining.sol\":7448:7450  30 */\n      0x1e\n        /* \"contracts/DisasterRecoveryTraining.sol\":7434:7445  startMinute */\n      dup4\n        /* \"contracts/DisasterRecoveryTraining.sol\":7434:7450  startMinute + 30 */\n      tag_100\n      swap2\n      swap1\n      tag_101\n      jump\t// in\n    tag_100:\n        /* \"contracts/DisasterRecoveryTraining.sol\":7414:7450  uint256 endMinute = startMinute + 30 */\n      swap1\n      pop\n        /* \"contracts/DisasterRecoveryTraining.sol\":7502:7504  60 */\n      0x3c\n        /* \"contracts/DisasterRecoveryTraining.sol\":7489:7498  endMinute */\n      dup2\n        /* \"contracts/DisasterRecoveryTraining.sol\":7489:7504  endMinute == 60 */\n      sub\n        /* \"contracts/DisasterRecoveryTraining.sol\":7485:7591  if (endMinute == 60) {... */\n      tag_102\n      jumpi\n        /* \"contracts/DisasterRecoveryTraining.sol\":7528:7537  endHour++ */\n      dup2\n      dup1\n      tag_103\n      swap1\n      tag_78\n      jump\t// in\n    tag_103:\n      swap3\n      pop\n      pop\n        /* \"contracts/DisasterRecoveryTraining.sol\":7571:7572  0 */\n      0x00\n        /* \"contracts/DisasterRecoveryTraining.sol\":7559:7572  endMinute = 0 */\n      swap1\n      pop\n        /* \"contracts/DisasterRecoveryTraining.sol\":7485:7591  if (endMinute == 60) {... */\n    tag_102:\n        /* \"contracts/DisasterRecoveryTraining.sol\":7673:7693  _toString(startHour) */\n      tag_104\n        /* \"contracts/DisasterRecoveryTraining.sol\":7683:7692  startHour */\n      dup5\n        /* \"contracts/DisasterRecoveryTraining.sol\":7673:7682  _toString */\n      tag_105\n        /* \"contracts/DisasterRecoveryTraining.sol\":7673:7693  _toString(startHour) */\n      jump\t// in\n    tag_104:\n        /* \"contracts/DisasterRecoveryTraining.sol\":7736:7737  0 */\n      0x00\n        /* \"contracts/DisasterRecoveryTraining.sol\":7721:7732  startMinute */\n      dup5\n        /* \"contracts/DisasterRecoveryTraining.sol\":7721:7737  startMinute == 0 */\n      eq\n        /* \"contracts/DisasterRecoveryTraining.sol\":7721:7751  startMinute == 0 ? \"00\" : \"30\" */\n      tag_106\n      jumpi\n      mload(0x40)\n      dup1\n      0x40\n      add\n      0x40\n      mstore\n      dup1\n      0x02\n      dup2\n      mstore\n      0x20\n      add\n      0x3330000000000000000000000000000000000000000000000000000000000000\n      dup2\n      mstore\n      pop\n      jump(tag_107)\n    tag_106:\n      mload(0x40)\n      dup1\n      0x40\n      add\n      0x40\n      mstore\n      dup1\n      0x02\n      dup2\n      mstore\n      0x20\n      add\n      0x3030000000000000000000000000000000000000000000000000000000000000\n      dup2\n      mstore\n      pop\n    tag_107:\n        /* \"contracts/DisasterRecoveryTraining.sol\":7799:7817  _toString(endHour) */\n      tag_108\n        /* \"contracts/DisasterRecoveryTraining.sol\":7809:7816  endHour */\n      dup5\n        /* \"contracts/DisasterRecoveryTraining.sol\":7799:7808  _toString */\n      tag_105\n        /* \"contracts/DisasterRecoveryTraining.sol\":7799:7817  _toString(endHour) */\n      jump\t// in\n    tag_108:\n        /* \"contracts/DisasterRecoveryTraining.sol\":7857:7858  0 */\n      0x00\n        /* \"contracts/DisasterRecoveryTraining.sol\":7844:7853  endMinute */\n      dup5\n        /* \"contracts/DisasterRecoveryTraining.sol\":7844:7858  endMinute == 0 */\n      eq\n        /* \"contracts/DisasterRecoveryTraining.sol\":7844:7872  endMinute == 0 ? \"00\" : \"30\" */\n      tag_109\n      jumpi\n      mload(0x40)\n      dup1\n      0x40\n      add\n      0x40\n      mstore\n      dup1\n      0x02\n      dup2\n      mstore\n      0x20\n      add\n      0x3330000000000000000000000000000000000000000000000000000000000000\n      dup2\n      mstore\n      pop\n      jump(tag_110)\n    tag_109:\n      mload(0x40)\n      dup1\n      0x40\n      add\n      0x40\n      mstore\n      dup1\n      0x02\n      dup2\n      mstore\n      0x20\n      add\n      0x3030000000000000000000000000000000000000000000000000000000000000\n      dup2\n      mstore\n      pop\n    tag_110:\n        /* \"contracts/DisasterRecoveryTraining.sol\":7635:7890  abi.encodePacked(... */\n      add(0x20, mload(0x40))\n      tag_111\n      swap5\n      swap4\n      swap3\n      swap2\n      swap1\n      tag_112\n      jump\t// in\n    tag_111:\n      mload(0x40)\n      0x20\n      dup2\n      dup4\n      sub\n      sub\n      dup2\n      mstore\n      swap1\n      0x40\n      mstore\n        /* \"contracts/DisasterRecoveryTraining.sol\":7608:7618  timeRanges */\n      dup9\n        /* \"contracts/DisasterRecoveryTraining.sol\":7619:7624  index */\n      dup8\n        /* \"contracts/DisasterRecoveryTraining.sol\":7608:7625  timeRanges[index] */\n      dup2\n      mload\n      dup2\n      lt\n      tag_113\n      jumpi\n      tag_114\n      tag_93\n      jump\t// in\n    tag_114:\n    tag_113:\n      0x20\n      mul\n      0x20\n      add\n      add\n        /* \"contracts/DisasterRecoveryTraining.sol\":7608:7891  timeRanges[index] = string(abi.encodePacked(... */\n      dup2\n      swap1\n      mstore\n      pop\n        /* \"contracts/DisasterRecoveryTraining.sol\":7926:7933  index++ */\n      dup6\n      dup1\n      tag_115\n      swap1\n      tag_78\n      jump\t// in\n    tag_115:\n      swap7\n      pop\n      pop\n        /* \"contracts/DisasterRecoveryTraining.sol\":7213:7948  {... */\n      pop\n      pop\n      pop\n      pop\n        /* \"contracts/DisasterRecoveryTraining.sol\":7171:7948  if (!trainerSlots[trainerId][i].isBooked) {... */\n    tag_90:\n        /* \"contracts/DisasterRecoveryTraining.sol\":7152:7155  i++ */\n      dup1\n      dup1\n      0x01\n      add\n      swap2\n      pop\n      pop\n        /* \"contracts/DisasterRecoveryTraining.sol\":7107:7958  for (uint256 i = 0; i < TOTAL_SLOTS_PER_DAY; i++) {... */\n      jump(tag_87)\n    tag_88:\n      pop\n        /* \"contracts/DisasterRecoveryTraining.sol\":7976:8011  return (availableSlots, timeRanges) */\n      pop\n      pop\n        /* \"contracts/DisasterRecoveryTraining.sol\":6523:8018  function viewTrainerSchedule(uint256 trainerId) external view returns (... */\n      swap2\n      pop\n      swap2\n      jump\t// out\n        /* \"contracts/DisasterRecoveryTraining.sol\":4648:5214  function viewAdminBalance() external view returns (uint256[] memory adminIdList, uint256[] memory balanceList) {... */\n    tag_23:\n        /* \"contracts/DisasterRecoveryTraining.sol\":4699:4727  uint256[] memory adminIdList */\n      0x60\n        /* \"contracts/DisasterRecoveryTraining.sol\":4729:4757  uint256[] memory balanceList */\n      dup1\n        /* \"contracts/DisasterRecoveryTraining.sol\":4769:4788  uint256 totalAdmins */\n      0x00\n        /* \"contracts/DisasterRecoveryTraining.sol\":4791:4799  adminIds */\n      0x04\n        /* \"contracts/DisasterRecoveryTraining.sol\":4791:4806  adminIds.length */\n      dup1\n      sload\n      swap1\n      pop\n        /* \"contracts/DisasterRecoveryTraining.sol\":4769:4806  uint256 totalAdmins = adminIds.length */\n      swap1\n      pop\n        /* \"contracts/DisasterRecoveryTraining.sol\":4853:4864  totalAdmins */\n      dup1\n        /* \"contracts/DisasterRecoveryTraining.sol\":4839:4865  new uint256[](totalAdmins) */\n      0xffffffffffffffff\n      dup2\n      gt\n      iszero\n      tag_117\n      jumpi\n      tag_118\n      tag_81\n      jump\t// in\n    tag_118:\n    tag_117:\n      mload(0x40)\n      swap1\n      dup1\n      dup3\n      mstore\n      dup1\n      0x20\n      mul\n      0x20\n      add\n      dup3\n      add\n      0x40\n      mstore\n      dup1\n      iszero\n      tag_119\n      jumpi\n      dup2\n      0x20\n      add\n      0x20\n      dup3\n      mul\n      dup1\n      calldatasize\n      dup4\n      calldatacopy\n      dup1\n      dup3\n      add\n      swap2\n      pop\n      pop\n      swap1\n      pop\n    tag_119:\n      pop\n        /* \"contracts/DisasterRecoveryTraining.sol\":4825:4865  adminIdList = new uint256[](totalAdmins) */\n      swap3\n      pop\n        /* \"contracts/DisasterRecoveryTraining.sol\":4903:4914  totalAdmins */\n      dup1\n        /* \"contracts/DisasterRecoveryTraining.sol\":4889:4915  new uint256[](totalAdmins) */\n      0xffffffffffffffff\n      dup2\n      gt\n      iszero\n      tag_120\n      jumpi\n      tag_121\n      tag_81\n      jump\t// in\n    tag_121:\n    tag_120:\n      mload(0x40)\n      swap1\n      dup1\n      dup3\n      mstore\n      dup1\n      0x20\n      mul\n      0x20\n      add\n      dup3\n      add\n      0x40\n      mstore\n      dup1\n      iszero\n      tag_122\n      jumpi\n      dup2\n      0x20\n      add\n      0x20\n      dup3\n      mul\n      dup1\n      calldatasize\n      dup4\n      calldatacopy\n      dup1\n      dup3\n      add\n      swap2\n      pop\n      pop\n      swap1\n      pop\n    tag_122:\n      pop\n        /* \"contracts/DisasterRecoveryTraining.sol\":4875:4915  balanceList = new uint256[](totalAdmins) */\n      swap2\n      pop\n        /* \"contracts/DisasterRecoveryTraining.sol\":4939:4948  uint256 i */\n      0x00\n        /* \"contracts/DisasterRecoveryTraining.sol\":4951:4952  0 */\n      0x00\n        /* \"contracts/DisasterRecoveryTraining.sol\":4939:4952  uint256 i = 0 */\n      swap1\n      pop\n        /* \"contracts/DisasterRecoveryTraining.sol\":4934:5156  for (uint256 i = 0; i < totalAdmins; i++) {... */\n    tag_123:\n        /* \"contracts/DisasterRecoveryTraining.sol\":4958:4969  totalAdmins */\n      dup2\n        /* \"contracts/DisasterRecoveryTraining.sol\":4954:4955  i */\n      dup2\n        /* \"contracts/DisasterRecoveryTraining.sol\":4954:4969  i < totalAdmins */\n      lt\n        /* \"contracts/DisasterRecoveryTraining.sol\":4934:5156  for (uint256 i = 0; i < totalAdmins; i++) {... */\n      iszero\n      tag_124\n      jumpi\n        /* \"contracts/DisasterRecoveryTraining.sol\":4990:5005  uint256 adminId */\n      0x00\n        /* \"contracts/DisasterRecoveryTraining.sol\":5008:5016  adminIds */\n      0x04\n        /* \"contracts/DisasterRecoveryTraining.sol\":5017:5018  i */\n      dup3\n        /* \"contracts/DisasterRecoveryTraining.sol\":5008:5019  adminIds[i] */\n      dup2\n      sload\n      dup2\n      lt\n      tag_126\n      jumpi\n      tag_127\n      tag_93\n      jump\t// in\n    tag_127:\n    tag_126:\n      swap1\n      0x00\n      mstore\n      keccak256(0x00, 0x20)\n      add\n      sload\n        /* \"contracts/DisasterRecoveryTraining.sol\":4990:5019  uint256 adminId = adminIds[i] */\n      swap1\n      pop\n        /* \"contracts/DisasterRecoveryTraining.sol\":5050:5057  adminId */\n      dup1\n        /* \"contracts/DisasterRecoveryTraining.sol\":5033:5044  adminIdList */\n      dup6\n        /* \"contracts/DisasterRecoveryTraining.sol\":5045:5046  i */\n      dup4\n        /* \"contracts/DisasterRecoveryTraining.sol\":5033:5047  adminIdList[i] */\n      dup2\n      mload\n      dup2\n      lt\n      tag_129\n      jumpi\n      tag_130\n      tag_93\n      jump\t// in\n    tag_130:\n    tag_129:\n      0x20\n      mul\n      0x20\n      add\n      add\n        /* \"contracts/DisasterRecoveryTraining.sol\":5033:5057  adminIdList[i] = adminId */\n      dup2\n      dup2\n      mstore\n      pop\n      pop\n        /* \"contracts/DisasterRecoveryTraining.sol\":5114:5121  1 ether */\n      0x0de0b6b3a7640000\n        /* \"contracts/DisasterRecoveryTraining.sol\":5088:5094  admins */\n      0x00\n        /* \"contracts/DisasterRecoveryTraining.sol\":5088:5103  admins[adminId] */\n      0x00\n        /* \"contracts/DisasterRecoveryTraining.sol\":5095:5102  adminId */\n      dup4\n        /* \"contracts/DisasterRecoveryTraining.sol\":5088:5103  admins[adminId] */\n      dup2\n      mstore\n      0x20\n      add\n      swap1\n      dup2\n      mstore\n      0x20\n      add\n      0x00\n      keccak256\n        /* \"contracts/DisasterRecoveryTraining.sol\":5088:5111  admins[adminId].balance */\n      0x03\n      add\n      sload\n        /* \"contracts/DisasterRecoveryTraining.sol\":5088:5121  admins[adminId].balance / 1 ether */\n      tag_131\n      swap2\n      swap1\n      tag_95\n      jump\t// in\n    tag_131:\n        /* \"contracts/DisasterRecoveryTraining.sol\":5071:5082  balanceList */\n      dup5\n        /* \"contracts/DisasterRecoveryTraining.sol\":5083:5084  i */\n      dup4\n        /* \"contracts/DisasterRecoveryTraining.sol\":5071:5085  balanceList[i] */\n      dup2\n      mload\n      dup2\n      lt\n      tag_132\n      jumpi\n      tag_133\n      tag_93\n      jump\t// in\n    tag_133:\n    tag_132:\n      0x20\n      mul\n      0x20\n      add\n      add\n        /* \"contracts/DisasterRecoveryTraining.sol\":5071:5121  balanceList[i] = admins[adminId].balance / 1 ether */\n      dup2\n      dup2\n      mstore\n      pop\n      pop\n        /* \"contracts/DisasterRecoveryTraining.sol\":4976:5156  {... */\n      pop\n        /* \"contracts/DisasterRecoveryTraining.sol\":4971:4974  i++ */\n      dup1\n      dup1\n      0x01\n      add\n      swap2\n      pop\n      pop\n        /* \"contracts/DisasterRecoveryTraining.sol\":4934:5156  for (uint256 i = 0; i < totalAdmins; i++) {... */\n      jump(tag_123)\n    tag_124:\n      pop\n        /* \"contracts/DisasterRecoveryTraining.sol\":5174:5207  return (adminIdList, balanceList) */\n      pop\n        /* \"contracts/DisasterRecoveryTraining.sol\":4648:5214  function viewAdminBalance() external view returns (uint256[] memory adminIdList, uint256[] memory balanceList) {... */\n      swap1\n      swap2\n      jump\t// out\n        /* \"contracts/DisasterRecoveryTraining.sol\":5224:5921  function viewParticipantData(uint256 participantId) external view returns (... */\n    tag_28:\n        /* \"contracts/DisasterRecoveryTraining.sol\":5308:5318  uint256 id */\n      0x00\n        /* \"contracts/DisasterRecoveryTraining.sol\":5328:5346  string memory name */\n      0x60\n        /* \"contracts/DisasterRecoveryTraining.sol\":5356:5367  uint256 age */\n      0x00\n        /* \"contracts/DisasterRecoveryTraining.sol\":5377:5397  string memory gender */\n      0x60\n        /* \"contracts/DisasterRecoveryTraining.sol\":5407:5429  string memory district */\n      dup1\n        /* \"contracts/DisasterRecoveryTraining.sol\":5439:5464  uint256 training_interest */\n      0x00\n        /* \"contracts/DisasterRecoveryTraining.sol\":5474:5501  bool has_completed_training */\n      0x00\n        /* \"contracts/DisasterRecoveryTraining.sol\":5511:5526  uint256 balance */\n      0x00\n        /* \"contracts/DisasterRecoveryTraining.sol\":5585:5586  0 */\n      0x00\n        /* \"contracts/DisasterRecoveryTraining.sol\":5551:5563  participants */\n      0x02\n        /* \"contracts/DisasterRecoveryTraining.sol\":5551:5578  participants[participantId] */\n      0x00\n        /* \"contracts/DisasterRecoveryTraining.sol\":5564:5577  participantId */\n      dup12\n        /* \"contracts/DisasterRecoveryTraining.sol\":5551:5578  participants[participantId] */\n      dup2\n      mstore\n      0x20\n      add\n      swap1\n      dup2\n      mstore\n      0x20\n      add\n      0x00\n      keccak256\n        /* \"contracts/DisasterRecoveryTraining.sol\":5551:5581  participants[participantId].id */\n      0x00\n      add\n      sload\n        /* \"contracts/DisasterRecoveryTraining.sol\":5551:5586  participants[participantId].id != 0 */\n      sub\n        /* \"contracts/DisasterRecoveryTraining.sol\":5543:5612  require(participants[participantId].id != 0, \"Participant not found\") */\n      tag_135\n      jumpi\n      mload(0x40)\n      0x08c379a000000000000000000000000000000000000000000000000000000000\n      dup2\n      mstore\n      0x04\n      add\n      tag_136\n      swap1\n      tag_56\n      jump\t// in\n    tag_136:\n      mload(0x40)\n      dup1\n      swap2\n      sub\n      swap1\n      revert\n    tag_135:\n        /* \"contracts/DisasterRecoveryTraining.sol\":5631:5651  Participant memory p */\n      0x00\n        /* \"contracts/DisasterRecoveryTraining.sol\":5654:5666  participants */\n      0x02\n        /* \"contracts/DisasterRecoveryTraining.sol\":5654:5681  participants[participantId] */\n      0x00\n        /* \"contracts/DisasterRecoveryTraining.sol\":5667:5680  participantId */\n      dup12\n        /* \"contracts/DisasterRecoveryTraining.sol\":5654:5681  participants[participantId] */\n      dup2\n      mstore\n      0x20\n      add\n      swap1\n      dup2\n      mstore\n      0x20\n      add\n      0x00\n      keccak256\n        /* \"contracts/DisasterRecoveryTraining.sol\":5631:5681  Participant memory p = participants[participantId] */\n      mload(0x40)\n      dup1\n      0x0100\n      add\n      0x40\n      mstore\n      swap1\n      dup2\n      0x00\n      dup3\n      add\n      sload\n      dup2\n      mstore\n      0x20\n      add\n      0x01\n      dup3\n      add\n      dup1\n      sload\n      tag_137\n      swap1\n      tag_138\n      jump\t// in\n    tag_137:\n      dup1\n      0x1f\n      add\n      0x20\n      dup1\n      swap2\n      div\n      mul\n      0x20\n      add\n      mload(0x40)\n      swap1\n      dup2\n      add\n      0x40\n      mstore\n      dup1\n      swap3\n      swap2\n      swap1\n      dup2\n      dup2\n      mstore\n      0x20\n      add\n      dup3\n      dup1\n      sload\n      tag_139\n      swap1\n      tag_138\n      jump\t// in\n    tag_139:\n      dup1\n      iszero\n      tag_140\n      jumpi\n      dup1\n      0x1f\n      lt\n      tag_141\n      jumpi\n      0x0100\n      dup1\n      dup4\n      sload\n      div\n      mul\n      dup4\n      mstore\n      swap2\n      0x20\n      add\n      swap2\n      jump(tag_140)\n    tag_141:\n      dup3\n      add\n      swap2\n      swap1\n      0x00\n      mstore\n      keccak256(0x00, 0x20)\n      swap1\n    tag_142:\n      dup2\n      sload\n      dup2\n      mstore\n      swap1\n      0x01\n      add\n      swap1\n      0x20\n      add\n      dup1\n      dup4\n      gt\n      tag_142\n      jumpi\n      dup3\n      swap1\n      sub\n      0x1f\n      and\n      dup3\n      add\n      swap2\n    tag_140:\n      pop\n      pop\n      pop\n      pop\n      pop\n      dup2\n      mstore\n      0x20\n      add\n      0x02\n      dup3\n      add\n      sload\n      dup2\n      mstore\n      0x20\n      add\n      0x03\n      dup3\n      add\n      dup1\n      sload\n      tag_143\n      swap1\n      tag_138\n      jump\t// in\n    tag_143:\n      dup1\n      0x1f\n      add\n      0x20\n      dup1\n      swap2\n      div\n      mul\n      0x20\n      add\n      mload(0x40)\n      swap1\n      dup2\n      add\n      0x40\n      mstore\n      dup1\n      swap3\n      swap2\n      swap1\n      dup2\n      dup2\n      mstore\n      0x20\n      add\n      dup3\n      dup1\n      sload\n      tag_144\n      swap1\n      tag_138\n      jump\t// in\n    tag_144:\n      dup1\n      iszero\n      tag_145\n      jumpi\n      dup1\n      0x1f\n      lt\n      tag_146\n      jumpi\n      0x0100\n      dup1\n      dup4\n      sload\n      div\n      mul\n      dup4\n      mstore\n      swap2\n      0x20\n      add\n      swap2\n      jump(tag_145)\n    tag_146:\n      dup3\n      add\n      swap2\n      swap1\n      0x00\n      mstore\n      keccak256(0x00, 0x20)\n      swap1\n    tag_147:\n      dup2\n      sload\n      dup2\n      mstore\n      swap1\n      0x01\n      add\n      swap1\n      0x20\n      add\n      dup1\n      dup4\n      gt\n      tag_147\n      jumpi\n      dup3\n      swap1\n      sub\n      0x1f\n      and\n      dup3\n      add\n      swap2\n    tag_145:\n      pop\n      pop\n      pop\n      pop\n      pop\n      dup2\n      mstore\n      0x20\n      add\n      0x04\n      dup3\n      add\n      dup1\n      sload\n      tag_148\n      swap1\n      tag_138\n      jump\t// in\n    tag_148:\n      dup1\n      0x1f\n      add\n      0x20\n      dup1\n      swap2\n      div\n      mul\n      0x20\n      add\n      mload(0x40)\n      swap1\n      dup2\n      add\n      0x40\n      mstore\n      dup1\n      swap3\n      swap2\n      swap1\n      dup2\n      dup2\n      mstore\n      0x20\n      add\n      dup3\n      dup1\n      sload\n      tag_149\n      swap1\n      tag_138\n      jump\t// in\n    tag_149:\n      dup1\n      iszero\n      tag_150\n      jumpi\n      dup1\n      0x1f\n      lt\n      tag_151\n      jumpi\n      0x0100\n      dup1\n      dup4\n      sload\n      div\n      mul\n      dup4\n      mstore\n      swap2\n      0x20\n      add\n      swap2\n      jump(tag_150)\n    tag_151:\n      dup3\n      add\n      swap2\n      swap1\n      0x00\n      mstore\n      keccak256(0x00, 0x20)\n      swap1\n    tag_152:\n      dup2\n      sload\n      dup2\n      mstore\n      swap1\n      0x01\n      add\n      swap1\n      0x20\n      add\n      dup1\n      dup4\n      gt\n      tag_152\n      jumpi\n      dup3\n      swap1\n      sub\n      0x1f\n      and\n      dup3\n      add\n      swap2\n    tag_150:\n      pop\n      pop\n      pop\n      pop\n      pop\n      dup2\n      mstore\n      0x20\n      add\n      0x05\n      dup3\n      add\n      0x00\n      swap1\n      sload\n      swap1\n      0x0100\n      exp\n      swap1\n      div\n      0xff\n      and\n      0x02\n      dup2\n      gt\n      iszero\n      tag_153\n      jumpi\n      tag_154\n      tag_66\n      jump\t// in\n    tag_154:\n    tag_153:\n      0x02\n      dup2\n      gt\n      iszero\n      tag_155\n      jumpi\n      tag_156\n      tag_66\n      jump\t// in\n    tag_156:\n    tag_155:\n      dup2\n      mstore\n      0x20\n      add\n      0x05\n      dup3\n      add\n      0x01\n      swap1\n      sload\n      swap1\n      0x0100\n      exp\n      swap1\n      div\n      0xff\n      and\n      iszero\n      iszero\n      iszero\n      iszero\n      dup2\n      mstore\n      0x20\n      add\n      0x06\n      dup3\n      add\n      sload\n      dup2\n      mstore\n      pop\n      pop\n      swap1\n      pop\n        /* \"contracts/DisasterRecoveryTraining.sol\":5712:5713  p */\n      dup1\n        /* \"contracts/DisasterRecoveryTraining.sol\":5712:5716  p.id */\n      0x00\n      add\n      mload\n        /* \"contracts/DisasterRecoveryTraining.sol\":5730:5731  p */\n      dup2\n        /* \"contracts/DisasterRecoveryTraining.sol\":5730:5736  p.name */\n      0x20\n      add\n      mload\n        /* \"contracts/DisasterRecoveryTraining.sol\":5750:5751  p */\n      dup3\n        /* \"contracts/DisasterRecoveryTraining.sol\":5750:5755  p.age */\n      0x40\n      add\n      mload\n        /* \"contracts/DisasterRecoveryTraining.sol\":5769:5770  p */\n      dup4\n        /* \"contracts/DisasterRecoveryTraining.sol\":5769:5777  p.gender */\n      0x60\n      add\n      mload\n        /* \"contracts/DisasterRecoveryTraining.sol\":5791:5792  p */\n      dup5\n        /* \"contracts/DisasterRecoveryTraining.sol\":5791:5801  p.district */\n      0x80\n      add\n      mload\n        /* \"contracts/DisasterRecoveryTraining.sol\":5823:5824  p */\n      dup6\n        /* \"contracts/DisasterRecoveryTraining.sol\":5823:5842  p.training_interest */\n      0xa0\n      add\n      mload\n        /* \"contracts/DisasterRecoveryTraining.sol\":5815:5843  uint256(p.training_interest) */\n      0x02\n      dup2\n      gt\n      iszero\n      tag_157\n      jumpi\n      tag_158\n      tag_66\n      jump\t// in\n    tag_158:\n    tag_157:\n        /* \"contracts/DisasterRecoveryTraining.sol\":5857:5858  p */\n      dup7\n        /* \"contracts/DisasterRecoveryTraining.sol\":5857:5881  p.has_completed_training */\n      0xc0\n      add\n      mload\n        /* \"contracts/DisasterRecoveryTraining.sol\":5895:5896  p */\n      dup8\n        /* \"contracts/DisasterRecoveryTraining.sol\":5895:5904  p.balance */\n      0xe0\n      add\n      mload\n        /* \"contracts/DisasterRecoveryTraining.sol\":5691:5914  return (... */\n      swap9\n      pop\n      swap9\n      pop\n      swap9\n      pop\n      swap9\n      pop\n      swap9\n      pop\n      swap9\n      pop\n      swap9\n      pop\n      swap9\n      pop\n      pop\n        /* \"contracts/DisasterRecoveryTraining.sol\":5224:5921  function viewParticipantData(uint256 participantId) external view returns (... */\n      swap2\n      swap4\n      swap6\n      swap8\n      pop\n      swap2\n      swap4\n      swap6\n      swap8\n      jump\t// out\n        /* \"contracts/DisasterRecoveryTraining.sol\":3624:4638  function bookTrainingSlot(uint256 trainerId, uint256 participantId, uint256 slotId) external returns (bool) {... */\n    tag_34:\n        /* \"contracts/DisasterRecoveryTraining.sol\":3726:3730  bool */\n      0x00\n        /* \"contracts/DisasterRecoveryTraining.sol\":3776:3777  0 */\n      0x00\n        /* \"contracts/DisasterRecoveryTraining.sol\":3750:3758  trainers */\n      0x01\n        /* \"contracts/DisasterRecoveryTraining.sol\":3750:3769  trainers[trainerId] */\n      0x00\n        /* \"contracts/DisasterRecoveryTraining.sol\":3759:3768  trainerId */\n      dup7\n        /* \"contracts/DisasterRecoveryTraining.sol\":3750:3769  trainers[trainerId] */\n      dup2\n      mstore\n      0x20\n      add\n      swap1\n      dup2\n      mstore\n      0x20\n      add\n      0x00\n      keccak256\n        /* \"contracts/DisasterRecoveryTraining.sol\":3750:3772  trainers[trainerId].id */\n      0x00\n      add\n      sload\n        /* \"contracts/DisasterRecoveryTraining.sol\":3750:3777  trainers[trainerId].id != 0 */\n      sub\n        /* \"contracts/DisasterRecoveryTraining.sol\":3742:3799  require(trainers[trainerId].id != 0, \"Trainer not found\") */\n      tag_160\n      jumpi\n      mload(0x40)\n      0x08c379a000000000000000000000000000000000000000000000000000000000\n      dup2\n      mstore\n      0x04\n      add\n      tag_161\n      swap1\n      tag_72\n      jump\t// in\n    tag_161:\n      mload(0x40)\n      dup1\n      swap2\n      sub\n      swap1\n      revert\n    tag_160:\n        /* \"contracts/DisasterRecoveryTraining.sol\":3851:3852  0 */\n      0x00\n        /* \"contracts/DisasterRecoveryTraining.sol\":3817:3829  participants */\n      0x02\n        /* \"contracts/DisasterRecoveryTraining.sol\":3817:3844  participants[participantId] */\n      0x00\n        /* \"contracts/DisasterRecoveryTraining.sol\":3830:3843  participantId */\n      dup6\n        /* \"contracts/DisasterRecoveryTraining.sol\":3817:3844  participants[participantId] */\n      dup2\n      mstore\n      0x20\n      add\n      swap1\n      dup2\n      mstore\n      0x20\n      add\n      0x00\n      keccak256\n        /* \"contracts/DisasterRecoveryTraining.sol\":3817:3847  participants[participantId].id */\n      0x00\n      add\n      sload\n        /* \"contracts/DisasterRecoveryTraining.sol\":3817:3852  participants[participantId].id != 0 */\n      sub\n        /* \"contracts/DisasterRecoveryTraining.sol\":3809:3878  require(participants[participantId].id != 0, \"Participant not found\") */\n      tag_162\n      jumpi\n      mload(0x40)\n      0x08c379a000000000000000000000000000000000000000000000000000000000\n      dup2\n      mstore\n      0x04\n      add\n      tag_163\n      swap1\n      tag_56\n      jump\t// in\n    tag_163:\n      mload(0x40)\n      dup1\n      swap2\n      sub\n      swap1\n      revert\n    tag_162:\n        /* \"contracts/DisasterRecoveryTraining.sol\":959:966  1 ether */\n      0x0de0b6b3a7640000\n        /* \"contracts/DisasterRecoveryTraining.sol\":3896:3908  participants */\n      0x02\n        /* \"contracts/DisasterRecoveryTraining.sol\":3896:3923  participants[participantId] */\n      0x00\n        /* \"contracts/DisasterRecoveryTraining.sol\":3909:3922  participantId */\n      dup6\n        /* \"contracts/DisasterRecoveryTraining.sol\":3896:3923  participants[participantId] */\n      dup2\n      mstore\n      0x20\n      add\n      swap1\n      dup2\n      mstore\n      0x20\n      add\n      0x00\n      keccak256\n        /* \"contracts/DisasterRecoveryTraining.sol\":3896:3931  participants[participantId].balance */\n      0x06\n      add\n      sload\n        /* \"contracts/DisasterRecoveryTraining.sol\":3896:3946  participants[participantId].balance >= BOOKING_FEE */\n      lt\n      iszero\n        /* \"contracts/DisasterRecoveryTraining.sol\":3888:3983  require(participants[participantId].balance >= BOOKING_FEE, \"Insufficient participant balance\") */\n      tag_164\n      jumpi\n      mload(0x40)\n      0x08c379a000000000000000000000000000000000000000000000000000000000\n      dup2\n      mstore\n      0x04\n      add\n      tag_165\n      swap1\n      tag_166\n      jump\t// in\n    tag_165:\n      mload(0x40)\n      dup1\n      swap2\n      sub\n      swap1\n      revert\n    tag_164:\n        /* \"contracts/DisasterRecoveryTraining.sol\":4019:4020  0 */\n      0x00\n        /* \"contracts/DisasterRecoveryTraining.sol\":4001:4009  adminIds */\n      0x04\n        /* \"contracts/DisasterRecoveryTraining.sol\":4001:4016  adminIds.length */\n      dup1\n      sload\n      swap1\n      pop\n        /* \"contracts/DisasterRecoveryTraining.sol\":4001:4020  adminIds.length > 0 */\n      gt\n        /* \"contracts/DisasterRecoveryTraining.sol\":3993:4044  require(adminIds.length > 0, \"No admins available\") */\n      tag_167\n      jumpi\n      mload(0x40)\n      0x08c379a000000000000000000000000000000000000000000000000000000000\n      dup2\n      mstore\n      0x04\n      add\n      tag_168\n      swap1\n      tag_169\n      jump\t// in\n    tag_168:\n      mload(0x40)\n      dup1\n      swap2\n      sub\n      swap1\n      revert\n    tag_167:\n        /* \"contracts/DisasterRecoveryTraining.sol\":881:883  48 */\n      0x30\n        /* \"contracts/DisasterRecoveryTraining.sol\":4062:4068  slotId */\n      dup3\n        /* \"contracts/DisasterRecoveryTraining.sol\":4062:4090  slotId < TOTAL_SLOTS_PER_DAY */\n      lt\n        /* \"contracts/DisasterRecoveryTraining.sol\":4054:4110  require(slotId < TOTAL_SLOTS_PER_DAY, \"Invalid slot ID\") */\n      tag_170\n      jumpi\n      mload(0x40)\n      0x08c379a000000000000000000000000000000000000000000000000000000000\n      dup2\n      mstore\n      0x04\n      add\n      tag_171\n      swap1\n      tag_172\n      jump\t// in\n    tag_171:\n      mload(0x40)\n      dup1\n      swap2\n      sub\n      swap1\n      revert\n    tag_170:\n        /* \"contracts/DisasterRecoveryTraining.sol\":4129:4141  trainerSlots */\n      0x03\n        /* \"contracts/DisasterRecoveryTraining.sol\":4129:4152  trainerSlots[trainerId] */\n      0x00\n        /* \"contracts/DisasterRecoveryTraining.sol\":4142:4151  trainerId */\n      dup6\n        /* \"contracts/DisasterRecoveryTraining.sol\":4129:4152  trainerSlots[trainerId] */\n      dup2\n      mstore\n      0x20\n      add\n      swap1\n      dup2\n      mstore\n      0x20\n      add\n      0x00\n      keccak256\n        /* \"contracts/DisasterRecoveryTraining.sol\":4129:4160  trainerSlots[trainerId][slotId] */\n      0x00\n        /* \"contracts/DisasterRecoveryTraining.sol\":4153:4159  slotId */\n      dup4\n        /* \"contracts/DisasterRecoveryTraining.sol\":4129:4160  trainerSlots[trainerId][slotId] */\n      dup2\n      mstore\n      0x20\n      add\n      swap1\n      dup2\n      mstore\n      0x20\n      add\n      0x00\n      keccak256\n        /* \"contracts/DisasterRecoveryTraining.sol\":4129:4169  trainerSlots[trainerId][slotId].isBooked */\n      0x03\n      add\n      0x00\n      swap1\n      sload\n      swap1\n      0x0100\n      exp\n      swap1\n      div\n      0xff\n      and\n        /* \"contracts/DisasterRecoveryTraining.sol\":4128:4169  !trainerSlots[trainerId][slotId].isBooked */\n      iszero\n        /* \"contracts/DisasterRecoveryTraining.sol\":4120:4196  require(!trainerSlots[trainerId][slotId].isBooked, \"Slot is already booked\") */\n      tag_173\n      jumpi\n      mload(0x40)\n      0x08c379a000000000000000000000000000000000000000000000000000000000\n      dup2\n      mstore\n      0x04\n      add\n      tag_174\n      swap1\n      tag_175\n      jump\t// in\n    tag_174:\n      mload(0x40)\n      dup1\n      swap2\n      sub\n      swap1\n      revert\n    tag_173:\n        /* \"contracts/DisasterRecoveryTraining.sol\":4240:4292  TrainingSlot(slotId, trainerId, participantId, true) */\n      mload(0x40)\n      dup1\n      0x80\n      add\n      0x40\n      mstore\n      dup1\n        /* \"contracts/DisasterRecoveryTraining.sol\":4253:4259  slotId */\n      dup4\n        /* \"contracts/DisasterRecoveryTraining.sol\":4240:4292  TrainingSlot(slotId, trainerId, participantId, true) */\n      dup2\n      mstore\n      0x20\n      add\n        /* \"contracts/DisasterRecoveryTraining.sol\":4261:4270  trainerId */\n      dup6\n        /* \"contracts/DisasterRecoveryTraining.sol\":4240:4292  TrainingSlot(slotId, trainerId, participantId, true) */\n      dup2\n      mstore\n      0x20\n      add\n        /* \"contracts/DisasterRecoveryTraining.sol\":4272:4285  participantId */\n      dup5\n        /* \"contracts/DisasterRecoveryTraining.sol\":4240:4292  TrainingSlot(slotId, trainerId, participantId, true) */\n      dup2\n      mstore\n      0x20\n      add\n        /* \"contracts/DisasterRecoveryTraining.sol\":4287:4291  true */\n      0x01\n        /* \"contracts/DisasterRecoveryTraining.sol\":4240:4292  TrainingSlot(slotId, trainerId, participantId, true) */\n      iszero\n      iszero\n      dup2\n      mstore\n      pop\n        /* \"contracts/DisasterRecoveryTraining.sol\":4206:4218  trainerSlots */\n      0x03\n        /* \"contracts/DisasterRecoveryTraining.sol\":4206:4229  trainerSlots[trainerId] */\n      0x00\n        /* \"contracts/DisasterRecoveryTraining.sol\":4219:4228  trainerId */\n      dup7\n        /* \"contracts/DisasterRecoveryTraining.sol\":4206:4229  trainerSlots[trainerId] */\n      dup2\n      mstore\n      0x20\n      add\n      swap1\n      dup2\n      mstore\n      0x20\n      add\n      0x00\n      keccak256\n        /* \"contracts/DisasterRecoveryTraining.sol\":4206:4237  trainerSlots[trainerId][slotId] */\n      0x00\n        /* \"contracts/DisasterRecoveryTraining.sol\":4230:4236  slotId */\n      dup5\n        /* \"contracts/DisasterRecoveryTraining.sol\":4206:4237  trainerSlots[trainerId][slotId] */\n      dup2\n      mstore\n      0x20\n      add\n      swap1\n      dup2\n      mstore\n      0x20\n      add\n      0x00\n      keccak256\n        /* \"contracts/DisasterRecoveryTraining.sol\":4206:4292  trainerSlots[trainerId][slotId] = TrainingSlot(slotId, trainerId, participantId, true) */\n      0x00\n      dup3\n      add\n      mload\n      dup2\n      0x00\n      add\n      sstore\n      0x20\n      dup3\n      add\n      mload\n      dup2\n      0x01\n      add\n      sstore\n      0x40\n      dup3\n      add\n      mload\n      dup2\n      0x02\n      add\n      sstore\n      0x60\n      dup3\n      add\n      mload\n      dup2\n      0x03\n      add\n      exp(0x0100, 0x00)\n      dup2\n      sload\n      dup2\n      0xff\n      mul\n      not\n      and\n      swap1\n      dup4\n      iszero\n      iszero\n      mul\n      or\n      swap1\n      sstore\n      pop\n      swap1\n      pop\n      pop\n        /* \"contracts/DisasterRecoveryTraining.sol\":4302:4321  uint256 randomIndex */\n      0x00\n        /* \"contracts/DisasterRecoveryTraining.sol\":4413:4421  adminIds */\n      0x04\n        /* \"contracts/DisasterRecoveryTraining.sol\":4413:4428  adminIds.length */\n      dup1\n      sload\n      swap1\n      pop\n        /* \"contracts/DisasterRecoveryTraining.sol\":4359:4374  block.timestamp */\n      timestamp\n        /* \"contracts/DisasterRecoveryTraining.sol\":4376:4392  block.prevrandao */\n      prevrandao\n        /* \"contracts/DisasterRecoveryTraining.sol\":4394:4407  participantId */\n      dup7\n        /* \"contracts/DisasterRecoveryTraining.sol\":4342:4408  abi.encodePacked(block.timestamp, block.prevrandao, participantId) */\n      add(0x20, mload(0x40))\n      tag_176\n      swap4\n      swap3\n      swap2\n      swap1\n      tag_177\n      jump\t// in\n    tag_176:\n      mload(0x40)\n      0x20\n      dup2\n      dup4\n      sub\n      sub\n      dup2\n      mstore\n      swap1\n      0x40\n      mstore\n        /* \"contracts/DisasterRecoveryTraining.sol\":4332:4409  keccak256(abi.encodePacked(block.timestamp, block.prevrandao, participantId)) */\n      dup1\n      mload\n      swap1\n      0x20\n      add\n      keccak256\n        /* \"contracts/DisasterRecoveryTraining.sol\":4324:4410  uint256(keccak256(abi.encodePacked(block.timestamp, block.prevrandao, participantId))) */\n      0x00\n      shr\n        /* \"contracts/DisasterRecoveryTraining.sol\":4324:4428  uint256(keccak256(abi.encodePacked(block.timestamp, block.prevrandao, participantId))) % adminIds.length */\n      tag_178\n      swap2\n      swap1\n      tag_97\n      jump\t// in\n    tag_178:\n        /* \"contracts/DisasterRecoveryTraining.sol\":4302:4428  uint256 randomIndex = uint256(keccak256(abi.encodePacked(block.timestamp, block.prevrandao, participantId))) % adminIds.length */\n      swap1\n      pop\n        /* \"contracts/DisasterRecoveryTraining.sol\":4438:4461  uint256 selectedAdminId */\n      0x00\n        /* \"contracts/DisasterRecoveryTraining.sol\":4464:4472  adminIds */\n      0x04\n        /* \"contracts/DisasterRecoveryTraining.sol\":4473:4484  randomIndex */\n      dup3\n        /* \"contracts/DisasterRecoveryTraining.sol\":4464:4485  adminIds[randomIndex] */\n      dup2\n      sload\n      dup2\n      lt\n      tag_179\n      jumpi\n      tag_180\n      tag_93\n      jump\t// in\n    tag_180:\n    tag_179:\n      swap1\n      0x00\n      mstore\n      keccak256(0x00, 0x20)\n      add\n      sload\n        /* \"contracts/DisasterRecoveryTraining.sol\":4438:4485  uint256 selectedAdminId = adminIds[randomIndex] */\n      swap1\n      pop\n        /* \"contracts/DisasterRecoveryTraining.sol\":959:966  1 ether */\n      0x0de0b6b3a7640000\n        /* \"contracts/DisasterRecoveryTraining.sol\":4495:4507  participants */\n      0x02\n        /* \"contracts/DisasterRecoveryTraining.sol\":4495:4522  participants[participantId] */\n      0x00\n        /* \"contracts/DisasterRecoveryTraining.sol\":4508:4521  participantId */\n      dup8\n        /* \"contracts/DisasterRecoveryTraining.sol\":4495:4522  participants[participantId] */\n      dup2\n      mstore\n      0x20\n      add\n      swap1\n      dup2\n      mstore\n      0x20\n      add\n      0x00\n      keccak256\n        /* \"contracts/DisasterRecoveryTraining.sol\":4495:4530  participants[participantId].balance */\n      0x06\n      add\n      0x00\n        /* \"contracts/DisasterRecoveryTraining.sol\":4495:4545  participants[participantId].balance -= BOOKING_FEE */\n      dup3\n      dup3\n      sload\n      tag_182\n      swap2\n      swap1\n      tag_183\n      jump\t// in\n    tag_182:\n      swap3\n      pop\n      pop\n      dup2\n      swap1\n      sstore\n      pop\n        /* \"contracts/DisasterRecoveryTraining.sol\":959:966  1 ether */\n      0x0de0b6b3a7640000\n        /* \"contracts/DisasterRecoveryTraining.sol\":4555:4561  admins */\n      0x00\n        /* \"contracts/DisasterRecoveryTraining.sol\":4555:4578  admins[selectedAdminId] */\n      0x00\n        /* \"contracts/DisasterRecoveryTraining.sol\":4562:4577  selectedAdminId */\n      dup4\n        /* \"contracts/DisasterRecoveryTraining.sol\":4555:4578  admins[selectedAdminId] */\n      dup2\n      mstore\n      0x20\n      add\n      swap1\n      dup2\n      mstore\n      0x20\n      add\n      0x00\n      keccak256\n        /* \"contracts/DisasterRecoveryTraining.sol\":4555:4586  admins[selectedAdminId].balance */\n      0x03\n      add\n      0x00\n        /* \"contracts/DisasterRecoveryTraining.sol\":4555:4601  admins[selectedAdminId].balance += BOOKING_FEE */\n      dup3\n      dup3\n      sload\n      tag_184\n      swap2\n      swap1\n      tag_101\n      jump\t// in\n    tag_184:\n      swap3\n      pop\n      pop\n      dup2\n      swap1\n      sstore\n      pop\n        /* \"contracts/DisasterRecoveryTraining.sol\":4627:4631  true */\n      0x01\n        /* \"contracts/DisasterRecoveryTraining.sol\":4620:4631  return true */\n      swap3\n      pop\n      pop\n      pop\n        /* \"contracts/DisasterRecoveryTraining.sol\":3624:4638  function bookTrainingSlot(uint256 trainerId, uint256 participantId, uint256 slotId) external returns (bool) {... */\n      swap4\n      swap3\n      pop\n      pop\n      pop\n      jump\t// out\n        /* \"contracts/DisasterRecoveryTraining.sol\":1848:2205  function registerTrainer(uint256 id, string memory name, uint256 age, string memory gender) external returns (uint256) {... */\n    tag_40:\n        /* \"contracts/DisasterRecoveryTraining.sol\":1958:1965  uint256 */\n      0x00\n        /* \"contracts/DisasterRecoveryTraining.sol\":1991:1992  0 */\n      0x00\n        /* \"contracts/DisasterRecoveryTraining.sol\":1985:1988  age */\n      dup4\n        /* \"contracts/DisasterRecoveryTraining.sol\":1985:1992  age > 0 */\n      gt\n        /* \"contracts/DisasterRecoveryTraining.sol\":1977:2008  require(age > 0, \"Invalid age\") */\n      tag_186\n      jumpi\n      mload(0x40)\n      0x08c379a000000000000000000000000000000000000000000000000000000000\n      dup2\n      mstore\n      0x04\n      add\n      tag_187\n      swap1\n      tag_188\n      jump\t// in\n    tag_187:\n      mload(0x40)\n      dup1\n      swap2\n      sub\n      swap1\n      revert\n    tag_186:\n        /* \"contracts/DisasterRecoveryTraining.sol\":2031:2032  0 */\n      0x00\n        /* \"contracts/DisasterRecoveryTraining.sol\":2026:2028  id */\n      dup6\n        /* \"contracts/DisasterRecoveryTraining.sol\":2026:2032  id > 0 */\n      gt\n        /* \"contracts/DisasterRecoveryTraining.sol\":2018:2047  require(id > 0, \"Invalid ID\") */\n      tag_189\n      jumpi\n      mload(0x40)\n      0x08c379a000000000000000000000000000000000000000000000000000000000\n      dup2\n      mstore\n      0x04\n      add\n      tag_190\n      swap1\n      tag_191\n      jump\t// in\n    tag_190:\n      mload(0x40)\n      dup1\n      swap2\n      sub\n      swap1\n      revert\n    tag_189:\n        /* \"contracts/DisasterRecoveryTraining.sol\":2084:2085  0 */\n      0x00\n        /* \"contracts/DisasterRecoveryTraining.sol\":2065:2073  trainers */\n      0x01\n        /* \"contracts/DisasterRecoveryTraining.sol\":2065:2077  trainers[id] */\n      0x00\n        /* \"contracts/DisasterRecoveryTraining.sol\":2074:2076  id */\n      dup8\n        /* \"contracts/DisasterRecoveryTraining.sol\":2065:2077  trainers[id] */\n      dup2\n      mstore\n      0x20\n      add\n      swap1\n      dup2\n      mstore\n      0x20\n      add\n      0x00\n      keccak256\n        /* \"contracts/DisasterRecoveryTraining.sol\":2065:2080  trainers[id].id */\n      0x00\n      add\n      sload\n        /* \"contracts/DisasterRecoveryTraining.sol\":2065:2085  trainers[id].id == 0 */\n      eq\n        /* \"contracts/DisasterRecoveryTraining.sol\":2057:2115  require(trainers[id].id == 0, \"Trainer ID already exists\") */\n      tag_192\n      jumpi\n      mload(0x40)\n      0x08c379a000000000000000000000000000000000000000000000000000000000\n      dup2\n      mstore\n      0x04\n      add\n      tag_193\n      swap1\n      tag_194\n      jump\t// in\n    tag_193:\n      mload(0x40)\n      dup1\n      swap2\n      sub\n      swap1\n      revert\n    tag_192:\n        /* \"contracts/DisasterRecoveryTraining.sol\":2149:2179  Trainer(id, name, age, gender) */\n      mload(0x40)\n      dup1\n      0x80\n      add\n      0x40\n      mstore\n      dup1\n        /* \"contracts/DisasterRecoveryTraining.sol\":2157:2159  id */\n      dup7\n        /* \"contracts/DisasterRecoveryTraining.sol\":2149:2179  Trainer(id, name, age, gender) */\n      dup2\n      mstore\n      0x20\n      add\n        /* \"contracts/DisasterRecoveryTraining.sol\":2161:2165  name */\n      dup6\n        /* \"contracts/DisasterRecoveryTraining.sol\":2149:2179  Trainer(id, name, age, gender) */\n      dup2\n      mstore\n      0x20\n      add\n        /* \"contracts/DisasterRecoveryTraining.sol\":2167:2170  age */\n      dup5\n        /* \"contracts/DisasterRecoveryTraining.sol\":2149:2179  Trainer(id, name, age, gender) */\n      dup2\n      mstore\n      0x20\n      add\n        /* \"contracts/DisasterRecoveryTraining.sol\":2172:2178  gender */\n      dup4\n        /* \"contracts/DisasterRecoveryTraining.sol\":2149:2179  Trainer(id, name, age, gender) */\n      dup2\n      mstore\n      pop\n        /* \"contracts/DisasterRecoveryTraining.sol\":2134:2142  trainers */\n      0x01\n        /* \"contracts/DisasterRecoveryTraining.sol\":2134:2146  trainers[id] */\n      0x00\n        /* \"contracts/DisasterRecoveryTraining.sol\":2143:2145  id */\n      dup8\n        /* \"contracts/DisasterRecoveryTraining.sol\":2134:2146  trainers[id] */\n      dup2\n      mstore\n      0x20\n      add\n      swap1\n      dup2\n      mstore\n      0x20\n      add\n      0x00\n      keccak256\n        /* \"contracts/DisasterRecoveryTraining.sol\":2134:2179  trainers[id] = Trainer(id, name, age, gender) */\n      0x00\n      dup3\n      add\n      mload\n      dup2\n      0x00\n      add\n      sstore\n      0x20\n      dup3\n      add\n      mload\n      dup2\n      0x01\n      add\n      swap1\n      dup2\n      tag_195\n      swap2\n      swap1\n      tag_196\n      jump\t// in\n    tag_195:\n      pop\n      0x40\n      dup3\n      add\n      mload\n      dup2\n      0x02\n      add\n      sstore\n      0x60\n      dup3\n      add\n      mload\n      dup2\n      0x03\n      add\n      swap1\n      dup2\n      tag_197\n      swap2\n      swap1\n      tag_196\n      jump\t// in\n    tag_197:\n      pop\n      swap1\n      pop\n      pop\n        /* \"contracts/DisasterRecoveryTraining.sol\":2196:2198  id */\n      dup5\n        /* \"contracts/DisasterRecoveryTraining.sol\":2189:2198  return id */\n      swap1\n      pop\n        /* \"contracts/DisasterRecoveryTraining.sol\":1848:2205  function registerTrainer(uint256 id, string memory name, uint256 age, string memory gender) external returns (uint256) {... */\n      swap5\n      swap4\n      pop\n      pop\n      pop\n      pop\n      jump\t// out\n        /* \"contracts/DisasterRecoveryTraining.sol\":1491:1838  function registerAdmin(uint256 id, string memory name, uint256 age) external returns (uint256) {... */\n    tag_46:\n        /* \"contracts/DisasterRecoveryTraining.sol\":1577:1584  uint256 */\n      0x00\n        /* \"contracts/DisasterRecoveryTraining.sol\":1610:1611  0 */\n      0x00\n        /* \"contracts/DisasterRecoveryTraining.sol\":1604:1607  age */\n      dup3\n        /* \"contracts/DisasterRecoveryTraining.sol\":1604:1611  age > 0 */\n      gt\n        /* \"contracts/DisasterRecoveryTraining.sol\":1596:1627  require(age > 0, \"Invalid age\") */\n      tag_199\n      jumpi\n      mload(0x40)\n      0x08c379a000000000000000000000000000000000000000000000000000000000\n      dup2\n      mstore\n      0x04\n      add\n      tag_200\n      swap1\n      tag_188\n      jump\t// in\n    tag_200:\n      mload(0x40)\n      dup1\n      swap2\n      sub\n      swap1\n      revert\n    tag_199:\n        /* \"contracts/DisasterRecoveryTraining.sol\":1650:1651  0 */\n      0x00\n        /* \"contracts/DisasterRecoveryTraining.sol\":1645:1647  id */\n      dup5\n        /* \"contracts/DisasterRecoveryTraining.sol\":1645:1651  id > 0 */\n      gt\n        /* \"contracts/DisasterRecoveryTraining.sol\":1637:1666  require(id > 0, \"Invalid ID\") */\n      tag_201\n      jumpi\n      mload(0x40)\n      0x08c379a000000000000000000000000000000000000000000000000000000000\n      dup2\n      mstore\n      0x04\n      add\n      tag_202\n      swap1\n      tag_191\n      jump\t// in\n    tag_202:\n      mload(0x40)\n      dup1\n      swap2\n      sub\n      swap1\n      revert\n    tag_201:\n        /* \"contracts/DisasterRecoveryTraining.sol\":1701:1702  0 */\n      0x00\n        /* \"contracts/DisasterRecoveryTraining.sol\":1684:1690  admins */\n      0x00\n        /* \"contracts/DisasterRecoveryTraining.sol\":1684:1694  admins[id] */\n      0x00\n        /* \"contracts/DisasterRecoveryTraining.sol\":1691:1693  id */\n      dup7\n        /* \"contracts/DisasterRecoveryTraining.sol\":1684:1694  admins[id] */\n      dup2\n      mstore\n      0x20\n      add\n      swap1\n      dup2\n      mstore\n      0x20\n      add\n      0x00\n      keccak256\n        /* \"contracts/DisasterRecoveryTraining.sol\":1684:1697  admins[id].id */\n      0x00\n      add\n      sload\n        /* \"contracts/DisasterRecoveryTraining.sol\":1684:1702  admins[id].id == 0 */\n      eq\n        /* \"contracts/DisasterRecoveryTraining.sol\":1676:1730  require(admins[id].id == 0, \"Admin ID already exists\") */\n      tag_203\n      jumpi\n      mload(0x40)\n      0x08c379a000000000000000000000000000000000000000000000000000000000\n      dup2\n      mstore\n      0x04\n      add\n      tag_204\n      swap1\n      tag_205\n      jump\t// in\n    tag_204:\n      mload(0x40)\n      dup1\n      swap2\n      sub\n      swap1\n      revert\n    tag_203:\n        /* \"contracts/DisasterRecoveryTraining.sol\":1762:1785  Admin(id, name, age, 0) */\n      mload(0x40)\n      dup1\n      0x80\n      add\n      0x40\n      mstore\n      dup1\n        /* \"contracts/DisasterRecoveryTraining.sol\":1768:1770  id */\n      dup6\n        /* \"contracts/DisasterRecoveryTraining.sol\":1762:1785  Admin(id, name, age, 0) */\n      dup2\n      mstore\n      0x20\n      add\n        /* \"contracts/DisasterRecoveryTraining.sol\":1772:1776  name */\n      dup5\n        /* \"contracts/DisasterRecoveryTraining.sol\":1762:1785  Admin(id, name, age, 0) */\n      dup2\n      mstore\n      0x20\n      add\n        /* \"contracts/DisasterRecoveryTraining.sol\":1778:1781  age */\n      dup4\n        /* \"contracts/DisasterRecoveryTraining.sol\":1762:1785  Admin(id, name, age, 0) */\n      dup2\n      mstore\n      0x20\n      add\n        /* \"contracts/DisasterRecoveryTraining.sol\":1783:1784  0 */\n      0x00\n        /* \"contracts/DisasterRecoveryTraining.sol\":1762:1785  Admin(id, name, age, 0) */\n      dup2\n      mstore\n      pop\n        /* \"contracts/DisasterRecoveryTraining.sol\":1749:1755  admins */\n      0x00\n        /* \"contracts/DisasterRecoveryTraining.sol\":1749:1759  admins[id] */\n      0x00\n        /* \"contracts/DisasterRecoveryTraining.sol\":1756:1758  id */\n      dup7\n        /* \"contracts/DisasterRecoveryTraining.sol\":1749:1759  admins[id] */\n      dup2\n      mstore\n      0x20\n      add\n      swap1\n      dup2\n      mstore\n      0x20\n      add\n      0x00\n      keccak256\n        /* \"contracts/DisasterRecoveryTraining.sol\":1749:1785  admins[id] = Admin(id, name, age, 0) */\n      0x00\n      dup3\n      add\n      mload\n      dup2\n      0x00\n      add\n      sstore\n      0x20\n      dup3\n      add\n      mload\n      dup2\n      0x01\n      add\n      swap1\n      dup2\n      tag_206\n      swap2\n      swap1\n      tag_196\n      jump\t// in\n    tag_206:\n      pop\n      0x40\n      dup3\n      add\n      mload\n      dup2\n      0x02\n      add\n      sstore\n      0x60\n      dup3\n      add\n      mload\n      dup2\n      0x03\n      add\n      sstore\n      swap1\n      pop\n      pop\n        /* \"contracts/DisasterRecoveryTraining.sol\":1795:1803  adminIds */\n      0x04\n        /* \"contracts/DisasterRecoveryTraining.sol\":1809:1811  id */\n      dup5\n        /* \"contracts/DisasterRecoveryTraining.sol\":1795:1812  adminIds.push(id) */\n      swap1\n      dup1\n      0x01\n      dup2\n      sload\n      add\n      dup1\n      dup3\n      sstore\n      dup1\n      swap2\n      pop\n      pop\n      0x01\n      swap1\n      sub\n      swap1\n      0x00\n      mstore\n      keccak256(0x00, 0x20)\n      add\n      0x00\n      swap1\n      swap2\n      swap1\n      swap2\n      swap1\n      swap2\n      pop\n      sstore\n        /* \"contracts/DisasterRecoveryTraining.sol\":1829:1831  id */\n      dup4\n        /* \"contracts/DisasterRecoveryTraining.sol\":1822:1831  return id */\n      swap1\n      pop\n        /* \"contracts/DisasterRecoveryTraining.sol\":1491:1838  function registerAdmin(uint256 id, string memory name, uint256 age) external returns (uint256) {... */\n      swap4\n      swap3\n      pop\n      pop\n      pop\n      jump\t// out\n        /* \"contracts/DisasterRecoveryTraining.sol\":2215:3006  function registerParticipant(... */\n    tag_51:\n        /* \"contracts/DisasterRecoveryTraining.sol\":2471:2478  uint256 */\n      0x00\n        /* \"contracts/DisasterRecoveryTraining.sol\":2504:2505  0 */\n      0x00\n        /* \"contracts/DisasterRecoveryTraining.sol\":2498:2501  age */\n      dup7\n        /* \"contracts/DisasterRecoveryTraining.sol\":2498:2505  age > 0 */\n      gt\n        /* \"contracts/DisasterRecoveryTraining.sol\":2490:2521  require(age > 0, \"Invalid age\") */\n      tag_209\n      jumpi\n      mload(0x40)\n      0x08c379a000000000000000000000000000000000000000000000000000000000\n      dup2\n      mstore\n      0x04\n      add\n      tag_210\n      swap1\n      tag_188\n      jump\t// in\n    tag_210:\n      mload(0x40)\n      dup1\n      swap2\n      sub\n      swap1\n      revert\n    tag_209:\n        /* \"contracts/DisasterRecoveryTraining.sol\":2544:2545  0 */\n      0x00\n        /* \"contracts/DisasterRecoveryTraining.sol\":2539:2541  id */\n      dup9\n        /* \"contracts/DisasterRecoveryTraining.sol\":2539:2545  id > 0 */\n      gt\n        /* \"contracts/DisasterRecoveryTraining.sol\":2531:2560  require(id > 0, \"Invalid ID\") */\n      tag_211\n      jumpi\n      mload(0x40)\n      0x08c379a000000000000000000000000000000000000000000000000000000000\n      dup2\n      mstore\n      0x04\n      add\n      tag_212\n      swap1\n      tag_191\n      jump\t// in\n    tag_212:\n      mload(0x40)\n      dup1\n      swap2\n      sub\n      swap1\n      revert\n    tag_211:\n        /* \"contracts/DisasterRecoveryTraining.sol\":2601:2602  0 */\n      0x00\n        /* \"contracts/DisasterRecoveryTraining.sol\":2578:2590  participants */\n      0x02\n        /* \"contracts/DisasterRecoveryTraining.sol\":2578:2594  participants[id] */\n      0x00\n        /* \"contracts/DisasterRecoveryTraining.sol\":2591:2593  id */\n      dup11\n        /* \"contracts/DisasterRecoveryTraining.sol\":2578:2594  participants[id] */\n      dup2\n      mstore\n      0x20\n      add\n      swap1\n      dup2\n      mstore\n      0x20\n      add\n      0x00\n      keccak256\n        /* \"contracts/DisasterRecoveryTraining.sol\":2578:2597  participants[id].id */\n      0x00\n      add\n      sload\n        /* \"contracts/DisasterRecoveryTraining.sol\":2578:2602  participants[id].id == 0 */\n      eq\n        /* \"contracts/DisasterRecoveryTraining.sol\":2570:2636  require(participants[id].id == 0, \"Participant ID already exists\") */\n      tag_213\n      jumpi\n      mload(0x40)\n      0x08c379a000000000000000000000000000000000000000000000000000000000\n      dup2\n      mstore\n      0x04\n      add\n      tag_214\n      swap1\n      tag_215\n      jump\t// in\n    tag_214:\n      mload(0x40)\n      dup1\n      swap2\n      sub\n      swap1\n      revert\n    tag_213:\n        /* \"contracts/DisasterRecoveryTraining.sol\":2675:2676  2 */\n      0x02\n        /* \"contracts/DisasterRecoveryTraining.sol\":2654:2671  training_interest */\n      dup4\n        /* \"contracts/DisasterRecoveryTraining.sol\":2654:2676  training_interest <= 2 */\n      gt\n      iszero\n        /* \"contracts/DisasterRecoveryTraining.sol\":2646:2706  require(training_interest <= 2, \"Invalid training interest\") */\n      tag_216\n      jumpi\n      mload(0x40)\n      0x08c379a000000000000000000000000000000000000000000000000000000000\n      dup2\n      mstore\n      0x04\n      add\n      tag_217\n      swap1\n      tag_59\n      jump\t// in\n    tag_217:\n      mload(0x40)\n      dup1\n      swap2\n      sub\n      swap1\n      revert\n    tag_216:\n        /* \"contracts/DisasterRecoveryTraining.sol\":2744:2980  Participant(... */\n      mload(0x40)\n      dup1\n      0x0100\n      add\n      0x40\n      mstore\n      dup1\n        /* \"contracts/DisasterRecoveryTraining.sol\":2769:2771  id */\n      dup10\n        /* \"contracts/DisasterRecoveryTraining.sol\":2744:2980  Participant(... */\n      dup2\n      mstore\n      0x20\n      add\n        /* \"contracts/DisasterRecoveryTraining.sol\":2785:2789  name */\n      dup9\n        /* \"contracts/DisasterRecoveryTraining.sol\":2744:2980  Participant(... */\n      dup2\n      mstore\n      0x20\n      add\n        /* \"contracts/DisasterRecoveryTraining.sol\":2803:2806  age */\n      dup8\n        /* \"contracts/DisasterRecoveryTraining.sol\":2744:2980  Participant(... */\n      dup2\n      mstore\n      0x20\n      add\n        /* \"contracts/DisasterRecoveryTraining.sol\":2820:2826  gender */\n      dup7\n        /* \"contracts/DisasterRecoveryTraining.sol\":2744:2980  Participant(... */\n      dup2\n      mstore\n      0x20\n      add\n        /* \"contracts/DisasterRecoveryTraining.sol\":2840:2848  district */\n      dup6\n        /* \"contracts/DisasterRecoveryTraining.sol\":2744:2980  Participant(... */\n      dup2\n      mstore\n      0x20\n      add\n        /* \"contracts/DisasterRecoveryTraining.sol\":2875:2892  training_interest */\n      dup5\n        /* \"contracts/DisasterRecoveryTraining.sol\":2862:2893  TrainingType(training_interest) */\n      0x02\n      dup2\n      gt\n      iszero\n      tag_218\n      jumpi\n      tag_219\n      tag_66\n      jump\t// in\n    tag_219:\n    tag_218:\n        /* \"contracts/DisasterRecoveryTraining.sol\":2744:2980  Participant(... */\n      0x02\n      dup2\n      gt\n      iszero\n      tag_220\n      jumpi\n      tag_221\n      tag_66\n      jump\t// in\n    tag_221:\n    tag_220:\n      dup2\n      mstore\n      0x20\n      add\n        /* \"contracts/DisasterRecoveryTraining.sol\":2907:2929  has_completed_training */\n      dup4\n        /* \"contracts/DisasterRecoveryTraining.sol\":2744:2980  Participant(... */\n      iszero\n      iszero\n      dup2\n      mstore\n      0x20\n      add\n        /* \"contracts/DisasterRecoveryTraining.sol\":1048:1056  10 ether */\n      0x8ac7230489e80000\n        /* \"contracts/DisasterRecoveryTraining.sol\":2744:2980  Participant(... */\n      dup2\n      mstore\n      pop\n        /* \"contracts/DisasterRecoveryTraining.sol\":2725:2737  participants */\n      0x02\n        /* \"contracts/DisasterRecoveryTraining.sol\":2725:2741  participants[id] */\n      0x00\n        /* \"contracts/DisasterRecoveryTraining.sol\":2738:2740  id */\n      dup11\n        /* \"contracts/DisasterRecoveryTraining.sol\":2725:2741  participants[id] */\n      dup2\n      mstore\n      0x20\n      add\n      swap1\n      dup2\n      mstore\n      0x20\n      add\n      0x00\n      keccak256\n        /* \"contracts/DisasterRecoveryTraining.sol\":2725:2980  participants[id] = Participant(... */\n      0x00\n      dup3\n      add\n      mload\n      dup2\n      0x00\n      add\n      sstore\n      0x20\n      dup3\n      add\n      mload\n      dup2\n      0x01\n      add\n      swap1\n      dup2\n      tag_222\n      swap2\n      swap1\n      tag_196\n      jump\t// in\n    tag_222:\n      pop\n      0x40\n      dup3\n      add\n      mload\n      dup2\n      0x02\n      add\n      sstore\n      0x60\n      dup3\n      add\n      mload\n      dup2\n      0x03\n      add\n      swap1\n      dup2\n      tag_223\n      swap2\n      swap1\n      tag_196\n      jump\t// in\n    tag_223:\n      pop\n      0x80\n      dup3\n      add\n      mload\n      dup2\n      0x04\n      add\n      swap1\n      dup2\n      tag_224\n      swap2\n      swap1\n      tag_196\n      jump\t// in\n    tag_224:\n      pop\n      0xa0\n      dup3\n      add\n      mload\n      dup2\n      0x05\n      add\n      exp(0x0100, 0x00)\n      dup2\n      sload\n      dup2\n      0xff\n      mul\n      not\n      and\n      swap1\n      dup4\n      0x02\n      dup2\n      gt\n      iszero\n      tag_225\n      jumpi\n      tag_226\n      tag_66\n      jump\t// in\n    tag_226:\n    tag_225:\n      mul\n      or\n      swap1\n      sstore\n      pop\n      0xc0\n      dup3\n      add\n      mload\n      dup2\n      0x05\n      add\n      exp(0x0100, 0x01)\n      dup2\n      sload\n      dup2\n      0xff\n      mul\n      not\n      and\n      swap1\n      dup4\n      iszero\n      iszero\n      mul\n      or\n      swap1\n      sstore\n      pop\n      0xe0\n      dup3\n      add\n      mload\n      dup2\n      0x06\n      add\n      sstore\n      swap1\n      pop\n      pop\n        /* \"contracts/DisasterRecoveryTraining.sol\":2997:2999  id */\n      dup8\n        /* \"contracts/DisasterRecoveryTraining.sol\":2990:2999  return id */\n      swap1\n      pop\n        /* \"contracts/DisasterRecoveryTraining.sol\":2215:3006  function registerParticipant(... */\n      swap8\n      swap7\n      pop\n      pop\n      pop\n      pop\n      pop\n      pop\n      pop\n      jump\t// out\n        /* \"contracts/DisasterRecoveryTraining.sol\":5926:6516  function _toString(uint256 value) internal pure returns (string memory) {... */\n    tag_105:\n        /* \"contracts/DisasterRecoveryTraining.sol\":5983:5996  string memory */\n      0x60\n        /* \"contracts/DisasterRecoveryTraining.sol\":6021:6022  0 */\n      0x00\n        /* \"contracts/DisasterRecoveryTraining.sol\":6012:6017  value */\n      dup3\n        /* \"contracts/DisasterRecoveryTraining.sol\":6012:6022  value == 0 */\n      sub\n        /* \"contracts/DisasterRecoveryTraining.sol\":6008:6034  if (value == 0) return \"0\" */\n      tag_228\n      jumpi\n        /* \"contracts/DisasterRecoveryTraining.sol\":6024:6034  return \"0\" */\n      mload(0x40)\n      dup1\n      0x40\n      add\n      0x40\n      mstore\n      dup1\n      0x01\n      dup2\n      mstore\n      0x20\n      add\n      0x3000000000000000000000000000000000000000000000000000000000000000\n      dup2\n      mstore\n      pop\n      swap1\n      pop\n      jump(tag_227)\n        /* \"contracts/DisasterRecoveryTraining.sol\":6008:6034  if (value == 0) return \"0\" */\n    tag_228:\n        /* \"contracts/DisasterRecoveryTraining.sol\":6056:6058  10 */\n      0x0a\n        /* \"contracts/DisasterRecoveryTraining.sol\":6048:6053  value */\n      dup3\n        /* \"contracts/DisasterRecoveryTraining.sol\":6048:6058  value < 10 */\n      lt\n        /* \"contracts/DisasterRecoveryTraining.sol\":6044:6123  if (value < 10) return string(abi.encodePacked(\"0\", bytes1(uint8(48 + value)))) */\n      iszero\n      tag_229\n      jumpi\n        /* \"contracts/DisasterRecoveryTraining.sol\":6114:6119  value */\n      dup2\n        /* \"contracts/DisasterRecoveryTraining.sol\":6109:6111  48 */\n      0x30\n        /* \"contracts/DisasterRecoveryTraining.sol\":6109:6119  48 + value */\n      tag_230\n      swap2\n      swap1\n      tag_101\n      jump\t// in\n    tag_230:\n        /* \"contracts/DisasterRecoveryTraining.sol\":6096:6121  bytes1(uint8(48 + value)) */\n      0xf8\n      shl\n        /* \"contracts/DisasterRecoveryTraining.sol\":6074:6122  abi.encodePacked(\"0\", bytes1(uint8(48 + value))) */\n      add(0x20, mload(0x40))\n      tag_231\n      swap2\n      swap1\n      tag_232\n      jump\t// in\n    tag_231:\n      mload(0x40)\n      0x20\n      dup2\n      dup4\n      sub\n      sub\n      dup2\n      mstore\n      swap1\n      0x40\n      mstore\n        /* \"contracts/DisasterRecoveryTraining.sol\":6060:6123  return string(abi.encodePacked(\"0\", bytes1(uint8(48 + value)))) */\n      swap1\n      pop\n      jump(tag_227)\n        /* \"contracts/DisasterRecoveryTraining.sol\":6044:6123  if (value < 10) return string(abi.encodePacked(\"0\", bytes1(uint8(48 + value)))) */\n    tag_229:\n        /* \"contracts/DisasterRecoveryTraining.sol\":6142:6154  uint256 temp */\n      0x00\n        /* \"contracts/DisasterRecoveryTraining.sol\":6157:6162  value */\n      dup3\n        /* \"contracts/DisasterRecoveryTraining.sol\":6142:6162  uint256 temp = value */\n      swap1\n      pop\n        /* \"contracts/DisasterRecoveryTraining.sol\":6172:6186  uint256 digits */\n      0x00\n        /* \"contracts/DisasterRecoveryTraining.sol\":6196:6271  while (temp != 0) {... */\n    tag_233:\n        /* \"contracts/DisasterRecoveryTraining.sol\":6211:6212  0 */\n      0x00\n        /* \"contracts/DisasterRecoveryTraining.sol\":6203:6207  temp */\n      dup3\n        /* \"contracts/DisasterRecoveryTraining.sol\":6203:6212  temp != 0 */\n      eq\n        /* \"contracts/DisasterRecoveryTraining.sol\":6196:6271  while (temp != 0) {... */\n      tag_234\n      jumpi\n        /* \"contracts/DisasterRecoveryTraining.sol\":6228:6236  digits++ */\n      dup1\n      dup1\n      tag_235\n      swap1\n      tag_78\n      jump\t// in\n    tag_235:\n      swap2\n      pop\n      pop\n        /* \"contracts/DisasterRecoveryTraining.sol\":6258:6260  10 */\n      0x0a\n        /* \"contracts/DisasterRecoveryTraining.sol\":6250:6260  temp /= 10 */\n      dup3\n      tag_236\n      swap2\n      swap1\n      tag_95\n      jump\t// in\n    tag_236:\n      swap2\n      pop\n        /* \"contracts/DisasterRecoveryTraining.sol\":6196:6271  while (temp != 0) {... */\n      jump(tag_233)\n    tag_234:\n        /* \"contracts/DisasterRecoveryTraining.sol\":6280:6299  bytes memory buffer */\n      0x00\n        /* \"contracts/DisasterRecoveryTraining.sol\":6312:6318  digits */\n      dup2\n        /* \"contracts/DisasterRecoveryTraining.sol\":6302:6319  new bytes(digits) */\n      0xffffffffffffffff\n      dup2\n      gt\n      iszero\n      tag_237\n      jumpi\n      tag_238\n      tag_81\n      jump\t// in\n    tag_238:\n    tag_237:\n      mload(0x40)\n      swap1\n      dup1\n      dup3\n      mstore\n      dup1\n      0x1f\n      add\n      not(0x1f)\n      and\n      0x20\n      add\n      dup3\n      add\n      0x40\n      mstore\n      dup1\n      iszero\n      tag_239\n      jumpi\n      dup2\n      0x20\n      add\n      0x01\n      dup3\n      mul\n      dup1\n      calldatasize\n      dup4\n      calldatacopy\n      dup1\n      dup3\n      add\n      swap2\n      pop\n      pop\n      swap1\n      pop\n    tag_239:\n      pop\n        /* \"contracts/DisasterRecoveryTraining.sol\":6280:6319  bytes memory buffer = new bytes(digits) */\n      swap1\n      pop\n        /* \"contracts/DisasterRecoveryTraining.sol\":6329:6479  while (value != 0) {... */\n    tag_240:\n        /* \"contracts/DisasterRecoveryTraining.sol\":6345:6346  0 */\n      0x00\n        /* \"contracts/DisasterRecoveryTraining.sol\":6336:6341  value */\n      dup6\n        /* \"contracts/DisasterRecoveryTraining.sol\":6336:6346  value != 0 */\n      eq\n        /* \"contracts/DisasterRecoveryTraining.sol\":6329:6479  while (value != 0) {... */\n      tag_241\n      jumpi\n        /* \"contracts/DisasterRecoveryTraining.sol\":6372:6373  1 */\n      0x01\n        /* \"contracts/DisasterRecoveryTraining.sol\":6362:6373  digits -= 1 */\n      dup3\n      tag_242\n      swap2\n      swap1\n      tag_183\n      jump\t// in\n    tag_242:\n      swap2\n      pop\n        /* \"contracts/DisasterRecoveryTraining.sol\":6438:6440  10 */\n      0x0a\n        /* \"contracts/DisasterRecoveryTraining.sol\":6430:6435  value */\n      dup6\n        /* \"contracts/DisasterRecoveryTraining.sol\":6430:6440  value % 10 */\n      tag_243\n      swap2\n      swap1\n      tag_97\n      jump\t// in\n    tag_243:\n        /* \"contracts/DisasterRecoveryTraining.sol\":6417:6419  48 */\n      0x30\n        /* \"contracts/DisasterRecoveryTraining.sol\":6417:6441  48 + uint256(value % 10) */\n      tag_244\n      swap2\n      swap1\n      tag_101\n      jump\t// in\n    tag_244:\n        /* \"contracts/DisasterRecoveryTraining.sol\":6404:6443  bytes1(uint8(48 + uint256(value % 10))) */\n      0xf8\n      shl\n        /* \"contracts/DisasterRecoveryTraining.sol\":6387:6393  buffer */\n      dup2\n        /* \"contracts/DisasterRecoveryTraining.sol\":6394:6400  digits */\n      dup4\n        /* \"contracts/DisasterRecoveryTraining.sol\":6387:6401  buffer[digits] */\n      dup2\n      mload\n      dup2\n      lt\n      tag_245\n      jumpi\n      tag_246\n      tag_93\n      jump\t// in\n    tag_246:\n    tag_245:\n      0x20\n      add\n      add\n        /* \"contracts/DisasterRecoveryTraining.sol\":6387:6443  buffer[digits] = bytes1(uint8(48 + uint256(value % 10))) */\n      swap1\n      not(0xffffffffffffffffffffffffffffffffffffffffffffffffffffffffffffff)\n      and\n      swap1\n      dup2\n      0x00\n      byte\n      swap1\n      mstore8\n      pop\n        /* \"contracts/DisasterRecoveryTraining.sol\":6466:6468  10 */\n      0x0a\n        /* \"contracts/DisasterRecoveryTraining.sol\":6457:6468  value /= 10 */\n      dup6\n      tag_247\n      swap2\n      swap1\n      tag_95\n      jump\t// in\n    tag_247:\n      swap5\n      pop\n        /* \"contracts/DisasterRecoveryTraining.sol\":6329:6479  while (value != 0) {... */\n      jump(tag_240)\n    tag_241:\n        /* \"contracts/DisasterRecoveryTraining.sol\":6502:6508  buffer */\n      dup1\n        /* \"contracts/DisasterRecoveryTraining.sol\":6488:6509  return string(buffer) */\n      swap4\n      pop\n      pop\n      pop\n      pop\n        /* \"contracts/DisasterRecoveryTraining.sol\":5926:6516  function _toString(uint256 value) internal pure returns (string memory) {... */\n    tag_227:\n      swap2\n      swap1\n      pop\n      jump\t// out\n        /* \"#utility.yul\":7:82   */\n    tag_248:\n        /* \"#utility.yul\":40:46   */\n      0x00\n        /* \"#utility.yul\":73:75   */\n      0x40\n        /* \"#utility.yul\":67:76   */\n      mload\n        /* \"#utility.yul\":57:76   */\n      swap1\n      pop\n        /* \"#utility.yul\":7:82   */\n      swap1\n      jump\t// out\n        /* \"#utility.yul\":88:205   */\n    tag_249:\n        /* \"#utility.yul\":197:198   */\n      0x00\n        /* \"#utility.yul\":194:195   */\n      0x00\n        /* \"#utility.yul\":187:199   */\n      revert\n        /* \"#utility.yul\":211:328   */\n    tag_250:\n        /* \"#utility.yul\":320:321   */\n      0x00\n        /* \"#utility.yul\":317:318   */\n      0x00\n        /* \"#utility.yul\":310:322   */\n      revert\n        /* \"#utility.yul\":334:411   */\n    tag_251:\n        /* \"#utility.yul\":371:378   */\n      0x00\n        /* \"#utility.yul\":400:405   */\n      dup2\n        /* \"#utility.yul\":389:405   */\n      swap1\n      pop\n        /* \"#utility.yul\":334:411   */\n      swap2\n      swap1\n      pop\n      jump\t// out\n        /* \"#utility.yul\":417:539   */\n    tag_252:\n        /* \"#utility.yul\":490:514   */\n      tag_350\n        /* \"#utility.yul\":508:513   */\n      dup2\n        /* \"#utility.yul\":490:514   */\n      tag_251\n      jump\t// in\n    tag_350:\n        /* \"#utility.yul\":483:488   */\n      dup2\n        /* \"#utility.yul\":480:515   */\n      eq\n        /* \"#utility.yul\":470:533   */\n      tag_351\n      jumpi\n        /* \"#utility.yul\":529:530   */\n      0x00\n        /* \"#utility.yul\":526:527   */\n      0x00\n        /* \"#utility.yul\":519:531   */\n      revert\n        /* \"#utility.yul\":470:533   */\n    tag_351:\n        /* \"#utility.yul\":417:539   */\n      pop\n      jump\t// out\n        /* \"#utility.yul\":545:684   */\n    tag_253:\n        /* \"#utility.yul\":591:596   */\n      0x00\n        /* \"#utility.yul\":629:635   */\n      dup2\n        /* \"#utility.yul\":616:636   */\n      calldataload\n        /* \"#utility.yul\":607:636   */\n      swap1\n      pop\n        /* \"#utility.yul\":645:678   */\n      tag_353\n        /* \"#utility.yul\":672:677   */\n      dup2\n        /* \"#utility.yul\":645:678   */\n      tag_252\n      jump\t// in\n    tag_353:\n        /* \"#utility.yul\":545:684   */\n      swap3\n      swap2\n      pop\n      pop\n      jump\t// out\n        /* \"#utility.yul\":690:780   */\n    tag_254:\n        /* \"#utility.yul\":724:731   */\n      0x00\n        /* \"#utility.yul\":767:772   */\n      dup2\n        /* \"#utility.yul\":760:773   */\n      iszero\n        /* \"#utility.yul\":753:774   */\n      iszero\n        /* \"#utility.yul\":742:774   */\n      swap1\n      pop\n        /* \"#utility.yul\":690:780   */\n      swap2\n      swap1\n      pop\n      jump\t// out\n        /* \"#utility.yul\":786:902   */\n    tag_255:\n        /* \"#utility.yul\":856:877   */\n      tag_356\n        /* \"#utility.yul\":871:876   */\n      dup2\n        /* \"#utility.yul\":856:877   */\n      tag_254\n      jump\t// in\n    tag_356:\n        /* \"#utility.yul\":849:854   */\n      dup2\n        /* \"#utility.yul\":846:878   */\n      eq\n        /* \"#utility.yul\":836:896   */\n      tag_357\n      jumpi\n        /* \"#utility.yul\":892:893   */\n      0x00\n        /* \"#utility.yul\":889:890   */\n      0x00\n        /* \"#utility.yul\":882:894   */\n      revert\n        /* \"#utility.yul\":836:896   */\n    tag_357:\n        /* \"#utility.yul\":786:902   */\n      pop\n      jump\t// out\n        /* \"#utility.yul\":908:1041   */\n    tag_256:\n        /* \"#utility.yul\":951:956   */\n      0x00\n        /* \"#utility.yul\":989:995   */\n      dup2\n        /* \"#utility.yul\":976:996   */\n      calldataload\n        /* \"#utility.yul\":967:996   */\n      swap1\n      pop\n        /* \"#utility.yul\":1005:1035   */\n      tag_359\n        /* \"#utility.yul\":1029:1034   */\n      dup2\n        /* \"#utility.yul\":1005:1035   */\n      tag_255\n      jump\t// in\n    tag_359:\n        /* \"#utility.yul\":908:1041   */\n      swap3\n      swap2\n      pop\n      pop\n      jump\t// out\n        /* \"#utility.yul\":1047:1660   */\n    tag_14:\n        /* \"#utility.yul\":1121:1127   */\n      0x00\n        /* \"#utility.yul\":1129:1135   */\n      0x00\n        /* \"#utility.yul\":1137:1143   */\n      0x00\n        /* \"#utility.yul\":1186:1188   */\n      0x60\n        /* \"#utility.yul\":1174:1183   */\n      dup5\n        /* \"#utility.yul\":1165:1172   */\n      dup7\n        /* \"#utility.yul\":1161:1184   */\n      sub\n        /* \"#utility.yul\":1157:1189   */\n      slt\n        /* \"#utility.yul\":1154:1273   */\n      iszero\n      tag_361\n      jumpi\n        /* \"#utility.yul\":1192:1271   */\n      tag_362\n      tag_249\n      jump\t// in\n    tag_362:\n        /* \"#utility.yul\":1154:1273   */\n    tag_361:\n        /* \"#utility.yul\":1312:1313   */\n      0x00\n        /* \"#utility.yul\":1337:1390   */\n      tag_363\n        /* \"#utility.yul\":1382:1389   */\n      dup7\n        /* \"#utility.yul\":1373:1379   */\n      dup3\n        /* \"#utility.yul\":1362:1371   */\n      dup8\n        /* \"#utility.yul\":1358:1380   */\n      add\n        /* \"#utility.yul\":1337:1390   */\n      tag_253\n      jump\t// in\n    tag_363:\n        /* \"#utility.yul\":1327:1390   */\n      swap4\n      pop\n        /* \"#utility.yul\":1283:1400   */\n      pop\n        /* \"#utility.yul\":1439:1441   */\n      0x20\n        /* \"#utility.yul\":1465:1518   */\n      tag_364\n        /* \"#utility.yul\":1510:1517   */\n      dup7\n        /* \"#utility.yul\":1501:1507   */\n      dup3\n        /* \"#utility.yul\":1490:1499   */\n      dup8\n        /* \"#utility.yul\":1486:1508   */\n      add\n        /* \"#utility.yul\":1465:1518   */\n      tag_253\n      jump\t// in\n    tag_364:\n        /* \"#utility.yul\":1455:1518   */\n      swap3\n      pop\n        /* \"#utility.yul\":1410:1528   */\n      pop\n        /* \"#utility.yul\":1567:1569   */\n      0x40\n        /* \"#utility.yul\":1593:1643   */\n      tag_365\n        /* \"#utility.yul\":1635:1642   */\n      dup7\n        /* \"#utility.yul\":1626:1632   */\n      dup3\n        /* \"#utility.yul\":1615:1624   */\n      dup8\n        /* \"#utility.yul\":1611:1633   */\n      add\n        /* \"#utility.yul\":1593:1643   */\n      tag_256\n      jump\t// in\n    tag_365:\n        /* \"#utility.yul\":1583:1643   */\n      swap2\n      pop\n        /* \"#utility.yul\":1538:1653   */\n      pop\n        /* \"#utility.yul\":1047:1660   */\n      swap3\n      pop\n      swap3\n      pop\n      swap3\n      jump\t// out\n        /* \"#utility.yul\":1666:1995   */\n    tag_18:\n        /* \"#utility.yul\":1725:1731   */\n      0x00\n        /* \"#utility.yul\":1774:1776   */\n      0x20\n        /* \"#utility.yul\":1762:1771   */\n      dup3\n        /* \"#utility.yul\":1753:1760   */\n      dup5\n        /* \"#utility.yul\":1749:1772   */\n      sub\n        /* \"#utility.yul\":1745:1777   */\n      slt\n        /* \"#utility.yul\":1742:1861   */\n      iszero\n      tag_367\n      jumpi\n        /* \"#utility.yul\":1780:1859   */\n      tag_368\n      tag_249\n      jump\t// in\n    tag_368:\n        /* \"#utility.yul\":1742:1861   */\n    tag_367:\n        /* \"#utility.yul\":1900:1901   */\n      0x00\n        /* \"#utility.yul\":1925:1978   */\n      tag_369\n        /* \"#utility.yul\":1970:1977   */\n      dup5\n        /* \"#utility.yul\":1961:1967   */\n      dup3\n        /* \"#utility.yul\":1950:1959   */\n      dup6\n        /* \"#utility.yul\":1946:1968   */\n      add\n        /* \"#utility.yul\":1925:1978   */\n      tag_253\n      jump\t// in\n    tag_369:\n        /* \"#utility.yul\":1915:1978   */\n      swap2\n      pop\n        /* \"#utility.yul\":1871:1988   */\n      pop\n        /* \"#utility.yul\":1666:1995   */\n      swap3\n      swap2\n      pop\n      pop\n      jump\t// out\n        /* \"#utility.yul\":2001:2115   */\n    tag_257:\n        /* \"#utility.yul\":2068:2074   */\n      0x00\n        /* \"#utility.yul\":2102:2107   */\n      dup2\n        /* \"#utility.yul\":2096:2108   */\n      mload\n        /* \"#utility.yul\":2086:2108   */\n      swap1\n      pop\n        /* \"#utility.yul\":2001:2115   */\n      swap2\n      swap1\n      pop\n      jump\t// out\n        /* \"#utility.yul\":2121:2305   */\n    tag_258:\n        /* \"#utility.yul\":2220:2231   */\n      0x00\n        /* \"#utility.yul\":2254:2260   */\n      dup3\n        /* \"#utility.yul\":2249:2252   */\n      dup3\n        /* \"#utility.yul\":2242:2261   */\n      mstore\n        /* \"#utility.yul\":2294:2298   */\n      0x20\n        /* \"#utility.yul\":2289:2292   */\n      dup3\n        /* \"#utility.yul\":2285:2299   */\n      add\n        /* \"#utility.yul\":2270:2299   */\n      swap1\n      pop\n        /* \"#utility.yul\":2121:2305   */\n      swap3\n      swap2\n      pop\n      pop\n      jump\t// out\n        /* \"#utility.yul\":2311:2443   */\n    tag_259:\n        /* \"#utility.yul\":2378:2382   */\n      0x00\n        /* \"#utility.yul\":2401:2404   */\n      dup2\n        /* \"#utility.yul\":2393:2404   */\n      swap1\n      pop\n        /* \"#utility.yul\":2431:2435   */\n      0x20\n        /* \"#utility.yul\":2426:2429   */\n      dup3\n        /* \"#utility.yul\":2422:2436   */\n      add\n        /* \"#utility.yul\":2414:2436   */\n      swap1\n      pop\n        /* \"#utility.yul\":2311:2443   */\n      swap2\n      swap1\n      pop\n      jump\t// out\n        /* \"#utility.yul\":2449:2557   */\n    tag_260:\n        /* \"#utility.yul\":2526:2550   */\n      tag_374\n        /* \"#utility.yul\":2544:2549   */\n      dup2\n        /* \"#utility.yul\":2526:2550   */\n      tag_251\n      jump\t// in\n    tag_374:\n        /* \"#utility.yul\":2521:2524   */\n      dup3\n        /* \"#utility.yul\":2514:2551   */\n      mstore\n        /* \"#utility.yul\":2449:2557   */\n      pop\n      pop\n      jump\t// out\n        /* \"#utility.yul\":2563:2742   */\n    tag_261:\n        /* \"#utility.yul\":2632:2642   */\n      0x00\n        /* \"#utility.yul\":2653:2699   */\n      tag_376\n        /* \"#utility.yul\":2695:2698   */\n      dup4\n        /* \"#utility.yul\":2687:2693   */\n      dup4\n        /* \"#utility.yul\":2653:2699   */\n      tag_260\n      jump\t// in\n    tag_376:\n        /* \"#utility.yul\":2731:2735   */\n      0x20\n        /* \"#utility.yul\":2726:2729   */\n      dup4\n        /* \"#utility.yul\":2722:2736   */\n      add\n        /* \"#utility.yul\":2708:2736   */\n      swap1\n      pop\n        /* \"#utility.yul\":2563:2742   */\n      swap3\n      swap2\n      pop\n      pop\n      jump\t// out\n        /* \"#utility.yul\":2748:2861   */\n    tag_262:\n        /* \"#utility.yul\":2818:2822   */\n      0x00\n        /* \"#utility.yul\":2850:2854   */\n      0x20\n        /* \"#utility.yul\":2845:2848   */\n      dup3\n        /* \"#utility.yul\":2841:2855   */\n      add\n        /* \"#utility.yul\":2833:2855   */\n      swap1\n      pop\n        /* \"#utility.yul\":2748:2861   */\n      swap2\n      swap1\n      pop\n      jump\t// out\n        /* \"#utility.yul\":2897:3629   */\n    tag_263:\n        /* \"#utility.yul\":3016:3019   */\n      0x00\n        /* \"#utility.yul\":3045:3099   */\n      tag_379\n        /* \"#utility.yul\":3093:3098   */\n      dup3\n        /* \"#utility.yul\":3045:3099   */\n      tag_257\n      jump\t// in\n    tag_379:\n        /* \"#utility.yul\":3115:3201   */\n      tag_380\n        /* \"#utility.yul\":3194:3200   */\n      dup2\n        /* \"#utility.yul\":3189:3192   */\n      dup6\n        /* \"#utility.yul\":3115:3201   */\n      tag_258\n      jump\t// in\n    tag_380:\n        /* \"#utility.yul\":3108:3201   */\n      swap4\n      pop\n        /* \"#utility.yul\":3225:3281   */\n      tag_381\n        /* \"#utility.yul\":3275:3280   */\n      dup4\n        /* \"#utility.yul\":3225:3281   */\n      tag_259\n      jump\t// in\n    tag_381:\n        /* \"#utility.yul\":3304:3311   */\n      dup1\n        /* \"#utility.yul\":3335:3336   */\n      0x00\n        /* \"#utility.yul\":3320:3604   */\n    tag_382:\n        /* \"#utility.yul\":3345:3351   */\n      dup4\n        /* \"#utility.yul\":3342:3343   */\n      dup2\n        /* \"#utility.yul\":3339:3352   */\n      lt\n        /* \"#utility.yul\":3320:3604   */\n      iszero\n      tag_384\n      jumpi\n        /* \"#utility.yul\":3421:3427   */\n      dup2\n        /* \"#utility.yul\":3415:3428   */\n      mload\n        /* \"#utility.yul\":3448:3511   */\n      tag_385\n        /* \"#utility.yul\":3507:3510   */\n      dup9\n        /* \"#utility.yul\":3492:3505   */\n      dup3\n        /* \"#utility.yul\":3448:3511   */\n      tag_261\n      jump\t// in\n    tag_385:\n        /* \"#utility.yul\":3441:3511   */\n      swap8\n      pop\n        /* \"#utility.yul\":3534:3594   */\n      tag_386\n        /* \"#utility.yul\":3587:3593   */\n      dup4\n        /* \"#utility.yul\":3534:3594   */\n      tag_262\n      jump\t// in\n    tag_386:\n        /* \"#utility.yul\":3524:3594   */\n      swap3\n      pop\n        /* \"#utility.yul\":3380:3604   */\n      pop\n        /* \"#utility.yul\":3367:3368   */\n      0x01\n        /* \"#utility.yul\":3364:3365   */\n      dup2\n        /* \"#utility.yul\":3360:3369   */\n      add\n        /* \"#utility.yul\":3355:3369   */\n      swap1\n      pop\n        /* \"#utility.yul\":3320:3604   */\n      jump(tag_382)\n    tag_384:\n        /* \"#utility.yul\":3324:3338   */\n      pop\n        /* \"#utility.yul\":3620:3623   */\n      dup6\n        /* \"#utility.yul\":3613:3623   */\n      swap4\n      pop\n        /* \"#utility.yul\":3021:3629   */\n      pop\n      pop\n      pop\n        /* \"#utility.yul\":2897:3629   */\n      swap3\n      swap2\n      pop\n      pop\n      jump\t// out\n        /* \"#utility.yul\":3635:3759   */\n    tag_264:\n        /* \"#utility.yul\":3712:3718   */\n      0x00\n        /* \"#utility.yul\":3746:3751   */\n      dup2\n        /* \"#utility.yul\":3740:3752   */\n      mload\n        /* \"#utility.yul\":3730:3752   */\n      swap1\n      pop\n        /* \"#utility.yul\":3635:3759   */\n      swap2\n      swap1\n      pop\n      jump\t// out\n        /* \"#utility.yul\":3765:3959   */\n    tag_265:\n        /* \"#utility.yul\":3874:3885   */\n      0x00\n        /* \"#utility.yul\":3908:3914   */\n      dup3\n        /* \"#utility.yul\":3903:3906   */\n      dup3\n        /* \"#utility.yul\":3896:3915   */\n      mstore\n        /* \"#utility.yul\":3948:3952   */\n      0x20\n        /* \"#utility.yul\":3943:3946   */\n      dup3\n        /* \"#utility.yul\":3939:3953   */\n      add\n        /* \"#utility.yul\":3924:3953   */\n      swap1\n      pop\n        /* \"#utility.yul\":3765:3959   */\n      swap3\n      swap2\n      pop\n      pop\n      jump\t// out\n        /* \"#utility.yul\":3965:4107   */\n    tag_266:\n        /* \"#utility.yul\":4042:4046   */\n      0x00\n        /* \"#utility.yul\":4065:4068   */\n      dup2\n        /* \"#utility.yul\":4057:4068   */\n      swap1\n      pop\n        /* \"#utility.yul\":4095:4099   */\n      0x20\n        /* \"#utility.yul\":4090:4093   */\n      dup3\n        /* \"#utility.yul\":4086:4100   */\n      add\n        /* \"#utility.yul\":4078:4100   */\n      swap1\n      pop\n        /* \"#utility.yul\":3965:4107   */\n      swap2\n      swap1\n      pop\n      jump\t// out\n        /* \"#utility.yul\":4113:4212   */\n    tag_267:\n        /* \"#utility.yul\":4165:4171   */\n      0x00\n        /* \"#utility.yul\":4199:4204   */\n      dup2\n        /* \"#utility.yul\":4193:4205   */\n      mload\n        /* \"#utility.yul\":4183:4205   */\n      swap1\n      pop\n        /* \"#utility.yul\":4113:4212   */\n      swap2\n      swap1\n      pop\n      jump\t// out\n        /* \"#utility.yul\":4218:4377   */\n    tag_268:\n        /* \"#utility.yul\":4292:4303   */\n      0x00\n        /* \"#utility.yul\":4326:4332   */\n      dup3\n        /* \"#utility.yul\":4321:4324   */\n      dup3\n        /* \"#utility.yul\":4314:4333   */\n      mstore\n        /* \"#utility.yul\":4366:4370   */\n      0x20\n        /* \"#utility.yul\":4361:4364   */\n      dup3\n        /* \"#utility.yul\":4357:4371   */\n      add\n        /* \"#utility.yul\":4342:4371   */\n      swap1\n      pop\n        /* \"#utility.yul\":4218:4377   */\n      swap3\n      swap2\n      pop\n      pop\n      jump\t// out\n        /* \"#utility.yul\":4383:4522   */\n    tag_269:\n        /* \"#utility.yul\":4472:4478   */\n      dup3\n        /* \"#utility.yul\":4467:4470   */\n      dup2\n        /* \"#utility.yul\":4462:4465   */\n      dup4\n        /* \"#utility.yul\":4456:4479   */\n      mcopy\n        /* \"#utility.yul\":4513:4514   */\n      0x00\n        /* \"#utility.yul\":4504:4510   */\n      dup4\n        /* \"#utility.yul\":4499:4502   */\n      dup4\n        /* \"#utility.yul\":4495:4511   */\n      add\n        /* \"#utility.yul\":4488:4515   */\n      mstore\n        /* \"#utility.yul\":4383:4522   */\n      pop\n      pop\n      pop\n      jump\t// out\n        /* \"#utility.yul\":4528:4630   */\n    tag_270:\n        /* \"#utility.yul\":4569:4575   */\n      0x00\n        /* \"#utility.yul\":4620:4622   */\n      0x1f\n        /* \"#utility.yul\":4616:4623   */\n      not\n        /* \"#utility.yul\":4611:4613   */\n      0x1f\n        /* \"#utility.yul\":4604:4609   */\n      dup4\n        /* \"#utility.yul\":4600:4614   */\n      add\n        /* \"#utility.yul\":4596:4624   */\n      and\n        /* \"#utility.yul\":4586:4624   */\n      swap1\n      pop\n        /* \"#utility.yul\":4528:4630   */\n      swap2\n      swap1\n      pop\n      jump\t// out\n        /* \"#utility.yul\":4636:4993   */\n    tag_271:\n        /* \"#utility.yul\":4714:4717   */\n      0x00\n        /* \"#utility.yul\":4742:4781   */\n      tag_395\n        /* \"#utility.yul\":4775:4780   */\n      dup3\n        /* \"#utility.yul\":4742:4781   */\n      tag_267\n      jump\t// in\n    tag_395:\n        /* \"#utility.yul\":4797:4858   */\n      tag_396\n        /* \"#utility.yul\":4851:4857   */\n      dup2\n        /* \"#utility.yul\":4846:4849   */\n      dup6\n        /* \"#utility.yul\":4797:4858   */\n      tag_268\n      jump\t// in\n    tag_396:\n        /* \"#utility.yul\":4790:4858   */\n      swap4\n      pop\n        /* \"#utility.yul\":4867:4932   */\n      tag_397\n        /* \"#utility.yul\":4925:4931   */\n      dup2\n        /* \"#utility.yul\":4920:4923   */\n      dup6\n        /* \"#utility.yul\":4913:4917   */\n      0x20\n        /* \"#utility.yul\":4906:4911   */\n      dup7\n        /* \"#utility.yul\":4902:4918   */\n      add\n        /* \"#utility.yul\":4867:4932   */\n      tag_269\n      jump\t// in\n    tag_397:\n        /* \"#utility.yul\":4957:4986   */\n      tag_398\n        /* \"#utility.yul\":4979:4985   */\n      dup2\n        /* \"#utility.yul\":4957:4986   */\n      tag_270\n      jump\t// in\n    tag_398:\n        /* \"#utility.yul\":4952:4955   */\n      dup5\n        /* \"#utility.yul\":4948:4987   */\n      add\n        /* \"#utility.yul\":4941:4987   */\n      swap2\n      pop\n        /* \"#utility.yul\":4718:4993   */\n      pop\n        /* \"#utility.yul\":4636:4993   */\n      swap3\n      swap2\n      pop\n      pop\n      jump\t// out\n        /* \"#utility.yul\":4999:5195   */\n    tag_272:\n        /* \"#utility.yul\":5088:5098   */\n      0x00\n        /* \"#utility.yul\":5123:5189   */\n      tag_400\n        /* \"#utility.yul\":5185:5188   */\n      dup4\n        /* \"#utility.yul\":5177:5183   */\n      dup4\n        /* \"#utility.yul\":5123:5189   */\n      tag_271\n      jump\t// in\n    tag_400:\n        /* \"#utility.yul\":5109:5189   */\n      swap1\n      pop\n        /* \"#utility.yul\":4999:5195   */\n      swap3\n      swap2\n      pop\n      pop\n      jump\t// out\n        /* \"#utility.yul\":5201:5324   */\n    tag_273:\n        /* \"#utility.yul\":5281:5285   */\n      0x00\n        /* \"#utility.yul\":5313:5317   */\n      0x20\n        /* \"#utility.yul\":5308:5311   */\n      dup3\n        /* \"#utility.yul\":5304:5318   */\n      add\n        /* \"#utility.yul\":5296:5318   */\n      swap1\n      pop\n        /* \"#utility.yul\":5201:5324   */\n      swap2\n      swap1\n      pop\n      jump\t// out\n        /* \"#utility.yul\":5358:6349   */\n    tag_274:\n        /* \"#utility.yul\":5497:5500   */\n      0x00\n        /* \"#utility.yul\":5526:5590   */\n      tag_403\n        /* \"#utility.yul\":5584:5589   */\n      dup3\n        /* \"#utility.yul\":5526:5590   */\n      tag_264\n      jump\t// in\n    tag_403:\n        /* \"#utility.yul\":5606:5702   */\n      tag_404\n        /* \"#utility.yul\":5695:5701   */\n      dup2\n        /* \"#utility.yul\":5690:5693   */\n      dup6\n        /* \"#utility.yul\":5606:5702   */\n      tag_265\n      jump\t// in\n    tag_404:\n        /* \"#utility.yul\":5599:5702   */\n      swap4\n      pop\n        /* \"#utility.yul\":5728:5731   */\n      dup4\n        /* \"#utility.yul\":5773:5777   */\n      0x20\n        /* \"#utility.yul\":5765:5771   */\n      dup3\n        /* \"#utility.yul\":5761:5778   */\n      mul\n        /* \"#utility.yul\":5756:5759   */\n      dup6\n        /* \"#utility.yul\":5752:5779   */\n      add\n        /* \"#utility.yul\":5803:5869   */\n      tag_405\n        /* \"#utility.yul\":5863:5868   */\n      dup6\n        /* \"#utility.yul\":5803:5869   */\n      tag_266\n      jump\t// in\n    tag_405:\n        /* \"#utility.yul\":5892:5899   */\n      dup1\n        /* \"#utility.yul\":5923:5924   */\n      0x00\n        /* \"#utility.yul\":5908:6304   */\n    tag_406:\n        /* \"#utility.yul\":5933:5939   */\n      dup6\n        /* \"#utility.yul\":5930:5931   */\n      dup2\n        /* \"#utility.yul\":5927:5940   */\n      lt\n        /* \"#utility.yul\":5908:6304   */\n      iszero\n      tag_408\n      jumpi\n        /* \"#utility.yul\":6004:6013   */\n      dup5\n        /* \"#utility.yul\":5998:6002   */\n      dup5\n        /* \"#utility.yul\":5994:6014   */\n      sub\n        /* \"#utility.yul\":5989:5992   */\n      dup10\n        /* \"#utility.yul\":5982:6015   */\n      mstore\n        /* \"#utility.yul\":6055:6061   */\n      dup2\n        /* \"#utility.yul\":6049:6062   */\n      mload\n        /* \"#utility.yul\":6083:6167   */\n      tag_409\n        /* \"#utility.yul\":6162:6166   */\n      dup6\n        /* \"#utility.yul\":6147:6160   */\n      dup3\n        /* \"#utility.yul\":6083:6167   */\n      tag_272\n      jump\t// in\n    tag_409:\n        /* \"#utility.yul\":6075:6167   */\n      swap5\n      pop\n        /* \"#utility.yul\":6190:6260   */\n      tag_410\n        /* \"#utility.yul\":6253:6259   */\n      dup4\n        /* \"#utility.yul\":6190:6260   */\n      tag_273\n      jump\t// in\n    tag_410:\n        /* \"#utility.yul\":6180:6260   */\n      swap3\n      pop\n        /* \"#utility.yul\":6289:6293   */\n      0x20\n        /* \"#utility.yul\":6284:6287   */\n      dup11\n        /* \"#utility.yul\":6280:6294   */\n      add\n        /* \"#utility.yul\":6273:6294   */\n      swap10\n      pop\n        /* \"#utility.yul\":5968:6304   */\n      pop\n        /* \"#utility.yul\":5955:5956   */\n      0x01\n        /* \"#utility.yul\":5952:5953   */\n      dup2\n        /* \"#utility.yul\":5948:5957   */\n      add\n        /* \"#utility.yul\":5943:5957   */\n      swap1\n      pop\n        /* \"#utility.yul\":5908:6304   */\n      jump(tag_406)\n    tag_408:\n        /* \"#utility.yul\":5912:5926   */\n      pop\n        /* \"#utility.yul\":6320:6324   */\n      dup3\n        /* \"#utility.yul\":6313:6324   */\n      swap8\n      pop\n        /* \"#utility.yul\":6340:6343   */\n      dup8\n        /* \"#utility.yul\":6333:6343   */\n      swap6\n      pop\n        /* \"#utility.yul\":5502:6349   */\n      pop\n      pop\n      pop\n      pop\n      pop\n        /* \"#utility.yul\":5358:6349   */\n      swap3\n      swap2\n      pop\n      pop\n      jump\t// out\n        /* \"#utility.yul\":6355:7029   */\n    tag_21:\n        /* \"#utility.yul\":6596:6600   */\n      0x00\n        /* \"#utility.yul\":6634:6636   */\n      0x40\n        /* \"#utility.yul\":6623:6632   */\n      dup3\n        /* \"#utility.yul\":6619:6637   */\n      add\n        /* \"#utility.yul\":6611:6637   */\n      swap1\n      pop\n        /* \"#utility.yul\":6683:6692   */\n      dup2\n        /* \"#utility.yul\":6677:6681   */\n      dup2\n        /* \"#utility.yul\":6673:6693   */\n      sub\n        /* \"#utility.yul\":6669:6670   */\n      0x00\n        /* \"#utility.yul\":6658:6667   */\n      dup4\n        /* \"#utility.yul\":6654:6671   */\n      add\n        /* \"#utility.yul\":6647:6694   */\n      mstore\n        /* \"#utility.yul\":6711:6819   */\n      tag_412\n        /* \"#utility.yul\":6814:6818   */\n      dup2\n        /* \"#utility.yul\":6805:6811   */\n      dup6\n        /* \"#utility.yul\":6711:6819   */\n      tag_263\n      jump\t// in\n    tag_412:\n        /* \"#utility.yul\":6703:6819   */\n      swap1\n      pop\n        /* \"#utility.yul\":6866:6875   */\n      dup2\n        /* \"#utility.yul\":6860:6864   */\n      dup2\n        /* \"#utility.yul\":6856:6876   */\n      sub\n        /* \"#utility.yul\":6851:6853   */\n      0x20\n        /* \"#utility.yul\":6840:6849   */\n      dup4\n        /* \"#utility.yul\":6836:6854   */\n      add\n        /* \"#utility.yul\":6829:6877   */\n      mstore\n        /* \"#utility.yul\":6894:7022   */\n      tag_413\n        /* \"#utility.yul\":7017:7021   */\n      dup2\n        /* \"#utility.yul\":7008:7014   */\n      dup5\n        /* \"#utility.yul\":6894:7022   */\n      tag_274\n      jump\t// in\n    tag_413:\n        /* \"#utility.yul\":6886:7022   */\n      swap1\n      pop\n        /* \"#utility.yul\":6355:7029   */\n      swap4\n      swap3\n      pop\n      pop\n      pop\n      jump\t// out\n        /* \"#utility.yul\":7035:7669   */\n    tag_25:\n        /* \"#utility.yul\":7256:7260   */\n      0x00\n        /* \"#utility.yul\":7294:7296   */\n      0x40\n        /* \"#utility.yul\":7283:7292   */\n      dup3\n        /* \"#utility.yul\":7279:7297   */\n      add\n        /* \"#utility.yul\":7271:7297   */\n      swap1\n      pop\n        /* \"#utility.yul\":7343:7352   */\n      dup2\n        /* \"#utility.yul\":7337:7341   */\n      dup2\n        /* \"#utility.yul\":7333:7353   */\n      sub\n        /* \"#utility.yul\":7329:7330   */\n      0x00\n        /* \"#utility.yul\":7318:7327   */\n      dup4\n        /* \"#utility.yul\":7314:7331   */\n      add\n        /* \"#utility.yul\":7307:7354   */\n      mstore\n        /* \"#utility.yul\":7371:7479   */\n      tag_415\n        /* \"#utility.yul\":7474:7478   */\n      dup2\n        /* \"#utility.yul\":7465:7471   */\n      dup6\n        /* \"#utility.yul\":7371:7479   */\n      tag_263\n      jump\t// in\n    tag_415:\n        /* \"#utility.yul\":7363:7479   */\n      swap1\n      pop\n        /* \"#utility.yul\":7526:7535   */\n      dup2\n        /* \"#utility.yul\":7520:7524   */\n      dup2\n        /* \"#utility.yul\":7516:7536   */\n      sub\n        /* \"#utility.yul\":7511:7513   */\n      0x20\n        /* \"#utility.yul\":7500:7509   */\n      dup4\n        /* \"#utility.yul\":7496:7514   */\n      add\n        /* \"#utility.yul\":7489:7537   */\n      mstore\n        /* \"#utility.yul\":7554:7662   */\n      tag_416\n        /* \"#utility.yul\":7657:7661   */\n      dup2\n        /* \"#utility.yul\":7648:7654   */\n      dup5\n        /* \"#utility.yul\":7554:7662   */\n      tag_263\n      jump\t// in\n    tag_416:\n        /* \"#utility.yul\":7546:7662   */\n      swap1\n      pop\n        /* \"#utility.yul\":7035:7669   */\n      swap4\n      swap3\n      pop\n      pop\n      pop\n      jump\t// out\n        /* \"#utility.yul\":7675:7793   */\n    tag_275:\n        /* \"#utility.yul\":7762:7786   */\n      tag_418\n        /* \"#utility.yul\":7780:7785   */\n      dup2\n        /* \"#utility.yul\":7762:7786   */\n      tag_251\n      jump\t// in\n    tag_418:\n        /* \"#utility.yul\":7757:7760   */\n      dup3\n        /* \"#utility.yul\":7750:7787   */\n      mstore\n        /* \"#utility.yul\":7675:7793   */\n      pop\n      pop\n      jump\t// out\n        /* \"#utility.yul\":7799:7968   */\n    tag_276:\n        /* \"#utility.yul\":7883:7894   */\n      0x00\n        /* \"#utility.yul\":7917:7923   */\n      dup3\n        /* \"#utility.yul\":7912:7915   */\n      dup3\n        /* \"#utility.yul\":7905:7924   */\n      mstore\n        /* \"#utility.yul\":7957:7961   */\n      0x20\n        /* \"#utility.yul\":7952:7955   */\n      dup3\n        /* \"#utility.yul\":7948:7962   */\n      add\n        /* \"#utility.yul\":7933:7962   */\n      swap1\n      pop\n        /* \"#utility.yul\":7799:7968   */\n      swap3\n      swap2\n      pop\n      pop\n      jump\t// out\n        /* \"#utility.yul\":7974:8351   */\n    tag_277:\n        /* \"#utility.yul\":8062:8065   */\n      0x00\n        /* \"#utility.yul\":8090:8129   */\n      tag_421\n        /* \"#utility.yul\":8123:8128   */\n      dup3\n        /* \"#utility.yul\":8090:8129   */\n      tag_267\n      jump\t// in\n    tag_421:\n        /* \"#utility.yul\":8145:8216   */\n      tag_422\n        /* \"#utility.yul\":8209:8215   */\n      dup2\n        /* \"#utility.yul\":8204:8207   */\n      dup6\n        /* \"#utility.yul\":8145:8216   */\n      tag_276\n      jump\t// in\n    tag_422:\n        /* \"#utility.yul\":8138:8216   */\n      swap4\n      pop\n        /* \"#utility.yul\":8225:8290   */\n      tag_423\n        /* \"#utility.yul\":8283:8289   */\n      dup2\n        /* \"#utility.yul\":8278:8281   */\n      dup6\n        /* \"#utility.yul\":8271:8275   */\n      0x20\n        /* \"#utility.yul\":8264:8269   */\n      dup7\n        /* \"#utility.yul\":8260:8276   */\n      add\n        /* \"#utility.yul\":8225:8290   */\n      tag_269\n      jump\t// in\n    tag_423:\n        /* \"#utility.yul\":8315:8344   */\n      tag_424\n        /* \"#utility.yul\":8337:8343   */\n      dup2\n        /* \"#utility.yul\":8315:8344   */\n      tag_270\n      jump\t// in\n    tag_424:\n        /* \"#utility.yul\":8310:8313   */\n      dup5\n        /* \"#utility.yul\":8306:8345   */\n      add\n        /* \"#utility.yul\":8299:8345   */\n      swap2\n      pop\n        /* \"#utility.yul\":8066:8351   */\n      pop\n        /* \"#utility.yul\":7974:8351   */\n      swap3\n      swap2\n      pop\n      pop\n      jump\t// out\n        /* \"#utility.yul\":8357:8466   */\n    tag_278:\n        /* \"#utility.yul\":8438:8459   */\n      tag_426\n        /* \"#utility.yul\":8453:8458   */\n      dup2\n        /* \"#utility.yul\":8438:8459   */\n      tag_254\n      jump\t// in\n    tag_426:\n        /* \"#utility.yul\":8433:8436   */\n      dup3\n        /* \"#utility.yul\":8426:8460   */\n      mstore\n        /* \"#utility.yul\":8357:8466   */\n      pop\n      pop\n      jump\t// out\n        /* \"#utility.yul\":8472:9730   */\n    tag_30:\n        /* \"#utility.yul\":8815:8819   */\n      0x00\n        /* \"#utility.yul\":8853:8856   */\n      0x0100\n        /* \"#utility.yul\":8842:8851   */\n      dup3\n        /* \"#utility.yul\":8838:8857   */\n      add\n        /* \"#utility.yul\":8830:8857   */\n      swap1\n      pop\n        /* \"#utility.yul\":8867:8938   */\n      tag_428\n        /* \"#utility.yul\":8935:8936   */\n      0x00\n        /* \"#utility.yul\":8924:8933   */\n      dup4\n        /* \"#utility.yul\":8920:8937   */\n      add\n        /* \"#utility.yul\":8911:8917   */\n      dup12\n        /* \"#utility.yul\":8867:8938   */\n      tag_275\n      jump\t// in\n    tag_428:\n        /* \"#utility.yul\":8985:8994   */\n      dup2\n        /* \"#utility.yul\":8979:8983   */\n      dup2\n        /* \"#utility.yul\":8975:8995   */\n      sub\n        /* \"#utility.yul\":8970:8972   */\n      0x20\n        /* \"#utility.yul\":8959:8968   */\n      dup4\n        /* \"#utility.yul\":8955:8973   */\n      add\n        /* \"#utility.yul\":8948:8996   */\n      mstore\n        /* \"#utility.yul\":9013:9091   */\n      tag_429\n        /* \"#utility.yul\":9086:9090   */\n      dup2\n        /* \"#utility.yul\":9077:9083   */\n      dup11\n        /* \"#utility.yul\":9013:9091   */\n      tag_277\n      jump\t// in\n    tag_429:\n        /* \"#utility.yul\":9005:9091   */\n      swap1\n      pop\n        /* \"#utility.yul\":9101:9173   */\n      tag_430\n        /* \"#utility.yul\":9169:9171   */\n      0x40\n        /* \"#utility.yul\":9158:9167   */\n      dup4\n        /* \"#utility.yul\":9154:9172   */\n      add\n        /* \"#utility.yul\":9145:9151   */\n      dup10\n        /* \"#utility.yul\":9101:9173   */\n      tag_275\n      jump\t// in\n    tag_430:\n        /* \"#utility.yul\":9220:9229   */\n      dup2\n        /* \"#utility.yul\":9214:9218   */\n      dup2\n        /* \"#utility.yul\":9210:9230   */\n      sub\n        /* \"#utility.yul\":9205:9207   */\n      0x60\n        /* \"#utility.yul\":9194:9203   */\n      dup4\n        /* \"#utility.yul\":9190:9208   */\n      add\n        /* \"#utility.yul\":9183:9231   */\n      mstore\n        /* \"#utility.yul\":9248:9326   */\n      tag_431\n        /* \"#utility.yul\":9321:9325   */\n      dup2\n        /* \"#utility.yul\":9312:9318   */\n      dup9\n        /* \"#utility.yul\":9248:9326   */\n      tag_277\n      jump\t// in\n    tag_431:\n        /* \"#utility.yul\":9240:9326   */\n      swap1\n      pop\n        /* \"#utility.yul\":9374:9383   */\n      dup2\n        /* \"#utility.yul\":9368:9372   */\n      dup2\n        /* \"#utility.yul\":9364:9384   */\n      sub\n        /* \"#utility.yul\":9358:9361   */\n      0x80\n        /* \"#utility.yul\":9347:9356   */\n      dup4\n        /* \"#utility.yul\":9343:9362   */\n      add\n        /* \"#utility.yul\":9336:9385   */\n      mstore\n        /* \"#utility.yul\":9402:9480   */\n      tag_432\n        /* \"#utility.yul\":9475:9479   */\n      dup2\n        /* \"#utility.yul\":9466:9472   */\n      dup8\n        /* \"#utility.yul\":9402:9480   */\n      tag_277\n      jump\t// in\n    tag_432:\n        /* \"#utility.yul\":9394:9480   */\n      swap1\n      pop\n        /* \"#utility.yul\":9490:9563   */\n      tag_433\n        /* \"#utility.yul\":9558:9561   */\n      0xa0\n        /* \"#utility.yul\":9547:9556   */\n      dup4\n        /* \"#utility.yul\":9543:9562   */\n      add\n        /* \"#utility.yul\":9534:9540   */\n      dup7\n        /* \"#utility.yul\":9490:9563   */\n      tag_275\n      jump\t// in\n    tag_433:\n        /* \"#utility.yul\":9573:9640   */\n      tag_434\n        /* \"#utility.yul\":9635:9638   */\n      0xc0\n        /* \"#utility.yul\":9624:9633   */\n      dup4\n        /* \"#utility.yul\":9620:9639   */\n      add\n        /* \"#utility.yul\":9611:9617   */\n      dup6\n        /* \"#utility.yul\":9573:9640   */\n      tag_278\n      jump\t// in\n    tag_434:\n        /* \"#utility.yul\":9650:9723   */\n      tag_435\n        /* \"#utility.yul\":9718:9721   */\n      0xe0\n        /* \"#utility.yul\":9707:9716   */\n      dup4\n        /* \"#utility.yul\":9703:9722   */\n      add\n        /* \"#utility.yul\":9694:9700   */\n      dup5\n        /* \"#utility.yul\":9650:9723   */\n      tag_275\n      jump\t// in\n    tag_435:\n        /* \"#utility.yul\":8472:9730   */\n      swap10\n      swap9\n      pop\n      pop\n      pop\n      pop\n      pop\n      pop\n      pop\n      pop\n      pop\n      jump\t// out\n        /* \"#utility.yul\":9736:10355   */\n    tag_33:\n        /* \"#utility.yul\":9813:9819   */\n      0x00\n        /* \"#utility.yul\":9821:9827   */\n      0x00\n        /* \"#utility.yul\":9829:9835   */\n      0x00\n        /* \"#utility.yul\":9878:9880   */\n      0x60\n        /* \"#utility.yul\":9866:9875   */\n      dup5\n        /* \"#utility.yul\":9857:9864   */\n      dup7\n        /* \"#utility.yul\":9853:9876   */\n      sub\n        /* \"#utility.yul\":9849:9881   */\n      slt\n        /* \"#utility.yul\":9846:9965   */\n      iszero\n      tag_437\n      jumpi\n        /* \"#utility.yul\":9884:9963   */\n      tag_438\n      tag_249\n      jump\t// in\n    tag_438:\n        /* \"#utility.yul\":9846:9965   */\n    tag_437:\n        /* \"#utility.yul\":10004:10005   */\n      0x00\n        /* \"#utility.yul\":10029:10082   */\n      tag_439\n        /* \"#utility.yul\":10074:10081   */\n      dup7\n        /* \"#utility.yul\":10065:10071   */\n      dup3\n        /* \"#utility.yul\":10054:10063   */\n      dup8\n        /* \"#utility.yul\":10050:10072   */\n      add\n        /* \"#utility.yul\":10029:10082   */\n      tag_253\n      jump\t// in\n    tag_439:\n        /* \"#utility.yul\":10019:10082   */\n      swap4\n      pop\n        /* \"#utility.yul\":9975:10092   */\n      pop\n        /* \"#utility.yul\":10131:10133   */\n      0x20\n        /* \"#utility.yul\":10157:10210   */\n      tag_440\n        /* \"#utility.yul\":10202:10209   */\n      dup7\n        /* \"#utility.yul\":10193:10199   */\n      dup3\n        /* \"#utility.yul\":10182:10191   */\n      dup8\n        /* \"#utility.yul\":10178:10200   */\n      add\n        /* \"#utility.yul\":10157:10210   */\n      tag_253\n      jump\t// in\n    tag_440:\n        /* \"#utility.yul\":10147:10210   */\n      swap3\n      pop\n        /* \"#utility.yul\":10102:10220   */\n      pop\n        /* \"#utility.yul\":10259:10261   */\n      0x40\n        /* \"#utility.yul\":10285:10338   */\n      tag_441\n        /* \"#utility.yul\":10330:10337   */\n      dup7\n        /* \"#utility.yul\":10321:10327   */\n      dup3\n        /* \"#utility.yul\":10310:10319   */\n      dup8\n        /* \"#utility.yul\":10306:10328   */\n      add\n        /* \"#utility.yul\":10285:10338   */\n      tag_253\n      jump\t// in\n    tag_441:\n        /* \"#utility.yul\":10275:10338   */\n      swap2\n      pop\n        /* \"#utility.yul\":10230:10348   */\n      pop\n        /* \"#utility.yul\":9736:10355   */\n      swap3\n      pop\n      swap3\n      pop\n      swap3\n      jump\t// out\n        /* \"#utility.yul\":10361:10571   */\n    tag_36:\n        /* \"#utility.yul\":10448:10452   */\n      0x00\n        /* \"#utility.yul\":10486:10488   */\n      0x20\n        /* \"#utility.yul\":10475:10484   */\n      dup3\n        /* \"#utility.yul\":10471:10489   */\n      add\n        /* \"#utility.yul\":10463:10489   */\n      swap1\n      pop\n        /* \"#utility.yul\":10499:10564   */\n      tag_443\n        /* \"#utility.yul\":10561:10562   */\n      0x00\n        /* \"#utility.yul\":10550:10559   */\n      dup4\n        /* \"#utility.yul\":10546:10563   */\n      add\n        /* \"#utility.yul\":10537:10543   */\n      dup5\n        /* \"#utility.yul\":10499:10564   */\n      tag_278\n      jump\t// in\n    tag_443:\n        /* \"#utility.yul\":10361:10571   */\n      swap3\n      swap2\n      pop\n      pop\n      jump\t// out\n        /* \"#utility.yul\":10577:10694   */\n    tag_279:\n        /* \"#utility.yul\":10686:10687   */\n      0x00\n        /* \"#utility.yul\":10683:10684   */\n      0x00\n        /* \"#utility.yul\":10676:10688   */\n      revert\n        /* \"#utility.yul\":10700:10817   */\n    tag_280:\n        /* \"#utility.yul\":10809:10810   */\n      0x00\n        /* \"#utility.yul\":10806:10807   */\n      0x00\n        /* \"#utility.yul\":10799:10811   */\n      revert\n        /* \"#utility.yul\":10823:11003   */\n    tag_81:\n        /* \"#utility.yul\":10871:10948   */\n      0x4e487b7100000000000000000000000000000000000000000000000000000000\n        /* \"#utility.yul\":10868:10869   */\n      0x00\n        /* \"#utility.yul\":10861:10949   */\n      mstore\n        /* \"#utility.yul\":10968:10972   */\n      0x41\n        /* \"#utility.yul\":10965:10966   */\n      0x04\n        /* \"#utility.yul\":10958:10973   */\n      mstore\n        /* \"#utility.yul\":10992:10996   */\n      0x24\n        /* \"#utility.yul\":10989:10990   */\n      0x00\n        /* \"#utility.yul\":10982:10997   */\n      revert\n        /* \"#utility.yul\":11009:11290   */\n    tag_281:\n        /* \"#utility.yul\":11092:11119   */\n      tag_448\n        /* \"#utility.yul\":11114:11118   */\n      dup3\n        /* \"#utility.yul\":11092:11119   */\n      tag_270\n      jump\t// in\n    tag_448:\n        /* \"#utility.yul\":11084:11090   */\n      dup2\n        /* \"#utility.yul\":11080:11120   */\n      add\n        /* \"#utility.yul\":11222:11228   */\n      dup2\n        /* \"#utility.yul\":11210:11220   */\n      dup2\n        /* \"#utility.yul\":11207:11229   */\n      lt\n        /* \"#utility.yul\":11186:11204   */\n      0xffffffffffffffff\n        /* \"#utility.yul\":11174:11184   */\n      dup3\n        /* \"#utility.yul\":11171:11205   */\n      gt\n        /* \"#utility.yul\":11168:11230   */\n      or\n        /* \"#utility.yul\":11165:11253   */\n      iszero\n      tag_449\n      jumpi\n        /* \"#utility.yul\":11233:11251   */\n      tag_450\n      tag_81\n      jump\t// in\n    tag_450:\n        /* \"#utility.yul\":11165:11253   */\n    tag_449:\n        /* \"#utility.yul\":11273:11283   */\n      dup1\n        /* \"#utility.yul\":11269:11271   */\n      0x40\n        /* \"#utility.yul\":11262:11284   */\n      mstore\n        /* \"#utility.yul\":11052:11290   */\n      pop\n        /* \"#utility.yul\":11009:11290   */\n      pop\n      pop\n      jump\t// out\n        /* \"#utility.yul\":11296:11425   */\n    tag_282:\n        /* \"#utility.yul\":11330:11336   */\n      0x00\n        /* \"#utility.yul\":11357:11377   */\n      tag_452\n      tag_248\n      jump\t// in\n    tag_452:\n        /* \"#utility.yul\":11347:11377   */\n      swap1\n      pop\n        /* \"#utility.yul\":11386:11419   */\n      tag_453\n        /* \"#utility.yul\":11414:11418   */\n      dup3\n        /* \"#utility.yul\":11406:11412   */\n      dup3\n        /* \"#utility.yul\":11386:11419   */\n      tag_281\n      jump\t// in\n    tag_453:\n        /* \"#utility.yul\":11296:11425   */\n      swap2\n      swap1\n      pop\n      jump\t// out\n        /* \"#utility.yul\":11431:11739   */\n    tag_283:\n        /* \"#utility.yul\":11493:11497   */\n      0x00\n        /* \"#utility.yul\":11583:11601   */\n      0xffffffffffffffff\n        /* \"#utility.yul\":11575:11581   */\n      dup3\n        /* \"#utility.yul\":11572:11602   */\n      gt\n        /* \"#utility.yul\":11569:11625   */\n      iszero\n      tag_455\n      jumpi\n        /* \"#utility.yul\":11605:11623   */\n      tag_456\n      tag_81\n      jump\t// in\n    tag_456:\n        /* \"#utility.yul\":11569:11625   */\n    tag_455:\n        /* \"#utility.yul\":11643:11672   */\n      tag_457\n        /* \"#utility.yul\":11665:11671   */\n      dup3\n        /* \"#utility.yul\":11643:11672   */\n      tag_270\n      jump\t// in\n    tag_457:\n        /* \"#utility.yul\":11635:11672   */\n      swap1\n      pop\n        /* \"#utility.yul\":11727:11731   */\n      0x20\n        /* \"#utility.yul\":11721:11725   */\n      dup2\n        /* \"#utility.yul\":11717:11732   */\n      add\n        /* \"#utility.yul\":11709:11732   */\n      swap1\n      pop\n        /* \"#utility.yul\":11431:11739   */\n      swap2\n      swap1\n      pop\n      jump\t// out\n        /* \"#utility.yul\":11745:11893   */\n    tag_284:\n        /* \"#utility.yul\":11843:11849   */\n      dup3\n        /* \"#utility.yul\":11838:11841   */\n      dup2\n        /* \"#utility.yul\":11833:11836   */\n      dup4\n        /* \"#utility.yul\":11820:11850   */\n      calldatacopy\n        /* \"#utility.yul\":11884:11885   */\n      0x00\n        /* \"#utility.yul\":11875:11881   */\n      dup4\n        /* \"#utility.yul\":11870:11873   */\n      dup4\n        /* \"#utility.yul\":11866:11882   */\n      add\n        /* \"#utility.yul\":11859:11886   */\n      mstore\n        /* \"#utility.yul\":11745:11893   */\n      pop\n      pop\n      pop\n      jump\t// out\n        /* \"#utility.yul\":11899:12324   */\n    tag_285:\n        /* \"#utility.yul\":11977:11982   */\n      0x00\n        /* \"#utility.yul\":12002:12068   */\n      tag_460\n        /* \"#utility.yul\":12018:12067   */\n      tag_461\n        /* \"#utility.yul\":12060:12066   */\n      dup5\n        /* \"#utility.yul\":12018:12067   */\n      tag_283\n      jump\t// in\n    tag_461:\n        /* \"#utility.yul\":12002:12068   */\n      tag_282\n      jump\t// in\n    tag_460:\n        /* \"#utility.yul\":11993:12068   */\n      swap1\n      pop\n        /* \"#utility.yul\":12091:12097   */\n      dup3\n        /* \"#utility.yul\":12084:12089   */\n      dup2\n        /* \"#utility.yul\":12077:12098   */\n      mstore\n        /* \"#utility.yul\":12129:12133   */\n      0x20\n        /* \"#utility.yul\":12122:12127   */\n      dup2\n        /* \"#utility.yul\":12118:12134   */\n      add\n        /* \"#utility.yul\":12167:12170   */\n      dup5\n        /* \"#utility.yul\":12158:12164   */\n      dup5\n        /* \"#utility.yul\":12153:12156   */\n      dup5\n        /* \"#utility.yul\":12149:12165   */\n      add\n        /* \"#utility.yul\":12146:12171   */\n      gt\n        /* \"#utility.yul\":12143:12255   */\n      iszero\n      tag_462\n      jumpi\n        /* \"#utility.yul\":12174:12253   */\n      tag_463\n      tag_280\n      jump\t// in\n    tag_463:\n        /* \"#utility.yul\":12143:12255   */\n    tag_462:\n        /* \"#utility.yul\":12264:12318   */\n      tag_464\n        /* \"#utility.yul\":12311:12317   */\n      dup5\n        /* \"#utility.yul\":12306:12309   */\n      dup3\n        /* \"#utility.yul\":12301:12304   */\n      dup6\n        /* \"#utility.yul\":12264:12318   */\n      tag_284\n      jump\t// in\n    tag_464:\n        /* \"#utility.yul\":11983:12324   */\n      pop\n        /* \"#utility.yul\":11899:12324   */\n      swap4\n      swap3\n      pop\n      pop\n      pop\n      jump\t// out\n        /* \"#utility.yul\":12344:12684   */\n    tag_286:\n        /* \"#utility.yul\":12400:12405   */\n      0x00\n        /* \"#utility.yul\":12449:12452   */\n      dup3\n        /* \"#utility.yul\":12442:12446   */\n      0x1f\n        /* \"#utility.yul\":12434:12440   */\n      dup4\n        /* \"#utility.yul\":12430:12447   */\n      add\n        /* \"#utility.yul\":12426:12453   */\n      slt\n        /* \"#utility.yul\":12416:12538   */\n      tag_466\n      jumpi\n        /* \"#utility.yul\":12457:12536   */\n      tag_467\n      tag_279\n      jump\t// in\n    tag_467:\n        /* \"#utility.yul\":12416:12538   */\n    tag_466:\n        /* \"#utility.yul\":12574:12580   */\n      dup2\n        /* \"#utility.yul\":12561:12581   */\n      calldataload\n        /* \"#utility.yul\":12599:12678   */\n      tag_468\n        /* \"#utility.yul\":12674:12677   */\n      dup5\n        /* \"#utility.yul\":12666:12672   */\n      dup3\n        /* \"#utility.yul\":12659:12663   */\n      0x20\n        /* \"#utility.yul\":12651:12657   */\n      dup7\n        /* \"#utility.yul\":12647:12664   */\n      add\n        /* \"#utility.yul\":12599:12678   */\n      tag_285\n      jump\t// in\n    tag_468:\n        /* \"#utility.yul\":12590:12678   */\n      swap2\n      pop\n        /* \"#utility.yul\":12406:12684   */\n      pop\n        /* \"#utility.yul\":12344:12684   */\n      swap3\n      swap2\n      pop\n      pop\n      jump\t// out\n        /* \"#utility.yul\":12690:13815   */\n    tag_39:\n        /* \"#utility.yul\":12796:12802   */\n      0x00\n        /* \"#utility.yul\":12804:12810   */\n      0x00\n        /* \"#utility.yul\":12812:12818   */\n      0x00\n        /* \"#utility.yul\":12820:12826   */\n      0x00\n        /* \"#utility.yul\":12869:12872   */\n      0x80\n        /* \"#utility.yul\":12857:12866   */\n      dup6\n        /* \"#utility.yul\":12848:12855   */\n      dup8\n        /* \"#utility.yul\":12844:12867   */\n      sub\n        /* \"#utility.yul\":12840:12873   */\n      slt\n        /* \"#utility.yul\":12837:12957   */\n      iszero\n      tag_470\n      jumpi\n        /* \"#utility.yul\":12876:12955   */\n      tag_471\n      tag_249\n      jump\t// in\n    tag_471:\n        /* \"#utility.yul\":12837:12957   */\n    tag_470:\n        /* \"#utility.yul\":12996:12997   */\n      0x00\n        /* \"#utility.yul\":13021:13074   */\n      tag_472\n        /* \"#utility.yul\":13066:13073   */\n      dup8\n        /* \"#utility.yul\":13057:13063   */\n      dup3\n        /* \"#utility.yul\":13046:13055   */\n      dup9\n        /* \"#utility.yul\":13042:13064   */\n      add\n        /* \"#utility.yul\":13021:13074   */\n      tag_253\n      jump\t// in\n    tag_472:\n        /* \"#utility.yul\":13011:13074   */\n      swap5\n      pop\n        /* \"#utility.yul\":12967:13084   */\n      pop\n        /* \"#utility.yul\":13151:13153   */\n      0x20\n        /* \"#utility.yul\":13140:13149   */\n      dup6\n        /* \"#utility.yul\":13136:13154   */\n      add\n        /* \"#utility.yul\":13123:13155   */\n      calldataload\n        /* \"#utility.yul\":13182:13200   */\n      0xffffffffffffffff\n        /* \"#utility.yul\":13174:13180   */\n      dup2\n        /* \"#utility.yul\":13171:13201   */\n      gt\n        /* \"#utility.yul\":13168:13285   */\n      iszero\n      tag_473\n      jumpi\n        /* \"#utility.yul\":13204:13283   */\n      tag_474\n      tag_250\n      jump\t// in\n    tag_474:\n        /* \"#utility.yul\":13168:13285   */\n    tag_473:\n        /* \"#utility.yul\":13309:13372   */\n      tag_475\n        /* \"#utility.yul\":13364:13371   */\n      dup8\n        /* \"#utility.yul\":13355:13361   */\n      dup3\n        /* \"#utility.yul\":13344:13353   */\n      dup9\n        /* \"#utility.yul\":13340:13362   */\n      add\n        /* \"#utility.yul\":13309:13372   */\n      tag_286\n      jump\t// in\n    tag_475:\n        /* \"#utility.yul\":13299:13372   */\n      swap4\n      pop\n        /* \"#utility.yul\":13094:13382   */\n      pop\n        /* \"#utility.yul\":13421:13423   */\n      0x40\n        /* \"#utility.yul\":13447:13500   */\n      tag_476\n        /* \"#utility.yul\":13492:13499   */\n      dup8\n        /* \"#utility.yul\":13483:13489   */\n      dup3\n        /* \"#utility.yul\":13472:13481   */\n      dup9\n        /* \"#utility.yul\":13468:13490   */\n      add\n        /* \"#utility.yul\":13447:13500   */\n      tag_253\n      jump\t// in\n    tag_476:\n        /* \"#utility.yul\":13437:13500   */\n      swap3\n      pop\n        /* \"#utility.yul\":13392:13510   */\n      pop\n        /* \"#utility.yul\":13577:13579   */\n      0x60\n        /* \"#utility.yul\":13566:13575   */\n      dup6\n        /* \"#utility.yul\":13562:13580   */\n      add\n        /* \"#utility.yul\":13549:13581   */\n      calldataload\n        /* \"#utility.yul\":13608:13626   */\n      0xffffffffffffffff\n        /* \"#utility.yul\":13600:13606   */\n      dup2\n        /* \"#utility.yul\":13597:13627   */\n      gt\n        /* \"#utility.yul\":13594:13711   */\n      iszero\n      tag_477\n      jumpi\n        /* \"#utility.yul\":13630:13709   */\n      tag_478\n      tag_250\n      jump\t// in\n    tag_478:\n        /* \"#utility.yul\":13594:13711   */\n    tag_477:\n        /* \"#utility.yul\":13735:13798   */\n      tag_479\n        /* \"#utility.yul\":13790:13797   */\n      dup8\n        /* \"#utility.yul\":13781:13787   */\n      dup3\n        /* \"#utility.yul\":13770:13779   */\n      dup9\n        /* \"#utility.yul\":13766:13788   */\n      add\n        /* \"#utility.yul\":13735:13798   */\n      tag_286\n      jump\t// in\n    tag_479:\n        /* \"#utility.yul\":13725:13798   */\n      swap2\n      pop\n        /* \"#utility.yul\":13520:13808   */\n      pop\n        /* \"#utility.yul\":12690:13815   */\n      swap3\n      swap6\n      swap2\n      swap5\n      pop\n      swap3\n      pop\n      jump\t// out\n        /* \"#utility.yul\":13821:14043   */\n    tag_42:\n        /* \"#utility.yul\":13914:13918   */\n      0x00\n        /* \"#utility.yul\":13952:13954   */\n      0x20\n        /* \"#utility.yul\":13941:13950   */\n      dup3\n        /* \"#utility.yul\":13937:13955   */\n      add\n        /* \"#utility.yul\":13929:13955   */\n      swap1\n      pop\n        /* \"#utility.yul\":13965:14036   */\n      tag_481\n        /* \"#utility.yul\":14033:14034   */\n      0x00\n        /* \"#utility.yul\":14022:14031   */\n      dup4\n        /* \"#utility.yul\":14018:14035   */\n      add\n        /* \"#utility.yul\":14009:14015   */\n      dup5\n        /* \"#utility.yul\":13965:14036   */\n      tag_275\n      jump\t// in\n    tag_481:\n        /* \"#utility.yul\":13821:14043   */\n      swap3\n      swap2\n      pop\n      pop\n      jump\t// out\n        /* \"#utility.yul\":14049:14848   */\n    tag_45:\n        /* \"#utility.yul\":14136:14142   */\n      0x00\n        /* \"#utility.yul\":14144:14150   */\n      0x00\n        /* \"#utility.yul\":14152:14158   */\n      0x00\n        /* \"#utility.yul\":14201:14203   */\n      0x60\n        /* \"#utility.yul\":14189:14198   */\n      dup5\n        /* \"#utility.yul\":14180:14187   */\n      dup7\n        /* \"#utility.yul\":14176:14199   */\n      sub\n        /* \"#utility.yul\":14172:14204   */\n      slt\n        /* \"#utility.yul\":14169:14288   */\n      iszero\n      tag_483\n      jumpi\n        /* \"#utility.yul\":14207:14286   */\n      tag_484\n      tag_249\n      jump\t// in\n    tag_484:\n        /* \"#utility.yul\":14169:14288   */\n    tag_483:\n        /* \"#utility.yul\":14327:14328   */\n      0x00\n        /* \"#utility.yul\":14352:14405   */\n      tag_485\n        /* \"#utility.yul\":14397:14404   */\n      dup7\n        /* \"#utility.yul\":14388:14394   */\n      dup3\n        /* \"#utility.yul\":14377:14386   */\n      dup8\n        /* \"#utility.yul\":14373:14395   */\n      add\n        /* \"#utility.yul\":14352:14405   */\n      tag_253\n      jump\t// in\n    tag_485:\n        /* \"#utility.yul\":14342:14405   */\n      swap4\n      pop\n        /* \"#utility.yul\":14298:14415   */\n      pop\n        /* \"#utility.yul\":14482:14484   */\n      0x20\n        /* \"#utility.yul\":14471:14480   */\n      dup5\n        /* \"#utility.yul\":14467:14485   */\n      add\n        /* \"#utility.yul\":14454:14486   */\n      calldataload\n        /* \"#utility.yul\":14513:14531   */\n      0xffffffffffffffff\n        /* \"#utility.yul\":14505:14511   */\n      dup2\n        /* \"#utility.yul\":14502:14532   */\n      gt\n        /* \"#utility.yul\":14499:14616   */\n      iszero\n      tag_486\n      jumpi\n        /* \"#utility.yul\":14535:14614   */\n      tag_487\n      tag_250\n      jump\t// in\n    tag_487:\n        /* \"#utility.yul\":14499:14616   */\n    tag_486:\n        /* \"#utility.yul\":14640:14703   */\n      tag_488\n        /* \"#utility.yul\":14695:14702   */\n      dup7\n        /* \"#utility.yul\":14686:14692   */\n      dup3\n        /* \"#utility.yul\":14675:14684   */\n      dup8\n        /* \"#utility.yul\":14671:14693   */\n      add\n        /* \"#utility.yul\":14640:14703   */\n      tag_286\n      jump\t// in\n    tag_488:\n        /* \"#utility.yul\":14630:14703   */\n      swap3\n      pop\n        /* \"#utility.yul\":14425:14713   */\n      pop\n        /* \"#utility.yul\":14752:14754   */\n      0x40\n        /* \"#utility.yul\":14778:14831   */\n      tag_489\n        /* \"#utility.yul\":14823:14830   */\n      dup7\n        /* \"#utility.yul\":14814:14820   */\n      dup3\n        /* \"#utility.yul\":14803:14812   */\n      dup8\n        /* \"#utility.yul\":14799:14821   */\n      add\n        /* \"#utility.yul\":14778:14831   */\n      tag_253\n      jump\t// in\n    tag_489:\n        /* \"#utility.yul\":14768:14831   */\n      swap2\n      pop\n        /* \"#utility.yul\":14723:14841   */\n      pop\n        /* \"#utility.yul\":14049:14848   */\n      swap3\n      pop\n      swap3\n      pop\n      swap3\n      jump\t// out\n        /* \"#utility.yul\":14854:16591   */\n    tag_50:\n        /* \"#utility.yul\":14994:15000   */\n      0x00\n        /* \"#utility.yul\":15002:15008   */\n      0x00\n        /* \"#utility.yul\":15010:15016   */\n      0x00\n        /* \"#utility.yul\":15018:15024   */\n      0x00\n        /* \"#utility.yul\":15026:15032   */\n      0x00\n        /* \"#utility.yul\":15034:15040   */\n      0x00\n        /* \"#utility.yul\":15042:15048   */\n      0x00\n        /* \"#utility.yul\":15091:15094   */\n      0xe0\n        /* \"#utility.yul\":15079:15088   */\n      dup9\n        /* \"#utility.yul\":15070:15077   */\n      dup11\n        /* \"#utility.yul\":15066:15089   */\n      sub\n        /* \"#utility.yul\":15062:15095   */\n      slt\n        /* \"#utility.yul\":15059:15179   */\n      iszero\n      tag_491\n      jumpi\n        /* \"#utility.yul\":15098:15177   */\n      tag_492\n      tag_249\n      jump\t// in\n    tag_492:\n        /* \"#utility.yul\":15059:15179   */\n    tag_491:\n        /* \"#utility.yul\":15218:15219   */\n      0x00\n        /* \"#utility.yul\":15243:15296   */\n      tag_493\n        /* \"#utility.yul\":15288:15295   */\n      dup11\n        /* \"#utility.yul\":15279:15285   */\n      dup3\n        /* \"#utility.yul\":15268:15277   */\n      dup12\n        /* \"#utility.yul\":15264:15286   */\n      add\n        /* \"#utility.yul\":15243:15296   */\n      tag_253\n      jump\t// in\n    tag_493:\n        /* \"#utility.yul\":15233:15296   */\n      swap8\n      pop\n        /* \"#utility.yul\":15189:15306   */\n      pop\n        /* \"#utility.yul\":15373:15375   */\n      0x20\n        /* \"#utility.yul\":15362:15371   */\n      dup9\n        /* \"#utility.yul\":15358:15376   */\n      add\n        /* \"#utility.yul\":15345:15377   */\n      calldataload\n        /* \"#utility.yul\":15404:15422   */\n      0xffffffffffffffff\n        /* \"#utility.yul\":15396:15402   */\n      dup2\n        /* \"#utility.yul\":15393:15423   */\n      gt\n        /* \"#utility.yul\":15390:15507   */\n      iszero\n      tag_494\n      jumpi\n        /* \"#utility.yul\":15426:15505   */\n      tag_495\n      tag_250\n      jump\t// in\n    tag_495:\n        /* \"#utility.yul\":15390:15507   */\n    tag_494:\n        /* \"#utility.yul\":15531:15594   */\n      tag_496\n        /* \"#utility.yul\":15586:15593   */\n      dup11\n        /* \"#utility.yul\":15577:15583   */\n      dup3\n        /* \"#utility.yul\":15566:15575   */\n      dup12\n        /* \"#utility.yul\":15562:15584   */\n      add\n        /* \"#utility.yul\":15531:15594   */\n      tag_286\n      jump\t// in\n    tag_496:\n        /* \"#utility.yul\":15521:15594   */\n      swap7\n      pop\n        /* \"#utility.yul\":15316:15604   */\n      pop\n        /* \"#utility.yul\":15643:15645   */\n      0x40\n        /* \"#utility.yul\":15669:15722   */\n      tag_497\n        /* \"#utility.yul\":15714:15721   */\n      dup11\n        /* \"#utility.yul\":15705:15711   */\n      dup3\n        /* \"#utility.yul\":15694:15703   */\n      dup12\n        /* \"#utility.yul\":15690:15712   */\n      add\n        /* \"#utility.yul\":15669:15722   */\n      tag_253\n      jump\t// in\n    tag_497:\n        /* \"#utility.yul\":15659:15722   */\n      swap6\n      pop\n        /* \"#utility.yul\":15614:15732   */\n      pop\n        /* \"#utility.yul\":15799:15801   */\n      0x60\n        /* \"#utility.yul\":15788:15797   */\n      dup9\n        /* \"#utility.yul\":15784:15802   */\n      add\n        /* \"#utility.yul\":15771:15803   */\n      calldataload\n        /* \"#utility.yul\":15830:15848   */\n      0xffffffffffffffff\n        /* \"#utility.yul\":15822:15828   */\n      dup2\n        /* \"#utility.yul\":15819:15849   */\n      gt\n        /* \"#utility.yul\":15816:15933   */\n      iszero\n      tag_498\n      jumpi\n        /* \"#utility.yul\":15852:15931   */\n      tag_499\n      tag_250\n      jump\t// in\n    tag_499:\n        /* \"#utility.yul\":15816:15933   */\n    tag_498:\n        /* \"#utility.yul\":15957:16020   */\n      tag_500\n        /* \"#utility.yul\":16012:16019   */\n      dup11\n        /* \"#utility.yul\":16003:16009   */\n      dup3\n        /* \"#utility.yul\":15992:16001   */\n      dup12\n        /* \"#utility.yul\":15988:16010   */\n      add\n        /* \"#utility.yul\":15957:16020   */\n      tag_286\n      jump\t// in\n    tag_500:\n        /* \"#utility.yul\":15947:16020   */\n      swap5\n      pop\n        /* \"#utility.yul\":15742:16030   */\n      pop\n        /* \"#utility.yul\":16097:16100   */\n      0x80\n        /* \"#utility.yul\":16086:16095   */\n      dup9\n        /* \"#utility.yul\":16082:16101   */\n      add\n        /* \"#utility.yul\":16069:16102   */\n      calldataload\n        /* \"#utility.yul\":16129:16147   */\n      0xffffffffffffffff\n        /* \"#utility.yul\":16121:16127   */\n      dup2\n        /* \"#utility.yul\":16118:16148   */\n      gt\n        /* \"#utility.yul\":16115:16232   */\n      iszero\n      tag_501\n      jumpi\n        /* \"#utility.yul\":16151:16230   */\n      tag_502\n      tag_250\n      jump\t// in\n    tag_502:\n        /* \"#utility.yul\":16115:16232   */\n    tag_501:\n        /* \"#utility.yul\":16256:16319   */\n      tag_503\n        /* \"#utility.yul\":16311:16318   */\n      dup11\n        /* \"#utility.yul\":16302:16308   */\n      dup3\n        /* \"#utility.yul\":16291:16300   */\n      dup12\n        /* \"#utility.yul\":16287:16309   */\n      add\n        /* \"#utility.yul\":16256:16319   */\n      tag_286\n      jump\t// in\n    tag_503:\n        /* \"#utility.yul\":16246:16319   */\n      swap4\n      pop\n        /* \"#utility.yul\":16040:16329   */\n      pop\n        /* \"#utility.yul\":16368:16371   */\n      0xa0\n        /* \"#utility.yul\":16395:16448   */\n      tag_504\n        /* \"#utility.yul\":16440:16447   */\n      dup11\n        /* \"#utility.yul\":16431:16437   */\n      dup3\n        /* \"#utility.yul\":16420:16429   */\n      dup12\n        /* \"#utility.yul\":16416:16438   */\n      add\n        /* \"#utility.yul\":16395:16448   */\n      tag_253\n      jump\t// in\n    tag_504:\n        /* \"#utility.yul\":16385:16448   */\n      swap3\n      pop\n        /* \"#utility.yul\":16339:16458   */\n      pop\n        /* \"#utility.yul\":16497:16500   */\n      0xc0\n        /* \"#utility.yul\":16524:16574   */\n      tag_505\n        /* \"#utility.yul\":16566:16573   */\n      dup11\n        /* \"#utility.yul\":16557:16563   */\n      dup3\n        /* \"#utility.yul\":16546:16555   */\n      dup12\n        /* \"#utility.yul\":16542:16564   */\n      add\n        /* \"#utility.yul\":16524:16574   */\n      tag_256\n      jump\t// in\n    tag_505:\n        /* \"#utility.yul\":16514:16574   */\n      swap2\n      pop\n        /* \"#utility.yul\":16468:16584   */\n      pop\n        /* \"#utility.yul\":14854:16591   */\n      swap3\n      swap6\n      swap9\n      swap2\n      swap5\n      swap8\n      pop\n      swap3\n      swap6\n      pop\n      jump\t// out\n        /* \"#utility.yul\":16597:16768   */\n    tag_287:\n        /* \"#utility.yul\":16737:16760   */\n      0x5061727469636970616e74206e6f7420666f756e640000000000000000000000\n        /* \"#utility.yul\":16733:16734   */\n      0x00\n        /* \"#utility.yul\":16725:16731   */\n      dup3\n        /* \"#utility.yul\":16721:16735   */\n      add\n        /* \"#utility.yul\":16714:16761   */\n      mstore\n        /* \"#utility.yul\":16597:16768   */\n      pop\n      jump\t// out\n        /* \"#utility.yul\":16774:17140   */\n    tag_288:\n        /* \"#utility.yul\":16916:16919   */\n      0x00\n        /* \"#utility.yul\":16937:17004   */\n      tag_508\n        /* \"#utility.yul\":17001:17003   */\n      0x15\n        /* \"#utility.yul\":16996:16999   */\n      dup4\n        /* \"#utility.yul\":16937:17004   */\n      tag_276\n      jump\t// in\n    tag_508:\n        /* \"#utility.yul\":16930:17004   */\n      swap2\n      pop\n        /* \"#utility.yul\":17013:17106   */\n      tag_509\n        /* \"#utility.yul\":17102:17105   */\n      dup3\n        /* \"#utility.yul\":17013:17106   */\n      tag_287\n      jump\t// in\n    tag_509:\n        /* \"#utility.yul\":17131:17133   */\n      0x20\n        /* \"#utility.yul\":17126:17129   */\n      dup3\n        /* \"#utility.yul\":17122:17134   */\n      add\n        /* \"#utility.yul\":17115:17134   */\n      swap1\n      pop\n        /* \"#utility.yul\":16774:17140   */\n      swap2\n      swap1\n      pop\n      jump\t// out\n        /* \"#utility.yul\":17146:17565   */\n    tag_56:\n        /* \"#utility.yul\":17312:17316   */\n      0x00\n        /* \"#utility.yul\":17350:17352   */\n      0x20\n        /* \"#utility.yul\":17339:17348   */\n      dup3\n        /* \"#utility.yul\":17335:17353   */\n      add\n        /* \"#utility.yul\":17327:17353   */\n      swap1\n      pop\n        /* \"#utility.yul\":17399:17408   */\n      dup2\n        /* \"#utility.yul\":17393:17397   */\n      dup2\n        /* \"#utility.yul\":17389:17409   */\n      sub\n        /* \"#utility.yul\":17385:17386   */\n      0x00\n        /* \"#utility.yul\":17374:17383   */\n      dup4\n        /* \"#utility.yul\":17370:17387   */\n      add\n        /* \"#utility.yul\":17363:17410   */\n      mstore\n        /* \"#utility.yul\":17427:17558   */\n      tag_511\n        /* \"#utility.yul\":17553:17557   */\n      dup2\n        /* \"#utility.yul\":17427:17558   */\n      tag_288\n      jump\t// in\n    tag_511:\n        /* \"#utility.yul\":17419:17558   */\n      swap1\n      pop\n        /* \"#utility.yul\":17146:17565   */\n      swap2\n      swap1\n      pop\n      jump\t// out\n        /* \"#utility.yul\":17571:17746   */\n    tag_289:\n        /* \"#utility.yul\":17711:17738   */\n      0x496e76616c696420747261696e696e6720696e74657265737400000000000000\n        /* \"#utility.yul\":17707:17708   */\n      0x00\n        /* \"#utility.yul\":17699:17705   */\n      dup3\n        /* \"#utility.yul\":17695:17709   */\n      add\n        /* \"#utility.yul\":17688:17739   */\n      mstore\n        /* \"#utility.yul\":17571:17746   */\n      pop\n      jump\t// out\n        /* \"#utility.yul\":17752:18118   */\n    tag_290:\n        /* \"#utility.yul\":17894:17897   */\n      0x00\n        /* \"#utility.yul\":17915:17982   */\n      tag_514\n        /* \"#utility.yul\":17979:17981   */\n      0x19\n        /* \"#utility.yul\":17974:17977   */\n      dup4\n        /* \"#utility.yul\":17915:17982   */\n      tag_276\n      jump\t// in\n    tag_514:\n        /* \"#utility.yul\":17908:17982   */\n      swap2\n      pop\n        /* \"#utility.yul\":17991:18084   */\n      tag_515\n        /* \"#utility.yul\":18080:18083   */\n      dup3\n        /* \"#utility.yul\":17991:18084   */\n      tag_289\n      jump\t// in\n    tag_515:\n        /* \"#utility.yul\":18109:18111   */\n      0x20\n        /* \"#utility.yul\":18104:18107   */\n      dup3\n        /* \"#utility.yul\":18100:18112   */\n      add\n        /* \"#utility.yul\":18093:18112   */\n      swap1\n      pop\n        /* \"#utility.yul\":17752:18118   */\n      swap2\n      swap1\n      pop\n      jump\t// out\n        /* \"#utility.yul\":18124:18543   */\n    tag_59:\n        /* \"#utility.yul\":18290:18294   */\n      0x00\n        /* \"#utility.yul\":18328:18330   */\n      0x20\n        /* \"#utility.yul\":18317:18326   */\n      dup3\n        /* \"#utility.yul\":18313:18331   */\n      add\n        /* \"#utility.yul\":18305:18331   */\n      swap1\n      pop\n        /* \"#utility.yul\":18377:18386   */\n      dup2\n        /* \"#utility.yul\":18371:18375   */\n      dup2\n        /* \"#utility.yul\":18367:18387   */\n      sub\n        /* \"#utility.yul\":18363:18364   */\n      0x00\n        /* \"#utility.yul\":18352:18361   */\n      dup4\n        /* \"#utility.yul\":18348:18365   */\n      add\n        /* \"#utility.yul\":18341:18388   */\n      mstore\n        /* \"#utility.yul\":18405:18536   */\n      tag_517\n        /* \"#utility.yul\":18531:18535   */\n      dup2\n        /* \"#utility.yul\":18405:18536   */\n      tag_290\n      jump\t// in\n    tag_517:\n        /* \"#utility.yul\":18397:18536   */\n      swap1\n      pop\n        /* \"#utility.yul\":18124:18543   */\n      swap2\n      swap1\n      pop\n      jump\t// out\n        /* \"#utility.yul\":18549:18778   */\n    tag_291:\n        /* \"#utility.yul\":18689:18723   */\n      0x43616e6e6f74206368616e676520636f6d706c657465642066726f6d20747275\n        /* \"#utility.yul\":18685:18686   */\n      0x00\n        /* \"#utility.yul\":18677:18683   */\n      dup3\n        /* \"#utility.yul\":18673:18687   */\n      add\n        /* \"#utility.yul\":18666:18724   */\n      mstore\n        /* \"#utility.yul\":18758:18770   */\n      0x6520746f2066616c736500000000000000000000000000000000000000000000\n        /* \"#utility.yul\":18753:18755   */\n      0x20\n        /* \"#utility.yul\":18745:18751   */\n      dup3\n        /* \"#utility.yul\":18741:18756   */\n      add\n        /* \"#utility.yul\":18734:18771   */\n      mstore\n        /* \"#utility.yul\":18549:18778   */\n      pop\n      jump\t// out\n        /* \"#utility.yul\":18784:19150   */\n    tag_292:\n        /* \"#utility.yul\":18926:18929   */\n      0x00\n        /* \"#utility.yul\":18947:19014   */\n      tag_520\n        /* \"#utility.yul\":19011:19013   */\n      0x2a\n        /* \"#utility.yul\":19006:19009   */\n      dup4\n        /* \"#utility.yul\":18947:19014   */\n      tag_276\n      jump\t// in\n    tag_520:\n        /* \"#utility.yul\":18940:19014   */\n      swap2\n      pop\n        /* \"#utility.yul\":19023:19116   */\n      tag_521\n        /* \"#utility.yul\":19112:19115   */\n      dup3\n        /* \"#utility.yul\":19023:19116   */\n      tag_291\n      jump\t// in\n    tag_521:\n        /* \"#utility.yul\":19141:19143   */\n      0x40\n        /* \"#utility.yul\":19136:19139   */\n      dup3\n        /* \"#utility.yul\":19132:19144   */\n      add\n        /* \"#utility.yul\":19125:19144   */\n      swap1\n      pop\n        /* \"#utility.yul\":18784:19150   */\n      swap2\n      swap1\n      pop\n      jump\t// out\n        /* \"#utility.yul\":19156:19575   */\n    tag_63:\n        /* \"#utility.yul\":19322:19326   */\n      0x00\n        /* \"#utility.yul\":19360:19362   */\n      0x20\n        /* \"#utility.yul\":19349:19358   */\n      dup3\n        /* \"#utility.yul\":19345:19363   */\n      add\n        /* \"#utility.yul\":19337:19363   */\n      swap1\n      pop\n        /* \"#utility.yul\":19409:19418   */\n      dup2\n        /* \"#utility.yul\":19403:19407   */\n      dup2\n        /* \"#utility.yul\":19399:19419   */\n      sub\n        /* \"#utility.yul\":19395:19396   */\n      0x00\n        /* \"#utility.yul\":19384:19393   */\n      dup4\n        /* \"#utility.yul\":19380:19397   */\n      add\n        /* \"#utility.yul\":19373:19420   */\n      mstore\n        /* \"#utility.yul\":19437:19568   */\n      tag_523\n        /* \"#utility.yul\":19563:19567   */\n      dup2\n        /* \"#utility.yul\":19437:19568   */\n      tag_292\n      jump\t// in\n    tag_523:\n        /* \"#utility.yul\":19429:19568   */\n      swap1\n      pop\n        /* \"#utility.yul\":19156:19575   */\n      swap2\n      swap1\n      pop\n      jump\t// out\n        /* \"#utility.yul\":19581:19761   */\n    tag_66:\n        /* \"#utility.yul\":19629:19706   */\n      0x4e487b7100000000000000000000000000000000000000000000000000000000\n        /* \"#utility.yul\":19626:19627   */\n      0x00\n        /* \"#utility.yul\":19619:19707   */\n      mstore\n        /* \"#utility.yul\":19726:19730   */\n      0x21\n        /* \"#utility.yul\":19723:19724   */\n      0x04\n        /* \"#utility.yul\":19716:19731   */\n      mstore\n        /* \"#utility.yul\":19750:19754   */\n      0x24\n        /* \"#utility.yul\":19747:19748   */\n      0x00\n        /* \"#utility.yul\":19740:19755   */\n      revert\n        /* \"#utility.yul\":19767:19934   */\n    tag_293:\n        /* \"#utility.yul\":19907:19926   */\n      0x547261696e6572206e6f7420666f756e64000000000000000000000000000000\n        /* \"#utility.yul\":19903:19904   */\n      0x00\n        /* \"#utility.yul\":19895:19901   */\n      dup3\n        /* \"#utility.yul\":19891:19905   */\n      add\n        /* \"#utility.yul\":19884:19927   */\n      mstore\n        /* \"#utility.yul\":19767:19934   */\n      pop\n      jump\t// out\n        /* \"#utility.yul\":19940:20306   */\n    tag_294:\n        /* \"#utility.yul\":20082:20085   */\n      0x00\n        /* \"#utility.yul\":20103:20170   */\n      tag_527\n        /* \"#utility.yul\":20167:20169   */\n      0x11\n        /* \"#utility.yul\":20162:20165   */\n      dup4\n        /* \"#utility.yul\":20103:20170   */\n      tag_276\n      jump\t// in\n    tag_527:\n        /* \"#utility.yul\":20096:20170   */\n      swap2\n      pop\n        /* \"#utility.yul\":20179:20272   */\n      tag_528\n        /* \"#utility.yul\":20268:20271   */\n      dup3\n        /* \"#utility.yul\":20179:20272   */\n      tag_293\n      jump\t// in\n    tag_528:\n        /* \"#utility.yul\":20297:20299   */\n      0x20\n        /* \"#utility.yul\":20292:20295   */\n      dup3\n        /* \"#utility.yul\":20288:20300   */\n      add\n        /* \"#utility.yul\":20281:20300   */\n      swap1\n      pop\n        /* \"#utility.yul\":19940:20306   */\n      swap2\n      swap1\n      pop\n      jump\t// out\n        /* \"#utility.yul\":20312:20731   */\n    tag_72:\n        /* \"#utility.yul\":20478:20482   */\n      0x00\n        /* \"#utility.yul\":20516:20518   */\n      0x20\n        /* \"#utility.yul\":20505:20514   */\n      dup3\n        /* \"#utility.yul\":20501:20519   */\n      add\n        /* \"#utility.yul\":20493:20519   */\n      swap1\n      pop\n        /* \"#utility.yul\":20565:20574   */\n      dup2\n        /* \"#utility.yul\":20559:20563   */\n      dup2\n        /* \"#utility.yul\":20555:20575   */\n      sub\n        /* \"#utility.yul\":20551:20552   */\n      0x00\n        /* \"#utility.yul\":20540:20549   */\n      dup4\n        /* \"#utility.yul\":20536:20553   */\n      add\n        /* \"#utility.yul\":20529:20576   */\n      mstore\n        /* \"#utility.yul\":20593:20724   */\n      tag_530\n        /* \"#utility.yul\":20719:20723   */\n      dup2\n        /* \"#utility.yul\":20593:20724   */\n      tag_294\n      jump\t// in\n    tag_530:\n        /* \"#utility.yul\":20585:20724   */\n      swap1\n      pop\n        /* \"#utility.yul\":20312:20731   */\n      swap2\n      swap1\n      pop\n      jump\t// out\n        /* \"#utility.yul\":20737:20917   */\n    tag_295:\n        /* \"#utility.yul\":20785:20862   */\n      0x4e487b7100000000000000000000000000000000000000000000000000000000\n        /* \"#utility.yul\":20782:20783   */\n      0x00\n        /* \"#utility.yul\":20775:20863   */\n      mstore\n        /* \"#utility.yul\":20882:20886   */\n      0x11\n        /* \"#utility.yul\":20879:20880   */\n      0x04\n        /* \"#utility.yul\":20872:20887   */\n      mstore\n        /* \"#utility.yul\":20906:20910   */\n      0x24\n        /* \"#utility.yul\":20903:20904   */\n      0x00\n        /* \"#utility.yul\":20896:20911   */\n      revert\n        /* \"#utility.yul\":20923:21156   */\n    tag_78:\n        /* \"#utility.yul\":20962:20965   */\n      0x00\n        /* \"#utility.yul\":20985:21009   */\n      tag_533\n        /* \"#utility.yul\":21003:21008   */\n      dup3\n        /* \"#utility.yul\":20985:21009   */\n      tag_251\n      jump\t// in\n    tag_533:\n        /* \"#utility.yul\":20976:21009   */\n      swap2\n      pop\n        /* \"#utility.yul\":21031:21097   */\n      0xffffffffffffffffffffffffffffffffffffffffffffffffffffffffffffffff\n        /* \"#utility.yul\":21024:21029   */\n      dup3\n        /* \"#utility.yul\":21021:21098   */\n      sub\n        /* \"#utility.yul\":21018:21121   */\n      tag_534\n      jumpi\n        /* \"#utility.yul\":21101:21119   */\n      tag_535\n      tag_295\n      jump\t// in\n    tag_535:\n        /* \"#utility.yul\":21018:21121   */\n    tag_534:\n        /* \"#utility.yul\":21148:21149   */\n      0x01\n        /* \"#utility.yul\":21141:21146   */\n      dup3\n        /* \"#utility.yul\":21137:21150   */\n      add\n        /* \"#utility.yul\":21130:21150   */\n      swap1\n      pop\n        /* \"#utility.yul\":20923:21156   */\n      swap2\n      swap1\n      pop\n      jump\t// out\n        /* \"#utility.yul\":21162:21342   */\n    tag_93:\n        /* \"#utility.yul\":21210:21287   */\n      0x4e487b7100000000000000000000000000000000000000000000000000000000\n        /* \"#utility.yul\":21207:21208   */\n      0x00\n        /* \"#utility.yul\":21200:21288   */\n      mstore\n        /* \"#utility.yul\":21307:21311   */\n      0x32\n        /* \"#utility.yul\":21304:21305   */\n      0x04\n        /* \"#utility.yul\":21297:21312   */\n      mstore\n        /* \"#utility.yul\":21331:21335   */\n      0x24\n        /* \"#utility.yul\":21328:21329   */\n      0x00\n        /* \"#utility.yul\":21321:21336   */\n      revert\n        /* \"#utility.yul\":21348:21528   */\n    tag_296:\n        /* \"#utility.yul\":21396:21473   */\n      0x4e487b7100000000000000000000000000000000000000000000000000000000\n        /* \"#utility.yul\":21393:21394   */\n      0x00\n        /* \"#utility.yul\":21386:21474   */\n      mstore\n        /* \"#utility.yul\":21493:21497   */\n      0x12\n        /* \"#utility.yul\":21490:21491   */\n      0x04\n        /* \"#utility.yul\":21483:21498   */\n      mstore\n        /* \"#utility.yul\":21517:21521   */\n      0x24\n        /* \"#utility.yul\":21514:21515   */\n      0x00\n        /* \"#utility.yul\":21507:21522   */\n      revert\n        /* \"#utility.yul\":21534:21719   */\n    tag_95:\n        /* \"#utility.yul\":21574:21575   */\n      0x00\n        /* \"#utility.yul\":21591:21611   */\n      tag_539\n        /* \"#utility.yul\":21609:21610   */\n      dup3\n        /* \"#utility.yul\":21591:21611   */\n      tag_251\n      jump\t// in\n    tag_539:\n        /* \"#utility.yul\":21586:21611   */\n      swap2\n      pop\n        /* \"#utility.yul\":21625:21645   */\n      tag_540\n        /* \"#utility.yul\":21643:21644   */\n      dup4\n        /* \"#utility.yul\":21625:21645   */\n      tag_251\n      jump\t// in\n    tag_540:\n        /* \"#utility.yul\":21620:21645   */\n      swap3\n      pop\n        /* \"#utility.yul\":21664:21665   */\n      dup3\n        /* \"#utility.yul\":21654:21689   */\n      tag_541\n      jumpi\n        /* \"#utility.yul\":21669:21687   */\n      tag_542\n      tag_296\n      jump\t// in\n    tag_542:\n        /* \"#utility.yul\":21654:21689   */\n    tag_541:\n        /* \"#utility.yul\":21711:21712   */\n      dup3\n        /* \"#utility.yul\":21708:21709   */\n      dup3\n        /* \"#utility.yul\":21704:21713   */\n      div\n        /* \"#utility.yul\":21699:21713   */\n      swap1\n      pop\n        /* \"#utility.yul\":21534:21719   */\n      swap3\n      swap2\n      pop\n      pop\n      jump\t// out\n        /* \"#utility.yul\":21725:21901   */\n    tag_97:\n        /* \"#utility.yul\":21757:21758   */\n      0x00\n        /* \"#utility.yul\":21774:21794   */\n      tag_544\n        /* \"#utility.yul\":21792:21793   */\n      dup3\n        /* \"#utility.yul\":21774:21794   */\n      tag_251\n      jump\t// in\n    tag_544:\n        /* \"#utility.yul\":21769:21794   */\n      swap2\n      pop\n        /* \"#utility.yul\":21808:21828   */\n      tag_545\n        /* \"#utility.yul\":21826:21827   */\n      dup4\n        /* \"#utility.yul\":21808:21828   */\n      tag_251\n      jump\t// in\n    tag_545:\n        /* \"#utility.yul\":21803:21828   */\n      swap3\n      pop\n        /* \"#utility.yul\":21847:21848   */\n      dup3\n        /* \"#utility.yul\":21837:21872   */\n      tag_546\n      jumpi\n        /* \"#utility.yul\":21852:21870   */\n      tag_547\n      tag_296\n      jump\t// in\n    tag_547:\n        /* \"#utility.yul\":21837:21872   */\n    tag_546:\n        /* \"#utility.yul\":21893:21894   */\n      dup3\n        /* \"#utility.yul\":21890:21891   */\n      dup3\n        /* \"#utility.yul\":21886:21895   */\n      mod\n        /* \"#utility.yul\":21881:21895   */\n      swap1\n      pop\n        /* \"#utility.yul\":21725:21901   */\n      swap3\n      swap2\n      pop\n      pop\n      jump\t// out\n        /* \"#utility.yul\":21907:22317   */\n    tag_99:\n        /* \"#utility.yul\":21947:21954   */\n      0x00\n        /* \"#utility.yul\":21970:21990   */\n      tag_549\n        /* \"#utility.yul\":21988:21989   */\n      dup3\n        /* \"#utility.yul\":21970:21990   */\n      tag_251\n      jump\t// in\n    tag_549:\n        /* \"#utility.yul\":21965:21990   */\n      swap2\n      pop\n        /* \"#utility.yul\":22004:22024   */\n      tag_550\n        /* \"#utility.yul\":22022:22023   */\n      dup4\n        /* \"#utility.yul\":22004:22024   */\n      tag_251\n      jump\t// in\n    tag_550:\n        /* \"#utility.yul\":21999:22024   */\n      swap3\n      pop\n        /* \"#utility.yul\":22059:22060   */\n      dup3\n        /* \"#utility.yul\":22056:22057   */\n      dup3\n        /* \"#utility.yul\":22052:22061   */\n      mul\n        /* \"#utility.yul\":22081:22111   */\n      tag_551\n        /* \"#utility.yul\":22099:22110   */\n      dup2\n        /* \"#utility.yul\":22081:22111   */\n      tag_251\n      jump\t// in\n    tag_551:\n        /* \"#utility.yul\":22070:22111   */\n      swap2\n      pop\n        /* \"#utility.yul\":22260:22261   */\n      dup3\n        /* \"#utility.yul\":22251:22258   */\n      dup3\n        /* \"#utility.yul\":22247:22262   */\n      div\n        /* \"#utility.yul\":22244:22245   */\n      dup5\n        /* \"#utility.yul\":22241:22263   */\n      eq\n        /* \"#utility.yul\":22221:22222   */\n      dup4\n        /* \"#utility.yul\":22214:22223   */\n      iszero\n        /* \"#utility.yul\":22194:22277   */\n      or\n        /* \"#utility.yul\":22171:22310   */\n      tag_552\n      jumpi\n        /* \"#utility.yul\":22290:22308   */\n      tag_553\n      tag_295\n      jump\t// in\n    tag_553:\n        /* \"#utility.yul\":22171:22310   */\n    tag_552:\n        /* \"#utility.yul\":21955:22317   */\n      pop\n        /* \"#utility.yul\":21907:22317   */\n      swap3\n      swap2\n      pop\n      pop\n      jump\t// out\n        /* \"#utility.yul\":22323:22514   */\n    tag_101:\n        /* \"#utility.yul\":22363:22366   */\n      0x00\n        /* \"#utility.yul\":22382:22402   */\n      tag_555\n        /* \"#utility.yul\":22400:22401   */\n      dup3\n        /* \"#utility.yul\":22382:22402   */\n      tag_251\n      jump\t// in\n    tag_555:\n        /* \"#utility.yul\":22377:22402   */\n      swap2\n      pop\n        /* \"#utility.yul\":22416:22436   */\n      tag_556\n        /* \"#utility.yul\":22434:22435   */\n      dup4\n        /* \"#utility.yul\":22416:22436   */\n      tag_251\n      jump\t// in\n    tag_556:\n        /* \"#utility.yul\":22411:22436   */\n      swap3\n      pop\n        /* \"#utility.yul\":22459:22460   */\n      dup3\n        /* \"#utility.yul\":22456:22457   */\n      dup3\n        /* \"#utility.yul\":22452:22461   */\n      add\n        /* \"#utility.yul\":22445:22461   */\n      swap1\n      pop\n        /* \"#utility.yul\":22480:22483   */\n      dup1\n        /* \"#utility.yul\":22477:22478   */\n      dup3\n        /* \"#utility.yul\":22474:22484   */\n      gt\n        /* \"#utility.yul\":22471:22507   */\n      iszero\n      tag_557\n      jumpi\n        /* \"#utility.yul\":22487:22505   */\n      tag_558\n      tag_295\n      jump\t// in\n    tag_558:\n        /* \"#utility.yul\":22471:22507   */\n    tag_557:\n        /* \"#utility.yul\":22323:22514   */\n      swap3\n      swap2\n      pop\n      pop\n      jump\t// out\n        /* \"#utility.yul\":22520:22668   */\n    tag_297:\n        /* \"#utility.yul\":22622:22633   */\n      0x00\n        /* \"#utility.yul\":22659:22662   */\n      dup2\n        /* \"#utility.yul\":22644:22662   */\n      swap1\n      pop\n        /* \"#utility.yul\":22520:22668   */\n      swap3\n      swap2\n      pop\n      pop\n      jump\t// out\n        /* \"#utility.yul\":22674:23064   */\n    tag_298:\n        /* \"#utility.yul\":22780:22783   */\n      0x00\n        /* \"#utility.yul\":22808:22847   */\n      tag_561\n        /* \"#utility.yul\":22841:22846   */\n      dup3\n        /* \"#utility.yul\":22808:22847   */\n      tag_267\n      jump\t// in\n    tag_561:\n        /* \"#utility.yul\":22863:22952   */\n      tag_562\n        /* \"#utility.yul\":22945:22951   */\n      dup2\n        /* \"#utility.yul\":22940:22943   */\n      dup6\n        /* \"#utility.yul\":22863:22952   */\n      tag_297\n      jump\t// in\n    tag_562:\n        /* \"#utility.yul\":22856:22952   */\n      swap4\n      pop\n        /* \"#utility.yul\":22961:23026   */\n      tag_563\n        /* \"#utility.yul\":23019:23025   */\n      dup2\n        /* \"#utility.yul\":23014:23017   */\n      dup6\n        /* \"#utility.yul\":23007:23011   */\n      0x20\n        /* \"#utility.yul\":23000:23005   */\n      dup7\n        /* \"#utility.yul\":22996:23012   */\n      add\n        /* \"#utility.yul\":22961:23026   */\n      tag_269\n      jump\t// in\n    tag_563:\n        /* \"#utility.yul\":23051:23057   */\n      dup1\n        /* \"#utility.yul\":23046:23049   */\n      dup5\n        /* \"#utility.yul\":23042:23058   */\n      add\n        /* \"#utility.yul\":23035:23058   */\n      swap2\n      pop\n        /* \"#utility.yul\":22784:23064   */\n      pop\n        /* \"#utility.yul\":22674:23064   */\n      swap3\n      swap2\n      pop\n      pop\n      jump\t// out\n        /* \"#utility.yul\":23070:23221   */\n    tag_299:\n        /* \"#utility.yul\":23210:23213   */\n      0x3a00000000000000000000000000000000000000000000000000000000000000\n        /* \"#utility.yul\":23206:23207   */\n      0x00\n        /* \"#utility.yul\":23198:23204   */\n      dup3\n        /* \"#utility.yul\":23194:23208   */\n      add\n        /* \"#utility.yul\":23187:23214   */\n      mstore\n        /* \"#utility.yul\":23070:23221   */\n      pop\n      jump\t// out\n        /* \"#utility.yul\":23227:23627   */\n    tag_300:\n        /* \"#utility.yul\":23387:23390   */\n      0x00\n        /* \"#utility.yul\":23408:23492   */\n      tag_566\n        /* \"#utility.yul\":23490:23491   */\n      0x01\n        /* \"#utility.yul\":23485:23488   */\n      dup4\n        /* \"#utility.yul\":23408:23492   */\n      tag_297\n      jump\t// in\n    tag_566:\n        /* \"#utility.yul\":23401:23492   */\n      swap2\n      pop\n        /* \"#utility.yul\":23501:23594   */\n      tag_567\n        /* \"#utility.yul\":23590:23593   */\n      dup3\n        /* \"#utility.yul\":23501:23594   */\n      tag_299\n      jump\t// in\n    tag_567:\n        /* \"#utility.yul\":23619:23620   */\n      0x01\n        /* \"#utility.yul\":23614:23617   */\n      dup3\n        /* \"#utility.yul\":23610:23621   */\n      add\n        /* \"#utility.yul\":23603:23621   */\n      swap1\n      pop\n        /* \"#utility.yul\":23227:23627   */\n      swap2\n      swap1\n      pop\n      jump\t// out\n        /* \"#utility.yul\":23633:23784   */\n    tag_301:\n        /* \"#utility.yul\":23773:23776   */\n      0x2d00000000000000000000000000000000000000000000000000000000000000\n        /* \"#utility.yul\":23769:23770   */\n      0x00\n        /* \"#utility.yul\":23761:23767   */\n      dup3\n        /* \"#utility.yul\":23757:23771   */\n      add\n        /* \"#utility.yul\":23750:23777   */\n      mstore\n        /* \"#utility.yul\":23633:23784   */\n      pop\n      jump\t// out\n        /* \"#utility.yul\":23790:24190   */\n    tag_302:\n        /* \"#utility.yul\":23950:23953   */\n      0x00\n        /* \"#utility.yul\":23971:24055   */\n      tag_570\n        /* \"#utility.yul\":24053:24054   */\n      0x01\n        /* \"#utility.yul\":24048:24051   */\n      dup4\n        /* \"#utility.yul\":23971:24055   */\n      tag_297\n      jump\t// in\n    tag_570:\n        /* \"#utility.yul\":23964:24055   */\n      swap2\n      pop\n        /* \"#utility.yul\":24064:24157   */\n      tag_571\n        /* \"#utility.yul\":24153:24156   */\n      dup3\n        /* \"#utility.yul\":24064:24157   */\n      tag_301\n      jump\t// in\n    tag_571:\n        /* \"#utility.yul\":24182:24183   */\n      0x01\n        /* \"#utility.yul\":24177:24180   */\n      dup3\n        /* \"#utility.yul\":24173:24184   */\n      add\n        /* \"#utility.yul\":24166:24184   */\n      swap1\n      pop\n        /* \"#utility.yul\":23790:24190   */\n      swap2\n      swap1\n      pop\n      jump\t// out\n        /* \"#utility.yul\":24196:25749   */\n    tag_112:\n        /* \"#utility.yul\":24775:24778   */\n      0x00\n        /* \"#utility.yul\":24797:24892   */\n      tag_573\n        /* \"#utility.yul\":24888:24891   */\n      dup3\n        /* \"#utility.yul\":24879:24885   */\n      dup8\n        /* \"#utility.yul\":24797:24892   */\n      tag_298\n      jump\t// in\n    tag_573:\n        /* \"#utility.yul\":24790:24892   */\n      swap2\n      pop\n        /* \"#utility.yul\":24909:25057   */\n      tag_574\n        /* \"#utility.yul\":25053:25056   */\n      dup3\n        /* \"#utility.yul\":24909:25057   */\n      tag_300\n      jump\t// in\n    tag_574:\n        /* \"#utility.yul\":24902:25057   */\n      swap2\n      pop\n        /* \"#utility.yul\":25074:25169   */\n      tag_575\n        /* \"#utility.yul\":25165:25168   */\n      dup3\n        /* \"#utility.yul\":25156:25162   */\n      dup7\n        /* \"#utility.yul\":25074:25169   */\n      tag_298\n      jump\t// in\n    tag_575:\n        /* \"#utility.yul\":25067:25169   */\n      swap2\n      pop\n        /* \"#utility.yul\":25186:25334   */\n      tag_576\n        /* \"#utility.yul\":25330:25333   */\n      dup3\n        /* \"#utility.yul\":25186:25334   */\n      tag_302\n      jump\t// in\n    tag_576:\n        /* \"#utility.yul\":25179:25334   */\n      swap2\n      pop\n        /* \"#utility.yul\":25351:25446   */\n      tag_577\n        /* \"#utility.yul\":25442:25445   */\n      dup3\n        /* \"#utility.yul\":25433:25439   */\n      dup6\n        /* \"#utility.yul\":25351:25446   */\n      tag_298\n      jump\t// in\n    tag_577:\n        /* \"#utility.yul\":25344:25446   */\n      swap2\n      pop\n        /* \"#utility.yul\":25463:25611   */\n      tag_578\n        /* \"#utility.yul\":25607:25610   */\n      dup3\n        /* \"#utility.yul\":25463:25611   */\n      tag_300\n      jump\t// in\n    tag_578:\n        /* \"#utility.yul\":25456:25611   */\n      swap2\n      pop\n        /* \"#utility.yul\":25628:25723   */\n      tag_579\n        /* \"#utility.yul\":25719:25722   */\n      dup3\n        /* \"#utility.yul\":25710:25716   */\n      dup5\n        /* \"#utility.yul\":25628:25723   */\n      tag_298\n      jump\t// in\n    tag_579:\n        /* \"#utility.yul\":25621:25723   */\n      swap2\n      pop\n        /* \"#utility.yul\":25740:25743   */\n      dup2\n        /* \"#utility.yul\":25733:25743   */\n      swap1\n      pop\n        /* \"#utility.yul\":24196:25749   */\n      swap6\n      swap5\n      pop\n      pop\n      pop\n      pop\n      pop\n      jump\t// out\n        /* \"#utility.yul\":25755:25935   */\n    tag_303:\n        /* \"#utility.yul\":25803:25880   */\n      0x4e487b7100000000000000000000000000000000000000000000000000000000\n        /* \"#utility.yul\":25800:25801   */\n      0x00\n        /* \"#utility.yul\":25793:25881   */\n      mstore\n        /* \"#utility.yul\":25900:25904   */\n      0x22\n        /* \"#utility.yul\":25897:25898   */\n      0x04\n        /* \"#utility.yul\":25890:25905   */\n      mstore\n        /* \"#utility.yul\":25924:25928   */\n      0x24\n        /* \"#utility.yul\":25921:25922   */\n      0x00\n        /* \"#utility.yul\":25914:25929   */\n      revert\n        /* \"#utility.yul\":25941:26261   */\n    tag_138:\n        /* \"#utility.yul\":25985:25991   */\n      0x00\n        /* \"#utility.yul\":26022:26023   */\n      0x02\n        /* \"#utility.yul\":26016:26020   */\n      dup3\n        /* \"#utility.yul\":26012:26024   */\n      div\n        /* \"#utility.yul\":26002:26024   */\n      swap1\n      pop\n        /* \"#utility.yul\":26069:26070   */\n      0x01\n        /* \"#utility.yul\":26063:26067   */\n      dup3\n        /* \"#utility.yul\":26059:26071   */\n      and\n        /* \"#utility.yul\":26090:26108   */\n      dup1\n        /* \"#utility.yul\":26080:26161   */\n      tag_582\n      jumpi\n        /* \"#utility.yul\":26146:26150   */\n      0x7f\n        /* \"#utility.yul\":26138:26144   */\n      dup3\n        /* \"#utility.yul\":26134:26151   */\n      and\n        /* \"#utility.yul\":26124:26151   */\n      swap2\n      pop\n        /* \"#utility.yul\":26080:26161   */\n    tag_582:\n        /* \"#utility.yul\":26208:26210   */\n      0x20\n        /* \"#utility.yul\":26200:26206   */\n      dup3\n        /* \"#utility.yul\":26197:26211   */\n      lt\n        /* \"#utility.yul\":26177:26195   */\n      dup2\n        /* \"#utility.yul\":26174:26212   */\n      sub\n        /* \"#utility.yul\":26171:26255   */\n      tag_583\n      jumpi\n        /* \"#utility.yul\":26227:26245   */\n      tag_584\n      tag_303\n      jump\t// in\n    tag_584:\n        /* \"#utility.yul\":26171:26255   */\n    tag_583:\n        /* \"#utility.yul\":25992:26261   */\n      pop\n        /* \"#utility.yul\":25941:26261   */\n      swap2\n      swap1\n      pop\n      jump\t// out\n        /* \"#utility.yul\":26267:26449   */\n    tag_304:\n        /* \"#utility.yul\":26407:26441   */\n      0x496e73756666696369656e74207061727469636970616e742062616c616e6365\n        /* \"#utility.yul\":26403:26404   */\n      0x00\n        /* \"#utility.yul\":26395:26401   */\n      dup3\n        /* \"#utility.yul\":26391:26405   */\n      add\n        /* \"#utility.yul\":26384:26442   */\n      mstore\n        /* \"#utility.yul\":26267:26449   */\n      pop\n      jump\t// out\n        /* \"#utility.yul\":26455:26821   */\n    tag_305:\n        /* \"#utility.yul\":26597:26600   */\n      0x00\n        /* \"#utility.yul\":26618:26685   */\n      tag_587\n        /* \"#utility.yul\":26682:26684   */\n      0x20\n        /* \"#utility.yul\":26677:26680   */\n      dup4\n        /* \"#utility.yul\":26618:26685   */\n      tag_276\n      jump\t// in\n    tag_587:\n        /* \"#utility.yul\":26611:26685   */\n      swap2\n      pop\n        /* \"#utility.yul\":26694:26787   */\n      tag_588\n        /* \"#utility.yul\":26783:26786   */\n      dup3\n        /* \"#utility.yul\":26694:26787   */\n      tag_304\n      jump\t// in\n    tag_588:\n        /* \"#utility.yul\":26812:26814   */\n      0x20\n        /* \"#utility.yul\":26807:26810   */\n      dup3\n        /* \"#utility.yul\":26803:26815   */\n      add\n        /* \"#utility.yul\":26796:26815   */\n      swap1\n      pop\n        /* \"#utility.yul\":26455:26821   */\n      swap2\n      swap1\n      pop\n      jump\t// out\n        /* \"#utility.yul\":26827:27246   */\n    tag_166:\n        /* \"#utility.yul\":26993:26997   */\n      0x00\n        /* \"#utility.yul\":27031:27033   */\n      0x20\n        /* \"#utility.yul\":27020:27029   */\n      dup3\n        /* \"#utility.yul\":27016:27034   */\n      add\n        /* \"#utility.yul\":27008:27034   */\n      swap1\n      pop\n        /* \"#utility.yul\":27080:27089   */\n      dup2\n        /* \"#utility.yul\":27074:27078   */\n      dup2\n        /* \"#utility.yul\":27070:27090   */\n      sub\n        /* \"#utility.yul\":27066:27067   */\n      0x00\n        /* \"#utility.yul\":27055:27064   */\n      dup4\n        /* \"#utility.yul\":27051:27068   */\n      add\n        /* \"#utility.yul\":27044:27091   */\n      mstore\n        /* \"#utility.yul\":27108:27239   */\n      tag_590\n        /* \"#utility.yul\":27234:27238   */\n      dup2\n        /* \"#utility.yul\":27108:27239   */\n      tag_305\n      jump\t// in\n    tag_590:\n        /* \"#utility.yul\":27100:27239   */\n      swap1\n      pop\n        /* \"#utility.yul\":26827:27246   */\n      swap2\n      swap1\n      pop\n      jump\t// out\n        /* \"#utility.yul\":27252:27421   */\n    tag_306:\n        /* \"#utility.yul\":27392:27413   */\n      0x4e6f2061646d696e7320617661696c61626c6500000000000000000000000000\n        /* \"#utility.yul\":27388:27389   */\n      0x00\n        /* \"#utility.yul\":27380:27386   */\n      dup3\n        /* \"#utility.yul\":27376:27390   */\n      add\n        /* \"#utility.yul\":27369:27414   */\n      mstore\n        /* \"#utility.yul\":27252:27421   */\n      pop\n      jump\t// out\n        /* \"#utility.yul\":27427:27793   */\n    tag_307:\n        /* \"#utility.yul\":27569:27572   */\n      0x00\n        /* \"#utility.yul\":27590:27657   */\n      tag_593\n        /* \"#utility.yul\":27654:27656   */\n      0x13\n        /* \"#utility.yul\":27649:27652   */\n      dup4\n        /* \"#utility.yul\":27590:27657   */\n      tag_276\n      jump\t// in\n    tag_593:\n        /* \"#utility.yul\":27583:27657   */\n      swap2\n      pop\n        /* \"#utility.yul\":27666:27759   */\n      tag_594\n        /* \"#utility.yul\":27755:27758   */\n      dup3\n        /* \"#utility.yul\":27666:27759   */\n      tag_306\n      jump\t// in\n    tag_594:\n        /* \"#utility.yul\":27784:27786   */\n      0x20\n        /* \"#utility.yul\":27779:27782   */\n      dup3\n        /* \"#utility.yul\":27775:27787   */\n      add\n        /* \"#utility.yul\":27768:27787   */\n      swap1\n      pop\n        /* \"#utility.yul\":27427:27793   */\n      swap2\n      swap1\n      pop\n      jump\t// out\n        /* \"#utility.yul\":27799:28218   */\n    tag_169:\n        /* \"#utility.yul\":27965:27969   */\n      0x00\n        /* \"#utility.yul\":28003:28005   */\n      0x20\n        /* \"#utility.yul\":27992:28001   */\n      dup3\n        /* \"#utility.yul\":27988:28006   */\n      add\n        /* \"#utility.yul\":27980:28006   */\n      swap1\n      pop\n        /* \"#utility.yul\":28052:28061   */\n      dup2\n        /* \"#utility.yul\":28046:28050   */\n      dup2\n        /* \"#utility.yul\":28042:28062   */\n      sub\n        /* \"#utility.yul\":28038:28039   */\n      0x00\n        /* \"#utility.yul\":28027:28036   */\n      dup4\n        /* \"#utility.yul\":28023:28040   */\n      add\n        /* \"#utility.yul\":28016:28063   */\n      mstore\n        /* \"#utility.yul\":28080:28211   */\n      tag_596\n        /* \"#utility.yul\":28206:28210   */\n      dup2\n        /* \"#utility.yul\":28080:28211   */\n      tag_307\n      jump\t// in\n    tag_596:\n        /* \"#utility.yul\":28072:28211   */\n      swap1\n      pop\n        /* \"#utility.yul\":27799:28218   */\n      swap2\n      swap1\n      pop\n      jump\t// out\n        /* \"#utility.yul\":28224:28389   */\n    tag_308:\n        /* \"#utility.yul\":28364:28381   */\n      0x496e76616c696420736c6f742049440000000000000000000000000000000000\n        /* \"#utility.yul\":28360:28361   */\n      0x00\n        /* \"#utility.yul\":28352:28358   */\n      dup3\n        /* \"#utility.yul\":28348:28362   */\n      add\n        /* \"#utility.yul\":28341:28382   */\n      mstore\n        /* \"#utility.yul\":28224:28389   */\n      pop\n      jump\t// out\n        /* \"#utility.yul\":28395:28761   */\n    tag_309:\n        /* \"#utility.yul\":28537:28540   */\n      0x00\n        /* \"#utility.yul\":28558:28625   */\n      tag_599\n        /* \"#utility.yul\":28622:28624   */\n      0x0f\n        /* \"#utility.yul\":28617:28620   */\n      dup4\n        /* \"#utility.yul\":28558:28625   */\n      tag_276\n      jump\t// in\n    tag_599:\n        /* \"#utility.yul\":28551:28625   */\n      swap2\n      pop\n        /* \"#utility.yul\":28634:28727   */\n      tag_600\n        /* \"#utility.yul\":28723:28726   */\n      dup3\n        /* \"#utility.yul\":28634:28727   */\n      tag_308\n      jump\t// in\n    tag_600:\n        /* \"#utility.yul\":28752:28754   */\n      0x20\n        /* \"#utility.yul\":28747:28750   */\n      dup3\n        /* \"#utility.yul\":28743:28755   */\n      add\n        /* \"#utility.yul\":28736:28755   */\n      swap1\n      pop\n        /* \"#utility.yul\":28395:28761   */\n      swap2\n      swap1\n      pop\n      jump\t// out\n        /* \"#utility.yul\":28767:29186   */\n    tag_172:\n        /* \"#utility.yul\":28933:28937   */\n      0x00\n        /* \"#utility.yul\":28971:28973   */\n      0x20\n        /* \"#utility.yul\":28960:28969   */\n      dup3\n        /* \"#utility.yul\":28956:28974   */\n      add\n        /* \"#utility.yul\":28948:28974   */\n      swap1\n      pop\n        /* \"#utility.yul\":29020:29029   */\n      dup2\n        /* \"#utility.yul\":29014:29018   */\n      dup2\n        /* \"#utility.yul\":29010:29030   */\n      sub\n        /* \"#utility.yul\":29006:29007   */\n      0x00\n        /* \"#utility.yul\":28995:29004   */\n      dup4\n        /* \"#utility.yul\":28991:29008   */\n      add\n        /* \"#utility.yul\":28984:29031   */\n      mstore\n        /* \"#utility.yul\":29048:29179   */\n      tag_602\n        /* \"#utility.yul\":29174:29178   */\n      dup2\n        /* \"#utility.yul\":29048:29179   */\n      tag_309\n      jump\t// in\n    tag_602:\n        /* \"#utility.yul\":29040:29179   */\n      swap1\n      pop\n        /* \"#utility.yul\":28767:29186   */\n      swap2\n      swap1\n      pop\n      jump\t// out\n        /* \"#utility.yul\":29192:29364   */\n    tag_310:\n        /* \"#utility.yul\":29332:29356   */\n      0x536c6f7420697320616c726561647920626f6f6b656400000000000000000000\n        /* \"#utility.yul\":29328:29329   */\n      0x00\n        /* \"#utility.yul\":29320:29326   */\n      dup3\n        /* \"#utility.yul\":29316:29330   */\n      add\n        /* \"#utility.yul\":29309:29357   */\n      mstore\n        /* \"#utility.yul\":29192:29364   */\n      pop\n      jump\t// out\n        /* \"#utility.yul\":29370:29736   */\n    tag_311:\n        /* \"#utility.yul\":29512:29515   */\n      0x00\n        /* \"#utility.yul\":29533:29600   */\n      tag_605\n        /* \"#utility.yul\":29597:29599   */\n      0x16\n        /* \"#utility.yul\":29592:29595   */\n      dup4\n        /* \"#utility.yul\":29533:29600   */\n      tag_276\n      jump\t// in\n    tag_605:\n        /* \"#utility.yul\":29526:29600   */\n      swap2\n      pop\n        /* \"#utility.yul\":29609:29702   */\n      tag_606\n        /* \"#utility.yul\":29698:29701   */\n      dup3\n        /* \"#utility.yul\":29609:29702   */\n      tag_310\n      jump\t// in\n    tag_606:\n        /* \"#utility.yul\":29727:29729   */\n      0x20\n        /* \"#utility.yul\":29722:29725   */\n      dup3\n        /* \"#utility.yul\":29718:29730   */\n      add\n        /* \"#utility.yul\":29711:29730   */\n      swap1\n      pop\n        /* \"#utility.yul\":29370:29736   */\n      swap2\n      swap1\n      pop\n      jump\t// out\n        /* \"#utility.yul\":29742:30161   */\n    tag_175:\n        /* \"#utility.yul\":29908:29912   */\n      0x00\n        /* \"#utility.yul\":29946:29948   */\n      0x20\n        /* \"#utility.yul\":29935:29944   */\n      dup3\n        /* \"#utility.yul\":29931:29949   */\n      add\n        /* \"#utility.yul\":29923:29949   */\n      swap1\n      pop\n        /* \"#utility.yul\":29995:30004   */\n      dup2\n        /* \"#utility.yul\":29989:29993   */\n      dup2\n        /* \"#utility.yul\":29985:30005   */\n      sub\n        /* \"#utility.yul\":29981:29982   */\n      0x00\n        /* \"#utility.yul\":29970:29979   */\n      dup4\n        /* \"#utility.yul\":29966:29983   */\n      add\n        /* \"#utility.yul\":29959:30006   */\n      mstore\n        /* \"#utility.yul\":30023:30154   */\n      tag_608\n        /* \"#utility.yul\":30149:30153   */\n      dup2\n        /* \"#utility.yul\":30023:30154   */\n      tag_311\n      jump\t// in\n    tag_608:\n        /* \"#utility.yul\":30015:30154   */\n      swap1\n      pop\n        /* \"#utility.yul\":29742:30161   */\n      swap2\n      swap1\n      pop\n      jump\t// out\n        /* \"#utility.yul\":30167:30246   */\n    tag_312:\n        /* \"#utility.yul\":30206:30213   */\n      0x00\n        /* \"#utility.yul\":30235:30240   */\n      dup2\n        /* \"#utility.yul\":30224:30240   */\n      swap1\n      pop\n        /* \"#utility.yul\":30167:30246   */\n      swap2\n      swap1\n      pop\n      jump\t// out\n        /* \"#utility.yul\":30252:30409   */\n    tag_313:\n        /* \"#utility.yul\":30357:30402   */\n      tag_611\n        /* \"#utility.yul\":30377:30401   */\n      tag_612\n        /* \"#utility.yul\":30395:30400   */\n      dup3\n        /* \"#utility.yul\":30377:30401   */\n      tag_251\n      jump\t// in\n    tag_612:\n        /* \"#utility.yul\":30357:30402   */\n      tag_312\n      jump\t// in\n    tag_611:\n        /* \"#utility.yul\":30352:30355   */\n      dup3\n        /* \"#utility.yul\":30345:30403   */\n      mstore\n        /* \"#utility.yul\":30252:30409   */\n      pop\n      pop\n      jump\t// out\n        /* \"#utility.yul\":30415:30953   */\n    tag_177:\n        /* \"#utility.yul\":30583:30586   */\n      0x00\n        /* \"#utility.yul\":30598:30673   */\n      tag_614\n        /* \"#utility.yul\":30669:30672   */\n      dup3\n        /* \"#utility.yul\":30660:30666   */\n      dup7\n        /* \"#utility.yul\":30598:30673   */\n      tag_313\n      jump\t// in\n    tag_614:\n        /* \"#utility.yul\":30698:30700   */\n      0x20\n        /* \"#utility.yul\":30693:30696   */\n      dup3\n        /* \"#utility.yul\":30689:30701   */\n      add\n        /* \"#utility.yul\":30682:30701   */\n      swap2\n      pop\n        /* \"#utility.yul\":30711:30786   */\n      tag_615\n        /* \"#utility.yul\":30782:30785   */\n      dup3\n        /* \"#utility.yul\":30773:30779   */\n      dup6\n        /* \"#utility.yul\":30711:30786   */\n      tag_313\n      jump\t// in\n    tag_615:\n        /* \"#utility.yul\":30811:30813   */\n      0x20\n        /* \"#utility.yul\":30806:30809   */\n      dup3\n        /* \"#utility.yul\":30802:30814   */\n      add\n        /* \"#utility.yul\":30795:30814   */\n      swap2\n      pop\n        /* \"#utility.yul\":30824:30899   */\n      tag_616\n        /* \"#utility.yul\":30895:30898   */\n      dup3\n        /* \"#utility.yul\":30886:30892   */\n      dup5\n        /* \"#utility.yul\":30824:30899   */\n      tag_313\n      jump\t// in\n    tag_616:\n        /* \"#utility.yul\":30924:30926   */\n      0x20\n        /* \"#utility.yul\":30919:30922   */\n      dup3\n        /* \"#utility.yul\":30915:30927   */\n      add\n        /* \"#utility.yul\":30908:30927   */\n      swap2\n      pop\n        /* \"#utility.yul\":30944:30947   */\n      dup2\n        /* \"#utility.yul\":30937:30947   */\n      swap1\n      pop\n        /* \"#utility.yul\":30415:30953   */\n      swap5\n      swap4\n      pop\n      pop\n      pop\n      pop\n      jump\t// out\n        /* \"#utility.yul\":30959:31153   */\n    tag_183:\n        /* \"#utility.yul\":30999:31003   */\n      0x00\n        /* \"#utility.yul\":31019:31039   */\n      tag_618\n        /* \"#utility.yul\":31037:31038   */\n      dup3\n        /* \"#utility.yul\":31019:31039   */\n      tag_251\n      jump\t// in\n    tag_618:\n        /* \"#utility.yul\":31014:31039   */\n      swap2\n      pop\n        /* \"#utility.yul\":31053:31073   */\n      tag_619\n        /* \"#utility.yul\":31071:31072   */\n      dup4\n        /* \"#utility.yul\":31053:31073   */\n      tag_251\n      jump\t// in\n    tag_619:\n        /* \"#utility.yul\":31048:31073   */\n      swap3\n      pop\n        /* \"#utility.yul\":31097:31098   */\n      dup3\n        /* \"#utility.yul\":31094:31095   */\n      dup3\n        /* \"#utility.yul\":31090:31099   */\n      sub\n        /* \"#utility.yul\":31082:31099   */\n      swap1\n      pop\n        /* \"#utility.yul\":31121:31122   */\n      dup2\n        /* \"#utility.yul\":31115:31119   */\n      dup2\n        /* \"#utility.yul\":31112:31123   */\n      gt\n        /* \"#utility.yul\":31109:31146   */\n      iszero\n      tag_620\n      jumpi\n        /* \"#utility.yul\":31126:31144   */\n      tag_621\n      tag_295\n      jump\t// in\n    tag_621:\n        /* \"#utility.yul\":31109:31146   */\n    tag_620:\n        /* \"#utility.yul\":30959:31153   */\n      swap3\n      swap2\n      pop\n      pop\n      jump\t// out\n        /* \"#utility.yul\":31159:31320   */\n    tag_314:\n        /* \"#utility.yul\":31299:31312   */\n      0x496e76616c696420616765000000000000000000000000000000000000000000\n        /* \"#utility.yul\":31295:31296   */\n      0x00\n        /* \"#utility.yul\":31287:31293   */\n      dup3\n        /* \"#utility.yul\":31283:31297   */\n      add\n        /* \"#utility.yul\":31276:31313   */\n      mstore\n        /* \"#utility.yul\":31159:31320   */\n      pop\n      jump\t// out\n        /* \"#utility.yul\":31326:31692   */\n    tag_315:\n        /* \"#utility.yul\":31468:31471   */\n      0x00\n        /* \"#utility.yul\":31489:31556   */\n      tag_624\n        /* \"#utility.yul\":31553:31555   */\n      0x0b\n        /* \"#utility.yul\":31548:31551   */\n      dup4\n        /* \"#utility.yul\":31489:31556   */\n      tag_276\n      jump\t// in\n    tag_624:\n        /* \"#utility.yul\":31482:31556   */\n      swap2\n      pop\n        /* \"#utility.yul\":31565:31658   */\n      tag_625\n        /* \"#utility.yul\":31654:31657   */\n      dup3\n        /* \"#utility.yul\":31565:31658   */\n      tag_314\n      jump\t// in\n    tag_625:\n        /* \"#utility.yul\":31683:31685   */\n      0x20\n        /* \"#utility.yul\":31678:31681   */\n      dup3\n        /* \"#utility.yul\":31674:31686   */\n      add\n        /* \"#utility.yul\":31667:31686   */\n      swap1\n      pop\n        /* \"#utility.yul\":31326:31692   */\n      swap2\n      swap1\n      pop\n      jump\t// out\n        /* \"#utility.yul\":31698:32117   */\n    tag_188:\n        /* \"#utility.yul\":31864:31868   */\n      0x00\n        /* \"#utility.yul\":31902:31904   */\n      0x20\n        /* \"#utility.yul\":31891:31900   */\n      dup3\n        /* \"#utility.yul\":31887:31905   */\n      add\n        /* \"#utility.yul\":31879:31905   */\n      swap1\n      pop\n        /* \"#utility.yul\":31951:31960   */\n      dup2\n        /* \"#utility.yul\":31945:31949   */\n      dup2\n        /* \"#utility.yul\":31941:31961   */\n      sub\n        /* \"#utility.yul\":31937:31938   */\n      0x00\n        /* \"#utility.yul\":31926:31935   */\n      dup4\n        /* \"#utility.yul\":31922:31939   */\n      add\n        /* \"#utility.yul\":31915:31962   */\n      mstore\n        /* \"#utility.yul\":31979:32110   */\n      tag_627\n        /* \"#utility.yul\":32105:32109   */\n      dup2\n        /* \"#utility.yul\":31979:32110   */\n      tag_315\n      jump\t// in\n    tag_627:\n        /* \"#utility.yul\":31971:32110   */\n      swap1\n      pop\n        /* \"#utility.yul\":31698:32117   */\n      swap2\n      swap1\n      pop\n      jump\t// out\n        /* \"#utility.yul\":32123:32283   */\n    tag_316:\n        /* \"#utility.yul\":32263:32275   */\n      0x496e76616c696420494400000000000000000000000000000000000000000000\n        /* \"#utility.yul\":32259:32260   */\n      0x00\n        /* \"#utility.yul\":32251:32257   */\n      dup3\n        /* \"#utility.yul\":32247:32261   */\n      add\n        /* \"#utility.yul\":32240:32276   */\n      mstore\n        /* \"#utility.yul\":32123:32283   */\n      pop\n      jump\t// out\n        /* \"#utility.yul\":32289:32655   */\n    tag_317:\n        /* \"#utility.yul\":32431:32434   */\n      0x00\n        /* \"#utility.yul\":32452:32519   */\n      tag_630\n        /* \"#utility.yul\":32516:32518   */\n      0x0a\n        /* \"#utility.yul\":32511:32514   */\n      dup4\n        /* \"#utility.yul\":32452:32519   */\n      tag_276\n      jump\t// in\n    tag_630:\n        /* \"#utility.yul\":32445:32519   */\n      swap2\n      pop\n        /* \"#utility.yul\":32528:32621   */\n      tag_631\n        /* \"#utility.yul\":32617:32620   */\n      dup3\n        /* \"#utility.yul\":32528:32621   */\n      tag_316\n      jump\t// in\n    tag_631:\n        /* \"#utility.yul\":32646:32648   */\n      0x20\n        /* \"#utility.yul\":32641:32644   */\n      dup3\n        /* \"#utility.yul\":32637:32649   */\n      add\n        /* \"#utility.yul\":32630:32649   */\n      swap1\n      pop\n        /* \"#utility.yul\":32289:32655   */\n      swap2\n      swap1\n      pop\n      jump\t// out\n        /* \"#utility.yul\":32661:33080   */\n    tag_191:\n        /* \"#utility.yul\":32827:32831   */\n      0x00\n        /* \"#utility.yul\":32865:32867   */\n      0x20\n        /* \"#utility.yul\":32854:32863   */\n      dup3\n        /* \"#utility.yul\":32850:32868   */\n      add\n        /* \"#utility.yul\":32842:32868   */\n      swap1\n      pop\n        /* \"#utility.yul\":32914:32923   */\n      dup2\n        /* \"#utility.yul\":32908:32912   */\n      dup2\n        /* \"#utility.yul\":32904:32924   */\n      sub\n        /* \"#utility.yul\":32900:32901   */\n      0x00\n        /* \"#utility.yul\":32889:32898   */\n      dup4\n        /* \"#utility.yul\":32885:32902   */\n      add\n        /* \"#utility.yul\":32878:32925   */\n      mstore\n        /* \"#utility.yul\":32942:33073   */\n      tag_633\n        /* \"#utility.yul\":33068:33072   */\n      dup2\n        /* \"#utility.yul\":32942:33073   */\n      tag_317\n      jump\t// in\n    tag_633:\n        /* \"#utility.yul\":32934:33073   */\n      swap1\n      pop\n        /* \"#utility.yul\":32661:33080   */\n      swap2\n      swap1\n      pop\n      jump\t// out\n        /* \"#utility.yul\":33086:33261   */\n    tag_318:\n        /* \"#utility.yul\":33226:33253   */\n      0x547261696e657220494420616c72656164792065786973747300000000000000\n        /* \"#utility.yul\":33222:33223   */\n      0x00\n        /* \"#utility.yul\":33214:33220   */\n      dup3\n        /* \"#utility.yul\":33210:33224   */\n      add\n        /* \"#utility.yul\":33203:33254   */\n      mstore\n        /* \"#utility.yul\":33086:33261   */\n      pop\n      jump\t// out\n        /* \"#utility.yul\":33267:33633   */\n    tag_319:\n        /* \"#utility.yul\":33409:33412   */\n      0x00\n        /* \"#utility.yul\":33430:33497   */\n      tag_636\n        /* \"#utility.yul\":33494:33496   */\n      0x19\n        /* \"#utility.yul\":33489:33492   */\n      dup4\n        /* \"#utility.yul\":33430:33497   */\n      tag_276\n      jump\t// in\n    tag_636:\n        /* \"#utility.yul\":33423:33497   */\n      swap2\n      pop\n        /* \"#utility.yul\":33506:33599   */\n      tag_637\n        /* \"#utility.yul\":33595:33598   */\n      dup3\n        /* \"#utility.yul\":33506:33599   */\n      tag_318\n      jump\t// in\n    tag_637:\n        /* \"#utility.yul\":33624:33626   */\n      0x20\n        /* \"#utility.yul\":33619:33622   */\n      dup3\n        /* \"#utility.yul\":33615:33627   */\n      add\n        /* \"#utility.yul\":33608:33627   */\n      swap1\n      pop\n        /* \"#utility.yul\":33267:33633   */\n      swap2\n      swap1\n      pop\n      jump\t// out\n        /* \"#utility.yul\":33639:34058   */\n    tag_194:\n        /* \"#utility.yul\":33805:33809   */\n      0x00\n        /* \"#utility.yul\":33843:33845   */\n      0x20\n        /* \"#utility.yul\":33832:33841   */\n      dup3\n        /* \"#utility.yul\":33828:33846   */\n      add\n        /* \"#utility.yul\":33820:33846   */\n      swap1\n      pop\n        /* \"#utility.yul\":33892:33901   */\n      dup2\n        /* \"#utility.yul\":33886:33890   */\n      dup2\n        /* \"#utility.yul\":33882:33902   */\n      sub\n        /* \"#utility.yul\":33878:33879   */\n      0x00\n        /* \"#utility.yul\":33867:33876   */\n      dup4\n        /* \"#utility.yul\":33863:33880   */\n      add\n        /* \"#utility.yul\":33856:33903   */\n      mstore\n        /* \"#utility.yul\":33920:34051   */\n      tag_639\n        /* \"#utility.yul\":34046:34050   */\n      dup2\n        /* \"#utility.yul\":33920:34051   */\n      tag_319\n      jump\t// in\n    tag_639:\n        /* \"#utility.yul\":33912:34051   */\n      swap1\n      pop\n        /* \"#utility.yul\":33639:34058   */\n      swap2\n      swap1\n      pop\n      jump\t// out\n        /* \"#utility.yul\":34064:34205   */\n    tag_320:\n        /* \"#utility.yul\":34113:34117   */\n      0x00\n        /* \"#utility.yul\":34136:34139   */\n      dup2\n        /* \"#utility.yul\":34128:34139   */\n      swap1\n      pop\n        /* \"#utility.yul\":34159:34162   */\n      dup2\n        /* \"#utility.yul\":34156:34157   */\n      0x00\n        /* \"#utility.yul\":34149:34163   */\n      mstore\n        /* \"#utility.yul\":34193:34197   */\n      0x20\n        /* \"#utility.yul\":34190:34191   */\n      0x00\n        /* \"#utility.yul\":34180:34198   */\n      keccak256\n        /* \"#utility.yul\":34172:34198   */\n      swap1\n      pop\n        /* \"#utility.yul\":34064:34205   */\n      swap2\n      swap1\n      pop\n      jump\t// out\n        /* \"#utility.yul\":34211:34304   */\n    tag_321:\n        /* \"#utility.yul\":34248:34254   */\n      0x00\n        /* \"#utility.yul\":34295:34297   */\n      0x20\n        /* \"#utility.yul\":34290:34292   */\n      0x1f\n        /* \"#utility.yul\":34283:34288   */\n      dup4\n        /* \"#utility.yul\":34279:34293   */\n      add\n        /* \"#utility.yul\":34275:34298   */\n      div\n        /* \"#utility.yul\":34265:34298   */\n      swap1\n      pop\n        /* \"#utility.yul\":34211:34304   */\n      swap2\n      swap1\n      pop\n      jump\t// out\n        /* \"#utility.yul\":34310:34417   */\n    tag_322:\n        /* \"#utility.yul\":34354:34362   */\n      0x00\n        /* \"#utility.yul\":34404:34409   */\n      dup3\n        /* \"#utility.yul\":34398:34402   */\n      dup3\n        /* \"#utility.yul\":34394:34410   */\n      shl\n        /* \"#utility.yul\":34373:34410   */\n      swap1\n      pop\n        /* \"#utility.yul\":34310:34417   */\n      swap3\n      swap2\n      pop\n      pop\n      jump\t// out\n        /* \"#utility.yul\":34423:34816   */\n    tag_323:\n        /* \"#utility.yul\":34492:34498   */\n      0x00\n        /* \"#utility.yul\":34542:34543   */\n      0x08\n        /* \"#utility.yul\":34530:34540   */\n      dup4\n        /* \"#utility.yul\":34526:34544   */\n      mul\n        /* \"#utility.yul\":34565:34662   */\n      tag_644\n        /* \"#utility.yul\":34595:34661   */\n      0xffffffffffffffffffffffffffffffffffffffffffffffffffffffffffffffff\n        /* \"#utility.yul\":34584:34593   */\n      dup3\n        /* \"#utility.yul\":34565:34662   */\n      tag_322\n      jump\t// in\n    tag_644:\n        /* \"#utility.yul\":34683:34722   */\n      tag_645\n        /* \"#utility.yul\":34713:34721   */\n      dup7\n        /* \"#utility.yul\":34702:34711   */\n      dup4\n        /* \"#utility.yul\":34683:34722   */\n      tag_322\n      jump\t// in\n    tag_645:\n        /* \"#utility.yul\":34671:34722   */\n      swap6\n      pop\n        /* \"#utility.yul\":34755:34759   */\n      dup1\n        /* \"#utility.yul\":34751:34760   */\n      not\n        /* \"#utility.yul\":34744:34749   */\n      dup5\n        /* \"#utility.yul\":34740:34761   */\n      and\n        /* \"#utility.yul\":34731:34761   */\n      swap4\n      pop\n        /* \"#utility.yul\":34804:34808   */\n      dup1\n        /* \"#utility.yul\":34794:34802   */\n      dup7\n        /* \"#utility.yul\":34790:34809   */\n      and\n        /* \"#utility.yul\":34783:34788   */\n      dup5\n        /* \"#utility.yul\":34780:34810   */\n      or\n        /* \"#utility.yul\":34770:34810   */\n      swap3\n      pop\n        /* \"#utility.yul\":34499:34816   */\n      pop\n      pop\n        /* \"#utility.yul\":34423:34816   */\n      swap4\n      swap3\n      pop\n      pop\n      pop\n      jump\t// out\n        /* \"#utility.yul\":34822:34882   */\n    tag_324:\n        /* \"#utility.yul\":34850:34853   */\n      0x00\n        /* \"#utility.yul\":34871:34876   */\n      dup2\n        /* \"#utility.yul\":34864:34876   */\n      swap1\n      pop\n        /* \"#utility.yul\":34822:34882   */\n      swap2\n      swap1\n      pop\n      jump\t// out\n        /* \"#utility.yul\":34888:35030   */\n    tag_325:\n        /* \"#utility.yul\":34938:34947   */\n      0x00\n        /* \"#utility.yul\":34971:35024   */\n      tag_648\n        /* \"#utility.yul\":34989:35023   */\n      tag_649\n        /* \"#utility.yul\":34998:35022   */\n      tag_650\n        /* \"#utility.yul\":35016:35021   */\n      dup5\n        /* \"#utility.yul\":34998:35022   */\n      tag_251\n      jump\t// in\n    tag_650:\n        /* \"#utility.yul\":34989:35023   */\n      tag_324\n      jump\t// in\n    tag_649:\n        /* \"#utility.yul\":34971:35024   */\n      tag_251\n      jump\t// in\n    tag_648:\n        /* \"#utility.yul\":34958:35024   */\n      swap1\n      pop\n        /* \"#utility.yul\":34888:35030   */\n      swap2\n      swap1\n      pop\n      jump\t// out\n        /* \"#utility.yul\":35036:35111   */\n    tag_326:\n        /* \"#utility.yul\":35079:35082   */\n      0x00\n        /* \"#utility.yul\":35100:35105   */\n      dup2\n        /* \"#utility.yul\":35093:35105   */\n      swap1\n      pop\n        /* \"#utility.yul\":35036:35111   */\n      swap2\n      swap1\n      pop\n      jump\t// out\n        /* \"#utility.yul\":35117:35386   */\n    tag_327:\n        /* \"#utility.yul\":35227:35266   */\n      tag_653\n        /* \"#utility.yul\":35258:35265   */\n      dup4\n        /* \"#utility.yul\":35227:35266   */\n      tag_325\n      jump\t// in\n    tag_653:\n        /* \"#utility.yul\":35288:35379   */\n      tag_654\n        /* \"#utility.yul\":35337:35378   */\n      tag_655\n        /* \"#utility.yul\":35361:35377   */\n      dup3\n        /* \"#utility.yul\":35337:35378   */\n      tag_326\n      jump\t// in\n    tag_655:\n        /* \"#utility.yul\":35329:35335   */\n      dup5\n        /* \"#utility.yul\":35322:35326   */\n      dup5\n        /* \"#utility.yul\":35316:35327   */\n      sload\n        /* \"#utility.yul\":35288:35379   */\n      tag_323\n      jump\t// in\n    tag_654:\n        /* \"#utility.yul\":35282:35286   */\n      dup3\n        /* \"#utility.yul\":35275:35380   */\n      sstore\n        /* \"#utility.yul\":35193:35386   */\n      pop\n        /* \"#utility.yul\":35117:35386   */\n      pop\n      pop\n      pop\n      jump\t// out\n        /* \"#utility.yul\":35392:35465   */\n    tag_328:\n        /* \"#utility.yul\":35437:35440   */\n      0x00\n        /* \"#utility.yul\":35458:35459   */\n      0x00\n        /* \"#utility.yul\":35451:35459   */\n      swap1\n      pop\n        /* \"#utility.yul\":35392:35465   */\n      swap1\n      jump\t// out\n        /* \"#utility.yul\":35471:35660   */\n    tag_329:\n        /* \"#utility.yul\":35548:35580   */\n      tag_658\n      tag_328\n      jump\t// in\n    tag_658:\n        /* \"#utility.yul\":35589:35654   */\n      tag_659\n        /* \"#utility.yul\":35647:35653   */\n      dup2\n        /* \"#utility.yul\":35639:35645   */\n      dup5\n        /* \"#utility.yul\":35633:35637   */\n      dup5\n        /* \"#utility.yul\":35589:35654   */\n      tag_327\n      jump\t// in\n    tag_659:\n        /* \"#utility.yul\":35524:35660   */\n      pop\n        /* \"#utility.yul\":35471:35660   */\n      pop\n      pop\n      jump\t// out\n        /* \"#utility.yul\":35666:35852   */\n    tag_330:\n        /* \"#utility.yul\":35726:35846   */\n    tag_661:\n        /* \"#utility.yul\":35743:35746   */\n      dup2\n        /* \"#utility.yul\":35736:35741   */\n      dup2\n        /* \"#utility.yul\":35733:35747   */\n      lt\n        /* \"#utility.yul\":35726:35846   */\n      iszero\n      tag_663\n      jumpi\n        /* \"#utility.yul\":35797:35836   */\n      tag_664\n        /* \"#utility.yul\":35834:35835   */\n      0x00\n        /* \"#utility.yul\":35827:35832   */\n      dup3\n        /* \"#utility.yul\":35797:35836   */\n      tag_329\n      jump\t// in\n    tag_664:\n        /* \"#utility.yul\":35770:35771   */\n      0x01\n        /* \"#utility.yul\":35763:35768   */\n      dup2\n        /* \"#utility.yul\":35759:35772   */\n      add\n        /* \"#utility.yul\":35750:35772   */\n      swap1\n      pop\n        /* \"#utility.yul\":35726:35846   */\n      jump(tag_661)\n    tag_663:\n        /* \"#utility.yul\":35666:35852   */\n      pop\n      pop\n      jump\t// out\n        /* \"#utility.yul\":35858:36401   */\n    tag_331:\n        /* \"#utility.yul\":35959:35961   */\n      0x1f\n        /* \"#utility.yul\":35954:35957   */\n      dup3\n        /* \"#utility.yul\":35951:35962   */\n      gt\n        /* \"#utility.yul\":35948:36394   */\n      iszero\n      tag_666\n      jumpi\n        /* \"#utility.yul\":35993:36031   */\n      tag_667\n        /* \"#utility.yul\":36025:36030   */\n      dup2\n        /* \"#utility.yul\":35993:36031   */\n      tag_320\n      jump\t// in\n    tag_667:\n        /* \"#utility.yul\":36077:36106   */\n      tag_668\n        /* \"#utility.yul\":36095:36105   */\n      dup5\n        /* \"#utility.yul\":36077:36106   */\n      tag_321\n      jump\t// in\n    tag_668:\n        /* \"#utility.yul\":36067:36075   */\n      dup2\n        /* \"#utility.yul\":36063:36107   */\n      add\n        /* \"#utility.yul\":36260:36262   */\n      0x20\n        /* \"#utility.yul\":36248:36258   */\n      dup6\n        /* \"#utility.yul\":36245:36263   */\n      lt\n        /* \"#utility.yul\":36242:36291   */\n      iszero\n      tag_669\n      jumpi\n        /* \"#utility.yul\":36281:36289   */\n      dup2\n        /* \"#utility.yul\":36266:36289   */\n      swap1\n      pop\n        /* \"#utility.yul\":36242:36291   */\n    tag_669:\n        /* \"#utility.yul\":36304:36384   */\n      tag_670\n        /* \"#utility.yul\":36360:36382   */\n      tag_671\n        /* \"#utility.yul\":36378:36381   */\n      dup6\n        /* \"#utility.yul\":36360:36382   */\n      tag_321\n      jump\t// in\n    tag_671:\n        /* \"#utility.yul\":36350:36358   */\n      dup4\n        /* \"#utility.yul\":36346:36383   */\n      add\n        /* \"#utility.yul\":36333:36344   */\n      dup3\n        /* \"#utility.yul\":36304:36384   */\n      tag_330\n      jump\t// in\n    tag_670:\n        /* \"#utility.yul\":35963:36394   */\n      pop\n      pop\n        /* \"#utility.yul\":35948:36394   */\n    tag_666:\n        /* \"#utility.yul\":35858:36401   */\n      pop\n      pop\n      pop\n      jump\t// out\n        /* \"#utility.yul\":36407:36524   */\n    tag_332:\n        /* \"#utility.yul\":36461:36469   */\n      0x00\n        /* \"#utility.yul\":36511:36516   */\n      dup3\n        /* \"#utility.yul\":36505:36509   */\n      dup3\n        /* \"#utility.yul\":36501:36517   */\n      shr\n        /* \"#utility.yul\":36480:36517   */\n      swap1\n      pop\n        /* \"#utility.yul\":36407:36524   */\n      swap3\n      swap2\n      pop\n      pop\n      jump\t// out\n        /* \"#utility.yul\":36530:36699   */\n    tag_333:\n        /* \"#utility.yul\":36574:36580   */\n      0x00\n        /* \"#utility.yul\":36607:36658   */\n      tag_674\n        /* \"#utility.yul\":36655:36656   */\n      0x00\n        /* \"#utility.yul\":36651:36657   */\n      not\n        /* \"#utility.yul\":36643:36648   */\n      dup5\n        /* \"#utility.yul\":36640:36641   */\n      0x08\n        /* \"#utility.yul\":36636:36649   */\n      mul\n        /* \"#utility.yul\":36607:36658   */\n      tag_332\n      jump\t// in\n    tag_674:\n        /* \"#utility.yul\":36603:36659   */\n      not\n        /* \"#utility.yul\":36688:36692   */\n      dup1\n        /* \"#utility.yul\":36682:36686   */\n      dup4\n        /* \"#utility.yul\":36678:36693   */\n      and\n        /* \"#utility.yul\":36668:36693   */\n      swap2\n      pop\n        /* \"#utility.yul\":36581:36699   */\n      pop\n        /* \"#utility.yul\":36530:36699   */\n      swap3\n      swap2\n      pop\n      pop\n      jump\t// out\n        /* \"#utility.yul\":36704:36999   */\n    tag_334:\n        /* \"#utility.yul\":36780:36784   */\n      0x00\n        /* \"#utility.yul\":36926:36955   */\n      tag_676\n        /* \"#utility.yul\":36951:36954   */\n      dup4\n        /* \"#utility.yul\":36945:36949   */\n      dup4\n        /* \"#utility.yul\":36926:36955   */\n      tag_333\n      jump\t// in\n    tag_676:\n        /* \"#utility.yul\":36918:36955   */\n      swap2\n      pop\n        /* \"#utility.yul\":36988:36991   */\n      dup3\n        /* \"#utility.yul\":36985:36986   */\n      0x02\n        /* \"#utility.yul\":36981:36992   */\n      mul\n        /* \"#utility.yul\":36975:36979   */\n      dup3\n        /* \"#utility.yul\":36972:36993   */\n      or\n        /* \"#utility.yul\":36964:36993   */\n      swap1\n      pop\n        /* \"#utility.yul\":36704:36999   */\n      swap3\n      swap2\n      pop\n      pop\n      jump\t// out\n        /* \"#utility.yul\":37004:38399   */\n    tag_196:\n        /* \"#utility.yul\":37121:37158   */\n      tag_678\n        /* \"#utility.yul\":37154:37157   */\n      dup3\n        /* \"#utility.yul\":37121:37158   */\n      tag_267\n      jump\t// in\n    tag_678:\n        /* \"#utility.yul\":37223:37241   */\n      0xffffffffffffffff\n        /* \"#utility.yul\":37215:37221   */\n      dup2\n        /* \"#utility.yul\":37212:37242   */\n      gt\n        /* \"#utility.yul\":37209:37265   */\n      iszero\n      tag_679\n      jumpi\n        /* \"#utility.yul\":37245:37263   */\n      tag_680\n      tag_81\n      jump\t// in\n    tag_680:\n        /* \"#utility.yul\":37209:37265   */\n    tag_679:\n        /* \"#utility.yul\":37289:37327   */\n      tag_681\n        /* \"#utility.yul\":37321:37325   */\n      dup3\n        /* \"#utility.yul\":37315:37326   */\n      sload\n        /* \"#utility.yul\":37289:37327   */\n      tag_138\n      jump\t// in\n    tag_681:\n        /* \"#utility.yul\":37374:37441   */\n      tag_682\n        /* \"#utility.yul\":37434:37440   */\n      dup3\n        /* \"#utility.yul\":37426:37432   */\n      dup3\n        /* \"#utility.yul\":37420:37424   */\n      dup6\n        /* \"#utility.yul\":37374:37441   */\n      tag_331\n      jump\t// in\n    tag_682:\n        /* \"#utility.yul\":37468:37469   */\n      0x00\n        /* \"#utility.yul\":37492:37496   */\n      0x20\n        /* \"#utility.yul\":37479:37496   */\n      swap1\n      pop\n        /* \"#utility.yul\":37524:37526   */\n      0x1f\n        /* \"#utility.yul\":37516:37522   */\n      dup4\n        /* \"#utility.yul\":37513:37527   */\n      gt\n        /* \"#utility.yul\":37541:37542   */\n      0x01\n        /* \"#utility.yul\":37536:38154   */\n      dup2\n      eq\n      tag_684\n      jumpi\n        /* \"#utility.yul\":38198:38199   */\n      0x00\n        /* \"#utility.yul\":38215:38221   */\n      dup5\n        /* \"#utility.yul\":38212:38289   */\n      iszero\n      tag_685\n      jumpi\n        /* \"#utility.yul\":38264:38273   */\n      dup3\n        /* \"#utility.yul\":38259:38262   */\n      dup8\n        /* \"#utility.yul\":38255:38274   */\n      add\n        /* \"#utility.yul\":38249:38275   */\n      mload\n        /* \"#utility.yul\":38240:38275   */\n      swap1\n      pop\n        /* \"#utility.yul\":38212:38289   */\n    tag_685:\n        /* \"#utility.yul\":38315:38382   */\n      tag_686\n        /* \"#utility.yul\":38375:38381   */\n      dup6\n        /* \"#utility.yul\":38368:38373   */\n      dup3\n        /* \"#utility.yul\":38315:38382   */\n      tag_334\n      jump\t// in\n    tag_686:\n        /* \"#utility.yul\":38309:38313   */\n      dup7\n        /* \"#utility.yul\":38302:38383   */\n      sstore\n        /* \"#utility.yul\":38171:38393   */\n      pop\n        /* \"#utility.yul\":37506:38393   */\n      jump(tag_683)\n        /* \"#utility.yul\":37536:38154   */\n    tag_684:\n        /* \"#utility.yul\":37588:37592   */\n      0x1f\n        /* \"#utility.yul\":37584:37593   */\n      not\n        /* \"#utility.yul\":37576:37582   */\n      dup5\n        /* \"#utility.yul\":37572:37594   */\n      and\n        /* \"#utility.yul\":37622:37659   */\n      tag_687\n        /* \"#utility.yul\":37654:37658   */\n      dup7\n        /* \"#utility.yul\":37622:37659   */\n      tag_320\n      jump\t// in\n    tag_687:\n        /* \"#utility.yul\":37681:37682   */\n      0x00\n        /* \"#utility.yul\":37695:37903   */\n    tag_688:\n        /* \"#utility.yul\":37709:37716   */\n      dup3\n        /* \"#utility.yul\":37706:37707   */\n      dup2\n        /* \"#utility.yul\":37703:37717   */\n      lt\n        /* \"#utility.yul\":37695:37903   */\n      iszero\n      tag_690\n      jumpi\n        /* \"#utility.yul\":37788:37797   */\n      dup5\n        /* \"#utility.yul\":37783:37786   */\n      dup10\n        /* \"#utility.yul\":37779:37798   */\n      add\n        /* \"#utility.yul\":37773:37799   */\n      mload\n        /* \"#utility.yul\":37765:37771   */\n      dup3\n        /* \"#utility.yul\":37758:37800   */\n      sstore\n        /* \"#utility.yul\":37839:37840   */\n      0x01\n        /* \"#utility.yul\":37831:37837   */\n      dup3\n        /* \"#utility.yul\":37827:37841   */\n      add\n        /* \"#utility.yul\":37817:37841   */\n      swap2\n      pop\n        /* \"#utility.yul\":37886:37888   */\n      0x20\n        /* \"#utility.yul\":37875:37884   */\n      dup6\n        /* \"#utility.yul\":37871:37889   */\n      add\n        /* \"#utility.yul\":37858:37889   */\n      swap5\n      pop\n        /* \"#utility.yul\":37732:37736   */\n      0x20\n        /* \"#utility.yul\":37729:37730   */\n      dup2\n        /* \"#utility.yul\":37725:37737   */\n      add\n        /* \"#utility.yul\":37720:37737   */\n      swap1\n      pop\n        /* \"#utility.yul\":37695:37903   */\n      jump(tag_688)\n    tag_690:\n        /* \"#utility.yul\":37931:37937   */\n      dup7\n        /* \"#utility.yul\":37922:37929   */\n      dup4\n        /* \"#utility.yul\":37919:37938   */\n      lt\n        /* \"#utility.yul\":37916:38095   */\n      iszero\n      tag_691\n      jumpi\n        /* \"#utility.yul\":37989:37998   */\n      dup5\n        /* \"#utility.yul\":37984:37987   */\n      dup10\n        /* \"#utility.yul\":37980:37999   */\n      add\n        /* \"#utility.yul\":37974:38000   */\n      mload\n        /* \"#utility.yul\":38032:38080   */\n      tag_692\n        /* \"#utility.yul\":38074:38078   */\n      0x1f\n        /* \"#utility.yul\":38066:38072   */\n      dup10\n        /* \"#utility.yul\":38062:38079   */\n      and\n        /* \"#utility.yul\":38051:38060   */\n      dup3\n        /* \"#utility.yul\":38032:38080   */\n      tag_333\n      jump\t// in\n    tag_692:\n        /* \"#utility.yul\":38024:38030   */\n      dup4\n        /* \"#utility.yul\":38017:38081   */\n      sstore\n        /* \"#utility.yul\":37939:38095   */\n      pop\n        /* \"#utility.yul\":37916:38095   */\n    tag_691:\n        /* \"#utility.yul\":38141:38142   */\n      0x01\n        /* \"#utility.yul\":38137:38138   */\n      0x02\n        /* \"#utility.yul\":38129:38135   */\n      dup9\n        /* \"#utility.yul\":38125:38139   */\n      mul\n        /* \"#utility.yul\":38121:38143   */\n      add\n        /* \"#utility.yul\":38115:38119   */\n      dup9\n        /* \"#utility.yul\":38108:38144   */\n      sstore\n        /* \"#utility.yul\":37543:38154   */\n      pop\n      pop\n      pop\n        /* \"#utility.yul\":37506:38393   */\n    tag_683:\n      pop\n        /* \"#utility.yul\":37096:38399   */\n      pop\n      pop\n      pop\n        /* \"#utility.yul\":37004:38399   */\n      pop\n      pop\n      jump\t// out\n        /* \"#utility.yul\":38405:38578   */\n    tag_335:\n        /* \"#utility.yul\":38545:38570   */\n      0x41646d696e20494420616c726561647920657869737473000000000000000000\n        /* \"#utility.yul\":38541:38542   */\n      0x00\n        /* \"#utility.yul\":38533:38539   */\n      dup3\n        /* \"#utility.yul\":38529:38543   */\n      add\n        /* \"#utility.yul\":38522:38571   */\n      mstore\n        /* \"#utility.yul\":38405:38578   */\n      pop\n      jump\t// out\n        /* \"#utility.yul\":38584:38950   */\n    tag_336:\n        /* \"#utility.yul\":38726:38729   */\n      0x00\n        /* \"#utility.yul\":38747:38814   */\n      tag_695\n        /* \"#utility.yul\":38811:38813   */\n      0x17\n        /* \"#utility.yul\":38806:38809   */\n      dup4\n        /* \"#utility.yul\":38747:38814   */\n      tag_276\n      jump\t// in\n    tag_695:\n        /* \"#utility.yul\":38740:38814   */\n      swap2\n      pop\n        /* \"#utility.yul\":38823:38916   */\n      tag_696\n        /* \"#utility.yul\":38912:38915   */\n      dup3\n        /* \"#utility.yul\":38823:38916   */\n      tag_335\n      jump\t// in\n    tag_696:\n        /* \"#utility.yul\":38941:38943   */\n      0x20\n        /* \"#utility.yul\":38936:38939   */\n      dup3\n        /* \"#utility.yul\":38932:38944   */\n      add\n        /* \"#utility.yul\":38925:38944   */\n      swap1\n      pop\n        /* \"#utility.yul\":38584:38950   */\n      swap2\n      swap1\n      pop\n      jump\t// out\n        /* \"#utility.yul\":38956:39375   */\n    tag_205:\n        /* \"#utility.yul\":39122:39126   */\n      0x00\n        /* \"#utility.yul\":39160:39162   */\n      0x20\n        /* \"#utility.yul\":39149:39158   */\n      dup3\n        /* \"#utility.yul\":39145:39163   */\n      add\n        /* \"#utility.yul\":39137:39163   */\n      swap1\n      pop\n        /* \"#utility.yul\":39209:39218   */\n      dup2\n        /* \"#utility.yul\":39203:39207   */\n      dup2\n        /* \"#utility.yul\":39199:39219   */\n      sub\n        /* \"#utility.yul\":39195:39196   */\n      0x00\n        /* \"#utility.yul\":39184:39193   */\n      dup4\n        /* \"#utility.yul\":39180:39197   */\n      add\n        /* \"#utility.yul\":39173:39220   */\n      mstore\n        /* \"#utility.yul\":39237:39368   */\n      tag_698\n        /* \"#utility.yul\":39363:39367   */\n      dup2\n        /* \"#utility.yul\":39237:39368   */\n      tag_336\n      jump\t// in\n    tag_698:\n        /* \"#utility.yul\":39229:39368   */\n      swap1\n      pop\n        /* \"#utility.yul\":38956:39375   */\n      swap2\n      swap1\n      pop\n      jump\t// out\n        /* \"#utility.yul\":39381:39560   */\n    tag_337:\n        /* \"#utility.yul\":39521:39552   */\n      0x5061727469636970616e7420494420616c726561647920657869737473000000\n        /* \"#utility.yul\":39517:39518   */\n      0x00\n        /* \"#utility.yul\":39509:39515   */\n      dup3\n        /* \"#utility.yul\":39505:39519   */\n      add\n        /* \"#utility.yul\":39498:39553   */\n      mstore\n        /* \"#utility.yul\":39381:39560   */\n      pop\n      jump\t// out\n        /* \"#utility.yul\":39566:39932   */\n    tag_338:\n        /* \"#utility.yul\":39708:39711   */\n      0x00\n        /* \"#utility.yul\":39729:39796   */\n      tag_701\n        /* \"#utility.yul\":39793:39795   */\n      0x1d\n        /* \"#utility.yul\":39788:39791   */\n      dup4\n        /* \"#utility.yul\":39729:39796   */\n      tag_276\n      jump\t// in\n    tag_701:\n        /* \"#utility.yul\":39722:39796   */\n      swap2\n      pop\n        /* \"#utility.yul\":39805:39898   */\n      tag_702\n        /* \"#utility.yul\":39894:39897   */\n      dup3\n        /* \"#utility.yul\":39805:39898   */\n      tag_337\n      jump\t// in\n    tag_702:\n        /* \"#utility.yul\":39923:39925   */\n      0x20\n        /* \"#utility.yul\":39918:39921   */\n      dup3\n        /* \"#utility.yul\":39914:39926   */\n      add\n        /* \"#utility.yul\":39907:39926   */\n      swap1\n      pop\n        /* \"#utility.yul\":39566:39932   */\n      swap2\n      swap1\n      pop\n      jump\t// out\n        /* \"#utility.yul\":39938:40357   */\n    tag_215:\n        /* \"#utility.yul\":40104:40108   */\n      0x00\n        /* \"#utility.yul\":40142:40144   */\n      0x20\n        /* \"#utility.yul\":40131:40140   */\n      dup3\n        /* \"#utility.yul\":40127:40145   */\n      add\n        /* \"#utility.yul\":40119:40145   */\n      swap1\n      pop\n        /* \"#utility.yul\":40191:40200   */\n      dup2\n        /* \"#utility.yul\":40185:40189   */\n      dup2\n        /* \"#utility.yul\":40181:40201   */\n      sub\n        /* \"#utility.yul\":40177:40178   */\n      0x00\n        /* \"#utility.yul\":40166:40175   */\n      dup4\n        /* \"#utility.yul\":40162:40179   */\n      add\n        /* \"#utility.yul\":40155:40202   */\n      mstore\n        /* \"#utility.yul\":40219:40350   */\n      tag_704\n        /* \"#utility.yul\":40345:40349   */\n      dup2\n        /* \"#utility.yul\":40219:40350   */\n      tag_338\n      jump\t// in\n    tag_704:\n        /* \"#utility.yul\":40211:40350   */\n      swap1\n      pop\n        /* \"#utility.yul\":39938:40357   */\n      swap2\n      swap1\n      pop\n      jump\t// out\n        /* \"#utility.yul\":40363:40514   */\n    tag_339:\n        /* \"#utility.yul\":40503:40506   */\n      0x3000000000000000000000000000000000000000000000000000000000000000\n        /* \"#utility.yul\":40499:40500   */\n      0x00\n        /* \"#utility.yul\":40491:40497   */\n      dup3\n        /* \"#utility.yul\":40487:40501   */\n      add\n        /* \"#utility.yul\":40480:40507   */\n      mstore\n        /* \"#utility.yul\":40363:40514   */\n      pop\n      jump\t// out\n        /* \"#utility.yul\":40520:40920   */\n    tag_340:\n        /* \"#utility.yul\":40680:40683   */\n      0x00\n        /* \"#utility.yul\":40701:40785   */\n      tag_707\n        /* \"#utility.yul\":40783:40784   */\n      0x01\n        /* \"#utility.yul\":40778:40781   */\n      dup4\n        /* \"#utility.yul\":40701:40785   */\n      tag_297\n      jump\t// in\n    tag_707:\n        /* \"#utility.yul\":40694:40785   */\n      swap2\n      pop\n        /* \"#utility.yul\":40794:40887   */\n      tag_708\n        /* \"#utility.yul\":40883:40886   */\n      dup3\n        /* \"#utility.yul\":40794:40887   */\n      tag_339\n      jump\t// in\n    tag_708:\n        /* \"#utility.yul\":40912:40913   */\n      0x01\n        /* \"#utility.yul\":40907:40910   */\n      dup3\n        /* \"#utility.yul\":40903:40914   */\n      add\n        /* \"#utility.yul\":40896:40914   */\n      swap1\n      pop\n        /* \"#utility.yul\":40520:40920   */\n      swap2\n      swap1\n      pop\n      jump\t// out\n        /* \"#utility.yul\":40926:41075   */\n    tag_341:\n        /* \"#utility.yul\":40962:40969   */\n      0x00\n        /* \"#utility.yul\":41002:41068   */\n      0xff00000000000000000000000000000000000000000000000000000000000000\n        /* \"#utility.yul\":40995:41000   */\n      dup3\n        /* \"#utility.yul\":40991:41069   */\n      and\n        /* \"#utility.yul\":40980:41069   */\n      swap1\n      pop\n        /* \"#utility.yul\":40926:41075   */\n      swap2\n      swap1\n      pop\n      jump\t// out\n        /* \"#utility.yul\":41081:41159   */\n    tag_342:\n        /* \"#utility.yul\":41119:41126   */\n      0x00\n        /* \"#utility.yul\":41148:41153   */\n      dup2\n        /* \"#utility.yul\":41137:41153   */\n      swap1\n      pop\n        /* \"#utility.yul\":41081:41159   */\n      swap2\n      swap1\n      pop\n      jump\t// out\n        /* \"#utility.yul\":41165:41318   */\n    tag_343:\n        /* \"#utility.yul\":41268:41311   */\n      tag_712\n        /* \"#utility.yul\":41287:41310   */\n      tag_713\n        /* \"#utility.yul\":41304:41309   */\n      dup3\n        /* \"#utility.yul\":41287:41310   */\n      tag_341\n      jump\t// in\n    tag_713:\n        /* \"#utility.yul\":41268:41311   */\n      tag_342\n      jump\t// in\n    tag_712:\n        /* \"#utility.yul\":41263:41266   */\n      dup3\n        /* \"#utility.yul\":41256:41312   */\n      mstore\n        /* \"#utility.yul\":41165:41318   */\n      pop\n      pop\n      jump\t// out\n        /* \"#utility.yul\":41324:41841   */\n    tag_232:\n        /* \"#utility.yul\":41535:41538   */\n      0x00\n        /* \"#utility.yul\":41557:41705   */\n      tag_715\n        /* \"#utility.yul\":41701:41704   */\n      dup3\n        /* \"#utility.yul\":41557:41705   */\n      tag_340\n      jump\t// in\n    tag_715:\n        /* \"#utility.yul\":41550:41705   */\n      swap2\n      pop\n        /* \"#utility.yul\":41715:41788   */\n      tag_716\n        /* \"#utility.yul\":41784:41787   */\n      dup3\n        /* \"#utility.yul\":41775:41781   */\n      dup5\n        /* \"#utility.yul\":41715:41788   */\n      tag_343\n      jump\t// in\n    tag_716:\n        /* \"#utility.yul\":41813:41814   */\n      0x01\n        /* \"#utility.yul\":41808:41811   */\n      dup3\n        /* \"#utility.yul\":41804:41815   */\n      add\n        /* \"#utility.yul\":41797:41815   */\n      swap2\n      pop\n        /* \"#utility.yul\":41832:41835   */\n      dup2\n        /* \"#utility.yul\":41825:41835   */\n      swap1\n      pop\n        /* \"#utility.yul\":41324:41841   */\n      swap3\n      swap2\n      pop\n      pop\n      jump\t// out\n\n    auxdata: 0xa2646970667358221220345c8e02a7322d450fa7af048fec2bd5f758c01913d9241e301db96619a8b3b064736f6c634300081e0033\n}\n",
				"bytecode": {
					"linkReferences": {},
					"object": "6080604052348015600e575f5ffd5b506129b08061001c5f395ff3fe608060405234801561000f575f5ffd5b5060043610610086575f3560e01c80636620f95f116100595780636620f95f1461012d5780636c80cd331461015d578063710e2aba1461018d578063a30b027b146101bd57610086565b80633a7002e11461008a57806351eca4dd146100a65780635a29dc29146100d75780635ffc80f2146100f6575b5f5ffd5b6100a4600480360381019061009f9190611597565b6101ed565b005b6100c060048036038101906100bb91906115e7565b610353565b6040516100ce9291906117f4565b60405180910390f35b6100df6106d5565b6040516100ed929190611829565b60405180910390f35b610110600480360381019061010b91906115e7565b61081e565b6040516101249897969594939291906118c4565b60405180910390f35b61014760048036038101906101429190611955565b610b14565b60405161015491906119a5565b60405180910390f35b61017760048036038101906101729190611aea565b610e6a565b6040516101849190611b86565b60405180910390f35b6101a760048036038101906101a29190611b9f565b610fc2565b6040516101b49190611b86565b60405180910390f35b6101d760048036038101906101d29190611c0b565b611131565b6040516101e49190611b86565b60405180910390f35b5f60025f8581526020019081526020015f205f015403610242576040517f08c379a000000000000000000000000000000000000000000000000000000000815260040161023990611d46565b60405180910390fd5b6002821115610286576040517f08c379a000000000000000000000000000000000000000000000000000000000815260040161027d90611dae565b60405180910390fd5b5f60025f8581526020019081526020015f2090508060050160019054906101000a900460ff1615806102b55750815b6102f4576040517f08c379a00000000000000000000000000000000000000000000000000000000081526004016102eb90611e3c565b60405180910390fd5b82600281111561030757610306611e5a565b5b816005015f6101000a81548160ff0219169083600281111561032c5761032b611e5a565b5b0217905550818160050160016101000a81548160ff02191690831515021790555050505050565b6060805f60015f8581526020019081526020015f205f0154036103ab576040517f08c379a00000000000000000000000000000000000000000000000000000000081526004016103a290611ed1565b60405180910390fd5b5f5f90505f5f90505b603081101561040d5760035f8681526020019081526020015f205f8281526020019081526020015f206003015f9054906101000a900460ff166104005781806103fc90611f1c565b9250505b80806001019150506103b4565b508067ffffffffffffffff811115610428576104276119c6565b5b6040519080825280602002602001820160405280156104565781602001602082028036833780820191505090505b5092508067ffffffffffffffff811115610473576104726119c6565b5b6040519080825280602002602001820160405280156104a657816020015b60608152602001906001900390816104915790505b5091505f5f90505f5f90505b60308110156106cd5760035f8781526020019081526020015f205f8281526020019081526020015f206003015f9054906101000a900460ff166106c0578085838151811061050357610502611f63565b5b6020026020010181815250505f60028261051d9190611fbd565b90505f601e60028461052f9190611fed565b610539919061201d565b90505f8290505f601e8361054d919061205e565b9050603c810361056957818061056290611f1c565b9250505f90505b61057284611386565b5f84146105b4576040518060400160405280600281526020017f33300000000000000000000000000000000000000000000000000000000000008152506105eb565b6040518060400160405280600281526020017f30300000000000000000000000000000000000000000000000000000000000008152505b6105f484611386565b5f8414610636576040518060400160405280600281526020017f333000000000000000000000000000000000000000000000000000000000000081525061066d565b6040518060400160405280600281526020017f30300000000000000000000000000000000000000000000000000000000000008152505b604051602001610680949392919061215f565b6040516020818303038152906040528887815181106106a2576106a1611f63565b5b602002602001018190525085806106b890611f1c565b965050505050505b80806001019150506104b2565b505050915091565b6060805f60048054905090508067ffffffffffffffff8111156106fb576106fa6119c6565b5b6040519080825280602002602001820160405280156107295781602001602082028036833780820191505090505b5092508067ffffffffffffffff811115610746576107456119c6565b5b6040519080825280602002602001820160405280156107745781602001602082028036833780820191505090505b5091505f5f90505b81811015610818575f6004828154811061079957610798611f63565b5b905f5260205f2001549050808583815181106107b8576107b7611f63565b5b602002602001018181525050670de0b6b3a76400005f5f8381526020019081526020015f20600301546107eb9190611fbd565b8483815181106107fe576107fd611f63565b5b60200260200101818152505050808060010191505061077c565b50509091565b5f60605f6060805f5f5f5f60025f8b81526020019081526020015f205f01540361087d576040517f08c379a000000000000000000000000000000000000000000000000000000000815260040161087490611d46565b60405180910390fd5b5f60025f8b81526020019081526020015f20604051806101000160405290815f82015481526020016001820180546108b4906121ea565b80601f01602080910402602001604051908101604052809291908181526020018280546108e0906121ea565b801561092b5780601f106109025761010080835404028352916020019161092b565b820191905f5260205f20905b81548152906001019060200180831161090e57829003601f168201915b505050505081526020016002820154815260200160038201805461094e906121ea565b80601f016020809104026020016040519081016040528092919081815260200182805461097a906121ea565b80156109c55780601f1061099c576101008083540402835291602001916109c5565b820191905f5260205f20905b8154815290600101906020018083116109a857829003601f168201915b505050505081526020016004820180546109de906121ea565b80601f0160208091040260200160405190810160405280929190818152602001828054610a0a906121ea565b8015610a555780601f10610a2c57610100808354040283529160200191610a55565b820191905f5260205f20905b815481529060010190602001808311610a3857829003601f168201915b50505050508152602001600582015f9054906101000a900460ff166002811115610a8257610a81611e5a565b5b6002811115610a9457610a93611e5a565b5b81526020016005820160019054906101000a900460ff161515151581526020016006820154815250509050805f015181602001518260400151836060015184608001518560a001516002811115610aee57610aed611e5a565b5b8660c001518760e001519850985098509850985098509850985050919395975091939597565b5f5f60015f8681526020019081526020015f205f015403610b6a576040517f08c379a0000000000000000000000000000000000000000000000000000000008152600401610b6190611ed1565b60405180910390fd5b5f60025f8581526020019081526020015f205f015403610bbf576040517f08c379a0000000000000000000000000000000000000000000000000000000008152600401610bb690611d46565b60405180910390fd5b670de0b6b3a764000060025f8581526020019081526020015f20600601541015610c1e576040517f08c379a0000000000000000000000000000000000000000000000000000000008152600401610c1590612264565b60405180910390fd5b5f60048054905011610c65576040517f08c379a0000000000000000000000000000000000000000000000000000000008152600401610c5c906122cc565b60405180910390fd5b60308210610ca8576040517f08c379a0000000000000000000000000000000000000000000000000000000008152600401610c9f90612334565b60405180910390fd5b60035f8581526020019081526020015f205f8381526020019081526020015f206003015f9054906101000a900460ff1615610d18576040517f08c379a0000000000000000000000000000000000000000000000000000000008152600401610d0f9061239c565b60405180910390fd5b60405180608001604052808381526020018581526020018481526020016001151581525060035f8681526020019081526020015f205f8481526020019081526020015f205f820151815f015560208201518160010155604082015181600201556060820151816003015f6101000a81548160ff0219169083151502179055509050505f600480549050424486604051602001610db6939291906123da565b604051602081830303815290604052805190602001205f1c610dd89190611fed565b90505f60048281548110610def57610dee611f63565b5b905f5260205f2001549050670de0b6b3a764000060025f8781526020019081526020015f206006015f828254610e259190612416565b92505081905550670de0b6b3a76400005f5f8381526020019081526020015f206003015f828254610e56919061205e565b925050819055506001925050509392505050565b5f5f8311610ead576040517f08c379a0000000000000000000000000000000000000000000000000000000008152600401610ea490612493565b60405180910390fd5b5f8511610eef576040517f08c379a0000000000000000000000000000000000000000000000000000000008152600401610ee6906124fb565b60405180910390fd5b5f60015f8781526020019081526020015f205f015414610f44576040517f08c379a0000000000000000000000000000000000000000000000000000000008152600401610f3b90612563565b60405180910390fd5b60405180608001604052808681526020018581526020018481526020018381525060015f8781526020019081526020015f205f820151815f01556020820151816001019081610f939190612721565b50604082015181600201556060820151816003019081610fb39190612721565b50905050849050949350505050565b5f5f8211611005576040517f08c379a0000000000000000000000000000000000000000000000000000000008152600401610ffc90612493565b60405180910390fd5b5f8411611047576040517f08c379a000000000000000000000000000000000000000000000000000000000815260040161103e906124fb565b60405180910390fd5b5f5f5f8681526020019081526020015f205f01541461109b576040517f08c379a00000000000000000000000000000000000000000000000000000000081526004016110929061283a565b60405180910390fd5b60405180608001604052808581526020018481526020018381526020015f8152505f5f8681526020019081526020015f205f820151815f015560208201518160010190816110e99190612721565b506040820151816002015560608201518160030155905050600484908060018154018082558091505060019003905f5260205f20015f90919091909150558390509392505050565b5f5f8611611174576040517f08c379a000000000000000000000000000000000000000000000000000000000815260040161116b90612493565b60405180910390fd5b5f88116111b6576040517f08c379a00000000000000000000000000000000000000000000000000000000081526004016111ad906124fb565b60405180910390fd5b5f60025f8a81526020019081526020015f205f01541461120b576040517f08c379a0000000000000000000000000000000000000000000000000000000008152600401611202906128a2565b60405180910390fd5b600283111561124f576040517f08c379a000000000000000000000000000000000000000000000000000000000815260040161124690611dae565b60405180910390fd5b60405180610100016040528089815260200188815260200187815260200186815260200185815260200184600281111561128c5761128b611e5a565b5b600281111561129e5761129d611e5a565b5b81526020018315158152602001678ac7230489e8000081525060025f8a81526020019081526020015f205f820151815f015560208201518160010190816112e59190612721565b506040820151816002015560608201518160030190816113059190612721565b50608082015181600401908161131b9190612721565b5060a0820151816005015f6101000a81548160ff0219169083600281111561134657611345611e5a565b5b021790555060c08201518160050160016101000a81548160ff02191690831515021790555060e08201518160060155905050879050979650505050505050565b60605f82036113cc576040518060400160405280600181526020017f30000000000000000000000000000000000000000000000000000000000000008152509050611519565b600a82101561140b578160306113e2919061205e565b60f81b6040516020016113f59190612955565b6040516020818303038152906040529050611519565b5f8290505f5b5f821461143a57808061142390611f1c565b915050600a826114339190611fbd565b9150611411565b5f8167ffffffffffffffff811115611455576114546119c6565b5b6040519080825280601f01601f1916602001820160405280156114875781602001600182028036833780820191505090505b5090505b5f85146115125760018261149f9190612416565b9150600a856114ae9190611fed565b60306114ba919061205e565b60f81b8183815181106114d0576114cf611f63565b5b60200101907effffffffffffffffffffffffffffffffffffffffffffffffffffffffffffff191690815f1a905350600a8561150b9190611fbd565b945061148b565b8093505050505b919050565b5f604051905090565b5f5ffd5b5f5ffd5b5f819050919050565b6115418161152f565b811461154b575f5ffd5b50565b5f8135905061155c81611538565b92915050565b5f8115159050919050565b61157681611562565b8114611580575f5ffd5b50565b5f813590506115918161156d565b92915050565b5f5f5f606084860312156115ae576115ad611527565b5b5f6115bb8682870161154e565b93505060206115cc8682870161154e565b92505060406115dd86828701611583565b9150509250925092565b5f602082840312156115fc576115fb611527565b5b5f6116098482850161154e565b91505092915050565b5f81519050919050565b5f82825260208201905092915050565b5f819050602082019050919050565b6116448161152f565b82525050565b5f611655838361163b565b60208301905092915050565b5f602082019050919050565b5f61167782611612565b611681818561161c565b935061168c8361162c565b805f5b838110156116bc5781516116a3888261164a565b97506116ae83611661565b92505060018101905061168f565b5085935050505092915050565b5f81519050919050565b5f82825260208201905092915050565b5f819050602082019050919050565b5f81519050919050565b5f82825260208201905092915050565b8281835e5f83830152505050565b5f601f19601f8301169050919050565b5f611734826116f2565b61173e81856116fc565b935061174e81856020860161170c565b6117578161171a565b840191505092915050565b5f61176d838361172a565b905092915050565b5f602082019050919050565b5f61178b826116c9565b61179581856116d3565b9350836020820285016117a7856116e3565b805f5b858110156117e257848403895281516117c38582611762565b94506117ce83611775565b925060208a019950506001810190506117aa565b50829750879550505050505092915050565b5f6040820190508181035f83015261180c818561166d565b905081810360208301526118208184611781565b90509392505050565b5f6040820190508181035f830152611841818561166d565b90508181036020830152611855818461166d565b90509392505050565b6118678161152f565b82525050565b5f82825260208201905092915050565b5f611887826116f2565b611891818561186d565b93506118a181856020860161170c565b6118aa8161171a565b840191505092915050565b6118be81611562565b82525050565b5f610100820190506118d85f83018b61185e565b81810360208301526118ea818a61187d565b90506118f9604083018961185e565b818103606083015261190b818861187d565b9050818103608083015261191f818761187d565b905061192e60a083018661185e565b61193b60c08301856118b5565b61194860e083018461185e565b9998505050505050505050565b5f5f5f6060848603121561196c5761196b611527565b5b5f6119798682870161154e565b935050602061198a8682870161154e565b925050604061199b8682870161154e565b9150509250925092565b5f6020820190506119b85f8301846118b5565b92915050565b5f5ffd5b5f5ffd5b7f4e487b71000000000000000000000000000000000000000000000000000000005f52604160045260245ffd5b6119fc8261171a565b810181811067ffffffffffffffff82111715611a1b57611a1a6119c6565b5b80604052505050565b5f611a2d61151e565b9050611a3982826119f3565b919050565b5f67ffffffffffffffff821115611a5857611a576119c6565b5b611a618261171a565b9050602081019050919050565b828183375f83830152505050565b5f611a8e611a8984611a3e565b611a24565b905082815260208101848484011115611aaa57611aa96119c2565b5b611ab5848285611a6e565b509392505050565b5f82601f830112611ad157611ad06119be565b5b8135611ae1848260208601611a7c565b91505092915050565b5f5f5f5f60808587031215611b0257611b01611527565b5b5f611b0f8782880161154e565b945050602085013567ffffffffffffffff811115611b3057611b2f61152b565b5b611b3c87828801611abd565b9350506040611b4d8782880161154e565b925050606085013567ffffffffffffffff811115611b6e57611b6d61152b565b5b611b7a87828801611abd565b91505092959194509250565b5f602082019050611b995f83018461185e565b92915050565b5f5f5f60608486031215611bb657611bb5611527565b5b5f611bc38682870161154e565b935050602084013567ffffffffffffffff811115611be457611be361152b565b5b611bf086828701611abd565b9250506040611c018682870161154e565b9150509250925092565b5f5f5f5f5f5f5f60e0888a031215611c2657611c25611527565b5b5f611c338a828b0161154e565b975050602088013567ffffffffffffffff811115611c5457611c5361152b565b5b611c608a828b01611abd565b9650506040611c718a828b0161154e565b955050606088013567ffffffffffffffff811115611c9257611c9161152b565b5b611c9e8a828b01611abd565b945050608088013567ffffffffffffffff811115611cbf57611cbe61152b565b5b611ccb8a828b01611abd565b93505060a0611cdc8a828b0161154e565b92505060c0611ced8a828b01611583565b91505092959891949750929550565b7f5061727469636970616e74206e6f7420666f756e6400000000000000000000005f82015250565b5f611d3060158361186d565b9150611d3b82611cfc565b602082019050919050565b5f6020820190508181035f830152611d5d81611d24565b9050919050565b7f496e76616c696420747261696e696e6720696e746572657374000000000000005f82015250565b5f611d9860198361186d565b9150611da382611d64565b602082019050919050565b5f6020820190508181035f830152611dc581611d8c565b9050919050565b7f43616e6e6f74206368616e676520636f6d706c657465642066726f6d207472755f8201527f6520746f2066616c736500000000000000000000000000000000000000000000602082015250565b5f611e26602a8361186d565b9150611e3182611dcc565b604082019050919050565b5f6020820190508181035f830152611e5381611e1a565b9050919050565b7f4e487b71000000000000000000000000000000000000000000000000000000005f52602160045260245ffd5b7f547261696e6572206e6f7420666f756e640000000000000000000000000000005f82015250565b5f611ebb60118361186d565b9150611ec682611e87565b602082019050919050565b5f6020820190508181035f830152611ee881611eaf565b9050919050565b7f4e487b71000000000000000000000000000000000000000000000000000000005f52601160045260245ffd5b5f611f268261152f565b91507fffffffffffffffffffffffffffffffffffffffffffffffffffffffffffffffff8203611f5857611f57611eef565b5b600182019050919050565b7f4e487b71000000000000000000000000000000000000000000000000000000005f52603260045260245ffd5b7f4e487b71000000000000000000000000000000000000000000000000000000005f52601260045260245ffd5b5f611fc78261152f565b9150611fd28361152f565b925082611fe257611fe1611f90565b5b828204905092915050565b5f611ff78261152f565b91506120028361152f565b92508261201257612011611f90565b5b828206905092915050565b5f6120278261152f565b91506120328361152f565b92508282026120408161152f565b9150828204841483151761205757612056611eef565b5b5092915050565b5f6120688261152f565b91506120738361152f565b925082820190508082111561208b5761208a611eef565b5b92915050565b5f81905092915050565b5f6120a5826116f2565b6120af8185612091565b93506120bf81856020860161170c565b80840191505092915050565b7f3a000000000000000000000000000000000000000000000000000000000000005f82015250565b5f6120ff600183612091565b915061210a826120cb565b600182019050919050565b7f2d000000000000000000000000000000000000000000000000000000000000005f82015250565b5f612149600183612091565b915061215482612115565b600182019050919050565b5f61216a828761209b565b9150612175826120f3565b9150612181828661209b565b915061218c8261213d565b9150612198828561209b565b91506121a3826120f3565b91506121af828461209b565b915081905095945050505050565b7f4e487b71000000000000000000000000000000000000000000000000000000005f52602260045260245ffd5b5f600282049050600182168061220157607f821691505b602082108103612214576122136121bd565b5b50919050565b7f496e73756666696369656e74207061727469636970616e742062616c616e63655f82015250565b5f61224e60208361186d565b91506122598261221a565b602082019050919050565b5f6020820190508181035f83015261227b81612242565b9050919050565b7f4e6f2061646d696e7320617661696c61626c65000000000000000000000000005f82015250565b5f6122b660138361186d565b91506122c182612282565b602082019050919050565b5f6020820190508181035f8301526122e3816122aa565b9050919050565b7f496e76616c696420736c6f7420494400000000000000000000000000000000005f82015250565b5f61231e600f8361186d565b9150612329826122ea565b602082019050919050565b5f6020820190508181035f83015261234b81612312565b9050919050565b7f536c6f7420697320616c726561647920626f6f6b6564000000000000000000005f82015250565b5f61238660168361186d565b915061239182612352565b602082019050919050565b5f6020820190508181035f8301526123b38161237a565b9050919050565b5f819050919050565b6123d46123cf8261152f565b6123ba565b82525050565b5f6123e582866123c3565b6020820191506123f582856123c3565b60208201915061240582846123c3565b602082019150819050949350505050565b5f6124208261152f565b915061242b8361152f565b925082820390508181111561244357612442611eef565b5b92915050565b7f496e76616c6964206167650000000000000000000000000000000000000000005f82015250565b5f61247d600b8361186d565b915061248882612449565b602082019050919050565b5f6020820190508181035f8301526124aa81612471565b9050919050565b7f496e76616c6964204944000000000000000000000000000000000000000000005f82015250565b5f6124e5600a8361186d565b91506124f0826124b1565b602082019050919050565b5f6020820190508181035f830152612512816124d9565b9050919050565b7f547261696e657220494420616c726561647920657869737473000000000000005f82015250565b5f61254d60198361186d565b915061255882612519565b602082019050919050565b5f6020820190508181035f83015261257a81612541565b9050919050565b5f819050815f5260205f209050919050565b5f6020601f8301049050919050565b5f82821b905092915050565b5f600883026125dd7fffffffffffffffffffffffffffffffffffffffffffffffffffffffffffffffff826125a2565b6125e786836125a2565b95508019841693508086168417925050509392505050565b5f819050919050565b5f61262261261d6126188461152f565b6125ff565b61152f565b9050919050565b5f819050919050565b61263b83612608565b61264f61264782612629565b8484546125ae565b825550505050565b5f5f905090565b612666612657565b612671818484612632565b505050565b5b81811015612694576126895f8261265e565b600181019050612677565b5050565b601f8211156126d9576126aa81612581565b6126b384612593565b810160208510156126c2578190505b6126d66126ce85612593565b830182612676565b50505b505050565b5f82821c905092915050565b5f6126f95f19846008026126de565b1980831691505092915050565b5f61271183836126ea565b9150826002028217905092915050565b61272a826116f2565b67ffffffffffffffff811115612743576127426119c6565b5b61274d82546121ea565b612758828285612698565b5f60209050601f831160018114612789575f8415612777578287015190505b6127818582612706565b8655506127e8565b601f19841661279786612581565b5f5b828110156127be57848901518255600182019150602085019450602081019050612799565b868310156127db57848901516127d7601f8916826126ea565b8355505b6001600288020188555050505b505050505050565b7f41646d696e20494420616c7265616479206578697374730000000000000000005f82015250565b5f61282460178361186d565b915061282f826127f0565b602082019050919050565b5f6020820190508181035f83015261285181612818565b9050919050565b7f5061727469636970616e7420494420616c7265616479206578697374730000005f82015250565b5f61288c601d8361186d565b915061289782612858565b602082019050919050565b5f6020820190508181035f8301526128b981612880565b9050919050565b7f30000000000000000000000000000000000000000000000000000000000000005f82015250565b5f6128f4600183612091565b91506128ff826128c0565b600182019050919050565b5f7fff0000000000000000000000000000000000000000000000000000000000000082169050919050565b5f819050919050565b61294f61294a8261290a565b612935565b82525050565b5f61295f826128e8565b915061296b828461293e565b6001820191508190509291505056fea2646970667358221220345c8e02a7322d450fa7af048fec2bd5f758c01913d9241e301db96619a8b3b064736f6c634300081e0033",
					"opcodes": "PUSH1 0x80 PUSH1 0x40 MSTORE CALLVALUE DUP1 ISZERO PUSH1 0xE JUMPI PUSH0 PUSH0 REVERT JUMPDEST POP PUSH2 0x29B0 DUP1 PUSH2 0x1C PUSH0 CODECOPY PUSH0 RETURN INVALID PUSH1 0x80 PUSH1 0x40 MSTORE CALLVALUE DUP1 ISZERO PUSH2 0xF JUMPI PUSH0 PUSH0 REVERT JUMPDEST POP PUSH1 0x4 CALLDATASIZE LT PUSH2 0x86 JUMPI PUSH0 CALLDATALOAD PUSH1 0xE0 SHR DUP1 PUSH4 0x6620F95F GT PUSH2 0x59 JUMPI DUP1 PUSH4 0x6620F95F EQ PUSH2 0x12D JUMPI DUP1 PUSH4 0x6C80CD33 EQ PUSH2 0x15D JUMPI DUP1 PUSH4 0x710E2ABA EQ PUSH2 0x18D JUMPI DUP1 PUSH4 0xA30B027B EQ PUSH2 0x1BD JUMPI PUSH2 0x86 JUMP JUMPDEST DUP1 PUSH4 0x3A7002E1 EQ PUSH2 0x8A JUMPI DUP1 PUSH4 0x51ECA4DD EQ PUSH2 0xA6 JUMPI DUP1 PUSH4 0x5A29DC29 EQ PUSH2 0xD7 JUMPI DUP1 PUSH4 0x5FFC80F2 EQ PUSH2 0xF6 JUMPI JUMPDEST PUSH0 PUSH0 REVERT JUMPDEST PUSH2 0xA4 PUSH1 0x4 DUP1 CALLDATASIZE SUB DUP2 ADD SWAP1 PUSH2 0x9F SWAP2 SWAP1 PUSH2 0x1597 JUMP JUMPDEST PUSH2 0x1ED JUMP JUMPDEST STOP JUMPDEST PUSH2 0xC0 PUSH1 0x4 DUP1 CALLDATASIZE SUB DUP2 ADD SWAP1 PUSH2 0xBB SWAP2 SWAP1 PUSH2 0x15E7 JUMP JUMPDEST PUSH2 0x353 JUMP JUMPDEST PUSH1 0x40 MLOAD PUSH2 0xCE SWAP3 SWAP2 SWAP1 PUSH2 0x17F4 JUMP JUMPDEST PUSH1 0x40 MLOAD DUP1 SWAP2 SUB SWAP1 RETURN JUMPDEST PUSH2 0xDF PUSH2 0x6D5 JUMP JUMPDEST PUSH1 0x40 MLOAD PUSH2 0xED SWAP3 SWAP2 SWAP1 PUSH2 0x1829 JUMP JUMPDEST PUSH1 0x40 MLOAD DUP1 SWAP2 SUB SWAP1 RETURN JUMPDEST PUSH2 0x110 PUSH1 0x4 DUP1 CALLDATASIZE SUB DUP2 ADD SWAP1 PUSH2 0x10B SWAP2 SWAP1 PUSH2 0x15E7 JUMP JUMPDEST PUSH2 0x81E JUMP JUMPDEST PUSH1 0x40 MLOAD PUSH2 0x124 SWAP9 SWAP8 SWAP7 SWAP6 SWAP5 SWAP4 SWAP3 SWAP2 SWAP1 PUSH2 0x18C4 JUMP JUMPDEST PUSH1 0x40 MLOAD DUP1 SWAP2 SUB SWAP1 RETURN JUMPDEST PUSH2 0x147 PUSH1 0x4 DUP1 CALLDATASIZE SUB DUP2 ADD SWAP1 PUSH2 0x142 SWAP2 SWAP1 PUSH2 0x1955 JUMP JUMPDEST PUSH2 0xB14 JUMP JUMPDEST PUSH1 0x40 MLOAD PUSH2 0x154 SWAP2 SWAP1 PUSH2 0x19A5 JUMP JUMPDEST PUSH1 0x40 MLOAD DUP1 SWAP2 SUB SWAP1 RETURN JUMPDEST PUSH2 0x177 PUSH1 0x4 DUP1 CALLDATASIZE SUB DUP2 ADD SWAP1 PUSH2 0x172 SWAP2 SWAP1 PUSH2 0x1AEA JUMP JUMPDEST PUSH2 0xE6A JUMP JUMPDEST PUSH1 0x40 MLOAD PUSH2 0x184 SWAP2 SWAP1 PUSH2 0x1B86 JUMP JUMPDEST PUSH1 0x40 MLOAD DUP1 SWAP2 SUB SWAP1 RETURN JUMPDEST PUSH2 0x1A7 PUSH1 0x4 DUP1 CALLDATASIZE SUB DUP2 ADD SWAP1 PUSH2 0x1A2 SWAP2 SWAP1 PUSH2 0x1B9F JUMP JUMPDEST PUSH2 0xFC2 JUMP JUMPDEST PUSH1 0x40 MLOAD PUSH2 0x1B4 SWAP2 SWAP1 PUSH2 0x1B86 JUMP JUMPDEST PUSH1 0x40 MLOAD DUP1 SWAP2 SUB SWAP1 RETURN JUMPDEST PUSH2 0x1D7 PUSH1 0x4 DUP1 CALLDATASIZE SUB DUP2 ADD SWAP1 PUSH2 0x1D2 SWAP2 SWAP1 PUSH2 0x1C0B JUMP JUMPDEST PUSH2 0x1131 JUMP JUMPDEST PUSH1 0x40 MLOAD PUSH2 0x1E4 SWAP2 SWAP1 PUSH2 0x1B86 JUMP JUMPDEST PUSH1 0x40 MLOAD DUP1 SWAP2 SUB SWAP1 RETURN JUMPDEST PUSH0 PUSH1 0x2 PUSH0 DUP6 DUP2 MSTORE PUSH1 0x20 ADD SWAP1 DUP2 MSTORE PUSH1 0x20 ADD PUSH0 KECCAK256 PUSH0 ADD SLOAD SUB PUSH2 0x242 JUMPI PUSH1 0x40 MLOAD PUSH32 0x8C379A000000000000000000000000000000000000000000000000000000000 DUP2 MSTORE PUSH1 0x4 ADD PUSH2 0x239 SWAP1 PUSH2 0x1D46 JUMP JUMPDEST PUSH1 0x40 MLOAD DUP1 SWAP2 SUB SWAP1 REVERT JUMPDEST PUSH1 0x2 DUP3 GT ISZERO PUSH2 0x286 JUMPI PUSH1 0x40 MLOAD PUSH32 0x8C379A000000000000000000000000000000000000000000000000000000000 DUP2 MSTORE PUSH1 0x4 ADD PUSH2 0x27D SWAP1 PUSH2 0x1DAE JUMP JUMPDEST PUSH1 0x40 MLOAD DUP1 SWAP2 SUB SWAP1 REVERT JUMPDEST PUSH0 PUSH1 0x2 PUSH0 DUP6 DUP2 MSTORE PUSH1 0x20 ADD SWAP1 DUP2 MSTORE PUSH1 0x20 ADD PUSH0 KECCAK256 SWAP1 POP DUP1 PUSH1 0x5 ADD PUSH1 0x1 SWAP1 SLOAD SWAP1 PUSH2 0x100 EXP SWAP1 DIV PUSH1 0xFF AND ISZERO DUP1 PUSH2 0x2B5 JUMPI POP DUP2 JUMPDEST PUSH2 0x2F4 JUMPI PUSH1 0x40 MLOAD PUSH32 0x8C379A000000000000000000000000000000000000000000000000000000000 DUP2 MSTORE PUSH1 0x4 ADD PUSH2 0x2EB SWAP1 PUSH2 0x1E3C JUMP JUMPDEST PUSH1 0x40 MLOAD DUP1 SWAP2 SUB SWAP1 REVERT JUMPDEST DUP3 PUSH1 0x2 DUP2 GT ISZERO PUSH2 0x307 JUMPI PUSH2 0x306 PUSH2 0x1E5A JUMP JUMPDEST JUMPDEST DUP2 PUSH1 0x5 ADD PUSH0 PUSH2 0x100 EXP DUP2 SLOAD DUP2 PUSH1 0xFF MUL NOT AND SWAP1 DUP4 PUSH1 0x2 DUP2 GT ISZERO PUSH2 0x32C JUMPI PUSH2 0x32B PUSH2 0x1E5A JUMP JUMPDEST JUMPDEST MUL OR SWAP1 SSTORE POP DUP2 DUP2 PUSH1 0x5 ADD PUSH1 0x1 PUSH2 0x100 EXP DUP2 SLOAD DUP2 PUSH1 0xFF MUL NOT AND SWAP1 DUP4 ISZERO ISZERO MUL OR SWAP1 SSTORE POP POP POP POP POP JUMP JUMPDEST PUSH1 0x60 DUP1 PUSH0 PUSH1 0x1 PUSH0 DUP6 DUP2 MSTORE PUSH1 0x20 ADD SWAP1 DUP2 MSTORE PUSH1 0x20 ADD PUSH0 KECCAK256 PUSH0 ADD SLOAD SUB PUSH2 0x3AB JUMPI PUSH1 0x40 MLOAD PUSH32 0x8C379A000000000000000000000000000000000000000000000000000000000 DUP2 MSTORE PUSH1 0x4 ADD PUSH2 0x3A2 SWAP1 PUSH2 0x1ED1 JUMP JUMPDEST PUSH1 0x40 MLOAD DUP1 SWAP2 SUB SWAP1 REVERT JUMPDEST PUSH0 PUSH0 SWAP1 POP PUSH0 PUSH0 SWAP1 POP JUMPDEST PUSH1 0x30 DUP2 LT ISZERO PUSH2 0x40D JUMPI PUSH1 0x3 PUSH0 DUP7 DUP2 MSTORE PUSH1 0x20 ADD SWAP1 DUP2 MSTORE PUSH1 0x20 ADD PUSH0 KECCAK256 PUSH0 DUP3 DUP2 MSTORE PUSH1 0x20 ADD SWAP1 DUP2 MSTORE PUSH1 0x20 ADD PUSH0 KECCAK256 PUSH1 0x3 ADD PUSH0 SWAP1 SLOAD SWAP1 PUSH2 0x100 EXP SWAP1 DIV PUSH1 0xFF AND PUSH2 0x400 JUMPI DUP2 DUP1 PUSH2 0x3FC SWAP1 PUSH2 0x1F1C JUMP JUMPDEST SWAP3 POP POP JUMPDEST DUP1 DUP1 PUSH1 0x1 ADD SWAP2 POP POP PUSH2 0x3B4 JUMP JUMPDEST POP DUP1 PUSH8 0xFFFFFFFFFFFFFFFF DUP2 GT ISZERO PUSH2 0x428 JUMPI PUSH2 0x427 PUSH2 0x19C6 JUMP JUMPDEST JUMPDEST PUSH1 0x40 MLOAD SWAP1 DUP1 DUP3 MSTORE DUP1 PUSH1 0x20 MUL PUSH1 0x20 ADD DUP3 ADD PUSH1 0x40 MSTORE DUP1 ISZERO PUSH2 0x456 JUMPI DUP2 PUSH1 0x20 ADD PUSH1 0x20 DUP3 MUL DUP1 CALLDATASIZE DUP4 CALLDATACOPY DUP1 DUP3 ADD SWAP2 POP POP SWAP1 POP JUMPDEST POP SWAP3 POP DUP1 PUSH8 0xFFFFFFFFFFFFFFFF DUP2 GT ISZERO PUSH2 0x473 JUMPI PUSH2 0x472 PUSH2 0x19C6 JUMP JUMPDEST JUMPDEST PUSH1 0x40 MLOAD SWAP1 DUP1 DUP3 MSTORE DUP1 PUSH1 0x20 MUL PUSH1 0x20 ADD DUP3 ADD PUSH1 0x40 MSTORE DUP1 ISZERO PUSH2 0x4A6 JUMPI DUP2 PUSH1 0x20 ADD JUMPDEST PUSH1 0x60 DUP2 MSTORE PUSH1 0x20 ADD SWAP1 PUSH1 0x1 SWAP1 SUB SWAP1 DUP2 PUSH2 0x491 JUMPI SWAP1 POP JUMPDEST POP SWAP2 POP PUSH0 PUSH0 SWAP1 POP PUSH0 PUSH0 SWAP1 POP JUMPDEST PUSH1 0x30 DUP2 LT ISZERO PUSH2 0x6CD JUMPI PUSH1 0x3 PUSH0 DUP8 DUP2 MSTORE PUSH1 0x20 ADD SWAP1 DUP2 MSTORE PUSH1 0x20 ADD PUSH0 KECCAK256 PUSH0 DUP3 DUP2 MSTORE PUSH1 0x20 ADD SWAP1 DUP2 MSTORE PUSH1 0x20 ADD PUSH0 KECCAK256 PUSH1 0x3 ADD PUSH0 SWAP1 SLOAD SWAP1 PUSH2 0x100 EXP SWAP1 DIV PUSH1 0xFF AND PUSH2 0x6C0 JUMPI DUP1 DUP6 DUP4 DUP2 MLOAD DUP2 LT PUSH2 0x503 JUMPI PUSH2 0x502 PUSH2 0x1F63 JUMP JUMPDEST JUMPDEST PUSH1 0x20 MUL PUSH1 0x20 ADD ADD DUP2 DUP2 MSTORE POP POP PUSH0 PUSH1 0x2 DUP3 PUSH2 0x51D SWAP2 SWAP1 PUSH2 0x1FBD JUMP JUMPDEST SWAP1 POP PUSH0 PUSH1 0x1E PUSH1 0x2 DUP5 PUSH2 0x52F SWAP2 SWAP1 PUSH2 0x1FED JUMP JUMPDEST PUSH2 0x539 SWAP2 SWAP1 PUSH2 0x201D JUMP JUMPDEST SWAP1 POP PUSH0 DUP3 SWAP1 POP PUSH0 PUSH1 0x1E DUP4 PUSH2 0x54D SWAP2 SWAP1 PUSH2 0x205E JUMP JUMPDEST SWAP1 POP PUSH1 0x3C DUP2 SUB PUSH2 0x569 JUMPI DUP2 DUP1 PUSH2 0x562 SWAP1 PUSH2 0x1F1C JUMP JUMPDEST SWAP3 POP POP PUSH0 SWAP1 POP JUMPDEST PUSH2 0x572 DUP5 PUSH2 0x1386 JUMP JUMPDEST PUSH0 DUP5 EQ PUSH2 0x5B4 JUMPI PUSH1 0x40 MLOAD DUP1 PUSH1 0x40 ADD PUSH1 0x40 MSTORE DUP1 PUSH1 0x2 DUP2 MSTORE PUSH1 0x20 ADD PUSH32 0x3330000000000000000000000000000000000000000000000000000000000000 DUP2 MSTORE POP PUSH2 0x5EB JUMP JUMPDEST PUSH1 0x40 MLOAD DUP1 PUSH1 0x40 ADD PUSH1 0x40 MSTORE DUP1 PUSH1 0x2 DUP2 MSTORE PUSH1 0x20 ADD PUSH32 0x3030000000000000000000000000000000000000000000000000000000000000 DUP2 MSTORE POP JUMPDEST PUSH2 0x5F4 DUP5 PUSH2 0x1386 JUMP JUMPDEST PUSH0 DUP5 EQ PUSH2 0x636 JUMPI PUSH1 0x40 MLOAD DUP1 PUSH1 0x40 ADD PUSH1 0x40 MSTORE DUP1 PUSH1 0x2 DUP2 MSTORE PUSH1 0x20 ADD PUSH32 0x3330000000000000000000000000000000000000000000000000000000000000 DUP2 MSTORE POP PUSH2 0x66D JUMP JUMPDEST PUSH1 0x40 MLOAD DUP1 PUSH1 0x40 ADD PUSH1 0x40 MSTORE DUP1 PUSH1 0x2 DUP2 MSTORE PUSH1 0x20 ADD PUSH32 0x3030000000000000000000000000000000000000000000000000000000000000 DUP2 MSTORE POP JUMPDEST PUSH1 0x40 MLOAD PUSH1 0x20 ADD PUSH2 0x680 SWAP5 SWAP4 SWAP3 SWAP2 SWAP1 PUSH2 0x215F JUMP JUMPDEST PUSH1 0x40 MLOAD PUSH1 0x20 DUP2 DUP4 SUB SUB DUP2 MSTORE SWAP1 PUSH1 0x40 MSTORE DUP9 DUP8 DUP2 MLOAD DUP2 LT PUSH2 0x6A2 JUMPI PUSH2 0x6A1 PUSH2 0x1F63 JUMP JUMPDEST JUMPDEST PUSH1 0x20 MUL PUSH1 0x20 ADD ADD DUP2 SWAP1 MSTORE POP DUP6 DUP1 PUSH2 0x6B8 SWAP1 PUSH2 0x1F1C JUMP JUMPDEST SWAP7 POP POP POP POP POP POP JUMPDEST DUP1 DUP1 PUSH1 0x1 ADD SWAP2 POP POP PUSH2 0x4B2 JUMP JUMPDEST POP POP POP SWAP2 POP SWAP2 JUMP JUMPDEST PUSH1 0x60 DUP1 PUSH0 PUSH1 0x4 DUP1 SLOAD SWAP1 POP SWAP1 POP DUP1 PUSH8 0xFFFFFFFFFFFFFFFF DUP2 GT ISZERO PUSH2 0x6FB JUMPI PUSH2 0x6FA PUSH2 0x19C6 JUMP JUMPDEST JUMPDEST PUSH1 0x40 MLOAD SWAP1 DUP1 DUP3 MSTORE DUP1 PUSH1 0x20 MUL PUSH1 0x20 ADD DUP3 ADD PUSH1 0x40 MSTORE DUP1 ISZERO PUSH2 0x729 JUMPI DUP2 PUSH1 0x20 ADD PUSH1 0x20 DUP3 MUL DUP1 CALLDATASIZE DUP4 CALLDATACOPY DUP1 DUP3 ADD SWAP2 POP POP SWAP1 POP JUMPDEST POP SWAP3 POP DUP1 PUSH8 0xFFFFFFFFFFFFFFFF DUP2 GT ISZERO PUSH2 0x746 JUMPI PUSH2 0x745 PUSH2 0x19C6 JUMP JUMPDEST JUMPDEST PUSH1 0x40 MLOAD SWAP1 DUP1 DUP3 MSTORE DUP1 PUSH1 0x20 MUL PUSH1 0x20 ADD DUP3 ADD PUSH1 0x40 MSTORE DUP1 ISZERO PUSH2 0x774 JUMPI DUP2 PUSH1 0x20 ADD PUSH1 0x20 DUP3 MUL DUP1 CALLDATASIZE DUP4 CALLDATACOPY DUP1 DUP3 ADD SWAP2 POP POP SWAP1 POP JUMPDEST POP SWAP2 POP PUSH0 PUSH0 SWAP1 POP JUMPDEST DUP2 DUP2 LT ISZERO PUSH2 0x818 JUMPI PUSH0 PUSH1 0x4 DUP3 DUP2 SLOAD DUP2 LT PUSH2 0x799 JUMPI PUSH2 0x798 PUSH2 0x1F63 JUMP JUMPDEST JUMPDEST SWAP1 PUSH0 MSTORE PUSH1 0x20 PUSH0 KECCAK256 ADD SLOAD SWAP1 POP DUP1 DUP6 DUP4 DUP2 MLOAD DUP2 LT PUSH2 0x7B8 JUMPI PUSH2 0x7B7 PUSH2 0x1F63 JUMP JUMPDEST JUMPDEST PUSH1 0x20 MUL PUSH1 0x20 ADD ADD DUP2 DUP2 MSTORE POP POP PUSH8 0xDE0B6B3A7640000 PUSH0 PUSH0 DUP4 DUP2 MSTORE PUSH1 0x20 ADD SWAP1 DUP2 MSTORE PUSH1 0x20 ADD PUSH0 KECCAK256 PUSH1 0x3 ADD SLOAD PUSH2 0x7EB SWAP2 SWAP1 PUSH2 0x1FBD JUMP JUMPDEST DUP5 DUP4 DUP2 MLOAD DUP2 LT PUSH2 0x7FE JUMPI PUSH2 0x7FD PUSH2 0x1F63 JUMP JUMPDEST JUMPDEST PUSH1 0x20 MUL PUSH1 0x20 ADD ADD DUP2 DUP2 MSTORE POP POP POP DUP1 DUP1 PUSH1 0x1 ADD SWAP2 POP POP PUSH2 0x77C JUMP JUMPDEST POP POP SWAP1 SWAP2 JUMP JUMPDEST PUSH0 PUSH1 0x60 PUSH0 PUSH1 0x60 DUP1 PUSH0 PUSH0 PUSH0 PUSH0 PUSH1 0x2 PUSH0 DUP12 DUP2 MSTORE PUSH1 0x20 ADD SWAP1 DUP2 MSTORE PUSH1 0x20 ADD PUSH0 KECCAK256 PUSH0 ADD SLOAD SUB PUSH2 0x87D JUMPI PUSH1 0x40 MLOAD PUSH32 0x8C379A000000000000000000000000000000000000000000000000000000000 DUP2 MSTORE PUSH1 0x4 ADD PUSH2 0x874 SWAP1 PUSH2 0x1D46 JUMP JUMPDEST PUSH1 0x40 MLOAD DUP1 SWAP2 SUB SWAP1 REVERT JUMPDEST PUSH0 PUSH1 0x2 PUSH0 DUP12 DUP2 MSTORE PUSH1 0x20 ADD SWAP1 DUP2 MSTORE PUSH1 0x20 ADD PUSH0 KECCAK256 PUSH1 0x40 MLOAD DUP1 PUSH2 0x100 ADD PUSH1 0x40 MSTORE SWAP1 DUP2 PUSH0 DUP3 ADD SLOAD DUP2 MSTORE PUSH1 0x20 ADD PUSH1 0x1 DUP3 ADD DUP1 SLOAD PUSH2 0x8B4 SWAP1 PUSH2 0x21EA JUMP JUMPDEST DUP1 PUSH1 0x1F ADD PUSH1 0x20 DUP1 SWAP2 DIV MUL PUSH1 0x20 ADD PUSH1 0x40 MLOAD SWAP1 DUP2 ADD PUSH1 0x40 MSTORE DUP1 SWAP3 SWAP2 SWAP1 DUP2 DUP2 MSTORE PUSH1 0x20 ADD DUP3 DUP1 SLOAD PUSH2 0x8E0 SWAP1 PUSH2 0x21EA JUMP JUMPDEST DUP1 ISZERO PUSH2 0x92B JUMPI DUP1 PUSH1 0x1F LT PUSH2 0x902 JUMPI PUSH2 0x100 DUP1 DUP4 SLOAD DIV MUL DUP4 MSTORE SWAP2 PUSH1 0x20 ADD SWAP2 PUSH2 0x92B JUMP JUMPDEST DUP3 ADD SWAP2 SWAP1 PUSH0 MSTORE PUSH1 0x20 PUSH0 KECCAK256 SWAP1 JUMPDEST DUP2 SLOAD DUP2 MSTORE SWAP1 PUSH1 0x1 ADD SWAP1 PUSH1 0x20 ADD DUP1 DUP4 GT PUSH2 0x90E JUMPI DUP3 SWAP1 SUB PUSH1 0x1F AND DUP3 ADD SWAP2 JUMPDEST POP POP POP POP POP DUP2 MSTORE PUSH1 0x20 ADD PUSH1 0x2 DUP3 ADD SLOAD DUP2 MSTORE PUSH1 0x20 ADD PUSH1 0x3 DUP3 ADD DUP1 SLOAD PUSH2 0x94E SWAP1 PUSH2 0x21EA JUMP JUMPDEST DUP1 PUSH1 0x1F ADD PUSH1 0x20 DUP1 SWAP2 DIV MUL PUSH1 0x20 ADD PUSH1 0x40 MLOAD SWAP1 DUP2 ADD PUSH1 0x40 MSTORE DUP1 SWAP3 SWAP2 SWAP1 DUP2 DUP2 MSTORE PUSH1 0x20 ADD DUP3 DUP1 SLOAD PUSH2 0x97A SWAP1 PUSH2 0x21EA JUMP JUMPDEST DUP1 ISZERO PUSH2 0x9C5 JUMPI DUP1 PUSH1 0x1F LT PUSH2 0x99C JUMPI PUSH2 0x100 DUP1 DUP4 SLOAD DIV MUL DUP4 MSTORE SWAP2 PUSH1 0x20 ADD SWAP2 PUSH2 0x9C5 JUMP JUMPDEST DUP3 ADD SWAP2 SWAP1 PUSH0 MSTORE PUSH1 0x20 PUSH0 KECCAK256 SWAP1 JUMPDEST DUP2 SLOAD DUP2 MSTORE SWAP1 PUSH1 0x1 ADD SWAP1 PUSH1 0x20 ADD DUP1 DUP4 GT PUSH2 0x9A8 JUMPI DUP3 SWAP1 SUB PUSH1 0x1F AND DUP3 ADD SWAP2 JUMPDEST POP POP POP POP POP DUP2 MSTORE PUSH1 0x20 ADD PUSH1 0x4 DUP3 ADD DUP1 SLOAD PUSH2 0x9DE SWAP1 PUSH2 0x21EA JUMP JUMPDEST DUP1 PUSH1 0x1F ADD PUSH1 0x20 DUP1 SWAP2 DIV MUL PUSH1 0x20 ADD PUSH1 0x40 MLOAD SWAP1 DUP2 ADD PUSH1 0x40 MSTORE DUP1 SWAP3 SWAP2 SWAP1 DUP2 DUP2 MSTORE PUSH1 0x20 ADD DUP3 DUP1 SLOAD PUSH2 0xA0A SWAP1 PUSH2 0x21EA JUMP JUMPDEST DUP1 ISZERO PUSH2 0xA55 JUMPI DUP1 PUSH1 0x1F LT PUSH2 0xA2C JUMPI PUSH2 0x100 DUP1 DUP4 SLOAD DIV MUL DUP4 MSTORE SWAP2 PUSH1 0x20 ADD SWAP2 PUSH2 0xA55 JUMP JUMPDEST DUP3 ADD SWAP2 SWAP1 PUSH0 MSTORE PUSH1 0x20 PUSH0 KECCAK256 SWAP1 JUMPDEST DUP2 SLOAD DUP2 MSTORE SWAP1 PUSH1 0x1 ADD SWAP1 PUSH1 0x20 ADD DUP1 DUP4 GT PUSH2 0xA38 JUMPI DUP3 SWAP1 SUB PUSH1 0x1F AND DUP3 ADD SWAP2 JUMPDEST POP POP POP POP POP DUP2 MSTORE PUSH1 0x20 ADD PUSH1 0x5 DUP3 ADD PUSH0 SWAP1 SLOAD SWAP1 PUSH2 0x100 EXP SWAP1 DIV PUSH1 0xFF AND PUSH1 0x2 DUP2 GT ISZERO PUSH2 0xA82 JUMPI PUSH2 0xA81 PUSH2 0x1E5A JUMP JUMPDEST JUMPDEST PUSH1 0x2 DUP2 GT ISZERO PUSH2 0xA94 JUMPI PUSH2 0xA93 PUSH2 0x1E5A JUMP JUMPDEST JUMPDEST DUP2 MSTORE PUSH1 0x20 ADD PUSH1 0x5 DUP3 ADD PUSH1 0x1 SWAP1 SLOAD SWAP1 PUSH2 0x100 EXP SWAP1 DIV PUSH1 0xFF AND ISZERO ISZERO ISZERO ISZERO DUP2 MSTORE PUSH1 0x20 ADD PUSH1 0x6 DUP3 ADD SLOAD DUP2 MSTORE POP POP SWAP1 POP DUP1 PUSH0 ADD MLOAD DUP2 PUSH1 0x20 ADD MLOAD DUP3 PUSH1 0x40 ADD MLOAD DUP4 PUSH1 0x60 ADD MLOAD DUP5 PUSH1 0x80 ADD MLOAD DUP6 PUSH1 0xA0 ADD MLOAD PUSH1 0x2 DUP2 GT ISZERO PUSH2 0xAEE JUMPI PUSH2 0xAED PUSH2 0x1E5A JUMP JUMPDEST JUMPDEST DUP7 PUSH1 0xC0 ADD MLOAD DUP8 PUSH1 0xE0 ADD MLOAD SWAP9 POP SWAP9 POP SWAP9 POP SWAP9 POP SWAP9 POP SWAP9 POP SWAP9 POP SWAP9 POP POP SWAP2 SWAP4 SWAP6 SWAP8 POP SWAP2 SWAP4 SWAP6 SWAP8 JUMP JUMPDEST PUSH0 PUSH0 PUSH1 0x1 PUSH0 DUP7 DUP2 MSTORE PUSH1 0x20 ADD SWAP1 DUP2 MSTORE PUSH1 0x20 ADD PUSH0 KECCAK256 PUSH0 ADD SLOAD SUB PUSH2 0xB6A JUMPI PUSH1 0x40 MLOAD PUSH32 0x8C379A000000000000000000000000000000000000000000000000000000000 DUP2 MSTORE PUSH1 0x4 ADD PUSH2 0xB61 SWAP1 PUSH2 0x1ED1 JUMP JUMPDEST PUSH1 0x40 MLOAD DUP1 SWAP2 SUB SWAP1 REVERT JUMPDEST PUSH0 PUSH1 0x2 PUSH0 DUP6 DUP2 MSTORE PUSH1 0x20 ADD SWAP1 DUP2 MSTORE PUSH1 0x20 ADD PUSH0 KECCAK256 PUSH0 ADD SLOAD SUB PUSH2 0xBBF JUMPI PUSH1 0x40 MLOAD PUSH32 0x8C379A000000000000000000000000000000000000000000000000000000000 DUP2 MSTORE PUSH1 0x4 ADD PUSH2 0xBB6 SWAP1 PUSH2 0x1D46 JUMP JUMPDEST PUSH1 0x40 MLOAD DUP1 SWAP2 SUB SWAP1 REVERT JUMPDEST PUSH8 0xDE0B6B3A7640000 PUSH1 0x2 PUSH0 DUP6 DUP2 MSTORE PUSH1 0x20 ADD SWAP1 DUP2 MSTORE PUSH1 0x20 ADD PUSH0 KECCAK256 PUSH1 0x6 ADD SLOAD LT ISZERO PUSH2 0xC1E JUMPI PUSH1 0x40 MLOAD PUSH32 0x8C379A000000000000000000000000000000000000000000000000000000000 DUP2 MSTORE PUSH1 0x4 ADD PUSH2 0xC15 SWAP1 PUSH2 0x2264 JUMP JUMPDEST PUSH1 0x40 MLOAD DUP1 SWAP2 SUB SWAP1 REVERT JUMPDEST PUSH0 PUSH1 0x4 DUP1 SLOAD SWAP1 POP GT PUSH2 0xC65 JUMPI PUSH1 0x40 MLOAD PUSH32 0x8C379A000000000000000000000000000000000000000000000000000000000 DUP2 MSTORE PUSH1 0x4 ADD PUSH2 0xC5C SWAP1 PUSH2 0x22CC JUMP JUMPDEST PUSH1 0x40 MLOAD DUP1 SWAP2 SUB SWAP1 REVERT JUMPDEST PUSH1 0x30 DUP3 LT PUSH2 0xCA8 JUMPI PUSH1 0x40 MLOAD PUSH32 0x8C379A000000000000000000000000000000000000000000000000000000000 DUP2 MSTORE PUSH1 0x4 ADD PUSH2 0xC9F SWAP1 PUSH2 0x2334 JUMP JUMPDEST PUSH1 0x40 MLOAD DUP1 SWAP2 SUB SWAP1 REVERT JUMPDEST PUSH1 0x3 PUSH0 DUP6 DUP2 MSTORE PUSH1 0x20 ADD SWAP1 DUP2 MSTORE PUSH1 0x20 ADD PUSH0 KECCAK256 PUSH0 DUP4 DUP2 MSTORE PUSH1 0x20 ADD SWAP1 DUP2 MSTORE PUSH1 0x20 ADD PUSH0 KECCAK256 PUSH1 0x3 ADD PUSH0 SWAP1 SLOAD SWAP1 PUSH2 0x100 EXP SWAP1 DIV PUSH1 0xFF AND ISZERO PUSH2 0xD18 JUMPI PUSH1 0x40 MLOAD PUSH32 0x8C379A000000000000000000000000000000000000000000000000000000000 DUP2 MSTORE PUSH1 0x4 ADD PUSH2 0xD0F SWAP1 PUSH2 0x239C JUMP JUMPDEST PUSH1 0x40 MLOAD DUP1 SWAP2 SUB SWAP1 REVERT JUMPDEST PUSH1 0x40 MLOAD DUP1 PUSH1 0x80 ADD PUSH1 0x40 MSTORE DUP1 DUP4 DUP2 MSTORE PUSH1 0x20 ADD DUP6 DUP2 MSTORE PUSH1 0x20 ADD DUP5 DUP2 MSTORE PUSH1 0x20 ADD PUSH1 0x1 ISZERO ISZERO DUP2 MSTORE POP PUSH1 0x3 PUSH0 DUP7 DUP2 MSTORE PUSH1 0x20 ADD SWAP1 DUP2 MSTORE PUSH1 0x20 ADD PUSH0 KECCAK256 PUSH0 DUP5 DUP2 MSTORE PUSH1 0x20 ADD SWAP1 DUP2 MSTORE PUSH1 0x20 ADD PUSH0 KECCAK256 PUSH0 DUP3 ADD MLOAD DUP2 PUSH0 ADD SSTORE PUSH1 0x20 DUP3 ADD MLOAD DUP2 PUSH1 0x1 ADD SSTORE PUSH1 0x40 DUP3 ADD MLOAD DUP2 PUSH1 0x2 ADD SSTORE PUSH1 0x60 DUP3 ADD MLOAD DUP2 PUSH1 0x3 ADD PUSH0 PUSH2 0x100 EXP DUP2 SLOAD DUP2 PUSH1 0xFF MUL NOT AND SWAP1 DUP4 ISZERO ISZERO MUL OR SWAP1 SSTORE POP SWAP1 POP POP PUSH0 PUSH1 0x4 DUP1 SLOAD SWAP1 POP TIMESTAMP PREVRANDAO DUP7 PUSH1 0x40 MLOAD PUSH1 0x20 ADD PUSH2 0xDB6 SWAP4 SWAP3 SWAP2 SWAP1 PUSH2 0x23DA JUMP JUMPDEST PUSH1 0x40 MLOAD PUSH1 0x20 DUP2 DUP4 SUB SUB DUP2 MSTORE SWAP1 PUSH1 0x40 MSTORE DUP1 MLOAD SWAP1 PUSH1 0x20 ADD KECCAK256 PUSH0 SHR PUSH2 0xDD8 SWAP2 SWAP1 PUSH2 0x1FED JUMP JUMPDEST SWAP1 POP PUSH0 PUSH1 0x4 DUP3 DUP2 SLOAD DUP2 LT PUSH2 0xDEF JUMPI PUSH2 0xDEE PUSH2 0x1F63 JUMP JUMPDEST JUMPDEST SWAP1 PUSH0 MSTORE PUSH1 0x20 PUSH0 KECCAK256 ADD SLOAD SWAP1 POP PUSH8 0xDE0B6B3A7640000 PUSH1 0x2 PUSH0 DUP8 DUP2 MSTORE PUSH1 0x20 ADD SWAP1 DUP2 MSTORE PUSH1 0x20 ADD PUSH0 KECCAK256 PUSH1 0x6 ADD PUSH0 DUP3 DUP3 SLOAD PUSH2 0xE25 SWAP2 SWAP1 PUSH2 0x2416 JUMP JUMPDEST SWAP3 POP POP DUP2 SWAP1 SSTORE POP PUSH8 0xDE0B6B3A7640000 PUSH0 PUSH0 DUP4 DUP2 MSTORE PUSH1 0x20 ADD SWAP1 DUP2 MSTORE PUSH1 0x20 ADD PUSH0 KECCAK256 PUSH1 0x3 ADD PUSH0 DUP3 DUP3 SLOAD PUSH2 0xE56 SWAP2 SWAP1 PUSH2 0x205E JUMP JUMPDEST SWAP3 POP POP DUP2 SWAP1 SSTORE POP PUSH1 0x1 SWAP3 POP POP POP SWAP4 SWAP3 POP POP POP JUMP JUMPDEST PUSH0 PUSH0 DUP4 GT PUSH2 0xEAD JUMPI PUSH1 0x40 MLOAD PUSH32 0x8C379A000000000000000000000000000000000000000000000000000000000 DUP2 MSTORE PUSH1 0x4 ADD PUSH2 0xEA4 SWAP1 PUSH2 0x2493 JUMP JUMPDEST PUSH1 0x40 MLOAD DUP1 SWAP2 SUB SWAP1 REVERT JUMPDEST PUSH0 DUP6 GT PUSH2 0xEEF JUMPI PUSH1 0x40 MLOAD PUSH32 0x8C379A000000000000000000000000000000000000000000000000000000000 DUP2 MSTORE PUSH1 0x4 ADD PUSH2 0xEE6 SWAP1 PUSH2 0x24FB JUMP JUMPDEST PUSH1 0x40 MLOAD DUP1 SWAP2 SUB SWAP1 REVERT JUMPDEST PUSH0 PUSH1 0x1 PUSH0 DUP8 DUP2 MSTORE PUSH1 0x20 ADD SWAP1 DUP2 MSTORE PUSH1 0x20 ADD PUSH0 KECCAK256 PUSH0 ADD SLOAD EQ PUSH2 0xF44 JUMPI PUSH1 0x40 MLOAD PUSH32 0x8C379A000000000000000000000000000000000000000000000000000000000 DUP2 MSTORE PUSH1 0x4 ADD PUSH2 0xF3B SWAP1 PUSH2 0x2563 JUMP JUMPDEST PUSH1 0x40 MLOAD DUP1 SWAP2 SUB SWAP1 REVERT JUMPDEST PUSH1 0x40 MLOAD DUP1 PUSH1 0x80 ADD PUSH1 0x40 MSTORE DUP1 DUP7 DUP2 MSTORE PUSH1 0x20 ADD DUP6 DUP2 MSTORE PUSH1 0x20 ADD DUP5 DUP2 MSTORE PUSH1 0x20 ADD DUP4 DUP2 MSTORE POP PUSH1 0x1 PUSH0 DUP8 DUP2 MSTORE PUSH1 0x20 ADD SWAP1 DUP2 MSTORE PUSH1 0x20 ADD PUSH0 KECCAK256 PUSH0 DUP3 ADD MLOAD DUP2 PUSH0 ADD SSTORE PUSH1 0x20 DUP3 ADD MLOAD DUP2 PUSH1 0x1 ADD SWAP1 DUP2 PUSH2 0xF93 SWAP2 SWAP1 PUSH2 0x2721 JUMP JUMPDEST POP PUSH1 0x40 DUP3 ADD MLOAD DUP2 PUSH1 0x2 ADD SSTORE PUSH1 0x60 DUP3 ADD MLOAD DUP2 PUSH1 0x3 ADD SWAP1 DUP2 PUSH2 0xFB3 SWAP2 SWAP1 PUSH2 0x2721 JUMP JUMPDEST POP SWAP1 POP POP DUP5 SWAP1 POP SWAP5 SWAP4 POP POP POP POP JUMP JUMPDEST PUSH0 PUSH0 DUP3 GT PUSH2 0x1005 JUMPI PUSH1 0x40 MLOAD PUSH32 0x8C379A000000000000000000000000000000000000000000000000000000000 DUP2 MSTORE PUSH1 0x4 ADD PUSH2 0xFFC SWAP1 PUSH2 0x2493 JUMP JUMPDEST PUSH1 0x40 MLOAD DUP1 SWAP2 SUB SWAP1 REVERT JUMPDEST PUSH0 DUP5 GT PUSH2 0x1047 JUMPI PUSH1 0x40 MLOAD PUSH32 0x8C379A000000000000000000000000000000000000000000000000000000000 DUP2 MSTORE PUSH1 0x4 ADD PUSH2 0x103E SWAP1 PUSH2 0x24FB JUMP JUMPDEST PUSH1 0x40 MLOAD DUP1 SWAP2 SUB SWAP1 REVERT JUMPDEST PUSH0 PUSH0 PUSH0 DUP7 DUP2 MSTORE PUSH1 0x20 ADD SWAP1 DUP2 MSTORE PUSH1 0x20 ADD PUSH0 KECCAK256 PUSH0 ADD SLOAD EQ PUSH2 0x109B JUMPI PUSH1 0x40 MLOAD PUSH32 0x8C379A000000000000000000000000000000000000000000000000000000000 DUP2 MSTORE PUSH1 0x4 ADD PUSH2 0x1092 SWAP1 PUSH2 0x283A JUMP JUMPDEST PUSH1 0x40 MLOAD DUP1 SWAP2 SUB SWAP1 REVERT JUMPDEST PUSH1 0x40 MLOAD DUP1 PUSH1 0x80 ADD PUSH1 0x40 MSTORE DUP1 DUP6 DUP2 MSTORE PUSH1 0x20 ADD DUP5 DUP2 MSTORE PUSH1 0x20 ADD DUP4 DUP2 MSTORE PUSH1 0x20 ADD PUSH0 DUP2 MSTORE POP PUSH0 PUSH0 DUP7 DUP2 MSTORE PUSH1 0x20 ADD SWAP1 DUP2 MSTORE PUSH1 0x20 ADD PUSH0 KECCAK256 PUSH0 DUP3 ADD MLOAD DUP2 PUSH0 ADD SSTORE PUSH1 0x20 DUP3 ADD MLOAD DUP2 PUSH1 0x1 ADD SWAP1 DUP2 PUSH2 0x10E9 SWAP2 SWAP1 PUSH2 0x2721 JUMP JUMPDEST POP PUSH1 0x40 DUP3 ADD MLOAD DUP2 PUSH1 0x2 ADD SSTORE PUSH1 0x60 DUP3 ADD MLOAD DUP2 PUSH1 0x3 ADD SSTORE SWAP1 POP POP PUSH1 0x4 DUP5 SWAP1 DUP1 PUSH1 0x1 DUP2 SLOAD ADD DUP1 DUP3 SSTORE DUP1 SWAP2 POP POP PUSH1 0x1 SWAP1 SUB SWAP1 PUSH0 MSTORE PUSH1 0x20 PUSH0 KECCAK256 ADD PUSH0 SWAP1 SWAP2 SWAP1 SWAP2 SWAP1 SWAP2 POP SSTORE DUP4 SWAP1 POP SWAP4 SWAP3 POP POP POP JUMP JUMPDEST PUSH0 PUSH0 DUP7 GT PUSH2 0x1174 JUMPI PUSH1 0x40 MLOAD PUSH32 0x8C379A000000000000000000000000000000000000000000000000000000000 DUP2 MSTORE PUSH1 0x4 ADD PUSH2 0x116B SWAP1 PUSH2 0x2493 JUMP JUMPDEST PUSH1 0x40 MLOAD DUP1 SWAP2 SUB SWAP1 REVERT JUMPDEST PUSH0 DUP9 GT PUSH2 0x11B6 JUMPI PUSH1 0x40 MLOAD PUSH32 0x8C379A000000000000000000000000000000000000000000000000000000000 DUP2 MSTORE PUSH1 0x4 ADD PUSH2 0x11AD SWAP1 PUSH2 0x24FB JUMP JUMPDEST PUSH1 0x40 MLOAD DUP1 SWAP2 SUB SWAP1 REVERT JUMPDEST PUSH0 PUSH1 0x2 PUSH0 DUP11 DUP2 MSTORE PUSH1 0x20 ADD SWAP1 DUP2 MSTORE PUSH1 0x20 ADD PUSH0 KECCAK256 PUSH0 ADD SLOAD EQ PUSH2 0x120B JUMPI PUSH1 0x40 MLOAD PUSH32 0x8C379A000000000000000000000000000000000000000000000000000000000 DUP2 MSTORE PUSH1 0x4 ADD PUSH2 0x1202 SWAP1 PUSH2 0x28A2 JUMP JUMPDEST PUSH1 0x40 MLOAD DUP1 SWAP2 SUB SWAP1 REVERT JUMPDEST PUSH1 0x2 DUP4 GT ISZERO PUSH2 0x124F JUMPI PUSH1 0x40 MLOAD PUSH32 0x8C379A000000000000000000000000000000000000000000000000000000000 DUP2 MSTORE PUSH1 0x4 ADD PUSH2 0x1246 SWAP1 PUSH2 0x1DAE JUMP JUMPDEST PUSH1 0x40 MLOAD DUP1 SWAP2 SUB SWAP1 REVERT JUMPDEST PUSH1 0x40 MLOAD DUP1 PUSH2 0x100 ADD PUSH1 0x40 MSTORE DUP1 DUP10 DUP2 MSTORE PUSH1 0x20 ADD DUP9 DUP2 MSTORE PUSH1 0x20 ADD DUP8 DUP2 MSTORE PUSH1 0x20 ADD DUP7 DUP2 MSTORE PUSH1 0x20 ADD DUP6 DUP2 MSTORE PUSH1 0x20 ADD DUP5 PUSH1 0x2 DUP2 GT ISZERO PUSH2 0x128C JUMPI PUSH2 0x128B PUSH2 0x1E5A JUMP JUMPDEST JUMPDEST PUSH1 0x2 DUP2 GT ISZERO PUSH2 0x129E JUMPI PUSH2 0x129D PUSH2 0x1E5A JUMP JUMPDEST JUMPDEST DUP2 MSTORE PUSH1 0x20 ADD DUP4 ISZERO ISZERO DUP2 MSTORE PUSH1 0x20 ADD PUSH8 0x8AC7230489E80000 DUP2 MSTORE POP PUSH1 0x2 PUSH0 DUP11 DUP2 MSTORE PUSH1 0x20 ADD SWAP1 DUP2 MSTORE PUSH1 0x20 ADD PUSH0 KECCAK256 PUSH0 DUP3 ADD MLOAD DUP2 PUSH0 ADD SSTORE PUSH1 0x20 DUP3 ADD MLOAD DUP2 PUSH1 0x1 ADD SWAP1 DUP2 PUSH2 0x12E5 SWAP2 SWAP1 PUSH2 0x2721 JUMP JUMPDEST POP PUSH1 0x40 DUP3 ADD MLOAD DUP2 PUSH1 0x2 ADD SSTORE PUSH1 0x60 DUP3 ADD MLOAD DUP2 PUSH1 0x3 ADD SWAP1 DUP2 PUSH2 0x1305 SWAP2 SWAP1 PUSH2 0x2721 JUMP JUMPDEST POP PUSH1 0x80 DUP3 ADD MLOAD DUP2 PUSH1 0x4 ADD SWAP1 DUP2 PUSH2 0x131B SWAP2 SWAP1 PUSH2 0x2721 JUMP JUMPDEST POP PUSH1 0xA0 DUP3 ADD MLOAD DUP2 PUSH1 0x5 ADD PUSH0 PUSH2 0x100 EXP DUP2 SLOAD DUP2 PUSH1 0xFF MUL NOT AND SWAP1 DUP4 PUSH1 0x2 DUP2 GT ISZERO PUSH2 0x1346 JUMPI PUSH2 0x1345 PUSH2 0x1E5A JUMP JUMPDEST JUMPDEST MUL OR SWAP1 SSTORE POP PUSH1 0xC0 DUP3 ADD MLOAD DUP2 PUSH1 0x5 ADD PUSH1 0x1 PUSH2 0x100 EXP DUP2 SLOAD DUP2 PUSH1 0xFF MUL NOT AND SWAP1 DUP4 ISZERO ISZERO MUL OR SWAP1 SSTORE POP PUSH1 0xE0 DUP3 ADD MLOAD DUP2 PUSH1 0x6 ADD SSTORE SWAP1 POP POP DUP8 SWAP1 POP SWAP8 SWAP7 POP POP POP POP POP POP POP JUMP JUMPDEST PUSH1 0x60 PUSH0 DUP3 SUB PUSH2 0x13CC JUMPI PUSH1 0x40 MLOAD DUP1 PUSH1 0x40 ADD PUSH1 0x40 MSTORE DUP1 PUSH1 0x1 DUP2 MSTORE PUSH1 0x20 ADD PUSH32 0x3000000000000000000000000000000000000000000000000000000000000000 DUP2 MSTORE POP SWAP1 POP PUSH2 0x1519 JUMP JUMPDEST PUSH1 0xA DUP3 LT ISZERO PUSH2 0x140B JUMPI DUP2 PUSH1 0x30 PUSH2 0x13E2 SWAP2 SWAP1 PUSH2 0x205E JUMP JUMPDEST PUSH1 0xF8 SHL PUSH1 0x40 MLOAD PUSH1 0x20 ADD PUSH2 0x13F5 SWAP2 SWAP1 PUSH2 0x2955 JUMP JUMPDEST PUSH1 0x40 MLOAD PUSH1 0x20 DUP2 DUP4 SUB SUB DUP2 MSTORE SWAP1 PUSH1 0x40 MSTORE SWAP1 POP PUSH2 0x1519 JUMP JUMPDEST PUSH0 DUP3 SWAP1 POP PUSH0 JUMPDEST PUSH0 DUP3 EQ PUSH2 0x143A JUMPI DUP1 DUP1 PUSH2 0x1423 SWAP1 PUSH2 0x1F1C JUMP JUMPDEST SWAP2 POP POP PUSH1 0xA DUP3 PUSH2 0x1433 SWAP2 SWAP1 PUSH2 0x1FBD JUMP JUMPDEST SWAP2 POP PUSH2 0x1411 JUMP JUMPDEST PUSH0 DUP2 PUSH8 0xFFFFFFFFFFFFFFFF DUP2 GT ISZERO PUSH2 0x1455 JUMPI PUSH2 0x1454 PUSH2 0x19C6 JUMP JUMPDEST JUMPDEST PUSH1 0x40 MLOAD SWAP1 DUP1 DUP3 MSTORE DUP1 PUSH1 0x1F ADD PUSH1 0x1F NOT AND PUSH1 0x20 ADD DUP3 ADD PUSH1 0x40 MSTORE DUP1 ISZERO PUSH2 0x1487 JUMPI DUP2 PUSH1 0x20 ADD PUSH1 0x1 DUP3 MUL DUP1 CALLDATASIZE DUP4 CALLDATACOPY DUP1 DUP3 ADD SWAP2 POP POP SWAP1 POP JUMPDEST POP SWAP1 POP JUMPDEST PUSH0 DUP6 EQ PUSH2 0x1512 JUMPI PUSH1 0x1 DUP3 PUSH2 0x149F SWAP2 SWAP1 PUSH2 0x2416 JUMP JUMPDEST SWAP2 POP PUSH1 0xA DUP6 PUSH2 0x14AE SWAP2 SWAP1 PUSH2 0x1FED JUMP JUMPDEST PUSH1 0x30 PUSH2 0x14BA SWAP2 SWAP1 PUSH2 0x205E JUMP JUMPDEST PUSH1 0xF8 SHL DUP2 DUP4 DUP2 MLOAD DUP2 LT PUSH2 0x14D0 JUMPI PUSH2 0x14CF PUSH2 0x1F63 JUMP JUMPDEST JUMPDEST PUSH1 0x20 ADD ADD SWAP1 PUSH31 0xFFFFFFFFFFFFFFFFFFFFFFFFFFFFFFFFFFFFFFFFFFFFFFFFFFFFFFFFFFFFFF NOT AND SWAP1 DUP2 PUSH0 BYTE SWAP1 MSTORE8 POP PUSH1 0xA DUP6 PUSH2 0x150B SWAP2 SWAP1 PUSH2 0x1FBD JUMP JUMPDEST SWAP5 POP PUSH2 0x148B JUMP JUMPDEST DUP1 SWAP4 POP POP POP POP JUMPDEST SWAP2 SWAP1 POP JUMP JUMPDEST PUSH0 PUSH1 0x40 MLOAD SWAP1 POP SWAP1 JUMP JUMPDEST PUSH0 PUSH0 REVERT JUMPDEST PUSH0 PUSH0 REVERT JUMPDEST PUSH0 DUP2 SWAP1 POP SWAP2 SWAP1 POP JUMP JUMPDEST PUSH2 0x1541 DUP2 PUSH2 0x152F JUMP JUMPDEST DUP2 EQ PUSH2 0x154B JUMPI PUSH0 PUSH0 REVERT JUMPDEST POP JUMP JUMPDEST PUSH0 DUP2 CALLDATALOAD SWAP1 POP PUSH2 0x155C DUP2 PUSH2 0x1538 JUMP JUMPDEST SWAP3 SWAP2 POP POP JUMP JUMPDEST PUSH0 DUP2 ISZERO ISZERO SWAP1 POP SWAP2 SWAP1 POP JUMP JUMPDEST PUSH2 0x1576 DUP2 PUSH2 0x1562 JUMP JUMPDEST DUP2 EQ PUSH2 0x1580 JUMPI PUSH0 PUSH0 REVERT JUMPDEST POP JUMP JUMPDEST PUSH0 DUP2 CALLDATALOAD SWAP1 POP PUSH2 0x1591 DUP2 PUSH2 0x156D JUMP JUMPDEST SWAP3 SWAP2 POP POP JUMP JUMPDEST PUSH0 PUSH0 PUSH0 PUSH1 0x60 DUP5 DUP7 SUB SLT ISZERO PUSH2 0x15AE JUMPI PUSH2 0x15AD PUSH2 0x1527 JUMP JUMPDEST JUMPDEST PUSH0 PUSH2 0x15BB DUP7 DUP3 DUP8 ADD PUSH2 0x154E JUMP JUMPDEST SWAP4 POP POP PUSH1 0x20 PUSH2 0x15CC DUP7 DUP3 DUP8 ADD PUSH2 0x154E JUMP JUMPDEST SWAP3 POP POP PUSH1 0x40 PUSH2 0x15DD DUP7 DUP3 DUP8 ADD PUSH2 0x1583 JUMP JUMPDEST SWAP2 POP POP SWAP3 POP SWAP3 POP SWAP3 JUMP JUMPDEST PUSH0 PUSH1 0x20 DUP3 DUP5 SUB SLT ISZERO PUSH2 0x15FC JUMPI PUSH2 0x15FB PUSH2 0x1527 JUMP JUMPDEST JUMPDEST PUSH0 PUSH2 0x1609 DUP5 DUP3 DUP6 ADD PUSH2 0x154E JUMP JUMPDEST SWAP2 POP POP SWAP3 SWAP2 POP POP JUMP JUMPDEST PUSH0 DUP2 MLOAD SWAP1 POP SWAP2 SWAP1 POP JUMP JUMPDEST PUSH0 DUP3 DUP3 MSTORE PUSH1 0x20 DUP3 ADD SWAP1 POP SWAP3 SWAP2 POP POP JUMP JUMPDEST PUSH0 DUP2 SWAP1 POP PUSH1 0x20 DUP3 ADD SWAP1 POP SWAP2 SWAP1 POP JUMP JUMPDEST PUSH2 0x1644 DUP2 PUSH2 0x152F JUMP JUMPDEST DUP3 MSTORE POP POP JUMP JUMPDEST PUSH0 PUSH2 0x1655 DUP4 DUP4 PUSH2 0x163B JUMP JUMPDEST PUSH1 0x20 DUP4 ADD SWAP1 POP SWAP3 SWAP2 POP POP JUMP JUMPDEST PUSH0 PUSH1 0x20 DUP3 ADD SWAP1 POP SWAP2 SWAP1 POP JUMP JUMPDEST PUSH0 PUSH2 0x1677 DUP3 PUSH2 0x1612 JUMP JUMPDEST PUSH2 0x1681 DUP2 DUP6 PUSH2 0x161C JUMP JUMPDEST SWAP4 POP PUSH2 0x168C DUP4 PUSH2 0x162C JUMP JUMPDEST DUP1 PUSH0 JUMPDEST DUP4 DUP2 LT ISZERO PUSH2 0x16BC JUMPI DUP2 MLOAD PUSH2 0x16A3 DUP9 DUP3 PUSH2 0x164A JUMP JUMPDEST SWAP8 POP PUSH2 0x16AE DUP4 PUSH2 0x1661 JUMP JUMPDEST SWAP3 POP POP PUSH1 0x1 DUP2 ADD SWAP1 POP PUSH2 0x168F JUMP JUMPDEST POP DUP6 SWAP4 POP POP POP POP SWAP3 SWAP2 POP POP JUMP JUMPDEST PUSH0 DUP2 MLOAD SWAP1 POP SWAP2 SWAP1 POP JUMP JUMPDEST PUSH0 DUP3 DUP3 MSTORE PUSH1 0x20 DUP3 ADD SWAP1 POP SWAP3 SWAP2 POP POP JUMP JUMPDEST PUSH0 DUP2 SWAP1 POP PUSH1 0x20 DUP3 ADD SWAP1 POP SWAP2 SWAP1 POP JUMP JUMPDEST PUSH0 DUP2 MLOAD SWAP1 POP SWAP2 SWAP1 POP JUMP JUMPDEST PUSH0 DUP3 DUP3 MSTORE PUSH1 0x20 DUP3 ADD SWAP1 POP SWAP3 SWAP2 POP POP JUMP JUMPDEST DUP3 DUP2 DUP4 MCOPY PUSH0 DUP4 DUP4 ADD MSTORE POP POP POP JUMP JUMPDEST PUSH0 PUSH1 0x1F NOT PUSH1 0x1F DUP4 ADD AND SWAP1 POP SWAP2 SWAP1 POP JUMP JUMPDEST PUSH0 PUSH2 0x1734 DUP3 PUSH2 0x16F2 JUMP JUMPDEST PUSH2 0x173E DUP2 DUP6 PUSH2 0x16FC JUMP JUMPDEST SWAP4 POP PUSH2 0x174E DUP2 DUP6 PUSH1 0x20 DUP7 ADD PUSH2 0x170C JUMP JUMPDEST PUSH2 0x1757 DUP2 PUSH2 0x171A JUMP JUMPDEST DUP5 ADD SWAP2 POP POP SWAP3 SWAP2 POP POP JUMP JUMPDEST PUSH0 PUSH2 0x176D DUP4 DUP4 PUSH2 0x172A JUMP JUMPDEST SWAP1 POP SWAP3 SWAP2 POP POP JUMP JUMPDEST PUSH0 PUSH1 0x20 DUP3 ADD SWAP1 POP SWAP2 SWAP1 POP JUMP JUMPDEST PUSH0 PUSH2 0x178B DUP3 PUSH2 0x16C9 JUMP JUMPDEST PUSH2 0x1795 DUP2 DUP6 PUSH2 0x16D3 JUMP JUMPDEST SWAP4 POP DUP4 PUSH1 0x20 DUP3 MUL DUP6 ADD PUSH2 0x17A7 DUP6 PUSH2 0x16E3 JUMP JUMPDEST DUP1 PUSH0 JUMPDEST DUP6 DUP2 LT ISZERO PUSH2 0x17E2 JUMPI DUP5 DUP5 SUB DUP10 MSTORE DUP2 MLOAD PUSH2 0x17C3 DUP6 DUP3 PUSH2 0x1762 JUMP JUMPDEST SWAP5 POP PUSH2 0x17CE DUP4 PUSH2 0x1775 JUMP JUMPDEST SWAP3 POP PUSH1 0x20 DUP11 ADD SWAP10 POP POP PUSH1 0x1 DUP2 ADD SWAP1 POP PUSH2 0x17AA JUMP JUMPDEST POP DUP3 SWAP8 POP DUP8 SWAP6 POP POP POP POP POP POP SWAP3 SWAP2 POP POP JUMP JUMPDEST PUSH0 PUSH1 0x40 DUP3 ADD SWAP1 POP DUP2 DUP2 SUB PUSH0 DUP4 ADD MSTORE PUSH2 0x180C DUP2 DUP6 PUSH2 0x166D JUMP JUMPDEST SWAP1 POP DUP2 DUP2 SUB PUSH1 0x20 DUP4 ADD MSTORE PUSH2 0x1820 DUP2 DUP5 PUSH2 0x1781 JUMP JUMPDEST SWAP1 POP SWAP4 SWAP3 POP POP POP JUMP JUMPDEST PUSH0 PUSH1 0x40 DUP3 ADD SWAP1 POP DUP2 DUP2 SUB PUSH0 DUP4 ADD MSTORE PUSH2 0x1841 DUP2 DUP6 PUSH2 0x166D JUMP JUMPDEST SWAP1 POP DUP2 DUP2 SUB PUSH1 0x20 DUP4 ADD MSTORE PUSH2 0x1855 DUP2 DUP5 PUSH2 0x166D JUMP JUMPDEST SWAP1 POP SWAP4 SWAP3 POP POP POP JUMP JUMPDEST PUSH2 0x1867 DUP2 PUSH2 0x152F JUMP JUMPDEST DUP3 MSTORE POP POP JUMP JUMPDEST PUSH0 DUP3 DUP3 MSTORE PUSH1 0x20 DUP3 ADD SWAP1 POP SWAP3 SWAP2 POP POP JUMP JUMPDEST PUSH0 PUSH2 0x1887 DUP3 PUSH2 0x16F2 JUMP JUMPDEST PUSH2 0x1891 DUP2 DUP6 PUSH2 0x186D JUMP JUMPDEST SWAP4 POP PUSH2 0x18A1 DUP2 DUP6 PUSH1 0x20 DUP7 ADD PUSH2 0x170C JUMP JUMPDEST PUSH2 0x18AA DUP2 PUSH2 0x171A JUMP JUMPDEST DUP5 ADD SWAP2 POP POP SWAP3 SWAP2 POP POP JUMP JUMPDEST PUSH2 0x18BE DUP2 PUSH2 0x1562 JUMP JUMPDEST DUP3 MSTORE POP POP JUMP JUMPDEST PUSH0 PUSH2 0x100 DUP3 ADD SWAP1 POP PUSH2 0x18D8 PUSH0 DUP4 ADD DUP12 PUSH2 0x185E JUMP JUMPDEST DUP2 DUP2 SUB PUSH1 0x20 DUP4 ADD MSTORE PUSH2 0x18EA DUP2 DUP11 PUSH2 0x187D JUMP JUMPDEST SWAP1 POP PUSH2 0x18F9 PUSH1 0x40 DUP4 ADD DUP10 PUSH2 0x185E JUMP JUMPDEST DUP2 DUP2 SUB PUSH1 0x60 DUP4 ADD MSTORE PUSH2 0x190B DUP2 DUP9 PUSH2 0x187D JUMP JUMPDEST SWAP1 POP DUP2 DUP2 SUB PUSH1 0x80 DUP4 ADD MSTORE PUSH2 0x191F DUP2 DUP8 PUSH2 0x187D JUMP JUMPDEST SWAP1 POP PUSH2 0x192E PUSH1 0xA0 DUP4 ADD DUP7 PUSH2 0x185E JUMP JUMPDEST PUSH2 0x193B PUSH1 0xC0 DUP4 ADD DUP6 PUSH2 0x18B5 JUMP JUMPDEST PUSH2 0x1948 PUSH1 0xE0 DUP4 ADD DUP5 PUSH2 0x185E JUMP JUMPDEST SWAP10 SWAP9 POP POP POP POP POP POP POP POP POP JUMP JUMPDEST PUSH0 PUSH0 PUSH0 PUSH1 0x60 DUP5 DUP7 SUB SLT ISZERO PUSH2 0x196C JUMPI PUSH2 0x196B PUSH2 0x1527 JUMP JUMPDEST JUMPDEST PUSH0 PUSH2 0x1979 DUP7 DUP3 DUP8 ADD PUSH2 0x154E JUMP JUMPDEST SWAP4 POP POP PUSH1 0x20 PUSH2 0x198A DUP7 DUP3 DUP8 ADD PUSH2 0x154E JUMP JUMPDEST SWAP3 POP POP PUSH1 0x40 PUSH2 0x199B DUP7 DUP3 DUP8 ADD PUSH2 0x154E JUMP JUMPDEST SWAP2 POP POP SWAP3 POP SWAP3 POP SWAP3 JUMP JUMPDEST PUSH0 PUSH1 0x20 DUP3 ADD SWAP1 POP PUSH2 0x19B8 PUSH0 DUP4 ADD DUP5 PUSH2 0x18B5 JUMP JUMPDEST SWAP3 SWAP2 POP POP JUMP JUMPDEST PUSH0 PUSH0 REVERT JUMPDEST PUSH0 PUSH0 REVERT JUMPDEST PUSH32 0x4E487B7100000000000000000000000000000000000000000000000000000000 PUSH0 MSTORE PUSH1 0x41 PUSH1 0x4 MSTORE PUSH1 0x24 PUSH0 REVERT JUMPDEST PUSH2 0x19FC DUP3 PUSH2 0x171A JUMP JUMPDEST DUP2 ADD DUP2 DUP2 LT PUSH8 0xFFFFFFFFFFFFFFFF DUP3 GT OR ISZERO PUSH2 0x1A1B JUMPI PUSH2 0x1A1A PUSH2 0x19C6 JUMP JUMPDEST JUMPDEST DUP1 PUSH1 0x40 MSTORE POP POP POP JUMP JUMPDEST PUSH0 PUSH2 0x1A2D PUSH2 0x151E JUMP JUMPDEST SWAP1 POP PUSH2 0x1A39 DUP3 DUP3 PUSH2 0x19F3 JUMP JUMPDEST SWAP2 SWAP1 POP JUMP JUMPDEST PUSH0 PUSH8 0xFFFFFFFFFFFFFFFF DUP3 GT ISZERO PUSH2 0x1A58 JUMPI PUSH2 0x1A57 PUSH2 0x19C6 JUMP JUMPDEST JUMPDEST PUSH2 0x1A61 DUP3 PUSH2 0x171A JUMP JUMPDEST SWAP1 POP PUSH1 0x20 DUP2 ADD SWAP1 POP SWAP2 SWAP1 POP JUMP JUMPDEST DUP3 DUP2 DUP4 CALLDATACOPY PUSH0 DUP4 DUP4 ADD MSTORE POP POP POP JUMP JUMPDEST PUSH0 PUSH2 0x1A8E PUSH2 0x1A89 DUP5 PUSH2 0x1A3E JUMP JUMPDEST PUSH2 0x1A24 JUMP JUMPDEST SWAP1 POP DUP3 DUP2 MSTORE PUSH1 0x20 DUP2 ADD DUP5 DUP5 DUP5 ADD GT ISZERO PUSH2 0x1AAA JUMPI PUSH2 0x1AA9 PUSH2 0x19C2 JUMP JUMPDEST JUMPDEST PUSH2 0x1AB5 DUP5 DUP3 DUP6 PUSH2 0x1A6E JUMP JUMPDEST POP SWAP4 SWAP3 POP POP POP JUMP JUMPDEST PUSH0 DUP3 PUSH1 0x1F DUP4 ADD SLT PUSH2 0x1AD1 JUMPI PUSH2 0x1AD0 PUSH2 0x19BE JUMP JUMPDEST JUMPDEST DUP2 CALLDATALOAD PUSH2 0x1AE1 DUP5 DUP3 PUSH1 0x20 DUP7 ADD PUSH2 0x1A7C JUMP JUMPDEST SWAP2 POP POP SWAP3 SWAP2 POP POP JUMP JUMPDEST PUSH0 PUSH0 PUSH0 PUSH0 PUSH1 0x80 DUP6 DUP8 SUB SLT ISZERO PUSH2 0x1B02 JUMPI PUSH2 0x1B01 PUSH2 0x1527 JUMP JUMPDEST JUMPDEST PUSH0 PUSH2 0x1B0F DUP8 DUP3 DUP9 ADD PUSH2 0x154E JUMP JUMPDEST SWAP5 POP POP PUSH1 0x20 DUP6 ADD CALLDATALOAD PUSH8 0xFFFFFFFFFFFFFFFF DUP2 GT ISZERO PUSH2 0x1B30 JUMPI PUSH2 0x1B2F PUSH2 0x152B JUMP JUMPDEST JUMPDEST PUSH2 0x1B3C DUP8 DUP3 DUP9 ADD PUSH2 0x1ABD JUMP JUMPDEST SWAP4 POP POP PUSH1 0x40 PUSH2 0x1B4D DUP8 DUP3 DUP9 ADD PUSH2 0x154E JUMP JUMPDEST SWAP3 POP POP PUSH1 0x60 DUP6 ADD CALLDATALOAD PUSH8 0xFFFFFFFFFFFFFFFF DUP2 GT ISZERO PUSH2 0x1B6E JUMPI PUSH2 0x1B6D PUSH2 0x152B JUMP JUMPDEST JUMPDEST PUSH2 0x1B7A DUP8 DUP3 DUP9 ADD PUSH2 0x1ABD JUMP JUMPDEST SWAP2 POP POP SWAP3 SWAP6 SWAP2 SWAP5 POP SWAP3 POP JUMP JUMPDEST PUSH0 PUSH1 0x20 DUP3 ADD SWAP1 POP PUSH2 0x1B99 PUSH0 DUP4 ADD DUP5 PUSH2 0x185E JUMP JUMPDEST SWAP3 SWAP2 POP POP JUMP JUMPDEST PUSH0 PUSH0 PUSH0 PUSH1 0x60 DUP5 DUP7 SUB SLT ISZERO PUSH2 0x1BB6 JUMPI PUSH2 0x1BB5 PUSH2 0x1527 JUMP JUMPDEST JUMPDEST PUSH0 PUSH2 0x1BC3 DUP7 DUP3 DUP8 ADD PUSH2 0x154E JUMP JUMPDEST SWAP4 POP POP PUSH1 0x20 DUP5 ADD CALLDATALOAD PUSH8 0xFFFFFFFFFFFFFFFF DUP2 GT ISZERO PUSH2 0x1BE4 JUMPI PUSH2 0x1BE3 PUSH2 0x152B JUMP JUMPDEST JUMPDEST PUSH2 0x1BF0 DUP7 DUP3 DUP8 ADD PUSH2 0x1ABD JUMP JUMPDEST SWAP3 POP POP PUSH1 0x40 PUSH2 0x1C01 DUP7 DUP3 DUP8 ADD PUSH2 0x154E JUMP JUMPDEST SWAP2 POP POP SWAP3 POP SWAP3 POP SWAP3 JUMP JUMPDEST PUSH0 PUSH0 PUSH0 PUSH0 PUSH0 PUSH0 PUSH0 PUSH1 0xE0 DUP9 DUP11 SUB SLT ISZERO PUSH2 0x1C26 JUMPI PUSH2 0x1C25 PUSH2 0x1527 JUMP JUMPDEST JUMPDEST PUSH0 PUSH2 0x1C33 DUP11 DUP3 DUP12 ADD PUSH2 0x154E JUMP JUMPDEST SWAP8 POP POP PUSH1 0x20 DUP9 ADD CALLDATALOAD PUSH8 0xFFFFFFFFFFFFFFFF DUP2 GT ISZERO PUSH2 0x1C54 JUMPI PUSH2 0x1C53 PUSH2 0x152B JUMP JUMPDEST JUMPDEST PUSH2 0x1C60 DUP11 DUP3 DUP12 ADD PUSH2 0x1ABD JUMP JUMPDEST SWAP7 POP POP PUSH1 0x40 PUSH2 0x1C71 DUP11 DUP3 DUP12 ADD PUSH2 0x154E JUMP JUMPDEST SWAP6 POP POP PUSH1 0x60 DUP9 ADD CALLDATALOAD PUSH8 0xFFFFFFFFFFFFFFFF DUP2 GT ISZERO PUSH2 0x1C92 JUMPI PUSH2 0x1C91 PUSH2 0x152B JUMP JUMPDEST JUMPDEST PUSH2 0x1C9E DUP11 DUP3 DUP12 ADD PUSH2 0x1ABD JUMP JUMPDEST SWAP5 POP POP PUSH1 0x80 DUP9 ADD CALLDATALOAD PUSH8 0xFFFFFFFFFFFFFFFF DUP2 GT ISZERO PUSH2 0x1CBF JUMPI PUSH2 0x1CBE PUSH2 0x152B JUMP JUMPDEST JUMPDEST PUSH2 0x1CCB DUP11 DUP3 DUP12 ADD PUSH2 0x1ABD JUMP JUMPDEST SWAP4 POP POP PUSH1 0xA0 PUSH2 0x1CDC DUP11 DUP3 DUP12 ADD PUSH2 0x154E JUMP JUMPDEST SWAP3 POP POP PUSH1 0xC0 PUSH2 0x1CED DUP11 DUP3 DUP12 ADD PUSH2 0x1583 JUMP JUMPDEST SWAP2 POP POP SWAP3 SWAP6 SWAP9 SWAP2 SWAP5 SWAP8 POP SWAP3 SWAP6 POP JUMP JUMPDEST PUSH32 0x5061727469636970616E74206E6F7420666F756E640000000000000000000000 PUSH0 DUP3 ADD MSTORE POP JUMP JUMPDEST PUSH0 PUSH2 0x1D30 PUSH1 0x15 DUP4 PUSH2 0x186D JUMP JUMPDEST SWAP2 POP PUSH2 0x1D3B DUP3 PUSH2 0x1CFC JUMP JUMPDEST PUSH1 0x20 DUP3 ADD SWAP1 POP SWAP2 SWAP1 POP JUMP JUMPDEST PUSH0 PUSH1 0x20 DUP3 ADD SWAP1 POP DUP2 DUP2 SUB PUSH0 DUP4 ADD MSTORE PUSH2 0x1D5D DUP2 PUSH2 0x1D24 JUMP JUMPDEST SWAP1 POP SWAP2 SWAP1 POP JUMP JUMPDEST PUSH32 0x496E76616C696420747261696E696E6720696E74657265737400000000000000 PUSH0 DUP3 ADD MSTORE POP JUMP JUMPDEST PUSH0 PUSH2 0x1D98 PUSH1 0x19 DUP4 PUSH2 0x186D JUMP JUMPDEST SWAP2 POP PUSH2 0x1DA3 DUP3 PUSH2 0x1D64 JUMP JUMPDEST PUSH1 0x20 DUP3 ADD SWAP1 POP SWAP2 SWAP1 POP JUMP JUMPDEST PUSH0 PUSH1 0x20 DUP3 ADD SWAP1 POP DUP2 DUP2 SUB PUSH0 DUP4 ADD MSTORE PUSH2 0x1DC5 DUP2 PUSH2 0x1D8C JUMP JUMPDEST SWAP1 POP SWAP2 SWAP1 POP JUMP JUMPDEST PUSH32 0x43616E6E6F74206368616E676520636F6D706C657465642066726F6D20747275 PUSH0 DUP3 ADD MSTORE PUSH32 0x6520746F2066616C736500000000000000000000000000000000000000000000 PUSH1 0x20 DUP3 ADD MSTORE POP JUMP JUMPDEST PUSH0 PUSH2 0x1E26 PUSH1 0x2A DUP4 PUSH2 0x186D JUMP JUMPDEST SWAP2 POP PUSH2 0x1E31 DUP3 PUSH2 0x1DCC JUMP JUMPDEST PUSH1 0x40 DUP3 ADD SWAP1 POP SWAP2 SWAP1 POP JUMP JUMPDEST PUSH0 PUSH1 0x20 DUP3 ADD SWAP1 POP DUP2 DUP2 SUB PUSH0 DUP4 ADD MSTORE PUSH2 0x1E53 DUP2 PUSH2 0x1E1A JUMP JUMPDEST SWAP1 POP SWAP2 SWAP1 POP JUMP JUMPDEST PUSH32 0x4E487B7100000000000000000000000000000000000000000000000000000000 PUSH0 MSTORE PUSH1 0x21 PUSH1 0x4 MSTORE PUSH1 0x24 PUSH0 REVERT JUMPDEST PUSH32 0x547261696E6572206E6F7420666F756E64000000000000000000000000000000 PUSH0 DUP3 ADD MSTORE POP JUMP JUMPDEST PUSH0 PUSH2 0x1EBB PUSH1 0x11 DUP4 PUSH2 0x186D JUMP JUMPDEST SWAP2 POP PUSH2 0x1EC6 DUP3 PUSH2 0x1E87 JUMP JUMPDEST PUSH1 0x20 DUP3 ADD SWAP1 POP SWAP2 SWAP1 POP JUMP JUMPDEST PUSH0 PUSH1 0x20 DUP3 ADD SWAP1 POP DUP2 DUP2 SUB PUSH0 DUP4 ADD MSTORE PUSH2 0x1EE8 DUP2 PUSH2 0x1EAF JUMP JUMPDEST SWAP1 POP SWAP2 SWAP1 POP JUMP JUMPDEST PUSH32 0x4E487B7100000000000000000000000000000000000000000000000000000000 PUSH0 MSTORE PUSH1 0x11 PUSH1 0x4 MSTORE PUSH1 0x24 PUSH0 REVERT JUMPDEST PUSH0 PUSH2 0x1F26 DUP3 PUSH2 0x152F JUMP JUMPDEST SWAP2 POP PUSH32 0xFFFFFFFFFFFFFFFFFFFFFFFFFFFFFFFFFFFFFFFFFFFFFFFFFFFFFFFFFFFFFFFF DUP3 SUB PUSH2 0x1F58 JUMPI PUSH2 0x1F57 PUSH2 0x1EEF JUMP JUMPDEST JUMPDEST PUSH1 0x1 DUP3 ADD SWAP1 POP SWAP2 SWAP1 POP JUMP JUMPDEST PUSH32 0x4E487B7100000000000000000000000000000000000000000000000000000000 PUSH0 MSTORE PUSH1 0x32 PUSH1 0x4 MSTORE PUSH1 0x24 PUSH0 REVERT JUMPDEST PUSH32 0x4E487B7100000000000000000000000000000000000000000000000000000000 PUSH0 MSTORE PUSH1 0x12 PUSH1 0x4 MSTORE PUSH1 0x24 PUSH0 REVERT JUMPDEST PUSH0 PUSH2 0x1FC7 DUP3 PUSH2 0x152F JUMP JUMPDEST SWAP2 POP PUSH2 0x1FD2 DUP4 PUSH2 0x152F JUMP JUMPDEST SWAP3 POP DUP3 PUSH2 0x1FE2 JUMPI PUSH2 0x1FE1 PUSH2 0x1F90 JUMP JUMPDEST JUMPDEST DUP3 DUP3 DIV SWAP1 POP SWAP3 SWAP2 POP POP JUMP JUMPDEST PUSH0 PUSH2 0x1FF7 DUP3 PUSH2 0x152F JUMP JUMPDEST SWAP2 POP PUSH2 0x2002 DUP4 PUSH2 0x152F JUMP JUMPDEST SWAP3 POP DUP3 PUSH2 0x2012 JUMPI PUSH2 0x2011 PUSH2 0x1F90 JUMP JUMPDEST JUMPDEST DUP3 DUP3 MOD SWAP1 POP SWAP3 SWAP2 POP POP JUMP JUMPDEST PUSH0 PUSH2 0x2027 DUP3 PUSH2 0x152F JUMP JUMPDEST SWAP2 POP PUSH2 0x2032 DUP4 PUSH2 0x152F JUMP JUMPDEST SWAP3 POP DUP3 DUP3 MUL PUSH2 0x2040 DUP2 PUSH2 0x152F JUMP JUMPDEST SWAP2 POP DUP3 DUP3 DIV DUP5 EQ DUP4 ISZERO OR PUSH2 0x2057 JUMPI PUSH2 0x2056 PUSH2 0x1EEF JUMP JUMPDEST JUMPDEST POP SWAP3 SWAP2 POP POP JUMP JUMPDEST PUSH0 PUSH2 0x2068 DUP3 PUSH2 0x152F JUMP JUMPDEST SWAP2 POP PUSH2 0x2073 DUP4 PUSH2 0x152F JUMP JUMPDEST SWAP3 POP DUP3 DUP3 ADD SWAP1 POP DUP1 DUP3 GT ISZERO PUSH2 0x208B JUMPI PUSH2 0x208A PUSH2 0x1EEF JUMP JUMPDEST JUMPDEST SWAP3 SWAP2 POP POP JUMP JUMPDEST PUSH0 DUP2 SWAP1 POP SWAP3 SWAP2 POP POP JUMP JUMPDEST PUSH0 PUSH2 0x20A5 DUP3 PUSH2 0x16F2 JUMP JUMPDEST PUSH2 0x20AF DUP2 DUP6 PUSH2 0x2091 JUMP JUMPDEST SWAP4 POP PUSH2 0x20BF DUP2 DUP6 PUSH1 0x20 DUP7 ADD PUSH2 0x170C JUMP JUMPDEST DUP1 DUP5 ADD SWAP2 POP POP SWAP3 SWAP2 POP POP JUMP JUMPDEST PUSH32 0x3A00000000000000000000000000000000000000000000000000000000000000 PUSH0 DUP3 ADD MSTORE POP JUMP JUMPDEST PUSH0 PUSH2 0x20FF PUSH1 0x1 DUP4 PUSH2 0x2091 JUMP JUMPDEST SWAP2 POP PUSH2 0x210A DUP3 PUSH2 0x20CB JUMP JUMPDEST PUSH1 0x1 DUP3 ADD SWAP1 POP SWAP2 SWAP1 POP JUMP JUMPDEST PUSH32 0x2D00000000000000000000000000000000000000000000000000000000000000 PUSH0 DUP3 ADD MSTORE POP JUMP JUMPDEST PUSH0 PUSH2 0x2149 PUSH1 0x1 DUP4 PUSH2 0x2091 JUMP JUMPDEST SWAP2 POP PUSH2 0x2154 DUP3 PUSH2 0x2115 JUMP JUMPDEST PUSH1 0x1 DUP3 ADD SWAP1 POP SWAP2 SWAP1 POP JUMP JUMPDEST PUSH0 PUSH2 0x216A DUP3 DUP8 PUSH2 0x209B JUMP JUMPDEST SWAP2 POP PUSH2 0x2175 DUP3 PUSH2 0x20F3 JUMP JUMPDEST SWAP2 POP PUSH2 0x2181 DUP3 DUP7 PUSH2 0x209B JUMP JUMPDEST SWAP2 POP PUSH2 0x218C DUP3 PUSH2 0x213D JUMP JUMPDEST SWAP2 POP PUSH2 0x2198 DUP3 DUP6 PUSH2 0x209B JUMP JUMPDEST SWAP2 POP PUSH2 0x21A3 DUP3 PUSH2 0x20F3 JUMP JUMPDEST SWAP2 POP PUSH2 0x21AF DUP3 DUP5 PUSH2 0x209B JUMP JUMPDEST SWAP2 POP DUP2 SWAP1 POP SWAP6 SWAP5 POP POP POP POP POP JUMP JUMPDEST PUSH32 0x4E487B7100000000000000000000000000000000000000000000000000000000 PUSH0 MSTORE PUSH1 0x22 PUSH1 0x4 MSTORE PUSH1 0x24 PUSH0 REVERT JUMPDEST PUSH0 PUSH1 0x2 DUP3 DIV SWAP1 POP PUSH1 0x1 DUP3 AND DUP1 PUSH2 0x2201 JUMPI PUSH1 0x7F DUP3 AND SWAP2 POP JUMPDEST PUSH1 0x20 DUP3 LT DUP2 SUB PUSH2 0x2214 JUMPI PUSH2 0x2213 PUSH2 0x21BD JUMP JUMPDEST JUMPDEST POP SWAP2 SWAP1 POP JUMP JUMPDEST PUSH32 0x496E73756666696369656E74207061727469636970616E742062616C616E6365 PUSH0 DUP3 ADD MSTORE POP JUMP JUMPDEST PUSH0 PUSH2 0x224E PUSH1 0x20 DUP4 PUSH2 0x186D JUMP JUMPDEST SWAP2 POP PUSH2 0x2259 DUP3 PUSH2 0x221A JUMP JUMPDEST PUSH1 0x20 DUP3 ADD SWAP1 POP SWAP2 SWAP1 POP JUMP JUMPDEST PUSH0 PUSH1 0x20 DUP3 ADD SWAP1 POP DUP2 DUP2 SUB PUSH0 DUP4 ADD MSTORE PUSH2 0x227B DUP2 PUSH2 0x2242 JUMP JUMPDEST SWAP1 POP SWAP2 SWAP1 POP JUMP JUMPDEST PUSH32 0x4E6F2061646D696E7320617661696C61626C6500000000000000000000000000 PUSH0 DUP3 ADD MSTORE POP JUMP JUMPDEST PUSH0 PUSH2 0x22B6 PUSH1 0x13 DUP4 PUSH2 0x186D JUMP JUMPDEST SWAP2 POP PUSH2 0x22C1 DUP3 PUSH2 0x2282 JUMP JUMPDEST PUSH1 0x20 DUP3 ADD SWAP1 POP SWAP2 SWAP1 POP JUMP JUMPDEST PUSH0 PUSH1 0x20 DUP3 ADD SWAP1 POP DUP2 DUP2 SUB PUSH0 DUP4 ADD MSTORE PUSH2 0x22E3 DUP2 PUSH2 0x22AA JUMP JUMPDEST SWAP1 POP SWAP2 SWAP1 POP JUMP JUMPDEST PUSH32 0x496E76616C696420736C6F742049440000000000000000000000000000000000 PUSH0 DUP3 ADD MSTORE POP JUMP JUMPDEST PUSH0 PUSH2 0x231E PUSH1 0xF DUP4 PUSH2 0x186D JUMP JUMPDEST SWAP2 POP PUSH2 0x2329 DUP3 PUSH2 0x22EA JUMP JUMPDEST PUSH1 0x20 DUP3 ADD SWAP1 POP SWAP2 SWAP1 POP JUMP JUMPDEST PUSH0 PUSH1 0x20 DUP3 ADD SWAP1 POP DUP2 DUP2 SUB PUSH0 DUP4 ADD MSTORE PUSH2 0x234B DUP2 PUSH2 0x2312 JUMP JUMPDEST SWAP1 POP SWAP2 SWAP1 POP JUMP JUMPDEST PUSH32 0x536C6F7420697320616C726561647920626F6F6B656400000000000000000000 PUSH0 DUP3 ADD MSTORE POP JUMP JUMPDEST PUSH0 PUSH2 0x2386 PUSH1 0x16 DUP4 PUSH2 0x186D JUMP JUMPDEST SWAP2 POP PUSH2 0x2391 DUP3 PUSH2 0x2352 JUMP JUMPDEST PUSH1 0x20 DUP3 ADD SWAP1 POP SWAP2 SWAP1 POP JUMP JUMPDEST PUSH0 PUSH1 0x20 DUP3 ADD SWAP1 POP DUP2 DUP2 SUB PUSH0 DUP4 ADD MSTORE PUSH2 0x23B3 DUP2 PUSH2 0x237A JUMP JUMPDEST SWAP1 POP SWAP2 SWAP1 POP JUMP JUMPDEST PUSH0 DUP2 SWAP1 POP SWAP2 SWAP1 POP JUMP JUMPDEST PUSH2 0x23D4 PUSH2 0x23CF DUP3 PUSH2 0x152F JUMP JUMPDEST PUSH2 0x23BA JUMP JUMPDEST DUP3 MSTORE POP POP JUMP JUMPDEST PUSH0 PUSH2 0x23E5 DUP3 DUP7 PUSH2 0x23C3 JUMP JUMPDEST PUSH1 0x20 DUP3 ADD SWAP2 POP PUSH2 0x23F5 DUP3 DUP6 PUSH2 0x23C3 JUMP JUMPDEST PUSH1 0x20 DUP3 ADD SWAP2 POP PUSH2 0x2405 DUP3 DUP5 PUSH2 0x23C3 JUMP JUMPDEST PUSH1 0x20 DUP3 ADD SWAP2 POP DUP2 SWAP1 POP SWAP5 SWAP4 POP POP POP POP JUMP JUMPDEST PUSH0 PUSH2 0x2420 DUP3 PUSH2 0x152F JUMP JUMPDEST SWAP2 POP PUSH2 0x242B DUP4 PUSH2 0x152F JUMP JUMPDEST SWAP3 POP DUP3 DUP3 SUB SWAP1 POP DUP2 DUP2 GT ISZERO PUSH2 0x2443 JUMPI PUSH2 0x2442 PUSH2 0x1EEF JUMP JUMPDEST JUMPDEST SWAP3 SWAP2 POP POP JUMP JUMPDEST PUSH32 0x496E76616C696420616765000000000000000000000000000000000000000000 PUSH0 DUP3 ADD MSTORE POP JUMP JUMPDEST PUSH0 PUSH2 0x247D PUSH1 0xB DUP4 PUSH2 0x186D JUMP JUMPDEST SWAP2 POP PUSH2 0x2488 DUP3 PUSH2 0x2449 JUMP JUMPDEST PUSH1 0x20 DUP3 ADD SWAP1 POP SWAP2 SWAP1 POP JUMP JUMPDEST PUSH0 PUSH1 0x20 DUP3 ADD SWAP1 POP DUP2 DUP2 SUB PUSH0 DUP4 ADD MSTORE PUSH2 0x24AA DUP2 PUSH2 0x2471 JUMP JUMPDEST SWAP1 POP SWAP2 SWAP1 POP JUMP JUMPDEST PUSH32 0x496E76616C696420494400000000000000000000000000000000000000000000 PUSH0 DUP3 ADD MSTORE POP JUMP JUMPDEST PUSH0 PUSH2 0x24E5 PUSH1 0xA DUP4 PUSH2 0x186D JUMP JUMPDEST SWAP2 POP PUSH2 0x24F0 DUP3 PUSH2 0x24B1 JUMP JUMPDEST PUSH1 0x20 DUP3 ADD SWAP1 POP SWAP2 SWAP1 POP JUMP JUMPDEST PUSH0 PUSH1 0x20 DUP3 ADD SWAP1 POP DUP2 DUP2 SUB PUSH0 DUP4 ADD MSTORE PUSH2 0x2512 DUP2 PUSH2 0x24D9 JUMP JUMPDEST SWAP1 POP SWAP2 SWAP1 POP JUMP JUMPDEST PUSH32 0x547261696E657220494420616C72656164792065786973747300000000000000 PUSH0 DUP3 ADD MSTORE POP JUMP JUMPDEST PUSH0 PUSH2 0x254D PUSH1 0x19 DUP4 PUSH2 0x186D JUMP JUMPDEST SWAP2 POP PUSH2 0x2558 DUP3 PUSH2 0x2519 JUMP JUMPDEST PUSH1 0x20 DUP3 ADD SWAP1 POP SWAP2 SWAP1 POP JUMP JUMPDEST PUSH0 PUSH1 0x20 DUP3 ADD SWAP1 POP DUP2 DUP2 SUB PUSH0 DUP4 ADD MSTORE PUSH2 0x257A DUP2 PUSH2 0x2541 JUMP JUMPDEST SWAP1 POP SWAP2 SWAP1 POP JUMP JUMPDEST PUSH0 DUP2 SWAP1 POP DUP2 PUSH0 MSTORE PUSH1 0x20 PUSH0 KECCAK256 SWAP1 POP SWAP2 SWAP1 POP JUMP JUMPDEST PUSH0 PUSH1 0x20 PUSH1 0x1F DUP4 ADD DIV SWAP1 POP SWAP2 SWAP1 POP JUMP JUMPDEST PUSH0 DUP3 DUP3 SHL SWAP1 POP SWAP3 SWAP2 POP POP JUMP JUMPDEST PUSH0 PUSH1 0x8 DUP4 MUL PUSH2 0x25DD PUSH32 0xFFFFFFFFFFFFFFFFFFFFFFFFFFFFFFFFFFFFFFFFFFFFFFFFFFFFFFFFFFFFFFFF DUP3 PUSH2 0x25A2 JUMP JUMPDEST PUSH2 0x25E7 DUP7 DUP4 PUSH2 0x25A2 JUMP JUMPDEST SWAP6 POP DUP1 NOT DUP5 AND SWAP4 POP DUP1 DUP7 AND DUP5 OR SWAP3 POP POP POP SWAP4 SWAP3 POP POP POP JUMP JUMPDEST PUSH0 DUP2 SWAP1 POP SWAP2 SWAP1 POP JUMP JUMPDEST PUSH0 PUSH2 0x2622 PUSH2 0x261D PUSH2 0x2618 DUP5 PUSH2 0x152F JUMP JUMPDEST PUSH2 0x25FF JUMP JUMPDEST PUSH2 0x152F JUMP JUMPDEST SWAP1 POP SWAP2 SWAP1 POP JUMP JUMPDEST PUSH0 DUP2 SWAP1 POP SWAP2 SWAP1 POP JUMP JUMPDEST PUSH2 0x263B DUP4 PUSH2 0x2608 JUMP JUMPDEST PUSH2 0x264F PUSH2 0x2647 DUP3 PUSH2 0x2629 JUMP JUMPDEST DUP5 DUP5 SLOAD PUSH2 0x25AE JUMP JUMPDEST DUP3 SSTORE POP POP POP POP JUMP JUMPDEST PUSH0 PUSH0 SWAP1 POP SWAP1 JUMP JUMPDEST PUSH2 0x2666 PUSH2 0x2657 JUMP JUMPDEST PUSH2 0x2671 DUP2 DUP5 DUP5 PUSH2 0x2632 JUMP JUMPDEST POP POP POP JUMP JUMPDEST JUMPDEST DUP2 DUP2 LT ISZERO PUSH2 0x2694 JUMPI PUSH2 0x2689 PUSH0 DUP3 PUSH2 0x265E JUMP JUMPDEST PUSH1 0x1 DUP2 ADD SWAP1 POP PUSH2 0x2677 JUMP JUMPDEST POP POP JUMP JUMPDEST PUSH1 0x1F DUP3 GT ISZERO PUSH2 0x26D9 JUMPI PUSH2 0x26AA DUP2 PUSH2 0x2581 JUMP JUMPDEST PUSH2 0x26B3 DUP5 PUSH2 0x2593 JUMP JUMPDEST DUP2 ADD PUSH1 0x20 DUP6 LT ISZERO PUSH2 0x26C2 JUMPI DUP2 SWAP1 POP JUMPDEST PUSH2 0x26D6 PUSH2 0x26CE DUP6 PUSH2 0x2593 JUMP JUMPDEST DUP4 ADD DUP3 PUSH2 0x2676 JUMP JUMPDEST POP POP JUMPDEST POP POP POP JUMP JUMPDEST PUSH0 DUP3 DUP3 SHR SWAP1 POP SWAP3 SWAP2 POP POP JUMP JUMPDEST PUSH0 PUSH2 0x26F9 PUSH0 NOT DUP5 PUSH1 0x8 MUL PUSH2 0x26DE JUMP JUMPDEST NOT DUP1 DUP4 AND SWAP2 POP POP SWAP3 SWAP2 POP POP JUMP JUMPDEST PUSH0 PUSH2 0x2711 DUP4 DUP4 PUSH2 0x26EA JUMP JUMPDEST SWAP2 POP DUP3 PUSH1 0x2 MUL DUP3 OR SWAP1 POP SWAP3 SWAP2 POP POP JUMP JUMPDEST PUSH2 0x272A DUP3 PUSH2 0x16F2 JUMP JUMPDEST PUSH8 0xFFFFFFFFFFFFFFFF DUP2 GT ISZERO PUSH2 0x2743 JUMPI PUSH2 0x2742 PUSH2 0x19C6 JUMP JUMPDEST JUMPDEST PUSH2 0x274D DUP3 SLOAD PUSH2 0x21EA JUMP JUMPDEST PUSH2 0x2758 DUP3 DUP3 DUP6 PUSH2 0x2698 JUMP JUMPDEST PUSH0 PUSH1 0x20 SWAP1 POP PUSH1 0x1F DUP4 GT PUSH1 0x1 DUP2 EQ PUSH2 0x2789 JUMPI PUSH0 DUP5 ISZERO PUSH2 0x2777 JUMPI DUP3 DUP8 ADD MLOAD SWAP1 POP JUMPDEST PUSH2 0x2781 DUP6 DUP3 PUSH2 0x2706 JUMP JUMPDEST DUP7 SSTORE POP PUSH2 0x27E8 JUMP JUMPDEST PUSH1 0x1F NOT DUP5 AND PUSH2 0x2797 DUP7 PUSH2 0x2581 JUMP JUMPDEST PUSH0 JUMPDEST DUP3 DUP2 LT ISZERO PUSH2 0x27BE JUMPI DUP5 DUP10 ADD MLOAD DUP3 SSTORE PUSH1 0x1 DUP3 ADD SWAP2 POP PUSH1 0x20 DUP6 ADD SWAP5 POP PUSH1 0x20 DUP2 ADD SWAP1 POP PUSH2 0x2799 JUMP JUMPDEST DUP7 DUP4 LT ISZERO PUSH2 0x27DB JUMPI DUP5 DUP10 ADD MLOAD PUSH2 0x27D7 PUSH1 0x1F DUP10 AND DUP3 PUSH2 0x26EA JUMP JUMPDEST DUP4 SSTORE POP JUMPDEST PUSH1 0x1 PUSH1 0x2 DUP9 MUL ADD DUP9 SSTORE POP POP POP JUMPDEST POP POP POP POP POP POP JUMP JUMPDEST PUSH32 0x41646D696E20494420616C726561647920657869737473000000000000000000 PUSH0 DUP3 ADD MSTORE POP JUMP JUMPDEST PUSH0 PUSH2 0x2824 PUSH1 0x17 DUP4 PUSH2 0x186D JUMP JUMPDEST SWAP2 POP PUSH2 0x282F DUP3 PUSH2 0x27F0 JUMP JUMPDEST PUSH1 0x20 DUP3 ADD SWAP1 POP SWAP2 SWAP1 POP JUMP JUMPDEST PUSH0 PUSH1 0x20 DUP3 ADD SWAP1 POP DUP2 DUP2 SUB PUSH0 DUP4 ADD MSTORE PUSH2 0x2851 DUP2 PUSH2 0x2818 JUMP JUMPDEST SWAP1 POP SWAP2 SWAP1 POP JUMP JUMPDEST PUSH32 0x5061727469636970616E7420494420616C726561647920657869737473000000 PUSH0 DUP3 ADD MSTORE POP JUMP JUMPDEST PUSH0 PUSH2 0x288C PUSH1 0x1D DUP4 PUSH2 0x186D JUMP JUMPDEST SWAP2 POP PUSH2 0x2897 DUP3 PUSH2 0x2858 JUMP JUMPDEST PUSH1 0x20 DUP3 ADD SWAP1 POP SWAP2 SWAP1 POP JUMP JUMPDEST PUSH0 PUSH1 0x20 DUP3 ADD SWAP1 POP DUP2 DUP2 SUB PUSH0 DUP4 ADD MSTORE PUSH2 0x28B9 DUP2 PUSH2 0x2880 JUMP JUMPDEST SWAP1 POP SWAP2 SWAP1 POP JUMP JUMPDEST PUSH32 0x3000000000000000000000000000000000000000000000000000000000000000 PUSH0 DUP3 ADD MSTORE POP JUMP JUMPDEST PUSH0 PUSH2 0x28F4 PUSH1 0x1 DUP4 PUSH2 0x2091 JUMP JUMPDEST SWAP2 POP PUSH2 0x28FF DUP3 PUSH2 0x28C0 JUMP JUMPDEST PUSH1 0x1 DUP3 ADD SWAP1 POP SWAP2 SWAP1 POP JUMP JUMPDEST PUSH0 PUSH32 0xFF00000000000000000000000000000000000000000000000000000000000000 DUP3 AND SWAP1 POP SWAP2 SWAP1 POP JUMP JUMPDEST PUSH0 DUP2 SWAP1 POP SWAP2 SWAP1 POP JUMP JUMPDEST PUSH2 0x294F PUSH2 0x294A DUP3 PUSH2 0x290A JUMP JUMPDEST PUSH2 0x2935 JUMP JUMPDEST DUP3 MSTORE POP POP JUMP JUMPDEST PUSH0 PUSH2 0x295F DUP3 PUSH2 0x28E8 JUMP JUMPDEST SWAP2 POP PUSH2 0x296B DUP3 DUP5 PUSH2 0x293E JUMP JUMPDEST PUSH1 0x1 DUP3 ADD SWAP2 POP DUP2 SWAP1 POP SWAP3 SWAP2 POP POP JUMP INVALID LOG2 PUSH5 0x6970667358 0x22 SLT KECCAK256 CALLVALUE TLOAD DUP15 MUL 0xA7 ORIGIN 0x2D GASLIMIT 0xF 0xA7 0xAF DIV DUP16 EOFCREATE 0x2B 0xD5 0xF7 PC 0xC0 NOT SGT 0xD9 0x24 0x1E ADDRESS SAR 0xB9 PUSH7 0x19A8B3B064736F PUSH13 0x634300081E0033000000000000 "
				},
				"gasEstimates": {
					"creation": {
						"codeDepositCost": "2134400",
						"executionCost": "2270",
						"totalCost": "2136670"
					},
					"external": {
						"bookTrainingSlot(uint256,uint256,uint256)": "infinite",
						"registerAdmin(uint256,string,uint256)": "infinite",
						"registerParticipant(uint256,string,uint256,string,string,uint256,bool)": "infinite",
						"registerTrainer(uint256,string,uint256,string)": "infinite",
						"updateParticipantData(uint256,uint256,bool)": "infinite",
						"viewAdminBalance()": "infinite",
						"viewParticipantData(uint256)": "infinite",
						"viewTrainerSchedule(uint256)": "infinite"
					},
					"internal": {
						"_toString(uint256)": "infinite"
					}
				},
				"methodIdentifiers": {
					"bookTrainingSlot(uint256,uint256,uint256)": "6620f95f",
					"registerAdmin(uint256,string,uint256)": "710e2aba",
					"registerParticipant(uint256,string,uint256,string,string,uint256,bool)": "a30b027b",
					"registerTrainer(uint256,string,uint256,string)": "6c80cd33",
					"updateParticipantData(uint256,uint256,bool)": "3a7002e1",
					"viewAdminBalance()": "5a29dc29",
					"viewParticipantData(uint256)": "5ffc80f2",
					"viewTrainerSchedule(uint256)": "51eca4dd"
				}
			},
			"storageLayout": {
				"storage": [
					{
						"astId": 64,
						"contract": "contracts/DisasterRecoveryTraining.sol:DisasterRecoveryTraining",
						"label": "admins",
						"offset": 0,
						"slot": "0",
						"type": "t_mapping(t_uint256,t_struct(Admin)14_storage)"
					},
					{
						"astId": 69,
						"contract": "contracts/DisasterRecoveryTraining.sol:DisasterRecoveryTraining",
						"label": "trainers",
						"offset": 0,
						"slot": "1",
						"type": "t_mapping(t_uint256,t_struct(Trainer)23_storage)"
					},
					{
						"astId": 74,
						"contract": "contracts/DisasterRecoveryTraining.sol:DisasterRecoveryTraining",
						"label": "participants",
						"offset": 0,
						"slot": "2",
						"type": "t_mapping(t_uint256,t_struct(Participant)41_storage)"
					},
					{
						"astId": 81,
						"contract": "contracts/DisasterRecoveryTraining.sol:DisasterRecoveryTraining",
						"label": "trainerSlots",
						"offset": 0,
						"slot": "3",
						"type": "t_mapping(t_uint256,t_mapping(t_uint256,t_struct(TrainingSlot)50_storage))"
					},
					{
						"astId": 84,
						"contract": "contracts/DisasterRecoveryTraining.sol:DisasterRecoveryTraining",
						"label": "adminIds",
						"offset": 0,
						"slot": "4",
						"type": "t_array(t_uint256)dyn_storage"
					}
				],
				"types": {
					"t_array(t_uint256)dyn_storage": {
						"base": "t_uint256",
						"encoding": "dynamic_array",
						"label": "uint256[]",
						"numberOfBytes": "32"
					},
					"t_bool": {
						"encoding": "inplace",
						"label": "bool",
						"numberOfBytes": "1"
					},
					"t_enum(TrainingType)5": {
						"encoding": "inplace",
						"label": "enum DisasterRecoveryTraining.TrainingType",
						"numberOfBytes": "1"
					},
					"t_mapping(t_uint256,t_mapping(t_uint256,t_struct(TrainingSlot)50_storage))": {
						"encoding": "mapping",
						"key": "t_uint256",
						"label": "mapping(uint256 => mapping(uint256 => struct DisasterRecoveryTraining.TrainingSlot))",
						"numberOfBytes": "32",
						"value": "t_mapping(t_uint256,t_struct(TrainingSlot)50_storage)"
					},
					"t_mapping(t_uint256,t_struct(Admin)14_storage)": {
						"encoding": "mapping",
						"key": "t_uint256",
						"label": "mapping(uint256 => struct DisasterRecoveryTraining.Admin)",
						"numberOfBytes": "32",
						"value": "t_struct(Admin)14_storage"
					},
					"t_mapping(t_uint256,t_struct(Participant)41_storage)": {
						"encoding": "mapping",
						"key": "t_uint256",
						"label": "mapping(uint256 => struct DisasterRecoveryTraining.Participant)",
						"numberOfBytes": "32",
						"value": "t_struct(Participant)41_storage"
					},
					"t_mapping(t_uint256,t_struct(Trainer)23_storage)": {
						"encoding": "mapping",
						"key": "t_uint256",
						"label": "mapping(uint256 => struct DisasterRecoveryTraining.Trainer)",
						"numberOfBytes": "32",
						"value": "t_struct(Trainer)23_storage"
					},
					"t_mapping(t_uint256,t_struct(TrainingSlot)50_storage)": {
						"encoding": "mapping",
						"key": "t_uint256",
						"label": "mapping(uint256 => struct DisasterRecoveryTraining.TrainingSlot)",
						"numberOfBytes": "32",
						"value": "t_struct(TrainingSlot)50_storage"
					},
					"t_string_storage": {
						"encoding": "bytes",
						"label": "string",
						"numberOfBytes": "32"
					},
					"t_struct(Admin)14_storage": {
						"encoding": "inplace",
						"label": "struct DisasterRecoveryTraining.Admin",
						"members": [
							{
								"astId": 7,
								"contract": "contracts/DisasterRecoveryTraining.sol:DisasterRecoveryTraining",
								"label": "id",
								"offset": 0,
								"slot": "0",
								"type": "t_uint256"
							},
							{
								"astId": 9,
								"contract": "contracts/DisasterRecoveryTraining.sol:DisasterRecoveryTraining",
								"label": "name",
								"offset": 0,
								"slot": "1",
								"type": "t_string_storage"
							},
							{
								"astId": 11,
								"contract": "contracts/DisasterRecoveryTraining.sol:DisasterRecoveryTraining",
								"label": "age",
								"offset": 0,
								"slot": "2",
								"type": "t_uint256"
							},
							{
								"astId": 13,
								"contract": "contracts/DisasterRecoveryTraining.sol:DisasterRecoveryTraining",
								"label": "balance",
								"offset": 0,
								"slot": "3",
								"type": "t_uint256"
							}
						],
						"numberOfBytes": "128"
					},
					"t_struct(Participant)41_storage": {
						"encoding": "inplace",
						"label": "struct DisasterRecoveryTraining.Participant",
						"members": [
							{
								"astId": 25,
								"contract": "contracts/DisasterRecoveryTraining.sol:DisasterRecoveryTraining",
								"label": "id",
								"offset": 0,
								"slot": "0",
								"type": "t_uint256"
							},
							{
								"astId": 27,
								"contract": "contracts/DisasterRecoveryTraining.sol:DisasterRecoveryTraining",
								"label": "name",
								"offset": 0,
								"slot": "1",
								"type": "t_string_storage"
							},
							{
								"astId": 29,
								"contract": "contracts/DisasterRecoveryTraining.sol:DisasterRecoveryTraining",
								"label": "age",
								"offset": 0,
								"slot": "2",
								"type": "t_uint256"
							},
							{
								"astId": 31,
								"contract": "contracts/DisasterRecoveryTraining.sol:DisasterRecoveryTraining",
								"label": "gender",
								"offset": 0,
								"slot": "3",
								"type": "t_string_storage"
							},
							{
								"astId": 33,
								"contract": "contracts/DisasterRecoveryTraining.sol:DisasterRecoveryTraining",
								"label": "district",
								"offset": 0,
								"slot": "4",
								"type": "t_string_storage"
							},
							{
								"astId": 36,
								"contract": "contracts/DisasterRecoveryTraining.sol:DisasterRecoveryTraining",
								"label": "training_interest",
								"offset": 0,
								"slot": "5",
								"type": "t_enum(TrainingType)5"
							},
							{
								"astId": 38,
								"contract": "contracts/DisasterRecoveryTraining.sol:DisasterRecoveryTraining",
								"label": "has_completed_training",
								"offset": 1,
								"slot": "5",
								"type": "t_bool"
							},
							{
								"astId": 40,
								"contract": "contracts/DisasterRecoveryTraining.sol:DisasterRecoveryTraining",
								"label": "balance",
								"offset": 0,
								"slot": "6",
								"type": "t_uint256"
							}
						],
						"numberOfBytes": "224"
					},
					"t_struct(Trainer)23_storage": {
						"encoding": "inplace",
						"label": "struct DisasterRecoveryTraining.Trainer",
						"members": [
							{
								"astId": 16,
								"contract": "contracts/DisasterRecoveryTraining.sol:DisasterRecoveryTraining",
								"label": "id",
								"offset": 0,
								"slot": "0",
								"type": "t_uint256"
							},
							{
								"astId": 18,
								"contract": "contracts/DisasterRecoveryTraining.sol:DisasterRecoveryTraining",
								"label": "name",
								"offset": 0,
								"slot": "1",
								"type": "t_string_storage"
							},
							{
								"astId": 20,
								"contract": "contracts/DisasterRecoveryTraining.sol:DisasterRecoveryTraining",
								"label": "age",
								"offset": 0,
								"slot": "2",
								"type": "t_uint256"
							},
							{
								"astId": 22,
								"contract": "contracts/DisasterRecoveryTraining.sol:DisasterRecoveryTraining",
								"label": "gender",
								"offset": 0,
								"slot": "3",
								"type": "t_string_storage"
							}
						],
						"numberOfBytes": "128"
					},
					"t_struct(TrainingSlot)50_storage": {
						"encoding": "inplace",
						"label": "struct DisasterRecoveryTraining.TrainingSlot",
						"members": [
							{
								"astId": 43,
								"contract": "contracts/DisasterRecoveryTraining.sol:DisasterRecoveryTraining",
								"label": "slotId",
								"offset": 0,
								"slot": "0",
								"type": "t_uint256"
							},
							{
								"astId": 45,
								"contract": "contracts/DisasterRecoveryTraining.sol:DisasterRecoveryTraining",
								"label": "trainerId",
								"offset": 0,
								"slot": "1",
								"type": "t_uint256"
							},
							{
								"astId": 47,
								"contract": "contracts/DisasterRecoveryTraining.sol:DisasterRecoveryTraining",
								"label": "participantId",
								"offset": 0,
								"slot": "2",
								"type": "t_uint256"
							},
							{
								"astId": 49,
								"contract": "contracts/DisasterRecoveryTraining.sol:DisasterRecoveryTraining",
								"label": "isBooked",
								"offset": 0,
								"slot": "3",
								"type": "t_bool"
							}
						],
						"numberOfBytes": "128"
					},
					"t_uint256": {
						"encoding": "inplace",
						"label": "uint256",
						"numberOfBytes": "32"
					}
				}
			},
			"userdoc": {
				"kind": "user",
				"methods": {},
				"version": 1
			}
		}
	}
}