{
	"data": {
		"bytecode": {
			"linkReferences": {},
			"object": "6080604052348015600e575f5ffd5b50612b1b8061001c5f395ff3fe608060405234801561000f575f5ffd5b5060043610610086575f3560e01c80636620f95f116100595780636620f95f1461012d5780636c80cd331461015d578063710e2aba1461018d578063a30b027b146101bd57610086565b80633a7002e11461008a57806351eca4dd146100a65780635a29dc29146100d75780635ffc80f2146100f6575b5f5ffd5b6100a4600480360381019061009f9190611674565b6101ed565b005b6100c060048036038101906100bb91906116c4565b6103dc565b6040516100ce9291906118d1565b60405180910390f35b6100df61075e565b6040516100ed929190611906565b60405180910390f35b610110600480360381019061010b91906116c4565b6108a7565b6040516101249897969594939291906119a1565b60405180910390f35b61014760048036038101906101429190611a32565b610b9d565b6040516101549190611a82565b60405180910390f35b61017760048036038101906101729190611bc7565b610ef3565b6040516101849190611c63565b60405180910390f35b6101a760048036038101906101a29190611c7c565b61104b565b6040516101b49190611c63565b60405180910390f35b6101d760048036038101906101d29190611ce8565b61120e565b6040516101e49190611c63565b60405180910390f35b60015f3373ffffffffffffffffffffffffffffffffffffffff1673ffffffffffffffffffffffffffffffffffffffff1681526020019081526020015f205f9054906101000a900460ff16610276576040517f08c379a000000000000000000000000000000000000000000000000000000000815260040161026d90611e49565b60405180910390fd5b5f60035f8581526020019081526020015f205f0154036102cb576040517f08c379a00000000000000000000000000000000000000000000000000000000081526004016102c290611eb1565b60405180910390fd5b600282111561030f576040517f08c379a000000000000000000000000000000000000000000000000000000000815260040161030690611f19565b60405180910390fd5b5f60035f8581526020019081526020015f2090508060050160019054906101000a900460ff16158061033e5750815b61037d576040517f08c379a000000000000000000000000000000000000000000000000000000000815260040161037490611fa7565b60405180910390fd5b8260028111156103905761038f611fc5565b5b816005015f6101000a81548160ff021916908360028111156103b5576103b4611fc5565b5b0217905550818160050160016101000a81548160ff02191690831515021790555050505050565b6060805f60025f8581526020019081526020015f205f015403610434576040517f08c379a000000000000000000000000000000000000000000000000000000000815260040161042b9061203c565b60405180910390fd5b5f5f90505f5f90505b60308110156104965760045f8681526020019081526020015f205f8281526020019081526020015f206003015f9054906101000a900460ff1661048957818061048590612087565b9250505b808060010191505061043d565b508067ffffffffffffffff8111156104b1576104b0611aa3565b5b6040519080825280602002602001820160405280156104df5781602001602082028036833780820191505090505b5092508067ffffffffffffffff8111156104fc576104fb611aa3565b5b60405190808252806020026020018201604052801561052f57816020015b606081526020019060019003908161051a5790505b5091505f5f90505f5f90505b60308110156107565760045f8781526020019081526020015f205f8281526020019081526020015f206003015f9054906101000a900460ff16610749578085838151811061058c5761058b6120ce565b5b6020026020010181815250505f6002826105a69190612128565b90505f601e6002846105b89190612158565b6105c29190612188565b90505f8290505f601e836105d691906121c9565b9050603c81036105f25781806105eb90612087565b9250505f90505b6105fb84611463565b5f841461063d576040518060400160405280600281526020017f3330000000000000000000000000000000000000000000000000000000000000815250610674565b6040518060400160405280600281526020017f30300000000000000000000000000000000000000000000000000000000000008152505b61067d84611463565b5f84146106bf576040518060400160405280600281526020017f33300000000000000000000000000000000000000000000000000000000000008152506106f6565b6040518060400160405280600281526020017f30300000000000000000000000000000000000000000000000000000000000008152505b60405160200161070994939291906122ca565b60405160208183030381529060405288878151811061072b5761072a6120ce565b5b6020026020010181905250858061074190612087565b965050505050505b808060010191505061053b565b505050915091565b6060805f60058054905090508067ffffffffffffffff81111561078457610783611aa3565b5b6040519080825280602002602001820160405280156107b25781602001602082028036833780820191505090505b5092508067ffffffffffffffff8111156107cf576107ce611aa3565b5b6040519080825280602002602001820160405280156107fd5781602001602082028036833780820191505090505b5091505f5f90505b818110156108a1575f60058281548110610822576108216120ce565b5b905f5260205f200154905080858381518110610841576108406120ce565b5b602002602001018181525050670de0b6b3a76400005f5f8381526020019081526020015f20600301546108749190612128565b848381518110610887576108866120ce565b5b602002602001018181525050508080600101915050610805565b50509091565b5f60605f6060805f5f5f5f60035f8b81526020019081526020015f205f015403610906576040517f08c379a00000000000000000000000000000000000000000000000000000000081526004016108fd90611eb1565b60405180910390fd5b5f60035f8b81526020019081526020015f20604051806101000160405290815f820154815260200160018201805461093d90612355565b80601f016020809104026020016040519081016040528092919081815260200182805461096990612355565b80156109b45780601f1061098b576101008083540402835291602001916109b4565b820191905f5260205f20905b81548152906001019060200180831161099757829003601f168201915b50505050508152602001600282015481526020016003820180546109d790612355565b80601f0160208091040260200160405190810160405280929190818152602001828054610a0390612355565b8015610a4e5780601f10610a2557610100808354040283529160200191610a4e565b820191905f5260205f20905b815481529060010190602001808311610a3157829003601f168201915b50505050508152602001600482018054610a6790612355565b80601f0160208091040260200160405190810160405280929190818152602001828054610a9390612355565b8015610ade5780601f10610ab557610100808354040283529160200191610ade565b820191905f5260205f20905b815481529060010190602001808311610ac157829003601f168201915b50505050508152602001600582015f9054906101000a900460ff166002811115610b0b57610b0a611fc5565b5b6002811115610b1d57610b1c611fc5565b5b81526020016005820160019054906101000a900460ff161515151581526020016006820154815250509050805f015181602001518260400151836060015184608001518560a001516002811115610b7757610b76611fc5565b5b8660c001518760e001519850985098509850985098509850985050919395975091939597565b5f5f60025f8681526020019081526020015f205f015403610bf3576040517f08c379a0000000000000000000000000000000000000000000000000000000008152600401610bea9061203c565b60405180910390fd5b5f60035f8581526020019081526020015f205f015403610c48576040517f08c379a0000000000000000000000000000000000000000000000000000000008152600401610c3f90611eb1565b60405180910390fd5b670de0b6b3a764000060035f8581526020019081526020015f20600601541015610ca7576040517f08c379a0000000000000000000000000000000000000000000000000000000008152600401610c9e906123cf565b60405180910390fd5b5f60058054905011610cee576040517f08c379a0000000000000000000000000000000000000000000000000000000008152600401610ce590612437565b60405180910390fd5b60308210610d31576040517f08c379a0000000000000000000000000000000000000000000000000000000008152600401610d289061249f565b60405180910390fd5b60045f8581526020019081526020015f205f8381526020019081526020015f206003015f9054906101000a900460ff1615610da1576040517f08c379a0000000000000000000000000000000000000000000000000000000008152600401610d9890612507565b60405180910390fd5b60405180608001604052808381526020018581526020018481526020016001151581525060045f8681526020019081526020015f205f8481526020019081526020015f205f820151815f015560208201518160010155604082015181600201556060820151816003015f6101000a81548160ff0219169083151502179055509050505f600580549050424486604051602001610e3f93929190612545565b604051602081830303815290604052805190602001205f1c610e619190612158565b90505f60058281548110610e7857610e776120ce565b5b905f5260205f2001549050670de0b6b3a764000060035f8781526020019081526020015f206006015f828254610eae9190612581565b92505081905550670de0b6b3a76400005f5f8381526020019081526020015f206003015f828254610edf91906121c9565b925050819055506001925050509392505050565b5f5f8311610f36576040517f08c379a0000000000000000000000000000000000000000000000000000000008152600401610f2d906125fe565b60405180910390fd5b5f8511610f78576040517f08c379a0000000000000000000000000000000000000000000000000000000008152600401610f6f90612666565b60405180910390fd5b5f60025f8781526020019081526020015f205f015414610fcd576040517f08c379a0000000000000000000000000000000000000000000000000000000008152600401610fc4906126ce565b60405180910390fd5b60405180608001604052808681526020018581526020018481526020018381525060025f8781526020019081526020015f205f820151815f0155602082015181600101908161101c919061288c565b5060408201518160020155606082015181600301908161103c919061288c565b50905050849050949350505050565b5f5f821161108e576040517f08c379a0000000000000000000000000000000000000000000000000000000008152600401611085906125fe565b60405180910390fd5b5f84116110d0576040517f08c379a00000000000000000000000000000000000000000000000000000000081526004016110c790612666565b60405180910390fd5b5f5f5f8681526020019081526020015f205f015414611124576040517f08c379a000000000000000000000000000000000000000000000000000000000815260040161111b906129a5565b60405180910390fd5b60405180608001604052808581526020018481526020018381526020015f8152505f5f8681526020019081526020015f205f820151815f01556020820151816001019081611172919061288c565b506040820151816002015560608201518160030155905050600584908060018154018082558091505060019003905f5260205f20015f90919091909150556001805f3373ffffffffffffffffffffffffffffffffffffffff1673ffffffffffffffffffffffffffffffffffffffff1681526020019081526020015f205f6101000a81548160ff0219169083151502179055508390509392505050565b5f5f8611611251576040517f08c379a0000000000000000000000000000000000000000000000000000000008152600401611248906125fe565b60405180910390fd5b5f8811611293576040517f08c379a000000000000000000000000000000000000000000000000000000000815260040161128a90612666565b60405180910390fd5b5f60035f8a81526020019081526020015f205f0154146112e8576040517f08c379a00000000000000000000000000000000000000000000000000000000081526004016112df90612a0d565b60405180910390fd5b600283111561132c576040517f08c379a000000000000000000000000000000000000000000000000000000000815260040161132390611f19565b60405180910390fd5b60405180610100016040528089815260200188815260200187815260200186815260200185815260200184600281111561136957611368611fc5565b5b600281111561137b5761137a611fc5565b5b81526020018315158152602001678ac7230489e8000081525060035f8a81526020019081526020015f205f820151815f015560208201518160010190816113c2919061288c565b506040820151816002015560608201518160030190816113e2919061288c565b5060808201518160040190816113f8919061288c565b5060a0820151816005015f6101000a81548160ff0219169083600281111561142357611422611fc5565b5b021790555060c08201518160050160016101000a81548160ff02191690831515021790555060e08201518160060155905050879050979650505050505050565b60605f82036114a9576040518060400160405280600181526020017f300000000000000000000000000000000000000000000000000000000000000081525090506115f6565b600a8210156114e8578160306114bf91906121c9565b60f81b6040516020016114d29190612ac0565b60405160208183030381529060405290506115f6565b5f8290505f5b5f821461151757808061150090612087565b915050600a826115109190612128565b91506114ee565b5f8167ffffffffffffffff81111561153257611531611aa3565b5b6040519080825280601f01601f1916602001820160405280156115645781602001600182028036833780820191505090505b5090505b5f85146115ef5760018261157c9190612581565b9150600a8561158b9190612158565b603061159791906121c9565b60f81b8183815181106115ad576115ac6120ce565b5b60200101907effffffffffffffffffffffffffffffffffffffffffffffffffffffffffffff191690815f1a905350600a856115e89190612128565b9450611568565b8093505050505b919050565b5f604051905090565b5f5ffd5b5f5ffd5b5f819050919050565b61161e8161160c565b8114611628575f5ffd5b50565b5f8135905061163981611615565b92915050565b5f8115159050919050565b6116538161163f565b811461165d575f5ffd5b50565b5f8135905061166e8161164a565b92915050565b5f5f5f6060848603121561168b5761168a611604565b5b5f6116988682870161162b565b93505060206116a98682870161162b565b92505060406116ba86828701611660565b9150509250925092565b5f602082840312156116d9576116d8611604565b5b5f6116e68482850161162b565b91505092915050565b5f81519050919050565b5f82825260208201905092915050565b5f819050602082019050919050565b6117218161160c565b82525050565b5f6117328383611718565b60208301905092915050565b5f602082019050919050565b5f611754826116ef565b61175e81856116f9565b935061176983611709565b805f5b838110156117995781516117808882611727565b975061178b8361173e565b92505060018101905061176c565b5085935050505092915050565b5f81519050919050565b5f82825260208201905092915050565b5f819050602082019050919050565b5f81519050919050565b5f82825260208201905092915050565b8281835e5f83830152505050565b5f601f19601f8301169050919050565b5f611811826117cf565b61181b81856117d9565b935061182b8185602086016117e9565b611834816117f7565b840191505092915050565b5f61184a8383611807565b905092915050565b5f602082019050919050565b5f611868826117a6565b61187281856117b0565b935083602082028501611884856117c0565b805f5b858110156118bf57848403895281516118a0858261183f565b94506118ab83611852565b925060208a01995050600181019050611887565b50829750879550505050505092915050565b5f6040820190508181035f8301526118e9818561174a565b905081810360208301526118fd818461185e565b90509392505050565b5f6040820190508181035f83015261191e818561174a565b90508181036020830152611932818461174a565b90509392505050565b6119448161160c565b82525050565b5f82825260208201905092915050565b5f611964826117cf565b61196e818561194a565b935061197e8185602086016117e9565b611987816117f7565b840191505092915050565b61199b8161163f565b82525050565b5f610100820190506119b55f83018b61193b565b81810360208301526119c7818a61195a565b90506119d6604083018961193b565b81810360608301526119e8818861195a565b905081810360808301526119fc818761195a565b9050611a0b60a083018661193b565b611a1860c0830185611992565b611a2560e083018461193b565b9998505050505050505050565b5f5f5f60608486031215611a4957611a48611604565b5b5f611a568682870161162b565b9350506020611a678682870161162b565b9250506040611a788682870161162b565b9150509250925092565b5f602082019050611a955f830184611992565b92915050565b5f5ffd5b5f5ffd5b7f4e487b71000000000000000000000000000000000000000000000000000000005f52604160045260245ffd5b611ad9826117f7565b810181811067ffffffffffffffff82111715611af857611af7611aa3565b5b80604052505050565b5f611b0a6115fb565b9050611b168282611ad0565b919050565b5f67ffffffffffffffff821115611b3557611b34611aa3565b5b611b3e826117f7565b9050602081019050919050565b828183375f83830152505050565b5f611b6b611b6684611b1b565b611b01565b905082815260208101848484011115611b8757611b86611a9f565b5b611b92848285611b4b565b509392505050565b5f82601f830112611bae57611bad611a9b565b5b8135611bbe848260208601611b59565b91505092915050565b5f5f5f5f60808587031215611bdf57611bde611604565b5b5f611bec8782880161162b565b945050602085013567ffffffffffffffff811115611c0d57611c0c611608565b5b611c1987828801611b9a565b9350506040611c2a8782880161162b565b925050606085013567ffffffffffffffff811115611c4b57611c4a611608565b5b611c5787828801611b9a565b91505092959194509250565b5f602082019050611c765f83018461193b565b92915050565b5f5f5f60608486031215611c9357611c92611604565b5b5f611ca08682870161162b565b935050602084013567ffffffffffffffff811115611cc157611cc0611608565b5b611ccd86828701611b9a565b9250506040611cde8682870161162b565b9150509250925092565b5f5f5f5f5f5f5f60e0888a031215611d0357611d02611604565b5b5f611d108a828b0161162b565b975050602088013567ffffffffffffffff811115611d3157611d30611608565b5b611d3d8a828b01611b9a565b9650506040611d4e8a828b0161162b565b955050606088013567ffffffffffffffff811115611d6f57611d6e611608565b5b611d7b8a828b01611b9a565b945050608088013567ffffffffffffffff811115611d9c57611d9b611608565b5b611da88a828b01611b9a565b93505060a0611db98a828b0161162b565b92505060c0611dca8a828b01611660565b91505092959891949750929550565b7f4f6e6c792061646d696e2063616e20706572666f726d207468697320616374695f8201527f6f6e000000000000000000000000000000000000000000000000000000000000602082015250565b5f611e3360228361194a565b9150611e3e82611dd9565b604082019050919050565b5f6020820190508181035f830152611e6081611e27565b9050919050565b7f5061727469636970616e74206e6f7420666f756e6400000000000000000000005f82015250565b5f611e9b60158361194a565b9150611ea682611e67565b602082019050919050565b5f6020820190508181035f830152611ec881611e8f565b9050919050565b7f496e76616c696420747261696e696e6720696e746572657374000000000000005f82015250565b5f611f0360198361194a565b9150611f0e82611ecf565b602082019050919050565b5f6020820190508181035f830152611f3081611ef7565b9050919050565b7f43616e6e6f74206368616e676520636f6d706c657465642066726f6d207472755f8201527f6520746f2066616c736500000000000000000000000000000000000000000000602082015250565b5f611f91602a8361194a565b9150611f9c82611f37565b604082019050919050565b5f6020820190508181035f830152611fbe81611f85565b9050919050565b7f4e487b71000000000000000000000000000000000000000000000000000000005f52602160045260245ffd5b7f547261696e6572206e6f7420666f756e640000000000000000000000000000005f82015250565b5f61202660118361194a565b915061203182611ff2565b602082019050919050565b5f6020820190508181035f8301526120538161201a565b9050919050565b7f4e487b71000000000000000000000000000000000000000000000000000000005f52601160045260245ffd5b5f6120918261160c565b91507fffffffffffffffffffffffffffffffffffffffffffffffffffffffffffffffff82036120c3576120c261205a565b5b600182019050919050565b7f4e487b71000000000000000000000000000000000000000000000000000000005f52603260045260245ffd5b7f4e487b71000000000000000000000000000000000000000000000000000000005f52601260045260245ffd5b5f6121328261160c565b915061213d8361160c565b92508261214d5761214c6120fb565b5b828204905092915050565b5f6121628261160c565b915061216d8361160c565b92508261217d5761217c6120fb565b5b828206905092915050565b5f6121928261160c565b915061219d8361160c565b92508282026121ab8161160c565b915082820484148315176121c2576121c161205a565b5b5092915050565b5f6121d38261160c565b91506121de8361160c565b92508282019050808211156121f6576121f561205a565b5b92915050565b5f81905092915050565b5f612210826117cf565b61221a81856121fc565b935061222a8185602086016117e9565b80840191505092915050565b7f3a000000000000000000000000000000000000000000000000000000000000005f82015250565b5f61226a6001836121fc565b915061227582612236565b600182019050919050565b7f2d000000000000000000000000000000000000000000000000000000000000005f82015250565b5f6122b46001836121fc565b91506122bf82612280565b600182019050919050565b5f6122d58287612206565b91506122e08261225e565b91506122ec8286612206565b91506122f7826122a8565b91506123038285612206565b915061230e8261225e565b915061231a8284612206565b915081905095945050505050565b7f4e487b71000000000000000000000000000000000000000000000000000000005f52602260045260245ffd5b5f600282049050600182168061236c57607f821691505b60208210810361237f5761237e612328565b5b50919050565b7f496e73756666696369656e74207061727469636970616e742062616c616e63655f82015250565b5f6123b960208361194a565b91506123c482612385565b602082019050919050565b5f6020820190508181035f8301526123e6816123ad565b9050919050565b7f4e6f2061646d696e7320617661696c61626c65000000000000000000000000005f82015250565b5f61242160138361194a565b915061242c826123ed565b602082019050919050565b5f6020820190508181035f83015261244e81612415565b9050919050565b7f496e76616c696420736c6f7420494400000000000000000000000000000000005f82015250565b5f612489600f8361194a565b915061249482612455565b602082019050919050565b5f6020820190508181035f8301526124b68161247d565b9050919050565b7f536c6f7420697320616c726561647920626f6f6b6564000000000000000000005f82015250565b5f6124f160168361194a565b91506124fc826124bd565b602082019050919050565b5f6020820190508181035f83015261251e816124e5565b9050919050565b5f819050919050565b61253f61253a8261160c565b612525565b82525050565b5f612550828661252e565b602082019150612560828561252e565b602082019150612570828461252e565b602082019150819050949350505050565b5f61258b8261160c565b91506125968361160c565b92508282039050818111156125ae576125ad61205a565b5b92915050565b7f496e76616c6964206167650000000000000000000000000000000000000000005f82015250565b5f6125e8600b8361194a565b91506125f3826125b4565b602082019050919050565b5f6020820190508181035f830152612615816125dc565b9050919050565b7f496e76616c6964204944000000000000000000000000000000000000000000005f82015250565b5f612650600a8361194a565b915061265b8261261c565b602082019050919050565b5f6020820190508181035f83015261267d81612644565b9050919050565b7f547261696e657220494420616c726561647920657869737473000000000000005f82015250565b5f6126b860198361194a565b91506126c382612684565b602082019050919050565b5f6020820190508181035f8301526126e5816126ac565b9050919050565b5f819050815f5260205f209050919050565b5f6020601f8301049050919050565b5f82821b905092915050565b5f600883026127487fffffffffffffffffffffffffffffffffffffffffffffffffffffffffffffffff8261270d565b612752868361270d565b95508019841693508086168417925050509392505050565b5f819050919050565b5f61278d6127886127838461160c565b61276a565b61160c565b9050919050565b5f819050919050565b6127a683612773565b6127ba6127b282612794565b848454612719565b825550505050565b5f5f905090565b6127d16127c2565b6127dc81848461279d565b505050565b5b818110156127ff576127f45f826127c9565b6001810190506127e2565b5050565b601f82111561284457612815816126ec565b61281e846126fe565b8101602085101561282d578190505b612841612839856126fe565b8301826127e1565b50505b505050565b5f82821c905092915050565b5f6128645f1984600802612849565b1980831691505092915050565b5f61287c8383612855565b9150826002028217905092915050565b612895826117cf565b67ffffffffffffffff8111156128ae576128ad611aa3565b5b6128b88254612355565b6128c3828285612803565b5f60209050601f8311600181146128f4575f84156128e2578287015190505b6128ec8582612871565b865550612953565b601f198416612902866126ec565b5f5b8281101561292957848901518255600182019150602085019450602081019050612904565b868310156129465784890151612942601f891682612855565b8355505b6001600288020188555050505b505050505050565b7f41646d696e20494420616c7265616479206578697374730000000000000000005f82015250565b5f61298f60178361194a565b915061299a8261295b565b602082019050919050565b5f6020820190508181035f8301526129bc81612983565b9050919050565b7f5061727469636970616e7420494420616c7265616479206578697374730000005f82015250565b5f6129f7601d8361194a565b9150612a02826129c3565b602082019050919050565b5f6020820190508181035f830152612a24816129eb565b9050919050565b7f30000000000000000000000000000000000000000000000000000000000000005f82015250565b5f612a5f6001836121fc565b9150612a6a82612a2b565b600182019050919050565b5f7fff0000000000000000000000000000000000000000000000000000000000000082169050919050565b5f819050919050565b612aba612ab582612a75565b612aa0565b82525050565b5f612aca82612a53565b9150612ad68284612aa9565b6001820191508190509291505056fea2646970667358221220fa8158059199163cec0f71f018259f84e12b38f1e53f4223967d0eaa7066f78164736f6c634300081e0033",
			"opcodes": "PUSH1 0x80 PUSH1 0x40 MSTORE CALLVALUE DUP1 ISZERO PUSH1 0xE JUMPI PUSH0 PUSH0 REVERT JUMPDEST POP PUSH2 0x2B1B DUP1 PUSH2 0x1C PUSH0 CODECOPY PUSH0 RETURN INVALID PUSH1 0x80 PUSH1 0x40 MSTORE CALLVALUE DUP1 ISZERO PUSH2 0xF JUMPI PUSH0 PUSH0 REVERT JUMPDEST POP PUSH1 0x4 CALLDATASIZE LT PUSH2 0x86 JUMPI PUSH0 CALLDATALOAD PUSH1 0xE0 SHR DUP1 PUSH4 0x6620F95F GT PUSH2 0x59 JUMPI DUP1 PUSH4 0x6620F95F EQ PUSH2 0x12D JUMPI DUP1 PUSH4 0x6C80CD33 EQ PUSH2 0x15D JUMPI DUP1 PUSH4 0x710E2ABA EQ PUSH2 0x18D JUMPI DUP1 PUSH4 0xA30B027B EQ PUSH2 0x1BD JUMPI PUSH2 0x86 JUMP JUMPDEST DUP1 PUSH4 0x3A7002E1 EQ PUSH2 0x8A JUMPI DUP1 PUSH4 0x51ECA4DD EQ PUSH2 0xA6 JUMPI DUP1 PUSH4 0x5A29DC29 EQ PUSH2 0xD7 JUMPI DUP1 PUSH4 0x5FFC80F2 EQ PUSH2 0xF6 JUMPI JUMPDEST PUSH0 PUSH0 REVERT JUMPDEST PUSH2 0xA4 PUSH1 0x4 DUP1 CALLDATASIZE SUB DUP2 ADD SWAP1 PUSH2 0x9F SWAP2 SWAP1 PUSH2 0x1674 JUMP JUMPDEST PUSH2 0x1ED JUMP JUMPDEST STOP JUMPDEST PUSH2 0xC0 PUSH1 0x4 DUP1 CALLDATASIZE SUB DUP2 ADD SWAP1 PUSH2 0xBB SWAP2 SWAP1 PUSH2 0x16C4 JUMP JUMPDEST PUSH2 0x3DC JUMP JUMPDEST PUSH1 0x40 MLOAD PUSH2 0xCE SWAP3 SWAP2 SWAP1 PUSH2 0x18D1 JUMP JUMPDEST PUSH1 0x40 MLOAD DUP1 SWAP2 SUB SWAP1 RETURN JUMPDEST PUSH2 0xDF PUSH2 0x75E JUMP JUMPDEST PUSH1 0x40 MLOAD PUSH2 0xED SWAP3 SWAP2 SWAP1 PUSH2 0x1906 JUMP JUMPDEST PUSH1 0x40 MLOAD DUP1 SWAP2 SUB SWAP1 RETURN JUMPDEST PUSH2 0x110 PUSH1 0x4 DUP1 CALLDATASIZE SUB DUP2 ADD SWAP1 PUSH2 0x10B SWAP2 SWAP1 PUSH2 0x16C4 JUMP JUMPDEST PUSH2 0x8A7 JUMP JUMPDEST PUSH1 0x40 MLOAD PUSH2 0x124 SWAP9 SWAP8 SWAP7 SWAP6 SWAP5 SWAP4 SWAP3 SWAP2 SWAP1 PUSH2 0x19A1 JUMP JUMPDEST PUSH1 0x40 MLOAD DUP1 SWAP2 SUB SWAP1 RETURN JUMPDEST PUSH2 0x147 PUSH1 0x4 DUP1 CALLDATASIZE SUB DUP2 ADD SWAP1 PUSH2 0x142 SWAP2 SWAP1 PUSH2 0x1A32 JUMP JUMPDEST PUSH2 0xB9D JUMP JUMPDEST PUSH1 0x40 MLOAD PUSH2 0x154 SWAP2 SWAP1 PUSH2 0x1A82 JUMP JUMPDEST PUSH1 0x40 MLOAD DUP1 SWAP2 SUB SWAP1 RETURN JUMPDEST PUSH2 0x177 PUSH1 0x4 DUP1 CALLDATASIZE SUB DUP2 ADD SWAP1 PUSH2 0x172 SWAP2 SWAP1 PUSH2 0x1BC7 JUMP JUMPDEST PUSH2 0xEF3 JUMP JUMPDEST PUSH1 0x40 MLOAD PUSH2 0x184 SWAP2 SWAP1 PUSH2 0x1C63 JUMP JUMPDEST PUSH1 0x40 MLOAD DUP1 SWAP2 SUB SWAP1 RETURN JUMPDEST PUSH2 0x1A7 PUSH1 0x4 DUP1 CALLDATASIZE SUB DUP2 ADD SWAP1 PUSH2 0x1A2 SWAP2 SWAP1 PUSH2 0x1C7C JUMP JUMPDEST PUSH2 0x104B JUMP JUMPDEST PUSH1 0x40 MLOAD PUSH2 0x1B4 SWAP2 SWAP1 PUSH2 0x1C63 JUMP JUMPDEST PUSH1 0x40 MLOAD DUP1 SWAP2 SUB SWAP1 RETURN JUMPDEST PUSH2 0x1D7 PUSH1 0x4 DUP1 CALLDATASIZE SUB DUP2 ADD SWAP1 PUSH2 0x1D2 SWAP2 SWAP1 PUSH2 0x1CE8 JUMP JUMPDEST PUSH2 0x120E JUMP JUMPDEST PUSH1 0x40 MLOAD PUSH2 0x1E4 SWAP2 SWAP1 PUSH2 0x1C63 JUMP JUMPDEST PUSH1 0x40 MLOAD DUP1 SWAP2 SUB SWAP1 RETURN JUMPDEST PUSH1 0x1 PUSH0 CALLER PUSH20 0xFFFFFFFFFFFFFFFFFFFFFFFFFFFFFFFFFFFFFFFF AND PUSH20 0xFFFFFFFFFFFFFFFFFFFFFFFFFFFFFFFFFFFFFFFF AND DUP2 MSTORE PUSH1 0x20 ADD SWAP1 DUP2 MSTORE PUSH1 0x20 ADD PUSH0 KECCAK256 PUSH0 SWAP1 SLOAD SWAP1 PUSH2 0x100 EXP SWAP1 DIV PUSH1 0xFF AND PUSH2 0x276 JUMPI PUSH1 0x40 MLOAD PUSH32 0x8C379A000000000000000000000000000000000000000000000000000000000 DUP2 MSTORE PUSH1 0x4 ADD PUSH2 0x26D SWAP1 PUSH2 0x1E49 JUMP JUMPDEST PUSH1 0x40 MLOAD DUP1 SWAP2 SUB SWAP1 REVERT JUMPDEST PUSH0 PUSH1 0x3 PUSH0 DUP6 DUP2 MSTORE PUSH1 0x20 ADD SWAP1 DUP2 MSTORE PUSH1 0x20 ADD PUSH0 KECCAK256 PUSH0 ADD SLOAD SUB PUSH2 0x2CB JUMPI PUSH1 0x40 MLOAD PUSH32 0x8C379A000000000000000000000000000000000000000000000000000000000 DUP2 MSTORE PUSH1 0x4 ADD PUSH2 0x2C2 SWAP1 PUSH2 0x1EB1 JUMP JUMPDEST PUSH1 0x40 MLOAD DUP1 SWAP2 SUB SWAP1 REVERT JUMPDEST PUSH1 0x2 DUP3 GT ISZERO PUSH2 0x30F JUMPI PUSH1 0x40 MLOAD PUSH32 0x8C379A000000000000000000000000000000000000000000000000000000000 DUP2 MSTORE PUSH1 0x4 ADD PUSH2 0x306 SWAP1 PUSH2 0x1F19 JUMP JUMPDEST PUSH1 0x40 MLOAD DUP1 SWAP2 SUB SWAP1 REVERT JUMPDEST PUSH0 PUSH1 0x3 PUSH0 DUP6 DUP2 MSTORE PUSH1 0x20 ADD SWAP1 DUP2 MSTORE PUSH1 0x20 ADD PUSH0 KECCAK256 SWAP1 POP DUP1 PUSH1 0x5 ADD PUSH1 0x1 SWAP1 SLOAD SWAP1 PUSH2 0x100 EXP SWAP1 DIV PUSH1 0xFF AND ISZERO DUP1 PUSH2 0x33E JUMPI POP DUP2 JUMPDEST PUSH2 0x37D JUMPI PUSH1 0x40 MLOAD PUSH32 0x8C379A000000000000000000000000000000000000000000000000000000000 DUP2 MSTORE PUSH1 0x4 ADD PUSH2 0x374 SWAP1 PUSH2 0x1FA7 JUMP JUMPDEST PUSH1 0x40 MLOAD DUP1 SWAP2 SUB SWAP1 REVERT JUMPDEST DUP3 PUSH1 0x2 DUP2 GT ISZERO PUSH2 0x390 JUMPI PUSH2 0x38F PUSH2 0x1FC5 JUMP JUMPDEST JUMPDEST DUP2 PUSH1 0x5 ADD PUSH0 PUSH2 0x100 EXP DUP2 SLOAD DUP2 PUSH1 0xFF MUL NOT AND SWAP1 DUP4 PUSH1 0x2 DUP2 GT ISZERO PUSH2 0x3B5 JUMPI PUSH2 0x3B4 PUSH2 0x1FC5 JUMP JUMPDEST JUMPDEST MUL OR SWAP1 SSTORE POP DUP2 DUP2 PUSH1 0x5 ADD PUSH1 0x1 PUSH2 0x100 EXP DUP2 SLOAD DUP2 PUSH1 0xFF MUL NOT AND SWAP1 DUP4 ISZERO ISZERO MUL OR SWAP1 SSTORE POP POP POP POP POP JUMP JUMPDEST PUSH1 0x60 DUP1 PUSH0 PUSH1 0x2 PUSH0 DUP6 DUP2 MSTORE PUSH1 0x20 ADD SWAP1 DUP2 MSTORE PUSH1 0x20 ADD PUSH0 KECCAK256 PUSH0 ADD SLOAD SUB PUSH2 0x434 JUMPI PUSH1 0x40 MLOAD PUSH32 0x8C379A000000000000000000000000000000000000000000000000000000000 DUP2 MSTORE PUSH1 0x4 ADD PUSH2 0x42B SWAP1 PUSH2 0x203C JUMP JUMPDEST PUSH1 0x40 MLOAD DUP1 SWAP2 SUB SWAP1 REVERT JUMPDEST PUSH0 PUSH0 SWAP1 POP PUSH0 PUSH0 SWAP1 POP JUMPDEST PUSH1 0x30 DUP2 LT ISZERO PUSH2 0x496 JUMPI PUSH1 0x4 PUSH0 DUP7 DUP2 MSTORE PUSH1 0x20 ADD SWAP1 DUP2 MSTORE PUSH1 0x20 ADD PUSH0 KECCAK256 PUSH0 DUP3 DUP2 MSTORE PUSH1 0x20 ADD SWAP1 DUP2 MSTORE PUSH1 0x20 ADD PUSH0 KECCAK256 PUSH1 0x3 ADD PUSH0 SWAP1 SLOAD SWAP1 PUSH2 0x100 EXP SWAP1 DIV PUSH1 0xFF AND PUSH2 0x489 JUMPI DUP2 DUP1 PUSH2 0x485 SWAP1 PUSH2 0x2087 JUMP JUMPDEST SWAP3 POP POP JUMPDEST DUP1 DUP1 PUSH1 0x1 ADD SWAP2 POP POP PUSH2 0x43D JUMP JUMPDEST POP DUP1 PUSH8 0xFFFFFFFFFFFFFFFF DUP2 GT ISZERO PUSH2 0x4B1 JUMPI PUSH2 0x4B0 PUSH2 0x1AA3 JUMP JUMPDEST JUMPDEST PUSH1 0x40 MLOAD SWAP1 DUP1 DUP3 MSTORE DUP1 PUSH1 0x20 MUL PUSH1 0x20 ADD DUP3 ADD PUSH1 0x40 MSTORE DUP1 ISZERO PUSH2 0x4DF JUMPI DUP2 PUSH1 0x20 ADD PUSH1 0x20 DUP3 MUL DUP1 CALLDATASIZE DUP4 CALLDATACOPY DUP1 DUP3 ADD SWAP2 POP POP SWAP1 POP JUMPDEST POP SWAP3 POP DUP1 PUSH8 0xFFFFFFFFFFFFFFFF DUP2 GT ISZERO PUSH2 0x4FC JUMPI PUSH2 0x4FB PUSH2 0x1AA3 JUMP JUMPDEST JUMPDEST PUSH1 0x40 MLOAD SWAP1 DUP1 DUP3 MSTORE DUP1 PUSH1 0x20 MUL PUSH1 0x20 ADD DUP3 ADD PUSH1 0x40 MSTORE DUP1 ISZERO PUSH2 0x52F JUMPI DUP2 PUSH1 0x20 ADD JUMPDEST PUSH1 0x60 DUP2 MSTORE PUSH1 0x20 ADD SWAP1 PUSH1 0x1 SWAP1 SUB SWAP1 DUP2 PUSH2 0x51A JUMPI SWAP1 POP JUMPDEST POP SWAP2 POP PUSH0 PUSH0 SWAP1 POP PUSH0 PUSH0 SWAP1 POP JUMPDEST PUSH1 0x30 DUP2 LT ISZERO PUSH2 0x756 JUMPI PUSH1 0x4 PUSH0 DUP8 DUP2 MSTORE PUSH1 0x20 ADD SWAP1 DUP2 MSTORE PUSH1 0x20 ADD PUSH0 KECCAK256 PUSH0 DUP3 DUP2 MSTORE PUSH1 0x20 ADD SWAP1 DUP2 MSTORE PUSH1 0x20 ADD PUSH0 KECCAK256 PUSH1 0x3 ADD PUSH0 SWAP1 SLOAD SWAP1 PUSH2 0x100 EXP SWAP1 DIV PUSH1 0xFF AND PUSH2 0x749 JUMPI DUP1 DUP6 DUP4 DUP2 MLOAD DUP2 LT PUSH2 0x58C JUMPI PUSH2 0x58B PUSH2 0x20CE JUMP JUMPDEST JUMPDEST PUSH1 0x20 MUL PUSH1 0x20 ADD ADD DUP2 DUP2 MSTORE POP POP PUSH0 PUSH1 0x2 DUP3 PUSH2 0x5A6 SWAP2 SWAP1 PUSH2 0x2128 JUMP JUMPDEST SWAP1 POP PUSH0 PUSH1 0x1E PUSH1 0x2 DUP5 PUSH2 0x5B8 SWAP2 SWAP1 PUSH2 0x2158 JUMP JUMPDEST PUSH2 0x5C2 SWAP2 SWAP1 PUSH2 0x2188 JUMP JUMPDEST SWAP1 POP PUSH0 DUP3 SWAP1 POP PUSH0 PUSH1 0x1E DUP4 PUSH2 0x5D6 SWAP2 SWAP1 PUSH2 0x21C9 JUMP JUMPDEST SWAP1 POP PUSH1 0x3C DUP2 SUB PUSH2 0x5F2 JUMPI DUP2 DUP1 PUSH2 0x5EB SWAP1 PUSH2 0x2087 JUMP JUMPDEST SWAP3 POP POP PUSH0 SWAP1 POP JUMPDEST PUSH2 0x5FB DUP5 PUSH2 0x1463 JUMP JUMPDEST PUSH0 DUP5 EQ PUSH2 0x63D JUMPI PUSH1 0x40 MLOAD DUP1 PUSH1 0x40 ADD PUSH1 0x40 MSTORE DUP1 PUSH1 0x2 DUP2 MSTORE PUSH1 0x20 ADD PUSH32 0x3330000000000000000000000000000000000000000000000000000000000000 DUP2 MSTORE POP PUSH2 0x674 JUMP JUMPDEST PUSH1 0x40 MLOAD DUP1 PUSH1 0x40 ADD PUSH1 0x40 MSTORE DUP1 PUSH1 0x2 DUP2 MSTORE PUSH1 0x20 ADD PUSH32 0x3030000000000000000000000000000000000000000000000000000000000000 DUP2 MSTORE POP JUMPDEST PUSH2 0x67D DUP5 PUSH2 0x1463 JUMP JUMPDEST PUSH0 DUP5 EQ PUSH2 0x6BF JUMPI PUSH1 0x40 MLOAD DUP1 PUSH1 0x40 ADD PUSH1 0x40 MSTORE DUP1 PUSH1 0x2 DUP2 MSTORE PUSH1 0x20 ADD PUSH32 0x3330000000000000000000000000000000000000000000000000000000000000 DUP2 MSTORE POP PUSH2 0x6F6 JUMP JUMPDEST PUSH1 0x40 MLOAD DUP1 PUSH1 0x40 ADD PUSH1 0x40 MSTORE DUP1 PUSH1 0x2 DUP2 MSTORE PUSH1 0x20 ADD PUSH32 0x3030000000000000000000000000000000000000000000000000000000000000 DUP2 MSTORE POP JUMPDEST PUSH1 0x40 MLOAD PUSH1 0x20 ADD PUSH2 0x709 SWAP5 SWAP4 SWAP3 SWAP2 SWAP1 PUSH2 0x22CA JUMP JUMPDEST PUSH1 0x40 MLOAD PUSH1 0x20 DUP2 DUP4 SUB SUB DUP2 MSTORE SWAP1 PUSH1 0x40 MSTORE DUP9 DUP8 DUP2 MLOAD DUP2 LT PUSH2 0x72B JUMPI PUSH2 0x72A PUSH2 0x20CE JUMP JUMPDEST JUMPDEST PUSH1 0x20 MUL PUSH1 0x20 ADD ADD DUP2 SWAP1 MSTORE POP DUP6 DUP1 PUSH2 0x741 SWAP1 PUSH2 0x2087 JUMP JUMPDEST SWAP7 POP POP POP POP POP POP JUMPDEST DUP1 DUP1 PUSH1 0x1 ADD SWAP2 POP POP PUSH2 0x53B JUMP JUMPDEST POP POP POP SWAP2 POP SWAP2 JUMP JUMPDEST PUSH1 0x60 DUP1 PUSH0 PUSH1 0x5 DUP1 SLOAD SWAP1 POP SWAP1 POP DUP1 PUSH8 0xFFFFFFFFFFFFFFFF DUP2 GT ISZERO PUSH2 0x784 JUMPI PUSH2 0x783 PUSH2 0x1AA3 JUMP JUMPDEST JUMPDEST PUSH1 0x40 MLOAD SWAP1 DUP1 DUP3 MSTORE DUP1 PUSH1 0x20 MUL PUSH1 0x20 ADD DUP3 ADD PUSH1 0x40 MSTORE DUP1 ISZERO PUSH2 0x7B2 JUMPI DUP2 PUSH1 0x20 ADD PUSH1 0x20 DUP3 MUL DUP1 CALLDATASIZE DUP4 CALLDATACOPY DUP1 DUP3 ADD SWAP2 POP POP SWAP1 POP JUMPDEST POP SWAP3 POP DUP1 PUSH8 0xFFFFFFFFFFFFFFFF DUP2 GT ISZERO PUSH2 0x7CF JUMPI PUSH2 0x7CE PUSH2 0x1AA3 JUMP JUMPDEST JUMPDEST PUSH1 0x40 MLOAD SWAP1 DUP1 DUP3 MSTORE DUP1 PUSH1 0x20 MUL PUSH1 0x20 ADD DUP3 ADD PUSH1 0x40 MSTORE DUP1 ISZERO PUSH2 0x7FD JUMPI DUP2 PUSH1 0x20 ADD PUSH1 0x20 DUP3 MUL DUP1 CALLDATASIZE DUP4 CALLDATACOPY DUP1 DUP3 ADD SWAP2 POP POP SWAP1 POP JUMPDEST POP SWAP2 POP PUSH0 PUSH0 SWAP1 POP JUMPDEST DUP2 DUP2 LT ISZERO PUSH2 0x8A1 JUMPI PUSH0 PUSH1 0x5 DUP3 DUP2 SLOAD DUP2 LT PUSH2 0x822 JUMPI PUSH2 0x821 PUSH2 0x20CE JUMP JUMPDEST JUMPDEST SWAP1 PUSH0 MSTORE PUSH1 0x20 PUSH0 KECCAK256 ADD SLOAD SWAP1 POP DUP1 DUP6 DUP4 DUP2 MLOAD DUP2 LT PUSH2 0x841 JUMPI PUSH2 0x840 PUSH2 0x20CE JUMP JUMPDEST JUMPDEST PUSH1 0x20 MUL PUSH1 0x20 ADD ADD DUP2 DUP2 MSTORE POP POP PUSH8 0xDE0B6B3A7640000 PUSH0 PUSH0 DUP4 DUP2 MSTORE PUSH1 0x20 ADD SWAP1 DUP2 MSTORE PUSH1 0x20 ADD PUSH0 KECCAK256 PUSH1 0x3 ADD SLOAD PUSH2 0x874 SWAP2 SWAP1 PUSH2 0x2128 JUMP JUMPDEST DUP5 DUP4 DUP2 MLOAD DUP2 LT PUSH2 0x887 JUMPI PUSH2 0x886 PUSH2 0x20CE JUMP JUMPDEST JUMPDEST PUSH1 0x20 MUL PUSH1 0x20 ADD ADD DUP2 DUP2 MSTORE POP POP POP DUP1 DUP1 PUSH1 0x1 ADD SWAP2 POP POP PUSH2 0x805 JUMP JUMPDEST POP POP SWAP1 SWAP2 JUMP JUMPDEST PUSH0 PUSH1 0x60 PUSH0 PUSH1 0x60 DUP1 PUSH0 PUSH0 PUSH0 PUSH0 PUSH1 0x3 PUSH0 DUP12 DUP2 MSTORE PUSH1 0x20 ADD SWAP1 DUP2 MSTORE PUSH1 0x20 ADD PUSH0 KECCAK256 PUSH0 ADD SLOAD SUB PUSH2 0x906 JUMPI PUSH1 0x40 MLOAD PUSH32 0x8C379A000000000000000000000000000000000000000000000000000000000 DUP2 MSTORE PUSH1 0x4 ADD PUSH2 0x8FD SWAP1 PUSH2 0x1EB1 JUMP JUMPDEST PUSH1 0x40 MLOAD DUP1 SWAP2 SUB SWAP1 REVERT JUMPDEST PUSH0 PUSH1 0x3 PUSH0 DUP12 DUP2 MSTORE PUSH1 0x20 ADD SWAP1 DUP2 MSTORE PUSH1 0x20 ADD PUSH0 KECCAK256 PUSH1 0x40 MLOAD DUP1 PUSH2 0x100 ADD PUSH1 0x40 MSTORE SWAP1 DUP2 PUSH0 DUP3 ADD SLOAD DUP2 MSTORE PUSH1 0x20 ADD PUSH1 0x1 DUP3 ADD DUP1 SLOAD PUSH2 0x93D SWAP1 PUSH2 0x2355 JUMP JUMPDEST DUP1 PUSH1 0x1F ADD PUSH1 0x20 DUP1 SWAP2 DIV MUL PUSH1 0x20 ADD PUSH1 0x40 MLOAD SWAP1 DUP2 ADD PUSH1 0x40 MSTORE DUP1 SWAP3 SWAP2 SWAP1 DUP2 DUP2 MSTORE PUSH1 0x20 ADD DUP3 DUP1 SLOAD PUSH2 0x969 SWAP1 PUSH2 0x2355 JUMP JUMPDEST DUP1 ISZERO PUSH2 0x9B4 JUMPI DUP1 PUSH1 0x1F LT PUSH2 0x98B JUMPI PUSH2 0x100 DUP1 DUP4 SLOAD DIV MUL DUP4 MSTORE SWAP2 PUSH1 0x20 ADD SWAP2 PUSH2 0x9B4 JUMP JUMPDEST DUP3 ADD SWAP2 SWAP1 PUSH0 MSTORE PUSH1 0x20 PUSH0 KECCAK256 SWAP1 JUMPDEST DUP2 SLOAD DUP2 MSTORE SWAP1 PUSH1 0x1 ADD SWAP1 PUSH1 0x20 ADD DUP1 DUP4 GT PUSH2 0x997 JUMPI DUP3 SWAP1 SUB PUSH1 0x1F AND DUP3 ADD SWAP2 JUMPDEST POP POP POP POP POP DUP2 MSTORE PUSH1 0x20 ADD PUSH1 0x2 DUP3 ADD SLOAD DUP2 MSTORE PUSH1 0x20 ADD PUSH1 0x3 DUP3 ADD DUP1 SLOAD PUSH2 0x9D7 SWAP1 PUSH2 0x2355 JUMP JUMPDEST DUP1 PUSH1 0x1F ADD PUSH1 0x20 DUP1 SWAP2 DIV MUL PUSH1 0x20 ADD PUSH1 0x40 MLOAD SWAP1 DUP2 ADD PUSH1 0x40 MSTORE DUP1 SWAP3 SWAP2 SWAP1 DUP2 DUP2 MSTORE PUSH1 0x20 ADD DUP3 DUP1 SLOAD PUSH2 0xA03 SWAP1 PUSH2 0x2355 JUMP JUMPDEST DUP1 ISZERO PUSH2 0xA4E JUMPI DUP1 PUSH1 0x1F LT PUSH2 0xA25 JUMPI PUSH2 0x100 DUP1 DUP4 SLOAD DIV MUL DUP4 MSTORE SWAP2 PUSH1 0x20 ADD SWAP2 PUSH2 0xA4E JUMP JUMPDEST DUP3 ADD SWAP2 SWAP1 PUSH0 MSTORE PUSH1 0x20 PUSH0 KECCAK256 SWAP1 JUMPDEST DUP2 SLOAD DUP2 MSTORE SWAP1 PUSH1 0x1 ADD SWAP1 PUSH1 0x20 ADD DUP1 DUP4 GT PUSH2 0xA31 JUMPI DUP3 SWAP1 SUB PUSH1 0x1F AND DUP3 ADD SWAP2 JUMPDEST POP POP POP POP POP DUP2 MSTORE PUSH1 0x20 ADD PUSH1 0x4 DUP3 ADD DUP1 SLOAD PUSH2 0xA67 SWAP1 PUSH2 0x2355 JUMP JUMPDEST DUP1 PUSH1 0x1F ADD PUSH1 0x20 DUP1 SWAP2 DIV MUL PUSH1 0x20 ADD PUSH1 0x40 MLOAD SWAP1 DUP2 ADD PUSH1 0x40 MSTORE DUP1 SWAP3 SWAP2 SWAP1 DUP2 DUP2 MSTORE PUSH1 0x20 ADD DUP3 DUP1 SLOAD PUSH2 0xA93 SWAP1 PUSH2 0x2355 JUMP JUMPDEST DUP1 ISZERO PUSH2 0xADE JUMPI DUP1 PUSH1 0x1F LT PUSH2 0xAB5 JUMPI PUSH2 0x100 DUP1 DUP4 SLOAD DIV MUL DUP4 MSTORE SWAP2 PUSH1 0x20 ADD SWAP2 PUSH2 0xADE JUMP JUMPDEST DUP3 ADD SWAP2 SWAP1 PUSH0 MSTORE PUSH1 0x20 PUSH0 KECCAK256 SWAP1 JUMPDEST DUP2 SLOAD DUP2 MSTORE SWAP1 PUSH1 0x1 ADD SWAP1 PUSH1 0x20 ADD DUP1 DUP4 GT PUSH2 0xAC1 JUMPI DUP3 SWAP1 SUB PUSH1 0x1F AND DUP3 ADD SWAP2 JUMPDEST POP POP POP POP POP DUP2 MSTORE PUSH1 0x20 ADD PUSH1 0x5 DUP3 ADD PUSH0 SWAP1 SLOAD SWAP1 PUSH2 0x100 EXP SWAP1 DIV PUSH1 0xFF AND PUSH1 0x2 DUP2 GT ISZERO PUSH2 0xB0B JUMPI PUSH2 0xB0A PUSH2 0x1FC5 JUMP JUMPDEST JUMPDEST PUSH1 0x2 DUP2 GT ISZERO PUSH2 0xB1D JUMPI PUSH2 0xB1C PUSH2 0x1FC5 JUMP JUMPDEST JUMPDEST DUP2 MSTORE PUSH1 0x20 ADD PUSH1 0x5 DUP3 ADD PUSH1 0x1 SWAP1 SLOAD SWAP1 PUSH2 0x100 EXP SWAP1 DIV PUSH1 0xFF AND ISZERO ISZERO ISZERO ISZERO DUP2 MSTORE PUSH1 0x20 ADD PUSH1 0x6 DUP3 ADD SLOAD DUP2 MSTORE POP POP SWAP1 POP DUP1 PUSH0 ADD MLOAD DUP2 PUSH1 0x20 ADD MLOAD DUP3 PUSH1 0x40 ADD MLOAD DUP4 PUSH1 0x60 ADD MLOAD DUP5 PUSH1 0x80 ADD MLOAD DUP6 PUSH1 0xA0 ADD MLOAD PUSH1 0x2 DUP2 GT ISZERO PUSH2 0xB77 JUMPI PUSH2 0xB76 PUSH2 0x1FC5 JUMP JUMPDEST JUMPDEST DUP7 PUSH1 0xC0 ADD MLOAD DUP8 PUSH1 0xE0 ADD MLOAD SWAP9 POP SWAP9 POP SWAP9 POP SWAP9 POP SWAP9 POP SWAP9 POP SWAP9 POP SWAP9 POP POP SWAP2 SWAP4 SWAP6 SWAP8 POP SWAP2 SWAP4 SWAP6 SWAP8 JUMP JUMPDEST PUSH0 PUSH0 PUSH1 0x2 PUSH0 DUP7 DUP2 MSTORE PUSH1 0x20 ADD SWAP1 DUP2 MSTORE PUSH1 0x20 ADD PUSH0 KECCAK256 PUSH0 ADD SLOAD SUB PUSH2 0xBF3 JUMPI PUSH1 0x40 MLOAD PUSH32 0x8C379A000000000000000000000000000000000000000000000000000000000 DUP2 MSTORE PUSH1 0x4 ADD PUSH2 0xBEA SWAP1 PUSH2 0x203C JUMP JUMPDEST PUSH1 0x40 MLOAD DUP1 SWAP2 SUB SWAP1 REVERT JUMPDEST PUSH0 PUSH1 0x3 PUSH0 DUP6 DUP2 MSTORE PUSH1 0x20 ADD SWAP1 DUP2 MSTORE PUSH1 0x20 ADD PUSH0 KECCAK256 PUSH0 ADD SLOAD SUB PUSH2 0xC48 JUMPI PUSH1 0x40 MLOAD PUSH32 0x8C379A000000000000000000000000000000000000000000000000000000000 DUP2 MSTORE PUSH1 0x4 ADD PUSH2 0xC3F SWAP1 PUSH2 0x1EB1 JUMP JUMPDEST PUSH1 0x40 MLOAD DUP1 SWAP2 SUB SWAP1 REVERT JUMPDEST PUSH8 0xDE0B6B3A7640000 PUSH1 0x3 PUSH0 DUP6 DUP2 MSTORE PUSH1 0x20 ADD SWAP1 DUP2 MSTORE PUSH1 0x20 ADD PUSH0 KECCAK256 PUSH1 0x6 ADD SLOAD LT ISZERO PUSH2 0xCA7 JUMPI PUSH1 0x40 MLOAD PUSH32 0x8C379A000000000000000000000000000000000000000000000000000000000 DUP2 MSTORE PUSH1 0x4 ADD PUSH2 0xC9E SWAP1 PUSH2 0x23CF JUMP JUMPDEST PUSH1 0x40 MLOAD DUP1 SWAP2 SUB SWAP1 REVERT JUMPDEST PUSH0 PUSH1 0x5 DUP1 SLOAD SWAP1 POP GT PUSH2 0xCEE JUMPI PUSH1 0x40 MLOAD PUSH32 0x8C379A000000000000000000000000000000000000000000000000000000000 DUP2 MSTORE PUSH1 0x4 ADD PUSH2 0xCE5 SWAP1 PUSH2 0x2437 JUMP JUMPDEST PUSH1 0x40 MLOAD DUP1 SWAP2 SUB SWAP1 REVERT JUMPDEST PUSH1 0x30 DUP3 LT PUSH2 0xD31 JUMPI PUSH1 0x40 MLOAD PUSH32 0x8C379A000000000000000000000000000000000000000000000000000000000 DUP2 MSTORE PUSH1 0x4 ADD PUSH2 0xD28 SWAP1 PUSH2 0x249F JUMP JUMPDEST PUSH1 0x40 MLOAD DUP1 SWAP2 SUB SWAP1 REVERT JUMPDEST PUSH1 0x4 PUSH0 DUP6 DUP2 MSTORE PUSH1 0x20 ADD SWAP1 DUP2 MSTORE PUSH1 0x20 ADD PUSH0 KECCAK256 PUSH0 DUP4 DUP2 MSTORE PUSH1 0x20 ADD SWAP1 DUP2 MSTORE PUSH1 0x20 ADD PUSH0 KECCAK256 PUSH1 0x3 ADD PUSH0 SWAP1 SLOAD SWAP1 PUSH2 0x100 EXP SWAP1 DIV PUSH1 0xFF AND ISZERO PUSH2 0xDA1 JUMPI PUSH1 0x40 MLOAD PUSH32 0x8C379A000000000000000000000000000000000000000000000000000000000 DUP2 MSTORE PUSH1 0x4 ADD PUSH2 0xD98 SWAP1 PUSH2 0x2507 JUMP JUMPDEST PUSH1 0x40 MLOAD DUP1 SWAP2 SUB SWAP1 REVERT JUMPDEST PUSH1 0x40 MLOAD DUP1 PUSH1 0x80 ADD PUSH1 0x40 MSTORE DUP1 DUP4 DUP2 MSTORE PUSH1 0x20 ADD DUP6 DUP2 MSTORE PUSH1 0x20 ADD DUP5 DUP2 MSTORE PUSH1 0x20 ADD PUSH1 0x1 ISZERO ISZERO DUP2 MSTORE POP PUSH1 0x4 PUSH0 DUP7 DUP2 MSTORE PUSH1 0x20 ADD SWAP1 DUP2 MSTORE PUSH1 0x20 ADD PUSH0 KECCAK256 PUSH0 DUP5 DUP2 MSTORE PUSH1 0x20 ADD SWAP1 DUP2 MSTORE PUSH1 0x20 ADD PUSH0 KECCAK256 PUSH0 DUP3 ADD MLOAD DUP2 PUSH0 ADD SSTORE PUSH1 0x20 DUP3 ADD MLOAD DUP2 PUSH1 0x1 ADD SSTORE PUSH1 0x40 DUP3 ADD MLOAD DUP2 PUSH1 0x2 ADD SSTORE PUSH1 0x60 DUP3 ADD MLOAD DUP2 PUSH1 0x3 ADD PUSH0 PUSH2 0x100 EXP DUP2 SLOAD DUP2 PUSH1 0xFF MUL NOT AND SWAP1 DUP4 ISZERO ISZERO MUL OR SWAP1 SSTORE POP SWAP1 POP POP PUSH0 PUSH1 0x5 DUP1 SLOAD SWAP1 POP TIMESTAMP PREVRANDAO DUP7 PUSH1 0x40 MLOAD PUSH1 0x20 ADD PUSH2 0xE3F SWAP4 SWAP3 SWAP2 SWAP1 PUSH2 0x2545 JUMP JUMPDEST PUSH1 0x40 MLOAD PUSH1 0x20 DUP2 DUP4 SUB SUB DUP2 MSTORE SWAP1 PUSH1 0x40 MSTORE DUP1 MLOAD SWAP1 PUSH1 0x20 ADD KECCAK256 PUSH0 SHR PUSH2 0xE61 SWAP2 SWAP1 PUSH2 0x2158 JUMP JUMPDEST SWAP1 POP PUSH0 PUSH1 0x5 DUP3 DUP2 SLOAD DUP2 LT PUSH2 0xE78 JUMPI PUSH2 0xE77 PUSH2 0x20CE JUMP JUMPDEST JUMPDEST SWAP1 PUSH0 MSTORE PUSH1 0x20 PUSH0 KECCAK256 ADD SLOAD SWAP1 POP PUSH8 0xDE0B6B3A7640000 PUSH1 0x3 PUSH0 DUP8 DUP2 MSTORE PUSH1 0x20 ADD SWAP1 DUP2 MSTORE PUSH1 0x20 ADD PUSH0 KECCAK256 PUSH1 0x6 ADD PUSH0 DUP3 DUP3 SLOAD PUSH2 0xEAE SWAP2 SWAP1 PUSH2 0x2581 JUMP JUMPDEST SWAP3 POP POP DUP2 SWAP1 SSTORE POP PUSH8 0xDE0B6B3A7640000 PUSH0 PUSH0 DUP4 DUP2 MSTORE PUSH1 0x20 ADD SWAP1 DUP2 MSTORE PUSH1 0x20 ADD PUSH0 KECCAK256 PUSH1 0x3 ADD PUSH0 DUP3 DUP3 SLOAD PUSH2 0xEDF SWAP2 SWAP1 PUSH2 0x21C9 JUMP JUMPDEST SWAP3 POP POP DUP2 SWAP1 SSTORE POP PUSH1 0x1 SWAP3 POP POP POP SWAP4 SWAP3 POP POP POP JUMP JUMPDEST PUSH0 PUSH0 DUP4 GT PUSH2 0xF36 JUMPI PUSH1 0x40 MLOAD PUSH32 0x8C379A000000000000000000000000000000000000000000000000000000000 DUP2 MSTORE PUSH1 0x4 ADD PUSH2 0xF2D SWAP1 PUSH2 0x25FE JUMP JUMPDEST PUSH1 0x40 MLOAD DUP1 SWAP2 SUB SWAP1 REVERT JUMPDEST PUSH0 DUP6 GT PUSH2 0xF78 JUMPI PUSH1 0x40 MLOAD PUSH32 0x8C379A000000000000000000000000000000000000000000000000000000000 DUP2 MSTORE PUSH1 0x4 ADD PUSH2 0xF6F SWAP1 PUSH2 0x2666 JUMP JUMPDEST PUSH1 0x40 MLOAD DUP1 SWAP2 SUB SWAP1 REVERT JUMPDEST PUSH0 PUSH1 0x2 PUSH0 DUP8 DUP2 MSTORE PUSH1 0x20 ADD SWAP1 DUP2 MSTORE PUSH1 0x20 ADD PUSH0 KECCAK256 PUSH0 ADD SLOAD EQ PUSH2 0xFCD JUMPI PUSH1 0x40 MLOAD PUSH32 0x8C379A000000000000000000000000000000000000000000000000000000000 DUP2 MSTORE PUSH1 0x4 ADD PUSH2 0xFC4 SWAP1 PUSH2 0x26CE JUMP JUMPDEST PUSH1 0x40 MLOAD DUP1 SWAP2 SUB SWAP1 REVERT JUMPDEST PUSH1 0x40 MLOAD DUP1 PUSH1 0x80 ADD PUSH1 0x40 MSTORE DUP1 DUP7 DUP2 MSTORE PUSH1 0x20 ADD DUP6 DUP2 MSTORE PUSH1 0x20 ADD DUP5 DUP2 MSTORE PUSH1 0x20 ADD DUP4 DUP2 MSTORE POP PUSH1 0x2 PUSH0 DUP8 DUP2 MSTORE PUSH1 0x20 ADD SWAP1 DUP2 MSTORE PUSH1 0x20 ADD PUSH0 KECCAK256 PUSH0 DUP3 ADD MLOAD DUP2 PUSH0 ADD SSTORE PUSH1 0x20 DUP3 ADD MLOAD DUP2 PUSH1 0x1 ADD SWAP1 DUP2 PUSH2 0x101C SWAP2 SWAP1 PUSH2 0x288C JUMP JUMPDEST POP PUSH1 0x40 DUP3 ADD MLOAD DUP2 PUSH1 0x2 ADD SSTORE PUSH1 0x60 DUP3 ADD MLOAD DUP2 PUSH1 0x3 ADD SWAP1 DUP2 PUSH2 0x103C SWAP2 SWAP1 PUSH2 0x288C JUMP JUMPDEST POP SWAP1 POP POP DUP5 SWAP1 POP SWAP5 SWAP4 POP POP POP POP JUMP JUMPDEST PUSH0 PUSH0 DUP3 GT PUSH2 0x108E JUMPI PUSH1 0x40 MLOAD PUSH32 0x8C379A000000000000000000000000000000000000000000000000000000000 DUP2 MSTORE PUSH1 0x4 ADD PUSH2 0x1085 SWAP1 PUSH2 0x25FE JUMP JUMPDEST PUSH1 0x40 MLOAD DUP1 SWAP2 SUB SWAP1 REVERT JUMPDEST PUSH0 DUP5 GT PUSH2 0x10D0 JUMPI PUSH1 0x40 MLOAD PUSH32 0x8C379A000000000000000000000000000000000000000000000000000000000 DUP2 MSTORE PUSH1 0x4 ADD PUSH2 0x10C7 SWAP1 PUSH2 0x2666 JUMP JUMPDEST PUSH1 0x40 MLOAD DUP1 SWAP2 SUB SWAP1 REVERT JUMPDEST PUSH0 PUSH0 PUSH0 DUP7 DUP2 MSTORE PUSH1 0x20 ADD SWAP1 DUP2 MSTORE PUSH1 0x20 ADD PUSH0 KECCAK256 PUSH0 ADD SLOAD EQ PUSH2 0x1124 JUMPI PUSH1 0x40 MLOAD PUSH32 0x8C379A000000000000000000000000000000000000000000000000000000000 DUP2 MSTORE PUSH1 0x4 ADD PUSH2 0x111B SWAP1 PUSH2 0x29A5 JUMP JUMPDEST PUSH1 0x40 MLOAD DUP1 SWAP2 SUB SWAP1 REVERT JUMPDEST PUSH1 0x40 MLOAD DUP1 PUSH1 0x80 ADD PUSH1 0x40 MSTORE DUP1 DUP6 DUP2 MSTORE PUSH1 0x20 ADD DUP5 DUP2 MSTORE PUSH1 0x20 ADD DUP4 DUP2 MSTORE PUSH1 0x20 ADD PUSH0 DUP2 MSTORE POP PUSH0 PUSH0 DUP7 DUP2 MSTORE PUSH1 0x20 ADD SWAP1 DUP2 MSTORE PUSH1 0x20 ADD PUSH0 KECCAK256 PUSH0 DUP3 ADD MLOAD DUP2 PUSH0 ADD SSTORE PUSH1 0x20 DUP3 ADD MLOAD DUP2 PUSH1 0x1 ADD SWAP1 DUP2 PUSH2 0x1172 SWAP2 SWAP1 PUSH2 0x288C JUMP JUMPDEST POP PUSH1 0x40 DUP3 ADD MLOAD DUP2 PUSH1 0x2 ADD SSTORE PUSH1 0x60 DUP3 ADD MLOAD DUP2 PUSH1 0x3 ADD SSTORE SWAP1 POP POP PUSH1 0x5 DUP5 SWAP1 DUP1 PUSH1 0x1 DUP2 SLOAD ADD DUP1 DUP3 SSTORE DUP1 SWAP2 POP POP PUSH1 0x1 SWAP1 SUB SWAP1 PUSH0 MSTORE PUSH1 0x20 PUSH0 KECCAK256 ADD PUSH0 SWAP1 SWAP2 SWAP1 SWAP2 SWAP1 SWAP2 POP SSTORE PUSH1 0x1 DUP1 PUSH0 CALLER PUSH20 0xFFFFFFFFFFFFFFFFFFFFFFFFFFFFFFFFFFFFFFFF AND PUSH20 0xFFFFFFFFFFFFFFFFFFFFFFFFFFFFFFFFFFFFFFFF AND DUP2 MSTORE PUSH1 0x20 ADD SWAP1 DUP2 MSTORE PUSH1 0x20 ADD PUSH0 KECCAK256 PUSH0 PUSH2 0x100 EXP DUP2 SLOAD DUP2 PUSH1 0xFF MUL NOT AND SWAP1 DUP4 ISZERO ISZERO MUL OR SWAP1 SSTORE POP DUP4 SWAP1 POP SWAP4 SWAP3 POP POP POP JUMP JUMPDEST PUSH0 PUSH0 DUP7 GT PUSH2 0x1251 JUMPI PUSH1 0x40 MLOAD PUSH32 0x8C379A000000000000000000000000000000000000000000000000000000000 DUP2 MSTORE PUSH1 0x4 ADD PUSH2 0x1248 SWAP1 PUSH2 0x25FE JUMP JUMPDEST PUSH1 0x40 MLOAD DUP1 SWAP2 SUB SWAP1 REVERT JUMPDEST PUSH0 DUP9 GT PUSH2 0x1293 JUMPI PUSH1 0x40 MLOAD PUSH32 0x8C379A000000000000000000000000000000000000000000000000000000000 DUP2 MSTORE PUSH1 0x4 ADD PUSH2 0x128A SWAP1 PUSH2 0x2666 JUMP JUMPDEST PUSH1 0x40 MLOAD DUP1 SWAP2 SUB SWAP1 REVERT JUMPDEST PUSH0 PUSH1 0x3 PUSH0 DUP11 DUP2 MSTORE PUSH1 0x20 ADD SWAP1 DUP2 MSTORE PUSH1 0x20 ADD PUSH0 KECCAK256 PUSH0 ADD SLOAD EQ PUSH2 0x12E8 JUMPI PUSH1 0x40 MLOAD PUSH32 0x8C379A000000000000000000000000000000000000000000000000000000000 DUP2 MSTORE PUSH1 0x4 ADD PUSH2 0x12DF SWAP1 PUSH2 0x2A0D JUMP JUMPDEST PUSH1 0x40 MLOAD DUP1 SWAP2 SUB SWAP1 REVERT JUMPDEST PUSH1 0x2 DUP4 GT ISZERO PUSH2 0x132C JUMPI PUSH1 0x40 MLOAD PUSH32 0x8C379A000000000000000000000000000000000000000000000000000000000 DUP2 MSTORE PUSH1 0x4 ADD PUSH2 0x1323 SWAP1 PUSH2 0x1F19 JUMP JUMPDEST PUSH1 0x40 MLOAD DUP1 SWAP2 SUB SWAP1 REVERT JUMPDEST PUSH1 0x40 MLOAD DUP1 PUSH2 0x100 ADD PUSH1 0x40 MSTORE DUP1 DUP10 DUP2 MSTORE PUSH1 0x20 ADD DUP9 DUP2 MSTORE PUSH1 0x20 ADD DUP8 DUP2 MSTORE PUSH1 0x20 ADD DUP7 DUP2 MSTORE PUSH1 0x20 ADD DUP6 DUP2 MSTORE PUSH1 0x20 ADD DUP5 PUSH1 0x2 DUP2 GT ISZERO PUSH2 0x1369 JUMPI PUSH2 0x1368 PUSH2 0x1FC5 JUMP JUMPDEST JUMPDEST PUSH1 0x2 DUP2 GT ISZERO PUSH2 0x137B JUMPI PUSH2 0x137A PUSH2 0x1FC5 JUMP JUMPDEST JUMPDEST DUP2 MSTORE PUSH1 0x20 ADD DUP4 ISZERO ISZERO DUP2 MSTORE PUSH1 0x20 ADD PUSH8 0x8AC7230489E80000 DUP2 MSTORE POP PUSH1 0x3 PUSH0 DUP11 DUP2 MSTORE PUSH1 0x20 ADD SWAP1 DUP2 MSTORE PUSH1 0x20 ADD PUSH0 KECCAK256 PUSH0 DUP3 ADD MLOAD DUP2 PUSH0 ADD SSTORE PUSH1 0x20 DUP3 ADD MLOAD DUP2 PUSH1 0x1 ADD SWAP1 DUP2 PUSH2 0x13C2 SWAP2 SWAP1 PUSH2 0x288C JUMP JUMPDEST POP PUSH1 0x40 DUP3 ADD MLOAD DUP2 PUSH1 0x2 ADD SSTORE PUSH1 0x60 DUP3 ADD MLOAD DUP2 PUSH1 0x3 ADD SWAP1 DUP2 PUSH2 0x13E2 SWAP2 SWAP1 PUSH2 0x288C JUMP JUMPDEST POP PUSH1 0x80 DUP3 ADD MLOAD DUP2 PUSH1 0x4 ADD SWAP1 DUP2 PUSH2 0x13F8 SWAP2 SWAP1 PUSH2 0x288C JUMP JUMPDEST POP PUSH1 0xA0 DUP3 ADD MLOAD DUP2 PUSH1 0x5 ADD PUSH0 PUSH2 0x100 EXP DUP2 SLOAD DUP2 PUSH1 0xFF MUL NOT AND SWAP1 DUP4 PUSH1 0x2 DUP2 GT ISZERO PUSH2 0x1423 JUMPI PUSH2 0x1422 PUSH2 0x1FC5 JUMP JUMPDEST JUMPDEST MUL OR SWAP1 SSTORE POP PUSH1 0xC0 DUP3 ADD MLOAD DUP2 PUSH1 0x5 ADD PUSH1 0x1 PUSH2 0x100 EXP DUP2 SLOAD DUP2 PUSH1 0xFF MUL NOT AND SWAP1 DUP4 ISZERO ISZERO MUL OR SWAP1 SSTORE POP PUSH1 0xE0 DUP3 ADD MLOAD DUP2 PUSH1 0x6 ADD SSTORE SWAP1 POP POP DUP8 SWAP1 POP SWAP8 SWAP7 POP POP POP POP POP POP POP JUMP JUMPDEST PUSH1 0x60 PUSH0 DUP3 SUB PUSH2 0x14A9 JUMPI PUSH1 0x40 MLOAD DUP1 PUSH1 0x40 ADD PUSH1 0x40 MSTORE DUP1 PUSH1 0x1 DUP2 MSTORE PUSH1 0x20 ADD PUSH32 0x3000000000000000000000000000000000000000000000000000000000000000 DUP2 MSTORE POP SWAP1 POP PUSH2 0x15F6 JUMP JUMPDEST PUSH1 0xA DUP3 LT ISZERO PUSH2 0x14E8 JUMPI DUP2 PUSH1 0x30 PUSH2 0x14BF SWAP2 SWAP1 PUSH2 0x21C9 JUMP JUMPDEST PUSH1 0xF8 SHL PUSH1 0x40 MLOAD PUSH1 0x20 ADD PUSH2 0x14D2 SWAP2 SWAP1 PUSH2 0x2AC0 JUMP JUMPDEST PUSH1 0x40 MLOAD PUSH1 0x20 DUP2 DUP4 SUB SUB DUP2 MSTORE SWAP1 PUSH1 0x40 MSTORE SWAP1 POP PUSH2 0x15F6 JUMP JUMPDEST PUSH0 DUP3 SWAP1 POP PUSH0 JUMPDEST PUSH0 DUP3 EQ PUSH2 0x1517 JUMPI DUP1 DUP1 PUSH2 0x1500 SWAP1 PUSH2 0x2087 JUMP JUMPDEST SWAP2 POP POP PUSH1 0xA DUP3 PUSH2 0x1510 SWAP2 SWAP1 PUSH2 0x2128 JUMP JUMPDEST SWAP2 POP PUSH2 0x14EE JUMP JUMPDEST PUSH0 DUP2 PUSH8 0xFFFFFFFFFFFFFFFF DUP2 GT ISZERO PUSH2 0x1532 JUMPI PUSH2 0x1531 PUSH2 0x1AA3 JUMP JUMPDEST JUMPDEST PUSH1 0x40 MLOAD SWAP1 DUP1 DUP3 MSTORE DUP1 PUSH1 0x1F ADD PUSH1 0x1F NOT AND PUSH1 0x20 ADD DUP3 ADD PUSH1 0x40 MSTORE DUP1 ISZERO PUSH2 0x1564 JUMPI DUP2 PUSH1 0x20 ADD PUSH1 0x1 DUP3 MUL DUP1 CALLDATASIZE DUP4 CALLDATACOPY DUP1 DUP3 ADD SWAP2 POP POP SWAP1 POP JUMPDEST POP SWAP1 POP JUMPDEST PUSH0 DUP6 EQ PUSH2 0x15EF JUMPI PUSH1 0x1 DUP3 PUSH2 0x157C SWAP2 SWAP1 PUSH2 0x2581 JUMP JUMPDEST SWAP2 POP PUSH1 0xA DUP6 PUSH2 0x158B SWAP2 SWAP1 PUSH2 0x2158 JUMP JUMPDEST PUSH1 0x30 PUSH2 0x1597 SWAP2 SWAP1 PUSH2 0x21C9 JUMP JUMPDEST PUSH1 0xF8 SHL DUP2 DUP4 DUP2 MLOAD DUP2 LT PUSH2 0x15AD JUMPI PUSH2 0x15AC PUSH2 0x20CE JUMP JUMPDEST JUMPDEST PUSH1 0x20 ADD ADD SWAP1 PUSH31 0xFFFFFFFFFFFFFFFFFFFFFFFFFFFFFFFFFFFFFFFFFFFFFFFFFFFFFFFFFFFFFF NOT AND SWAP1 DUP2 PUSH0 BYTE SWAP1 MSTORE8 POP PUSH1 0xA DUP6 PUSH2 0x15E8 SWAP2 SWAP1 PUSH2 0x2128 JUMP JUMPDEST SWAP5 POP PUSH2 0x1568 JUMP JUMPDEST DUP1 SWAP4 POP POP POP POP JUMPDEST SWAP2 SWAP1 POP JUMP JUMPDEST PUSH0 PUSH1 0x40 MLOAD SWAP1 POP SWAP1 JUMP JUMPDEST PUSH0 PUSH0 REVERT JUMPDEST PUSH0 PUSH0 REVERT JUMPDEST PUSH0 DUP2 SWAP1 POP SWAP2 SWAP1 POP JUMP JUMPDEST PUSH2 0x161E DUP2 PUSH2 0x160C JUMP JUMPDEST DUP2 EQ PUSH2 0x1628 JUMPI PUSH0 PUSH0 REVERT JUMPDEST POP JUMP JUMPDEST PUSH0 DUP2 CALLDATALOAD SWAP1 POP PUSH2 0x1639 DUP2 PUSH2 0x1615 JUMP JUMPDEST SWAP3 SWAP2 POP POP JUMP JUMPDEST PUSH0 DUP2 ISZERO ISZERO SWAP1 POP SWAP2 SWAP1 POP JUMP JUMPDEST PUSH2 0x1653 DUP2 PUSH2 0x163F JUMP JUMPDEST DUP2 EQ PUSH2 0x165D JUMPI PUSH0 PUSH0 REVERT JUMPDEST POP JUMP JUMPDEST PUSH0 DUP2 CALLDATALOAD SWAP1 POP PUSH2 0x166E DUP2 PUSH2 0x164A JUMP JUMPDEST SWAP3 SWAP2 POP POP JUMP JUMPDEST PUSH0 PUSH0 PUSH0 PUSH1 0x60 DUP5 DUP7 SUB SLT ISZERO PUSH2 0x168B JUMPI PUSH2 0x168A PUSH2 0x1604 JUMP JUMPDEST JUMPDEST PUSH0 PUSH2 0x1698 DUP7 DUP3 DUP8 ADD PUSH2 0x162B JUMP JUMPDEST SWAP4 POP POP PUSH1 0x20 PUSH2 0x16A9 DUP7 DUP3 DUP8 ADD PUSH2 0x162B JUMP JUMPDEST SWAP3 POP POP PUSH1 0x40 PUSH2 0x16BA DUP7 DUP3 DUP8 ADD PUSH2 0x1660 JUMP JUMPDEST SWAP2 POP POP SWAP3 POP SWAP3 POP SWAP3 JUMP JUMPDEST PUSH0 PUSH1 0x20 DUP3 DUP5 SUB SLT ISZERO PUSH2 0x16D9 JUMPI PUSH2 0x16D8 PUSH2 0x1604 JUMP JUMPDEST JUMPDEST PUSH0 PUSH2 0x16E6 DUP5 DUP3 DUP6 ADD PUSH2 0x162B JUMP JUMPDEST SWAP2 POP POP SWAP3 SWAP2 POP POP JUMP JUMPDEST PUSH0 DUP2 MLOAD SWAP1 POP SWAP2 SWAP1 POP JUMP JUMPDEST PUSH0 DUP3 DUP3 MSTORE PUSH1 0x20 DUP3 ADD SWAP1 POP SWAP3 SWAP2 POP POP JUMP JUMPDEST PUSH0 DUP2 SWAP1 POP PUSH1 0x20 DUP3 ADD SWAP1 POP SWAP2 SWAP1 POP JUMP JUMPDEST PUSH2 0x1721 DUP2 PUSH2 0x160C JUMP JUMPDEST DUP3 MSTORE POP POP JUMP JUMPDEST PUSH0 PUSH2 0x1732 DUP4 DUP4 PUSH2 0x1718 JUMP JUMPDEST PUSH1 0x20 DUP4 ADD SWAP1 POP SWAP3 SWAP2 POP POP JUMP JUMPDEST PUSH0 PUSH1 0x20 DUP3 ADD SWAP1 POP SWAP2 SWAP1 POP JUMP JUMPDEST PUSH0 PUSH2 0x1754 DUP3 PUSH2 0x16EF JUMP JUMPDEST PUSH2 0x175E DUP2 DUP6 PUSH2 0x16F9 JUMP JUMPDEST SWAP4 POP PUSH2 0x1769 DUP4 PUSH2 0x1709 JUMP JUMPDEST DUP1 PUSH0 JUMPDEST DUP4 DUP2 LT ISZERO PUSH2 0x1799 JUMPI DUP2 MLOAD PUSH2 0x1780 DUP9 DUP3 PUSH2 0x1727 JUMP JUMPDEST SWAP8 POP PUSH2 0x178B DUP4 PUSH2 0x173E JUMP JUMPDEST SWAP3 POP POP PUSH1 0x1 DUP2 ADD SWAP1 POP PUSH2 0x176C JUMP JUMPDEST POP DUP6 SWAP4 POP POP POP POP SWAP3 SWAP2 POP POP JUMP JUMPDEST PUSH0 DUP2 MLOAD SWAP1 POP SWAP2 SWAP1 POP JUMP JUMPDEST PUSH0 DUP3 DUP3 MSTORE PUSH1 0x20 DUP3 ADD SWAP1 POP SWAP3 SWAP2 POP POP JUMP JUMPDEST PUSH0 DUP2 SWAP1 POP PUSH1 0x20 DUP3 ADD SWAP1 POP SWAP2 SWAP1 POP JUMP JUMPDEST PUSH0 DUP2 MLOAD SWAP1 POP SWAP2 SWAP1 POP JUMP JUMPDEST PUSH0 DUP3 DUP3 MSTORE PUSH1 0x20 DUP3 ADD SWAP1 POP SWAP3 SWAP2 POP POP JUMP JUMPDEST DUP3 DUP2 DUP4 MCOPY PUSH0 DUP4 DUP4 ADD MSTORE POP POP POP JUMP JUMPDEST PUSH0 PUSH1 0x1F NOT PUSH1 0x1F DUP4 ADD AND SWAP1 POP SWAP2 SWAP1 POP JUMP JUMPDEST PUSH0 PUSH2 0x1811 DUP3 PUSH2 0x17CF JUMP JUMPDEST PUSH2 0x181B DUP2 DUP6 PUSH2 0x17D9 JUMP JUMPDEST SWAP4 POP PUSH2 0x182B DUP2 DUP6 PUSH1 0x20 DUP7 ADD PUSH2 0x17E9 JUMP JUMPDEST PUSH2 0x1834 DUP2 PUSH2 0x17F7 JUMP JUMPDEST DUP5 ADD SWAP2 POP POP SWAP3 SWAP2 POP POP JUMP JUMPDEST PUSH0 PUSH2 0x184A DUP4 DUP4 PUSH2 0x1807 JUMP JUMPDEST SWAP1 POP SWAP3 SWAP2 POP POP JUMP JUMPDEST PUSH0 PUSH1 0x20 DUP3 ADD SWAP1 POP SWAP2 SWAP1 POP JUMP JUMPDEST PUSH0 PUSH2 0x1868 DUP3 PUSH2 0x17A6 JUMP JUMPDEST PUSH2 0x1872 DUP2 DUP6 PUSH2 0x17B0 JUMP JUMPDEST SWAP4 POP DUP4 PUSH1 0x20 DUP3 MUL DUP6 ADD PUSH2 0x1884 DUP6 PUSH2 0x17C0 JUMP JUMPDEST DUP1 PUSH0 JUMPDEST DUP6 DUP2 LT ISZERO PUSH2 0x18BF JUMPI DUP5 DUP5 SUB DUP10 MSTORE DUP2 MLOAD PUSH2 0x18A0 DUP6 DUP3 PUSH2 0x183F JUMP JUMPDEST SWAP5 POP PUSH2 0x18AB DUP4 PUSH2 0x1852 JUMP JUMPDEST SWAP3 POP PUSH1 0x20 DUP11 ADD SWAP10 POP POP PUSH1 0x1 DUP2 ADD SWAP1 POP PUSH2 0x1887 JUMP JUMPDEST POP DUP3 SWAP8 POP DUP8 SWAP6 POP POP POP POP POP POP SWAP3 SWAP2 POP POP JUMP JUMPDEST PUSH0 PUSH1 0x40 DUP3 ADD SWAP1 POP DUP2 DUP2 SUB PUSH0 DUP4 ADD MSTORE PUSH2 0x18E9 DUP2 DUP6 PUSH2 0x174A JUMP JUMPDEST SWAP1 POP DUP2 DUP2 SUB PUSH1 0x20 DUP4 ADD MSTORE PUSH2 0x18FD DUP2 DUP5 PUSH2 0x185E JUMP JUMPDEST SWAP1 POP SWAP4 SWAP3 POP POP POP JUMP JUMPDEST PUSH0 PUSH1 0x40 DUP3 ADD SWAP1 POP DUP2 DUP2 SUB PUSH0 DUP4 ADD MSTORE PUSH2 0x191E DUP2 DUP6 PUSH2 0x174A JUMP JUMPDEST SWAP1 POP DUP2 DUP2 SUB PUSH1 0x20 DUP4 ADD MSTORE PUSH2 0x1932 DUP2 DUP5 PUSH2 0x174A JUMP JUMPDEST SWAP1 POP SWAP4 SWAP3 POP POP POP JUMP JUMPDEST PUSH2 0x1944 DUP2 PUSH2 0x160C JUMP JUMPDEST DUP3 MSTORE POP POP JUMP JUMPDEST PUSH0 DUP3 DUP3 MSTORE PUSH1 0x20 DUP3 ADD SWAP1 POP SWAP3 SWAP2 POP POP JUMP JUMPDEST PUSH0 PUSH2 0x1964 DUP3 PUSH2 0x17CF JUMP JUMPDEST PUSH2 0x196E DUP2 DUP6 PUSH2 0x194A JUMP JUMPDEST SWAP4 POP PUSH2 0x197E DUP2 DUP6 PUSH1 0x20 DUP7 ADD PUSH2 0x17E9 JUMP JUMPDEST PUSH2 0x1987 DUP2 PUSH2 0x17F7 JUMP JUMPDEST DUP5 ADD SWAP2 POP POP SWAP3 SWAP2 POP POP JUMP JUMPDEST PUSH2 0x199B DUP2 PUSH2 0x163F JUMP JUMPDEST DUP3 MSTORE POP POP JUMP JUMPDEST PUSH0 PUSH2 0x100 DUP3 ADD SWAP1 POP PUSH2 0x19B5 PUSH0 DUP4 ADD DUP12 PUSH2 0x193B JUMP JUMPDEST DUP2 DUP2 SUB PUSH1 0x20 DUP4 ADD MSTORE PUSH2 0x19C7 DUP2 DUP11 PUSH2 0x195A JUMP JUMPDEST SWAP1 POP PUSH2 0x19D6 PUSH1 0x40 DUP4 ADD DUP10 PUSH2 0x193B JUMP JUMPDEST DUP2 DUP2 SUB PUSH1 0x60 DUP4 ADD MSTORE PUSH2 0x19E8 DUP2 DUP9 PUSH2 0x195A JUMP JUMPDEST SWAP1 POP DUP2 DUP2 SUB PUSH1 0x80 DUP4 ADD MSTORE PUSH2 0x19FC DUP2 DUP8 PUSH2 0x195A JUMP JUMPDEST SWAP1 POP PUSH2 0x1A0B PUSH1 0xA0 DUP4 ADD DUP7 PUSH2 0x193B JUMP JUMPDEST PUSH2 0x1A18 PUSH1 0xC0 DUP4 ADD DUP6 PUSH2 0x1992 JUMP JUMPDEST PUSH2 0x1A25 PUSH1 0xE0 DUP4 ADD DUP5 PUSH2 0x193B JUMP JUMPDEST SWAP10 SWAP9 POP POP POP POP POP POP POP POP POP JUMP JUMPDEST PUSH0 PUSH0 PUSH0 PUSH1 0x60 DUP5 DUP7 SUB SLT ISZERO PUSH2 0x1A49 JUMPI PUSH2 0x1A48 PUSH2 0x1604 JUMP JUMPDEST JUMPDEST PUSH0 PUSH2 0x1A56 DUP7 DUP3 DUP8 ADD PUSH2 0x162B JUMP JUMPDEST SWAP4 POP POP PUSH1 0x20 PUSH2 0x1A67 DUP7 DUP3 DUP8 ADD PUSH2 0x162B JUMP JUMPDEST SWAP3 POP POP PUSH1 0x40 PUSH2 0x1A78 DUP7 DUP3 DUP8 ADD PUSH2 0x162B JUMP JUMPDEST SWAP2 POP POP SWAP3 POP SWAP3 POP SWAP3 JUMP JUMPDEST PUSH0 PUSH1 0x20 DUP3 ADD SWAP1 POP PUSH2 0x1A95 PUSH0 DUP4 ADD DUP5 PUSH2 0x1992 JUMP JUMPDEST SWAP3 SWAP2 POP POP JUMP JUMPDEST PUSH0 PUSH0 REVERT JUMPDEST PUSH0 PUSH0 REVERT JUMPDEST PUSH32 0x4E487B7100000000000000000000000000000000000000000000000000000000 PUSH0 MSTORE PUSH1 0x41 PUSH1 0x4 MSTORE PUSH1 0x24 PUSH0 REVERT JUMPDEST PUSH2 0x1AD9 DUP3 PUSH2 0x17F7 JUMP JUMPDEST DUP2 ADD DUP2 DUP2 LT PUSH8 0xFFFFFFFFFFFFFFFF DUP3 GT OR ISZERO PUSH2 0x1AF8 JUMPI PUSH2 0x1AF7 PUSH2 0x1AA3 JUMP JUMPDEST JUMPDEST DUP1 PUSH1 0x40 MSTORE POP POP POP JUMP JUMPDEST PUSH0 PUSH2 0x1B0A PUSH2 0x15FB JUMP JUMPDEST SWAP1 POP PUSH2 0x1B16 DUP3 DUP3 PUSH2 0x1AD0 JUMP JUMPDEST SWAP2 SWAP1 POP JUMP JUMPDEST PUSH0 PUSH8 0xFFFFFFFFFFFFFFFF DUP3 GT ISZERO PUSH2 0x1B35 JUMPI PUSH2 0x1B34 PUSH2 0x1AA3 JUMP JUMPDEST JUMPDEST PUSH2 0x1B3E DUP3 PUSH2 0x17F7 JUMP JUMPDEST SWAP1 POP PUSH1 0x20 DUP2 ADD SWAP1 POP SWAP2 SWAP1 POP JUMP JUMPDEST DUP3 DUP2 DUP4 CALLDATACOPY PUSH0 DUP4 DUP4 ADD MSTORE POP POP POP JUMP JUMPDEST PUSH0 PUSH2 0x1B6B PUSH2 0x1B66 DUP5 PUSH2 0x1B1B JUMP JUMPDEST PUSH2 0x1B01 JUMP JUMPDEST SWAP1 POP DUP3 DUP2 MSTORE PUSH1 0x20 DUP2 ADD DUP5 DUP5 DUP5 ADD GT ISZERO PUSH2 0x1B87 JUMPI PUSH2 0x1B86 PUSH2 0x1A9F JUMP JUMPDEST JUMPDEST PUSH2 0x1B92 DUP5 DUP3 DUP6 PUSH2 0x1B4B JUMP JUMPDEST POP SWAP4 SWAP3 POP POP POP JUMP JUMPDEST PUSH0 DUP3 PUSH1 0x1F DUP4 ADD SLT PUSH2 0x1BAE JUMPI PUSH2 0x1BAD PUSH2 0x1A9B JUMP JUMPDEST JUMPDEST DUP2 CALLDATALOAD PUSH2 0x1BBE DUP5 DUP3 PUSH1 0x20 DUP7 ADD PUSH2 0x1B59 JUMP JUMPDEST SWAP2 POP POP SWAP3 SWAP2 POP POP JUMP JUMPDEST PUSH0 PUSH0 PUSH0 PUSH0 PUSH1 0x80 DUP6 DUP8 SUB SLT ISZERO PUSH2 0x1BDF JUMPI PUSH2 0x1BDE PUSH2 0x1604 JUMP JUMPDEST JUMPDEST PUSH0 PUSH2 0x1BEC DUP8 DUP3 DUP9 ADD PUSH2 0x162B JUMP JUMPDEST SWAP5 POP POP PUSH1 0x20 DUP6 ADD CALLDATALOAD PUSH8 0xFFFFFFFFFFFFFFFF DUP2 GT ISZERO PUSH2 0x1C0D JUMPI PUSH2 0x1C0C PUSH2 0x1608 JUMP JUMPDEST JUMPDEST PUSH2 0x1C19 DUP8 DUP3 DUP9 ADD PUSH2 0x1B9A JUMP JUMPDEST SWAP4 POP POP PUSH1 0x40 PUSH2 0x1C2A DUP8 DUP3 DUP9 ADD PUSH2 0x162B JUMP JUMPDEST SWAP3 POP POP PUSH1 0x60 DUP6 ADD CALLDATALOAD PUSH8 0xFFFFFFFFFFFFFFFF DUP2 GT ISZERO PUSH2 0x1C4B JUMPI PUSH2 0x1C4A PUSH2 0x1608 JUMP JUMPDEST JUMPDEST PUSH2 0x1C57 DUP8 DUP3 DUP9 ADD PUSH2 0x1B9A JUMP JUMPDEST SWAP2 POP POP SWAP3 SWAP6 SWAP2 SWAP5 POP SWAP3 POP JUMP JUMPDEST PUSH0 PUSH1 0x20 DUP3 ADD SWAP1 POP PUSH2 0x1C76 PUSH0 DUP4 ADD DUP5 PUSH2 0x193B JUMP JUMPDEST SWAP3 SWAP2 POP POP JUMP JUMPDEST PUSH0 PUSH0 PUSH0 PUSH1 0x60 DUP5 DUP7 SUB SLT ISZERO PUSH2 0x1C93 JUMPI PUSH2 0x1C92 PUSH2 0x1604 JUMP JUMPDEST JUMPDEST PUSH0 PUSH2 0x1CA0 DUP7 DUP3 DUP8 ADD PUSH2 0x162B JUMP JUMPDEST SWAP4 POP POP PUSH1 0x20 DUP5 ADD CALLDATALOAD PUSH8 0xFFFFFFFFFFFFFFFF DUP2 GT ISZERO PUSH2 0x1CC1 JUMPI PUSH2 0x1CC0 PUSH2 0x1608 JUMP JUMPDEST JUMPDEST PUSH2 0x1CCD DUP7 DUP3 DUP8 ADD PUSH2 0x1B9A JUMP JUMPDEST SWAP3 POP POP PUSH1 0x40 PUSH2 0x1CDE DUP7 DUP3 DUP8 ADD PUSH2 0x162B JUMP JUMPDEST SWAP2 POP POP SWAP3 POP SWAP3 POP SWAP3 JUMP JUMPDEST PUSH0 PUSH0 PUSH0 PUSH0 PUSH0 PUSH0 PUSH0 PUSH1 0xE0 DUP9 DUP11 SUB SLT ISZERO PUSH2 0x1D03 JUMPI PUSH2 0x1D02 PUSH2 0x1604 JUMP JUMPDEST JUMPDEST PUSH0 PUSH2 0x1D10 DUP11 DUP3 DUP12 ADD PUSH2 0x162B JUMP JUMPDEST SWAP8 POP POP PUSH1 0x20 DUP9 ADD CALLDATALOAD PUSH8 0xFFFFFFFFFFFFFFFF DUP2 GT ISZERO PUSH2 0x1D31 JUMPI PUSH2 0x1D30 PUSH2 0x1608 JUMP JUMPDEST JUMPDEST PUSH2 0x1D3D DUP11 DUP3 DUP12 ADD PUSH2 0x1B9A JUMP JUMPDEST SWAP7 POP POP PUSH1 0x40 PUSH2 0x1D4E DUP11 DUP3 DUP12 ADD PUSH2 0x162B JUMP JUMPDEST SWAP6 POP POP PUSH1 0x60 DUP9 ADD CALLDATALOAD PUSH8 0xFFFFFFFFFFFFFFFF DUP2 GT ISZERO PUSH2 0x1D6F JUMPI PUSH2 0x1D6E PUSH2 0x1608 JUMP JUMPDEST JUMPDEST PUSH2 0x1D7B DUP11 DUP3 DUP12 ADD PUSH2 0x1B9A JUMP JUMPDEST SWAP5 POP POP PUSH1 0x80 DUP9 ADD CALLDATALOAD PUSH8 0xFFFFFFFFFFFFFFFF DUP2 GT ISZERO PUSH2 0x1D9C JUMPI PUSH2 0x1D9B PUSH2 0x1608 JUMP JUMPDEST JUMPDEST PUSH2 0x1DA8 DUP11 DUP3 DUP12 ADD PUSH2 0x1B9A JUMP JUMPDEST SWAP4 POP POP PUSH1 0xA0 PUSH2 0x1DB9 DUP11 DUP3 DUP12 ADD PUSH2 0x162B JUMP JUMPDEST SWAP3 POP POP PUSH1 0xC0 PUSH2 0x1DCA DUP11 DUP3 DUP12 ADD PUSH2 0x1660 JUMP JUMPDEST SWAP2 POP POP SWAP3 SWAP6 SWAP9 SWAP2 SWAP5 SWAP8 POP SWAP3 SWAP6 POP JUMP JUMPDEST PUSH32 0x4F6E6C792061646D696E2063616E20706572666F726D20746869732061637469 PUSH0 DUP3 ADD MSTORE PUSH32 0x6F6E000000000000000000000000000000000000000000000000000000000000 PUSH1 0x20 DUP3 ADD MSTORE POP JUMP JUMPDEST PUSH0 PUSH2 0x1E33 PUSH1 0x22 DUP4 PUSH2 0x194A JUMP JUMPDEST SWAP2 POP PUSH2 0x1E3E DUP3 PUSH2 0x1DD9 JUMP JUMPDEST PUSH1 0x40 DUP3 ADD SWAP1 POP SWAP2 SWAP1 POP JUMP JUMPDEST PUSH0 PUSH1 0x20 DUP3 ADD SWAP1 POP DUP2 DUP2 SUB PUSH0 DUP4 ADD MSTORE PUSH2 0x1E60 DUP2 PUSH2 0x1E27 JUMP JUMPDEST SWAP1 POP SWAP2 SWAP1 POP JUMP JUMPDEST PUSH32 0x5061727469636970616E74206E6F7420666F756E640000000000000000000000 PUSH0 DUP3 ADD MSTORE POP JUMP JUMPDEST PUSH0 PUSH2 0x1E9B PUSH1 0x15 DUP4 PUSH2 0x194A JUMP JUMPDEST SWAP2 POP PUSH2 0x1EA6 DUP3 PUSH2 0x1E67 JUMP JUMPDEST PUSH1 0x20 DUP3 ADD SWAP1 POP SWAP2 SWAP1 POP JUMP JUMPDEST PUSH0 PUSH1 0x20 DUP3 ADD SWAP1 POP DUP2 DUP2 SUB PUSH0 DUP4 ADD MSTORE PUSH2 0x1EC8 DUP2 PUSH2 0x1E8F JUMP JUMPDEST SWAP1 POP SWAP2 SWAP1 POP JUMP JUMPDEST PUSH32 0x496E76616C696420747261696E696E6720696E74657265737400000000000000 PUSH0 DUP3 ADD MSTORE POP JUMP JUMPDEST PUSH0 PUSH2 0x1F03 PUSH1 0x19 DUP4 PUSH2 0x194A JUMP JUMPDEST SWAP2 POP PUSH2 0x1F0E DUP3 PUSH2 0x1ECF JUMP JUMPDEST PUSH1 0x20 DUP3 ADD SWAP1 POP SWAP2 SWAP1 POP JUMP JUMPDEST PUSH0 PUSH1 0x20 DUP3 ADD SWAP1 POP DUP2 DUP2 SUB PUSH0 DUP4 ADD MSTORE PUSH2 0x1F30 DUP2 PUSH2 0x1EF7 JUMP JUMPDEST SWAP1 POP SWAP2 SWAP1 POP JUMP JUMPDEST PUSH32 0x43616E6E6F74206368616E676520636F6D706C657465642066726F6D20747275 PUSH0 DUP3 ADD MSTORE PUSH32 0x6520746F2066616C736500000000000000000000000000000000000000000000 PUSH1 0x20 DUP3 ADD MSTORE POP JUMP JUMPDEST PUSH0 PUSH2 0x1F91 PUSH1 0x2A DUP4 PUSH2 0x194A JUMP JUMPDEST SWAP2 POP PUSH2 0x1F9C DUP3 PUSH2 0x1F37 JUMP JUMPDEST PUSH1 0x40 DUP3 ADD SWAP1 POP SWAP2 SWAP1 POP JUMP JUMPDEST PUSH0 PUSH1 0x20 DUP3 ADD SWAP1 POP DUP2 DUP2 SUB PUSH0 DUP4 ADD MSTORE PUSH2 0x1FBE DUP2 PUSH2 0x1F85 JUMP JUMPDEST SWAP1 POP SWAP2 SWAP1 POP JUMP JUMPDEST PUSH32 0x4E487B7100000000000000000000000000000000000000000000000000000000 PUSH0 MSTORE PUSH1 0x21 PUSH1 0x4 MSTORE PUSH1 0x24 PUSH0 REVERT JUMPDEST PUSH32 0x547261696E6572206E6F7420666F756E64000000000000000000000000000000 PUSH0 DUP3 ADD MSTORE POP JUMP JUMPDEST PUSH0 PUSH2 0x2026 PUSH1 0x11 DUP4 PUSH2 0x194A JUMP JUMPDEST SWAP2 POP PUSH2 0x2031 DUP3 PUSH2 0x1FF2 JUMP JUMPDEST PUSH1 0x20 DUP3 ADD SWAP1 POP SWAP2 SWAP1 POP JUMP JUMPDEST PUSH0 PUSH1 0x20 DUP3 ADD SWAP1 POP DUP2 DUP2 SUB PUSH0 DUP4 ADD MSTORE PUSH2 0x2053 DUP2 PUSH2 0x201A JUMP JUMPDEST SWAP1 POP SWAP2 SWAP1 POP JUMP JUMPDEST PUSH32 0x4E487B7100000000000000000000000000000000000000000000000000000000 PUSH0 MSTORE PUSH1 0x11 PUSH1 0x4 MSTORE PUSH1 0x24 PUSH0 REVERT JUMPDEST PUSH0 PUSH2 0x2091 DUP3 PUSH2 0x160C JUMP JUMPDEST SWAP2 POP PUSH32 0xFFFFFFFFFFFFFFFFFFFFFFFFFFFFFFFFFFFFFFFFFFFFFFFFFFFFFFFFFFFFFFFF DUP3 SUB PUSH2 0x20C3 JUMPI PUSH2 0x20C2 PUSH2 0x205A JUMP JUMPDEST JUMPDEST PUSH1 0x1 DUP3 ADD SWAP1 POP SWAP2 SWAP1 POP JUMP JUMPDEST PUSH32 0x4E487B7100000000000000000000000000000000000000000000000000000000 PUSH0 MSTORE PUSH1 0x32 PUSH1 0x4 MSTORE PUSH1 0x24 PUSH0 REVERT JUMPDEST PUSH32 0x4E487B7100000000000000000000000000000000000000000000000000000000 PUSH0 MSTORE PUSH1 0x12 PUSH1 0x4 MSTORE PUSH1 0x24 PUSH0 REVERT JUMPDEST PUSH0 PUSH2 0x2132 DUP3 PUSH2 0x160C JUMP JUMPDEST SWAP2 POP PUSH2 0x213D DUP4 PUSH2 0x160C JUMP JUMPDEST SWAP3 POP DUP3 PUSH2 0x214D JUMPI PUSH2 0x214C PUSH2 0x20FB JUMP JUMPDEST JUMPDEST DUP3 DUP3 DIV SWAP1 POP SWAP3 SWAP2 POP POP JUMP JUMPDEST PUSH0 PUSH2 0x2162 DUP3 PUSH2 0x160C JUMP JUMPDEST SWAP2 POP PUSH2 0x216D DUP4 PUSH2 0x160C JUMP JUMPDEST SWAP3 POP DUP3 PUSH2 0x217D JUMPI PUSH2 0x217C PUSH2 0x20FB JUMP JUMPDEST JUMPDEST DUP3 DUP3 MOD SWAP1 POP SWAP3 SWAP2 POP POP JUMP JUMPDEST PUSH0 PUSH2 0x2192 DUP3 PUSH2 0x160C JUMP JUMPDEST SWAP2 POP PUSH2 0x219D DUP4 PUSH2 0x160C JUMP JUMPDEST SWAP3 POP DUP3 DUP3 MUL PUSH2 0x21AB DUP2 PUSH2 0x160C JUMP JUMPDEST SWAP2 POP DUP3 DUP3 DIV DUP5 EQ DUP4 ISZERO OR PUSH2 0x21C2 JUMPI PUSH2 0x21C1 PUSH2 0x205A JUMP JUMPDEST JUMPDEST POP SWAP3 SWAP2 POP POP JUMP JUMPDEST PUSH0 PUSH2 0x21D3 DUP3 PUSH2 0x160C JUMP JUMPDEST SWAP2 POP PUSH2 0x21DE DUP4 PUSH2 0x160C JUMP JUMPDEST SWAP3 POP DUP3 DUP3 ADD SWAP1 POP DUP1 DUP3 GT ISZERO PUSH2 0x21F6 JUMPI PUSH2 0x21F5 PUSH2 0x205A JUMP JUMPDEST JUMPDEST SWAP3 SWAP2 POP POP JUMP JUMPDEST PUSH0 DUP2 SWAP1 POP SWAP3 SWAP2 POP POP JUMP JUMPDEST PUSH0 PUSH2 0x2210 DUP3 PUSH2 0x17CF JUMP JUMPDEST PUSH2 0x221A DUP2 DUP6 PUSH2 0x21FC JUMP JUMPDEST SWAP4 POP PUSH2 0x222A DUP2 DUP6 PUSH1 0x20 DUP7 ADD PUSH2 0x17E9 JUMP JUMPDEST DUP1 DUP5 ADD SWAP2 POP POP SWAP3 SWAP2 POP POP JUMP JUMPDEST PUSH32 0x3A00000000000000000000000000000000000000000000000000000000000000 PUSH0 DUP3 ADD MSTORE POP JUMP JUMPDEST PUSH0 PUSH2 0x226A PUSH1 0x1 DUP4 PUSH2 0x21FC JUMP JUMPDEST SWAP2 POP PUSH2 0x2275 DUP3 PUSH2 0x2236 JUMP JUMPDEST PUSH1 0x1 DUP3 ADD SWAP1 POP SWAP2 SWAP1 POP JUMP JUMPDEST PUSH32 0x2D00000000000000000000000000000000000000000000000000000000000000 PUSH0 DUP3 ADD MSTORE POP JUMP JUMPDEST PUSH0 PUSH2 0x22B4 PUSH1 0x1 DUP4 PUSH2 0x21FC JUMP JUMPDEST SWAP2 POP PUSH2 0x22BF DUP3 PUSH2 0x2280 JUMP JUMPDEST PUSH1 0x1 DUP3 ADD SWAP1 POP SWAP2 SWAP1 POP JUMP JUMPDEST PUSH0 PUSH2 0x22D5 DUP3 DUP8 PUSH2 0x2206 JUMP JUMPDEST SWAP2 POP PUSH2 0x22E0 DUP3 PUSH2 0x225E JUMP JUMPDEST SWAP2 POP PUSH2 0x22EC DUP3 DUP7 PUSH2 0x2206 JUMP JUMPDEST SWAP2 POP PUSH2 0x22F7 DUP3 PUSH2 0x22A8 JUMP JUMPDEST SWAP2 POP PUSH2 0x2303 DUP3 DUP6 PUSH2 0x2206 JUMP JUMPDEST SWAP2 POP PUSH2 0x230E DUP3 PUSH2 0x225E JUMP JUMPDEST SWAP2 POP PUSH2 0x231A DUP3 DUP5 PUSH2 0x2206 JUMP JUMPDEST SWAP2 POP DUP2 SWAP1 POP SWAP6 SWAP5 POP POP POP POP POP JUMP JUMPDEST PUSH32 0x4E487B7100000000000000000000000000000000000000000000000000000000 PUSH0 MSTORE PUSH1 0x22 PUSH1 0x4 MSTORE PUSH1 0x24 PUSH0 REVERT JUMPDEST PUSH0 PUSH1 0x2 DUP3 DIV SWAP1 POP PUSH1 0x1 DUP3 AND DUP1 PUSH2 0x236C JUMPI PUSH1 0x7F DUP3 AND SWAP2 POP JUMPDEST PUSH1 0x20 DUP3 LT DUP2 SUB PUSH2 0x237F JUMPI PUSH2 0x237E PUSH2 0x2328 JUMP JUMPDEST JUMPDEST POP SWAP2 SWAP1 POP JUMP JUMPDEST PUSH32 0x496E73756666696369656E74207061727469636970616E742062616C616E6365 PUSH0 DUP3 ADD MSTORE POP JUMP JUMPDEST PUSH0 PUSH2 0x23B9 PUSH1 0x20 DUP4 PUSH2 0x194A JUMP JUMPDEST SWAP2 POP PUSH2 0x23C4 DUP3 PUSH2 0x2385 JUMP JUMPDEST PUSH1 0x20 DUP3 ADD SWAP1 POP SWAP2 SWAP1 POP JUMP JUMPDEST PUSH0 PUSH1 0x20 DUP3 ADD SWAP1 POP DUP2 DUP2 SUB PUSH0 DUP4 ADD MSTORE PUSH2 0x23E6 DUP2 PUSH2 0x23AD JUMP JUMPDEST SWAP1 POP SWAP2 SWAP1 POP JUMP JUMPDEST PUSH32 0x4E6F2061646D696E7320617661696C61626C6500000000000000000000000000 PUSH0 DUP3 ADD MSTORE POP JUMP JUMPDEST PUSH0 PUSH2 0x2421 PUSH1 0x13 DUP4 PUSH2 0x194A JUMP JUMPDEST SWAP2 POP PUSH2 0x242C DUP3 PUSH2 0x23ED JUMP JUMPDEST PUSH1 0x20 DUP3 ADD SWAP1 POP SWAP2 SWAP1 POP JUMP JUMPDEST PUSH0 PUSH1 0x20 DUP3 ADD SWAP1 POP DUP2 DUP2 SUB PUSH0 DUP4 ADD MSTORE PUSH2 0x244E DUP2 PUSH2 0x2415 JUMP JUMPDEST SWAP1 POP SWAP2 SWAP1 POP JUMP JUMPDEST PUSH32 0x496E76616C696420736C6F742049440000000000000000000000000000000000 PUSH0 DUP3 ADD MSTORE POP JUMP JUMPDEST PUSH0 PUSH2 0x2489 PUSH1 0xF DUP4 PUSH2 0x194A JUMP JUMPDEST SWAP2 POP PUSH2 0x2494 DUP3 PUSH2 0x2455 JUMP JUMPDEST PUSH1 0x20 DUP3 ADD SWAP1 POP SWAP2 SWAP1 POP JUMP JUMPDEST PUSH0 PUSH1 0x20 DUP3 ADD SWAP1 POP DUP2 DUP2 SUB PUSH0 DUP4 ADD MSTORE PUSH2 0x24B6 DUP2 PUSH2 0x247D JUMP JUMPDEST SWAP1 POP SWAP2 SWAP1 POP JUMP JUMPDEST PUSH32 0x536C6F7420697320616C726561647920626F6F6B656400000000000000000000 PUSH0 DUP3 ADD MSTORE POP JUMP JUMPDEST PUSH0 PUSH2 0x24F1 PUSH1 0x16 DUP4 PUSH2 0x194A JUMP JUMPDEST SWAP2 POP PUSH2 0x24FC DUP3 PUSH2 0x24BD JUMP JUMPDEST PUSH1 0x20 DUP3 ADD SWAP1 POP SWAP2 SWAP1 POP JUMP JUMPDEST PUSH0 PUSH1 0x20 DUP3 ADD SWAP1 POP DUP2 DUP2 SUB PUSH0 DUP4 ADD MSTORE PUSH2 0x251E DUP2 PUSH2 0x24E5 JUMP JUMPDEST SWAP1 POP SWAP2 SWAP1 POP JUMP JUMPDEST PUSH0 DUP2 SWAP1 POP SWAP2 SWAP1 POP JUMP JUMPDEST PUSH2 0x253F PUSH2 0x253A DUP3 PUSH2 0x160C JUMP JUMPDEST PUSH2 0x2525 JUMP JUMPDEST DUP3 MSTORE POP POP JUMP JUMPDEST PUSH0 PUSH2 0x2550 DUP3 DUP7 PUSH2 0x252E JUMP JUMPDEST PUSH1 0x20 DUP3 ADD SWAP2 POP PUSH2 0x2560 DUP3 DUP6 PUSH2 0x252E JUMP JUMPDEST PUSH1 0x20 DUP3 ADD SWAP2 POP PUSH2 0x2570 DUP3 DUP5 PUSH2 0x252E JUMP JUMPDEST PUSH1 0x20 DUP3 ADD SWAP2 POP DUP2 SWAP1 POP SWAP5 SWAP4 POP POP POP POP JUMP JUMPDEST PUSH0 PUSH2 0x258B DUP3 PUSH2 0x160C JUMP JUMPDEST SWAP2 POP PUSH2 0x2596 DUP4 PUSH2 0x160C JUMP JUMPDEST SWAP3 POP DUP3 DUP3 SUB SWAP1 POP DUP2 DUP2 GT ISZERO PUSH2 0x25AE JUMPI PUSH2 0x25AD PUSH2 0x205A JUMP JUMPDEST JUMPDEST SWAP3 SWAP2 POP POP JUMP JUMPDEST PUSH32 0x496E76616C696420616765000000000000000000000000000000000000000000 PUSH0 DUP3 ADD MSTORE POP JUMP JUMPDEST PUSH0 PUSH2 0x25E8 PUSH1 0xB DUP4 PUSH2 0x194A JUMP JUMPDEST SWAP2 POP PUSH2 0x25F3 DUP3 PUSH2 0x25B4 JUMP JUMPDEST PUSH1 0x20 DUP3 ADD SWAP1 POP SWAP2 SWAP1 POP JUMP JUMPDEST PUSH0 PUSH1 0x20 DUP3 ADD SWAP1 POP DUP2 DUP2 SUB PUSH0 DUP4 ADD MSTORE PUSH2 0x2615 DUP2 PUSH2 0x25DC JUMP JUMPDEST SWAP1 POP SWAP2 SWAP1 POP JUMP JUMPDEST PUSH32 0x496E76616C696420494400000000000000000000000000000000000000000000 PUSH0 DUP3 ADD MSTORE POP JUMP JUMPDEST PUSH0 PUSH2 0x2650 PUSH1 0xA DUP4 PUSH2 0x194A JUMP JUMPDEST SWAP2 POP PUSH2 0x265B DUP3 PUSH2 0x261C JUMP JUMPDEST PUSH1 0x20 DUP3 ADD SWAP1 POP SWAP2 SWAP1 POP JUMP JUMPDEST PUSH0 PUSH1 0x20 DUP3 ADD SWAP1 POP DUP2 DUP2 SUB PUSH0 DUP4 ADD MSTORE PUSH2 0x267D DUP2 PUSH2 0x2644 JUMP JUMPDEST SWAP1 POP SWAP2 SWAP1 POP JUMP JUMPDEST PUSH32 0x547261696E657220494420616C72656164792065786973747300000000000000 PUSH0 DUP3 ADD MSTORE POP JUMP JUMPDEST PUSH0 PUSH2 0x26B8 PUSH1 0x19 DUP4 PUSH2 0x194A JUMP JUMPDEST SWAP2 POP PUSH2 0x26C3 DUP3 PUSH2 0x2684 JUMP JUMPDEST PUSH1 0x20 DUP3 ADD SWAP1 POP SWAP2 SWAP1 POP JUMP JUMPDEST PUSH0 PUSH1 0x20 DUP3 ADD SWAP1 POP DUP2 DUP2 SUB PUSH0 DUP4 ADD MSTORE PUSH2 0x26E5 DUP2 PUSH2 0x26AC JUMP JUMPDEST SWAP1 POP SWAP2 SWAP1 POP JUMP JUMPDEST PUSH0 DUP2 SWAP1 POP DUP2 PUSH0 MSTORE PUSH1 0x20 PUSH0 KECCAK256 SWAP1 POP SWAP2 SWAP1 POP JUMP JUMPDEST PUSH0 PUSH1 0x20 PUSH1 0x1F DUP4 ADD DIV SWAP1 POP SWAP2 SWAP1 POP JUMP JUMPDEST PUSH0 DUP3 DUP3 SHL SWAP1 POP SWAP3 SWAP2 POP POP JUMP JUMPDEST PUSH0 PUSH1 0x8 DUP4 MUL PUSH2 0x2748 PUSH32 0xFFFFFFFFFFFFFFFFFFFFFFFFFFFFFFFFFFFFFFFFFFFFFFFFFFFFFFFFFFFFFFFF DUP3 PUSH2 0x270D JUMP JUMPDEST PUSH2 0x2752 DUP7 DUP4 PUSH2 0x270D JUMP JUMPDEST SWAP6 POP DUP1 NOT DUP5 AND SWAP4 POP DUP1 DUP7 AND DUP5 OR SWAP3 POP POP POP SWAP4 SWAP3 POP POP POP JUMP JUMPDEST PUSH0 DUP2 SWAP1 POP SWAP2 SWAP1 POP JUMP JUMPDEST PUSH0 PUSH2 0x278D PUSH2 0x2788 PUSH2 0x2783 DUP5 PUSH2 0x160C JUMP JUMPDEST PUSH2 0x276A JUMP JUMPDEST PUSH2 0x160C JUMP JUMPDEST SWAP1 POP SWAP2 SWAP1 POP JUMP JUMPDEST PUSH0 DUP2 SWAP1 POP SWAP2 SWAP1 POP JUMP JUMPDEST PUSH2 0x27A6 DUP4 PUSH2 0x2773 JUMP JUMPDEST PUSH2 0x27BA PUSH2 0x27B2 DUP3 PUSH2 0x2794 JUMP JUMPDEST DUP5 DUP5 SLOAD PUSH2 0x2719 JUMP JUMPDEST DUP3 SSTORE POP POP POP POP JUMP JUMPDEST PUSH0 PUSH0 SWAP1 POP SWAP1 JUMP JUMPDEST PUSH2 0x27D1 PUSH2 0x27C2 JUMP JUMPDEST PUSH2 0x27DC DUP2 DUP5 DUP5 PUSH2 0x279D JUMP JUMPDEST POP POP POP JUMP JUMPDEST JUMPDEST DUP2 DUP2 LT ISZERO PUSH2 0x27FF JUMPI PUSH2 0x27F4 PUSH0 DUP3 PUSH2 0x27C9 JUMP JUMPDEST PUSH1 0x1 DUP2 ADD SWAP1 POP PUSH2 0x27E2 JUMP JUMPDEST POP POP JUMP JUMPDEST PUSH1 0x1F DUP3 GT ISZERO PUSH2 0x2844 JUMPI PUSH2 0x2815 DUP2 PUSH2 0x26EC JUMP JUMPDEST PUSH2 0x281E DUP5 PUSH2 0x26FE JUMP JUMPDEST DUP2 ADD PUSH1 0x20 DUP6 LT ISZERO PUSH2 0x282D JUMPI DUP2 SWAP1 POP JUMPDEST PUSH2 0x2841 PUSH2 0x2839 DUP6 PUSH2 0x26FE JUMP JUMPDEST DUP4 ADD DUP3 PUSH2 0x27E1 JUMP JUMPDEST POP POP JUMPDEST POP POP POP JUMP JUMPDEST PUSH0 DUP3 DUP3 SHR SWAP1 POP SWAP3 SWAP2 POP POP JUMP JUMPDEST PUSH0 PUSH2 0x2864 PUSH0 NOT DUP5 PUSH1 0x8 MUL PUSH2 0x2849 JUMP JUMPDEST NOT DUP1 DUP4 AND SWAP2 POP POP SWAP3 SWAP2 POP POP JUMP JUMPDEST PUSH0 PUSH2 0x287C DUP4 DUP4 PUSH2 0x2855 JUMP JUMPDEST SWAP2 POP DUP3 PUSH1 0x2 MUL DUP3 OR SWAP1 POP SWAP3 SWAP2 POP POP JUMP JUMPDEST PUSH2 0x2895 DUP3 PUSH2 0x17CF JUMP JUMPDEST PUSH8 0xFFFFFFFFFFFFFFFF DUP2 GT ISZERO PUSH2 0x28AE JUMPI PUSH2 0x28AD PUSH2 0x1AA3 JUMP JUMPDEST JUMPDEST PUSH2 0x28B8 DUP3 SLOAD PUSH2 0x2355 JUMP JUMPDEST PUSH2 0x28C3 DUP3 DUP3 DUP6 PUSH2 0x2803 JUMP JUMPDEST PUSH0 PUSH1 0x20 SWAP1 POP PUSH1 0x1F DUP4 GT PUSH1 0x1 DUP2 EQ PUSH2 0x28F4 JUMPI PUSH0 DUP5 ISZERO PUSH2 0x28E2 JUMPI DUP3 DUP8 ADD MLOAD SWAP1 POP JUMPDEST PUSH2 0x28EC DUP6 DUP3 PUSH2 0x2871 JUMP JUMPDEST DUP7 SSTORE POP PUSH2 0x2953 JUMP JUMPDEST PUSH1 0x1F NOT DUP5 AND PUSH2 0x2902 DUP7 PUSH2 0x26EC JUMP JUMPDEST PUSH0 JUMPDEST DUP3 DUP2 LT ISZERO PUSH2 0x2929 JUMPI DUP5 DUP10 ADD MLOAD DUP3 SSTORE PUSH1 0x1 DUP3 ADD SWAP2 POP PUSH1 0x20 DUP6 ADD SWAP5 POP PUSH1 0x20 DUP2 ADD SWAP1 POP PUSH2 0x2904 JUMP JUMPDEST DUP7 DUP4 LT ISZERO PUSH2 0x2946 JUMPI DUP5 DUP10 ADD MLOAD PUSH2 0x2942 PUSH1 0x1F DUP10 AND DUP3 PUSH2 0x2855 JUMP JUMPDEST DUP4 SSTORE POP JUMPDEST PUSH1 0x1 PUSH1 0x2 DUP9 MUL ADD DUP9 SSTORE POP POP POP JUMPDEST POP POP POP POP POP POP JUMP JUMPDEST PUSH32 0x41646D696E20494420616C726561647920657869737473000000000000000000 PUSH0 DUP3 ADD MSTORE POP JUMP JUMPDEST PUSH0 PUSH2 0x298F PUSH1 0x17 DUP4 PUSH2 0x194A JUMP JUMPDEST SWAP2 POP PUSH2 0x299A DUP3 PUSH2 0x295B JUMP JUMPDEST PUSH1 0x20 DUP3 ADD SWAP1 POP SWAP2 SWAP1 POP JUMP JUMPDEST PUSH0 PUSH1 0x20 DUP3 ADD SWAP1 POP DUP2 DUP2 SUB PUSH0 DUP4 ADD MSTORE PUSH2 0x29BC DUP2 PUSH2 0x2983 JUMP JUMPDEST SWAP1 POP SWAP2 SWAP1 POP JUMP JUMPDEST PUSH32 0x5061727469636970616E7420494420616C726561647920657869737473000000 PUSH0 DUP3 ADD MSTORE POP JUMP JUMPDEST PUSH0 PUSH2 0x29F7 PUSH1 0x1D DUP4 PUSH2 0x194A JUMP JUMPDEST SWAP2 POP PUSH2 0x2A02 DUP3 PUSH2 0x29C3 JUMP JUMPDEST PUSH1 0x20 DUP3 ADD SWAP1 POP SWAP2 SWAP1 POP JUMP JUMPDEST PUSH0 PUSH1 0x20 DUP3 ADD SWAP1 POP DUP2 DUP2 SUB PUSH0 DUP4 ADD MSTORE PUSH2 0x2A24 DUP2 PUSH2 0x29EB JUMP JUMPDEST SWAP1 POP SWAP2 SWAP1 POP JUMP JUMPDEST PUSH32 0x3000000000000000000000000000000000000000000000000000000000000000 PUSH0 DUP3 ADD MSTORE POP JUMP JUMPDEST PUSH0 PUSH2 0x2A5F PUSH1 0x1 DUP4 PUSH2 0x21FC JUMP JUMPDEST SWAP2 POP PUSH2 0x2A6A DUP3 PUSH2 0x2A2B JUMP JUMPDEST PUSH1 0x1 DUP3 ADD SWAP1 POP SWAP2 SWAP1 POP JUMP JUMPDEST PUSH0 PUSH32 0xFF00000000000000000000000000000000000000000000000000000000000000 DUP3 AND SWAP1 POP SWAP2 SWAP1 POP JUMP JUMPDEST PUSH0 DUP2 SWAP1 POP SWAP2 SWAP1 POP JUMP JUMPDEST PUSH2 0x2ABA PUSH2 0x2AB5 DUP3 PUSH2 0x2A75 JUMP JUMPDEST PUSH2 0x2AA0 JUMP JUMPDEST DUP3 MSTORE POP POP JUMP JUMPDEST PUSH0 PUSH2 0x2ACA DUP3 PUSH2 0x2A53 JUMP JUMPDEST SWAP2 POP PUSH2 0x2AD6 DUP3 DUP5 PUSH2 0x2AA9 JUMP JUMPDEST PUSH1 0x1 DUP3 ADD SWAP2 POP DUP2 SWAP1 POP SWAP3 SWAP2 POP POP JUMP INVALID LOG2 PUSH5 0x6970667358 0x22 SLT KECCAK256 STATICCALL DUP2 PC SDIV SWAP2 SWAP10 AND EXTCODECOPY EOFCREATE 0xF PUSH18 0xF018259F84E12B38F1E53F4223967D0EAA70 PUSH7 0xF78164736F6C63 NUMBER STOP ADDMOD 0x1E STOP CALLER "
		},
		"gasEstimates": {
			"creation": {
				"codeDepositCost": "2207000",
				"executionCost": "2351",
				"totalCost": "2209351"
			},
			"external": {
				"bookTrainingSlot(uint256,uint256,uint256)": "infinite",
				"registerAdmin(uint256,string,uint256)": "infinite",
				"registerParticipant(uint256,string,uint256,string,string,uint256,bool)": "infinite",
				"registerTrainer(uint256,string,uint256,string)": "infinite",
				"updateParticipantData(uint256,uint256,bool)": "infinite",
				"viewAdminBalance()": "infinite",
				"viewParticipantData(uint256)": "infinite",
				"viewTrainerSchedule(uint256)": "infinite"
			},
			"internal": {
				"_toString(uint256)": "infinite"
			}
		},
		"methodIdentifiers": {
			"bookTrainingSlot(uint256,uint256,uint256)": "6620f95f",
			"registerAdmin(uint256,string,uint256)": "710e2aba",
			"registerParticipant(uint256,string,uint256,string,string,uint256,bool)": "a30b027b",
			"registerTrainer(uint256,string,uint256,string)": "6c80cd33",
			"updateParticipantData(uint256,uint256,bool)": "3a7002e1",
			"viewAdminBalance()": "5a29dc29",
			"viewParticipantData(uint256)": "5ffc80f2",
			"viewTrainerSchedule(uint256)": "51eca4dd"
		}
	},
	"abi": [
		{
			"inputs": [],
			"stateMutability": "nonpayable",
			"type": "constructor"
		},
		{
			"inputs": [
				{
					"internalType": "uint256",
					"name": "trainerId",
					"type": "uint256"
				},
				{
					"internalType": "uint256",
					"name": "participantId",
					"type": "uint256"
				},
				{
					"internalType": "uint256",
					"name": "slotId",
					"type": "uint256"
				}
			],
			"name": "bookTrainingSlot",
			"outputs": [
				{
					"internalType": "bool",
					"name": "",
					"type": "bool"
				}
			],
			"stateMutability": "nonpayable",
			"type": "function"
		},
		{
			"inputs": [
				{
					"internalType": "uint256",
					"name": "id",
					"type": "uint256"
				},
				{
					"internalType": "string",
					"name": "name",
					"type": "string"
				},
				{
					"internalType": "uint256",
					"name": "age",
					"type": "uint256"
				}
			],
			"name": "registerAdmin",
			"outputs": [
				{
					"internalType": "uint256",
					"name": "",
					"type": "uint256"
				}
			],
			"stateMutability": "nonpayable",
			"type": "function"
		},
		{
			"inputs": [
				{
					"internalType": "uint256",
					"name": "id",
					"type": "uint256"
				},
				{
					"internalType": "string",
					"name": "name",
					"type": "string"
				},
				{
					"internalType": "uint256",
					"name": "age",
					"type": "uint256"
				},
				{
					"internalType": "string",
					"name": "gender",
					"type": "string"
				},
				{
					"internalType": "string",
					"name": "district",
					"type": "string"
				},
				{
					"internalType": "uint256",
					"name": "training_interest",
					"type": "uint256"
				},
				{
					"internalType": "bool",
					"name": "has_completed_training",
					"type": "bool"
				}
			],
			"name": "registerParticipant",
			"outputs": [
				{
					"internalType": "uint256",
					"name": "",
					"type": "uint256"
				}
			],
			"stateMutability": "nonpayable",
			"type": "function"
		},
		{
			"inputs": [
				{
					"internalType": "uint256",
					"name": "id",
					"type": "uint256"
				},
				{
					"internalType": "string",
					"name": "name",
					"type": "string"
				},
				{
					"internalType": "uint256",
					"name": "age",
					"type": "uint256"
				},
				{
					"internalType": "string",
					"name": "gender",
					"type": "string"
				}
			],
			"name": "registerTrainer",
			"outputs": [
				{
					"internalType": "uint256",
					"name": "",
					"type": "uint256"
				}
			],
			"stateMutability": "nonpayable",
			"type": "function"
		},
		{
			"inputs": [
				{
					"internalType": "uint256",
					"name": "participantId",
					"type": "uint256"
				},
				{
					"internalType": "uint256",
					"name": "newTrainingInterest",
					"type": "uint256"
				},
				{
					"internalType": "bool",
					"name": "has_completed_training",
					"type": "bool"
				}
			],
			"name": "updateParticipantData",
			"outputs": [],
			"stateMutability": "nonpayable",
			"type": "function"
		},
		{
			"inputs": [],
			"name": "viewAdminBalance",
			"outputs": [
				{
					"internalType": "uint256[]",
					"name": "adminIdList",
					"type": "uint256[]"
				},
				{
					"internalType": "uint256[]",
					"name": "balanceList",
					"type": "uint256[]"
				}
			],
			"stateMutability": "view",
			"type": "function"
		},
		{
			"inputs": [
				{
					"internalType": "uint256",
					"name": "participantId",
					"type": "uint256"
				}
			],
			"name": "viewParticipantData",
			"outputs": [
				{
					"internalType": "uint256",
					"name": "id",
					"type": "uint256"
				},
				{
					"internalType": "string",
					"name": "name",
					"type": "string"
				},
				{
					"internalType": "uint256",
					"name": "age",
					"type": "uint256"
				},
				{
					"internalType": "string",
					"name": "gender",
					"type": "string"
				},
				{
					"internalType": "string",
					"name": "district",
					"type": "string"
				},
				{
					"internalType": "uint256",
					"name": "training_interest",
					"type": "uint256"
				},
				{
					"internalType": "bool",
					"name": "has_completed_training",
					"type": "bool"
				},
				{
					"internalType": "uint256",
					"name": "balance",
					"type": "uint256"
				}
			],
			"stateMutability": "view",
			"type": "function"
		},
		{
			"inputs": [
				{
					"internalType": "uint256",
					"name": "trainerId",
					"type": "uint256"
				}
			],
			"name": "viewTrainerSchedule",
			"outputs": [
				{
					"internalType": "uint256[]",
					"name": "availableSlots",
					"type": "uint256[]"
				},
				{
					"internalType": "string[]",
					"name": "timeRanges",
					"type": "string[]"
				}
			],
			"stateMutability": "view",
			"type": "function"
		}
	]
}